{
	"contracts/Staking.sol": {
		"Staking": {
			"abi": [
				{
					"inputs": [
						{
							"internalType": "address",
							"name": "_token",
							"type": "address"
						}
					],
					"stateMutability": "nonpayable",
					"type": "constructor"
				},
				{
					"anonymous": false,
					"inputs": [
						{
							"indexed": true,
							"internalType": "address",
							"name": "user",
							"type": "address"
						},
						{
							"indexed": false,
							"internalType": "uint256",
							"name": "amount",
							"type": "uint256"
						}
					],
					"name": "Staked",
					"type": "event"
				},
				{
					"anonymous": false,
					"inputs": [
						{
							"indexed": true,
							"internalType": "address",
							"name": "user",
							"type": "address"
						},
						{
							"indexed": false,
							"internalType": "uint256",
							"name": "amount",
							"type": "uint256"
						},
						{
							"indexed": false,
							"internalType": "uint256",
							"name": "reward",
							"type": "uint256"
						}
					],
					"name": "Unstaked",
					"type": "event"
				},
				{
					"inputs": [
						{
							"internalType": "address",
							"name": "user",
							"type": "address"
						}
					],
					"name": "calculateReward",
					"outputs": [
						{
							"internalType": "uint256",
							"name": "",
							"type": "uint256"
						}
					],
					"stateMutability": "view",
					"type": "function"
				},
				{
					"inputs": [],
					"name": "rewardRate",
					"outputs": [
						{
							"internalType": "uint256",
							"name": "",
							"type": "uint256"
						}
					],
					"stateMutability": "view",
					"type": "function"
				},
				{
					"inputs": [
						{
							"internalType": "uint256",
							"name": "amount",
							"type": "uint256"
						}
					],
					"name": "stake",
					"outputs": [],
					"stateMutability": "nonpayable",
					"type": "function"
				},
				{
					"inputs": [
						{
							"internalType": "address",
							"name": "",
							"type": "address"
						}
					],
					"name": "stakes",
					"outputs": [
						{
							"internalType": "uint256",
							"name": "amount",
							"type": "uint256"
						},
						{
							"internalType": "uint256",
							"name": "timestamp",
							"type": "uint256"
						},
						{
							"internalType": "uint256",
							"name": "unclaimed",
							"type": "uint256"
						}
					],
					"stateMutability": "view",
					"type": "function"
				},
				{
					"inputs": [],
					"name": "token",
					"outputs": [
						{
							"internalType": "contract IERC20",
							"name": "",
							"type": "address"
						}
					],
					"stateMutability": "view",
					"type": "function"
				},
				{
					"inputs": [],
					"name": "unstake",
					"outputs": [],
					"stateMutability": "nonpayable",
					"type": "function"
				}
			],
			"devdoc": {
				"kind": "dev",
				"methods": {},
				"version": 1
			},
			"evm": {
				"assembly": "    /* \"contracts/Staking.sol\":247:3355  contract Staking {... */\n  mstore(0x40, 0xa0)\n    /* \"contracts/Staking.sol\":827:894  constructor(address _token) {... */\n  callvalue\n  dup1\n  iszero\n  tag_1\n  jumpi\n  0x00\n  dup1\n  revert\ntag_1:\n  pop\n  mload(0x40)\n  sub(codesize, bytecodeSize)\n  dup1\n  bytecodeSize\n  dup4\n  codecopy\n  dup2\n  dup2\n  add\n  0x40\n  mstore\n  dup2\n  add\n  swap1\n  tag_2\n  swap2\n  swap1\n  tag_3\n  jump\t// in\ntag_2:\n    /* \"contracts/Staking.sol\":880:886  _token */\n  dup1\n    /* \"contracts/Staking.sol\":865:887  token = IERC20(_token) */\n  0xffffffffffffffffffffffffffffffffffffffff\n  and\n  0x80\n  dup2\n  0xffffffffffffffffffffffffffffffffffffffff\n  and\n  dup2\n  mstore\n  pop\n  pop\n    /* \"contracts/Staking.sol\":827:894  constructor(address _token) {... */\n  pop\n    /* \"contracts/Staking.sol\":247:3355  contract Staking {... */\n  jump(tag_6)\n    /* \"#utility.yul\":88:205   */\ntag_8:\n    /* \"#utility.yul\":197:198   */\n  0x00\n    /* \"#utility.yul\":194:195   */\n  dup1\n    /* \"#utility.yul\":187:199   */\n  revert\n    /* \"#utility.yul\":334:460   */\ntag_10:\n    /* \"#utility.yul\":371:378   */\n  0x00\n    /* \"#utility.yul\":411:453   */\n  0xffffffffffffffffffffffffffffffffffffffff\n    /* \"#utility.yul\":404:409   */\n  dup3\n    /* \"#utility.yul\":400:454   */\n  and\n    /* \"#utility.yul\":389:454   */\n  swap1\n  pop\n    /* \"#utility.yul\":334:460   */\n  swap2\n  swap1\n  pop\n  jump\t// out\n    /* \"#utility.yul\":466:562   */\ntag_11:\n    /* \"#utility.yul\":503:510   */\n  0x00\n    /* \"#utility.yul\":532:556   */\n  tag_20\n    /* \"#utility.yul\":550:555   */\n  dup3\n    /* \"#utility.yul\":532:556   */\n  tag_10\n  jump\t// in\ntag_20:\n    /* \"#utility.yul\":521:556   */\n  swap1\n  pop\n    /* \"#utility.yul\":466:562   */\n  swap2\n  swap1\n  pop\n  jump\t// out\n    /* \"#utility.yul\":568:690   */\ntag_12:\n    /* \"#utility.yul\":641:665   */\n  tag_22\n    /* \"#utility.yul\":659:664   */\n  dup2\n    /* \"#utility.yul\":641:665   */\n  tag_11\n  jump\t// in\ntag_22:\n    /* \"#utility.yul\":634:639   */\n  dup2\n    /* \"#utility.yul\":631:666   */\n  eq\n    /* \"#utility.yul\":621:684   */\n  tag_23\n  jumpi\n    /* \"#utility.yul\":680:681   */\n  0x00\n    /* \"#utility.yul\":677:678   */\n  dup1\n    /* \"#utility.yul\":670:682   */\n  revert\n    /* \"#utility.yul\":621:684   */\ntag_23:\n    /* \"#utility.yul\":568:690   */\n  pop\n  jump\t// out\n    /* \"#utility.yul\":696:839   */\ntag_13:\n    /* \"#utility.yul\":753:758   */\n  0x00\n    /* \"#utility.yul\":784:790   */\n  dup2\n    /* \"#utility.yul\":778:791   */\n  mload\n    /* \"#utility.yul\":769:791   */\n  swap1\n  pop\n    /* \"#utility.yul\":800:833   */\n  tag_25\n    /* \"#utility.yul\":827:832   */\n  dup2\n    /* \"#utility.yul\":800:833   */\n  tag_12\n  jump\t// in\ntag_25:\n    /* \"#utility.yul\":696:839   */\n  swap3\n  swap2\n  pop\n  pop\n  jump\t// out\n    /* \"#utility.yul\":845:1196   */\ntag_3:\n    /* \"#utility.yul\":915:921   */\n  0x00\n    /* \"#utility.yul\":964:966   */\n  0x20\n    /* \"#utility.yul\":952:961   */\n  dup3\n    /* \"#utility.yul\":943:950   */\n  dup5\n    /* \"#utility.yul\":939:962   */\n  sub\n    /* \"#utility.yul\":935:967   */\n  slt\n    /* \"#utility.yul\":932:1051   */\n  iszero\n  tag_27\n  jumpi\n    /* \"#utility.yul\":970:1049   */\n  tag_28\n  tag_8\n  jump\t// in\ntag_28:\n    /* \"#utility.yul\":932:1051   */\ntag_27:\n    /* \"#utility.yul\":1090:1091   */\n  0x00\n    /* \"#utility.yul\":1115:1179   */\n  tag_29\n    /* \"#utility.yul\":1171:1178   */\n  dup5\n    /* \"#utility.yul\":1162:1168   */\n  dup3\n    /* \"#utility.yul\":1151:1160   */\n  dup6\n    /* \"#utility.yul\":1147:1169   */\n  add\n    /* \"#utility.yul\":1115:1179   */\n  tag_13\n  jump\t// in\ntag_29:\n    /* \"#utility.yul\":1105:1179   */\n  swap2\n  pop\n    /* \"#utility.yul\":1061:1189   */\n  pop\n    /* \"#utility.yul\":845:1196   */\n  swap3\n  swap2\n  pop\n  pop\n  jump\t// out\n    /* \"contracts/Staking.sol\":247:3355  contract Staking {... */\ntag_6:\n  mload(0x80)\n  codecopy(0x00, dataOffset(sub_0), dataSize(sub_0))\n  0x00\n  assignImmutable(\"0x81e080ffc23e8b8d44dd829bc823229e92b893eb1d8f624419d3f5682eb97fc3\")\n  return(0x00, dataSize(sub_0))\nstop\n\nsub_0: assembly {\n        /* \"contracts/Staking.sol\":247:3355  contract Staking {... */\n      mstore(0x40, 0x80)\n      callvalue\n      dup1\n      iszero\n      tag_1\n      jumpi\n      0x00\n      dup1\n      revert\n    tag_1:\n      pop\n      jumpi(tag_2, lt(calldatasize, 0x04))\n      shr(0xe0, calldataload(0x00))\n      dup1\n      0x16934fc4\n      eq\n      tag_3\n      jumpi\n      dup1\n      0x2def6620\n      eq\n      tag_4\n      jumpi\n      dup1\n      0x7b0a47ee\n      eq\n      tag_5\n      jumpi\n      dup1\n      0xa694fc3a\n      eq\n      tag_6\n      jumpi\n      dup1\n      0xd82e3962\n      eq\n      tag_7\n      jumpi\n      dup1\n      0xfc0c546a\n      eq\n      tag_8\n      jumpi\n    tag_2:\n      0x00\n      dup1\n      revert\n        /* \"contracts/Staking.sol\":583:622  mapping(address => Stake) public stakes */\n    tag_3:\n      tag_9\n      0x04\n      dup1\n      calldatasize\n      sub\n      dup2\n      add\n      swap1\n      tag_10\n      swap2\n      swap1\n      tag_11\n      jump\t// in\n    tag_10:\n      tag_12\n      jump\t// in\n    tag_9:\n      mload(0x40)\n      tag_13\n      swap4\n      swap3\n      swap2\n      swap1\n      tag_14\n      jump\t// in\n    tag_13:\n      mload(0x40)\n      dup1\n      swap2\n      sub\n      swap1\n      return\n        /* \"contracts/Staking.sol\":2531:3353  function unstake() external {... */\n    tag_4:\n      tag_15\n      tag_16\n      jump\t// in\n    tag_15:\n      stop\n        /* \"contracts/Staking.sol\":628:667  uint256 public constant rewardRate = 10 */\n    tag_5:\n      tag_17\n      tag_18\n      jump\t// in\n    tag_17:\n      mload(0x40)\n      tag_19\n      swap2\n      swap1\n      tag_20\n      jump\t// in\n    tag_19:\n      mload(0x40)\n      dup1\n      swap2\n      sub\n      swap1\n      return\n        /* \"contracts/Staking.sol\":2053:2525  function stake(uint256 amount) external {... */\n    tag_6:\n      tag_21\n      0x04\n      dup1\n      calldatasize\n      sub\n      dup2\n      add\n      swap1\n      tag_22\n      swap2\n      swap1\n      tag_23\n      jump\t// in\n    tag_22:\n      tag_24\n      jump\t// in\n    tag_21:\n      stop\n        /* \"contracts/Staking.sol\":1874:2047  function calculateReward(address user) public view returns (uint256) {... */\n    tag_7:\n      tag_25\n      0x04\n      dup1\n      calldatasize\n      sub\n      dup2\n      add\n      swap1\n      tag_26\n      swap2\n      swap1\n      tag_11\n      jump\t// in\n    tag_26:\n      tag_27\n      jump\t// in\n    tag_25:\n      mload(0x40)\n      tag_28\n      swap2\n      swap1\n      tag_20\n      jump\t// in\n    tag_28:\n      mload(0x40)\n      dup1\n      swap2\n      sub\n      swap1\n      return\n        /* \"contracts/Staking.sol\":270:299  IERC20 public immutable token */\n    tag_8:\n      tag_29\n      tag_30\n      jump\t// in\n    tag_29:\n      mload(0x40)\n      tag_31\n      swap2\n      swap1\n      tag_32\n      jump\t// in\n    tag_31:\n      mload(0x40)\n      dup1\n      swap2\n      sub\n      swap1\n      return\n        /* \"contracts/Staking.sol\":583:622  mapping(address => Stake) public stakes */\n    tag_12:\n      mstore(0x20, 0x00)\n      dup1\n      0x00\n      mstore\n      keccak256(0x00, 0x40)\n      0x00\n      swap2\n      pop\n      swap1\n      pop\n      dup1\n      0x00\n      add\n      sload\n      swap1\n      dup1\n      0x01\n      add\n      sload\n      swap1\n      dup1\n      0x02\n      add\n      sload\n      swap1\n      pop\n      dup4\n      jump\t// out\n        /* \"contracts/Staking.sol\":2531:3353  function unstake() external {... */\n    tag_16:\n        /* \"contracts/Staking.sol\":2569:2584  Stake storage s */\n      0x00\n        /* \"contracts/Staking.sol\":2587:2593  stakes */\n      dup1\n        /* \"contracts/Staking.sol\":2587:2605  stakes[msg.sender] */\n      0x00\n        /* \"contracts/Staking.sol\":2594:2604  msg.sender */\n      caller\n        /* \"contracts/Staking.sol\":2587:2605  stakes[msg.sender] */\n      0xffffffffffffffffffffffffffffffffffffffff\n      and\n      0xffffffffffffffffffffffffffffffffffffffff\n      and\n      dup2\n      mstore\n      0x20\n      add\n      swap1\n      dup2\n      mstore\n      0x20\n      add\n      0x00\n      keccak256\n        /* \"contracts/Staking.sol\":2569:2605  Stake storage s = stakes[msg.sender] */\n      swap1\n      pop\n        /* \"contracts/Staking.sol\":2634:2635  0 */\n      0x00\n        /* \"contracts/Staking.sol\":2623:2624  s */\n      dup2\n        /* \"contracts/Staking.sol\":2623:2631  s.amount */\n      0x00\n      add\n      sload\n        /* \"contracts/Staking.sol\":2623:2635  s.amount > 0 */\n      gt\n        /* \"contracts/Staking.sol\":2615:2658  require(s.amount > 0, \"Nothing to unstake\") */\n      tag_34\n      jumpi\n      mload(0x40)\n      0x08c379a000000000000000000000000000000000000000000000000000000000\n      dup2\n      mstore\n      0x04\n      add\n      tag_35\n      swap1\n      tag_36\n      jump\t// in\n    tag_35:\n      mload(0x40)\n      dup1\n      swap2\n      sub\n      swap1\n      revert\n    tag_34:\n        /* \"contracts/Staking.sol\":2721:2735  uint256 reward */\n      0x00\n        /* \"contracts/Staking.sol\":2738:2765  calculateReward(msg.sender) */\n      tag_37\n        /* \"contracts/Staking.sol\":2754:2764  msg.sender */\n      caller\n        /* \"contracts/Staking.sol\":2738:2753  calculateReward */\n      tag_27\n        /* \"contracts/Staking.sol\":2738:2765  calculateReward(msg.sender) */\n      jump\t// in\n    tag_37:\n        /* \"contracts/Staking.sol\":2721:2765  uint256 reward = calculateReward(msg.sender) */\n      swap1\n      pop\n        /* \"contracts/Staking.sol\":2775:2792  uint256 principal */\n      0x00\n        /* \"contracts/Staking.sol\":2795:2796  s */\n      dup3\n        /* \"contracts/Staking.sol\":2795:2803  s.amount */\n      0x00\n      add\n      sload\n        /* \"contracts/Staking.sol\":2775:2803  uint256 principal = s.amount */\n      swap1\n      pop\n        /* \"contracts/Staking.sol\":2952:2953  0 */\n      0x00\n        /* \"contracts/Staking.sol\":2941:2942  s */\n      dup4\n        /* \"contracts/Staking.sol\":2941:2949  s.amount */\n      0x00\n      add\n        /* \"contracts/Staking.sol\":2941:2953  s.amount = 0 */\n      dup2\n      swap1\n      sstore\n      pop\n        /* \"contracts/Staking.sol\":2977:2978  0 */\n      0x00\n        /* \"contracts/Staking.sol\":2963:2964  s */\n      dup4\n        /* \"contracts/Staking.sol\":2963:2974  s.unclaimed */\n      0x02\n      add\n        /* \"contracts/Staking.sol\":2963:2978  s.unclaimed = 0 */\n      dup2\n      swap1\n      sstore\n      pop\n        /* \"contracts/Staking.sol\":3002:3017  block.timestamp */\n      timestamp\n        /* \"contracts/Staking.sol\":2988:2989  s */\n      dup4\n        /* \"contracts/Staking.sol\":2988:2999  s.timestamp */\n      0x01\n      add\n        /* \"contracts/Staking.sol\":2988:3017  s.timestamp = block.timestamp */\n      dup2\n      swap1\n      sstore\n      pop\n        /* \"contracts/Staking.sol\":3225:3230  token */\n      immutable(\"0x81e080ffc23e8b8d44dd829bc823229e92b893eb1d8f624419d3f5682eb97fc3\")\n        /* \"contracts/Staking.sol\":3225:3239  token.transfer */\n      0xffffffffffffffffffffffffffffffffffffffff\n      and\n      0xa9059cbb\n        /* \"contracts/Staking.sol\":3240:3250  msg.sender */\n      caller\n        /* \"contracts/Staking.sol\":3264:3270  reward */\n      dup5\n        /* \"contracts/Staking.sol\":3252:3261  principal */\n      dup5\n        /* \"contracts/Staking.sol\":3252:3270  principal + reward */\n      tag_38\n      swap2\n      swap1\n      tag_39\n      jump\t// in\n    tag_38:\n        /* \"contracts/Staking.sol\":3225:3271  token.transfer(msg.sender, principal + reward) */\n      mload(0x40)\n      dup4\n      0xffffffff\n      and\n      0xe0\n      shl\n      dup2\n      mstore\n      0x04\n      add\n      tag_40\n      swap3\n      swap2\n      swap1\n      tag_41\n      jump\t// in\n    tag_40:\n      0x20\n      mload(0x40)\n      dup1\n      dup4\n      sub\n      dup2\n      0x00\n      dup8\n      gas\n      call\n      iszero\n      dup1\n      iszero\n      tag_43\n      jumpi\n      returndatasize\n      0x00\n      dup1\n      returndatacopy\n      revert(0x00, returndatasize)\n    tag_43:\n      pop\n      pop\n      pop\n      pop\n      mload(0x40)\n      returndatasize\n      not(0x1f)\n      0x1f\n      dup3\n      add\n      and\n      dup3\n      add\n      dup1\n      0x40\n      mstore\n      pop\n      dup2\n      add\n      swap1\n      tag_44\n      swap2\n      swap1\n      tag_45\n      jump\t// in\n    tag_44:\n        /* \"contracts/Staking.sol\":3217:3291  require(token.transfer(msg.sender, principal + reward), \"Transfer failed\") */\n      tag_46\n      jumpi\n      mload(0x40)\n      0x08c379a000000000000000000000000000000000000000000000000000000000\n      dup2\n      mstore\n      0x04\n      add\n      tag_47\n      swap1\n      tag_48\n      jump\t// in\n    tag_47:\n      mload(0x40)\n      dup1\n      swap2\n      sub\n      swap1\n      revert\n    tag_46:\n        /* \"contracts/Staking.sol\":3316:3326  msg.sender */\n      caller\n        /* \"contracts/Staking.sol\":3307:3346  Unstaked(msg.sender, principal, reward) */\n      0xffffffffffffffffffffffffffffffffffffffff\n      and\n      0x7fc4727e062e336010f2c282598ef5f14facb3de68cf8195c2f23e1454b2b74e\n        /* \"contracts/Staking.sol\":3328:3337  principal */\n      dup3\n        /* \"contracts/Staking.sol\":3339:3345  reward */\n      dup5\n        /* \"contracts/Staking.sol\":3307:3346  Unstaked(msg.sender, principal, reward) */\n      mload(0x40)\n      tag_49\n      swap3\n      swap2\n      swap1\n      tag_50\n      jump\t// in\n    tag_49:\n      mload(0x40)\n      dup1\n      swap2\n      sub\n      swap1\n      log2\n        /* \"contracts/Staking.sol\":2559:3353  {... */\n      pop\n      pop\n      pop\n        /* \"contracts/Staking.sol\":2531:3353  function unstake() external {... */\n      jump\t// out\n        /* \"contracts/Staking.sol\":628:667  uint256 public constant rewardRate = 10 */\n    tag_18:\n        /* \"contracts/Staking.sol\":665:667  10 */\n      0x0a\n        /* \"contracts/Staking.sol\":628:667  uint256 public constant rewardRate = 10 */\n      dup2\n      jump\t// out\n        /* \"contracts/Staking.sol\":2053:2525  function stake(uint256 amount) external {... */\n    tag_24:\n        /* \"contracts/Staking.sol\":2120:2121  0 */\n      0x00\n        /* \"contracts/Staking.sol\":2111:2117  amount */\n      dup2\n        /* \"contracts/Staking.sol\":2111:2121  amount > 0 */\n      gt\n        /* \"contracts/Staking.sol\":2103:2144  require(amount > 0, \"Amount must be > 0\") */\n      tag_52\n      jumpi\n      mload(0x40)\n      0x08c379a000000000000000000000000000000000000000000000000000000000\n      dup2\n      mstore\n      0x04\n      add\n      tag_53\n      swap1\n      tag_54\n      jump\t// in\n    tag_53:\n      mload(0x40)\n      dup1\n      swap2\n      sub\n      swap1\n      revert\n    tag_52:\n        /* \"contracts/Staking.sol\":2281:2307  _updateRewards(msg.sender) */\n      tag_55\n        /* \"contracts/Staking.sol\":2296:2306  msg.sender */\n      caller\n        /* \"contracts/Staking.sol\":2281:2295  _updateRewards */\n      tag_56\n        /* \"contracts/Staking.sol\":2281:2307  _updateRewards(msg.sender) */\n      jump\t// in\n    tag_55:\n        /* \"contracts/Staking.sol\":2318:2330  bool success */\n      0x00\n        /* \"contracts/Staking.sol\":2333:2338  token */\n      immutable(\"0x81e080ffc23e8b8d44dd829bc823229e92b893eb1d8f624419d3f5682eb97fc3\")\n        /* \"contracts/Staking.sol\":2333:2351  token.transferFrom */\n      0xffffffffffffffffffffffffffffffffffffffff\n      and\n      0x23b872dd\n        /* \"contracts/Staking.sol\":2352:2362  msg.sender */\n      caller\n        /* \"contracts/Staking.sol\":2372:2376  this */\n      address\n        /* \"contracts/Staking.sol\":2379:2385  amount */\n      dup6\n        /* \"contracts/Staking.sol\":2333:2386  token.transferFrom(msg.sender, address(this), amount) */\n      mload(0x40)\n      dup5\n      0xffffffff\n      and\n      0xe0\n      shl\n      dup2\n      mstore\n      0x04\n      add\n      tag_57\n      swap4\n      swap3\n      swap2\n      swap1\n      tag_58\n      jump\t// in\n    tag_57:\n      0x20\n      mload(0x40)\n      dup1\n      dup4\n      sub\n      dup2\n      0x00\n      dup8\n      gas\n      call\n      iszero\n      dup1\n      iszero\n      tag_60\n      jumpi\n      returndatasize\n      0x00\n      dup1\n      returndatacopy\n      revert(0x00, returndatasize)\n    tag_60:\n      pop\n      pop\n      pop\n      pop\n      mload(0x40)\n      returndatasize\n      not(0x1f)\n      0x1f\n      dup3\n      add\n      and\n      dup3\n      add\n      dup1\n      0x40\n      mstore\n      pop\n      dup2\n      add\n      swap1\n      tag_61\n      swap2\n      swap1\n      tag_45\n      jump\t// in\n    tag_61:\n        /* \"contracts/Staking.sol\":2318:2386  bool success = token.transferFrom(msg.sender, address(this), amount) */\n      swap1\n      pop\n        /* \"contracts/Staking.sol\":2404:2411  success */\n      dup1\n        /* \"contracts/Staking.sol\":2396:2431  require(success, \"Transfer failed\") */\n      tag_62\n      jumpi\n      mload(0x40)\n      0x08c379a000000000000000000000000000000000000000000000000000000000\n      dup2\n      mstore\n      0x04\n      add\n      tag_63\n      swap1\n      tag_48\n      jump\t// in\n    tag_63:\n      mload(0x40)\n      dup1\n      swap2\n      sub\n      swap1\n      revert\n    tag_62:\n        /* \"contracts/Staking.sol\":2471:2477  amount */\n      dup2\n        /* \"contracts/Staking.sol\":2442:2448  stakes */\n      0x00\n        /* \"contracts/Staking.sol\":2442:2460  stakes[msg.sender] */\n      dup1\n        /* \"contracts/Staking.sol\":2449:2459  msg.sender */\n      caller\n        /* \"contracts/Staking.sol\":2442:2460  stakes[msg.sender] */\n      0xffffffffffffffffffffffffffffffffffffffff\n      and\n      0xffffffffffffffffffffffffffffffffffffffff\n      and\n      dup2\n      mstore\n      0x20\n      add\n      swap1\n      dup2\n      mstore\n      0x20\n      add\n      0x00\n      keccak256\n        /* \"contracts/Staking.sol\":2442:2467  stakes[msg.sender].amount */\n      0x00\n      add\n      0x00\n        /* \"contracts/Staking.sol\":2442:2477  stakes[msg.sender].amount += amount */\n      dup3\n      dup3\n      sload\n      tag_64\n      swap2\n      swap1\n      tag_39\n      jump\t// in\n    tag_64:\n      swap3\n      pop\n      pop\n      dup2\n      swap1\n      sstore\n      pop\n        /* \"contracts/Staking.sol\":2499:2509  msg.sender */\n      caller\n        /* \"contracts/Staking.sol\":2492:2518  Staked(msg.sender, amount) */\n      0xffffffffffffffffffffffffffffffffffffffff\n      and\n      0x9e71bc8eea02a63969f509818f2dafb9254532904319f9dbda79b67bd34a5f3d\n        /* \"contracts/Staking.sol\":2511:2517  amount */\n      dup4\n        /* \"contracts/Staking.sol\":2492:2518  Staked(msg.sender, amount) */\n      mload(0x40)\n      tag_65\n      swap2\n      swap1\n      tag_20\n      jump\t// in\n    tag_65:\n      mload(0x40)\n      dup1\n      swap2\n      sub\n      swap1\n      log2\n        /* \"contracts/Staking.sol\":2093:2525  {... */\n      pop\n        /* \"contracts/Staking.sol\":2053:2525  function stake(uint256 amount) external {... */\n      pop\n      jump\t// out\n        /* \"contracts/Staking.sol\":1874:2047  function calculateReward(address user) public view returns (uint256) {... */\n    tag_27:\n        /* \"contracts/Staking.sol\":1934:1941  uint256 */\n      0x00\n        /* \"contracts/Staking.sol\":1953:1968  Stake storage s */\n      dup1\n        /* \"contracts/Staking.sol\":1971:1977  stakes */\n      0x00\n        /* \"contracts/Staking.sol\":1971:1983  stakes[user] */\n      dup1\n        /* \"contracts/Staking.sol\":1978:1982  user */\n      dup5\n        /* \"contracts/Staking.sol\":1971:1983  stakes[user] */\n      0xffffffffffffffffffffffffffffffffffffffff\n      and\n      0xffffffffffffffffffffffffffffffffffffffff\n      and\n      dup2\n      mstore\n      0x20\n      add\n      swap1\n      dup2\n      mstore\n      0x20\n      add\n      0x00\n      keccak256\n        /* \"contracts/Staking.sol\":1953:1983  Stake storage s = stakes[user] */\n      swap1\n      pop\n        /* \"contracts/Staking.sol\":2014:2040  _calculateNewRewards(user) */\n      tag_67\n        /* \"contracts/Staking.sol\":2035:2039  user */\n      dup4\n        /* \"contracts/Staking.sol\":2014:2034  _calculateNewRewards */\n      tag_68\n        /* \"contracts/Staking.sol\":2014:2040  _calculateNewRewards(user) */\n      jump\t// in\n    tag_67:\n        /* \"contracts/Staking.sol\":2000:2001  s */\n      dup2\n        /* \"contracts/Staking.sol\":2000:2011  s.unclaimed */\n      0x02\n      add\n      sload\n        /* \"contracts/Staking.sol\":2000:2040  s.unclaimed + _calculateNewRewards(user) */\n      tag_69\n      swap2\n      swap1\n      tag_39\n      jump\t// in\n    tag_69:\n        /* \"contracts/Staking.sol\":1993:2040  return s.unclaimed + _calculateNewRewards(user) */\n      swap2\n      pop\n      pop\n        /* \"contracts/Staking.sol\":1874:2047  function calculateReward(address user) public view returns (uint256) {... */\n      swap2\n      swap1\n      pop\n      jump\t// out\n        /* \"contracts/Staking.sol\":270:299  IERC20 public immutable token */\n    tag_30:\n      immutable(\"0x81e080ffc23e8b8d44dd829bc823229e92b893eb1d8f624419d3f5682eb97fc3\")\n      dup2\n      jump\t// out\n        /* \"contracts/Staking.sol\":1061:1287  function _updateRewards(address user) internal {... */\n    tag_56:\n        /* \"contracts/Staking.sol\":1118:1133  Stake storage s */\n      0x00\n        /* \"contracts/Staking.sol\":1136:1142  stakes */\n      dup1\n        /* \"contracts/Staking.sol\":1136:1148  stakes[user] */\n      0x00\n        /* \"contracts/Staking.sol\":1143:1147  user */\n      dup4\n        /* \"contracts/Staking.sol\":1136:1148  stakes[user] */\n      0xffffffffffffffffffffffffffffffffffffffff\n      and\n      0xffffffffffffffffffffffffffffffffffffffff\n      and\n      dup2\n      mstore\n      0x20\n      add\n      swap1\n      dup2\n      mstore\n      0x20\n      add\n      0x00\n      keccak256\n        /* \"contracts/Staking.sol\":1118:1148  Stake storage s = stakes[user] */\n      swap1\n      pop\n        /* \"contracts/Staking.sol\":1173:1174  0 */\n      0x00\n        /* \"contracts/Staking.sol\":1162:1163  s */\n      dup2\n        /* \"contracts/Staking.sol\":1162:1170  s.amount */\n      0x00\n      add\n      sload\n        /* \"contracts/Staking.sol\":1162:1174  s.amount > 0 */\n      gt\n        /* \"contracts/Staking.sol\":1158:1242  if (s.amount > 0) {... */\n      iszero\n      tag_71\n      jumpi\n        /* \"contracts/Staking.sol\":1205:1231  _calculateNewRewards(user) */\n      tag_72\n        /* \"contracts/Staking.sol\":1226:1230  user */\n      dup3\n        /* \"contracts/Staking.sol\":1205:1225  _calculateNewRewards */\n      tag_68\n        /* \"contracts/Staking.sol\":1205:1231  _calculateNewRewards(user) */\n      jump\t// in\n    tag_72:\n        /* \"contracts/Staking.sol\":1190:1191  s */\n      dup2\n        /* \"contracts/Staking.sol\":1190:1201  s.unclaimed */\n      0x02\n      add\n      0x00\n        /* \"contracts/Staking.sol\":1190:1231  s.unclaimed += _calculateNewRewards(user) */\n      dup3\n      dup3\n      sload\n      tag_73\n      swap2\n      swap1\n      tag_39\n      jump\t// in\n    tag_73:\n      swap3\n      pop\n      pop\n      dup2\n      swap1\n      sstore\n      pop\n        /* \"contracts/Staking.sol\":1158:1242  if (s.amount > 0) {... */\n    tag_71:\n        /* \"contracts/Staking.sol\":1265:1280  block.timestamp */\n      timestamp\n        /* \"contracts/Staking.sol\":1251:1252  s */\n      dup2\n        /* \"contracts/Staking.sol\":1251:1262  s.timestamp */\n      0x01\n      add\n        /* \"contracts/Staking.sol\":1251:1280  s.timestamp = block.timestamp */\n      dup2\n      swap1\n      sstore\n      pop\n        /* \"contracts/Staking.sol\":1108:1287  {... */\n      pop\n        /* \"contracts/Staking.sol\":1061:1287  function _updateRewards(address user) internal {... */\n      pop\n      jump\t// out\n        /* \"contracts/Staking.sol\":1410:1756  function _calculateNewRewards(address user) internal view returns (uint256) {... */\n    tag_68:\n        /* \"contracts/Staking.sol\":1477:1484  uint256 */\n      0x00\n        /* \"contracts/Staking.sol\":1496:1511  Stake storage s */\n      dup1\n        /* \"contracts/Staking.sol\":1514:1520  stakes */\n      0x00\n        /* \"contracts/Staking.sol\":1514:1526  stakes[user] */\n      dup1\n        /* \"contracts/Staking.sol\":1521:1525  user */\n      dup5\n        /* \"contracts/Staking.sol\":1514:1526  stakes[user] */\n      0xffffffffffffffffffffffffffffffffffffffff\n      and\n      0xffffffffffffffffffffffffffffffffffffffff\n      and\n      dup2\n      mstore\n      0x20\n      add\n      swap1\n      dup2\n      mstore\n      0x20\n      add\n      0x00\n      keccak256\n        /* \"contracts/Staking.sol\":1496:1526  Stake storage s = stakes[user] */\n      swap1\n      pop\n        /* \"contracts/Staking.sol\":1536:1554  uint256 timePassed */\n      0x00\n        /* \"contracts/Staking.sol\":1575:1576  s */\n      dup2\n        /* \"contracts/Staking.sol\":1575:1586  s.timestamp */\n      0x01\n      add\n      sload\n        /* \"contracts/Staking.sol\":1557:1572  block.timestamp */\n      timestamp\n        /* \"contracts/Staking.sol\":1557:1586  block.timestamp - s.timestamp */\n      tag_75\n      swap2\n      swap1\n      tag_76\n      jump\t// in\n    tag_75:\n        /* \"contracts/Staking.sol\":1536:1586  uint256 timePassed = block.timestamp - s.timestamp */\n      swap1\n      pop\n        /* \"contracts/Staking.sol\":1734:1748  365 days * 100 */\n      0xbbf81e00\n        /* \"contracts/Staking.sol\":1719:1729  timePassed */\n      dup2\n        /* \"contracts/Staking.sol\":665:667  10 */\n      0x0a\n        /* \"contracts/Staking.sol\":1695:1696  s */\n      dup5\n        /* \"contracts/Staking.sol\":1695:1703  s.amount */\n      0x00\n      add\n      sload\n        /* \"contracts/Staking.sol\":1695:1716  s.amount * rewardRate */\n      tag_77\n      swap2\n      swap1\n      tag_78\n      jump\t// in\n    tag_77:\n        /* \"contracts/Staking.sol\":1695:1729  s.amount * rewardRate * timePassed */\n      tag_79\n      swap2\n      swap1\n      tag_78\n      jump\t// in\n    tag_79:\n        /* \"contracts/Staking.sol\":1694:1749  (s.amount * rewardRate * timePassed) / (365 days * 100) */\n      tag_80\n      swap2\n      swap1\n      tag_81\n      jump\t// in\n    tag_80:\n        /* \"contracts/Staking.sol\":1687:1749  return (s.amount * rewardRate * timePassed) / (365 days * 100) */\n      swap3\n      pop\n      pop\n      pop\n        /* \"contracts/Staking.sol\":1410:1756  function _calculateNewRewards(address user) internal view returns (uint256) {... */\n      swap2\n      swap1\n      pop\n      jump\t// out\n        /* \"#utility.yul\":88:205   */\n    tag_83:\n        /* \"#utility.yul\":197:198   */\n      0x00\n        /* \"#utility.yul\":194:195   */\n      dup1\n        /* \"#utility.yul\":187:199   */\n      revert\n        /* \"#utility.yul\":334:460   */\n    tag_85:\n        /* \"#utility.yul\":371:378   */\n      0x00\n        /* \"#utility.yul\":411:453   */\n      0xffffffffffffffffffffffffffffffffffffffff\n        /* \"#utility.yul\":404:409   */\n      dup3\n        /* \"#utility.yul\":400:454   */\n      and\n        /* \"#utility.yul\":389:454   */\n      swap1\n      pop\n        /* \"#utility.yul\":334:460   */\n      swap2\n      swap1\n      pop\n      jump\t// out\n        /* \"#utility.yul\":466:562   */\n    tag_86:\n        /* \"#utility.yul\":503:510   */\n      0x00\n        /* \"#utility.yul\":532:556   */\n      tag_117\n        /* \"#utility.yul\":550:555   */\n      dup3\n        /* \"#utility.yul\":532:556   */\n      tag_85\n      jump\t// in\n    tag_117:\n        /* \"#utility.yul\":521:556   */\n      swap1\n      pop\n        /* \"#utility.yul\":466:562   */\n      swap2\n      swap1\n      pop\n      jump\t// out\n        /* \"#utility.yul\":568:690   */\n    tag_87:\n        /* \"#utility.yul\":641:665   */\n      tag_119\n        /* \"#utility.yul\":659:664   */\n      dup2\n        /* \"#utility.yul\":641:665   */\n      tag_86\n      jump\t// in\n    tag_119:\n        /* \"#utility.yul\":634:639   */\n      dup2\n        /* \"#utility.yul\":631:666   */\n      eq\n        /* \"#utility.yul\":621:684   */\n      tag_120\n      jumpi\n        /* \"#utility.yul\":680:681   */\n      0x00\n        /* \"#utility.yul\":677:678   */\n      dup1\n        /* \"#utility.yul\":670:682   */\n      revert\n        /* \"#utility.yul\":621:684   */\n    tag_120:\n        /* \"#utility.yul\":568:690   */\n      pop\n      jump\t// out\n        /* \"#utility.yul\":696:835   */\n    tag_88:\n        /* \"#utility.yul\":742:747   */\n      0x00\n        /* \"#utility.yul\":780:786   */\n      dup2\n        /* \"#utility.yul\":767:787   */\n      calldataload\n        /* \"#utility.yul\":758:787   */\n      swap1\n      pop\n        /* \"#utility.yul\":796:829   */\n      tag_122\n        /* \"#utility.yul\":823:828   */\n      dup2\n        /* \"#utility.yul\":796:829   */\n      tag_87\n      jump\t// in\n    tag_122:\n        /* \"#utility.yul\":696:835   */\n      swap3\n      swap2\n      pop\n      pop\n      jump\t// out\n        /* \"#utility.yul\":841:1170   */\n    tag_11:\n        /* \"#utility.yul\":900:906   */\n      0x00\n        /* \"#utility.yul\":949:951   */\n      0x20\n        /* \"#utility.yul\":937:946   */\n      dup3\n        /* \"#utility.yul\":928:935   */\n      dup5\n        /* \"#utility.yul\":924:947   */\n      sub\n        /* \"#utility.yul\":920:952   */\n      slt\n        /* \"#utility.yul\":917:1036   */\n      iszero\n      tag_124\n      jumpi\n        /* \"#utility.yul\":955:1034   */\n      tag_125\n      tag_83\n      jump\t// in\n    tag_125:\n        /* \"#utility.yul\":917:1036   */\n    tag_124:\n        /* \"#utility.yul\":1075:1076   */\n      0x00\n        /* \"#utility.yul\":1100:1153   */\n      tag_126\n        /* \"#utility.yul\":1145:1152   */\n      dup5\n        /* \"#utility.yul\":1136:1142   */\n      dup3\n        /* \"#utility.yul\":1125:1134   */\n      dup6\n        /* \"#utility.yul\":1121:1143   */\n      add\n        /* \"#utility.yul\":1100:1153   */\n      tag_88\n      jump\t// in\n    tag_126:\n        /* \"#utility.yul\":1090:1153   */\n      swap2\n      pop\n        /* \"#utility.yul\":1046:1163   */\n      pop\n        /* \"#utility.yul\":841:1170   */\n      swap3\n      swap2\n      pop\n      pop\n      jump\t// out\n        /* \"#utility.yul\":1176:1253   */\n    tag_89:\n        /* \"#utility.yul\":1213:1220   */\n      0x00\n        /* \"#utility.yul\":1242:1247   */\n      dup2\n        /* \"#utility.yul\":1231:1247   */\n      swap1\n      pop\n        /* \"#utility.yul\":1176:1253   */\n      swap2\n      swap1\n      pop\n      jump\t// out\n        /* \"#utility.yul\":1259:1377   */\n    tag_90:\n        /* \"#utility.yul\":1346:1370   */\n      tag_129\n        /* \"#utility.yul\":1364:1369   */\n      dup2\n        /* \"#utility.yul\":1346:1370   */\n      tag_89\n      jump\t// in\n    tag_129:\n        /* \"#utility.yul\":1341:1344   */\n      dup3\n        /* \"#utility.yul\":1334:1371   */\n      mstore\n        /* \"#utility.yul\":1259:1377   */\n      pop\n      pop\n      jump\t// out\n        /* \"#utility.yul\":1383:1825   */\n    tag_14:\n        /* \"#utility.yul\":1532:1536   */\n      0x00\n        /* \"#utility.yul\":1570:1572   */\n      0x60\n        /* \"#utility.yul\":1559:1568   */\n      dup3\n        /* \"#utility.yul\":1555:1573   */\n      add\n        /* \"#utility.yul\":1547:1573   */\n      swap1\n      pop\n        /* \"#utility.yul\":1583:1654   */\n      tag_131\n        /* \"#utility.yul\":1651:1652   */\n      0x00\n        /* \"#utility.yul\":1640:1649   */\n      dup4\n        /* \"#utility.yul\":1636:1653   */\n      add\n        /* \"#utility.yul\":1627:1633   */\n      dup7\n        /* \"#utility.yul\":1583:1654   */\n      tag_90\n      jump\t// in\n    tag_131:\n        /* \"#utility.yul\":1664:1736   */\n      tag_132\n        /* \"#utility.yul\":1732:1734   */\n      0x20\n        /* \"#utility.yul\":1721:1730   */\n      dup4\n        /* \"#utility.yul\":1717:1735   */\n      add\n        /* \"#utility.yul\":1708:1714   */\n      dup6\n        /* \"#utility.yul\":1664:1736   */\n      tag_90\n      jump\t// in\n    tag_132:\n        /* \"#utility.yul\":1746:1818   */\n      tag_133\n        /* \"#utility.yul\":1814:1816   */\n      0x40\n        /* \"#utility.yul\":1803:1812   */\n      dup4\n        /* \"#utility.yul\":1799:1817   */\n      add\n        /* \"#utility.yul\":1790:1796   */\n      dup5\n        /* \"#utility.yul\":1746:1818   */\n      tag_90\n      jump\t// in\n    tag_133:\n        /* \"#utility.yul\":1383:1825   */\n      swap5\n      swap4\n      pop\n      pop\n      pop\n      pop\n      jump\t// out\n        /* \"#utility.yul\":1831:2053   */\n    tag_20:\n        /* \"#utility.yul\":1924:1928   */\n      0x00\n        /* \"#utility.yul\":1962:1964   */\n      0x20\n        /* \"#utility.yul\":1951:1960   */\n      dup3\n        /* \"#utility.yul\":1947:1965   */\n      add\n        /* \"#utility.yul\":1939:1965   */\n      swap1\n      pop\n        /* \"#utility.yul\":1975:2046   */\n      tag_135\n        /* \"#utility.yul\":2043:2044   */\n      0x00\n        /* \"#utility.yul\":2032:2041   */\n      dup4\n        /* \"#utility.yul\":2028:2045   */\n      add\n        /* \"#utility.yul\":2019:2025   */\n      dup5\n        /* \"#utility.yul\":1975:2046   */\n      tag_90\n      jump\t// in\n    tag_135:\n        /* \"#utility.yul\":1831:2053   */\n      swap3\n      swap2\n      pop\n      pop\n      jump\t// out\n        /* \"#utility.yul\":2059:2181   */\n    tag_91:\n        /* \"#utility.yul\":2132:2156   */\n      tag_137\n        /* \"#utility.yul\":2150:2155   */\n      dup2\n        /* \"#utility.yul\":2132:2156   */\n      tag_89\n      jump\t// in\n    tag_137:\n        /* \"#utility.yul\":2125:2130   */\n      dup2\n        /* \"#utility.yul\":2122:2157   */\n      eq\n        /* \"#utility.yul\":2112:2175   */\n      tag_138\n      jumpi\n        /* \"#utility.yul\":2171:2172   */\n      0x00\n        /* \"#utility.yul\":2168:2169   */\n      dup1\n        /* \"#utility.yul\":2161:2173   */\n      revert\n        /* \"#utility.yul\":2112:2175   */\n    tag_138:\n        /* \"#utility.yul\":2059:2181   */\n      pop\n      jump\t// out\n        /* \"#utility.yul\":2187:2326   */\n    tag_92:\n        /* \"#utility.yul\":2233:2238   */\n      0x00\n        /* \"#utility.yul\":2271:2277   */\n      dup2\n        /* \"#utility.yul\":2258:2278   */\n      calldataload\n        /* \"#utility.yul\":2249:2278   */\n      swap1\n      pop\n        /* \"#utility.yul\":2287:2320   */\n      tag_140\n        /* \"#utility.yul\":2314:2319   */\n      dup2\n        /* \"#utility.yul\":2287:2320   */\n      tag_91\n      jump\t// in\n    tag_140:\n        /* \"#utility.yul\":2187:2326   */\n      swap3\n      swap2\n      pop\n      pop\n      jump\t// out\n        /* \"#utility.yul\":2332:2661   */\n    tag_23:\n        /* \"#utility.yul\":2391:2397   */\n      0x00\n        /* \"#utility.yul\":2440:2442   */\n      0x20\n        /* \"#utility.yul\":2428:2437   */\n      dup3\n        /* \"#utility.yul\":2419:2426   */\n      dup5\n        /* \"#utility.yul\":2415:2438   */\n      sub\n        /* \"#utility.yul\":2411:2443   */\n      slt\n        /* \"#utility.yul\":2408:2527   */\n      iszero\n      tag_142\n      jumpi\n        /* \"#utility.yul\":2446:2525   */\n      tag_143\n      tag_83\n      jump\t// in\n    tag_143:\n        /* \"#utility.yul\":2408:2527   */\n    tag_142:\n        /* \"#utility.yul\":2566:2567   */\n      0x00\n        /* \"#utility.yul\":2591:2644   */\n      tag_144\n        /* \"#utility.yul\":2636:2643   */\n      dup5\n        /* \"#utility.yul\":2627:2633   */\n      dup3\n        /* \"#utility.yul\":2616:2625   */\n      dup6\n        /* \"#utility.yul\":2612:2634   */\n      add\n        /* \"#utility.yul\":2591:2644   */\n      tag_92\n      jump\t// in\n    tag_144:\n        /* \"#utility.yul\":2581:2644   */\n      swap2\n      pop\n        /* \"#utility.yul\":2537:2654   */\n      pop\n        /* \"#utility.yul\":2332:2661   */\n      swap3\n      swap2\n      pop\n      pop\n      jump\t// out\n        /* \"#utility.yul\":2667:2727   */\n    tag_93:\n        /* \"#utility.yul\":2695:2698   */\n      0x00\n        /* \"#utility.yul\":2716:2721   */\n      dup2\n        /* \"#utility.yul\":2709:2721   */\n      swap1\n      pop\n        /* \"#utility.yul\":2667:2727   */\n      swap2\n      swap1\n      pop\n      jump\t// out\n        /* \"#utility.yul\":2733:2875   */\n    tag_94:\n        /* \"#utility.yul\":2783:2792   */\n      0x00\n        /* \"#utility.yul\":2816:2869   */\n      tag_147\n        /* \"#utility.yul\":2834:2868   */\n      tag_148\n        /* \"#utility.yul\":2843:2867   */\n      tag_149\n        /* \"#utility.yul\":2861:2866   */\n      dup5\n        /* \"#utility.yul\":2843:2867   */\n      tag_85\n      jump\t// in\n    tag_149:\n        /* \"#utility.yul\":2834:2868   */\n      tag_93\n      jump\t// in\n    tag_148:\n        /* \"#utility.yul\":2816:2869   */\n      tag_85\n      jump\t// in\n    tag_147:\n        /* \"#utility.yul\":2803:2869   */\n      swap1\n      pop\n        /* \"#utility.yul\":2733:2875   */\n      swap2\n      swap1\n      pop\n      jump\t// out\n        /* \"#utility.yul\":2881:3007   */\n    tag_95:\n        /* \"#utility.yul\":2931:2940   */\n      0x00\n        /* \"#utility.yul\":2964:3001   */\n      tag_151\n        /* \"#utility.yul\":2995:3000   */\n      dup3\n        /* \"#utility.yul\":2964:3001   */\n      tag_94\n      jump\t// in\n    tag_151:\n        /* \"#utility.yul\":2951:3001   */\n      swap1\n      pop\n        /* \"#utility.yul\":2881:3007   */\n      swap2\n      swap1\n      pop\n      jump\t// out\n        /* \"#utility.yul\":3013:3152   */\n    tag_96:\n        /* \"#utility.yul\":3076:3085   */\n      0x00\n        /* \"#utility.yul\":3109:3146   */\n      tag_153\n        /* \"#utility.yul\":3140:3145   */\n      dup3\n        /* \"#utility.yul\":3109:3146   */\n      tag_95\n      jump\t// in\n    tag_153:\n        /* \"#utility.yul\":3096:3146   */\n      swap1\n      pop\n        /* \"#utility.yul\":3013:3152   */\n      swap2\n      swap1\n      pop\n      jump\t// out\n        /* \"#utility.yul\":3158:3315   */\n    tag_97:\n        /* \"#utility.yul\":3258:3308   */\n      tag_155\n        /* \"#utility.yul\":3302:3307   */\n      dup2\n        /* \"#utility.yul\":3258:3308   */\n      tag_96\n      jump\t// in\n    tag_155:\n        /* \"#utility.yul\":3253:3256   */\n      dup3\n        /* \"#utility.yul\":3246:3309   */\n      mstore\n        /* \"#utility.yul\":3158:3315   */\n      pop\n      pop\n      jump\t// out\n        /* \"#utility.yul\":3321:3569   */\n    tag_32:\n        /* \"#utility.yul\":3427:3431   */\n      0x00\n        /* \"#utility.yul\":3465:3467   */\n      0x20\n        /* \"#utility.yul\":3454:3463   */\n      dup3\n        /* \"#utility.yul\":3450:3468   */\n      add\n        /* \"#utility.yul\":3442:3468   */\n      swap1\n      pop\n        /* \"#utility.yul\":3478:3562   */\n      tag_157\n        /* \"#utility.yul\":3559:3560   */\n      0x00\n        /* \"#utility.yul\":3548:3557   */\n      dup4\n        /* \"#utility.yul\":3544:3561   */\n      add\n        /* \"#utility.yul\":3535:3541   */\n      dup5\n        /* \"#utility.yul\":3478:3562   */\n      tag_97\n      jump\t// in\n    tag_157:\n        /* \"#utility.yul\":3321:3569   */\n      swap3\n      swap2\n      pop\n      pop\n      jump\t// out\n        /* \"#utility.yul\":3575:3744   */\n    tag_98:\n        /* \"#utility.yul\":3659:3670   */\n      0x00\n        /* \"#utility.yul\":3693:3699   */\n      dup3\n        /* \"#utility.yul\":3688:3691   */\n      dup3\n        /* \"#utility.yul\":3681:3700   */\n      mstore\n        /* \"#utility.yul\":3733:3737   */\n      0x20\n        /* \"#utility.yul\":3728:3731   */\n      dup3\n        /* \"#utility.yul\":3724:3738   */\n      add\n        /* \"#utility.yul\":3709:3738   */\n      swap1\n      pop\n        /* \"#utility.yul\":3575:3744   */\n      swap3\n      swap2\n      pop\n      pop\n      jump\t// out\n        /* \"#utility.yul\":3750:3918   */\n    tag_99:\n        /* \"#utility.yul\":3890:3910   */\n      0x4e6f7468696e6720746f20756e7374616b650000000000000000000000000000\n        /* \"#utility.yul\":3886:3887   */\n      0x00\n        /* \"#utility.yul\":3878:3884   */\n      dup3\n        /* \"#utility.yul\":3874:3888   */\n      add\n        /* \"#utility.yul\":3867:3911   */\n      mstore\n        /* \"#utility.yul\":3750:3918   */\n      pop\n      jump\t// out\n        /* \"#utility.yul\":3924:4290   */\n    tag_100:\n        /* \"#utility.yul\":4066:4069   */\n      0x00\n        /* \"#utility.yul\":4087:4154   */\n      tag_161\n        /* \"#utility.yul\":4151:4153   */\n      0x12\n        /* \"#utility.yul\":4146:4149   */\n      dup4\n        /* \"#utility.yul\":4087:4154   */\n      tag_98\n      jump\t// in\n    tag_161:\n        /* \"#utility.yul\":4080:4154   */\n      swap2\n      pop\n        /* \"#utility.yul\":4163:4256   */\n      tag_162\n        /* \"#utility.yul\":4252:4255   */\n      dup3\n        /* \"#utility.yul\":4163:4256   */\n      tag_99\n      jump\t// in\n    tag_162:\n        /* \"#utility.yul\":4281:4283   */\n      0x20\n        /* \"#utility.yul\":4276:4279   */\n      dup3\n        /* \"#utility.yul\":4272:4284   */\n      add\n        /* \"#utility.yul\":4265:4284   */\n      swap1\n      pop\n        /* \"#utility.yul\":3924:4290   */\n      swap2\n      swap1\n      pop\n      jump\t// out\n        /* \"#utility.yul\":4296:4715   */\n    tag_36:\n        /* \"#utility.yul\":4462:4466   */\n      0x00\n        /* \"#utility.yul\":4500:4502   */\n      0x20\n        /* \"#utility.yul\":4489:4498   */\n      dup3\n        /* \"#utility.yul\":4485:4503   */\n      add\n        /* \"#utility.yul\":4477:4503   */\n      swap1\n      pop\n        /* \"#utility.yul\":4549:4558   */\n      dup2\n        /* \"#utility.yul\":4543:4547   */\n      dup2\n        /* \"#utility.yul\":4539:4559   */\n      sub\n        /* \"#utility.yul\":4535:4536   */\n      0x00\n        /* \"#utility.yul\":4524:4533   */\n      dup4\n        /* \"#utility.yul\":4520:4537   */\n      add\n        /* \"#utility.yul\":4513:4560   */\n      mstore\n        /* \"#utility.yul\":4577:4708   */\n      tag_164\n        /* \"#utility.yul\":4703:4707   */\n      dup2\n        /* \"#utility.yul\":4577:4708   */\n      tag_100\n      jump\t// in\n    tag_164:\n        /* \"#utility.yul\":4569:4708   */\n      swap1\n      pop\n        /* \"#utility.yul\":4296:4715   */\n      swap2\n      swap1\n      pop\n      jump\t// out\n        /* \"#utility.yul\":4721:4901   */\n    tag_101:\n        /* \"#utility.yul\":4769:4846   */\n      0x4e487b7100000000000000000000000000000000000000000000000000000000\n        /* \"#utility.yul\":4766:4767   */\n      0x00\n        /* \"#utility.yul\":4759:4847   */\n      mstore\n        /* \"#utility.yul\":4866:4870   */\n      0x11\n        /* \"#utility.yul\":4863:4864   */\n      0x04\n        /* \"#utility.yul\":4856:4871   */\n      mstore\n        /* \"#utility.yul\":4890:4894   */\n      0x24\n        /* \"#utility.yul\":4887:4888   */\n      0x00\n        /* \"#utility.yul\":4880:4895   */\n      revert\n        /* \"#utility.yul\":4907:5098   */\n    tag_39:\n        /* \"#utility.yul\":4947:4950   */\n      0x00\n        /* \"#utility.yul\":4966:4986   */\n      tag_167\n        /* \"#utility.yul\":4984:4985   */\n      dup3\n        /* \"#utility.yul\":4966:4986   */\n      tag_89\n      jump\t// in\n    tag_167:\n        /* \"#utility.yul\":4961:4986   */\n      swap2\n      pop\n        /* \"#utility.yul\":5000:5020   */\n      tag_168\n        /* \"#utility.yul\":5018:5019   */\n      dup4\n        /* \"#utility.yul\":5000:5020   */\n      tag_89\n      jump\t// in\n    tag_168:\n        /* \"#utility.yul\":4995:5020   */\n      swap3\n      pop\n        /* \"#utility.yul\":5043:5044   */\n      dup3\n        /* \"#utility.yul\":5040:5041   */\n      dup3\n        /* \"#utility.yul\":5036:5045   */\n      add\n        /* \"#utility.yul\":5029:5045   */\n      swap1\n      pop\n        /* \"#utility.yul\":5064:5067   */\n      dup1\n        /* \"#utility.yul\":5061:5062   */\n      dup3\n        /* \"#utility.yul\":5058:5068   */\n      gt\n        /* \"#utility.yul\":5055:5091   */\n      iszero\n      tag_169\n      jumpi\n        /* \"#utility.yul\":5071:5089   */\n      tag_170\n      tag_101\n      jump\t// in\n    tag_170:\n        /* \"#utility.yul\":5055:5091   */\n    tag_169:\n        /* \"#utility.yul\":4907:5098   */\n      swap3\n      swap2\n      pop\n      pop\n      jump\t// out\n        /* \"#utility.yul\":5104:5222   */\n    tag_102:\n        /* \"#utility.yul\":5191:5215   */\n      tag_172\n        /* \"#utility.yul\":5209:5214   */\n      dup2\n        /* \"#utility.yul\":5191:5215   */\n      tag_86\n      jump\t// in\n    tag_172:\n        /* \"#utility.yul\":5186:5189   */\n      dup3\n        /* \"#utility.yul\":5179:5216   */\n      mstore\n        /* \"#utility.yul\":5104:5222   */\n      pop\n      pop\n      jump\t// out\n        /* \"#utility.yul\":5228:5560   */\n    tag_41:\n        /* \"#utility.yul\":5349:5353   */\n      0x00\n        /* \"#utility.yul\":5387:5389   */\n      0x40\n        /* \"#utility.yul\":5376:5385   */\n      dup3\n        /* \"#utility.yul\":5372:5390   */\n      add\n        /* \"#utility.yul\":5364:5390   */\n      swap1\n      pop\n        /* \"#utility.yul\":5400:5471   */\n      tag_174\n        /* \"#utility.yul\":5468:5469   */\n      0x00\n        /* \"#utility.yul\":5457:5466   */\n      dup4\n        /* \"#utility.yul\":5453:5470   */\n      add\n        /* \"#utility.yul\":5444:5450   */\n      dup6\n        /* \"#utility.yul\":5400:5471   */\n      tag_102\n      jump\t// in\n    tag_174:\n        /* \"#utility.yul\":5481:5553   */\n      tag_175\n        /* \"#utility.yul\":5549:5551   */\n      0x20\n        /* \"#utility.yul\":5538:5547   */\n      dup4\n        /* \"#utility.yul\":5534:5552   */\n      add\n        /* \"#utility.yul\":5525:5531   */\n      dup5\n        /* \"#utility.yul\":5481:5553   */\n      tag_90\n      jump\t// in\n    tag_175:\n        /* \"#utility.yul\":5228:5560   */\n      swap4\n      swap3\n      pop\n      pop\n      pop\n      jump\t// out\n        /* \"#utility.yul\":5566:5656   */\n    tag_103:\n        /* \"#utility.yul\":5600:5607   */\n      0x00\n        /* \"#utility.yul\":5643:5648   */\n      dup2\n        /* \"#utility.yul\":5636:5649   */\n      iszero\n        /* \"#utility.yul\":5629:5650   */\n      iszero\n        /* \"#utility.yul\":5618:5650   */\n      swap1\n      pop\n        /* \"#utility.yul\":5566:5656   */\n      swap2\n      swap1\n      pop\n      jump\t// out\n        /* \"#utility.yul\":5662:5778   */\n    tag_104:\n        /* \"#utility.yul\":5732:5753   */\n      tag_178\n        /* \"#utility.yul\":5747:5752   */\n      dup2\n        /* \"#utility.yul\":5732:5753   */\n      tag_103\n      jump\t// in\n    tag_178:\n        /* \"#utility.yul\":5725:5730   */\n      dup2\n        /* \"#utility.yul\":5722:5754   */\n      eq\n        /* \"#utility.yul\":5712:5772   */\n      tag_179\n      jumpi\n        /* \"#utility.yul\":5768:5769   */\n      0x00\n        /* \"#utility.yul\":5765:5766   */\n      dup1\n        /* \"#utility.yul\":5758:5770   */\n      revert\n        /* \"#utility.yul\":5712:5772   */\n    tag_179:\n        /* \"#utility.yul\":5662:5778   */\n      pop\n      jump\t// out\n        /* \"#utility.yul\":5784:5921   */\n    tag_105:\n        /* \"#utility.yul\":5838:5843   */\n      0x00\n        /* \"#utility.yul\":5869:5875   */\n      dup2\n        /* \"#utility.yul\":5863:5876   */\n      mload\n        /* \"#utility.yul\":5854:5876   */\n      swap1\n      pop\n        /* \"#utility.yul\":5885:5915   */\n      tag_181\n        /* \"#utility.yul\":5909:5914   */\n      dup2\n        /* \"#utility.yul\":5885:5915   */\n      tag_104\n      jump\t// in\n    tag_181:\n        /* \"#utility.yul\":5784:5921   */\n      swap3\n      swap2\n      pop\n      pop\n      jump\t// out\n        /* \"#utility.yul\":5927:6272   */\n    tag_45:\n        /* \"#utility.yul\":5994:6000   */\n      0x00\n        /* \"#utility.yul\":6043:6045   */\n      0x20\n        /* \"#utility.yul\":6031:6040   */\n      dup3\n        /* \"#utility.yul\":6022:6029   */\n      dup5\n        /* \"#utility.yul\":6018:6041   */\n      sub\n        /* \"#utility.yul\":6014:6046   */\n      slt\n        /* \"#utility.yul\":6011:6130   */\n      iszero\n      tag_183\n      jumpi\n        /* \"#utility.yul\":6049:6128   */\n      tag_184\n      tag_83\n      jump\t// in\n    tag_184:\n        /* \"#utility.yul\":6011:6130   */\n    tag_183:\n        /* \"#utility.yul\":6169:6170   */\n      0x00\n        /* \"#utility.yul\":6194:6255   */\n      tag_185\n        /* \"#utility.yul\":6247:6254   */\n      dup5\n        /* \"#utility.yul\":6238:6244   */\n      dup3\n        /* \"#utility.yul\":6227:6236   */\n      dup6\n        /* \"#utility.yul\":6223:6245   */\n      add\n        /* \"#utility.yul\":6194:6255   */\n      tag_105\n      jump\t// in\n    tag_185:\n        /* \"#utility.yul\":6184:6255   */\n      swap2\n      pop\n        /* \"#utility.yul\":6140:6265   */\n      pop\n        /* \"#utility.yul\":5927:6272   */\n      swap3\n      swap2\n      pop\n      pop\n      jump\t// out\n        /* \"#utility.yul\":6278:6443   */\n    tag_106:\n        /* \"#utility.yul\":6418:6435   */\n      0x5472616e73666572206661696c65640000000000000000000000000000000000\n        /* \"#utility.yul\":6414:6415   */\n      0x00\n        /* \"#utility.yul\":6406:6412   */\n      dup3\n        /* \"#utility.yul\":6402:6416   */\n      add\n        /* \"#utility.yul\":6395:6436   */\n      mstore\n        /* \"#utility.yul\":6278:6443   */\n      pop\n      jump\t// out\n        /* \"#utility.yul\":6449:6815   */\n    tag_107:\n        /* \"#utility.yul\":6591:6594   */\n      0x00\n        /* \"#utility.yul\":6612:6679   */\n      tag_188\n        /* \"#utility.yul\":6676:6678   */\n      0x0f\n        /* \"#utility.yul\":6671:6674   */\n      dup4\n        /* \"#utility.yul\":6612:6679   */\n      tag_98\n      jump\t// in\n    tag_188:\n        /* \"#utility.yul\":6605:6679   */\n      swap2\n      pop\n        /* \"#utility.yul\":6688:6781   */\n      tag_189\n        /* \"#utility.yul\":6777:6780   */\n      dup3\n        /* \"#utility.yul\":6688:6781   */\n      tag_106\n      jump\t// in\n    tag_189:\n        /* \"#utility.yul\":6806:6808   */\n      0x20\n        /* \"#utility.yul\":6801:6804   */\n      dup3\n        /* \"#utility.yul\":6797:6809   */\n      add\n        /* \"#utility.yul\":6790:6809   */\n      swap1\n      pop\n        /* \"#utility.yul\":6449:6815   */\n      swap2\n      swap1\n      pop\n      jump\t// out\n        /* \"#utility.yul\":6821:7240   */\n    tag_48:\n        /* \"#utility.yul\":6987:6991   */\n      0x00\n        /* \"#utility.yul\":7025:7027   */\n      0x20\n        /* \"#utility.yul\":7014:7023   */\n      dup3\n        /* \"#utility.yul\":7010:7028   */\n      add\n        /* \"#utility.yul\":7002:7028   */\n      swap1\n      pop\n        /* \"#utility.yul\":7074:7083   */\n      dup2\n        /* \"#utility.yul\":7068:7072   */\n      dup2\n        /* \"#utility.yul\":7064:7084   */\n      sub\n        /* \"#utility.yul\":7060:7061   */\n      0x00\n        /* \"#utility.yul\":7049:7058   */\n      dup4\n        /* \"#utility.yul\":7045:7062   */\n      add\n        /* \"#utility.yul\":7038:7085   */\n      mstore\n        /* \"#utility.yul\":7102:7233   */\n      tag_191\n        /* \"#utility.yul\":7228:7232   */\n      dup2\n        /* \"#utility.yul\":7102:7233   */\n      tag_107\n      jump\t// in\n    tag_191:\n        /* \"#utility.yul\":7094:7233   */\n      swap1\n      pop\n        /* \"#utility.yul\":6821:7240   */\n      swap2\n      swap1\n      pop\n      jump\t// out\n        /* \"#utility.yul\":7246:7578   */\n    tag_50:\n        /* \"#utility.yul\":7367:7371   */\n      0x00\n        /* \"#utility.yul\":7405:7407   */\n      0x40\n        /* \"#utility.yul\":7394:7403   */\n      dup3\n        /* \"#utility.yul\":7390:7408   */\n      add\n        /* \"#utility.yul\":7382:7408   */\n      swap1\n      pop\n        /* \"#utility.yul\":7418:7489   */\n      tag_193\n        /* \"#utility.yul\":7486:7487   */\n      0x00\n        /* \"#utility.yul\":7475:7484   */\n      dup4\n        /* \"#utility.yul\":7471:7488   */\n      add\n        /* \"#utility.yul\":7462:7468   */\n      dup6\n        /* \"#utility.yul\":7418:7489   */\n      tag_90\n      jump\t// in\n    tag_193:\n        /* \"#utility.yul\":7499:7571   */\n      tag_194\n        /* \"#utility.yul\":7567:7569   */\n      0x20\n        /* \"#utility.yul\":7556:7565   */\n      dup4\n        /* \"#utility.yul\":7552:7570   */\n      add\n        /* \"#utility.yul\":7543:7549   */\n      dup5\n        /* \"#utility.yul\":7499:7571   */\n      tag_90\n      jump\t// in\n    tag_194:\n        /* \"#utility.yul\":7246:7578   */\n      swap4\n      swap3\n      pop\n      pop\n      pop\n      jump\t// out\n        /* \"#utility.yul\":7584:7752   */\n    tag_108:\n        /* \"#utility.yul\":7724:7744   */\n      0x416d6f756e74206d757374206265203e20300000000000000000000000000000\n        /* \"#utility.yul\":7720:7721   */\n      0x00\n        /* \"#utility.yul\":7712:7718   */\n      dup3\n        /* \"#utility.yul\":7708:7722   */\n      add\n        /* \"#utility.yul\":7701:7745   */\n      mstore\n        /* \"#utility.yul\":7584:7752   */\n      pop\n      jump\t// out\n        /* \"#utility.yul\":7758:8124   */\n    tag_109:\n        /* \"#utility.yul\":7900:7903   */\n      0x00\n        /* \"#utility.yul\":7921:7988   */\n      tag_197\n        /* \"#utility.yul\":7985:7987   */\n      0x12\n        /* \"#utility.yul\":7980:7983   */\n      dup4\n        /* \"#utility.yul\":7921:7988   */\n      tag_98\n      jump\t// in\n    tag_197:\n        /* \"#utility.yul\":7914:7988   */\n      swap2\n      pop\n        /* \"#utility.yul\":7997:8090   */\n      tag_198\n        /* \"#utility.yul\":8086:8089   */\n      dup3\n        /* \"#utility.yul\":7997:8090   */\n      tag_108\n      jump\t// in\n    tag_198:\n        /* \"#utility.yul\":8115:8117   */\n      0x20\n        /* \"#utility.yul\":8110:8113   */\n      dup3\n        /* \"#utility.yul\":8106:8118   */\n      add\n        /* \"#utility.yul\":8099:8118   */\n      swap1\n      pop\n        /* \"#utility.yul\":7758:8124   */\n      swap2\n      swap1\n      pop\n      jump\t// out\n        /* \"#utility.yul\":8130:8549   */\n    tag_54:\n        /* \"#utility.yul\":8296:8300   */\n      0x00\n        /* \"#utility.yul\":8334:8336   */\n      0x20\n        /* \"#utility.yul\":8323:8332   */\n      dup3\n        /* \"#utility.yul\":8319:8337   */\n      add\n        /* \"#utility.yul\":8311:8337   */\n      swap1\n      pop\n        /* \"#utility.yul\":8383:8392   */\n      dup2\n        /* \"#utility.yul\":8377:8381   */\n      dup2\n        /* \"#utility.yul\":8373:8393   */\n      sub\n        /* \"#utility.yul\":8369:8370   */\n      0x00\n        /* \"#utility.yul\":8358:8367   */\n      dup4\n        /* \"#utility.yul\":8354:8371   */\n      add\n        /* \"#utility.yul\":8347:8394   */\n      mstore\n        /* \"#utility.yul\":8411:8542   */\n      tag_200\n        /* \"#utility.yul\":8537:8541   */\n      dup2\n        /* \"#utility.yul\":8411:8542   */\n      tag_109\n      jump\t// in\n    tag_200:\n        /* \"#utility.yul\":8403:8542   */\n      swap1\n      pop\n        /* \"#utility.yul\":8130:8549   */\n      swap2\n      swap1\n      pop\n      jump\t// out\n        /* \"#utility.yul\":8555:8997   */\n    tag_58:\n        /* \"#utility.yul\":8704:8708   */\n      0x00\n        /* \"#utility.yul\":8742:8744   */\n      0x60\n        /* \"#utility.yul\":8731:8740   */\n      dup3\n        /* \"#utility.yul\":8727:8745   */\n      add\n        /* \"#utility.yul\":8719:8745   */\n      swap1\n      pop\n        /* \"#utility.yul\":8755:8826   */\n      tag_202\n        /* \"#utility.yul\":8823:8824   */\n      0x00\n        /* \"#utility.yul\":8812:8821   */\n      dup4\n        /* \"#utility.yul\":8808:8825   */\n      add\n        /* \"#utility.yul\":8799:8805   */\n      dup7\n        /* \"#utility.yul\":8755:8826   */\n      tag_102\n      jump\t// in\n    tag_202:\n        /* \"#utility.yul\":8836:8908   */\n      tag_203\n        /* \"#utility.yul\":8904:8906   */\n      0x20\n        /* \"#utility.yul\":8893:8902   */\n      dup4\n        /* \"#utility.yul\":8889:8907   */\n      add\n        /* \"#utility.yul\":8880:8886   */\n      dup6\n        /* \"#utility.yul\":8836:8908   */\n      tag_102\n      jump\t// in\n    tag_203:\n        /* \"#utility.yul\":8918:8990   */\n      tag_204\n        /* \"#utility.yul\":8986:8988   */\n      0x40\n        /* \"#utility.yul\":8975:8984   */\n      dup4\n        /* \"#utility.yul\":8971:8989   */\n      add\n        /* \"#utility.yul\":8962:8968   */\n      dup5\n        /* \"#utility.yul\":8918:8990   */\n      tag_90\n      jump\t// in\n    tag_204:\n        /* \"#utility.yul\":8555:8997   */\n      swap5\n      swap4\n      pop\n      pop\n      pop\n      pop\n      jump\t// out\n        /* \"#utility.yul\":9003:9197   */\n    tag_76:\n        /* \"#utility.yul\":9043:9047   */\n      0x00\n        /* \"#utility.yul\":9063:9083   */\n      tag_206\n        /* \"#utility.yul\":9081:9082   */\n      dup3\n        /* \"#utility.yul\":9063:9083   */\n      tag_89\n      jump\t// in\n    tag_206:\n        /* \"#utility.yul\":9058:9083   */\n      swap2\n      pop\n        /* \"#utility.yul\":9097:9117   */\n      tag_207\n        /* \"#utility.yul\":9115:9116   */\n      dup4\n        /* \"#utility.yul\":9097:9117   */\n      tag_89\n      jump\t// in\n    tag_207:\n        /* \"#utility.yul\":9092:9117   */\n      swap3\n      pop\n        /* \"#utility.yul\":9141:9142   */\n      dup3\n        /* \"#utility.yul\":9138:9139   */\n      dup3\n        /* \"#utility.yul\":9134:9143   */\n      sub\n        /* \"#utility.yul\":9126:9143   */\n      swap1\n      pop\n        /* \"#utility.yul\":9165:9166   */\n      dup2\n        /* \"#utility.yul\":9159:9163   */\n      dup2\n        /* \"#utility.yul\":9156:9167   */\n      gt\n        /* \"#utility.yul\":9153:9190   */\n      iszero\n      tag_208\n      jumpi\n        /* \"#utility.yul\":9170:9188   */\n      tag_209\n      tag_101\n      jump\t// in\n    tag_209:\n        /* \"#utility.yul\":9153:9190   */\n    tag_208:\n        /* \"#utility.yul\":9003:9197   */\n      swap3\n      swap2\n      pop\n      pop\n      jump\t// out\n        /* \"#utility.yul\":9203:9613   */\n    tag_78:\n        /* \"#utility.yul\":9243:9250   */\n      0x00\n        /* \"#utility.yul\":9266:9286   */\n      tag_211\n        /* \"#utility.yul\":9284:9285   */\n      dup3\n        /* \"#utility.yul\":9266:9286   */\n      tag_89\n      jump\t// in\n    tag_211:\n        /* \"#utility.yul\":9261:9286   */\n      swap2\n      pop\n        /* \"#utility.yul\":9300:9320   */\n      tag_212\n        /* \"#utility.yul\":9318:9319   */\n      dup4\n        /* \"#utility.yul\":9300:9320   */\n      tag_89\n      jump\t// in\n    tag_212:\n        /* \"#utility.yul\":9295:9320   */\n      swap3\n      pop\n        /* \"#utility.yul\":9355:9356   */\n      dup3\n        /* \"#utility.yul\":9352:9353   */\n      dup3\n        /* \"#utility.yul\":9348:9357   */\n      mul\n        /* \"#utility.yul\":9377:9407   */\n      tag_213\n        /* \"#utility.yul\":9395:9406   */\n      dup2\n        /* \"#utility.yul\":9377:9407   */\n      tag_89\n      jump\t// in\n    tag_213:\n        /* \"#utility.yul\":9366:9407   */\n      swap2\n      pop\n        /* \"#utility.yul\":9556:9557   */\n      dup3\n        /* \"#utility.yul\":9547:9554   */\n      dup3\n        /* \"#utility.yul\":9543:9558   */\n      div\n        /* \"#utility.yul\":9540:9541   */\n      dup5\n        /* \"#utility.yul\":9537:9559   */\n      eq\n        /* \"#utility.yul\":9517:9518   */\n      dup4\n        /* \"#utility.yul\":9510:9519   */\n      iszero\n        /* \"#utility.yul\":9490:9573   */\n      or\n        /* \"#utility.yul\":9467:9606   */\n      tag_214\n      jumpi\n        /* \"#utility.yul\":9586:9604   */\n      tag_215\n      tag_101\n      jump\t// in\n    tag_215:\n        /* \"#utility.yul\":9467:9606   */\n    tag_214:\n        /* \"#utility.yul\":9251:9613   */\n      pop\n        /* \"#utility.yul\":9203:9613   */\n      swap3\n      swap2\n      pop\n      pop\n      jump\t// out\n        /* \"#utility.yul\":9619:9799   */\n    tag_110:\n        /* \"#utility.yul\":9667:9744   */\n      0x4e487b7100000000000000000000000000000000000000000000000000000000\n        /* \"#utility.yul\":9664:9665   */\n      0x00\n        /* \"#utility.yul\":9657:9745   */\n      mstore\n        /* \"#utility.yul\":9764:9768   */\n      0x12\n        /* \"#utility.yul\":9761:9762   */\n      0x04\n        /* \"#utility.yul\":9754:9769   */\n      mstore\n        /* \"#utility.yul\":9788:9792   */\n      0x24\n        /* \"#utility.yul\":9785:9786   */\n      0x00\n        /* \"#utility.yul\":9778:9793   */\n      revert\n        /* \"#utility.yul\":9805:9990   */\n    tag_81:\n        /* \"#utility.yul\":9845:9846   */\n      0x00\n        /* \"#utility.yul\":9862:9882   */\n      tag_218\n        /* \"#utility.yul\":9880:9881   */\n      dup3\n        /* \"#utility.yul\":9862:9882   */\n      tag_89\n      jump\t// in\n    tag_218:\n        /* \"#utility.yul\":9857:9882   */\n      swap2\n      pop\n        /* \"#utility.yul\":9896:9916   */\n      tag_219\n        /* \"#utility.yul\":9914:9915   */\n      dup4\n        /* \"#utility.yul\":9896:9916   */\n      tag_89\n      jump\t// in\n    tag_219:\n        /* \"#utility.yul\":9891:9916   */\n      swap3\n      pop\n        /* \"#utility.yul\":9935:9936   */\n      dup3\n        /* \"#utility.yul\":9925:9960   */\n      tag_220\n      jumpi\n        /* \"#utility.yul\":9940:9958   */\n      tag_221\n      tag_110\n      jump\t// in\n    tag_221:\n        /* \"#utility.yul\":9925:9960   */\n    tag_220:\n        /* \"#utility.yul\":9982:9983   */\n      dup3\n        /* \"#utility.yul\":9979:9980   */\n      dup3\n        /* \"#utility.yul\":9975:9984   */\n      div\n        /* \"#utility.yul\":9970:9984   */\n      swap1\n      pop\n        /* \"#utility.yul\":9805:9990   */\n      swap3\n      swap2\n      pop\n      pop\n      jump\t// out\n\n    auxdata: 0xa264697066735822122024ffd7cbbd16741220f0dadb280cf2859c55b8f6466fff8eb1b3561ef53dc4e864736f6c63430008140033\n}\n",
				"bytecode": {
					"linkReferences": {},
					"object": "60a060405234801561000f575f80fd5b50604051610d05380380610d05833981810160405281019061003191906100c9565b8073ffffffffffffffffffffffffffffffffffffffff1660808173ffffffffffffffffffffffffffffffffffffffff1681525050506100f4565b5f80fd5b5f73ffffffffffffffffffffffffffffffffffffffff82169050919050565b5f6100988261006f565b9050919050565b6100a88161008e565b81146100b2575f80fd5b50565b5f815190506100c38161009f565b92915050565b5f602082840312156100de576100dd61006b565b5b5f6100eb848285016100b5565b91505092915050565b608051610beb61011a5f395f81816102000152818161038b01526105700152610beb5ff3fe608060405234801561000f575f80fd5b5060043610610060575f3560e01c806316934fc4146100645780632def6620146100965780637b0a47ee146100a0578063a694fc3a146100be578063d82e3962146100da578063fc0c546a1461010a575b5f80fd5b61007e600480360381019061007991906106f0565b610128565b60405161008d93929190610733565b60405180910390f35b61009e61014d565b005b6100a8610338565b6040516100b59190610768565b60405180910390f35b6100d860048036038101906100d391906107ab565b61033d565b005b6100f460048036038101906100ef91906106f0565b61050e565b6040516101019190610768565b60405180910390f35b61011261056e565b60405161011f9190610831565b60405180910390f35b5f602052805f5260405f205f91509050805f0154908060010154908060020154905083565b5f805f3373ffffffffffffffffffffffffffffffffffffffff1673ffffffffffffffffffffffffffffffffffffffff1681526020019081526020015f2090505f815f0154116101d1576040517f08c379a00000000000000000000000000000000000000000000000000000000081526004016101c8906108a4565b60405180910390fd5b5f6101db3361050e565b90505f825f015490505f835f01819055505f83600201819055504283600101819055507f000000000000000000000000000000000000000000000000000000000000000073ffffffffffffffffffffffffffffffffffffffff1663a9059cbb33848461024791906108ef565b6040518363ffffffff1660e01b8152600401610264929190610931565b6020604051808303815f875af1158015610280573d5f803e3d5ffd5b505050506040513d601f19601f820116820180604052508101906102a4919061098d565b6102e3576040517f08c379a00000000000000000000000000000000000000000000000000000000081526004016102da90610a02565b60405180910390fd5b3373ffffffffffffffffffffffffffffffffffffffff167f7fc4727e062e336010f2c282598ef5f14facb3de68cf8195c2f23e1454b2b74e828460405161032b929190610a20565b60405180910390a2505050565b600a81565b5f811161037f576040517f08c379a000000000000000000000000000000000000000000000000000000000815260040161037690610a91565b60405180910390fd5b61038833610592565b5f7f000000000000000000000000000000000000000000000000000000000000000073ffffffffffffffffffffffffffffffffffffffff166323b872dd3330856040518463ffffffff1660e01b81526004016103e693929190610aaf565b6020604051808303815f875af1158015610402573d5f803e3d5ffd5b505050506040513d601f19601f82011682018060405250810190610426919061098d565b905080610468576040517f08c379a000000000000000000000000000000000000000000000000000000000815260040161045f90610a02565b60405180910390fd5b815f803373ffffffffffffffffffffffffffffffffffffffff1673ffffffffffffffffffffffffffffffffffffffff1681526020019081526020015f205f015f8282546104b591906108ef565b925050819055503373ffffffffffffffffffffffffffffffffffffffff167f9e71bc8eea02a63969f509818f2dafb9254532904319f9dbda79b67bd34a5f3d836040516105029190610768565b60405180910390a25050565b5f805f808473ffffffffffffffffffffffffffffffffffffffff1673ffffffffffffffffffffffffffffffffffffffff1681526020019081526020015f2090506105578361060c565b816002015461056691906108ef565b915050919050565b7f000000000000000000000000000000000000000000000000000000000000000081565b5f805f8373ffffffffffffffffffffffffffffffffffffffff1673ffffffffffffffffffffffffffffffffffffffff1681526020019081526020015f2090505f815f015411156105ff576105e58261060c565b816002015f8282546105f791906108ef565b925050819055505b4281600101819055505050565b5f805f808473ffffffffffffffffffffffffffffffffffffffff1673ffffffffffffffffffffffffffffffffffffffff1681526020019081526020015f2090505f81600101544261065d9190610ae4565b905063bbf81e0081600a845f01546106759190610b17565b61067f9190610b17565b6106899190610b85565b92505050919050565b5f80fd5b5f73ffffffffffffffffffffffffffffffffffffffff82169050919050565b5f6106bf82610696565b9050919050565b6106cf816106b5565b81146106d9575f80fd5b50565b5f813590506106ea816106c6565b92915050565b5f6020828403121561070557610704610692565b5b5f610712848285016106dc565b91505092915050565b5f819050919050565b61072d8161071b565b82525050565b5f6060820190506107465f830186610724565b6107536020830185610724565b6107606040830184610724565b949350505050565b5f60208201905061077b5f830184610724565b92915050565b61078a8161071b565b8114610794575f80fd5b50565b5f813590506107a581610781565b92915050565b5f602082840312156107c0576107bf610692565b5b5f6107cd84828501610797565b91505092915050565b5f819050919050565b5f6107f96107f46107ef84610696565b6107d6565b610696565b9050919050565b5f61080a826107df565b9050919050565b5f61081b82610800565b9050919050565b61082b81610811565b82525050565b5f6020820190506108445f830184610822565b92915050565b5f82825260208201905092915050565b7f4e6f7468696e6720746f20756e7374616b6500000000000000000000000000005f82015250565b5f61088e60128361084a565b91506108998261085a565b602082019050919050565b5f6020820190508181035f8301526108bb81610882565b9050919050565b7f4e487b71000000000000000000000000000000000000000000000000000000005f52601160045260245ffd5b5f6108f98261071b565b91506109048361071b565b925082820190508082111561091c5761091b6108c2565b5b92915050565b61092b816106b5565b82525050565b5f6040820190506109445f830185610922565b6109516020830184610724565b9392505050565b5f8115159050919050565b61096c81610958565b8114610976575f80fd5b50565b5f8151905061098781610963565b92915050565b5f602082840312156109a2576109a1610692565b5b5f6109af84828501610979565b91505092915050565b7f5472616e73666572206661696c656400000000000000000000000000000000005f82015250565b5f6109ec600f8361084a565b91506109f7826109b8565b602082019050919050565b5f6020820190508181035f830152610a19816109e0565b9050919050565b5f604082019050610a335f830185610724565b610a406020830184610724565b9392505050565b7f416d6f756e74206d757374206265203e203000000000000000000000000000005f82015250565b5f610a7b60128361084a565b9150610a8682610a47565b602082019050919050565b5f6020820190508181035f830152610aa881610a6f565b9050919050565b5f606082019050610ac25f830186610922565b610acf6020830185610922565b610adc6040830184610724565b949350505050565b5f610aee8261071b565b9150610af98361071b565b9250828203905081811115610b1157610b106108c2565b5b92915050565b5f610b218261071b565b9150610b2c8361071b565b9250828202610b3a8161071b565b91508282048414831517610b5157610b506108c2565b5b5092915050565b7f4e487b71000000000000000000000000000000000000000000000000000000005f52601260045260245ffd5b5f610b8f8261071b565b9150610b9a8361071b565b925082610baa57610ba9610b58565b5b82820490509291505056fea264697066735822122024ffd7cbbd16741220f0dadb280cf2859c55b8f6466fff8eb1b3561ef53dc4e864736f6c63430008140033",
					"opcodes": "PUSH1 0xA0 PUSH1 0x40 MSTORE CALLVALUE DUP1 ISZERO PUSH2 0xF JUMPI PUSH0 DUP1 REVERT JUMPDEST POP PUSH1 0x40 MLOAD PUSH2 0xD05 CODESIZE SUB DUP1 PUSH2 0xD05 DUP4 CODECOPY DUP2 DUP2 ADD PUSH1 0x40 MSTORE DUP2 ADD SWAP1 PUSH2 0x31 SWAP2 SWAP1 PUSH2 0xC9 JUMP JUMPDEST DUP1 PUSH20 0xFFFFFFFFFFFFFFFFFFFFFFFFFFFFFFFFFFFFFFFF AND PUSH1 0x80 DUP2 PUSH20 0xFFFFFFFFFFFFFFFFFFFFFFFFFFFFFFFFFFFFFFFF AND DUP2 MSTORE POP POP POP PUSH2 0xF4 JUMP JUMPDEST PUSH0 DUP1 REVERT JUMPDEST PUSH0 PUSH20 0xFFFFFFFFFFFFFFFFFFFFFFFFFFFFFFFFFFFFFFFF DUP3 AND SWAP1 POP SWAP2 SWAP1 POP JUMP JUMPDEST PUSH0 PUSH2 0x98 DUP3 PUSH2 0x6F JUMP JUMPDEST SWAP1 POP SWAP2 SWAP1 POP JUMP JUMPDEST PUSH2 0xA8 DUP2 PUSH2 0x8E JUMP JUMPDEST DUP2 EQ PUSH2 0xB2 JUMPI PUSH0 DUP1 REVERT JUMPDEST POP JUMP JUMPDEST PUSH0 DUP2 MLOAD SWAP1 POP PUSH2 0xC3 DUP2 PUSH2 0x9F JUMP JUMPDEST SWAP3 SWAP2 POP POP JUMP JUMPDEST PUSH0 PUSH1 0x20 DUP3 DUP5 SUB SLT ISZERO PUSH2 0xDE JUMPI PUSH2 0xDD PUSH2 0x6B JUMP JUMPDEST JUMPDEST PUSH0 PUSH2 0xEB DUP5 DUP3 DUP6 ADD PUSH2 0xB5 JUMP JUMPDEST SWAP2 POP POP SWAP3 SWAP2 POP POP JUMP JUMPDEST PUSH1 0x80 MLOAD PUSH2 0xBEB PUSH2 0x11A PUSH0 CODECOPY PUSH0 DUP2 DUP2 PUSH2 0x200 ADD MSTORE DUP2 DUP2 PUSH2 0x38B ADD MSTORE PUSH2 0x570 ADD MSTORE PUSH2 0xBEB PUSH0 RETURN INVALID PUSH1 0x80 PUSH1 0x40 MSTORE CALLVALUE DUP1 ISZERO PUSH2 0xF JUMPI PUSH0 DUP1 REVERT JUMPDEST POP PUSH1 0x4 CALLDATASIZE LT PUSH2 0x60 JUMPI PUSH0 CALLDATALOAD PUSH1 0xE0 SHR DUP1 PUSH4 0x16934FC4 EQ PUSH2 0x64 JUMPI DUP1 PUSH4 0x2DEF6620 EQ PUSH2 0x96 JUMPI DUP1 PUSH4 0x7B0A47EE EQ PUSH2 0xA0 JUMPI DUP1 PUSH4 0xA694FC3A EQ PUSH2 0xBE JUMPI DUP1 PUSH4 0xD82E3962 EQ PUSH2 0xDA JUMPI DUP1 PUSH4 0xFC0C546A EQ PUSH2 0x10A JUMPI JUMPDEST PUSH0 DUP1 REVERT JUMPDEST PUSH2 0x7E PUSH1 0x4 DUP1 CALLDATASIZE SUB DUP2 ADD SWAP1 PUSH2 0x79 SWAP2 SWAP1 PUSH2 0x6F0 JUMP JUMPDEST PUSH2 0x128 JUMP JUMPDEST PUSH1 0x40 MLOAD PUSH2 0x8D SWAP4 SWAP3 SWAP2 SWAP1 PUSH2 0x733 JUMP JUMPDEST PUSH1 0x40 MLOAD DUP1 SWAP2 SUB SWAP1 RETURN JUMPDEST PUSH2 0x9E PUSH2 0x14D JUMP JUMPDEST STOP JUMPDEST PUSH2 0xA8 PUSH2 0x338 JUMP JUMPDEST PUSH1 0x40 MLOAD PUSH2 0xB5 SWAP2 SWAP1 PUSH2 0x768 JUMP JUMPDEST PUSH1 0x40 MLOAD DUP1 SWAP2 SUB SWAP1 RETURN JUMPDEST PUSH2 0xD8 PUSH1 0x4 DUP1 CALLDATASIZE SUB DUP2 ADD SWAP1 PUSH2 0xD3 SWAP2 SWAP1 PUSH2 0x7AB JUMP JUMPDEST PUSH2 0x33D JUMP JUMPDEST STOP JUMPDEST PUSH2 0xF4 PUSH1 0x4 DUP1 CALLDATASIZE SUB DUP2 ADD SWAP1 PUSH2 0xEF SWAP2 SWAP1 PUSH2 0x6F0 JUMP JUMPDEST PUSH2 0x50E JUMP JUMPDEST PUSH1 0x40 MLOAD PUSH2 0x101 SWAP2 SWAP1 PUSH2 0x768 JUMP JUMPDEST PUSH1 0x40 MLOAD DUP1 SWAP2 SUB SWAP1 RETURN JUMPDEST PUSH2 0x112 PUSH2 0x56E JUMP JUMPDEST PUSH1 0x40 MLOAD PUSH2 0x11F SWAP2 SWAP1 PUSH2 0x831 JUMP JUMPDEST PUSH1 0x40 MLOAD DUP1 SWAP2 SUB SWAP1 RETURN JUMPDEST PUSH0 PUSH1 0x20 MSTORE DUP1 PUSH0 MSTORE PUSH1 0x40 PUSH0 KECCAK256 PUSH0 SWAP2 POP SWAP1 POP DUP1 PUSH0 ADD SLOAD SWAP1 DUP1 PUSH1 0x1 ADD SLOAD SWAP1 DUP1 PUSH1 0x2 ADD SLOAD SWAP1 POP DUP4 JUMP JUMPDEST PUSH0 DUP1 PUSH0 CALLER PUSH20 0xFFFFFFFFFFFFFFFFFFFFFFFFFFFFFFFFFFFFFFFF AND PUSH20 0xFFFFFFFFFFFFFFFFFFFFFFFFFFFFFFFFFFFFFFFF AND DUP2 MSTORE PUSH1 0x20 ADD SWAP1 DUP2 MSTORE PUSH1 0x20 ADD PUSH0 KECCAK256 SWAP1 POP PUSH0 DUP2 PUSH0 ADD SLOAD GT PUSH2 0x1D1 JUMPI PUSH1 0x40 MLOAD PUSH32 0x8C379A000000000000000000000000000000000000000000000000000000000 DUP2 MSTORE PUSH1 0x4 ADD PUSH2 0x1C8 SWAP1 PUSH2 0x8A4 JUMP JUMPDEST PUSH1 0x40 MLOAD DUP1 SWAP2 SUB SWAP1 REVERT JUMPDEST PUSH0 PUSH2 0x1DB CALLER PUSH2 0x50E JUMP JUMPDEST SWAP1 POP PUSH0 DUP3 PUSH0 ADD SLOAD SWAP1 POP PUSH0 DUP4 PUSH0 ADD DUP2 SWAP1 SSTORE POP PUSH0 DUP4 PUSH1 0x2 ADD DUP2 SWAP1 SSTORE POP TIMESTAMP DUP4 PUSH1 0x1 ADD DUP2 SWAP1 SSTORE POP PUSH32 0x0 PUSH20 0xFFFFFFFFFFFFFFFFFFFFFFFFFFFFFFFFFFFFFFFF AND PUSH4 0xA9059CBB CALLER DUP5 DUP5 PUSH2 0x247 SWAP2 SWAP1 PUSH2 0x8EF JUMP JUMPDEST PUSH1 0x40 MLOAD DUP4 PUSH4 0xFFFFFFFF AND PUSH1 0xE0 SHL DUP2 MSTORE PUSH1 0x4 ADD PUSH2 0x264 SWAP3 SWAP2 SWAP1 PUSH2 0x931 JUMP JUMPDEST PUSH1 0x20 PUSH1 0x40 MLOAD DUP1 DUP4 SUB DUP2 PUSH0 DUP8 GAS CALL ISZERO DUP1 ISZERO PUSH2 0x280 JUMPI RETURNDATASIZE PUSH0 DUP1 RETURNDATACOPY RETURNDATASIZE PUSH0 REVERT JUMPDEST POP POP POP POP PUSH1 0x40 MLOAD RETURNDATASIZE PUSH1 0x1F NOT PUSH1 0x1F DUP3 ADD AND DUP3 ADD DUP1 PUSH1 0x40 MSTORE POP DUP2 ADD SWAP1 PUSH2 0x2A4 SWAP2 SWAP1 PUSH2 0x98D JUMP JUMPDEST PUSH2 0x2E3 JUMPI PUSH1 0x40 MLOAD PUSH32 0x8C379A000000000000000000000000000000000000000000000000000000000 DUP2 MSTORE PUSH1 0x4 ADD PUSH2 0x2DA SWAP1 PUSH2 0xA02 JUMP JUMPDEST PUSH1 0x40 MLOAD DUP1 SWAP2 SUB SWAP1 REVERT JUMPDEST CALLER PUSH20 0xFFFFFFFFFFFFFFFFFFFFFFFFFFFFFFFFFFFFFFFF AND PUSH32 0x7FC4727E062E336010F2C282598EF5F14FACB3DE68CF8195C2F23E1454B2B74E DUP3 DUP5 PUSH1 0x40 MLOAD PUSH2 0x32B SWAP3 SWAP2 SWAP1 PUSH2 0xA20 JUMP JUMPDEST PUSH1 0x40 MLOAD DUP1 SWAP2 SUB SWAP1 LOG2 POP POP POP JUMP JUMPDEST PUSH1 0xA DUP2 JUMP JUMPDEST PUSH0 DUP2 GT PUSH2 0x37F JUMPI PUSH1 0x40 MLOAD PUSH32 0x8C379A000000000000000000000000000000000000000000000000000000000 DUP2 MSTORE PUSH1 0x4 ADD PUSH2 0x376 SWAP1 PUSH2 0xA91 JUMP JUMPDEST PUSH1 0x40 MLOAD DUP1 SWAP2 SUB SWAP1 REVERT JUMPDEST PUSH2 0x388 CALLER PUSH2 0x592 JUMP JUMPDEST PUSH0 PUSH32 0x0 PUSH20 0xFFFFFFFFFFFFFFFFFFFFFFFFFFFFFFFFFFFFFFFF AND PUSH4 0x23B872DD CALLER ADDRESS DUP6 PUSH1 0x40 MLOAD DUP5 PUSH4 0xFFFFFFFF AND PUSH1 0xE0 SHL DUP2 MSTORE PUSH1 0x4 ADD PUSH2 0x3E6 SWAP4 SWAP3 SWAP2 SWAP1 PUSH2 0xAAF JUMP JUMPDEST PUSH1 0x20 PUSH1 0x40 MLOAD DUP1 DUP4 SUB DUP2 PUSH0 DUP8 GAS CALL ISZERO DUP1 ISZERO PUSH2 0x402 JUMPI RETURNDATASIZE PUSH0 DUP1 RETURNDATACOPY RETURNDATASIZE PUSH0 REVERT JUMPDEST POP POP POP POP PUSH1 0x40 MLOAD RETURNDATASIZE PUSH1 0x1F NOT PUSH1 0x1F DUP3 ADD AND DUP3 ADD DUP1 PUSH1 0x40 MSTORE POP DUP2 ADD SWAP1 PUSH2 0x426 SWAP2 SWAP1 PUSH2 0x98D JUMP JUMPDEST SWAP1 POP DUP1 PUSH2 0x468 JUMPI PUSH1 0x40 MLOAD PUSH32 0x8C379A000000000000000000000000000000000000000000000000000000000 DUP2 MSTORE PUSH1 0x4 ADD PUSH2 0x45F SWAP1 PUSH2 0xA02 JUMP JUMPDEST PUSH1 0x40 MLOAD DUP1 SWAP2 SUB SWAP1 REVERT JUMPDEST DUP2 PUSH0 DUP1 CALLER PUSH20 0xFFFFFFFFFFFFFFFFFFFFFFFFFFFFFFFFFFFFFFFF AND PUSH20 0xFFFFFFFFFFFFFFFFFFFFFFFFFFFFFFFFFFFFFFFF AND DUP2 MSTORE PUSH1 0x20 ADD SWAP1 DUP2 MSTORE PUSH1 0x20 ADD PUSH0 KECCAK256 PUSH0 ADD PUSH0 DUP3 DUP3 SLOAD PUSH2 0x4B5 SWAP2 SWAP1 PUSH2 0x8EF JUMP JUMPDEST SWAP3 POP POP DUP2 SWAP1 SSTORE POP CALLER PUSH20 0xFFFFFFFFFFFFFFFFFFFFFFFFFFFFFFFFFFFFFFFF AND PUSH32 0x9E71BC8EEA02A63969F509818F2DAFB9254532904319F9DBDA79B67BD34A5F3D DUP4 PUSH1 0x40 MLOAD PUSH2 0x502 SWAP2 SWAP1 PUSH2 0x768 JUMP JUMPDEST PUSH1 0x40 MLOAD DUP1 SWAP2 SUB SWAP1 LOG2 POP POP JUMP JUMPDEST PUSH0 DUP1 PUSH0 DUP1 DUP5 PUSH20 0xFFFFFFFFFFFFFFFFFFFFFFFFFFFFFFFFFFFFFFFF AND PUSH20 0xFFFFFFFFFFFFFFFFFFFFFFFFFFFFFFFFFFFFFFFF AND DUP2 MSTORE PUSH1 0x20 ADD SWAP1 DUP2 MSTORE PUSH1 0x20 ADD PUSH0 KECCAK256 SWAP1 POP PUSH2 0x557 DUP4 PUSH2 0x60C JUMP JUMPDEST DUP2 PUSH1 0x2 ADD SLOAD PUSH2 0x566 SWAP2 SWAP1 PUSH2 0x8EF JUMP JUMPDEST SWAP2 POP POP SWAP2 SWAP1 POP JUMP JUMPDEST PUSH32 0x0 DUP2 JUMP JUMPDEST PUSH0 DUP1 PUSH0 DUP4 PUSH20 0xFFFFFFFFFFFFFFFFFFFFFFFFFFFFFFFFFFFFFFFF AND PUSH20 0xFFFFFFFFFFFFFFFFFFFFFFFFFFFFFFFFFFFFFFFF AND DUP2 MSTORE PUSH1 0x20 ADD SWAP1 DUP2 MSTORE PUSH1 0x20 ADD PUSH0 KECCAK256 SWAP1 POP PUSH0 DUP2 PUSH0 ADD SLOAD GT ISZERO PUSH2 0x5FF JUMPI PUSH2 0x5E5 DUP3 PUSH2 0x60C JUMP JUMPDEST DUP2 PUSH1 0x2 ADD PUSH0 DUP3 DUP3 SLOAD PUSH2 0x5F7 SWAP2 SWAP1 PUSH2 0x8EF JUMP JUMPDEST SWAP3 POP POP DUP2 SWAP1 SSTORE POP JUMPDEST TIMESTAMP DUP2 PUSH1 0x1 ADD DUP2 SWAP1 SSTORE POP POP POP JUMP JUMPDEST PUSH0 DUP1 PUSH0 DUP1 DUP5 PUSH20 0xFFFFFFFFFFFFFFFFFFFFFFFFFFFFFFFFFFFFFFFF AND PUSH20 0xFFFFFFFFFFFFFFFFFFFFFFFFFFFFFFFFFFFFFFFF AND DUP2 MSTORE PUSH1 0x20 ADD SWAP1 DUP2 MSTORE PUSH1 0x20 ADD PUSH0 KECCAK256 SWAP1 POP PUSH0 DUP2 PUSH1 0x1 ADD SLOAD TIMESTAMP PUSH2 0x65D SWAP2 SWAP1 PUSH2 0xAE4 JUMP JUMPDEST SWAP1 POP PUSH4 0xBBF81E00 DUP2 PUSH1 0xA DUP5 PUSH0 ADD SLOAD PUSH2 0x675 SWAP2 SWAP1 PUSH2 0xB17 JUMP JUMPDEST PUSH2 0x67F SWAP2 SWAP1 PUSH2 0xB17 JUMP JUMPDEST PUSH2 0x689 SWAP2 SWAP1 PUSH2 0xB85 JUMP JUMPDEST SWAP3 POP POP POP SWAP2 SWAP1 POP JUMP JUMPDEST PUSH0 DUP1 REVERT JUMPDEST PUSH0 PUSH20 0xFFFFFFFFFFFFFFFFFFFFFFFFFFFFFFFFFFFFFFFF DUP3 AND SWAP1 POP SWAP2 SWAP1 POP JUMP JUMPDEST PUSH0 PUSH2 0x6BF DUP3 PUSH2 0x696 JUMP JUMPDEST SWAP1 POP SWAP2 SWAP1 POP JUMP JUMPDEST PUSH2 0x6CF DUP2 PUSH2 0x6B5 JUMP JUMPDEST DUP2 EQ PUSH2 0x6D9 JUMPI PUSH0 DUP1 REVERT JUMPDEST POP JUMP JUMPDEST PUSH0 DUP2 CALLDATALOAD SWAP1 POP PUSH2 0x6EA DUP2 PUSH2 0x6C6 JUMP JUMPDEST SWAP3 SWAP2 POP POP JUMP JUMPDEST PUSH0 PUSH1 0x20 DUP3 DUP5 SUB SLT ISZERO PUSH2 0x705 JUMPI PUSH2 0x704 PUSH2 0x692 JUMP JUMPDEST JUMPDEST PUSH0 PUSH2 0x712 DUP5 DUP3 DUP6 ADD PUSH2 0x6DC JUMP JUMPDEST SWAP2 POP POP SWAP3 SWAP2 POP POP JUMP JUMPDEST PUSH0 DUP2 SWAP1 POP SWAP2 SWAP1 POP JUMP JUMPDEST PUSH2 0x72D DUP2 PUSH2 0x71B JUMP JUMPDEST DUP3 MSTORE POP POP JUMP JUMPDEST PUSH0 PUSH1 0x60 DUP3 ADD SWAP1 POP PUSH2 0x746 PUSH0 DUP4 ADD DUP7 PUSH2 0x724 JUMP JUMPDEST PUSH2 0x753 PUSH1 0x20 DUP4 ADD DUP6 PUSH2 0x724 JUMP JUMPDEST PUSH2 0x760 PUSH1 0x40 DUP4 ADD DUP5 PUSH2 0x724 JUMP JUMPDEST SWAP5 SWAP4 POP POP POP POP JUMP JUMPDEST PUSH0 PUSH1 0x20 DUP3 ADD SWAP1 POP PUSH2 0x77B PUSH0 DUP4 ADD DUP5 PUSH2 0x724 JUMP JUMPDEST SWAP3 SWAP2 POP POP JUMP JUMPDEST PUSH2 0x78A DUP2 PUSH2 0x71B JUMP JUMPDEST DUP2 EQ PUSH2 0x794 JUMPI PUSH0 DUP1 REVERT JUMPDEST POP JUMP JUMPDEST PUSH0 DUP2 CALLDATALOAD SWAP1 POP PUSH2 0x7A5 DUP2 PUSH2 0x781 JUMP JUMPDEST SWAP3 SWAP2 POP POP JUMP JUMPDEST PUSH0 PUSH1 0x20 DUP3 DUP5 SUB SLT ISZERO PUSH2 0x7C0 JUMPI PUSH2 0x7BF PUSH2 0x692 JUMP JUMPDEST JUMPDEST PUSH0 PUSH2 0x7CD DUP5 DUP3 DUP6 ADD PUSH2 0x797 JUMP JUMPDEST SWAP2 POP POP SWAP3 SWAP2 POP POP JUMP JUMPDEST PUSH0 DUP2 SWAP1 POP SWAP2 SWAP1 POP JUMP JUMPDEST PUSH0 PUSH2 0x7F9 PUSH2 0x7F4 PUSH2 0x7EF DUP5 PUSH2 0x696 JUMP JUMPDEST PUSH2 0x7D6 JUMP JUMPDEST PUSH2 0x696 JUMP JUMPDEST SWAP1 POP SWAP2 SWAP1 POP JUMP JUMPDEST PUSH0 PUSH2 0x80A DUP3 PUSH2 0x7DF JUMP JUMPDEST SWAP1 POP SWAP2 SWAP1 POP JUMP JUMPDEST PUSH0 PUSH2 0x81B DUP3 PUSH2 0x800 JUMP JUMPDEST SWAP1 POP SWAP2 SWAP1 POP JUMP JUMPDEST PUSH2 0x82B DUP2 PUSH2 0x811 JUMP JUMPDEST DUP3 MSTORE POP POP JUMP JUMPDEST PUSH0 PUSH1 0x20 DUP3 ADD SWAP1 POP PUSH2 0x844 PUSH0 DUP4 ADD DUP5 PUSH2 0x822 JUMP JUMPDEST SWAP3 SWAP2 POP POP JUMP JUMPDEST PUSH0 DUP3 DUP3 MSTORE PUSH1 0x20 DUP3 ADD SWAP1 POP SWAP3 SWAP2 POP POP JUMP JUMPDEST PUSH32 0x4E6F7468696E6720746F20756E7374616B650000000000000000000000000000 PUSH0 DUP3 ADD MSTORE POP JUMP JUMPDEST PUSH0 PUSH2 0x88E PUSH1 0x12 DUP4 PUSH2 0x84A JUMP JUMPDEST SWAP2 POP PUSH2 0x899 DUP3 PUSH2 0x85A JUMP JUMPDEST PUSH1 0x20 DUP3 ADD SWAP1 POP SWAP2 SWAP1 POP JUMP JUMPDEST PUSH0 PUSH1 0x20 DUP3 ADD SWAP1 POP DUP2 DUP2 SUB PUSH0 DUP4 ADD MSTORE PUSH2 0x8BB DUP2 PUSH2 0x882 JUMP JUMPDEST SWAP1 POP SWAP2 SWAP1 POP JUMP JUMPDEST PUSH32 0x4E487B7100000000000000000000000000000000000000000000000000000000 PUSH0 MSTORE PUSH1 0x11 PUSH1 0x4 MSTORE PUSH1 0x24 PUSH0 REVERT JUMPDEST PUSH0 PUSH2 0x8F9 DUP3 PUSH2 0x71B JUMP JUMPDEST SWAP2 POP PUSH2 0x904 DUP4 PUSH2 0x71B JUMP JUMPDEST SWAP3 POP DUP3 DUP3 ADD SWAP1 POP DUP1 DUP3 GT ISZERO PUSH2 0x91C JUMPI PUSH2 0x91B PUSH2 0x8C2 JUMP JUMPDEST JUMPDEST SWAP3 SWAP2 POP POP JUMP JUMPDEST PUSH2 0x92B DUP2 PUSH2 0x6B5 JUMP JUMPDEST DUP3 MSTORE POP POP JUMP JUMPDEST PUSH0 PUSH1 0x40 DUP3 ADD SWAP1 POP PUSH2 0x944 PUSH0 DUP4 ADD DUP6 PUSH2 0x922 JUMP JUMPDEST PUSH2 0x951 PUSH1 0x20 DUP4 ADD DUP5 PUSH2 0x724 JUMP JUMPDEST SWAP4 SWAP3 POP POP POP JUMP JUMPDEST PUSH0 DUP2 ISZERO ISZERO SWAP1 POP SWAP2 SWAP1 POP JUMP JUMPDEST PUSH2 0x96C DUP2 PUSH2 0x958 JUMP JUMPDEST DUP2 EQ PUSH2 0x976 JUMPI PUSH0 DUP1 REVERT JUMPDEST POP JUMP JUMPDEST PUSH0 DUP2 MLOAD SWAP1 POP PUSH2 0x987 DUP2 PUSH2 0x963 JUMP JUMPDEST SWAP3 SWAP2 POP POP JUMP JUMPDEST PUSH0 PUSH1 0x20 DUP3 DUP5 SUB SLT ISZERO PUSH2 0x9A2 JUMPI PUSH2 0x9A1 PUSH2 0x692 JUMP JUMPDEST JUMPDEST PUSH0 PUSH2 0x9AF DUP5 DUP3 DUP6 ADD PUSH2 0x979 JUMP JUMPDEST SWAP2 POP POP SWAP3 SWAP2 POP POP JUMP JUMPDEST PUSH32 0x5472616E73666572206661696C65640000000000000000000000000000000000 PUSH0 DUP3 ADD MSTORE POP JUMP JUMPDEST PUSH0 PUSH2 0x9EC PUSH1 0xF DUP4 PUSH2 0x84A JUMP JUMPDEST SWAP2 POP PUSH2 0x9F7 DUP3 PUSH2 0x9B8 JUMP JUMPDEST PUSH1 0x20 DUP3 ADD SWAP1 POP SWAP2 SWAP1 POP JUMP JUMPDEST PUSH0 PUSH1 0x20 DUP3 ADD SWAP1 POP DUP2 DUP2 SUB PUSH0 DUP4 ADD MSTORE PUSH2 0xA19 DUP2 PUSH2 0x9E0 JUMP JUMPDEST SWAP1 POP SWAP2 SWAP1 POP JUMP JUMPDEST PUSH0 PUSH1 0x40 DUP3 ADD SWAP1 POP PUSH2 0xA33 PUSH0 DUP4 ADD DUP6 PUSH2 0x724 JUMP JUMPDEST PUSH2 0xA40 PUSH1 0x20 DUP4 ADD DUP5 PUSH2 0x724 JUMP JUMPDEST SWAP4 SWAP3 POP POP POP JUMP JUMPDEST PUSH32 0x416D6F756E74206D757374206265203E20300000000000000000000000000000 PUSH0 DUP3 ADD MSTORE POP JUMP JUMPDEST PUSH0 PUSH2 0xA7B PUSH1 0x12 DUP4 PUSH2 0x84A JUMP JUMPDEST SWAP2 POP PUSH2 0xA86 DUP3 PUSH2 0xA47 JUMP JUMPDEST PUSH1 0x20 DUP3 ADD SWAP1 POP SWAP2 SWAP1 POP JUMP JUMPDEST PUSH0 PUSH1 0x20 DUP3 ADD SWAP1 POP DUP2 DUP2 SUB PUSH0 DUP4 ADD MSTORE PUSH2 0xAA8 DUP2 PUSH2 0xA6F JUMP JUMPDEST SWAP1 POP SWAP2 SWAP1 POP JUMP JUMPDEST PUSH0 PUSH1 0x60 DUP3 ADD SWAP1 POP PUSH2 0xAC2 PUSH0 DUP4 ADD DUP7 PUSH2 0x922 JUMP JUMPDEST PUSH2 0xACF PUSH1 0x20 DUP4 ADD DUP6 PUSH2 0x922 JUMP JUMPDEST PUSH2 0xADC PUSH1 0x40 DUP4 ADD DUP5 PUSH2 0x724 JUMP JUMPDEST SWAP5 SWAP4 POP POP POP POP JUMP JUMPDEST PUSH0 PUSH2 0xAEE DUP3 PUSH2 0x71B JUMP JUMPDEST SWAP2 POP PUSH2 0xAF9 DUP4 PUSH2 0x71B JUMP JUMPDEST SWAP3 POP DUP3 DUP3 SUB SWAP1 POP DUP2 DUP2 GT ISZERO PUSH2 0xB11 JUMPI PUSH2 0xB10 PUSH2 0x8C2 JUMP JUMPDEST JUMPDEST SWAP3 SWAP2 POP POP JUMP JUMPDEST PUSH0 PUSH2 0xB21 DUP3 PUSH2 0x71B JUMP JUMPDEST SWAP2 POP PUSH2 0xB2C DUP4 PUSH2 0x71B JUMP JUMPDEST SWAP3 POP DUP3 DUP3 MUL PUSH2 0xB3A DUP2 PUSH2 0x71B JUMP JUMPDEST SWAP2 POP DUP3 DUP3 DIV DUP5 EQ DUP4 ISZERO OR PUSH2 0xB51 JUMPI PUSH2 0xB50 PUSH2 0x8C2 JUMP JUMPDEST JUMPDEST POP SWAP3 SWAP2 POP POP JUMP JUMPDEST PUSH32 0x4E487B7100000000000000000000000000000000000000000000000000000000 PUSH0 MSTORE PUSH1 0x12 PUSH1 0x4 MSTORE PUSH1 0x24 PUSH0 REVERT JUMPDEST PUSH0 PUSH2 0xB8F DUP3 PUSH2 0x71B JUMP JUMPDEST SWAP2 POP PUSH2 0xB9A DUP4 PUSH2 0x71B JUMP JUMPDEST SWAP3 POP DUP3 PUSH2 0xBAA JUMPI PUSH2 0xBA9 PUSH2 0xB58 JUMP JUMPDEST JUMPDEST DUP3 DUP3 DIV SWAP1 POP SWAP3 SWAP2 POP POP JUMP INVALID LOG2 PUSH5 0x6970667358 0x22 SLT KECCAK256 0x24 SELFDESTRUCT 0xD7 0xCB 0xBD AND PUSH21 0x1220F0DADB280CF2859C55B8F6466FFF8EB1B3561E CREATE2 RETURNDATASIZE 0xC4 0xE8 PUSH5 0x736F6C6343 STOP ADDMOD EQ STOP CALLER "
				},
				"gasEstimates": {
					"creation": {
						"codeDepositCost": "610200",
						"executionCost": "infinite",
						"totalCost": "infinite"
					},
					"external": {
						"calculateReward(address)": "infinite",
						"rewardRate()": "347",
						"stake(uint256)": "infinite",
						"stakes(address)": "infinite",
						"token()": "infinite",
						"unstake()": "infinite"
					},
					"internal": {
						"_calculateNewRewards(address)": "infinite",
						"_updateRewards(address)": "infinite"
					}
				},
				"methodIdentifiers": {
					"calculateReward(address)": "d82e3962",
					"rewardRate()": "7b0a47ee",
					"stake(uint256)": "a694fc3a",
					"stakes(address)": "16934fc4",
					"token()": "fc0c546a",
					"unstake()": "2def6620"
				}
			},
			"storageLayout": {
				"storage": [
					{
						"astId": 37,
						"contract": "contracts/Staking.sol:Staking",
						"label": "stakes",
						"offset": 0,
						"slot": "0",
						"type": "t_mapping(t_address,t_struct(Stake)32_storage)"
					}
				],
				"types": {
					"t_address": {
						"encoding": "inplace",
						"label": "address",
						"numberOfBytes": "20"
					},
					"t_mapping(t_address,t_struct(Stake)32_storage)": {
						"encoding": "mapping",
						"key": "t_address",
						"label": "mapping(address => struct Staking.Stake)",
						"numberOfBytes": "32",
						"value": "t_struct(Stake)32_storage"
					},
					"t_struct(Stake)32_storage": {
						"encoding": "inplace",
						"label": "struct Staking.Stake",
						"members": [
							{
								"astId": 27,
								"contract": "contracts/Staking.sol:Staking",
								"label": "amount",
								"offset": 0,
								"slot": "0",
								"type": "t_uint256"
							},
							{
								"astId": 29,
								"contract": "contracts/Staking.sol:Staking",
								"label": "timestamp",
								"offset": 0,
								"slot": "1",
								"type": "t_uint256"
							},
							{
								"astId": 31,
								"contract": "contracts/Staking.sol:Staking",
								"label": "unclaimed",
								"offset": 0,
								"slot": "2",
								"type": "t_uint256"
							}
						],
						"numberOfBytes": "96"
					},
					"t_uint256": {
						"encoding": "inplace",
						"label": "uint256",
						"numberOfBytes": "32"
					}
				}
			},
			"userdoc": {
				"kind": "user",
				"methods": {},
				"version": 1
			}
		}
	}
}