{
	"contracts/RockScissorPaper2.sol": {
		"RockScissorPaper": {
			"abi": [
				{
					"inputs": [
						{
							"internalType": "uint256",
							"name": "subscriptionId",
							"type": "uint256"
						}
					],
					"stateMutability": "payable",
					"type": "constructor"
				},
				{
					"inputs": [
						{
							"internalType": "address",
							"name": "have",
							"type": "address"
						},
						{
							"internalType": "address",
							"name": "want",
							"type": "address"
						}
					],
					"name": "OnlyCoordinatorCanFulfill",
					"type": "error"
				},
				{
					"inputs": [
						{
							"internalType": "address",
							"name": "have",
							"type": "address"
						},
						{
							"internalType": "address",
							"name": "owner",
							"type": "address"
						},
						{
							"internalType": "address",
							"name": "coordinator",
							"type": "address"
						}
					],
					"name": "OnlyOwnerOrCoordinator",
					"type": "error"
				},
				{
					"inputs": [],
					"name": "ReentrancyGuardReentrantCall",
					"type": "error"
				},
				{
					"inputs": [],
					"name": "ZeroAddress",
					"type": "error"
				},
				{
					"anonymous": false,
					"inputs": [
						{
							"indexed": false,
							"internalType": "address",
							"name": "vrfCoordinator",
							"type": "address"
						}
					],
					"name": "CoordinatorSet",
					"type": "event"
				},
				{
					"anonymous": false,
					"inputs": [
						{
							"indexed": true,
							"internalType": "uint256",
							"name": "requestId",
							"type": "uint256"
						},
						{
							"indexed": true,
							"internalType": "address",
							"name": "player",
							"type": "address"
						},
						{
							"indexed": false,
							"internalType": "uint8",
							"name": "playerChoice",
							"type": "uint8"
						},
						{
							"indexed": false,
							"internalType": "uint8",
							"name": "casinoChoice",
							"type": "uint8"
						},
						{
							"indexed": false,
							"internalType": "string",
							"name": "result",
							"type": "string"
						},
						{
							"indexed": false,
							"internalType": "uint256",
							"name": "payout",
							"type": "uint256"
						}
					],
					"name": "GameFinished",
					"type": "event"
				},
				{
					"anonymous": false,
					"inputs": [
						{
							"indexed": true,
							"internalType": "uint256",
							"name": "requestId",
							"type": "uint256"
						},
						{
							"indexed": true,
							"internalType": "address",
							"name": "player",
							"type": "address"
						},
						{
							"indexed": false,
							"internalType": "uint8",
							"name": "playerChoice",
							"type": "uint8"
						},
						{
							"indexed": false,
							"internalType": "uint256",
							"name": "bet",
							"type": "uint256"
						}
					],
					"name": "GameRequested",
					"type": "event"
				},
				{
					"anonymous": false,
					"inputs": [
						{
							"indexed": true,
							"internalType": "address",
							"name": "from",
							"type": "address"
						},
						{
							"indexed": true,
							"internalType": "address",
							"name": "to",
							"type": "address"
						}
					],
					"name": "OwnershipTransferRequested",
					"type": "event"
				},
				{
					"anonymous": false,
					"inputs": [
						{
							"indexed": true,
							"internalType": "address",
							"name": "from",
							"type": "address"
						},
						{
							"indexed": true,
							"internalType": "address",
							"name": "to",
							"type": "address"
						}
					],
					"name": "OwnershipTransferred",
					"type": "event"
				},
				{
					"inputs": [],
					"name": "MIN_BET",
					"outputs": [
						{
							"internalType": "uint256",
							"name": "",
							"type": "uint256"
						}
					],
					"stateMutability": "view",
					"type": "function"
				},
				{
					"inputs": [],
					"name": "acceptOwnership",
					"outputs": [],
					"stateMutability": "nonpayable",
					"type": "function"
				},
				{
					"inputs": [],
					"name": "callbackGasLimit",
					"outputs": [
						{
							"internalType": "uint32",
							"name": "",
							"type": "uint32"
						}
					],
					"stateMutability": "view",
					"type": "function"
				},
				{
					"inputs": [],
					"name": "deposit",
					"outputs": [],
					"stateMutability": "payable",
					"type": "function"
				},
				{
					"inputs": [],
					"name": "getBalance",
					"outputs": [
						{
							"internalType": "uint256",
							"name": "",
							"type": "uint256"
						}
					],
					"stateMutability": "view",
					"type": "function"
				},
				{
					"inputs": [],
					"name": "getRules",
					"outputs": [
						{
							"internalType": "string",
							"name": "",
							"type": "string"
						}
					],
					"stateMutability": "pure",
					"type": "function"
				},
				{
					"inputs": [],
					"name": "keyHash",
					"outputs": [
						{
							"internalType": "bytes32",
							"name": "",
							"type": "bytes32"
						}
					],
					"stateMutability": "view",
					"type": "function"
				},
				{
					"inputs": [],
					"name": "lastRound",
					"outputs": [
						{
							"internalType": "address",
							"name": "player",
							"type": "address"
						},
						{
							"internalType": "uint8",
							"name": "playerChoice",
							"type": "uint8"
						},
						{
							"internalType": "uint8",
							"name": "randomNumber",
							"type": "uint8"
						},
						{
							"internalType": "string",
							"name": "result",
							"type": "string"
						},
						{
							"internalType": "uint256",
							"name": "bet",
							"type": "uint256"
						}
					],
					"stateMutability": "view",
					"type": "function"
				},
				{
					"inputs": [],
					"name": "numWords",
					"outputs": [
						{
							"internalType": "uint32",
							"name": "",
							"type": "uint32"
						}
					],
					"stateMutability": "view",
					"type": "function"
				},
				{
					"inputs": [],
					"name": "owner",
					"outputs": [
						{
							"internalType": "address",
							"name": "",
							"type": "address"
						}
					],
					"stateMutability": "view",
					"type": "function"
				},
				{
					"inputs": [],
					"name": "playPaper",
					"outputs": [],
					"stateMutability": "payable",
					"type": "function"
				},
				{
					"inputs": [],
					"name": "playRock",
					"outputs": [],
					"stateMutability": "payable",
					"type": "function"
				},
				{
					"inputs": [],
					"name": "playScissors",
					"outputs": [],
					"stateMutability": "payable",
					"type": "function"
				},
				{
					"inputs": [
						{
							"internalType": "uint256",
							"name": "requestId",
							"type": "uint256"
						},
						{
							"internalType": "uint256[]",
							"name": "randomWords",
							"type": "uint256[]"
						}
					],
					"name": "rawFulfillRandomWords",
					"outputs": [],
					"stateMutability": "nonpayable",
					"type": "function"
				},
				{
					"inputs": [],
					"name": "requestConfirmations",
					"outputs": [
						{
							"internalType": "uint16",
							"name": "",
							"type": "uint16"
						}
					],
					"stateMutability": "view",
					"type": "function"
				},
				{
					"inputs": [],
					"name": "s_subscriptionId",
					"outputs": [
						{
							"internalType": "uint256",
							"name": "",
							"type": "uint256"
						}
					],
					"stateMutability": "view",
					"type": "function"
				},
				{
					"inputs": [],
					"name": "s_vrfCoordinator",
					"outputs": [
						{
							"internalType": "contract IVRFCoordinatorV2Plus",
							"name": "",
							"type": "address"
						}
					],
					"stateMutability": "view",
					"type": "function"
				},
				{
					"inputs": [
						{
							"internalType": "address",
							"name": "_vrfCoordinator",
							"type": "address"
						}
					],
					"name": "setCoordinator",
					"outputs": [],
					"stateMutability": "nonpayable",
					"type": "function"
				},
				{
					"inputs": [
						{
							"internalType": "address",
							"name": "to",
							"type": "address"
						}
					],
					"name": "transferOwnership",
					"outputs": [],
					"stateMutability": "nonpayable",
					"type": "function"
				},
				{
					"inputs": [],
					"name": "vrfCoordinator",
					"outputs": [
						{
							"internalType": "address",
							"name": "",
							"type": "address"
						}
					],
					"stateMutability": "view",
					"type": "function"
				},
				{
					"inputs": [],
					"name": "withdrawAll",
					"outputs": [],
					"stateMutability": "nonpayable",
					"type": "function"
				}
			],
			"devdoc": {
				"errors": {
					"ReentrancyGuardReentrantCall()": [
						{
							"details": "Unauthorized reentrant call."
						}
					]
				},
				"kind": "dev",
				"methods": {},
				"version": 1
			},
			"evm": {
				"assembly": "    /* \"contracts/RockScissorPaper2.sol\":563:7317  contract RockScissorPaper is VRFConsumerBaseV2Plus, ReentrancyGuard { // Добавлено наследование ReentrancyGuard... */\n  mstore(0x40, 0x80)\n    /* \"contracts/RockScissorPaper2.sol\":960:1002  0xDA3b641D438362C440Ac5458c57e00a712b66700 */\n  0xda3b641d438362c440ac5458c57e00a712b66700\n    /* \"contracts/RockScissorPaper2.sol\":928:1002  address public vrfCoordinator = 0xDA3b641D438362C440Ac5458c57e00a712b66700 */\n  0x04\n  exp(0x0100, 0x00)\n  dup2\n  sload\n  dup2\n  0xffffffffffffffffffffffffffffffffffffffff\n  mul\n  not\n  and\n  swap1\n  dup4\n  0xffffffffffffffffffffffffffffffffffffffff\n  and\n  mul\n  or\n  swap1\n  sstore\n  pop\n    /* \"contracts/RockScissorPaper2.sol\":1034:1100  0x8596b430971ac45bdf6088665b9ad8e8630c9d5049ab54b14dff711bee7c0e26 */\n  0x8596b430971ac45bdf6088665b9ad8e8630c9d5049ab54b14dff711bee7c0e26\n    /* \"contracts/RockScissorPaper2.sol\":1009:1100  bytes32 public keyHash = 0x8596b430971ac45bdf6088665b9ad8e8630c9d5049ab54b14dff711bee7c0e26 */\n  0x00\n  shl\n  0x05\n  sstore\n    /* \"contracts/RockScissorPaper2.sol\":1140:1146  200000 */\n  0x030d40\n    /* \"contracts/RockScissorPaper2.sol\":1107:1146  uint32 public callbackGasLimit = 200000 */\n  0x06\n  exp(0x0100, 0x00)\n  dup2\n  sload\n  dup2\n  0xffffffff\n  mul\n  not\n  and\n  swap1\n  dup4\n  0xffffffff\n  and\n  mul\n  or\n  swap1\n  sstore\n  pop\n    /* \"contracts/RockScissorPaper2.sol\":1189:1190  3 */\n  0x03\n    /* \"contracts/RockScissorPaper2.sol\":1152:1190  uint16 public requestConfirmations = 3 */\n  0x06\n  exp(0x0100, 0x04)\n  dup2\n  sload\n  dup2\n  0xffff\n  mul\n  not\n  and\n  swap1\n  dup4\n  0xffff\n  and\n  mul\n  or\n  swap1\n  sstore\n  pop\n    /* \"contracts/RockScissorPaper2.sol\":1221:1222  1 */\n  0x01\n    /* \"contracts/RockScissorPaper2.sol\":1196:1222  uint32 public numWords = 1 */\n  0x06\n  dup1\n  0x0100\n  exp\n  dup2\n  sload\n  dup2\n  0xffffffff\n  mul\n  not\n  and\n  swap1\n  dup4\n  0xffffffff\n  and\n  mul\n  or\n  swap1\n  sstore\n  pop\n    /* \"contracts/RockScissorPaper2.sol\":2675:2931  constructor(uint256 subscriptionId) VRFConsumerBaseV2Plus(vrfCoordinator) payable {... */\n  mload(0x40)\n  sub(codesize, bytecodeSize)\n  dup1\n  bytecodeSize\n  dup4\n  codecopy\n  dup2\n  dup2\n  add\n  0x40\n  mstore\n  dup2\n  add\n  swap1\n  tag_1\n  swap2\n  swap1\n  tag_2\n  jump\t// in\ntag_1:\n    /* \"contracts/RockScissorPaper2.sol\":2733:2747  vrfCoordinator */\n  0x04\n  0x00\n  swap1\n  sload\n  swap1\n  0x0100\n  exp\n  swap1\n  div\n  0xffffffffffffffffffffffffffffffffffffffff\n  and\n    /* \"@chainlink/contracts/src/v0.8/vrf/dev/VRFConsumerBaseV2Plus.sol\":6188:6198  msg.sender */\n  caller\n    /* \"@chainlink/contracts/src/v0.8/shared/access/ConfirmedOwner.sol\":363:371  newOwner */\n  dup1\n    /* \"@chainlink/contracts/src/v0.8/shared/access/ConfirmedOwner.sol\":381:382  0 */\n  0x00\n    /* \"@chainlink/contracts/src/v0.8/shared/access/ConfirmedOwnerWithProposal.sol\":618:619  0 */\n  0x00\n    /* \"@chainlink/contracts/src/v0.8/shared/access/ConfirmedOwnerWithProposal.sol\":598:620  newOwner != address(0) */\n  0xffffffffffffffffffffffffffffffffffffffff\n  and\n    /* \"@chainlink/contracts/src/v0.8/shared/access/ConfirmedOwnerWithProposal.sol\":598:606  newOwner */\n  dup3\n    /* \"@chainlink/contracts/src/v0.8/shared/access/ConfirmedOwnerWithProposal.sol\":598:620  newOwner != address(0) */\n  0xffffffffffffffffffffffffffffffffffffffff\n  and\n  sub\n    /* \"@chainlink/contracts/src/v0.8/shared/access/ConfirmedOwnerWithProposal.sol\":590:649  require(newOwner != address(0), \"Cannot set owner to zero\") */\n  tag_9\n  jumpi\n  mload(0x40)\n  0x08c379a000000000000000000000000000000000000000000000000000000000\n  dup2\n  mstore\n  0x04\n  add\n  tag_10\n  swap1\n  tag_11\n  jump\t// in\ntag_10:\n  mload(0x40)\n  dup1\n  swap2\n  sub\n  swap1\n  revert\ntag_9:\n    /* \"@chainlink/contracts/src/v0.8/shared/access/ConfirmedOwnerWithProposal.sol\":666:674  newOwner */\n  dup2\n    /* \"@chainlink/contracts/src/v0.8/shared/access/ConfirmedOwnerWithProposal.sol\":656:663  s_owner */\n  0x00\n  0x00\n    /* \"@chainlink/contracts/src/v0.8/shared/access/ConfirmedOwnerWithProposal.sol\":656:674  s_owner = newOwner */\n  0x0100\n  exp\n  dup2\n  sload\n  dup2\n  0xffffffffffffffffffffffffffffffffffffffff\n  mul\n  not\n  and\n  swap1\n  dup4\n  0xffffffffffffffffffffffffffffffffffffffff\n  and\n  mul\n  or\n  swap1\n  sstore\n  pop\n    /* \"@chainlink/contracts/src/v0.8/shared/access/ConfirmedOwnerWithProposal.sol\":708:709  0 */\n  0x00\n    /* \"@chainlink/contracts/src/v0.8/shared/access/ConfirmedOwnerWithProposal.sol\":684:710  pendingOwner != address(0) */\n  0xffffffffffffffffffffffffffffffffffffffff\n  and\n    /* \"@chainlink/contracts/src/v0.8/shared/access/ConfirmedOwnerWithProposal.sol\":684:696  pendingOwner */\n  dup2\n    /* \"@chainlink/contracts/src/v0.8/shared/access/ConfirmedOwnerWithProposal.sol\":684:710  pendingOwner != address(0) */\n  0xffffffffffffffffffffffffffffffffffffffff\n  and\n  eq\n    /* \"@chainlink/contracts/src/v0.8/shared/access/ConfirmedOwnerWithProposal.sol\":680:759  if (pendingOwner != address(0)) {... */\n  tag_12\n  jumpi\n    /* \"@chainlink/contracts/src/v0.8/shared/access/ConfirmedOwnerWithProposal.sol\":720:752  _transferOwnership(pendingOwner) */\n  tag_13\n    /* \"@chainlink/contracts/src/v0.8/shared/access/ConfirmedOwnerWithProposal.sol\":739:751  pendingOwner */\n  dup2\n    /* \"@chainlink/contracts/src/v0.8/shared/access/ConfirmedOwnerWithProposal.sol\":720:738  _transferOwnership */\n  shl(0x20, tag_14)\n    /* \"@chainlink/contracts/src/v0.8/shared/access/ConfirmedOwnerWithProposal.sol\":720:752  _transferOwnership(pendingOwner) */\n  0x20\n  shr\n  jump\t// in\ntag_13:\n    /* \"@chainlink/contracts/src/v0.8/shared/access/ConfirmedOwnerWithProposal.sol\":680:759  if (pendingOwner != address(0)) {... */\ntag_12:\n    /* \"@chainlink/contracts/src/v0.8/shared/access/ConfirmedOwnerWithProposal.sol\":481:763  constructor(address newOwner, address pendingOwner) {... */\n  pop\n  pop\n    /* \"@chainlink/contracts/src/v0.8/shared/access/ConfirmedOwner.sol\":298:387  constructor(... */\n  pop\n    /* \"@chainlink/contracts/src/v0.8/vrf/dev/VRFConsumerBaseV2Plus.sol\":6237:6238  0 */\n  0x00\n    /* \"@chainlink/contracts/src/v0.8/vrf/dev/VRFConsumerBaseV2Plus.sol\":6210:6239  _vrfCoordinator == address(0) */\n  0xffffffffffffffffffffffffffffffffffffffff\n  and\n    /* \"@chainlink/contracts/src/v0.8/vrf/dev/VRFConsumerBaseV2Plus.sol\":6210:6225  _vrfCoordinator */\n  dup2\n    /* \"@chainlink/contracts/src/v0.8/vrf/dev/VRFConsumerBaseV2Plus.sol\":6210:6239  _vrfCoordinator == address(0) */\n  0xffffffffffffffffffffffffffffffffffffffff\n  and\n  sub\n    /* \"@chainlink/contracts/src/v0.8/vrf/dev/VRFConsumerBaseV2Plus.sol\":6206:6276  if (_vrfCoordinator == address(0)) {... */\n  tag_17\n  jumpi\n    /* \"@chainlink/contracts/src/v0.8/vrf/dev/VRFConsumerBaseV2Plus.sol\":6256:6269  ZeroAddress() */\n  mload(0x40)\n  0xd92e233d00000000000000000000000000000000000000000000000000000000\n  dup2\n  mstore\n  0x04\n  add\n  mload(0x40)\n  dup1\n  swap2\n  sub\n  swap1\n  revert\n    /* \"@chainlink/contracts/src/v0.8/vrf/dev/VRFConsumerBaseV2Plus.sol\":6206:6276  if (_vrfCoordinator == address(0)) {... */\ntag_17:\n    /* \"@chainlink/contracts/src/v0.8/vrf/dev/VRFConsumerBaseV2Plus.sol\":6322:6337  _vrfCoordinator */\n  dup1\n    /* \"@chainlink/contracts/src/v0.8/vrf/dev/VRFConsumerBaseV2Plus.sol\":6281:6297  s_vrfCoordinator */\n  0x02\n  0x00\n    /* \"@chainlink/contracts/src/v0.8/vrf/dev/VRFConsumerBaseV2Plus.sol\":6281:6338  s_vrfCoordinator = IVRFCoordinatorV2Plus(_vrfCoordinator) */\n  0x0100\n  exp\n  dup2\n  sload\n  dup2\n  0xffffffffffffffffffffffffffffffffffffffff\n  mul\n  not\n  and\n  swap1\n  dup4\n  0xffffffffffffffffffffffffffffffffffffffff\n  and\n  mul\n  or\n  swap1\n  sstore\n  pop\n    /* \"@chainlink/contracts/src/v0.8/vrf/dev/VRFConsumerBaseV2Plus.sol\":6128:6343  constructor(... */\n  pop\n    /* \"@openzeppelin/contracts/utils/ReentrancyGuard.sol\":2365:2366  1 */\n  0x01\n    /* \"@openzeppelin/contracts/utils/ReentrancyGuard.sol\":2539:2585  _reentrancyGuardStorageSlot().getUint256Slot() */\n  tag_19\n    /* \"@openzeppelin/contracts/utils/ReentrancyGuard.sol\":2539:2568  _reentrancyGuardStorageSlot() */\n  tag_20\n    /* \"@openzeppelin/contracts/utils/ReentrancyGuard.sol\":2539:2566  _reentrancyGuardStorageSlot */\n  shl(0x20, tag_21)\n    /* \"@openzeppelin/contracts/utils/ReentrancyGuard.sol\":2539:2568  _reentrancyGuardStorageSlot() */\n  0x20\n  shr\n  jump\t// in\ntag_20:\n    /* \"@openzeppelin/contracts/utils/ReentrancyGuard.sol\":2539:2583  _reentrancyGuardStorageSlot().getUint256Slot */\n  shl(0x20, tag_22)\n    /* \"@openzeppelin/contracts/utils/ReentrancyGuard.sol\":2539:2585  _reentrancyGuardStorageSlot().getUint256Slot() */\n  0x20\n  shr\n  jump\t// in\ntag_19:\n    /* \"@openzeppelin/contracts/utils/ReentrancyGuard.sol\":2539:2591  _reentrancyGuardStorageSlot().getUint256Slot().value */\n  0x00\n  add\n    /* \"@openzeppelin/contracts/utils/ReentrancyGuard.sol\":2539:2605  _reentrancyGuardStorageSlot().getUint256Slot().value = NOT_ENTERED */\n  dup2\n  swap1\n  sstore\n  pop\n    /* \"contracts/RockScissorPaper2.sol\":2910:2924  subscriptionId */\n  dup1\n    /* \"contracts/RockScissorPaper2.sol\":2891:2907  s_subscriptionId */\n  0x03\n    /* \"contracts/RockScissorPaper2.sol\":2891:2924  s_subscriptionId = subscriptionId */\n  dup2\n  swap1\n  sstore\n  pop\n    /* \"contracts/RockScissorPaper2.sol\":2675:2931  constructor(uint256 subscriptionId) VRFConsumerBaseV2Plus(vrfCoordinator) payable {... */\n  pop\n    /* \"contracts/RockScissorPaper2.sol\":563:7317  contract RockScissorPaper is VRFConsumerBaseV2Plus, ReentrancyGuard { // Добавлено наследование ReentrancyGuard... */\n  jump(tag_24)\n    /* \"@chainlink/contracts/src/v0.8/shared/access/ConfirmedOwnerWithProposal.sol\":1544:1791  function _transferOwnership(... */\ntag_14:\n    /* \"@chainlink/contracts/src/v0.8/shared/access/ConfirmedOwnerWithProposal.sol\":1671:1681  msg.sender */\n  caller\n    /* \"@chainlink/contracts/src/v0.8/shared/access/ConfirmedOwnerWithProposal.sol\":1665:1681  to != msg.sender */\n  0xffffffffffffffffffffffffffffffffffffffff\n  and\n    /* \"@chainlink/contracts/src/v0.8/shared/access/ConfirmedOwnerWithProposal.sol\":1665:1667  to */\n  dup2\n    /* \"@chainlink/contracts/src/v0.8/shared/access/ConfirmedOwnerWithProposal.sol\":1665:1681  to != msg.sender */\n  0xffffffffffffffffffffffffffffffffffffffff\n  and\n  sub\n    /* \"@chainlink/contracts/src/v0.8/shared/access/ConfirmedOwnerWithProposal.sol\":1657:1709  require(to != msg.sender, \"Cannot transfer to self\") */\n  tag_26\n  jumpi\n  mload(0x40)\n  0x08c379a000000000000000000000000000000000000000000000000000000000\n  dup2\n  mstore\n  0x04\n  add\n  tag_27\n  swap1\n  tag_28\n  jump\t// in\ntag_27:\n  mload(0x40)\n  dup1\n  swap2\n  sub\n  swap1\n  revert\ntag_26:\n    /* \"@chainlink/contracts/src/v0.8/shared/access/ConfirmedOwnerWithProposal.sol\":1733:1735  to */\n  dup1\n    /* \"@chainlink/contracts/src/v0.8/shared/access/ConfirmedOwnerWithProposal.sol\":1716:1730  s_pendingOwner */\n  0x01\n  0x00\n    /* \"@chainlink/contracts/src/v0.8/shared/access/ConfirmedOwnerWithProposal.sol\":1716:1735  s_pendingOwner = to */\n  0x0100\n  exp\n  dup2\n  sload\n  dup2\n  0xffffffffffffffffffffffffffffffffffffffff\n  mul\n  not\n  and\n  swap1\n  dup4\n  0xffffffffffffffffffffffffffffffffffffffff\n  and\n  mul\n  or\n  swap1\n  sstore\n  pop\n    /* \"@chainlink/contracts/src/v0.8/shared/access/ConfirmedOwnerWithProposal.sol\":1783:1785  to */\n  dup1\n    /* \"@chainlink/contracts/src/v0.8/shared/access/ConfirmedOwnerWithProposal.sol\":1747:1786  OwnershipTransferRequested(s_owner, to) */\n  0xffffffffffffffffffffffffffffffffffffffff\n  and\n    /* \"@chainlink/contracts/src/v0.8/shared/access/ConfirmedOwnerWithProposal.sol\":1774:1781  s_owner */\n  0x00\n  0x00\n  swap1\n  sload\n  swap1\n  0x0100\n  exp\n  swap1\n  div\n  0xffffffffffffffffffffffffffffffffffffffff\n  and\n    /* \"@chainlink/contracts/src/v0.8/shared/access/ConfirmedOwnerWithProposal.sol\":1747:1786  OwnershipTransferRequested(s_owner, to) */\n  0xffffffffffffffffffffffffffffffffffffffff\n  and\n  0xed8889f560326eb138920d842192f0eb3dd22b4f139c87a2c57538e05bae1278\n  mload(0x40)\n  mload(0x40)\n  dup1\n  swap2\n  sub\n  swap1\n  log3\n    /* \"@chainlink/contracts/src/v0.8/shared/access/ConfirmedOwnerWithProposal.sol\":1544:1791  function _transferOwnership(... */\n  pop\n  jump\t// out\n    /* \"@openzeppelin/contracts/utils/ReentrancyGuard.sol\":4636:4763  function _reentrancyGuardStorageSlot() internal pure virtual returns (bytes32) {... */\ntag_21:\n    /* \"@openzeppelin/contracts/utils/ReentrancyGuard.sol\":4706:4713  bytes32 */\n  0x00\n    /* \"@openzeppelin/contracts/utils/ReentrancyGuard.sol\":1505:1571  0x9b779b17422d0df92223018b32b4d1fa46e071723d6817e2486d003becc55f00 */\n  0x9b779b17422d0df92223018b32b4d1fa46e071723d6817e2486d003becc55f00\n    /* \"@openzeppelin/contracts/utils/ReentrancyGuard.sol\":4732:4756  REENTRANCY_GUARD_STORAGE */\n  0x00\n  shl\n    /* \"@openzeppelin/contracts/utils/ReentrancyGuard.sol\":4725:4756  return REENTRANCY_GUARD_STORAGE */\n  swap1\n  pop\n    /* \"@openzeppelin/contracts/utils/ReentrancyGuard.sol\":4636:4763  function _reentrancyGuardStorageSlot() internal pure virtual returns (bytes32) {... */\n  swap1\n  jump\t// out\n    /* \"@openzeppelin/contracts/utils/StorageSlot.sol\":2679:2842  function getUint256Slot(bytes32 slot) internal pure returns (Uint256Slot storage r) {... */\ntag_22:\n    /* \"@openzeppelin/contracts/utils/StorageSlot.sol\":2740:2761  Uint256Slot storage r */\n  0x00\n    /* \"@openzeppelin/contracts/utils/StorageSlot.sol\":2822:2826  slot */\n  dup2\n    /* \"@openzeppelin/contracts/utils/StorageSlot.sol\":2812:2826  r.slot := slot */\n  swap1\n  pop\n    /* \"@openzeppelin/contracts/utils/StorageSlot.sol\":2679:2842  function getUint256Slot(bytes32 slot) internal pure returns (Uint256Slot storage r) {... */\n  swap2\n  swap1\n  pop\n  jump\t// out\n    /* \"#utility.yul\":88:205   */\ntag_32:\n    /* \"#utility.yul\":197:198   */\n  0x00\n    /* \"#utility.yul\":194:195   */\n  0x00\n    /* \"#utility.yul\":187:199   */\n  revert\n    /* \"#utility.yul\":334:411   */\ntag_34:\n    /* \"#utility.yul\":371:378   */\n  0x00\n    /* \"#utility.yul\":400:405   */\n  dup2\n    /* \"#utility.yul\":389:405   */\n  swap1\n  pop\n    /* \"#utility.yul\":334:411   */\n  swap2\n  swap1\n  pop\n  jump\t// out\n    /* \"#utility.yul\":417:539   */\ntag_35:\n    /* \"#utility.yul\":490:514   */\n  tag_48\n    /* \"#utility.yul\":508:513   */\n  dup2\n    /* \"#utility.yul\":490:514   */\n  tag_34\n  jump\t// in\ntag_48:\n    /* \"#utility.yul\":483:488   */\n  dup2\n    /* \"#utility.yul\":480:515   */\n  eq\n    /* \"#utility.yul\":470:533   */\n  tag_49\n  jumpi\n    /* \"#utility.yul\":529:530   */\n  0x00\n    /* \"#utility.yul\":526:527   */\n  0x00\n    /* \"#utility.yul\":519:531   */\n  revert\n    /* \"#utility.yul\":470:533   */\ntag_49:\n    /* \"#utility.yul\":417:539   */\n  pop\n  jump\t// out\n    /* \"#utility.yul\":545:688   */\ntag_36:\n    /* \"#utility.yul\":602:607   */\n  0x00\n    /* \"#utility.yul\":633:639   */\n  dup2\n    /* \"#utility.yul\":627:640   */\n  mload\n    /* \"#utility.yul\":618:640   */\n  swap1\n  pop\n    /* \"#utility.yul\":649:682   */\n  tag_51\n    /* \"#utility.yul\":676:681   */\n  dup2\n    /* \"#utility.yul\":649:682   */\n  tag_35\n  jump\t// in\ntag_51:\n    /* \"#utility.yul\":545:688   */\n  swap3\n  swap2\n  pop\n  pop\n  jump\t// out\n    /* \"#utility.yul\":694:1045   */\ntag_2:\n    /* \"#utility.yul\":764:770   */\n  0x00\n    /* \"#utility.yul\":813:815   */\n  0x20\n    /* \"#utility.yul\":801:810   */\n  dup3\n    /* \"#utility.yul\":792:799   */\n  dup5\n    /* \"#utility.yul\":788:811   */\n  sub\n    /* \"#utility.yul\":784:816   */\n  slt\n    /* \"#utility.yul\":781:900   */\n  iszero\n  tag_53\n  jumpi\n    /* \"#utility.yul\":819:898   */\n  tag_54\n  tag_32\n  jump\t// in\ntag_54:\n    /* \"#utility.yul\":781:900   */\ntag_53:\n    /* \"#utility.yul\":939:940   */\n  0x00\n    /* \"#utility.yul\":964:1028   */\n  tag_55\n    /* \"#utility.yul\":1020:1027   */\n  dup5\n    /* \"#utility.yul\":1011:1017   */\n  dup3\n    /* \"#utility.yul\":1000:1009   */\n  dup6\n    /* \"#utility.yul\":996:1018   */\n  add\n    /* \"#utility.yul\":964:1028   */\n  tag_36\n  jump\t// in\ntag_55:\n    /* \"#utility.yul\":954:1028   */\n  swap2\n  pop\n    /* \"#utility.yul\":910:1038   */\n  pop\n    /* \"#utility.yul\":694:1045   */\n  swap3\n  swap2\n  pop\n  pop\n  jump\t// out\n    /* \"#utility.yul\":1051:1220   */\ntag_37:\n    /* \"#utility.yul\":1135:1146   */\n  0x00\n    /* \"#utility.yul\":1169:1175   */\n  dup3\n    /* \"#utility.yul\":1164:1167   */\n  dup3\n    /* \"#utility.yul\":1157:1176   */\n  mstore\n    /* \"#utility.yul\":1209:1213   */\n  0x20\n    /* \"#utility.yul\":1204:1207   */\n  dup3\n    /* \"#utility.yul\":1200:1214   */\n  add\n    /* \"#utility.yul\":1185:1214   */\n  swap1\n  pop\n    /* \"#utility.yul\":1051:1220   */\n  swap3\n  swap2\n  pop\n  pop\n  jump\t// out\n    /* \"#utility.yul\":1226:1400   */\ntag_38:\n    /* \"#utility.yul\":1366:1392   */\n  0x43616e6e6f7420736574206f776e657220746f207a65726f0000000000000000\n    /* \"#utility.yul\":1362:1363   */\n  0x00\n    /* \"#utility.yul\":1354:1360   */\n  dup3\n    /* \"#utility.yul\":1350:1364   */\n  add\n    /* \"#utility.yul\":1343:1393   */\n  mstore\n    /* \"#utility.yul\":1226:1400   */\n  pop\n  jump\t// out\n    /* \"#utility.yul\":1406:1772   */\ntag_39:\n    /* \"#utility.yul\":1548:1551   */\n  0x00\n    /* \"#utility.yul\":1569:1636   */\n  tag_59\n    /* \"#utility.yul\":1633:1635   */\n  0x18\n    /* \"#utility.yul\":1628:1631   */\n  dup4\n    /* \"#utility.yul\":1569:1636   */\n  tag_37\n  jump\t// in\ntag_59:\n    /* \"#utility.yul\":1562:1636   */\n  swap2\n  pop\n    /* \"#utility.yul\":1645:1738   */\n  tag_60\n    /* \"#utility.yul\":1734:1737   */\n  dup3\n    /* \"#utility.yul\":1645:1738   */\n  tag_38\n  jump\t// in\ntag_60:\n    /* \"#utility.yul\":1763:1765   */\n  0x20\n    /* \"#utility.yul\":1758:1761   */\n  dup3\n    /* \"#utility.yul\":1754:1766   */\n  add\n    /* \"#utility.yul\":1747:1766   */\n  swap1\n  pop\n    /* \"#utility.yul\":1406:1772   */\n  swap2\n  swap1\n  pop\n  jump\t// out\n    /* \"#utility.yul\":1778:2197   */\ntag_11:\n    /* \"#utility.yul\":1944:1948   */\n  0x00\n    /* \"#utility.yul\":1982:1984   */\n  0x20\n    /* \"#utility.yul\":1971:1980   */\n  dup3\n    /* \"#utility.yul\":1967:1985   */\n  add\n    /* \"#utility.yul\":1959:1985   */\n  swap1\n  pop\n    /* \"#utility.yul\":2031:2040   */\n  dup2\n    /* \"#utility.yul\":2025:2029   */\n  dup2\n    /* \"#utility.yul\":2021:2041   */\n  sub\n    /* \"#utility.yul\":2017:2018   */\n  0x00\n    /* \"#utility.yul\":2006:2015   */\n  dup4\n    /* \"#utility.yul\":2002:2019   */\n  add\n    /* \"#utility.yul\":1995:2042   */\n  mstore\n    /* \"#utility.yul\":2059:2190   */\n  tag_62\n    /* \"#utility.yul\":2185:2189   */\n  dup2\n    /* \"#utility.yul\":2059:2190   */\n  tag_39\n  jump\t// in\ntag_62:\n    /* \"#utility.yul\":2051:2190   */\n  swap1\n  pop\n    /* \"#utility.yul\":1778:2197   */\n  swap2\n  swap1\n  pop\n  jump\t// out\n    /* \"#utility.yul\":2203:2376   */\ntag_40:\n    /* \"#utility.yul\":2343:2368   */\n  0x43616e6e6f74207472616e7366657220746f2073656c66000000000000000000\n    /* \"#utility.yul\":2339:2340   */\n  0x00\n    /* \"#utility.yul\":2331:2337   */\n  dup3\n    /* \"#utility.yul\":2327:2341   */\n  add\n    /* \"#utility.yul\":2320:2369   */\n  mstore\n    /* \"#utility.yul\":2203:2376   */\n  pop\n  jump\t// out\n    /* \"#utility.yul\":2382:2748   */\ntag_41:\n    /* \"#utility.yul\":2524:2527   */\n  0x00\n    /* \"#utility.yul\":2545:2612   */\n  tag_65\n    /* \"#utility.yul\":2609:2611   */\n  0x17\n    /* \"#utility.yul\":2604:2607   */\n  dup4\n    /* \"#utility.yul\":2545:2612   */\n  tag_37\n  jump\t// in\ntag_65:\n    /* \"#utility.yul\":2538:2612   */\n  swap2\n  pop\n    /* \"#utility.yul\":2621:2714   */\n  tag_66\n    /* \"#utility.yul\":2710:2713   */\n  dup3\n    /* \"#utility.yul\":2621:2714   */\n  tag_40\n  jump\t// in\ntag_66:\n    /* \"#utility.yul\":2739:2741   */\n  0x20\n    /* \"#utility.yul\":2734:2737   */\n  dup3\n    /* \"#utility.yul\":2730:2742   */\n  add\n    /* \"#utility.yul\":2723:2742   */\n  swap1\n  pop\n    /* \"#utility.yul\":2382:2748   */\n  swap2\n  swap1\n  pop\n  jump\t// out\n    /* \"#utility.yul\":2754:3173   */\ntag_28:\n    /* \"#utility.yul\":2920:2924   */\n  0x00\n    /* \"#utility.yul\":2958:2960   */\n  0x20\n    /* \"#utility.yul\":2947:2956   */\n  dup3\n    /* \"#utility.yul\":2943:2961   */\n  add\n    /* \"#utility.yul\":2935:2961   */\n  swap1\n  pop\n    /* \"#utility.yul\":3007:3016   */\n  dup2\n    /* \"#utility.yul\":3001:3005   */\n  dup2\n    /* \"#utility.yul\":2997:3017   */\n  sub\n    /* \"#utility.yul\":2993:2994   */\n  0x00\n    /* \"#utility.yul\":2982:2991   */\n  dup4\n    /* \"#utility.yul\":2978:2995   */\n  add\n    /* \"#utility.yul\":2971:3018   */\n  mstore\n    /* \"#utility.yul\":3035:3166   */\n  tag_68\n    /* \"#utility.yul\":3161:3165   */\n  dup2\n    /* \"#utility.yul\":3035:3166   */\n  tag_41\n  jump\t// in\ntag_68:\n    /* \"#utility.yul\":3027:3166   */\n  swap1\n  pop\n    /* \"#utility.yul\":2754:3173   */\n  swap2\n  swap1\n  pop\n  jump\t// out\n    /* \"contracts/RockScissorPaper2.sol\":563:7317  contract RockScissorPaper is VRFConsumerBaseV2Plus, ReentrancyGuard { // Добавлено наследование ReentrancyGuard... */\ntag_24:\n  dataSize(sub_0)\n  dup1\n  dataOffset(sub_0)\n  0x00\n  codecopy\n  0x00\n  return\nstop\n\nsub_0: assembly {\n        /* \"contracts/RockScissorPaper2.sol\":563:7317  contract RockScissorPaper is VRFConsumerBaseV2Plus, ReentrancyGuard { // Добавлено наследование ReentrancyGuard... */\n      mstore(0x40, 0x80)\n      jumpi(tag_1, lt(calldatasize, 0x04))\n      shr(0xe0, calldataload(0x00))\n      dup1\n      0x82bc07e6\n      gt\n      tag_23\n      jumpi\n      dup1\n      0x9eccacf6\n      gt\n      tag_24\n      jumpi\n      dup1\n      0x9eccacf6\n      eq\n      tag_17\n      jumpi\n      dup1\n      0xa3e56fa8\n      eq\n      tag_18\n      jumpi\n      dup1\n      0xb0fb162f\n      eq\n      tag_19\n      jumpi\n      dup1\n      0xd0e30db0\n      eq\n      tag_20\n      jumpi\n      dup1\n      0xe856bb18\n      eq\n      tag_21\n      jumpi\n      dup1\n      0xf2fde38b\n      eq\n      tag_22\n      jumpi\n      jump(tag_1)\n    tag_24:\n      dup1\n      0x82bc07e6\n      eq\n      tag_12\n      jumpi\n      dup1\n      0x853828b6\n      eq\n      tag_13\n      jumpi\n      dup1\n      0x8ac00021\n      eq\n      tag_14\n      jumpi\n      dup1\n      0x8da5cb5b\n      eq\n      tag_15\n      jumpi\n      dup1\n      0x8ea98117\n      eq\n      tag_16\n      jumpi\n      jump(tag_1)\n    tag_23:\n      dup1\n      0x61728f39\n      gt\n      tag_25\n      jumpi\n      dup1\n      0x61728f39\n      eq\n      tag_7\n      jumpi\n      dup1\n      0x6540742f\n      eq\n      tag_8\n      jumpi\n      dup1\n      0x6be2c84e\n      eq\n      tag_9\n      jumpi\n      dup1\n      0x79ba5097\n      eq\n      tag_10\n      jumpi\n      dup1\n      0x7ccfd7fc\n      eq\n      tag_11\n      jumpi\n      jump(tag_1)\n    tag_25:\n      dup1\n      0x12065fe0\n      eq\n      tag_2\n      jumpi\n      dup1\n      0x1fe543e3\n      eq\n      tag_3\n      jumpi\n      dup1\n      0x24f74697\n      eq\n      tag_4\n      jumpi\n      dup1\n      0x41a26083\n      eq\n      tag_5\n      jumpi\n      dup1\n      0x45e2984a\n      eq\n      tag_6\n      jumpi\n    tag_1:\n      revert(0x00, 0x00)\n        /* \"contracts/RockScissorPaper2.sol\":7216:7315  function getBalance() external view returns (uint256) {... */\n    tag_2:\n      callvalue\n      dup1\n      iszero\n      tag_26\n      jumpi\n      revert(0x00, 0x00)\n    tag_26:\n      pop\n      tag_27\n      tag_28\n      jump\t// in\n    tag_27:\n      mload(0x40)\n      tag_29\n      swap2\n      swap1\n      tag_30\n      jump\t// in\n    tag_29:\n      mload(0x40)\n      dup1\n      swap2\n      sub\n      swap1\n      return\n        /* \"@chainlink/contracts/src/v0.8/vrf/dev/VRFConsumerBaseV2Plus.sol\":7423:7703  function rawFulfillRandomWords(uint256 requestId, uint256[] calldata randomWords) external {... */\n    tag_3:\n      callvalue\n      dup1\n      iszero\n      tag_31\n      jumpi\n      revert(0x00, 0x00)\n    tag_31:\n      pop\n      tag_32\n      0x04\n      dup1\n      calldatasize\n      sub\n      dup2\n      add\n      swap1\n      tag_33\n      swap2\n      swap1\n      tag_34\n      jump\t// in\n    tag_33:\n      tag_35\n      jump\t// in\n    tag_32:\n      stop\n        /* \"contracts/RockScissorPaper2.sol\":1107:1146  uint32 public callbackGasLimit = 200000 */\n    tag_4:\n      callvalue\n      dup1\n      iszero\n      tag_36\n      jumpi\n      revert(0x00, 0x00)\n    tag_36:\n      pop\n      tag_37\n      tag_38\n      jump\t// in\n    tag_37:\n      mload(0x40)\n      tag_39\n      swap2\n      swap1\n      tag_40\n      jump\t// in\n    tag_39:\n      mload(0x40)\n      dup1\n      swap2\n      sub\n      swap1\n      return\n        /* \"contracts/RockScissorPaper2.sol\":3542:3605  function playRock() external payable nonReentrant { _play(0); } */\n    tag_5:\n      tag_41\n      tag_42\n      jump\t// in\n    tag_41:\n      stop\n        /* \"contracts/RockScissorPaper2.sol\":3220:3486  function getRules() external pure returns (string memory) {... */\n    tag_6:\n      callvalue\n      dup1\n      iszero\n      tag_43\n      jumpi\n      revert(0x00, 0x00)\n    tag_43:\n      pop\n      tag_44\n      tag_45\n      jump\t// in\n    tag_44:\n      mload(0x40)\n      tag_46\n      swap2\n      swap1\n      tag_47\n      jump\t// in\n    tag_46:\n      mload(0x40)\n      dup1\n      swap2\n      sub\n      swap1\n      return\n        /* \"contracts/RockScissorPaper2.sol\":1009:1100  bytes32 public keyHash = 0x8596b430971ac45bdf6088665b9ad8e8630c9d5049ab54b14dff711bee7c0e26 */\n    tag_7:\n      callvalue\n      dup1\n      iszero\n      tag_48\n      jumpi\n      revert(0x00, 0x00)\n    tag_48:\n      pop\n      tag_49\n      tag_50\n      jump\t// in\n    tag_49:\n      mload(0x40)\n      tag_51\n      swap2\n      swap1\n      tag_52\n      jump\t// in\n    tag_51:\n      mload(0x40)\n      dup1\n      swap2\n      sub\n      swap1\n      return\n        /* \"contracts/RockScissorPaper2.sol\":771:819  uint256 public constant MIN_BET = 0.000001 ether */\n    tag_8:\n      callvalue\n      dup1\n      iszero\n      tag_53\n      jumpi\n      revert(0x00, 0x00)\n    tag_53:\n      pop\n      tag_54\n      tag_55\n      jump\t// in\n    tag_54:\n      mload(0x40)\n      tag_56\n      swap2\n      swap1\n      tag_30\n      jump\t// in\n    tag_56:\n      mload(0x40)\n      dup1\n      swap2\n      sub\n      swap1\n      return\n        /* \"contracts/RockScissorPaper2.sol\":3643:3710  function playScissors() external payable nonReentrant { _play(1); } */\n    tag_9:\n      tag_57\n      tag_58\n      jump\t// in\n    tag_57:\n      stop\n        /* \"@chainlink/contracts/src/v0.8/shared/access/ConfirmedOwnerWithProposal.sol\":1034:1350  function acceptOwnership() external override {... */\n    tag_10:\n      callvalue\n      dup1\n      iszero\n      tag_59\n      jumpi\n      revert(0x00, 0x00)\n    tag_59:\n      pop\n      tag_60\n      tag_61\n      jump\t// in\n    tag_60:\n      stop\n        /* \"contracts/RockScissorPaper2.sol\":1196:1222  uint32 public numWords = 1 */\n    tag_11:\n      callvalue\n      dup1\n      iszero\n      tag_62\n      jumpi\n      revert(0x00, 0x00)\n    tag_62:\n      pop\n      tag_63\n      tag_64\n      jump\t// in\n    tag_63:\n      mload(0x40)\n      tag_65\n      swap2\n      swap1\n      tag_40\n      jump\t// in\n    tag_65:\n      mload(0x40)\n      dup1\n      swap2\n      sub\n      swap1\n      return\n        /* \"contracts/RockScissorPaper2.sol\":2497:2522  LastGame public lastRound */\n    tag_12:\n      callvalue\n      dup1\n      iszero\n      tag_66\n      jumpi\n      revert(0x00, 0x00)\n    tag_66:\n      pop\n      tag_67\n      tag_68\n      jump\t// in\n    tag_67:\n      mload(0x40)\n      tag_69\n      swap6\n      swap5\n      swap4\n      swap3\n      swap2\n      swap1\n      tag_70\n      jump\t// in\n    tag_69:\n      mload(0x40)\n      dup1\n      swap2\n      sub\n      swap1\n      return\n        /* \"contracts/RockScissorPaper2.sol\":6744:7152  function withdrawAll() external onlyOwner nonReentrant { // Добавлен nonReentrant... */\n    tag_13:\n      callvalue\n      dup1\n      iszero\n      tag_71\n      jumpi\n      revert(0x00, 0x00)\n    tag_71:\n      pop\n      tag_72\n      tag_73\n      jump\t// in\n    tag_72:\n      stop\n        /* \"contracts/RockScissorPaper2.sol\":891:922  uint256 public s_subscriptionId */\n    tag_14:\n      callvalue\n      dup1\n      iszero\n      tag_74\n      jumpi\n      revert(0x00, 0x00)\n    tag_74:\n      pop\n      tag_75\n      tag_76\n      jump\t// in\n    tag_75:\n      mload(0x40)\n      tag_77\n      swap2\n      swap1\n      tag_30\n      jump\t// in\n    tag_77:\n      mload(0x40)\n      dup1\n      swap2\n      sub\n      swap1\n      return\n        /* \"@chainlink/contracts/src/v0.8/shared/access/ConfirmedOwnerWithProposal.sol\":1390:1471  function owner() public view override returns (address) {... */\n    tag_15:\n      callvalue\n      dup1\n      iszero\n      tag_78\n      jumpi\n      revert(0x00, 0x00)\n    tag_78:\n      pop\n      tag_79\n      tag_80\n      jump\t// in\n    tag_79:\n      mload(0x40)\n      tag_81\n      swap2\n      swap1\n      tag_82\n      jump\t// in\n    tag_81:\n      mload(0x40)\n      dup1\n      swap2\n      sub\n      swap1\n      return\n        /* \"@chainlink/contracts/src/v0.8/vrf/dev/VRFConsumerBaseV2Plus.sol\":7765:8049  function setCoordinator(... */\n    tag_16:\n      callvalue\n      dup1\n      iszero\n      tag_83\n      jumpi\n      revert(0x00, 0x00)\n    tag_83:\n      pop\n      tag_84\n      0x04\n      dup1\n      calldatasize\n      sub\n      dup2\n      add\n      swap1\n      tag_85\n      swap2\n      swap1\n      tag_86\n      jump\t// in\n    tag_85:\n      tag_87\n      jump\t// in\n    tag_84:\n      stop\n        /* \"@chainlink/contracts/src/v0.8/vrf/dev/VRFConsumerBaseV2Plus.sol\":6003:6048  IVRFCoordinatorV2Plus public s_vrfCoordinator */\n    tag_17:\n      callvalue\n      dup1\n      iszero\n      tag_88\n      jumpi\n      revert(0x00, 0x00)\n    tag_88:\n      pop\n      tag_89\n      tag_90\n      jump\t// in\n    tag_89:\n      mload(0x40)\n      tag_91\n      swap2\n      swap1\n      tag_92\n      jump\t// in\n    tag_91:\n      mload(0x40)\n      dup1\n      swap2\n      sub\n      swap1\n      return\n        /* \"contracts/RockScissorPaper2.sol\":928:1002  address public vrfCoordinator = 0xDA3b641D438362C440Ac5458c57e00a712b66700 */\n    tag_18:\n      callvalue\n      dup1\n      iszero\n      tag_93\n      jumpi\n      revert(0x00, 0x00)\n    tag_93:\n      pop\n      tag_94\n      tag_95\n      jump\t// in\n    tag_94:\n      mload(0x40)\n      tag_96\n      swap2\n      swap1\n      tag_82\n      jump\t// in\n    tag_96:\n      mload(0x40)\n      dup1\n      swap2\n      sub\n      swap1\n      return\n        /* \"contracts/RockScissorPaper2.sol\":1152:1190  uint16 public requestConfirmations = 3 */\n    tag_19:\n      callvalue\n      dup1\n      iszero\n      tag_97\n      jumpi\n      revert(0x00, 0x00)\n    tag_97:\n      pop\n      tag_98\n      tag_99\n      jump\t// in\n    tag_98:\n      mload(0x40)\n      tag_100\n      swap2\n      swap1\n      tag_101\n      jump\t// in\n    tag_100:\n      mload(0x40)\n      dup1\n      swap2\n      sub\n      swap1\n      return\n        /* \"contracts/RockScissorPaper2.sol\":6564:6602  function deposit() external payable {} */\n    tag_20:\n      tag_102\n      tag_103\n      jump\t// in\n    tag_102:\n      stop\n        /* \"contracts/RockScissorPaper2.sol\":3748:3812  function playPaper() external payable nonReentrant { _play(2); } */\n    tag_21:\n      tag_104\n      tag_105\n      jump\t// in\n    tag_104:\n      stop\n        /* \"@chainlink/contracts/src/v0.8/shared/access/ConfirmedOwnerWithProposal.sol\":847:953  function transferOwnership(... */\n    tag_22:\n      callvalue\n      dup1\n      iszero\n      tag_106\n      jumpi\n      revert(0x00, 0x00)\n    tag_106:\n      pop\n      tag_107\n      0x04\n      dup1\n      calldatasize\n      sub\n      dup2\n      add\n      swap1\n      tag_108\n      swap2\n      swap1\n      tag_86\n      jump\t// in\n    tag_108:\n      tag_109\n      jump\t// in\n    tag_107:\n      stop\n        /* \"contracts/RockScissorPaper2.sol\":7216:7315  function getBalance() external view returns (uint256) {... */\n    tag_28:\n        /* \"contracts/RockScissorPaper2.sol\":7261:7268  uint256 */\n      0x00\n        /* \"contracts/RockScissorPaper2.sol\":7287:7308  address(this).balance */\n      selfbalance\n        /* \"contracts/RockScissorPaper2.sol\":7280:7308  return address(this).balance */\n      swap1\n      pop\n        /* \"contracts/RockScissorPaper2.sol\":7216:7315  function getBalance() external view returns (uint256) {... */\n      swap1\n      jump\t// out\n        /* \"@chainlink/contracts/src/v0.8/vrf/dev/VRFConsumerBaseV2Plus.sol\":7423:7703  function rawFulfillRandomWords(uint256 requestId, uint256[] calldata randomWords) external {... */\n    tag_35:\n        /* \"@chainlink/contracts/src/v0.8/vrf/dev/VRFConsumerBaseV2Plus.sol\":7546:7562  s_vrfCoordinator */\n      0x02\n      0x00\n      swap1\n      sload\n      swap1\n      0x0100\n      exp\n      swap1\n      div\n      0xffffffffffffffffffffffffffffffffffffffff\n      and\n        /* \"@chainlink/contracts/src/v0.8/vrf/dev/VRFConsumerBaseV2Plus.sol\":7524:7563  msg.sender != address(s_vrfCoordinator) */\n      0xffffffffffffffffffffffffffffffffffffffff\n      and\n        /* \"@chainlink/contracts/src/v0.8/vrf/dev/VRFConsumerBaseV2Plus.sol\":7524:7534  msg.sender */\n      caller\n        /* \"@chainlink/contracts/src/v0.8/vrf/dev/VRFConsumerBaseV2Plus.sol\":7524:7563  msg.sender != address(s_vrfCoordinator) */\n      0xffffffffffffffffffffffffffffffffffffffff\n      and\n      eq\n        /* \"@chainlink/contracts/src/v0.8/vrf/dev/VRFConsumerBaseV2Plus.sol\":7520:7651  if (msg.sender != address(s_vrfCoordinator)) {... */\n      tag_112\n      jumpi\n        /* \"@chainlink/contracts/src/v0.8/vrf/dev/VRFConsumerBaseV2Plus.sol\":7606:7616  msg.sender */\n      caller\n        /* \"@chainlink/contracts/src/v0.8/vrf/dev/VRFConsumerBaseV2Plus.sol\":7626:7642  s_vrfCoordinator */\n      0x02\n      0x00\n      swap1\n      sload\n      swap1\n      0x0100\n      exp\n      swap1\n      div\n      0xffffffffffffffffffffffffffffffffffffffff\n      and\n        /* \"@chainlink/contracts/src/v0.8/vrf/dev/VRFConsumerBaseV2Plus.sol\":7580:7644  OnlyCoordinatorCanFulfill(msg.sender, address(s_vrfCoordinator)) */\n      mload(0x40)\n      0x1cf993f400000000000000000000000000000000000000000000000000000000\n      dup2\n      mstore\n      0x04\n      add\n      tag_113\n      swap3\n      swap2\n      swap1\n      tag_114\n      jump\t// in\n    tag_113:\n      mload(0x40)\n      dup1\n      swap2\n      sub\n      swap1\n      revert\n        /* \"@chainlink/contracts/src/v0.8/vrf/dev/VRFConsumerBaseV2Plus.sol\":7520:7651  if (msg.sender != address(s_vrfCoordinator)) {... */\n    tag_112:\n        /* \"@chainlink/contracts/src/v0.8/vrf/dev/VRFConsumerBaseV2Plus.sol\":7656:7698  fulfillRandomWords(requestId, randomWords) */\n      tag_115\n        /* \"@chainlink/contracts/src/v0.8/vrf/dev/VRFConsumerBaseV2Plus.sol\":7675:7684  requestId */\n      dup4\n        /* \"@chainlink/contracts/src/v0.8/vrf/dev/VRFConsumerBaseV2Plus.sol\":7686:7697  randomWords */\n      dup4\n      dup4\n        /* \"@chainlink/contracts/src/v0.8/vrf/dev/VRFConsumerBaseV2Plus.sol\":7656:7674  fulfillRandomWords */\n      tag_116\n        /* \"@chainlink/contracts/src/v0.8/vrf/dev/VRFConsumerBaseV2Plus.sol\":7656:7698  fulfillRandomWords(requestId, randomWords) */\n      jump\t// in\n    tag_115:\n        /* \"@chainlink/contracts/src/v0.8/vrf/dev/VRFConsumerBaseV2Plus.sol\":7423:7703  function rawFulfillRandomWords(uint256 requestId, uint256[] calldata randomWords) external {... */\n      pop\n      pop\n      pop\n      jump\t// out\n        /* \"contracts/RockScissorPaper2.sol\":1107:1146  uint32 public callbackGasLimit = 200000 */\n    tag_38:\n      0x06\n      0x00\n      swap1\n      sload\n      swap1\n      0x0100\n      exp\n      swap1\n      div\n      0xffffffff\n      and\n      dup2\n      jump\t// out\n        /* \"contracts/RockScissorPaper2.sol\":3542:3605  function playRock() external payable nonReentrant { _play(0); } */\n    tag_42:\n        /* \"@openzeppelin/contracts/utils/ReentrancyGuard.sol\":3023:3044  _nonReentrantBefore() */\n      tag_118\n        /* \"@openzeppelin/contracts/utils/ReentrancyGuard.sol\":3023:3042  _nonReentrantBefore */\n      tag_119\n        /* \"@openzeppelin/contracts/utils/ReentrancyGuard.sol\":3023:3044  _nonReentrantBefore() */\n      jump\t// in\n    tag_118:\n        /* \"contracts/RockScissorPaper2.sol\":3594:3602  _play(0) */\n      tag_121\n        /* \"contracts/RockScissorPaper2.sol\":3600:3601  0 */\n      0x00\n        /* \"contracts/RockScissorPaper2.sol\":3594:3599  _play */\n      tag_122\n        /* \"contracts/RockScissorPaper2.sol\":3594:3602  _play(0) */\n      jump\t// in\n    tag_121:\n        /* \"@openzeppelin/contracts/utils/ReentrancyGuard.sol\":3065:3085  _nonReentrantAfter() */\n      tag_123\n        /* \"@openzeppelin/contracts/utils/ReentrancyGuard.sol\":3065:3083  _nonReentrantAfter */\n      tag_124\n        /* \"@openzeppelin/contracts/utils/ReentrancyGuard.sol\":3065:3085  _nonReentrantAfter() */\n      jump\t// in\n    tag_123:\n        /* \"contracts/RockScissorPaper2.sol\":3542:3605  function playRock() external payable nonReentrant { _play(0); } */\n      jump\t// out\n        /* \"contracts/RockScissorPaper2.sol\":3220:3486  function getRules() external pure returns (string memory) {... */\n    tag_45:\n        /* \"contracts/RockScissorPaper2.sol\":3263:3276  string memory */\n      0x60\n        /* \"contracts/RockScissorPaper2.sol\":3288:3479  return unicode\"Правила: 0-Камень, 1-Ножницы, 2-Бумага. Выигрыш: x2 от ставки. Ничья: возврат. Рандом через Chainlink VRF v2.5.\" */\n      mload(0x40)\n      dup1\n      0xe0\n      add\n      0x40\n      mstore\n      dup1\n      0xaf\n      dup2\n      mstore\n      0x20\n      add\n      data_8aca7b3ace7bf64daecd7c2059337bd69dca9811cf7f1bb9ec9aef9b01c4e752\n      0xaf\n      swap2\n      codecopy\n      swap1\n      pop\n        /* \"contracts/RockScissorPaper2.sol\":3220:3486  function getRules() external pure returns (string memory) {... */\n      swap1\n      jump\t// out\n        /* \"contracts/RockScissorPaper2.sol\":1009:1100  bytes32 public keyHash = 0x8596b430971ac45bdf6088665b9ad8e8630c9d5049ab54b14dff711bee7c0e26 */\n    tag_50:\n      sload(0x05)\n      dup2\n      jump\t// out\n        /* \"contracts/RockScissorPaper2.sol\":771:819  uint256 public constant MIN_BET = 0.000001 ether */\n    tag_55:\n        /* \"contracts/RockScissorPaper2.sol\":805:819  0.000001 ether */\n      0xe8d4a51000\n        /* \"contracts/RockScissorPaper2.sol\":771:819  uint256 public constant MIN_BET = 0.000001 ether */\n      dup2\n      jump\t// out\n        /* \"contracts/RockScissorPaper2.sol\":3643:3710  function playScissors() external payable nonReentrant { _play(1); } */\n    tag_58:\n        /* \"@openzeppelin/contracts/utils/ReentrancyGuard.sol\":3023:3044  _nonReentrantBefore() */\n      tag_127\n        /* \"@openzeppelin/contracts/utils/ReentrancyGuard.sol\":3023:3042  _nonReentrantBefore */\n      tag_119\n        /* \"@openzeppelin/contracts/utils/ReentrancyGuard.sol\":3023:3044  _nonReentrantBefore() */\n      jump\t// in\n    tag_127:\n        /* \"contracts/RockScissorPaper2.sol\":3699:3707  _play(1) */\n      tag_129\n        /* \"contracts/RockScissorPaper2.sol\":3705:3706  1 */\n      0x01\n        /* \"contracts/RockScissorPaper2.sol\":3699:3704  _play */\n      tag_122\n        /* \"contracts/RockScissorPaper2.sol\":3699:3707  _play(1) */\n      jump\t// in\n    tag_129:\n        /* \"@openzeppelin/contracts/utils/ReentrancyGuard.sol\":3065:3085  _nonReentrantAfter() */\n      tag_130\n        /* \"@openzeppelin/contracts/utils/ReentrancyGuard.sol\":3065:3083  _nonReentrantAfter */\n      tag_124\n        /* \"@openzeppelin/contracts/utils/ReentrancyGuard.sol\":3065:3085  _nonReentrantAfter() */\n      jump\t// in\n    tag_130:\n        /* \"contracts/RockScissorPaper2.sol\":3643:3710  function playScissors() external payable nonReentrant { _play(1); } */\n      jump\t// out\n        /* \"@chainlink/contracts/src/v0.8/shared/access/ConfirmedOwnerWithProposal.sol\":1034:1350  function acceptOwnership() external override {... */\n    tag_61:\n        /* \"@chainlink/contracts/src/v0.8/shared/access/ConfirmedOwnerWithProposal.sol\":1158:1172  s_pendingOwner */\n      0x01\n      0x00\n      swap1\n      sload\n      swap1\n      0x0100\n      exp\n      swap1\n      div\n      0xffffffffffffffffffffffffffffffffffffffff\n      and\n        /* \"@chainlink/contracts/src/v0.8/shared/access/ConfirmedOwnerWithProposal.sol\":1144:1172  msg.sender == s_pendingOwner */\n      0xffffffffffffffffffffffffffffffffffffffff\n      and\n        /* \"@chainlink/contracts/src/v0.8/shared/access/ConfirmedOwnerWithProposal.sol\":1144:1154  msg.sender */\n      caller\n        /* \"@chainlink/contracts/src/v0.8/shared/access/ConfirmedOwnerWithProposal.sol\":1144:1172  msg.sender == s_pendingOwner */\n      0xffffffffffffffffffffffffffffffffffffffff\n      and\n      eq\n        /* \"@chainlink/contracts/src/v0.8/shared/access/ConfirmedOwnerWithProposal.sol\":1136:1199  require(msg.sender == s_pendingOwner, \"Must be proposed owner\") */\n      tag_132\n      jumpi\n      mload(0x40)\n      0x08c379a000000000000000000000000000000000000000000000000000000000\n      dup2\n      mstore\n      0x04\n      add\n      tag_133\n      swap1\n      tag_134\n      jump\t// in\n    tag_133:\n      mload(0x40)\n      dup1\n      swap2\n      sub\n      swap1\n      revert\n    tag_132:\n        /* \"@chainlink/contracts/src/v0.8/shared/access/ConfirmedOwnerWithProposal.sol\":1206:1222  address oldOwner */\n      0x00\n        /* \"@chainlink/contracts/src/v0.8/shared/access/ConfirmedOwnerWithProposal.sol\":1225:1232  s_owner */\n      0x00\n      0x00\n      swap1\n      sload\n      swap1\n      0x0100\n      exp\n      swap1\n      div\n      0xffffffffffffffffffffffffffffffffffffffff\n      and\n        /* \"@chainlink/contracts/src/v0.8/shared/access/ConfirmedOwnerWithProposal.sol\":1206:1232  address oldOwner = s_owner */\n      swap1\n      pop\n        /* \"@chainlink/contracts/src/v0.8/shared/access/ConfirmedOwnerWithProposal.sol\":1248:1258  msg.sender */\n      caller\n        /* \"@chainlink/contracts/src/v0.8/shared/access/ConfirmedOwnerWithProposal.sol\":1238:1245  s_owner */\n      0x00\n      0x00\n        /* \"@chainlink/contracts/src/v0.8/shared/access/ConfirmedOwnerWithProposal.sol\":1238:1258  s_owner = msg.sender */\n      0x0100\n      exp\n      dup2\n      sload\n      dup2\n      0xffffffffffffffffffffffffffffffffffffffff\n      mul\n      not\n      and\n      swap1\n      dup4\n      0xffffffffffffffffffffffffffffffffffffffff\n      and\n      mul\n      or\n      swap1\n      sstore\n      pop\n        /* \"@chainlink/contracts/src/v0.8/shared/access/ConfirmedOwnerWithProposal.sol\":1289:1290  0 */\n      0x00\n        /* \"@chainlink/contracts/src/v0.8/shared/access/ConfirmedOwnerWithProposal.sol\":1264:1278  s_pendingOwner */\n      0x01\n      0x00\n        /* \"@chainlink/contracts/src/v0.8/shared/access/ConfirmedOwnerWithProposal.sol\":1264:1291  s_pendingOwner = address(0) */\n      0x0100\n      exp\n      dup2\n      sload\n      dup2\n      0xffffffffffffffffffffffffffffffffffffffff\n      mul\n      not\n      and\n      swap1\n      dup4\n      0xffffffffffffffffffffffffffffffffffffffff\n      and\n      mul\n      or\n      swap1\n      sstore\n      pop\n        /* \"@chainlink/contracts/src/v0.8/shared/access/ConfirmedOwnerWithProposal.sol\":1334:1344  msg.sender */\n      caller\n        /* \"@chainlink/contracts/src/v0.8/shared/access/ConfirmedOwnerWithProposal.sol\":1303:1345  OwnershipTransferred(oldOwner, msg.sender) */\n      0xffffffffffffffffffffffffffffffffffffffff\n      and\n        /* \"@chainlink/contracts/src/v0.8/shared/access/ConfirmedOwnerWithProposal.sol\":1324:1332  oldOwner */\n      dup2\n        /* \"@chainlink/contracts/src/v0.8/shared/access/ConfirmedOwnerWithProposal.sol\":1303:1345  OwnershipTransferred(oldOwner, msg.sender) */\n      0xffffffffffffffffffffffffffffffffffffffff\n      and\n      0x8be0079c531659141344cd1fd0a4f28419497f9722a3daafe3b4186f6b6457e0\n      mload(0x40)\n      mload(0x40)\n      dup1\n      swap2\n      sub\n      swap1\n      log3\n        /* \"@chainlink/contracts/src/v0.8/shared/access/ConfirmedOwnerWithProposal.sol\":1079:1350  {... */\n      pop\n        /* \"@chainlink/contracts/src/v0.8/shared/access/ConfirmedOwnerWithProposal.sol\":1034:1350  function acceptOwnership() external override {... */\n      jump\t// out\n        /* \"contracts/RockScissorPaper2.sol\":1196:1222  uint32 public numWords = 1 */\n    tag_64:\n      0x06\n      dup1\n      sload\n      swap1\n      0x0100\n      exp\n      swap1\n      div\n      0xffffffff\n      and\n      dup2\n      jump\t// out\n        /* \"contracts/RockScissorPaper2.sol\":2497:2522  LastGame public lastRound */\n    tag_68:\n      0x08\n      dup1\n      0x00\n      add\n      0x00\n      swap1\n      sload\n      swap1\n      0x0100\n      exp\n      swap1\n      div\n      0xffffffffffffffffffffffffffffffffffffffff\n      and\n      swap1\n      dup1\n      0x00\n      add\n      0x14\n      swap1\n      sload\n      swap1\n      0x0100\n      exp\n      swap1\n      div\n      0xff\n      and\n      swap1\n      dup1\n      0x00\n      add\n      0x15\n      swap1\n      sload\n      swap1\n      0x0100\n      exp\n      swap1\n      div\n      0xff\n      and\n      swap1\n      dup1\n      0x01\n      add\n      dup1\n      sload\n      tag_135\n      swap1\n      tag_136\n      jump\t// in\n    tag_135:\n      dup1\n      0x1f\n      add\n      0x20\n      dup1\n      swap2\n      div\n      mul\n      0x20\n      add\n      mload(0x40)\n      swap1\n      dup2\n      add\n      0x40\n      mstore\n      dup1\n      swap3\n      swap2\n      swap1\n      dup2\n      dup2\n      mstore\n      0x20\n      add\n      dup3\n      dup1\n      sload\n      tag_137\n      swap1\n      tag_136\n      jump\t// in\n    tag_137:\n      dup1\n      iszero\n      tag_138\n      jumpi\n      dup1\n      0x1f\n      lt\n      tag_139\n      jumpi\n      0x0100\n      dup1\n      dup4\n      sload\n      div\n      mul\n      dup4\n      mstore\n      swap2\n      0x20\n      add\n      swap2\n      jump(tag_138)\n    tag_139:\n      dup3\n      add\n      swap2\n      swap1\n      0x00\n      mstore\n      keccak256(0x00, 0x20)\n      swap1\n    tag_140:\n      dup2\n      sload\n      dup2\n      mstore\n      swap1\n      0x01\n      add\n      swap1\n      0x20\n      add\n      dup1\n      dup4\n      gt\n      tag_140\n      jumpi\n      dup3\n      swap1\n      sub\n      0x1f\n      and\n      dup3\n      add\n      swap2\n    tag_138:\n      pop\n      pop\n      pop\n      pop\n      pop\n      swap1\n      dup1\n      0x02\n      add\n      sload\n      swap1\n      pop\n      dup6\n      jump\t// out\n        /* \"contracts/RockScissorPaper2.sol\":6744:7152  function withdrawAll() external onlyOwner nonReentrant { // Добавлен nonReentrant... */\n    tag_73:\n        /* \"@chainlink/contracts/src/v0.8/shared/access/ConfirmedOwnerWithProposal.sol\":2091:2111  _validateOwnership() */\n      tag_142\n        /* \"@chainlink/contracts/src/v0.8/shared/access/ConfirmedOwnerWithProposal.sol\":2091:2109  _validateOwnership */\n      tag_143\n        /* \"@chainlink/contracts/src/v0.8/shared/access/ConfirmedOwnerWithProposal.sol\":2091:2111  _validateOwnership() */\n      jump\t// in\n    tag_142:\n        /* \"@openzeppelin/contracts/utils/ReentrancyGuard.sol\":3023:3044  _nonReentrantBefore() */\n      tag_145\n        /* \"@openzeppelin/contracts/utils/ReentrancyGuard.sol\":3023:3042  _nonReentrantBefore */\n      tag_119\n        /* \"@openzeppelin/contracts/utils/ReentrancyGuard.sol\":3023:3044  _nonReentrantBefore() */\n      jump\t// in\n    tag_145:\n        /* \"contracts/RockScissorPaper2.sol\":6842:6856  uint256 amount */\n      0x00\n        /* \"contracts/RockScissorPaper2.sol\":6859:6880  address(this).balance */\n      selfbalance\n        /* \"contracts/RockScissorPaper2.sol\":6842:6880  uint256 amount = address(this).balance */\n      swap1\n      pop\n        /* \"contracts/RockScissorPaper2.sol\":6952:6964  bool success */\n      0x00\n        /* \"contracts/RockScissorPaper2.sol\":6978:6988  msg.sender */\n      caller\n        /* \"contracts/RockScissorPaper2.sol\":6970:6994  payable(msg.sender).call */\n      0xffffffffffffffffffffffffffffffffffffffff\n      and\n        /* \"contracts/RockScissorPaper2.sol\":7002:7008  amount */\n      dup3\n        /* \"contracts/RockScissorPaper2.sol\":6970:7013  payable(msg.sender).call{value: amount}(\"\") */\n      mload(0x40)\n      tag_147\n      swap1\n      tag_148\n      jump\t// in\n    tag_147:\n      0x00\n      mload(0x40)\n      dup1\n      dup4\n      sub\n      dup2\n      dup6\n      dup8\n      gas\n      call\n      swap3\n      pop\n      pop\n      pop\n      returndatasize\n      dup1\n      0x00\n      dup2\n      eq\n      tag_151\n      jumpi\n      mload(0x40)\n      swap2\n      pop\n      and(add(returndatasize, 0x3f), not(0x1f))\n      dup3\n      add\n      0x40\n      mstore\n      returndatasize\n      dup3\n      mstore\n      returndatasize\n      0x00\n      0x20\n      dup5\n      add\n      returndatacopy\n      jump(tag_150)\n    tag_151:\n      0x60\n      swap2\n      pop\n    tag_150:\n      pop\n        /* \"contracts/RockScissorPaper2.sol\":6951:7013  (bool success, ) = payable(msg.sender).call{value: amount}(\"\") */\n      pop\n      swap1\n      pop\n        /* \"contracts/RockScissorPaper2.sol\":7062:7069  success */\n      dup1\n        /* \"contracts/RockScissorPaper2.sol\":7054:7091  require(success, \"Withdrawal failed\") */\n      tag_152\n      jumpi\n      mload(0x40)\n      0x08c379a000000000000000000000000000000000000000000000000000000000\n      dup2\n      mstore\n      0x04\n      add\n      tag_153\n      swap1\n      tag_154\n      jump\t// in\n    tag_153:\n      mload(0x40)\n      dup1\n      swap2\n      sub\n      swap1\n      revert\n    tag_152:\n        /* \"contracts/RockScissorPaper2.sol\":6799:7152  { // Добавлен nonReentrant... */\n      pop\n      pop\n        /* \"@openzeppelin/contracts/utils/ReentrancyGuard.sol\":3065:3085  _nonReentrantAfter() */\n      tag_155\n        /* \"@openzeppelin/contracts/utils/ReentrancyGuard.sol\":3065:3083  _nonReentrantAfter */\n      tag_124\n        /* \"@openzeppelin/contracts/utils/ReentrancyGuard.sol\":3065:3085  _nonReentrantAfter() */\n      jump\t// in\n    tag_155:\n        /* \"contracts/RockScissorPaper2.sol\":6744:7152  function withdrawAll() external onlyOwner nonReentrant { // Добавлен nonReentrant... */\n      jump\t// out\n        /* \"contracts/RockScissorPaper2.sol\":891:922  uint256 public s_subscriptionId */\n    tag_76:\n      sload(0x03)\n      dup2\n      jump\t// out\n        /* \"@chainlink/contracts/src/v0.8/shared/access/ConfirmedOwnerWithProposal.sol\":1390:1471  function owner() public view override returns (address) {... */\n    tag_80:\n        /* \"@chainlink/contracts/src/v0.8/shared/access/ConfirmedOwnerWithProposal.sol\":1437:1444  address */\n      0x00\n        /* \"@chainlink/contracts/src/v0.8/shared/access/ConfirmedOwnerWithProposal.sol\":1459:1466  s_owner */\n      0x00\n      0x00\n      swap1\n      sload\n      swap1\n      0x0100\n      exp\n      swap1\n      div\n      0xffffffffffffffffffffffffffffffffffffffff\n      and\n        /* \"@chainlink/contracts/src/v0.8/shared/access/ConfirmedOwnerWithProposal.sol\":1452:1466  return s_owner */\n      swap1\n      pop\n        /* \"@chainlink/contracts/src/v0.8/shared/access/ConfirmedOwnerWithProposal.sol\":1390:1471  function owner() public view override returns (address) {... */\n      swap1\n      jump\t// out\n        /* \"@chainlink/contracts/src/v0.8/vrf/dev/VRFConsumerBaseV2Plus.sol\":7765:8049  function setCoordinator(... */\n    tag_87:\n        /* \"@chainlink/contracts/src/v0.8/vrf/dev/VRFConsumerBaseV2Plus.sol\":8111:8118  owner() */\n      tag_158\n        /* \"@chainlink/contracts/src/v0.8/vrf/dev/VRFConsumerBaseV2Plus.sol\":8111:8116  owner */\n      tag_80\n        /* \"@chainlink/contracts/src/v0.8/vrf/dev/VRFConsumerBaseV2Plus.sol\":8111:8118  owner() */\n      jump\t// in\n    tag_158:\n        /* \"@chainlink/contracts/src/v0.8/vrf/dev/VRFConsumerBaseV2Plus.sol\":8097:8118  msg.sender != owner() */\n      0xffffffffffffffffffffffffffffffffffffffff\n      and\n        /* \"@chainlink/contracts/src/v0.8/vrf/dev/VRFConsumerBaseV2Plus.sol\":8097:8107  msg.sender */\n      caller\n        /* \"@chainlink/contracts/src/v0.8/vrf/dev/VRFConsumerBaseV2Plus.sol\":8097:8118  msg.sender != owner() */\n      0xffffffffffffffffffffffffffffffffffffffff\n      and\n      eq\n      iszero\n        /* \"@chainlink/contracts/src/v0.8/vrf/dev/VRFConsumerBaseV2Plus.sol\":8097:8161  msg.sender != owner() && msg.sender != address(s_vrfCoordinator) */\n      dup1\n      iszero\n      tag_159\n      jumpi\n      pop\n        /* \"@chainlink/contracts/src/v0.8/vrf/dev/VRFConsumerBaseV2Plus.sol\":8144:8160  s_vrfCoordinator */\n      0x02\n      0x00\n      swap1\n      sload\n      swap1\n      0x0100\n      exp\n      swap1\n      div\n      0xffffffffffffffffffffffffffffffffffffffff\n      and\n        /* \"@chainlink/contracts/src/v0.8/vrf/dev/VRFConsumerBaseV2Plus.sol\":8122:8161  msg.sender != address(s_vrfCoordinator) */\n      0xffffffffffffffffffffffffffffffffffffffff\n      and\n        /* \"@chainlink/contracts/src/v0.8/vrf/dev/VRFConsumerBaseV2Plus.sol\":8122:8132  msg.sender */\n      caller\n        /* \"@chainlink/contracts/src/v0.8/vrf/dev/VRFConsumerBaseV2Plus.sol\":8122:8161  msg.sender != address(s_vrfCoordinator) */\n      0xffffffffffffffffffffffffffffffffffffffff\n      and\n      eq\n      iszero\n        /* \"@chainlink/contracts/src/v0.8/vrf/dev/VRFConsumerBaseV2Plus.sol\":8097:8161  msg.sender != owner() && msg.sender != address(s_vrfCoordinator) */\n    tag_159:\n        /* \"@chainlink/contracts/src/v0.8/vrf/dev/VRFConsumerBaseV2Plus.sol\":8093:8255  if (msg.sender != owner() && msg.sender != address(s_vrfCoordinator)) {... */\n      iszero\n      tag_160\n      jumpi\n        /* \"@chainlink/contracts/src/v0.8/vrf/dev/VRFConsumerBaseV2Plus.sol\":8201:8211  msg.sender */\n      caller\n        /* \"@chainlink/contracts/src/v0.8/vrf/dev/VRFConsumerBaseV2Plus.sol\":8213:8220  owner() */\n      tag_161\n        /* \"@chainlink/contracts/src/v0.8/vrf/dev/VRFConsumerBaseV2Plus.sol\":8213:8218  owner */\n      tag_80\n        /* \"@chainlink/contracts/src/v0.8/vrf/dev/VRFConsumerBaseV2Plus.sol\":8213:8220  owner() */\n      jump\t// in\n    tag_161:\n        /* \"@chainlink/contracts/src/v0.8/vrf/dev/VRFConsumerBaseV2Plus.sol\":8230:8246  s_vrfCoordinator */\n      0x02\n      0x00\n      swap1\n      sload\n      swap1\n      0x0100\n      exp\n      swap1\n      div\n      0xffffffffffffffffffffffffffffffffffffffff\n      and\n        /* \"@chainlink/contracts/src/v0.8/vrf/dev/VRFConsumerBaseV2Plus.sol\":8178:8248  OnlyOwnerOrCoordinator(msg.sender, owner(), address(s_vrfCoordinator)) */\n      mload(0x40)\n      0x061db9c100000000000000000000000000000000000000000000000000000000\n      dup2\n      mstore\n      0x04\n      add\n      tag_162\n      swap4\n      swap3\n      swap2\n      swap1\n      tag_163\n      jump\t// in\n    tag_162:\n      mload(0x40)\n      dup1\n      swap2\n      sub\n      swap1\n      revert\n        /* \"@chainlink/contracts/src/v0.8/vrf/dev/VRFConsumerBaseV2Plus.sol\":8093:8255  if (msg.sender != owner() && msg.sender != address(s_vrfCoordinator)) {... */\n    tag_160:\n        /* \"@chainlink/contracts/src/v0.8/vrf/dev/VRFConsumerBaseV2Plus.sol\":7900:7901  0 */\n      0x00\n        /* \"@chainlink/contracts/src/v0.8/vrf/dev/VRFConsumerBaseV2Plus.sol\":7873:7902  _vrfCoordinator == address(0) */\n      0xffffffffffffffffffffffffffffffffffffffff\n      and\n        /* \"@chainlink/contracts/src/v0.8/vrf/dev/VRFConsumerBaseV2Plus.sol\":7873:7888  _vrfCoordinator */\n      dup2\n        /* \"@chainlink/contracts/src/v0.8/vrf/dev/VRFConsumerBaseV2Plus.sol\":7873:7902  _vrfCoordinator == address(0) */\n      0xffffffffffffffffffffffffffffffffffffffff\n      and\n      sub\n        /* \"@chainlink/contracts/src/v0.8/vrf/dev/VRFConsumerBaseV2Plus.sol\":7869:7939  if (_vrfCoordinator == address(0)) {... */\n      tag_165\n      jumpi\n        /* \"@chainlink/contracts/src/v0.8/vrf/dev/VRFConsumerBaseV2Plus.sol\":7919:7932  ZeroAddress() */\n      mload(0x40)\n      0xd92e233d00000000000000000000000000000000000000000000000000000000\n      dup2\n      mstore\n      0x04\n      add\n      mload(0x40)\n      dup1\n      swap2\n      sub\n      swap1\n      revert\n        /* \"@chainlink/contracts/src/v0.8/vrf/dev/VRFConsumerBaseV2Plus.sol\":7869:7939  if (_vrfCoordinator == address(0)) {... */\n    tag_165:\n        /* \"@chainlink/contracts/src/v0.8/vrf/dev/VRFConsumerBaseV2Plus.sol\":7985:8000  _vrfCoordinator */\n      dup1\n        /* \"@chainlink/contracts/src/v0.8/vrf/dev/VRFConsumerBaseV2Plus.sol\":7944:7960  s_vrfCoordinator */\n      0x02\n      0x00\n        /* \"@chainlink/contracts/src/v0.8/vrf/dev/VRFConsumerBaseV2Plus.sol\":7944:8001  s_vrfCoordinator = IVRFCoordinatorV2Plus(_vrfCoordinator) */\n      0x0100\n      exp\n      dup2\n      sload\n      dup2\n      0xffffffffffffffffffffffffffffffffffffffff\n      mul\n      not\n      and\n      swap1\n      dup4\n      0xffffffffffffffffffffffffffffffffffffffff\n      and\n      mul\n      or\n      swap1\n      sstore\n      pop\n        /* \"@chainlink/contracts/src/v0.8/vrf/dev/VRFConsumerBaseV2Plus.sol\":8013:8044  CoordinatorSet(_vrfCoordinator) */\n      0xd1a6a14209a385a964d036e404cb5cfb71f4000cdb03c9366292430787261be6\n        /* \"@chainlink/contracts/src/v0.8/vrf/dev/VRFConsumerBaseV2Plus.sol\":8028:8043  _vrfCoordinator */\n      dup2\n        /* \"@chainlink/contracts/src/v0.8/vrf/dev/VRFConsumerBaseV2Plus.sol\":8013:8044  CoordinatorSet(_vrfCoordinator) */\n      mload(0x40)\n      tag_166\n      swap2\n      swap1\n      tag_82\n      jump\t// in\n    tag_166:\n      mload(0x40)\n      dup1\n      swap2\n      sub\n      swap1\n      log1\n        /* \"@chainlink/contracts/src/v0.8/vrf/dev/VRFConsumerBaseV2Plus.sol\":7765:8049  function setCoordinator(... */\n      pop\n      jump\t// out\n        /* \"@chainlink/contracts/src/v0.8/vrf/dev/VRFConsumerBaseV2Plus.sol\":6003:6048  IVRFCoordinatorV2Plus public s_vrfCoordinator */\n    tag_90:\n      0x02\n      0x00\n      swap1\n      sload\n      swap1\n      0x0100\n      exp\n      swap1\n      div\n      0xffffffffffffffffffffffffffffffffffffffff\n      and\n      dup2\n      jump\t// out\n        /* \"contracts/RockScissorPaper2.sol\":928:1002  address public vrfCoordinator = 0xDA3b641D438362C440Ac5458c57e00a712b66700 */\n    tag_95:\n      0x04\n      0x00\n      swap1\n      sload\n      swap1\n      0x0100\n      exp\n      swap1\n      div\n      0xffffffffffffffffffffffffffffffffffffffff\n      and\n      dup2\n      jump\t// out\n        /* \"contracts/RockScissorPaper2.sol\":1152:1190  uint16 public requestConfirmations = 3 */\n    tag_99:\n      0x06\n      0x04\n      swap1\n      sload\n      swap1\n      0x0100\n      exp\n      swap1\n      div\n      0xffff\n      and\n      dup2\n      jump\t// out\n        /* \"contracts/RockScissorPaper2.sol\":6564:6602  function deposit() external payable {} */\n    tag_103:\n      jump\t// out\n        /* \"contracts/RockScissorPaper2.sol\":3748:3812  function playPaper() external payable nonReentrant { _play(2); } */\n    tag_105:\n        /* \"@openzeppelin/contracts/utils/ReentrancyGuard.sol\":3023:3044  _nonReentrantBefore() */\n      tag_169\n        /* \"@openzeppelin/contracts/utils/ReentrancyGuard.sol\":3023:3042  _nonReentrantBefore */\n      tag_119\n        /* \"@openzeppelin/contracts/utils/ReentrancyGuard.sol\":3023:3044  _nonReentrantBefore() */\n      jump\t// in\n    tag_169:\n        /* \"contracts/RockScissorPaper2.sol\":3801:3809  _play(2) */\n      tag_171\n        /* \"contracts/RockScissorPaper2.sol\":3807:3808  2 */\n      0x02\n        /* \"contracts/RockScissorPaper2.sol\":3801:3806  _play */\n      tag_122\n        /* \"contracts/RockScissorPaper2.sol\":3801:3809  _play(2) */\n      jump\t// in\n    tag_171:\n        /* \"@openzeppelin/contracts/utils/ReentrancyGuard.sol\":3065:3085  _nonReentrantAfter() */\n      tag_172\n        /* \"@openzeppelin/contracts/utils/ReentrancyGuard.sol\":3065:3083  _nonReentrantAfter */\n      tag_124\n        /* \"@openzeppelin/contracts/utils/ReentrancyGuard.sol\":3065:3085  _nonReentrantAfter() */\n      jump\t// in\n    tag_172:\n        /* \"contracts/RockScissorPaper2.sol\":3748:3812  function playPaper() external payable nonReentrant { _play(2); } */\n      jump\t// out\n        /* \"@chainlink/contracts/src/v0.8/shared/access/ConfirmedOwnerWithProposal.sol\":847:953  function transferOwnership(... */\n    tag_109:\n        /* \"@chainlink/contracts/src/v0.8/shared/access/ConfirmedOwnerWithProposal.sol\":2091:2111  _validateOwnership() */\n      tag_174\n        /* \"@chainlink/contracts/src/v0.8/shared/access/ConfirmedOwnerWithProposal.sol\":2091:2109  _validateOwnership */\n      tag_143\n        /* \"@chainlink/contracts/src/v0.8/shared/access/ConfirmedOwnerWithProposal.sol\":2091:2111  _validateOwnership() */\n      jump\t// in\n    tag_174:\n        /* \"@chainlink/contracts/src/v0.8/shared/access/ConfirmedOwnerWithProposal.sol\":926:948  _transferOwnership(to) */\n      tag_176\n        /* \"@chainlink/contracts/src/v0.8/shared/access/ConfirmedOwnerWithProposal.sol\":945:947  to */\n      dup2\n        /* \"@chainlink/contracts/src/v0.8/shared/access/ConfirmedOwnerWithProposal.sol\":926:944  _transferOwnership */\n      tag_177\n        /* \"@chainlink/contracts/src/v0.8/shared/access/ConfirmedOwnerWithProposal.sol\":926:948  _transferOwnership(to) */\n      jump\t// in\n    tag_176:\n        /* \"@chainlink/contracts/src/v0.8/shared/access/ConfirmedOwnerWithProposal.sol\":847:953  function transferOwnership(... */\n      pop\n      jump\t// out\n        /* \"contracts/RockScissorPaper2.sol\":4931:6511  function fulfillRandomWords(uint256 requestId, uint256[] calldata randomWords) internal override {... */\n    tag_116:\n        /* \"contracts/RockScissorPaper2.sol\":5038:5061  PendingGame memory game */\n      0x00\n        /* \"contracts/RockScissorPaper2.sol\":5064:5074  s_requests */\n      0x07\n        /* \"contracts/RockScissorPaper2.sol\":5064:5085  s_requests[requestId] */\n      0x00\n        /* \"contracts/RockScissorPaper2.sol\":5075:5084  requestId */\n      dup6\n        /* \"contracts/RockScissorPaper2.sol\":5064:5085  s_requests[requestId] */\n      dup2\n      mstore\n      0x20\n      add\n      swap1\n      dup2\n      mstore\n      0x20\n      add\n      0x00\n      keccak256\n        /* \"contracts/RockScissorPaper2.sol\":5038:5085  PendingGame memory game = s_requests[requestId] */\n      mload(0x40)\n      dup1\n      0x60\n      add\n      0x40\n      mstore\n      swap1\n      dup2\n      0x00\n      dup3\n      add\n      0x00\n      swap1\n      sload\n      swap1\n      0x0100\n      exp\n      swap1\n      div\n      0xffffffffffffffffffffffffffffffffffffffff\n      and\n      0xffffffffffffffffffffffffffffffffffffffff\n      and\n      0xffffffffffffffffffffffffffffffffffffffff\n      and\n      dup2\n      mstore\n      0x20\n      add\n      0x01\n      dup3\n      add\n      sload\n      dup2\n      mstore\n      0x20\n      add\n      0x02\n      dup3\n      add\n      0x00\n      swap1\n      sload\n      swap1\n      0x0100\n      exp\n      swap1\n      div\n      0xff\n      and\n      0xff\n      and\n      0xff\n      and\n      dup2\n      mstore\n      pop\n      pop\n      swap1\n      pop\n        /* \"contracts/RockScissorPaper2.sol\":5122:5123  0 */\n      0x00\n        /* \"contracts/RockScissorPaper2.sol\":5099:5124  game.player == address(0) */\n      0xffffffffffffffffffffffffffffffffffffffff\n      and\n        /* \"contracts/RockScissorPaper2.sol\":5099:5103  game */\n      dup2\n        /* \"contracts/RockScissorPaper2.sol\":5099:5110  game.player */\n      0x00\n      add\n      mload\n        /* \"contracts/RockScissorPaper2.sol\":5099:5124  game.player == address(0) */\n      0xffffffffffffffffffffffffffffffffffffffff\n      and\n      sub\n        /* \"contracts/RockScissorPaper2.sol\":5095:5133  if (game.player == address(0)) return; */\n      tag_179\n      jumpi\n        /* \"contracts/RockScissorPaper2.sol\":5126:5133  return; */\n      pop\n      jump(tag_178)\n        /* \"contracts/RockScissorPaper2.sol\":5095:5133  if (game.player == address(0)) return; */\n    tag_179:\n        /* \"contracts/RockScissorPaper2.sol\":5210:5228  uint8 randomNumber */\n      0x00\n        /* \"contracts/RockScissorPaper2.sol\":5254:5255  3 */\n      0x03\n        /* \"contracts/RockScissorPaper2.sol\":5237:5248  randomWords */\n      dup5\n      dup5\n        /* \"contracts/RockScissorPaper2.sol\":5249:5250  0 */\n      0x00\n        /* \"contracts/RockScissorPaper2.sol\":5237:5251  randomWords[0] */\n      dup2\n      dup2\n      lt\n      tag_180\n      jumpi\n      tag_181\n      tag_182\n      jump\t// in\n    tag_181:\n    tag_180:\n      swap1\n      pop\n      0x20\n      mul\n      add\n      calldataload\n        /* \"contracts/RockScissorPaper2.sol\":5237:5255  randomWords[0] % 3 */\n      tag_183\n      swap2\n      swap1\n      tag_184\n      jump\t// in\n    tag_183:\n        /* \"contracts/RockScissorPaper2.sol\":5210:5256  uint8 randomNumber = uint8(randomWords[0] % 3) */\n      swap1\n      pop\n        /* \"contracts/RockScissorPaper2.sol\":5266:5290  string memory gameResult */\n      0x60\n        /* \"contracts/RockScissorPaper2.sol\":5300:5314  uint256 payout */\n      0x00\n        /* \"contracts/RockScissorPaper2.sol\":5317:5318  0 */\n      0x00\n        /* \"contracts/RockScissorPaper2.sol\":5300:5318  uint256 payout = 0 */\n      swap1\n      pop\n        /* \"contracts/RockScissorPaper2.sol\":5354:5366  randomNumber */\n      dup3\n        /* \"contracts/RockScissorPaper2.sol\":5333:5366  game.playerChoice == randomNumber */\n      0xff\n      and\n        /* \"contracts/RockScissorPaper2.sol\":5333:5337  game */\n      dup5\n        /* \"contracts/RockScissorPaper2.sol\":5333:5350  game.playerChoice */\n      0x40\n      add\n      mload\n        /* \"contracts/RockScissorPaper2.sol\":5333:5366  game.playerChoice == randomNumber */\n      0xff\n      and\n      sub\n        /* \"contracts/RockScissorPaper2.sol\":5329:5797  if (game.playerChoice == randomNumber) {... */\n      tag_185\n      jumpi\n        /* \"contracts/RockScissorPaper2.sol\":5382:5401  gameResult = \"Draw\" */\n      mload(0x40)\n      dup1\n      0x40\n      add\n      0x40\n      mstore\n      dup1\n      0x04\n      dup2\n      mstore\n      0x20\n      add\n      0x4472617700000000000000000000000000000000000000000000000000000000\n      dup2\n      mstore\n      pop\n      swap2\n      pop\n        /* \"contracts/RockScissorPaper2.sol\":5424:5428  game */\n      dup4\n        /* \"contracts/RockScissorPaper2.sol\":5424:5432  game.bet */\n      0x20\n      add\n      mload\n        /* \"contracts/RockScissorPaper2.sol\":5415:5432  payout = game.bet */\n      swap1\n      pop\n        /* \"contracts/RockScissorPaper2.sol\":5329:5797  if (game.playerChoice == randomNumber) {... */\n      jump(tag_186)\n    tag_185:\n        /* \"contracts/RockScissorPaper2.sol\":5497:5498  0 */\n      0x00\n        /* \"contracts/RockScissorPaper2.sol\":5476:5480  game */\n      dup5\n        /* \"contracts/RockScissorPaper2.sol\":5476:5493  game.playerChoice */\n      0x40\n      add\n      mload\n        /* \"contracts/RockScissorPaper2.sol\":5476:5498  game.playerChoice == 0 */\n      0xff\n      and\n      eq\n        /* \"contracts/RockScissorPaper2.sol\":5476:5519  game.playerChoice == 0 && randomNumber == 1 */\n      dup1\n      iszero\n      tag_187\n      jumpi\n      pop\n        /* \"contracts/RockScissorPaper2.sol\":5518:5519  1 */\n      0x01\n        /* \"contracts/RockScissorPaper2.sol\":5502:5514  randomNumber */\n      dup4\n        /* \"contracts/RockScissorPaper2.sol\":5502:5519  randomNumber == 1 */\n      0xff\n      and\n      eq\n        /* \"contracts/RockScissorPaper2.sol\":5476:5519  game.playerChoice == 0 && randomNumber == 1 */\n    tag_187:\n        /* \"contracts/RockScissorPaper2.sol\":5475:5582  (game.playerChoice == 0 && randomNumber == 1) || ... */\n      dup1\n      tag_188\n      jumpi\n      pop\n        /* \"contracts/RockScissorPaper2.sol\":5559:5560  1 */\n      0x01\n        /* \"contracts/RockScissorPaper2.sol\":5538:5542  game */\n      dup5\n        /* \"contracts/RockScissorPaper2.sol\":5538:5555  game.playerChoice */\n      0x40\n      add\n      mload\n        /* \"contracts/RockScissorPaper2.sol\":5538:5560  game.playerChoice == 1 */\n      0xff\n      and\n      eq\n        /* \"contracts/RockScissorPaper2.sol\":5538:5581  game.playerChoice == 1 && randomNumber == 2 */\n      dup1\n      iszero\n      tag_189\n      jumpi\n      pop\n        /* \"contracts/RockScissorPaper2.sol\":5580:5581  2 */\n      0x02\n        /* \"contracts/RockScissorPaper2.sol\":5564:5576  randomNumber */\n      dup4\n        /* \"contracts/RockScissorPaper2.sol\":5564:5581  randomNumber == 2 */\n      0xff\n      and\n      eq\n        /* \"contracts/RockScissorPaper2.sol\":5538:5581  game.playerChoice == 1 && randomNumber == 2 */\n    tag_189:\n        /* \"contracts/RockScissorPaper2.sol\":5475:5582  (game.playerChoice == 0 && randomNumber == 1) || ... */\n    tag_188:\n        /* \"contracts/RockScissorPaper2.sol\":5475:5644  (game.playerChoice == 0 && randomNumber == 1) || ... */\n      dup1\n      tag_190\n      jumpi\n      pop\n        /* \"contracts/RockScissorPaper2.sol\":5621:5622  2 */\n      0x02\n        /* \"contracts/RockScissorPaper2.sol\":5600:5604  game */\n      dup5\n        /* \"contracts/RockScissorPaper2.sol\":5600:5617  game.playerChoice */\n      0x40\n      add\n      mload\n        /* \"contracts/RockScissorPaper2.sol\":5600:5622  game.playerChoice == 2 */\n      0xff\n      and\n      eq\n        /* \"contracts/RockScissorPaper2.sol\":5600:5643  game.playerChoice == 2 && randomNumber == 0 */\n      dup1\n      iszero\n      tag_191\n      jumpi\n      pop\n        /* \"contracts/RockScissorPaper2.sol\":5642:5643  0 */\n      0x00\n        /* \"contracts/RockScissorPaper2.sol\":5626:5638  randomNumber */\n      dup4\n        /* \"contracts/RockScissorPaper2.sol\":5626:5643  randomNumber == 0 */\n      0xff\n      and\n      eq\n        /* \"contracts/RockScissorPaper2.sol\":5600:5643  game.playerChoice == 2 && randomNumber == 0 */\n    tag_191:\n        /* \"contracts/RockScissorPaper2.sol\":5475:5644  (game.playerChoice == 0 && randomNumber == 1) || ... */\n    tag_190:\n        /* \"contracts/RockScissorPaper2.sol\":5458:5797  if (... */\n      iszero\n      tag_192\n      jumpi\n        /* \"contracts/RockScissorPaper2.sol\":5669:5692  gameResult = \"You Win!\" */\n      mload(0x40)\n      dup1\n      0x40\n      add\n      0x40\n      mstore\n      dup1\n      0x08\n      dup2\n      mstore\n      0x20\n      add\n      0x596f752057696e21000000000000000000000000000000000000000000000000\n      dup2\n      mstore\n      pop\n      swap2\n      pop\n        /* \"contracts/RockScissorPaper2.sol\":5726:5727  2 */\n      0x02\n        /* \"contracts/RockScissorPaper2.sol\":5715:5719  game */\n      dup5\n        /* \"contracts/RockScissorPaper2.sol\":5715:5723  game.bet */\n      0x20\n      add\n      mload\n        /* \"contracts/RockScissorPaper2.sol\":5715:5727  game.bet * 2 */\n      tag_193\n      swap2\n      swap1\n      tag_194\n      jump\t// in\n    tag_193:\n        /* \"contracts/RockScissorPaper2.sol\":5706:5727  payout = game.bet * 2 */\n      swap1\n      pop\n        /* \"contracts/RockScissorPaper2.sol\":5458:5797  if (... */\n      jump(tag_195)\n    tag_192:\n        /* \"contracts/RockScissorPaper2.sol\":5767:5786  gameResult = \"Lose\" */\n      mload(0x40)\n      dup1\n      0x40\n      add\n      0x40\n      mstore\n      dup1\n      0x04\n      dup2\n      mstore\n      0x20\n      add\n      0x4c6f736500000000000000000000000000000000000000000000000000000000\n      dup2\n      mstore\n      pop\n      swap2\n      pop\n        /* \"contracts/RockScissorPaper2.sol\":5458:5797  if (... */\n    tag_195:\n        /* \"contracts/RockScissorPaper2.sol\":5329:5797  if (game.playerChoice == randomNumber) {... */\n    tag_186:\n        /* \"contracts/RockScissorPaper2.sol\":5819:6016  LastGame({... */\n      mload(0x40)\n      dup1\n      0xa0\n      add\n      0x40\n      mstore\n      dup1\n        /* \"contracts/RockScissorPaper2.sol\":5850:5854  game */\n      dup6\n        /* \"contracts/RockScissorPaper2.sol\":5850:5861  game.player */\n      0x00\n      add\n      mload\n        /* \"contracts/RockScissorPaper2.sol\":5819:6016  LastGame({... */\n      0xffffffffffffffffffffffffffffffffffffffff\n      and\n      dup2\n      mstore\n      0x20\n      add\n        /* \"contracts/RockScissorPaper2.sol\":5889:5893  game */\n      dup6\n        /* \"contracts/RockScissorPaper2.sol\":5889:5906  game.playerChoice */\n      0x40\n      add\n      mload\n        /* \"contracts/RockScissorPaper2.sol\":5819:6016  LastGame({... */\n      0xff\n      and\n      dup2\n      mstore\n      0x20\n      add\n        /* \"contracts/RockScissorPaper2.sol\":5934:5946  randomNumber */\n      dup5\n        /* \"contracts/RockScissorPaper2.sol\":5819:6016  LastGame({... */\n      0xff\n      and\n      dup2\n      mstore\n      0x20\n      add\n        /* \"contracts/RockScissorPaper2.sol\":5968:5978  gameResult */\n      dup4\n        /* \"contracts/RockScissorPaper2.sol\":5819:6016  LastGame({... */\n      dup2\n      mstore\n      0x20\n      add\n        /* \"contracts/RockScissorPaper2.sol\":5997:6001  game */\n      dup6\n        /* \"contracts/RockScissorPaper2.sol\":5997:6005  game.bet */\n      0x20\n      add\n      mload\n        /* \"contracts/RockScissorPaper2.sol\":5819:6016  LastGame({... */\n      dup2\n      mstore\n      pop\n        /* \"contracts/RockScissorPaper2.sol\":5807:5816  lastRound */\n      0x08\n        /* \"contracts/RockScissorPaper2.sol\":5807:6016  lastRound = LastGame({... */\n      0x00\n      dup3\n      add\n      mload\n      dup2\n      0x00\n      add\n      exp(0x0100, 0x00)\n      dup2\n      sload\n      dup2\n      0xffffffffffffffffffffffffffffffffffffffff\n      mul\n      not\n      and\n      swap1\n      dup4\n      0xffffffffffffffffffffffffffffffffffffffff\n      and\n      mul\n      or\n      swap1\n      sstore\n      pop\n      0x20\n      dup3\n      add\n      mload\n      dup2\n      0x00\n      add\n      exp(0x0100, 0x14)\n      dup2\n      sload\n      dup2\n      0xff\n      mul\n      not\n      and\n      swap1\n      dup4\n      0xff\n      and\n      mul\n      or\n      swap1\n      sstore\n      pop\n      0x40\n      dup3\n      add\n      mload\n      dup2\n      0x00\n      add\n      exp(0x0100, 0x15)\n      dup2\n      sload\n      dup2\n      0xff\n      mul\n      not\n      and\n      swap1\n      dup4\n      0xff\n      and\n      mul\n      or\n      swap1\n      sstore\n      pop\n      0x60\n      dup3\n      add\n      mload\n      dup2\n      0x01\n      add\n      swap1\n      dup2\n      tag_196\n      swap2\n      swap1\n      tag_197\n      jump\t// in\n    tag_196:\n      pop\n      0x80\n      dup3\n      add\n      mload\n      dup2\n      0x02\n      add\n      sstore\n      swap1\n      pop\n      pop\n        /* \"contracts/RockScissorPaper2.sol\":6056:6060  game */\n      dup4\n        /* \"contracts/RockScissorPaper2.sol\":6056:6067  game.player */\n      0x00\n      add\n      mload\n        /* \"contracts/RockScissorPaper2.sol\":6032:6121  GameFinished(requestId, game.player, game.playerChoice, randomNumber, gameResult, payout) */\n      0xffffffffffffffffffffffffffffffffffffffff\n      and\n        /* \"contracts/RockScissorPaper2.sol\":6045:6054  requestId */\n      dup8\n        /* \"contracts/RockScissorPaper2.sol\":6032:6121  GameFinished(requestId, game.player, game.playerChoice, randomNumber, gameResult, payout) */\n      0x7b4808590be30406d307fddac8afaff3af9dbc0dfb89d1a3bc6cde582c6f64a3\n        /* \"contracts/RockScissorPaper2.sol\":6069:6073  game */\n      dup7\n        /* \"contracts/RockScissorPaper2.sol\":6069:6086  game.playerChoice */\n      0x40\n      add\n      mload\n        /* \"contracts/RockScissorPaper2.sol\":6088:6100  randomNumber */\n      dup7\n        /* \"contracts/RockScissorPaper2.sol\":6102:6112  gameResult */\n      dup7\n        /* \"contracts/RockScissorPaper2.sol\":6114:6120  payout */\n      dup7\n        /* \"contracts/RockScissorPaper2.sol\":6032:6121  GameFinished(requestId, game.player, game.playerChoice, randomNumber, gameResult, payout) */\n      mload(0x40)\n      tag_198\n      swap5\n      swap4\n      swap3\n      swap2\n      swap1\n      tag_199\n      jump\t// in\n    tag_198:\n      mload(0x40)\n      dup1\n      swap2\n      sub\n      swap1\n      log3\n        /* \"contracts/RockScissorPaper2.sol\":6201:6202  0 */\n      0x00\n        /* \"contracts/RockScissorPaper2.sol\":6192:6198  payout */\n      dup2\n        /* \"contracts/RockScissorPaper2.sol\":6192:6202  payout > 0 */\n      gt\n        /* \"contracts/RockScissorPaper2.sol\":6188:6466  if (payout > 0) {... */\n      iszero\n      tag_200\n      jumpi\n        /* \"contracts/RockScissorPaper2.sol\":6219:6231  bool success */\n      0x00\n        /* \"contracts/RockScissorPaper2.sol\":6245:6249  game */\n      dup5\n        /* \"contracts/RockScissorPaper2.sol\":6245:6256  game.player */\n      0x00\n      add\n      mload\n        /* \"contracts/RockScissorPaper2.sol\":6237:6262  payable(game.player).call */\n      0xffffffffffffffffffffffffffffffffffffffff\n      and\n        /* \"contracts/RockScissorPaper2.sol\":6270:6276  payout */\n      dup3\n        /* \"contracts/RockScissorPaper2.sol\":6237:6281  payable(game.player).call{value: payout}(\"\") */\n      mload(0x40)\n      tag_201\n      swap1\n      tag_148\n      jump\t// in\n    tag_201:\n      0x00\n      mload(0x40)\n      dup1\n      dup4\n      sub\n      dup2\n      dup6\n      dup8\n      gas\n      call\n      swap3\n      pop\n      pop\n      pop\n      returndatasize\n      dup1\n      0x00\n      dup2\n      eq\n      tag_204\n      jumpi\n      mload(0x40)\n      swap2\n      pop\n      and(add(returndatasize, 0x3f), not(0x1f))\n      dup3\n      add\n      0x40\n      mstore\n      returndatasize\n      dup3\n      mstore\n      returndatasize\n      0x00\n      0x20\n      dup5\n      add\n      returndatacopy\n      jump(tag_203)\n    tag_204:\n      0x60\n      swap2\n      pop\n    tag_203:\n      pop\n        /* \"contracts/RockScissorPaper2.sol\":6218:6281  (bool success, ) = payable(game.player).call{value: payout}(\"\") */\n      pop\n      swap1\n      pop\n        /* \"contracts/RockScissorPaper2.sol\":6366:6373  success */\n      dup1\n        /* \"contracts/RockScissorPaper2.sol\":6358:6393  require(success, \"Transfer failed\") */\n      tag_205\n      jumpi\n      mload(0x40)\n      0x08c379a000000000000000000000000000000000000000000000000000000000\n      dup2\n      mstore\n      0x04\n      add\n      tag_206\n      swap1\n      tag_207\n      jump\t// in\n    tag_206:\n      mload(0x40)\n      dup1\n      swap2\n      sub\n      swap1\n      revert\n    tag_205:\n        /* \"contracts/RockScissorPaper2.sol\":6204:6466  {... */\n      pop\n        /* \"contracts/RockScissorPaper2.sol\":6188:6466  if (payout > 0) {... */\n    tag_200:\n        /* \"contracts/RockScissorPaper2.sol\":6483:6493  s_requests */\n      0x07\n        /* \"contracts/RockScissorPaper2.sol\":6483:6504  s_requests[requestId] */\n      0x00\n        /* \"contracts/RockScissorPaper2.sol\":6494:6503  requestId */\n      dup9\n        /* \"contracts/RockScissorPaper2.sol\":6483:6504  s_requests[requestId] */\n      dup2\n      mstore\n      0x20\n      add\n      swap1\n      dup2\n      mstore\n      0x20\n      add\n      0x00\n      keccak256\n      0x00\n        /* \"contracts/RockScissorPaper2.sol\":6476:6504  delete s_requests[requestId] */\n      0x00\n      dup3\n      add\n      exp(0x0100, 0x00)\n      dup2\n      sload\n      swap1\n      0xffffffffffffffffffffffffffffffffffffffff\n      mul\n      not\n      and\n      swap1\n      sstore\n      0x01\n      dup3\n      add\n      0x00\n      swap1\n      sstore\n      0x02\n      dup3\n      add\n      exp(0x0100, 0x00)\n      dup2\n      sload\n      swap1\n      0xff\n      mul\n      not\n      and\n      swap1\n      sstore\n      pop\n      pop\n        /* \"contracts/RockScissorPaper2.sol\":5028:6511  {... */\n      pop\n      pop\n      pop\n      pop\n        /* \"contracts/RockScissorPaper2.sol\":4931:6511  function fulfillRandomWords(uint256 requestId, uint256[] calldata randomWords) internal override {... */\n    tag_178:\n      pop\n      pop\n      pop\n      jump\t// out\n        /* \"@openzeppelin/contracts/utils/ReentrancyGuard.sol\":3749:4041  function _nonReentrantBefore() private {... */\n    tag_119:\n        /* \"@openzeppelin/contracts/utils/ReentrancyGuard.sol\":3872:3897  _nonReentrantBeforeView() */\n      tag_209\n        /* \"@openzeppelin/contracts/utils/ReentrancyGuard.sol\":3872:3895  _nonReentrantBeforeView */\n      tag_210\n        /* \"@openzeppelin/contracts/utils/ReentrancyGuard.sol\":3872:3897  _nonReentrantBeforeView() */\n      jump\t// in\n    tag_209:\n        /* \"@openzeppelin/contracts/utils/ReentrancyGuard.sol\":2407:2408  2 */\n      0x02\n        /* \"@openzeppelin/contracts/utils/ReentrancyGuard.sol\":3972:4018  _reentrancyGuardStorageSlot().getUint256Slot() */\n      tag_211\n        /* \"@openzeppelin/contracts/utils/ReentrancyGuard.sol\":3972:4001  _reentrancyGuardStorageSlot() */\n      tag_212\n        /* \"@openzeppelin/contracts/utils/ReentrancyGuard.sol\":3972:3999  _reentrancyGuardStorageSlot */\n      tag_213\n        /* \"@openzeppelin/contracts/utils/ReentrancyGuard.sol\":3972:4001  _reentrancyGuardStorageSlot() */\n      jump\t// in\n    tag_212:\n        /* \"@openzeppelin/contracts/utils/ReentrancyGuard.sol\":3972:4016  _reentrancyGuardStorageSlot().getUint256Slot */\n      tag_214\n        /* \"@openzeppelin/contracts/utils/ReentrancyGuard.sol\":3972:4018  _reentrancyGuardStorageSlot().getUint256Slot() */\n      jump\t// in\n    tag_211:\n        /* \"@openzeppelin/contracts/utils/ReentrancyGuard.sol\":3972:4024  _reentrancyGuardStorageSlot().getUint256Slot().value */\n      0x00\n      add\n        /* \"@openzeppelin/contracts/utils/ReentrancyGuard.sol\":3972:4034  _reentrancyGuardStorageSlot().getUint256Slot().value = ENTERED */\n      dup2\n      swap1\n      sstore\n      pop\n        /* \"@openzeppelin/contracts/utils/ReentrancyGuard.sol\":3749:4041  function _nonReentrantBefore() private {... */\n      jump\t// out\n        /* \"contracts/RockScissorPaper2.sol\":3901:4890  function _play(uint8 _playerChoice) internal {... */\n    tag_122:\n        /* \"contracts/RockScissorPaper2.sol\":805:819  0.000001 ether */\n      0xe8d4a51000\n        /* \"contracts/RockScissorPaper2.sol\":3964:3973  msg.value */\n      callvalue\n        /* \"contracts/RockScissorPaper2.sol\":3964:3984  msg.value >= MIN_BET */\n      lt\n      iszero\n        /* \"contracts/RockScissorPaper2.sol\":3956:4000  require(msg.value >= MIN_BET, \"Bet too low\") */\n      tag_216\n      jumpi\n      mload(0x40)\n      0x08c379a000000000000000000000000000000000000000000000000000000000\n      dup2\n      mstore\n      0x04\n      add\n      tag_217\n      swap1\n      tag_218\n      jump\t// in\n    tag_217:\n      mload(0x40)\n      dup1\n      swap2\n      sub\n      swap1\n      revert\n    tag_216:\n        /* \"contracts/RockScissorPaper2.sol\":4055:4056  2 */\n      0x02\n        /* \"contracts/RockScissorPaper2.sol\":4043:4052  msg.value */\n      callvalue\n        /* \"contracts/RockScissorPaper2.sol\":4043:4056  msg.value * 2 */\n      tag_219\n      swap2\n      swap1\n      tag_194\n      jump\t// in\n    tag_219:\n        /* \"contracts/RockScissorPaper2.sol\":4018:4039  address(this).balance */\n      selfbalance\n        /* \"contracts/RockScissorPaper2.sol\":4018:4056  address(this).balance >= msg.value * 2 */\n      lt\n      iszero\n        /* \"contracts/RockScissorPaper2.sol\":4010:4078  require(address(this).balance >= msg.value * 2, \"Contract is empty\") */\n      tag_220\n      jumpi\n      mload(0x40)\n      0x08c379a000000000000000000000000000000000000000000000000000000000\n      dup2\n      mstore\n      0x04\n      add\n      tag_221\n      swap1\n      tag_222\n      jump\t// in\n    tag_221:\n      mload(0x40)\n      dup1\n      swap2\n      sub\n      swap1\n      revert\n    tag_220:\n        /* \"contracts/RockScissorPaper2.sol\":4089:4106  uint256 requestId */\n      0x00\n        /* \"contracts/RockScissorPaper2.sol\":4109:4125  s_vrfCoordinator */\n      0x02\n      0x00\n      swap1\n      sload\n      swap1\n      0x0100\n      exp\n      swap1\n      div\n      0xffffffffffffffffffffffffffffffffffffffff\n      and\n        /* \"contracts/RockScissorPaper2.sol\":4109:4144  s_vrfCoordinator.requestRandomWords */\n      0xffffffffffffffffffffffffffffffffffffffff\n      and\n      0x9b1c385e\n        /* \"contracts/RockScissorPaper2.sol\":4158:4580  VRFV2PlusClient.RandomWordsRequest({... */\n      mload(0x40)\n      dup1\n      0xc0\n      add\n      0x40\n      mstore\n      dup1\n        /* \"contracts/RockScissorPaper2.sol\":4220:4227  keyHash */\n      sload(0x05)\n        /* \"contracts/RockScissorPaper2.sol\":4158:4580  VRFV2PlusClient.RandomWordsRequest({... */\n      dup2\n      mstore\n      0x20\n      add\n        /* \"contracts/RockScissorPaper2.sol\":4252:4268  s_subscriptionId */\n      sload(0x03)\n        /* \"contracts/RockScissorPaper2.sol\":4158:4580  VRFV2PlusClient.RandomWordsRequest({... */\n      dup2\n      mstore\n      0x20\n      add\n        /* \"contracts/RockScissorPaper2.sol\":4308:4328  requestConfirmations */\n      0x06\n      0x04\n      swap1\n      sload\n      swap1\n      0x0100\n      exp\n      swap1\n      div\n      0xffff\n      and\n        /* \"contracts/RockScissorPaper2.sol\":4158:4580  VRFV2PlusClient.RandomWordsRequest({... */\n      0xffff\n      and\n      dup2\n      mstore\n      0x20\n      add\n        /* \"contracts/RockScissorPaper2.sol\":4364:4380  callbackGasLimit */\n      0x06\n      0x00\n      swap1\n      sload\n      swap1\n      0x0100\n      exp\n      swap1\n      div\n      0xffffffff\n      and\n        /* \"contracts/RockScissorPaper2.sol\":4158:4580  VRFV2PlusClient.RandomWordsRequest({... */\n      0xffffffff\n      and\n      dup2\n      mstore\n      0x20\n      add\n        /* \"contracts/RockScissorPaper2.sol\":4408:4416  numWords */\n      0x06\n      dup1\n      sload\n      swap1\n      0x0100\n      exp\n      swap1\n      div\n      0xffffffff\n      and\n        /* \"contracts/RockScissorPaper2.sol\":4158:4580  VRFV2PlusClient.RandomWordsRequest({... */\n      0xffffffff\n      and\n      dup2\n      mstore\n      0x20\n      add\n        /* \"contracts/RockScissorPaper2.sol\":4445:4565  VRFV2PlusClient._argsToBytes(... */\n      tag_223\n        /* \"contracts/RockScissorPaper2.sol\":4495:4546  VRFV2PlusClient.ExtraArgsV1({nativePayment: false}) */\n      mload(0x40)\n      dup1\n      0x20\n      add\n      0x40\n      mstore\n      dup1\n        /* \"contracts/RockScissorPaper2.sol\":4539:4544  false */\n      0x00\n        /* \"contracts/RockScissorPaper2.sol\":4495:4546  VRFV2PlusClient.ExtraArgsV1({nativePayment: false}) */\n      iszero\n      iszero\n      dup2\n      mstore\n      pop\n        /* \"contracts/RockScissorPaper2.sol\":4445:4473  VRFV2PlusClient._argsToBytes */\n      tag_224\n        /* \"contracts/RockScissorPaper2.sol\":4445:4565  VRFV2PlusClient._argsToBytes(... */\n      jump\t// in\n    tag_223:\n        /* \"contracts/RockScissorPaper2.sol\":4158:4580  VRFV2PlusClient.RandomWordsRequest({... */\n      dup2\n      mstore\n      pop\n        /* \"contracts/RockScissorPaper2.sol\":4109:4590  s_vrfCoordinator.requestRandomWords(... */\n      mload(0x40)\n      dup3\n      0xffffffff\n      and\n      0xe0\n      shl\n      dup2\n      mstore\n      0x04\n      add\n      tag_225\n      swap2\n      swap1\n      tag_226\n      jump\t// in\n    tag_225:\n      0x20\n      mload(0x40)\n      dup1\n      dup4\n      sub\n      dup2\n      0x00\n      dup8\n      gas\n      call\n      iszero\n      dup1\n      iszero\n      tag_228\n      jumpi\n      returndatacopy(0x00, 0x00, returndatasize)\n      revert(0x00, returndatasize)\n    tag_228:\n      pop\n      pop\n      pop\n      pop\n      mload(0x40)\n      returndatasize\n      not(0x1f)\n      0x1f\n      dup3\n      add\n      and\n      dup3\n      add\n      dup1\n      0x40\n      mstore\n      pop\n      dup2\n      add\n      swap1\n      tag_229\n      swap2\n      swap1\n      tag_230\n      jump\t// in\n    tag_229:\n        /* \"contracts/RockScissorPaper2.sol\":4089:4590  uint256 requestId = s_vrfCoordinator.requestRandomWords(... */\n      swap1\n      pop\n        /* \"contracts/RockScissorPaper2.sol\":4625:4749  PendingGame({... */\n      mload(0x40)\n      dup1\n      0x60\n      add\n      0x40\n      mstore\n      dup1\n        /* \"contracts/RockScissorPaper2.sol\":4659:4669  msg.sender */\n      caller\n        /* \"contracts/RockScissorPaper2.sol\":4625:4749  PendingGame({... */\n      0xffffffffffffffffffffffffffffffffffffffff\n      and\n      dup2\n      mstore\n      0x20\n      add\n        /* \"contracts/RockScissorPaper2.sol\":4688:4697  msg.value */\n      callvalue\n        /* \"contracts/RockScissorPaper2.sol\":4625:4749  PendingGame({... */\n      dup2\n      mstore\n      0x20\n      add\n        /* \"contracts/RockScissorPaper2.sol\":4725:4738  _playerChoice */\n      dup4\n        /* \"contracts/RockScissorPaper2.sol\":4625:4749  PendingGame({... */\n      0xff\n      and\n      dup2\n      mstore\n      pop\n        /* \"contracts/RockScissorPaper2.sol\":4601:4611  s_requests */\n      0x07\n        /* \"contracts/RockScissorPaper2.sol\":4601:4622  s_requests[requestId] */\n      0x00\n        /* \"contracts/RockScissorPaper2.sol\":4612:4621  requestId */\n      dup4\n        /* \"contracts/RockScissorPaper2.sol\":4601:4622  s_requests[requestId] */\n      dup2\n      mstore\n      0x20\n      add\n      swap1\n      dup2\n      mstore\n      0x20\n      add\n      0x00\n      keccak256\n        /* \"contracts/RockScissorPaper2.sol\":4601:4749  s_requests[requestId] = PendingGame({... */\n      0x00\n      dup3\n      add\n      mload\n      dup2\n      0x00\n      add\n      exp(0x0100, 0x00)\n      dup2\n      sload\n      dup2\n      0xffffffffffffffffffffffffffffffffffffffff\n      mul\n      not\n      and\n      swap1\n      dup4\n      0xffffffffffffffffffffffffffffffffffffffff\n      and\n      mul\n      or\n      swap1\n      sstore\n      pop\n      0x20\n      dup3\n      add\n      mload\n      dup2\n      0x01\n      add\n      sstore\n      0x40\n      dup3\n      add\n      mload\n      dup2\n      0x02\n      add\n      exp(0x0100, 0x00)\n      dup2\n      sload\n      dup2\n      0xff\n      mul\n      not\n      and\n      swap1\n      dup4\n      0xff\n      and\n      mul\n      or\n      swap1\n      sstore\n      pop\n      swap1\n      pop\n      pop\n        /* \"contracts/RockScissorPaper2.sol\":4790:4800  msg.sender */\n      caller\n        /* \"contracts/RockScissorPaper2.sol\":4765:4827  GameRequested(requestId, msg.sender, _playerChoice, msg.value) */\n      0xffffffffffffffffffffffffffffffffffffffff\n      and\n        /* \"contracts/RockScissorPaper2.sol\":4779:4788  requestId */\n      dup2\n        /* \"contracts/RockScissorPaper2.sol\":4765:4827  GameRequested(requestId, msg.sender, _playerChoice, msg.value) */\n      0xbb2ba4f5e2e4ccd8d92a9b7a2d3ee8a1d2a1ea3f6e004354f23dd2d084e21997\n        /* \"contracts/RockScissorPaper2.sol\":4802:4815  _playerChoice */\n      dup5\n        /* \"contracts/RockScissorPaper2.sol\":4817:4826  msg.value */\n      callvalue\n        /* \"contracts/RockScissorPaper2.sol\":4765:4827  GameRequested(requestId, msg.sender, _playerChoice, msg.value) */\n      mload(0x40)\n      tag_231\n      swap3\n      swap2\n      swap1\n      tag_232\n      jump\t// in\n    tag_231:\n      mload(0x40)\n      dup1\n      swap2\n      sub\n      swap1\n      log3\n        /* \"contracts/RockScissorPaper2.sol\":3946:4890  {... */\n      pop\n        /* \"contracts/RockScissorPaper2.sol\":3901:4890  function _play(uint8 _playerChoice) internal {... */\n      pop\n      jump\t// out\n        /* \"@openzeppelin/contracts/utils/ReentrancyGuard.sol\":4047:4300  function _nonReentrantAfter() private {... */\n    tag_124:\n        /* \"@openzeppelin/contracts/utils/ReentrancyGuard.sol\":2365:2366  1 */\n      0x01\n        /* \"@openzeppelin/contracts/utils/ReentrancyGuard.sol\":4227:4273  _reentrancyGuardStorageSlot().getUint256Slot() */\n      tag_234\n        /* \"@openzeppelin/contracts/utils/ReentrancyGuard.sol\":4227:4256  _reentrancyGuardStorageSlot() */\n      tag_235\n        /* \"@openzeppelin/contracts/utils/ReentrancyGuard.sol\":4227:4254  _reentrancyGuardStorageSlot */\n      tag_213\n        /* \"@openzeppelin/contracts/utils/ReentrancyGuard.sol\":4227:4256  _reentrancyGuardStorageSlot() */\n      jump\t// in\n    tag_235:\n        /* \"@openzeppelin/contracts/utils/ReentrancyGuard.sol\":4227:4271  _reentrancyGuardStorageSlot().getUint256Slot */\n      tag_214\n        /* \"@openzeppelin/contracts/utils/ReentrancyGuard.sol\":4227:4273  _reentrancyGuardStorageSlot().getUint256Slot() */\n      jump\t// in\n    tag_234:\n        /* \"@openzeppelin/contracts/utils/ReentrancyGuard.sol\":4227:4279  _reentrancyGuardStorageSlot().getUint256Slot().value */\n      0x00\n      add\n        /* \"@openzeppelin/contracts/utils/ReentrancyGuard.sol\":4227:4293  _reentrancyGuardStorageSlot().getUint256Slot().value = NOT_ENTERED */\n      dup2\n      swap1\n      sstore\n      pop\n        /* \"@openzeppelin/contracts/utils/ReentrancyGuard.sol\":4047:4300  function _nonReentrantAfter() private {... */\n      jump\t// out\n        /* \"@chainlink/contracts/src/v0.8/shared/access/ConfirmedOwnerWithProposal.sol\":1825:1987  function _validateOwnership() internal view {... */\n    tag_143:\n        /* \"@chainlink/contracts/src/v0.8/shared/access/ConfirmedOwnerWithProposal.sol\":1948:1955  s_owner */\n      0x00\n      0x00\n      swap1\n      sload\n      swap1\n      0x0100\n      exp\n      swap1\n      div\n      0xffffffffffffffffffffffffffffffffffffffff\n      and\n        /* \"@chainlink/contracts/src/v0.8/shared/access/ConfirmedOwnerWithProposal.sol\":1934:1955  msg.sender == s_owner */\n      0xffffffffffffffffffffffffffffffffffffffff\n      and\n        /* \"@chainlink/contracts/src/v0.8/shared/access/ConfirmedOwnerWithProposal.sol\":1934:1944  msg.sender */\n      caller\n        /* \"@chainlink/contracts/src/v0.8/shared/access/ConfirmedOwnerWithProposal.sol\":1934:1955  msg.sender == s_owner */\n      0xffffffffffffffffffffffffffffffffffffffff\n      and\n      eq\n        /* \"@chainlink/contracts/src/v0.8/shared/access/ConfirmedOwnerWithProposal.sol\":1926:1982  require(msg.sender == s_owner, \"Only callable by owner\") */\n      tag_237\n      jumpi\n      mload(0x40)\n      0x08c379a000000000000000000000000000000000000000000000000000000000\n      dup2\n      mstore\n      0x04\n      add\n      tag_238\n      swap1\n      tag_239\n      jump\t// in\n    tag_238:\n      mload(0x40)\n      dup1\n      swap2\n      sub\n      swap1\n      revert\n    tag_237:\n        /* \"@chainlink/contracts/src/v0.8/shared/access/ConfirmedOwnerWithProposal.sol\":1825:1987  function _validateOwnership() internal view {... */\n      jump\t// out\n        /* \"@chainlink/contracts/src/v0.8/shared/access/ConfirmedOwnerWithProposal.sol\":1544:1791  function _transferOwnership(... */\n    tag_177:\n        /* \"@chainlink/contracts/src/v0.8/shared/access/ConfirmedOwnerWithProposal.sol\":1671:1681  msg.sender */\n      caller\n        /* \"@chainlink/contracts/src/v0.8/shared/access/ConfirmedOwnerWithProposal.sol\":1665:1681  to != msg.sender */\n      0xffffffffffffffffffffffffffffffffffffffff\n      and\n        /* \"@chainlink/contracts/src/v0.8/shared/access/ConfirmedOwnerWithProposal.sol\":1665:1667  to */\n      dup2\n        /* \"@chainlink/contracts/src/v0.8/shared/access/ConfirmedOwnerWithProposal.sol\":1665:1681  to != msg.sender */\n      0xffffffffffffffffffffffffffffffffffffffff\n      and\n      sub\n        /* \"@chainlink/contracts/src/v0.8/shared/access/ConfirmedOwnerWithProposal.sol\":1657:1709  require(to != msg.sender, \"Cannot transfer to self\") */\n      tag_241\n      jumpi\n      mload(0x40)\n      0x08c379a000000000000000000000000000000000000000000000000000000000\n      dup2\n      mstore\n      0x04\n      add\n      tag_242\n      swap1\n      tag_243\n      jump\t// in\n    tag_242:\n      mload(0x40)\n      dup1\n      swap2\n      sub\n      swap1\n      revert\n    tag_241:\n        /* \"@chainlink/contracts/src/v0.8/shared/access/ConfirmedOwnerWithProposal.sol\":1733:1735  to */\n      dup1\n        /* \"@chainlink/contracts/src/v0.8/shared/access/ConfirmedOwnerWithProposal.sol\":1716:1730  s_pendingOwner */\n      0x01\n      0x00\n        /* \"@chainlink/contracts/src/v0.8/shared/access/ConfirmedOwnerWithProposal.sol\":1716:1735  s_pendingOwner = to */\n      0x0100\n      exp\n      dup2\n      sload\n      dup2\n      0xffffffffffffffffffffffffffffffffffffffff\n      mul\n      not\n      and\n      swap1\n      dup4\n      0xffffffffffffffffffffffffffffffffffffffff\n      and\n      mul\n      or\n      swap1\n      sstore\n      pop\n        /* \"@chainlink/contracts/src/v0.8/shared/access/ConfirmedOwnerWithProposal.sol\":1783:1785  to */\n      dup1\n        /* \"@chainlink/contracts/src/v0.8/shared/access/ConfirmedOwnerWithProposal.sol\":1747:1786  OwnershipTransferRequested(s_owner, to) */\n      0xffffffffffffffffffffffffffffffffffffffff\n      and\n        /* \"@chainlink/contracts/src/v0.8/shared/access/ConfirmedOwnerWithProposal.sol\":1774:1781  s_owner */\n      0x00\n      0x00\n      swap1\n      sload\n      swap1\n      0x0100\n      exp\n      swap1\n      div\n      0xffffffffffffffffffffffffffffffffffffffff\n      and\n        /* \"@chainlink/contracts/src/v0.8/shared/access/ConfirmedOwnerWithProposal.sol\":1747:1786  OwnershipTransferRequested(s_owner, to) */\n      0xffffffffffffffffffffffffffffffffffffffff\n      and\n      0xed8889f560326eb138920d842192f0eb3dd22b4f139c87a2c57538e05bae1278\n      mload(0x40)\n      mload(0x40)\n      dup1\n      swap2\n      sub\n      swap1\n      log3\n        /* \"@chainlink/contracts/src/v0.8/shared/access/ConfirmedOwnerWithProposal.sol\":1544:1791  function _transferOwnership(... */\n      pop\n      jump\t// out\n        /* \"@openzeppelin/contracts/utils/ReentrancyGuard.sol\":3586:3743  function _nonReentrantBeforeView() private view {... */\n    tag_210:\n        /* \"@openzeppelin/contracts/utils/ReentrancyGuard.sol\":3648:3673  _reentrancyGuardEntered() */\n      tag_245\n        /* \"@openzeppelin/contracts/utils/ReentrancyGuard.sol\":3648:3671  _reentrancyGuardEntered */\n      tag_246\n        /* \"@openzeppelin/contracts/utils/ReentrancyGuard.sol\":3648:3673  _reentrancyGuardEntered() */\n      jump\t// in\n    tag_245:\n        /* \"@openzeppelin/contracts/utils/ReentrancyGuard.sol\":3644:3737  if (_reentrancyGuardEntered()) {... */\n      iszero\n      tag_247\n      jumpi\n        /* \"@openzeppelin/contracts/utils/ReentrancyGuard.sol\":3696:3726  ReentrancyGuardReentrantCall() */\n      mload(0x40)\n      0x3ee5aeb500000000000000000000000000000000000000000000000000000000\n      dup2\n      mstore\n      0x04\n      add\n      mload(0x40)\n      dup1\n      swap2\n      sub\n      swap1\n      revert\n        /* \"@openzeppelin/contracts/utils/ReentrancyGuard.sol\":3644:3737  if (_reentrancyGuardEntered()) {... */\n    tag_247:\n        /* \"@openzeppelin/contracts/utils/ReentrancyGuard.sol\":3586:3743  function _nonReentrantBeforeView() private view {... */\n      jump\t// out\n        /* \"@openzeppelin/contracts/utils/ReentrancyGuard.sol\":4636:4763  function _reentrancyGuardStorageSlot() internal pure virtual returns (bytes32) {... */\n    tag_213:\n        /* \"@openzeppelin/contracts/utils/ReentrancyGuard.sol\":4706:4713  bytes32 */\n      0x00\n        /* \"@openzeppelin/contracts/utils/ReentrancyGuard.sol\":1505:1571  0x9b779b17422d0df92223018b32b4d1fa46e071723d6817e2486d003becc55f00 */\n      0x9b779b17422d0df92223018b32b4d1fa46e071723d6817e2486d003becc55f00\n        /* \"@openzeppelin/contracts/utils/ReentrancyGuard.sol\":4732:4756  REENTRANCY_GUARD_STORAGE */\n      0x00\n      shl\n        /* \"@openzeppelin/contracts/utils/ReentrancyGuard.sol\":4725:4756  return REENTRANCY_GUARD_STORAGE */\n      swap1\n      pop\n        /* \"@openzeppelin/contracts/utils/ReentrancyGuard.sol\":4636:4763  function _reentrancyGuardStorageSlot() internal pure virtual returns (bytes32) {... */\n      swap1\n      jump\t// out\n        /* \"@openzeppelin/contracts/utils/StorageSlot.sol\":2679:2842  function getUint256Slot(bytes32 slot) internal pure returns (Uint256Slot storage r) {... */\n    tag_214:\n        /* \"@openzeppelin/contracts/utils/StorageSlot.sol\":2740:2761  Uint256Slot storage r */\n      0x00\n        /* \"@openzeppelin/contracts/utils/StorageSlot.sol\":2822:2826  slot */\n      dup2\n        /* \"@openzeppelin/contracts/utils/StorageSlot.sol\":2812:2826  r.slot := slot */\n      swap1\n      pop\n        /* \"@openzeppelin/contracts/utils/StorageSlot.sol\":2679:2842  function getUint256Slot(bytes32 slot) internal pure returns (Uint256Slot storage r) {... */\n      swap2\n      swap1\n      pop\n      jump\t// out\n        /* \"@chainlink/contracts/src/v0.8/vrf/dev/libraries/VRFV2PlusClient.sol\":476:647  function _argsToBytes(... */\n    tag_224:\n        /* \"@chainlink/contracts/src/v0.8/vrf/dev/libraries/VRFV2PlusClient.sol\":559:575  bytes memory bts */\n      0x60\n        /* \"@chainlink/contracts/src/v0.8/vrf/dev/libraries/VRFV2PlusClient.sol\":211:239  keccak256(\"VRF ExtraArgsV1\") */\n      0x92fd13387c7fe7befbc38d303d6468778fb9731bc4583f17d92989c6fcfdeaaa\n        /* \"@chainlink/contracts/src/v0.8/vrf/dev/libraries/VRFV2PlusClient.sol\":632:641  extraArgs */\n      dup3\n        /* \"@chainlink/contracts/src/v0.8/vrf/dev/libraries/VRFV2PlusClient.sol\":590:642  abi.encodeWithSelector(EXTRA_ARGS_V1_TAG, extraArgs) */\n      add(0x24, mload(0x40))\n      tag_251\n      swap2\n      swap1\n      tag_252\n      jump\t// in\n    tag_251:\n      mload(0x40)\n      0x20\n      dup2\n      dup4\n      sub\n      sub\n      dup2\n      mstore\n      swap1\n      0x40\n      mstore\n      swap1\n      not(0xffffffffffffffffffffffffffffffffffffffffffffffffffffffff)\n      and\n      0x20\n      dup3\n      add\n      dup1\n      mload\n      0xffffffffffffffffffffffffffffffffffffffffffffffffffffffff\n      dup4\n      dup2\n      dup4\n      and\n      or\n      dup4\n      mstore\n      pop\n      pop\n      pop\n      pop\n        /* \"@chainlink/contracts/src/v0.8/vrf/dev/libraries/VRFV2PlusClient.sol\":583:642  return abi.encodeWithSelector(EXTRA_ARGS_V1_TAG, extraArgs) */\n      swap1\n      pop\n        /* \"@chainlink/contracts/src/v0.8/vrf/dev/libraries/VRFV2PlusClient.sol\":476:647  function _argsToBytes(... */\n      swap2\n      swap1\n      pop\n      jump\t// out\n        /* \"@openzeppelin/contracts/utils/ReentrancyGuard.sol\":4479:4630  function _reentrancyGuardEntered() internal view returns (bool) {... */\n    tag_246:\n        /* \"@openzeppelin/contracts/utils/ReentrancyGuard.sol\":4537:4541  bool */\n      0x00\n        /* \"@openzeppelin/contracts/utils/ReentrancyGuard.sol\":2407:2408  2 */\n      0x02\n        /* \"@openzeppelin/contracts/utils/ReentrancyGuard.sol\":4560:4606  _reentrancyGuardStorageSlot().getUint256Slot() */\n      tag_254\n        /* \"@openzeppelin/contracts/utils/ReentrancyGuard.sol\":4560:4589  _reentrancyGuardStorageSlot() */\n      tag_255\n        /* \"@openzeppelin/contracts/utils/ReentrancyGuard.sol\":4560:4587  _reentrancyGuardStorageSlot */\n      tag_213\n        /* \"@openzeppelin/contracts/utils/ReentrancyGuard.sol\":4560:4589  _reentrancyGuardStorageSlot() */\n      jump\t// in\n    tag_255:\n        /* \"@openzeppelin/contracts/utils/ReentrancyGuard.sol\":4560:4604  _reentrancyGuardStorageSlot().getUint256Slot */\n      tag_214\n        /* \"@openzeppelin/contracts/utils/ReentrancyGuard.sol\":4560:4606  _reentrancyGuardStorageSlot().getUint256Slot() */\n      jump\t// in\n    tag_254:\n        /* \"@openzeppelin/contracts/utils/ReentrancyGuard.sol\":4560:4612  _reentrancyGuardStorageSlot().getUint256Slot().value */\n      0x00\n      add\n      sload\n        /* \"@openzeppelin/contracts/utils/ReentrancyGuard.sol\":4560:4623  _reentrancyGuardStorageSlot().getUint256Slot().value == ENTERED */\n      eq\n        /* \"@openzeppelin/contracts/utils/ReentrancyGuard.sol\":4553:4623  return _reentrancyGuardStorageSlot().getUint256Slot().value == ENTERED */\n      swap1\n      pop\n        /* \"@openzeppelin/contracts/utils/ReentrancyGuard.sol\":4479:4630  function _reentrancyGuardEntered() internal view returns (bool) {... */\n      swap1\n      jump\t// out\n        /* \"#utility.yul\":7:84   */\n    tag_256:\n        /* \"#utility.yul\":44:51   */\n      0x00\n        /* \"#utility.yul\":73:78   */\n      dup2\n        /* \"#utility.yul\":62:78   */\n      swap1\n      pop\n        /* \"#utility.yul\":7:84   */\n      swap2\n      swap1\n      pop\n      jump\t// out\n        /* \"#utility.yul\":90:208   */\n    tag_257:\n        /* \"#utility.yul\":177:201   */\n      tag_340\n        /* \"#utility.yul\":195:200   */\n      dup2\n        /* \"#utility.yul\":177:201   */\n      tag_256\n      jump\t// in\n    tag_340:\n        /* \"#utility.yul\":172:175   */\n      dup3\n        /* \"#utility.yul\":165:202   */\n      mstore\n        /* \"#utility.yul\":90:208   */\n      pop\n      pop\n      jump\t// out\n        /* \"#utility.yul\":214:436   */\n    tag_30:\n        /* \"#utility.yul\":307:311   */\n      0x00\n        /* \"#utility.yul\":345:347   */\n      0x20\n        /* \"#utility.yul\":334:343   */\n      dup3\n        /* \"#utility.yul\":330:348   */\n      add\n        /* \"#utility.yul\":322:348   */\n      swap1\n      pop\n        /* \"#utility.yul\":358:429   */\n      tag_342\n        /* \"#utility.yul\":426:427   */\n      0x00\n        /* \"#utility.yul\":415:424   */\n      dup4\n        /* \"#utility.yul\":411:428   */\n      add\n        /* \"#utility.yul\":402:408   */\n      dup5\n        /* \"#utility.yul\":358:429   */\n      tag_257\n      jump\t// in\n    tag_342:\n        /* \"#utility.yul\":214:436   */\n      swap3\n      swap2\n      pop\n      pop\n      jump\t// out\n        /* \"#utility.yul\":523:640   */\n    tag_259:\n        /* \"#utility.yul\":632:633   */\n      0x00\n        /* \"#utility.yul\":629:630   */\n      0x00\n        /* \"#utility.yul\":622:634   */\n      revert\n        /* \"#utility.yul\":646:763   */\n    tag_260:\n        /* \"#utility.yul\":755:756   */\n      0x00\n        /* \"#utility.yul\":752:753   */\n      0x00\n        /* \"#utility.yul\":745:757   */\n      revert\n        /* \"#utility.yul\":769:891   */\n    tag_261:\n        /* \"#utility.yul\":842:866   */\n      tag_347\n        /* \"#utility.yul\":860:865   */\n      dup2\n        /* \"#utility.yul\":842:866   */\n      tag_256\n      jump\t// in\n    tag_347:\n        /* \"#utility.yul\":835:840   */\n      dup2\n        /* \"#utility.yul\":832:867   */\n      eq\n        /* \"#utility.yul\":822:885   */\n      tag_348\n      jumpi\n        /* \"#utility.yul\":881:882   */\n      0x00\n        /* \"#utility.yul\":878:879   */\n      0x00\n        /* \"#utility.yul\":871:883   */\n      revert\n        /* \"#utility.yul\":822:885   */\n    tag_348:\n        /* \"#utility.yul\":769:891   */\n      pop\n      jump\t// out\n        /* \"#utility.yul\":897:1036   */\n    tag_262:\n        /* \"#utility.yul\":943:948   */\n      0x00\n        /* \"#utility.yul\":981:987   */\n      dup2\n        /* \"#utility.yul\":968:988   */\n      calldataload\n        /* \"#utility.yul\":959:988   */\n      swap1\n      pop\n        /* \"#utility.yul\":997:1030   */\n      tag_350\n        /* \"#utility.yul\":1024:1029   */\n      dup2\n        /* \"#utility.yul\":997:1030   */\n      tag_261\n      jump\t// in\n    tag_350:\n        /* \"#utility.yul\":897:1036   */\n      swap3\n      swap2\n      pop\n      pop\n      jump\t// out\n        /* \"#utility.yul\":1042:1159   */\n    tag_263:\n        /* \"#utility.yul\":1151:1152   */\n      0x00\n        /* \"#utility.yul\":1148:1149   */\n      0x00\n        /* \"#utility.yul\":1141:1153   */\n      revert\n        /* \"#utility.yul\":1165:1282   */\n    tag_264:\n        /* \"#utility.yul\":1274:1275   */\n      0x00\n        /* \"#utility.yul\":1271:1272   */\n      0x00\n        /* \"#utility.yul\":1264:1276   */\n      revert\n        /* \"#utility.yul\":1288:1405   */\n    tag_265:\n        /* \"#utility.yul\":1397:1398   */\n      0x00\n        /* \"#utility.yul\":1394:1395   */\n      0x00\n        /* \"#utility.yul\":1387:1399   */\n      revert\n        /* \"#utility.yul\":1428:1996   */\n    tag_266:\n        /* \"#utility.yul\":1501:1509   */\n      0x00\n        /* \"#utility.yul\":1511:1517   */\n      0x00\n        /* \"#utility.yul\":1561:1564   */\n      dup4\n        /* \"#utility.yul\":1554:1558   */\n      0x1f\n        /* \"#utility.yul\":1546:1552   */\n      dup5\n        /* \"#utility.yul\":1542:1559   */\n      add\n        /* \"#utility.yul\":1538:1565   */\n      slt\n        /* \"#utility.yul\":1528:1650   */\n      tag_355\n      jumpi\n        /* \"#utility.yul\":1569:1648   */\n      tag_356\n      tag_263\n      jump\t// in\n    tag_356:\n        /* \"#utility.yul\":1528:1650   */\n    tag_355:\n        /* \"#utility.yul\":1682:1688   */\n      dup3\n        /* \"#utility.yul\":1669:1689   */\n      calldataload\n        /* \"#utility.yul\":1659:1689   */\n      swap1\n      pop\n        /* \"#utility.yul\":1712:1730   */\n      0xffffffffffffffff\n        /* \"#utility.yul\":1704:1710   */\n      dup2\n        /* \"#utility.yul\":1701:1731   */\n      gt\n        /* \"#utility.yul\":1698:1815   */\n      iszero\n      tag_357\n      jumpi\n        /* \"#utility.yul\":1734:1813   */\n      tag_358\n      tag_264\n      jump\t// in\n    tag_358:\n        /* \"#utility.yul\":1698:1815   */\n    tag_357:\n        /* \"#utility.yul\":1848:1852   */\n      0x20\n        /* \"#utility.yul\":1840:1846   */\n      dup4\n        /* \"#utility.yul\":1836:1853   */\n      add\n        /* \"#utility.yul\":1824:1853   */\n      swap2\n      pop\n        /* \"#utility.yul\":1902:1905   */\n      dup4\n        /* \"#utility.yul\":1894:1898   */\n      0x20\n        /* \"#utility.yul\":1886:1892   */\n      dup3\n        /* \"#utility.yul\":1882:1899   */\n      mul\n        /* \"#utility.yul\":1872:1880   */\n      dup4\n        /* \"#utility.yul\":1868:1900   */\n      add\n        /* \"#utility.yul\":1865:1906   */\n      gt\n        /* \"#utility.yul\":1862:1990   */\n      iszero\n      tag_359\n      jumpi\n        /* \"#utility.yul\":1909:1988   */\n      tag_360\n      tag_265\n      jump\t// in\n    tag_360:\n        /* \"#utility.yul\":1862:1990   */\n    tag_359:\n        /* \"#utility.yul\":1428:1996   */\n      swap3\n      pop\n      swap3\n      swap1\n      pop\n      jump\t// out\n        /* \"#utility.yul\":2002:2706   */\n    tag_34:\n        /* \"#utility.yul\":2097:2103   */\n      0x00\n        /* \"#utility.yul\":2105:2111   */\n      0x00\n        /* \"#utility.yul\":2113:2119   */\n      0x00\n        /* \"#utility.yul\":2162:2164   */\n      0x40\n        /* \"#utility.yul\":2150:2159   */\n      dup5\n        /* \"#utility.yul\":2141:2148   */\n      dup7\n        /* \"#utility.yul\":2137:2160   */\n      sub\n        /* \"#utility.yul\":2133:2165   */\n      slt\n        /* \"#utility.yul\":2130:2249   */\n      iszero\n      tag_362\n      jumpi\n        /* \"#utility.yul\":2168:2247   */\n      tag_363\n      tag_259\n      jump\t// in\n    tag_363:\n        /* \"#utility.yul\":2130:2249   */\n    tag_362:\n        /* \"#utility.yul\":2288:2289   */\n      0x00\n        /* \"#utility.yul\":2313:2366   */\n      tag_364\n        /* \"#utility.yul\":2358:2365   */\n      dup7\n        /* \"#utility.yul\":2349:2355   */\n      dup3\n        /* \"#utility.yul\":2338:2347   */\n      dup8\n        /* \"#utility.yul\":2334:2356   */\n      add\n        /* \"#utility.yul\":2313:2366   */\n      tag_262\n      jump\t// in\n    tag_364:\n        /* \"#utility.yul\":2303:2366   */\n      swap4\n      pop\n        /* \"#utility.yul\":2259:2376   */\n      pop\n        /* \"#utility.yul\":2443:2445   */\n      0x20\n        /* \"#utility.yul\":2432:2441   */\n      dup5\n        /* \"#utility.yul\":2428:2446   */\n      add\n        /* \"#utility.yul\":2415:2447   */\n      calldataload\n        /* \"#utility.yul\":2474:2492   */\n      0xffffffffffffffff\n        /* \"#utility.yul\":2466:2472   */\n      dup2\n        /* \"#utility.yul\":2463:2493   */\n      gt\n        /* \"#utility.yul\":2460:2577   */\n      iszero\n      tag_365\n      jumpi\n        /* \"#utility.yul\":2496:2575   */\n      tag_366\n      tag_260\n      jump\t// in\n    tag_366:\n        /* \"#utility.yul\":2460:2577   */\n    tag_365:\n        /* \"#utility.yul\":2609:2689   */\n      tag_367\n        /* \"#utility.yul\":2681:2688   */\n      dup7\n        /* \"#utility.yul\":2672:2678   */\n      dup3\n        /* \"#utility.yul\":2661:2670   */\n      dup8\n        /* \"#utility.yul\":2657:2679   */\n      add\n        /* \"#utility.yul\":2609:2689   */\n      tag_266\n      jump\t// in\n    tag_367:\n        /* \"#utility.yul\":2591:2689   */\n      swap3\n      pop\n      swap3\n      pop\n        /* \"#utility.yul\":2386:2699   */\n      pop\n        /* \"#utility.yul\":2002:2706   */\n      swap3\n      pop\n      swap3\n      pop\n      swap3\n      jump\t// out\n        /* \"#utility.yul\":2712:2805   */\n    tag_267:\n        /* \"#utility.yul\":2748:2755   */\n      0x00\n        /* \"#utility.yul\":2788:2798   */\n      0xffffffff\n        /* \"#utility.yul\":2781:2786   */\n      dup3\n        /* \"#utility.yul\":2777:2799   */\n      and\n        /* \"#utility.yul\":2766:2799   */\n      swap1\n      pop\n        /* \"#utility.yul\":2712:2805   */\n      swap2\n      swap1\n      pop\n      jump\t// out\n        /* \"#utility.yul\":2811:2926   */\n    tag_268:\n        /* \"#utility.yul\":2896:2919   */\n      tag_370\n        /* \"#utility.yul\":2913:2918   */\n      dup2\n        /* \"#utility.yul\":2896:2919   */\n      tag_267\n      jump\t// in\n    tag_370:\n        /* \"#utility.yul\":2891:2894   */\n      dup3\n        /* \"#utility.yul\":2884:2920   */\n      mstore\n        /* \"#utility.yul\":2811:2926   */\n      pop\n      pop\n      jump\t// out\n        /* \"#utility.yul\":2932:3150   */\n    tag_40:\n        /* \"#utility.yul\":3023:3027   */\n      0x00\n        /* \"#utility.yul\":3061:3063   */\n      0x20\n        /* \"#utility.yul\":3050:3059   */\n      dup3\n        /* \"#utility.yul\":3046:3064   */\n      add\n        /* \"#utility.yul\":3038:3064   */\n      swap1\n      pop\n        /* \"#utility.yul\":3074:3143   */\n      tag_372\n        /* \"#utility.yul\":3140:3141   */\n      0x00\n        /* \"#utility.yul\":3129:3138   */\n      dup4\n        /* \"#utility.yul\":3125:3142   */\n      add\n        /* \"#utility.yul\":3116:3122   */\n      dup5\n        /* \"#utility.yul\":3074:3143   */\n      tag_268\n      jump\t// in\n    tag_372:\n        /* \"#utility.yul\":2932:3150   */\n      swap3\n      swap2\n      pop\n      pop\n      jump\t// out\n        /* \"#utility.yul\":3156:3255   */\n    tag_269:\n        /* \"#utility.yul\":3208:3214   */\n      0x00\n        /* \"#utility.yul\":3242:3247   */\n      dup2\n        /* \"#utility.yul\":3236:3248   */\n      mload\n        /* \"#utility.yul\":3226:3248   */\n      swap1\n      pop\n        /* \"#utility.yul\":3156:3255   */\n      swap2\n      swap1\n      pop\n      jump\t// out\n        /* \"#utility.yul\":3261:3430   */\n    tag_270:\n        /* \"#utility.yul\":3345:3356   */\n      0x00\n        /* \"#utility.yul\":3379:3385   */\n      dup3\n        /* \"#utility.yul\":3374:3377   */\n      dup3\n        /* \"#utility.yul\":3367:3386   */\n      mstore\n        /* \"#utility.yul\":3419:3423   */\n      0x20\n        /* \"#utility.yul\":3414:3417   */\n      dup3\n        /* \"#utility.yul\":3410:3424   */\n      add\n        /* \"#utility.yul\":3395:3424   */\n      swap1\n      pop\n        /* \"#utility.yul\":3261:3430   */\n      swap3\n      swap2\n      pop\n      pop\n      jump\t// out\n        /* \"#utility.yul\":3436:3575   */\n    tag_271:\n        /* \"#utility.yul\":3525:3531   */\n      dup3\n        /* \"#utility.yul\":3520:3523   */\n      dup2\n        /* \"#utility.yul\":3515:3518   */\n      dup4\n        /* \"#utility.yul\":3509:3532   */\n      mcopy\n        /* \"#utility.yul\":3566:3567   */\n      0x00\n        /* \"#utility.yul\":3557:3563   */\n      dup4\n        /* \"#utility.yul\":3552:3555   */\n      dup4\n        /* \"#utility.yul\":3548:3564   */\n      add\n        /* \"#utility.yul\":3541:3568   */\n      mstore\n        /* \"#utility.yul\":3436:3575   */\n      pop\n      pop\n      pop\n      jump\t// out\n        /* \"#utility.yul\":3581:3683   */\n    tag_272:\n        /* \"#utility.yul\":3622:3628   */\n      0x00\n        /* \"#utility.yul\":3673:3675   */\n      0x1f\n        /* \"#utility.yul\":3669:3676   */\n      not\n        /* \"#utility.yul\":3664:3666   */\n      0x1f\n        /* \"#utility.yul\":3657:3662   */\n      dup4\n        /* \"#utility.yul\":3653:3667   */\n      add\n        /* \"#utility.yul\":3649:3677   */\n      and\n        /* \"#utility.yul\":3639:3677   */\n      swap1\n      pop\n        /* \"#utility.yul\":3581:3683   */\n      swap2\n      swap1\n      pop\n      jump\t// out\n        /* \"#utility.yul\":3689:4066   */\n    tag_273:\n        /* \"#utility.yul\":3777:3780   */\n      0x00\n        /* \"#utility.yul\":3805:3844   */\n      tag_378\n        /* \"#utility.yul\":3838:3843   */\n      dup3\n        /* \"#utility.yul\":3805:3844   */\n      tag_269\n      jump\t// in\n    tag_378:\n        /* \"#utility.yul\":3860:3931   */\n      tag_379\n        /* \"#utility.yul\":3924:3930   */\n      dup2\n        /* \"#utility.yul\":3919:3922   */\n      dup6\n        /* \"#utility.yul\":3860:3931   */\n      tag_270\n      jump\t// in\n    tag_379:\n        /* \"#utility.yul\":3853:3931   */\n      swap4\n      pop\n        /* \"#utility.yul\":3940:4005   */\n      tag_380\n        /* \"#utility.yul\":3998:4004   */\n      dup2\n        /* \"#utility.yul\":3993:3996   */\n      dup6\n        /* \"#utility.yul\":3986:3990   */\n      0x20\n        /* \"#utility.yul\":3979:3984   */\n      dup7\n        /* \"#utility.yul\":3975:3991   */\n      add\n        /* \"#utility.yul\":3940:4005   */\n      tag_271\n      jump\t// in\n    tag_380:\n        /* \"#utility.yul\":4030:4059   */\n      tag_381\n        /* \"#utility.yul\":4052:4058   */\n      dup2\n        /* \"#utility.yul\":4030:4059   */\n      tag_272\n      jump\t// in\n    tag_381:\n        /* \"#utility.yul\":4025:4028   */\n      dup5\n        /* \"#utility.yul\":4021:4060   */\n      add\n        /* \"#utility.yul\":4014:4060   */\n      swap2\n      pop\n        /* \"#utility.yul\":3781:4066   */\n      pop\n        /* \"#utility.yul\":3689:4066   */\n      swap3\n      swap2\n      pop\n      pop\n      jump\t// out\n        /* \"#utility.yul\":4072:4385   */\n    tag_47:\n        /* \"#utility.yul\":4185:4189   */\n      0x00\n        /* \"#utility.yul\":4223:4225   */\n      0x20\n        /* \"#utility.yul\":4212:4221   */\n      dup3\n        /* \"#utility.yul\":4208:4226   */\n      add\n        /* \"#utility.yul\":4200:4226   */\n      swap1\n      pop\n        /* \"#utility.yul\":4272:4281   */\n      dup2\n        /* \"#utility.yul\":4266:4270   */\n      dup2\n        /* \"#utility.yul\":4262:4282   */\n      sub\n        /* \"#utility.yul\":4258:4259   */\n      0x00\n        /* \"#utility.yul\":4247:4256   */\n      dup4\n        /* \"#utility.yul\":4243:4260   */\n      add\n        /* \"#utility.yul\":4236:4283   */\n      mstore\n        /* \"#utility.yul\":4300:4378   */\n      tag_383\n        /* \"#utility.yul\":4373:4377   */\n      dup2\n        /* \"#utility.yul\":4364:4370   */\n      dup5\n        /* \"#utility.yul\":4300:4378   */\n      tag_273\n      jump\t// in\n    tag_383:\n        /* \"#utility.yul\":4292:4378   */\n      swap1\n      pop\n        /* \"#utility.yul\":4072:4385   */\n      swap3\n      swap2\n      pop\n      pop\n      jump\t// out\n        /* \"#utility.yul\":4391:4468   */\n    tag_274:\n        /* \"#utility.yul\":4428:4435   */\n      0x00\n        /* \"#utility.yul\":4457:4462   */\n      dup2\n        /* \"#utility.yul\":4446:4462   */\n      swap1\n      pop\n        /* \"#utility.yul\":4391:4468   */\n      swap2\n      swap1\n      pop\n      jump\t// out\n        /* \"#utility.yul\":4474:4592   */\n    tag_275:\n        /* \"#utility.yul\":4561:4585   */\n      tag_386\n        /* \"#utility.yul\":4579:4584   */\n      dup2\n        /* \"#utility.yul\":4561:4585   */\n      tag_274\n      jump\t// in\n    tag_386:\n        /* \"#utility.yul\":4556:4559   */\n      dup3\n        /* \"#utility.yul\":4549:4586   */\n      mstore\n        /* \"#utility.yul\":4474:4592   */\n      pop\n      pop\n      jump\t// out\n        /* \"#utility.yul\":4598:4820   */\n    tag_52:\n        /* \"#utility.yul\":4691:4695   */\n      0x00\n        /* \"#utility.yul\":4729:4731   */\n      0x20\n        /* \"#utility.yul\":4718:4727   */\n      dup3\n        /* \"#utility.yul\":4714:4732   */\n      add\n        /* \"#utility.yul\":4706:4732   */\n      swap1\n      pop\n        /* \"#utility.yul\":4742:4813   */\n      tag_388\n        /* \"#utility.yul\":4810:4811   */\n      0x00\n        /* \"#utility.yul\":4799:4808   */\n      dup4\n        /* \"#utility.yul\":4795:4812   */\n      add\n        /* \"#utility.yul\":4786:4792   */\n      dup5\n        /* \"#utility.yul\":4742:4813   */\n      tag_275\n      jump\t// in\n    tag_388:\n        /* \"#utility.yul\":4598:4820   */\n      swap3\n      swap2\n      pop\n      pop\n      jump\t// out\n        /* \"#utility.yul\":4826:4952   */\n    tag_276:\n        /* \"#utility.yul\":4863:4870   */\n      0x00\n        /* \"#utility.yul\":4903:4945   */\n      0xffffffffffffffffffffffffffffffffffffffff\n        /* \"#utility.yul\":4896:4901   */\n      dup3\n        /* \"#utility.yul\":4892:4946   */\n      and\n        /* \"#utility.yul\":4881:4946   */\n      swap1\n      pop\n        /* \"#utility.yul\":4826:4952   */\n      swap2\n      swap1\n      pop\n      jump\t// out\n        /* \"#utility.yul\":4958:5054   */\n    tag_277:\n        /* \"#utility.yul\":4995:5002   */\n      0x00\n        /* \"#utility.yul\":5024:5048   */\n      tag_391\n        /* \"#utility.yul\":5042:5047   */\n      dup3\n        /* \"#utility.yul\":5024:5048   */\n      tag_276\n      jump\t// in\n    tag_391:\n        /* \"#utility.yul\":5013:5048   */\n      swap1\n      pop\n        /* \"#utility.yul\":4958:5054   */\n      swap2\n      swap1\n      pop\n      jump\t// out\n        /* \"#utility.yul\":5060:5178   */\n    tag_278:\n        /* \"#utility.yul\":5147:5171   */\n      tag_393\n        /* \"#utility.yul\":5165:5170   */\n      dup2\n        /* \"#utility.yul\":5147:5171   */\n      tag_277\n      jump\t// in\n    tag_393:\n        /* \"#utility.yul\":5142:5145   */\n      dup3\n        /* \"#utility.yul\":5135:5172   */\n      mstore\n        /* \"#utility.yul\":5060:5178   */\n      pop\n      pop\n      jump\t// out\n        /* \"#utility.yul\":5184:5270   */\n    tag_279:\n        /* \"#utility.yul\":5219:5226   */\n      0x00\n        /* \"#utility.yul\":5259:5263   */\n      0xff\n        /* \"#utility.yul\":5252:5257   */\n      dup3\n        /* \"#utility.yul\":5248:5264   */\n      and\n        /* \"#utility.yul\":5237:5264   */\n      swap1\n      pop\n        /* \"#utility.yul\":5184:5270   */\n      swap2\n      swap1\n      pop\n      jump\t// out\n        /* \"#utility.yul\":5276:5388   */\n    tag_280:\n        /* \"#utility.yul\":5359:5381   */\n      tag_396\n        /* \"#utility.yul\":5375:5380   */\n      dup2\n        /* \"#utility.yul\":5359:5381   */\n      tag_279\n      jump\t// in\n    tag_396:\n        /* \"#utility.yul\":5354:5357   */\n      dup3\n        /* \"#utility.yul\":5347:5382   */\n      mstore\n        /* \"#utility.yul\":5276:5388   */\n      pop\n      pop\n      jump\t// out\n        /* \"#utility.yul\":5394:6133   */\n    tag_70:\n        /* \"#utility.yul\":5611:5615   */\n      0x00\n        /* \"#utility.yul\":5649:5652   */\n      0xa0\n        /* \"#utility.yul\":5638:5647   */\n      dup3\n        /* \"#utility.yul\":5634:5653   */\n      add\n        /* \"#utility.yul\":5626:5653   */\n      swap1\n      pop\n        /* \"#utility.yul\":5663:5734   */\n      tag_398\n        /* \"#utility.yul\":5731:5732   */\n      0x00\n        /* \"#utility.yul\":5720:5729   */\n      dup4\n        /* \"#utility.yul\":5716:5733   */\n      add\n        /* \"#utility.yul\":5707:5713   */\n      dup9\n        /* \"#utility.yul\":5663:5734   */\n      tag_278\n      jump\t// in\n    tag_398:\n        /* \"#utility.yul\":5744:5812   */\n      tag_399\n        /* \"#utility.yul\":5808:5810   */\n      0x20\n        /* \"#utility.yul\":5797:5806   */\n      dup4\n        /* \"#utility.yul\":5793:5811   */\n      add\n        /* \"#utility.yul\":5784:5790   */\n      dup8\n        /* \"#utility.yul\":5744:5812   */\n      tag_280\n      jump\t// in\n    tag_399:\n        /* \"#utility.yul\":5822:5890   */\n      tag_400\n        /* \"#utility.yul\":5886:5888   */\n      0x40\n        /* \"#utility.yul\":5875:5884   */\n      dup4\n        /* \"#utility.yul\":5871:5889   */\n      add\n        /* \"#utility.yul\":5862:5868   */\n      dup7\n        /* \"#utility.yul\":5822:5890   */\n      tag_280\n      jump\t// in\n    tag_400:\n        /* \"#utility.yul\":5937:5946   */\n      dup2\n        /* \"#utility.yul\":5931:5935   */\n      dup2\n        /* \"#utility.yul\":5927:5947   */\n      sub\n        /* \"#utility.yul\":5922:5924   */\n      0x60\n        /* \"#utility.yul\":5911:5920   */\n      dup4\n        /* \"#utility.yul\":5907:5925   */\n      add\n        /* \"#utility.yul\":5900:5948   */\n      mstore\n        /* \"#utility.yul\":5965:6043   */\n      tag_401\n        /* \"#utility.yul\":6038:6042   */\n      dup2\n        /* \"#utility.yul\":6029:6035   */\n      dup6\n        /* \"#utility.yul\":5965:6043   */\n      tag_273\n      jump\t// in\n    tag_401:\n        /* \"#utility.yul\":5957:6043   */\n      swap1\n      pop\n        /* \"#utility.yul\":6053:6126   */\n      tag_402\n        /* \"#utility.yul\":6121:6124   */\n      0x80\n        /* \"#utility.yul\":6110:6119   */\n      dup4\n        /* \"#utility.yul\":6106:6125   */\n      add\n        /* \"#utility.yul\":6097:6103   */\n      dup5\n        /* \"#utility.yul\":6053:6126   */\n      tag_257\n      jump\t// in\n    tag_402:\n        /* \"#utility.yul\":5394:6133   */\n      swap7\n      swap6\n      pop\n      pop\n      pop\n      pop\n      pop\n      pop\n      jump\t// out\n        /* \"#utility.yul\":6139:6361   */\n    tag_82:\n        /* \"#utility.yul\":6232:6236   */\n      0x00\n        /* \"#utility.yul\":6270:6272   */\n      0x20\n        /* \"#utility.yul\":6259:6268   */\n      dup3\n        /* \"#utility.yul\":6255:6273   */\n      add\n        /* \"#utility.yul\":6247:6273   */\n      swap1\n      pop\n        /* \"#utility.yul\":6283:6354   */\n      tag_404\n        /* \"#utility.yul\":6351:6352   */\n      0x00\n        /* \"#utility.yul\":6340:6349   */\n      dup4\n        /* \"#utility.yul\":6336:6353   */\n      add\n        /* \"#utility.yul\":6327:6333   */\n      dup5\n        /* \"#utility.yul\":6283:6354   */\n      tag_278\n      jump\t// in\n    tag_404:\n        /* \"#utility.yul\":6139:6361   */\n      swap3\n      swap2\n      pop\n      pop\n      jump\t// out\n        /* \"#utility.yul\":6367:6489   */\n    tag_281:\n        /* \"#utility.yul\":6440:6464   */\n      tag_406\n        /* \"#utility.yul\":6458:6463   */\n      dup2\n        /* \"#utility.yul\":6440:6464   */\n      tag_277\n      jump\t// in\n    tag_406:\n        /* \"#utility.yul\":6433:6438   */\n      dup2\n        /* \"#utility.yul\":6430:6465   */\n      eq\n        /* \"#utility.yul\":6420:6483   */\n      tag_407\n      jumpi\n        /* \"#utility.yul\":6479:6480   */\n      0x00\n        /* \"#utility.yul\":6476:6477   */\n      0x00\n        /* \"#utility.yul\":6469:6481   */\n      revert\n        /* \"#utility.yul\":6420:6483   */\n    tag_407:\n        /* \"#utility.yul\":6367:6489   */\n      pop\n      jump\t// out\n        /* \"#utility.yul\":6495:6634   */\n    tag_282:\n        /* \"#utility.yul\":6541:6546   */\n      0x00\n        /* \"#utility.yul\":6579:6585   */\n      dup2\n        /* \"#utility.yul\":6566:6586   */\n      calldataload\n        /* \"#utility.yul\":6557:6586   */\n      swap1\n      pop\n        /* \"#utility.yul\":6595:6628   */\n      tag_409\n        /* \"#utility.yul\":6622:6627   */\n      dup2\n        /* \"#utility.yul\":6595:6628   */\n      tag_281\n      jump\t// in\n    tag_409:\n        /* \"#utility.yul\":6495:6634   */\n      swap3\n      swap2\n      pop\n      pop\n      jump\t// out\n        /* \"#utility.yul\":6640:6969   */\n    tag_86:\n        /* \"#utility.yul\":6699:6705   */\n      0x00\n        /* \"#utility.yul\":6748:6750   */\n      0x20\n        /* \"#utility.yul\":6736:6745   */\n      dup3\n        /* \"#utility.yul\":6727:6734   */\n      dup5\n        /* \"#utility.yul\":6723:6746   */\n      sub\n        /* \"#utility.yul\":6719:6751   */\n      slt\n        /* \"#utility.yul\":6716:6835   */\n      iszero\n      tag_411\n      jumpi\n        /* \"#utility.yul\":6754:6833   */\n      tag_412\n      tag_259\n      jump\t// in\n    tag_412:\n        /* \"#utility.yul\":6716:6835   */\n    tag_411:\n        /* \"#utility.yul\":6874:6875   */\n      0x00\n        /* \"#utility.yul\":6899:6952   */\n      tag_413\n        /* \"#utility.yul\":6944:6951   */\n      dup5\n        /* \"#utility.yul\":6935:6941   */\n      dup3\n        /* \"#utility.yul\":6924:6933   */\n      dup6\n        /* \"#utility.yul\":6920:6942   */\n      add\n        /* \"#utility.yul\":6899:6952   */\n      tag_282\n      jump\t// in\n    tag_413:\n        /* \"#utility.yul\":6889:6952   */\n      swap2\n      pop\n        /* \"#utility.yul\":6845:6962   */\n      pop\n        /* \"#utility.yul\":6640:6969   */\n      swap3\n      swap2\n      pop\n      pop\n      jump\t// out\n        /* \"#utility.yul\":6975:7035   */\n    tag_283:\n        /* \"#utility.yul\":7003:7006   */\n      0x00\n        /* \"#utility.yul\":7024:7029   */\n      dup2\n        /* \"#utility.yul\":7017:7029   */\n      swap1\n      pop\n        /* \"#utility.yul\":6975:7035   */\n      swap2\n      swap1\n      pop\n      jump\t// out\n        /* \"#utility.yul\":7041:7183   */\n    tag_284:\n        /* \"#utility.yul\":7091:7100   */\n      0x00\n        /* \"#utility.yul\":7124:7177   */\n      tag_416\n        /* \"#utility.yul\":7142:7176   */\n      tag_417\n        /* \"#utility.yul\":7151:7175   */\n      tag_418\n        /* \"#utility.yul\":7169:7174   */\n      dup5\n        /* \"#utility.yul\":7151:7175   */\n      tag_276\n      jump\t// in\n    tag_418:\n        /* \"#utility.yul\":7142:7176   */\n      tag_283\n      jump\t// in\n    tag_417:\n        /* \"#utility.yul\":7124:7177   */\n      tag_276\n      jump\t// in\n    tag_416:\n        /* \"#utility.yul\":7111:7177   */\n      swap1\n      pop\n        /* \"#utility.yul\":7041:7183   */\n      swap2\n      swap1\n      pop\n      jump\t// out\n        /* \"#utility.yul\":7189:7315   */\n    tag_285:\n        /* \"#utility.yul\":7239:7248   */\n      0x00\n        /* \"#utility.yul\":7272:7309   */\n      tag_420\n        /* \"#utility.yul\":7303:7308   */\n      dup3\n        /* \"#utility.yul\":7272:7309   */\n      tag_284\n      jump\t// in\n    tag_420:\n        /* \"#utility.yul\":7259:7309   */\n      swap1\n      pop\n        /* \"#utility.yul\":7189:7315   */\n      swap2\n      swap1\n      pop\n      jump\t// out\n        /* \"#utility.yul\":7321:7476   */\n    tag_286:\n        /* \"#utility.yul\":7400:7409   */\n      0x00\n        /* \"#utility.yul\":7433:7470   */\n      tag_422\n        /* \"#utility.yul\":7464:7469   */\n      dup3\n        /* \"#utility.yul\":7433:7470   */\n      tag_285\n      jump\t// in\n    tag_422:\n        /* \"#utility.yul\":7420:7470   */\n      swap1\n      pop\n        /* \"#utility.yul\":7321:7476   */\n      swap2\n      swap1\n      pop\n      jump\t// out\n        /* \"#utility.yul\":7482:7671   */\n    tag_287:\n        /* \"#utility.yul\":7598:7664   */\n      tag_424\n        /* \"#utility.yul\":7658:7663   */\n      dup2\n        /* \"#utility.yul\":7598:7664   */\n      tag_286\n      jump\t// in\n    tag_424:\n        /* \"#utility.yul\":7593:7596   */\n      dup3\n        /* \"#utility.yul\":7586:7665   */\n      mstore\n        /* \"#utility.yul\":7482:7671   */\n      pop\n      pop\n      jump\t// out\n        /* \"#utility.yul\":7677:7957   */\n    tag_92:\n        /* \"#utility.yul\":7799:7803   */\n      0x00\n        /* \"#utility.yul\":7837:7839   */\n      0x20\n        /* \"#utility.yul\":7826:7835   */\n      dup3\n        /* \"#utility.yul\":7822:7840   */\n      add\n        /* \"#utility.yul\":7814:7840   */\n      swap1\n      pop\n        /* \"#utility.yul\":7850:7950   */\n      tag_426\n        /* \"#utility.yul\":7947:7948   */\n      0x00\n        /* \"#utility.yul\":7936:7945   */\n      dup4\n        /* \"#utility.yul\":7932:7949   */\n      add\n        /* \"#utility.yul\":7923:7929   */\n      dup5\n        /* \"#utility.yul\":7850:7950   */\n      tag_287\n      jump\t// in\n    tag_426:\n        /* \"#utility.yul\":7677:7957   */\n      swap3\n      swap2\n      pop\n      pop\n      jump\t// out\n        /* \"#utility.yul\":7963:8052   */\n    tag_288:\n        /* \"#utility.yul\":7999:8006   */\n      0x00\n        /* \"#utility.yul\":8039:8045   */\n      0xffff\n        /* \"#utility.yul\":8032:8037   */\n      dup3\n        /* \"#utility.yul\":8028:8046   */\n      and\n        /* \"#utility.yul\":8017:8046   */\n      swap1\n      pop\n        /* \"#utility.yul\":7963:8052   */\n      swap2\n      swap1\n      pop\n      jump\t// out\n        /* \"#utility.yul\":8058:8173   */\n    tag_289:\n        /* \"#utility.yul\":8143:8166   */\n      tag_429\n        /* \"#utility.yul\":8160:8165   */\n      dup2\n        /* \"#utility.yul\":8143:8166   */\n      tag_288\n      jump\t// in\n    tag_429:\n        /* \"#utility.yul\":8138:8141   */\n      dup3\n        /* \"#utility.yul\":8131:8167   */\n      mstore\n        /* \"#utility.yul\":8058:8173   */\n      pop\n      pop\n      jump\t// out\n        /* \"#utility.yul\":8179:8397   */\n    tag_101:\n        /* \"#utility.yul\":8270:8274   */\n      0x00\n        /* \"#utility.yul\":8308:8310   */\n      0x20\n        /* \"#utility.yul\":8297:8306   */\n      dup3\n        /* \"#utility.yul\":8293:8311   */\n      add\n        /* \"#utility.yul\":8285:8311   */\n      swap1\n      pop\n        /* \"#utility.yul\":8321:8390   */\n      tag_431\n        /* \"#utility.yul\":8387:8388   */\n      0x00\n        /* \"#utility.yul\":8376:8385   */\n      dup4\n        /* \"#utility.yul\":8372:8389   */\n      add\n        /* \"#utility.yul\":8363:8369   */\n      dup5\n        /* \"#utility.yul\":8321:8390   */\n      tag_289\n      jump\t// in\n    tag_431:\n        /* \"#utility.yul\":8179:8397   */\n      swap3\n      swap2\n      pop\n      pop\n      jump\t// out\n        /* \"#utility.yul\":8403:8735   */\n    tag_114:\n        /* \"#utility.yul\":8524:8528   */\n      0x00\n        /* \"#utility.yul\":8562:8564   */\n      0x40\n        /* \"#utility.yul\":8551:8560   */\n      dup3\n        /* \"#utility.yul\":8547:8565   */\n      add\n        /* \"#utility.yul\":8539:8565   */\n      swap1\n      pop\n        /* \"#utility.yul\":8575:8646   */\n      tag_433\n        /* \"#utility.yul\":8643:8644   */\n      0x00\n        /* \"#utility.yul\":8632:8641   */\n      dup4\n        /* \"#utility.yul\":8628:8645   */\n      add\n        /* \"#utility.yul\":8619:8625   */\n      dup6\n        /* \"#utility.yul\":8575:8646   */\n      tag_278\n      jump\t// in\n    tag_433:\n        /* \"#utility.yul\":8656:8728   */\n      tag_434\n        /* \"#utility.yul\":8724:8726   */\n      0x20\n        /* \"#utility.yul\":8713:8722   */\n      dup4\n        /* \"#utility.yul\":8709:8727   */\n      add\n        /* \"#utility.yul\":8700:8706   */\n      dup5\n        /* \"#utility.yul\":8656:8728   */\n      tag_278\n      jump\t// in\n    tag_434:\n        /* \"#utility.yul\":8403:8735   */\n      swap4\n      swap3\n      pop\n      pop\n      pop\n      jump\t// out\n        /* \"#utility.yul\":8741:8913   */\n    tag_290:\n        /* \"#utility.yul\":8881:8905   */\n      0x4d7573742062652070726f706f736564206f776e657200000000000000000000\n        /* \"#utility.yul\":8877:8878   */\n      0x00\n        /* \"#utility.yul\":8869:8875   */\n      dup3\n        /* \"#utility.yul\":8865:8879   */\n      add\n        /* \"#utility.yul\":8858:8906   */\n      mstore\n        /* \"#utility.yul\":8741:8913   */\n      pop\n      jump\t// out\n        /* \"#utility.yul\":8919:9285   */\n    tag_291:\n        /* \"#utility.yul\":9061:9064   */\n      0x00\n        /* \"#utility.yul\":9082:9149   */\n      tag_437\n        /* \"#utility.yul\":9146:9148   */\n      0x16\n        /* \"#utility.yul\":9141:9144   */\n      dup4\n        /* \"#utility.yul\":9082:9149   */\n      tag_270\n      jump\t// in\n    tag_437:\n        /* \"#utility.yul\":9075:9149   */\n      swap2\n      pop\n        /* \"#utility.yul\":9158:9251   */\n      tag_438\n        /* \"#utility.yul\":9247:9250   */\n      dup3\n        /* \"#utility.yul\":9158:9251   */\n      tag_290\n      jump\t// in\n    tag_438:\n        /* \"#utility.yul\":9276:9278   */\n      0x20\n        /* \"#utility.yul\":9271:9274   */\n      dup3\n        /* \"#utility.yul\":9267:9279   */\n      add\n        /* \"#utility.yul\":9260:9279   */\n      swap1\n      pop\n        /* \"#utility.yul\":8919:9285   */\n      swap2\n      swap1\n      pop\n      jump\t// out\n        /* \"#utility.yul\":9291:9710   */\n    tag_134:\n        /* \"#utility.yul\":9457:9461   */\n      0x00\n        /* \"#utility.yul\":9495:9497   */\n      0x20\n        /* \"#utility.yul\":9484:9493   */\n      dup3\n        /* \"#utility.yul\":9480:9498   */\n      add\n        /* \"#utility.yul\":9472:9498   */\n      swap1\n      pop\n        /* \"#utility.yul\":9544:9553   */\n      dup2\n        /* \"#utility.yul\":9538:9542   */\n      dup2\n        /* \"#utility.yul\":9534:9554   */\n      sub\n        /* \"#utility.yul\":9530:9531   */\n      0x00\n        /* \"#utility.yul\":9519:9528   */\n      dup4\n        /* \"#utility.yul\":9515:9532   */\n      add\n        /* \"#utility.yul\":9508:9555   */\n      mstore\n        /* \"#utility.yul\":9572:9703   */\n      tag_440\n        /* \"#utility.yul\":9698:9702   */\n      dup2\n        /* \"#utility.yul\":9572:9703   */\n      tag_291\n      jump\t// in\n    tag_440:\n        /* \"#utility.yul\":9564:9703   */\n      swap1\n      pop\n        /* \"#utility.yul\":9291:9710   */\n      swap2\n      swap1\n      pop\n      jump\t// out\n        /* \"#utility.yul\":9716:9896   */\n    tag_292:\n        /* \"#utility.yul\":9764:9841   */\n      0x4e487b7100000000000000000000000000000000000000000000000000000000\n        /* \"#utility.yul\":9761:9762   */\n      0x00\n        /* \"#utility.yul\":9754:9842   */\n      mstore\n        /* \"#utility.yul\":9861:9865   */\n      0x22\n        /* \"#utility.yul\":9858:9859   */\n      0x04\n        /* \"#utility.yul\":9851:9866   */\n      mstore\n        /* \"#utility.yul\":9885:9889   */\n      0x24\n        /* \"#utility.yul\":9882:9883   */\n      0x00\n        /* \"#utility.yul\":9875:9890   */\n      revert\n        /* \"#utility.yul\":9902:10222   */\n    tag_136:\n        /* \"#utility.yul\":9946:9952   */\n      0x00\n        /* \"#utility.yul\":9983:9984   */\n      0x02\n        /* \"#utility.yul\":9977:9981   */\n      dup3\n        /* \"#utility.yul\":9973:9985   */\n      div\n        /* \"#utility.yul\":9963:9985   */\n      swap1\n      pop\n        /* \"#utility.yul\":10030:10031   */\n      0x01\n        /* \"#utility.yul\":10024:10028   */\n      dup3\n        /* \"#utility.yul\":10020:10032   */\n      and\n        /* \"#utility.yul\":10051:10069   */\n      dup1\n        /* \"#utility.yul\":10041:10122   */\n      tag_443\n      jumpi\n        /* \"#utility.yul\":10107:10111   */\n      0x7f\n        /* \"#utility.yul\":10099:10105   */\n      dup3\n        /* \"#utility.yul\":10095:10112   */\n      and\n        /* \"#utility.yul\":10085:10112   */\n      swap2\n      pop\n        /* \"#utility.yul\":10041:10122   */\n    tag_443:\n        /* \"#utility.yul\":10169:10171   */\n      0x20\n        /* \"#utility.yul\":10161:10167   */\n      dup3\n        /* \"#utility.yul\":10158:10172   */\n      lt\n        /* \"#utility.yul\":10138:10156   */\n      dup2\n        /* \"#utility.yul\":10135:10173   */\n      sub\n        /* \"#utility.yul\":10132:10216   */\n      tag_444\n      jumpi\n        /* \"#utility.yul\":10188:10206   */\n      tag_445\n      tag_292\n      jump\t// in\n    tag_445:\n        /* \"#utility.yul\":10132:10216   */\n    tag_444:\n        /* \"#utility.yul\":9953:10222   */\n      pop\n        /* \"#utility.yul\":9902:10222   */\n      swap2\n      swap1\n      pop\n      jump\t// out\n        /* \"#utility.yul\":10228:10375   */\n    tag_293:\n        /* \"#utility.yul\":10329:10340   */\n      0x00\n        /* \"#utility.yul\":10366:10369   */\n      dup2\n        /* \"#utility.yul\":10351:10369   */\n      swap1\n      pop\n        /* \"#utility.yul\":10228:10375   */\n      swap3\n      swap2\n      pop\n      pop\n      jump\t// out\n        /* \"#utility.yul\":10381:10495   */\n    tag_294:\n      pop\n      jump\t// out\n        /* \"#utility.yul\":10501:10899   */\n    tag_295:\n        /* \"#utility.yul\":10660:10663   */\n      0x00\n        /* \"#utility.yul\":10681:10764   */\n      tag_449\n        /* \"#utility.yul\":10762:10763   */\n      0x00\n        /* \"#utility.yul\":10757:10760   */\n      dup4\n        /* \"#utility.yul\":10681:10764   */\n      tag_293\n      jump\t// in\n    tag_449:\n        /* \"#utility.yul\":10674:10764   */\n      swap2\n      pop\n        /* \"#utility.yul\":10773:10866   */\n      tag_450\n        /* \"#utility.yul\":10862:10865   */\n      dup3\n        /* \"#utility.yul\":10773:10866   */\n      tag_294\n      jump\t// in\n    tag_450:\n        /* \"#utility.yul\":10891:10892   */\n      0x00\n        /* \"#utility.yul\":10886:10889   */\n      dup3\n        /* \"#utility.yul\":10882:10893   */\n      add\n        /* \"#utility.yul\":10875:10893   */\n      swap1\n      pop\n        /* \"#utility.yul\":10501:10899   */\n      swap2\n      swap1\n      pop\n      jump\t// out\n        /* \"#utility.yul\":10905:11284   */\n    tag_148:\n        /* \"#utility.yul\":11089:11092   */\n      0x00\n        /* \"#utility.yul\":11111:11258   */\n      tag_452\n        /* \"#utility.yul\":11254:11257   */\n      dup3\n        /* \"#utility.yul\":11111:11258   */\n      tag_295\n      jump\t// in\n    tag_452:\n        /* \"#utility.yul\":11104:11258   */\n      swap2\n      pop\n        /* \"#utility.yul\":11275:11278   */\n      dup2\n        /* \"#utility.yul\":11268:11278   */\n      swap1\n      pop\n        /* \"#utility.yul\":10905:11284   */\n      swap2\n      swap1\n      pop\n      jump\t// out\n        /* \"#utility.yul\":11290:11457   */\n    tag_296:\n        /* \"#utility.yul\":11430:11449   */\n      0x5769746864726177616c206661696c6564000000000000000000000000000000\n        /* \"#utility.yul\":11426:11427   */\n      0x00\n        /* \"#utility.yul\":11418:11424   */\n      dup3\n        /* \"#utility.yul\":11414:11428   */\n      add\n        /* \"#utility.yul\":11407:11450   */\n      mstore\n        /* \"#utility.yul\":11290:11457   */\n      pop\n      jump\t// out\n        /* \"#utility.yul\":11463:11829   */\n    tag_297:\n        /* \"#utility.yul\":11605:11608   */\n      0x00\n        /* \"#utility.yul\":11626:11693   */\n      tag_455\n        /* \"#utility.yul\":11690:11692   */\n      0x11\n        /* \"#utility.yul\":11685:11688   */\n      dup4\n        /* \"#utility.yul\":11626:11693   */\n      tag_270\n      jump\t// in\n    tag_455:\n        /* \"#utility.yul\":11619:11693   */\n      swap2\n      pop\n        /* \"#utility.yul\":11702:11795   */\n      tag_456\n        /* \"#utility.yul\":11791:11794   */\n      dup3\n        /* \"#utility.yul\":11702:11795   */\n      tag_296\n      jump\t// in\n    tag_456:\n        /* \"#utility.yul\":11820:11822   */\n      0x20\n        /* \"#utility.yul\":11815:11818   */\n      dup3\n        /* \"#utility.yul\":11811:11823   */\n      add\n        /* \"#utility.yul\":11804:11823   */\n      swap1\n      pop\n        /* \"#utility.yul\":11463:11829   */\n      swap2\n      swap1\n      pop\n      jump\t// out\n        /* \"#utility.yul\":11835:12254   */\n    tag_154:\n        /* \"#utility.yul\":12001:12005   */\n      0x00\n        /* \"#utility.yul\":12039:12041   */\n      0x20\n        /* \"#utility.yul\":12028:12037   */\n      dup3\n        /* \"#utility.yul\":12024:12042   */\n      add\n        /* \"#utility.yul\":12016:12042   */\n      swap1\n      pop\n        /* \"#utility.yul\":12088:12097   */\n      dup2\n        /* \"#utility.yul\":12082:12086   */\n      dup2\n        /* \"#utility.yul\":12078:12098   */\n      sub\n        /* \"#utility.yul\":12074:12075   */\n      0x00\n        /* \"#utility.yul\":12063:12072   */\n      dup4\n        /* \"#utility.yul\":12059:12076   */\n      add\n        /* \"#utility.yul\":12052:12099   */\n      mstore\n        /* \"#utility.yul\":12116:12247   */\n      tag_458\n        /* \"#utility.yul\":12242:12246   */\n      dup2\n        /* \"#utility.yul\":12116:12247   */\n      tag_297\n      jump\t// in\n    tag_458:\n        /* \"#utility.yul\":12108:12247   */\n      swap1\n      pop\n        /* \"#utility.yul\":11835:12254   */\n      swap2\n      swap1\n      pop\n      jump\t// out\n        /* \"#utility.yul\":12260:12702   */\n    tag_163:\n        /* \"#utility.yul\":12409:12413   */\n      0x00\n        /* \"#utility.yul\":12447:12449   */\n      0x60\n        /* \"#utility.yul\":12436:12445   */\n      dup3\n        /* \"#utility.yul\":12432:12450   */\n      add\n        /* \"#utility.yul\":12424:12450   */\n      swap1\n      pop\n        /* \"#utility.yul\":12460:12531   */\n      tag_460\n        /* \"#utility.yul\":12528:12529   */\n      0x00\n        /* \"#utility.yul\":12517:12526   */\n      dup4\n        /* \"#utility.yul\":12513:12530   */\n      add\n        /* \"#utility.yul\":12504:12510   */\n      dup7\n        /* \"#utility.yul\":12460:12531   */\n      tag_278\n      jump\t// in\n    tag_460:\n        /* \"#utility.yul\":12541:12613   */\n      tag_461\n        /* \"#utility.yul\":12609:12611   */\n      0x20\n        /* \"#utility.yul\":12598:12607   */\n      dup4\n        /* \"#utility.yul\":12594:12612   */\n      add\n        /* \"#utility.yul\":12585:12591   */\n      dup6\n        /* \"#utility.yul\":12541:12613   */\n      tag_278\n      jump\t// in\n    tag_461:\n        /* \"#utility.yul\":12623:12695   */\n      tag_462\n        /* \"#utility.yul\":12691:12693   */\n      0x40\n        /* \"#utility.yul\":12680:12689   */\n      dup4\n        /* \"#utility.yul\":12676:12694   */\n      add\n        /* \"#utility.yul\":12667:12673   */\n      dup5\n        /* \"#utility.yul\":12623:12695   */\n      tag_278\n      jump\t// in\n    tag_462:\n        /* \"#utility.yul\":12260:12702   */\n      swap5\n      swap4\n      pop\n      pop\n      pop\n      pop\n      jump\t// out\n        /* \"#utility.yul\":12708:12888   */\n    tag_182:\n        /* \"#utility.yul\":12756:12833   */\n      0x4e487b7100000000000000000000000000000000000000000000000000000000\n        /* \"#utility.yul\":12753:12754   */\n      0x00\n        /* \"#utility.yul\":12746:12834   */\n      mstore\n        /* \"#utility.yul\":12853:12857   */\n      0x32\n        /* \"#utility.yul\":12850:12851   */\n      0x04\n        /* \"#utility.yul\":12843:12858   */\n      mstore\n        /* \"#utility.yul\":12877:12881   */\n      0x24\n        /* \"#utility.yul\":12874:12875   */\n      0x00\n        /* \"#utility.yul\":12867:12882   */\n      revert\n        /* \"#utility.yul\":12894:13074   */\n    tag_298:\n        /* \"#utility.yul\":12942:13019   */\n      0x4e487b7100000000000000000000000000000000000000000000000000000000\n        /* \"#utility.yul\":12939:12940   */\n      0x00\n        /* \"#utility.yul\":12932:13020   */\n      mstore\n        /* \"#utility.yul\":13039:13043   */\n      0x12\n        /* \"#utility.yul\":13036:13037   */\n      0x04\n        /* \"#utility.yul\":13029:13044   */\n      mstore\n        /* \"#utility.yul\":13063:13067   */\n      0x24\n        /* \"#utility.yul\":13060:13061   */\n      0x00\n        /* \"#utility.yul\":13053:13068   */\n      revert\n        /* \"#utility.yul\":13080:13256   */\n    tag_184:\n        /* \"#utility.yul\":13112:13113   */\n      0x00\n        /* \"#utility.yul\":13129:13149   */\n      tag_466\n        /* \"#utility.yul\":13147:13148   */\n      dup3\n        /* \"#utility.yul\":13129:13149   */\n      tag_256\n      jump\t// in\n    tag_466:\n        /* \"#utility.yul\":13124:13149   */\n      swap2\n      pop\n        /* \"#utility.yul\":13163:13183   */\n      tag_467\n        /* \"#utility.yul\":13181:13182   */\n      dup4\n        /* \"#utility.yul\":13163:13183   */\n      tag_256\n      jump\t// in\n    tag_467:\n        /* \"#utility.yul\":13158:13183   */\n      swap3\n      pop\n        /* \"#utility.yul\":13202:13203   */\n      dup3\n        /* \"#utility.yul\":13192:13227   */\n      tag_468\n      jumpi\n        /* \"#utility.yul\":13207:13225   */\n      tag_469\n      tag_298\n      jump\t// in\n    tag_469:\n        /* \"#utility.yul\":13192:13227   */\n    tag_468:\n        /* \"#utility.yul\":13248:13249   */\n      dup3\n        /* \"#utility.yul\":13245:13246   */\n      dup3\n        /* \"#utility.yul\":13241:13250   */\n      mod\n        /* \"#utility.yul\":13236:13250   */\n      swap1\n      pop\n        /* \"#utility.yul\":13080:13256   */\n      swap3\n      swap2\n      pop\n      pop\n      jump\t// out\n        /* \"#utility.yul\":13262:13442   */\n    tag_299:\n        /* \"#utility.yul\":13310:13387   */\n      0x4e487b7100000000000000000000000000000000000000000000000000000000\n        /* \"#utility.yul\":13307:13308   */\n      0x00\n        /* \"#utility.yul\":13300:13388   */\n      mstore\n        /* \"#utility.yul\":13407:13411   */\n      0x11\n        /* \"#utility.yul\":13404:13405   */\n      0x04\n        /* \"#utility.yul\":13397:13412   */\n      mstore\n        /* \"#utility.yul\":13431:13435   */\n      0x24\n        /* \"#utility.yul\":13428:13429   */\n      0x00\n        /* \"#utility.yul\":13421:13436   */\n      revert\n        /* \"#utility.yul\":13448:13858   */\n    tag_194:\n        /* \"#utility.yul\":13488:13495   */\n      0x00\n        /* \"#utility.yul\":13511:13531   */\n      tag_472\n        /* \"#utility.yul\":13529:13530   */\n      dup3\n        /* \"#utility.yul\":13511:13531   */\n      tag_256\n      jump\t// in\n    tag_472:\n        /* \"#utility.yul\":13506:13531   */\n      swap2\n      pop\n        /* \"#utility.yul\":13545:13565   */\n      tag_473\n        /* \"#utility.yul\":13563:13564   */\n      dup4\n        /* \"#utility.yul\":13545:13565   */\n      tag_256\n      jump\t// in\n    tag_473:\n        /* \"#utility.yul\":13540:13565   */\n      swap3\n      pop\n        /* \"#utility.yul\":13600:13601   */\n      dup3\n        /* \"#utility.yul\":13597:13598   */\n      dup3\n        /* \"#utility.yul\":13593:13602   */\n      mul\n        /* \"#utility.yul\":13622:13652   */\n      tag_474\n        /* \"#utility.yul\":13640:13651   */\n      dup2\n        /* \"#utility.yul\":13622:13652   */\n      tag_256\n      jump\t// in\n    tag_474:\n        /* \"#utility.yul\":13611:13652   */\n      swap2\n      pop\n        /* \"#utility.yul\":13801:13802   */\n      dup3\n        /* \"#utility.yul\":13792:13799   */\n      dup3\n        /* \"#utility.yul\":13788:13803   */\n      div\n        /* \"#utility.yul\":13785:13786   */\n      dup5\n        /* \"#utility.yul\":13782:13804   */\n      eq\n        /* \"#utility.yul\":13762:13763   */\n      dup4\n        /* \"#utility.yul\":13755:13764   */\n      iszero\n        /* \"#utility.yul\":13735:13818   */\n      or\n        /* \"#utility.yul\":13712:13851   */\n      tag_475\n      jumpi\n        /* \"#utility.yul\":13831:13849   */\n      tag_476\n      tag_299\n      jump\t// in\n    tag_476:\n        /* \"#utility.yul\":13712:13851   */\n    tag_475:\n        /* \"#utility.yul\":13496:13858   */\n      pop\n        /* \"#utility.yul\":13448:13858   */\n      swap3\n      swap2\n      pop\n      pop\n      jump\t// out\n        /* \"#utility.yul\":13864:14044   */\n    tag_300:\n        /* \"#utility.yul\":13912:13989   */\n      0x4e487b7100000000000000000000000000000000000000000000000000000000\n        /* \"#utility.yul\":13909:13910   */\n      0x00\n        /* \"#utility.yul\":13902:13990   */\n      mstore\n        /* \"#utility.yul\":14009:14013   */\n      0x41\n        /* \"#utility.yul\":14006:14007   */\n      0x04\n        /* \"#utility.yul\":13999:14014   */\n      mstore\n        /* \"#utility.yul\":14033:14037   */\n      0x24\n        /* \"#utility.yul\":14030:14031   */\n      0x00\n        /* \"#utility.yul\":14023:14038   */\n      revert\n        /* \"#utility.yul\":14050:14191   */\n    tag_301:\n        /* \"#utility.yul\":14099:14103   */\n      0x00\n        /* \"#utility.yul\":14122:14125   */\n      dup2\n        /* \"#utility.yul\":14114:14125   */\n      swap1\n      pop\n        /* \"#utility.yul\":14145:14148   */\n      dup2\n        /* \"#utility.yul\":14142:14143   */\n      0x00\n        /* \"#utility.yul\":14135:14149   */\n      mstore\n        /* \"#utility.yul\":14179:14183   */\n      0x20\n        /* \"#utility.yul\":14176:14177   */\n      0x00\n        /* \"#utility.yul\":14166:14184   */\n      keccak256\n        /* \"#utility.yul\":14158:14184   */\n      swap1\n      pop\n        /* \"#utility.yul\":14050:14191   */\n      swap2\n      swap1\n      pop\n      jump\t// out\n        /* \"#utility.yul\":14197:14290   */\n    tag_302:\n        /* \"#utility.yul\":14234:14240   */\n      0x00\n        /* \"#utility.yul\":14281:14283   */\n      0x20\n        /* \"#utility.yul\":14276:14278   */\n      0x1f\n        /* \"#utility.yul\":14269:14274   */\n      dup4\n        /* \"#utility.yul\":14265:14279   */\n      add\n        /* \"#utility.yul\":14261:14284   */\n      div\n        /* \"#utility.yul\":14251:14284   */\n      swap1\n      pop\n        /* \"#utility.yul\":14197:14290   */\n      swap2\n      swap1\n      pop\n      jump\t// out\n        /* \"#utility.yul\":14296:14403   */\n    tag_303:\n        /* \"#utility.yul\":14340:14348   */\n      0x00\n        /* \"#utility.yul\":14390:14395   */\n      dup3\n        /* \"#utility.yul\":14384:14388   */\n      dup3\n        /* \"#utility.yul\":14380:14396   */\n      shl\n        /* \"#utility.yul\":14359:14396   */\n      swap1\n      pop\n        /* \"#utility.yul\":14296:14403   */\n      swap3\n      swap2\n      pop\n      pop\n      jump\t// out\n        /* \"#utility.yul\":14409:14802   */\n    tag_304:\n        /* \"#utility.yul\":14478:14484   */\n      0x00\n        /* \"#utility.yul\":14528:14529   */\n      0x08\n        /* \"#utility.yul\":14516:14526   */\n      dup4\n        /* \"#utility.yul\":14512:14530   */\n      mul\n        /* \"#utility.yul\":14551:14648   */\n      tag_482\n        /* \"#utility.yul\":14581:14647   */\n      0xffffffffffffffffffffffffffffffffffffffffffffffffffffffffffffffff\n        /* \"#utility.yul\":14570:14579   */\n      dup3\n        /* \"#utility.yul\":14551:14648   */\n      tag_303\n      jump\t// in\n    tag_482:\n        /* \"#utility.yul\":14669:14708   */\n      tag_483\n        /* \"#utility.yul\":14699:14707   */\n      dup7\n        /* \"#utility.yul\":14688:14697   */\n      dup4\n        /* \"#utility.yul\":14669:14708   */\n      tag_303\n      jump\t// in\n    tag_483:\n        /* \"#utility.yul\":14657:14708   */\n      swap6\n      pop\n        /* \"#utility.yul\":14741:14745   */\n      dup1\n        /* \"#utility.yul\":14737:14746   */\n      not\n        /* \"#utility.yul\":14730:14735   */\n      dup5\n        /* \"#utility.yul\":14726:14747   */\n      and\n        /* \"#utility.yul\":14717:14747   */\n      swap4\n      pop\n        /* \"#utility.yul\":14790:14794   */\n      dup1\n        /* \"#utility.yul\":14780:14788   */\n      dup7\n        /* \"#utility.yul\":14776:14795   */\n      and\n        /* \"#utility.yul\":14769:14774   */\n      dup5\n        /* \"#utility.yul\":14766:14796   */\n      or\n        /* \"#utility.yul\":14756:14796   */\n      swap3\n      pop\n        /* \"#utility.yul\":14485:14802   */\n      pop\n      pop\n        /* \"#utility.yul\":14409:14802   */\n      swap4\n      swap3\n      pop\n      pop\n      pop\n      jump\t// out\n        /* \"#utility.yul\":14808:14950   */\n    tag_305:\n        /* \"#utility.yul\":14858:14867   */\n      0x00\n        /* \"#utility.yul\":14891:14944   */\n      tag_485\n        /* \"#utility.yul\":14909:14943   */\n      tag_486\n        /* \"#utility.yul\":14918:14942   */\n      tag_487\n        /* \"#utility.yul\":14936:14941   */\n      dup5\n        /* \"#utility.yul\":14918:14942   */\n      tag_256\n      jump\t// in\n    tag_487:\n        /* \"#utility.yul\":14909:14943   */\n      tag_283\n      jump\t// in\n    tag_486:\n        /* \"#utility.yul\":14891:14944   */\n      tag_256\n      jump\t// in\n    tag_485:\n        /* \"#utility.yul\":14878:14944   */\n      swap1\n      pop\n        /* \"#utility.yul\":14808:14950   */\n      swap2\n      swap1\n      pop\n      jump\t// out\n        /* \"#utility.yul\":14956:15031   */\n    tag_306:\n        /* \"#utility.yul\":14999:15002   */\n      0x00\n        /* \"#utility.yul\":15020:15025   */\n      dup2\n        /* \"#utility.yul\":15013:15025   */\n      swap1\n      pop\n        /* \"#utility.yul\":14956:15031   */\n      swap2\n      swap1\n      pop\n      jump\t// out\n        /* \"#utility.yul\":15037:15306   */\n    tag_307:\n        /* \"#utility.yul\":15147:15186   */\n      tag_490\n        /* \"#utility.yul\":15178:15185   */\n      dup4\n        /* \"#utility.yul\":15147:15186   */\n      tag_305\n      jump\t// in\n    tag_490:\n        /* \"#utility.yul\":15208:15299   */\n      tag_491\n        /* \"#utility.yul\":15257:15298   */\n      tag_492\n        /* \"#utility.yul\":15281:15297   */\n      dup3\n        /* \"#utility.yul\":15257:15298   */\n      tag_306\n      jump\t// in\n    tag_492:\n        /* \"#utility.yul\":15249:15255   */\n      dup5\n        /* \"#utility.yul\":15242:15246   */\n      dup5\n        /* \"#utility.yul\":15236:15247   */\n      sload\n        /* \"#utility.yul\":15208:15299   */\n      tag_304\n      jump\t// in\n    tag_491:\n        /* \"#utility.yul\":15202:15206   */\n      dup3\n        /* \"#utility.yul\":15195:15300   */\n      sstore\n        /* \"#utility.yul\":15113:15306   */\n      pop\n        /* \"#utility.yul\":15037:15306   */\n      pop\n      pop\n      pop\n      jump\t// out\n        /* \"#utility.yul\":15312:15385   */\n    tag_308:\n        /* \"#utility.yul\":15357:15360   */\n      0x00\n        /* \"#utility.yul\":15378:15379   */\n      0x00\n        /* \"#utility.yul\":15371:15379   */\n      swap1\n      pop\n        /* \"#utility.yul\":15312:15385   */\n      swap1\n      jump\t// out\n        /* \"#utility.yul\":15391:15580   */\n    tag_309:\n        /* \"#utility.yul\":15468:15500   */\n      tag_495\n      tag_308\n      jump\t// in\n    tag_495:\n        /* \"#utility.yul\":15509:15574   */\n      tag_496\n        /* \"#utility.yul\":15567:15573   */\n      dup2\n        /* \"#utility.yul\":15559:15565   */\n      dup5\n        /* \"#utility.yul\":15553:15557   */\n      dup5\n        /* \"#utility.yul\":15509:15574   */\n      tag_307\n      jump\t// in\n    tag_496:\n        /* \"#utility.yul\":15444:15580   */\n      pop\n        /* \"#utility.yul\":15391:15580   */\n      pop\n      pop\n      jump\t// out\n        /* \"#utility.yul\":15586:15772   */\n    tag_310:\n        /* \"#utility.yul\":15646:15766   */\n    tag_498:\n        /* \"#utility.yul\":15663:15666   */\n      dup2\n        /* \"#utility.yul\":15656:15661   */\n      dup2\n        /* \"#utility.yul\":15653:15667   */\n      lt\n        /* \"#utility.yul\":15646:15766   */\n      iszero\n      tag_500\n      jumpi\n        /* \"#utility.yul\":15717:15756   */\n      tag_501\n        /* \"#utility.yul\":15754:15755   */\n      0x00\n        /* \"#utility.yul\":15747:15752   */\n      dup3\n        /* \"#utility.yul\":15717:15756   */\n      tag_309\n      jump\t// in\n    tag_501:\n        /* \"#utility.yul\":15690:15691   */\n      0x01\n        /* \"#utility.yul\":15683:15688   */\n      dup2\n        /* \"#utility.yul\":15679:15692   */\n      add\n        /* \"#utility.yul\":15670:15692   */\n      swap1\n      pop\n        /* \"#utility.yul\":15646:15766   */\n      jump(tag_498)\n    tag_500:\n        /* \"#utility.yul\":15586:15772   */\n      pop\n      pop\n      jump\t// out\n        /* \"#utility.yul\":15778:16321   */\n    tag_311:\n        /* \"#utility.yul\":15879:15881   */\n      0x1f\n        /* \"#utility.yul\":15874:15877   */\n      dup3\n        /* \"#utility.yul\":15871:15882   */\n      gt\n        /* \"#utility.yul\":15868:16314   */\n      iszero\n      tag_503\n      jumpi\n        /* \"#utility.yul\":15913:15951   */\n      tag_504\n        /* \"#utility.yul\":15945:15950   */\n      dup2\n        /* \"#utility.yul\":15913:15951   */\n      tag_301\n      jump\t// in\n    tag_504:\n        /* \"#utility.yul\":15997:16026   */\n      tag_505\n        /* \"#utility.yul\":16015:16025   */\n      dup5\n        /* \"#utility.yul\":15997:16026   */\n      tag_302\n      jump\t// in\n    tag_505:\n        /* \"#utility.yul\":15987:15995   */\n      dup2\n        /* \"#utility.yul\":15983:16027   */\n      add\n        /* \"#utility.yul\":16180:16182   */\n      0x20\n        /* \"#utility.yul\":16168:16178   */\n      dup6\n        /* \"#utility.yul\":16165:16183   */\n      lt\n        /* \"#utility.yul\":16162:16211   */\n      iszero\n      tag_506\n      jumpi\n        /* \"#utility.yul\":16201:16209   */\n      dup2\n        /* \"#utility.yul\":16186:16209   */\n      swap1\n      pop\n        /* \"#utility.yul\":16162:16211   */\n    tag_506:\n        /* \"#utility.yul\":16224:16304   */\n      tag_507\n        /* \"#utility.yul\":16280:16302   */\n      tag_508\n        /* \"#utility.yul\":16298:16301   */\n      dup6\n        /* \"#utility.yul\":16280:16302   */\n      tag_302\n      jump\t// in\n    tag_508:\n        /* \"#utility.yul\":16270:16278   */\n      dup4\n        /* \"#utility.yul\":16266:16303   */\n      add\n        /* \"#utility.yul\":16253:16264   */\n      dup3\n        /* \"#utility.yul\":16224:16304   */\n      tag_310\n      jump\t// in\n    tag_507:\n        /* \"#utility.yul\":15883:16314   */\n      pop\n      pop\n        /* \"#utility.yul\":15868:16314   */\n    tag_503:\n        /* \"#utility.yul\":15778:16321   */\n      pop\n      pop\n      pop\n      jump\t// out\n        /* \"#utility.yul\":16327:16444   */\n    tag_312:\n        /* \"#utility.yul\":16381:16389   */\n      0x00\n        /* \"#utility.yul\":16431:16436   */\n      dup3\n        /* \"#utility.yul\":16425:16429   */\n      dup3\n        /* \"#utility.yul\":16421:16437   */\n      shr\n        /* \"#utility.yul\":16400:16437   */\n      swap1\n      pop\n        /* \"#utility.yul\":16327:16444   */\n      swap3\n      swap2\n      pop\n      pop\n      jump\t// out\n        /* \"#utility.yul\":16450:16619   */\n    tag_313:\n        /* \"#utility.yul\":16494:16500   */\n      0x00\n        /* \"#utility.yul\":16527:16578   */\n      tag_511\n        /* \"#utility.yul\":16575:16576   */\n      0x00\n        /* \"#utility.yul\":16571:16577   */\n      not\n        /* \"#utility.yul\":16563:16568   */\n      dup5\n        /* \"#utility.yul\":16560:16561   */\n      0x08\n        /* \"#utility.yul\":16556:16569   */\n      mul\n        /* \"#utility.yul\":16527:16578   */\n      tag_312\n      jump\t// in\n    tag_511:\n        /* \"#utility.yul\":16523:16579   */\n      not\n        /* \"#utility.yul\":16608:16612   */\n      dup1\n        /* \"#utility.yul\":16602:16606   */\n      dup4\n        /* \"#utility.yul\":16598:16613   */\n      and\n        /* \"#utility.yul\":16588:16613   */\n      swap2\n      pop\n        /* \"#utility.yul\":16501:16619   */\n      pop\n        /* \"#utility.yul\":16450:16619   */\n      swap3\n      swap2\n      pop\n      pop\n      jump\t// out\n        /* \"#utility.yul\":16624:16919   */\n    tag_314:\n        /* \"#utility.yul\":16700:16704   */\n      0x00\n        /* \"#utility.yul\":16846:16875   */\n      tag_513\n        /* \"#utility.yul\":16871:16874   */\n      dup4\n        /* \"#utility.yul\":16865:16869   */\n      dup4\n        /* \"#utility.yul\":16846:16875   */\n      tag_313\n      jump\t// in\n    tag_513:\n        /* \"#utility.yul\":16838:16875   */\n      swap2\n      pop\n        /* \"#utility.yul\":16908:16911   */\n      dup3\n        /* \"#utility.yul\":16905:16906   */\n      0x02\n        /* \"#utility.yul\":16901:16912   */\n      mul\n        /* \"#utility.yul\":16895:16899   */\n      dup3\n        /* \"#utility.yul\":16892:16913   */\n      or\n        /* \"#utility.yul\":16884:16913   */\n      swap1\n      pop\n        /* \"#utility.yul\":16624:16919   */\n      swap3\n      swap2\n      pop\n      pop\n      jump\t// out\n        /* \"#utility.yul\":16924:18319   */\n    tag_197:\n        /* \"#utility.yul\":17041:17078   */\n      tag_515\n        /* \"#utility.yul\":17074:17077   */\n      dup3\n        /* \"#utility.yul\":17041:17078   */\n      tag_269\n      jump\t// in\n    tag_515:\n        /* \"#utility.yul\":17143:17161   */\n      0xffffffffffffffff\n        /* \"#utility.yul\":17135:17141   */\n      dup2\n        /* \"#utility.yul\":17132:17162   */\n      gt\n        /* \"#utility.yul\":17129:17185   */\n      iszero\n      tag_516\n      jumpi\n        /* \"#utility.yul\":17165:17183   */\n      tag_517\n      tag_300\n      jump\t// in\n    tag_517:\n        /* \"#utility.yul\":17129:17185   */\n    tag_516:\n        /* \"#utility.yul\":17209:17247   */\n      tag_518\n        /* \"#utility.yul\":17241:17245   */\n      dup3\n        /* \"#utility.yul\":17235:17246   */\n      sload\n        /* \"#utility.yul\":17209:17247   */\n      tag_136\n      jump\t// in\n    tag_518:\n        /* \"#utility.yul\":17294:17361   */\n      tag_519\n        /* \"#utility.yul\":17354:17360   */\n      dup3\n        /* \"#utility.yul\":17346:17352   */\n      dup3\n        /* \"#utility.yul\":17340:17344   */\n      dup6\n        /* \"#utility.yul\":17294:17361   */\n      tag_311\n      jump\t// in\n    tag_519:\n        /* \"#utility.yul\":17388:17389   */\n      0x00\n        /* \"#utility.yul\":17412:17416   */\n      0x20\n        /* \"#utility.yul\":17399:17416   */\n      swap1\n      pop\n        /* \"#utility.yul\":17444:17446   */\n      0x1f\n        /* \"#utility.yul\":17436:17442   */\n      dup4\n        /* \"#utility.yul\":17433:17447   */\n      gt\n        /* \"#utility.yul\":17461:17462   */\n      0x01\n        /* \"#utility.yul\":17456:18074   */\n      dup2\n      eq\n      tag_521\n      jumpi\n        /* \"#utility.yul\":18118:18119   */\n      0x00\n        /* \"#utility.yul\":18135:18141   */\n      dup5\n        /* \"#utility.yul\":18132:18209   */\n      iszero\n      tag_522\n      jumpi\n        /* \"#utility.yul\":18184:18193   */\n      dup3\n        /* \"#utility.yul\":18179:18182   */\n      dup8\n        /* \"#utility.yul\":18175:18194   */\n      add\n        /* \"#utility.yul\":18169:18195   */\n      mload\n        /* \"#utility.yul\":18160:18195   */\n      swap1\n      pop\n        /* \"#utility.yul\":18132:18209   */\n    tag_522:\n        /* \"#utility.yul\":18235:18302   */\n      tag_523\n        /* \"#utility.yul\":18295:18301   */\n      dup6\n        /* \"#utility.yul\":18288:18293   */\n      dup3\n        /* \"#utility.yul\":18235:18302   */\n      tag_314\n      jump\t// in\n    tag_523:\n        /* \"#utility.yul\":18229:18233   */\n      dup7\n        /* \"#utility.yul\":18222:18303   */\n      sstore\n        /* \"#utility.yul\":18091:18313   */\n      pop\n        /* \"#utility.yul\":17426:18313   */\n      jump(tag_520)\n        /* \"#utility.yul\":17456:18074   */\n    tag_521:\n        /* \"#utility.yul\":17508:17512   */\n      0x1f\n        /* \"#utility.yul\":17504:17513   */\n      not\n        /* \"#utility.yul\":17496:17502   */\n      dup5\n        /* \"#utility.yul\":17492:17514   */\n      and\n        /* \"#utility.yul\":17542:17579   */\n      tag_524\n        /* \"#utility.yul\":17574:17578   */\n      dup7\n        /* \"#utility.yul\":17542:17579   */\n      tag_301\n      jump\t// in\n    tag_524:\n        /* \"#utility.yul\":17601:17602   */\n      0x00\n        /* \"#utility.yul\":17615:17823   */\n    tag_525:\n        /* \"#utility.yul\":17629:17636   */\n      dup3\n        /* \"#utility.yul\":17626:17627   */\n      dup2\n        /* \"#utility.yul\":17623:17637   */\n      lt\n        /* \"#utility.yul\":17615:17823   */\n      iszero\n      tag_527\n      jumpi\n        /* \"#utility.yul\":17708:17717   */\n      dup5\n        /* \"#utility.yul\":17703:17706   */\n      dup10\n        /* \"#utility.yul\":17699:17718   */\n      add\n        /* \"#utility.yul\":17693:17719   */\n      mload\n        /* \"#utility.yul\":17685:17691   */\n      dup3\n        /* \"#utility.yul\":17678:17720   */\n      sstore\n        /* \"#utility.yul\":17759:17760   */\n      0x01\n        /* \"#utility.yul\":17751:17757   */\n      dup3\n        /* \"#utility.yul\":17747:17761   */\n      add\n        /* \"#utility.yul\":17737:17761   */\n      swap2\n      pop\n        /* \"#utility.yul\":17806:17808   */\n      0x20\n        /* \"#utility.yul\":17795:17804   */\n      dup6\n        /* \"#utility.yul\":17791:17809   */\n      add\n        /* \"#utility.yul\":17778:17809   */\n      swap5\n      pop\n        /* \"#utility.yul\":17652:17656   */\n      0x20\n        /* \"#utility.yul\":17649:17650   */\n      dup2\n        /* \"#utility.yul\":17645:17657   */\n      add\n        /* \"#utility.yul\":17640:17657   */\n      swap1\n      pop\n        /* \"#utility.yul\":17615:17823   */\n      jump(tag_525)\n    tag_527:\n        /* \"#utility.yul\":17851:17857   */\n      dup7\n        /* \"#utility.yul\":17842:17849   */\n      dup4\n        /* \"#utility.yul\":17839:17858   */\n      lt\n        /* \"#utility.yul\":17836:18015   */\n      iszero\n      tag_528\n      jumpi\n        /* \"#utility.yul\":17909:17918   */\n      dup5\n        /* \"#utility.yul\":17904:17907   */\n      dup10\n        /* \"#utility.yul\":17900:17919   */\n      add\n        /* \"#utility.yul\":17894:17920   */\n      mload\n        /* \"#utility.yul\":17952:18000   */\n      tag_529\n        /* \"#utility.yul\":17994:17998   */\n      0x1f\n        /* \"#utility.yul\":17986:17992   */\n      dup10\n        /* \"#utility.yul\":17982:17999   */\n      and\n        /* \"#utility.yul\":17971:17980   */\n      dup3\n        /* \"#utility.yul\":17952:18000   */\n      tag_313\n      jump\t// in\n    tag_529:\n        /* \"#utility.yul\":17944:17950   */\n      dup4\n        /* \"#utility.yul\":17937:18001   */\n      sstore\n        /* \"#utility.yul\":17859:18015   */\n      pop\n        /* \"#utility.yul\":17836:18015   */\n    tag_528:\n        /* \"#utility.yul\":18061:18062   */\n      0x01\n        /* \"#utility.yul\":18057:18058   */\n      0x02\n        /* \"#utility.yul\":18049:18055   */\n      dup9\n        /* \"#utility.yul\":18045:18059   */\n      mul\n        /* \"#utility.yul\":18041:18063   */\n      add\n        /* \"#utility.yul\":18035:18039   */\n      dup9\n        /* \"#utility.yul\":18028:18064   */\n      sstore\n        /* \"#utility.yul\":17463:18074   */\n      pop\n      pop\n      pop\n        /* \"#utility.yul\":17426:18313   */\n    tag_520:\n      pop\n        /* \"#utility.yul\":17016:18319   */\n      pop\n      pop\n      pop\n        /* \"#utility.yul\":16924:18319   */\n      pop\n      pop\n      jump\t// out\n        /* \"#utility.yul\":18325:18953   */\n    tag_199:\n        /* \"#utility.yul\":18514:18518   */\n      0x00\n        /* \"#utility.yul\":18552:18555   */\n      0x80\n        /* \"#utility.yul\":18541:18550   */\n      dup3\n        /* \"#utility.yul\":18537:18556   */\n      add\n        /* \"#utility.yul\":18529:18556   */\n      swap1\n      pop\n        /* \"#utility.yul\":18566:18633   */\n      tag_531\n        /* \"#utility.yul\":18630:18631   */\n      0x00\n        /* \"#utility.yul\":18619:18628   */\n      dup4\n        /* \"#utility.yul\":18615:18632   */\n      add\n        /* \"#utility.yul\":18606:18612   */\n      dup8\n        /* \"#utility.yul\":18566:18633   */\n      tag_280\n      jump\t// in\n    tag_531:\n        /* \"#utility.yul\":18643:18711   */\n      tag_532\n        /* \"#utility.yul\":18707:18709   */\n      0x20\n        /* \"#utility.yul\":18696:18705   */\n      dup4\n        /* \"#utility.yul\":18692:18710   */\n      add\n        /* \"#utility.yul\":18683:18689   */\n      dup7\n        /* \"#utility.yul\":18643:18711   */\n      tag_280\n      jump\t// in\n    tag_532:\n        /* \"#utility.yul\":18758:18767   */\n      dup2\n        /* \"#utility.yul\":18752:18756   */\n      dup2\n        /* \"#utility.yul\":18748:18768   */\n      sub\n        /* \"#utility.yul\":18743:18745   */\n      0x40\n        /* \"#utility.yul\":18732:18741   */\n      dup4\n        /* \"#utility.yul\":18728:18746   */\n      add\n        /* \"#utility.yul\":18721:18769   */\n      mstore\n        /* \"#utility.yul\":18786:18864   */\n      tag_533\n        /* \"#utility.yul\":18859:18863   */\n      dup2\n        /* \"#utility.yul\":18850:18856   */\n      dup6\n        /* \"#utility.yul\":18786:18864   */\n      tag_273\n      jump\t// in\n    tag_533:\n        /* \"#utility.yul\":18778:18864   */\n      swap1\n      pop\n        /* \"#utility.yul\":18874:18946   */\n      tag_534\n        /* \"#utility.yul\":18942:18944   */\n      0x60\n        /* \"#utility.yul\":18931:18940   */\n      dup4\n        /* \"#utility.yul\":18927:18945   */\n      add\n        /* \"#utility.yul\":18918:18924   */\n      dup5\n        /* \"#utility.yul\":18874:18946   */\n      tag_257\n      jump\t// in\n    tag_534:\n        /* \"#utility.yul\":18325:18953   */\n      swap6\n      swap5\n      pop\n      pop\n      pop\n      pop\n      pop\n      jump\t// out\n        /* \"#utility.yul\":18959:19124   */\n    tag_315:\n        /* \"#utility.yul\":19099:19116   */\n      0x5472616e73666572206661696c65640000000000000000000000000000000000\n        /* \"#utility.yul\":19095:19096   */\n      0x00\n        /* \"#utility.yul\":19087:19093   */\n      dup3\n        /* \"#utility.yul\":19083:19097   */\n      add\n        /* \"#utility.yul\":19076:19117   */\n      mstore\n        /* \"#utility.yul\":18959:19124   */\n      pop\n      jump\t// out\n        /* \"#utility.yul\":19130:19496   */\n    tag_316:\n        /* \"#utility.yul\":19272:19275   */\n      0x00\n        /* \"#utility.yul\":19293:19360   */\n      tag_537\n        /* \"#utility.yul\":19357:19359   */\n      0x0f\n        /* \"#utility.yul\":19352:19355   */\n      dup4\n        /* \"#utility.yul\":19293:19360   */\n      tag_270\n      jump\t// in\n    tag_537:\n        /* \"#utility.yul\":19286:19360   */\n      swap2\n      pop\n        /* \"#utility.yul\":19369:19462   */\n      tag_538\n        /* \"#utility.yul\":19458:19461   */\n      dup3\n        /* \"#utility.yul\":19369:19462   */\n      tag_315\n      jump\t// in\n    tag_538:\n        /* \"#utility.yul\":19487:19489   */\n      0x20\n        /* \"#utility.yul\":19482:19485   */\n      dup3\n        /* \"#utility.yul\":19478:19490   */\n      add\n        /* \"#utility.yul\":19471:19490   */\n      swap1\n      pop\n        /* \"#utility.yul\":19130:19496   */\n      swap2\n      swap1\n      pop\n      jump\t// out\n        /* \"#utility.yul\":19502:19921   */\n    tag_207:\n        /* \"#utility.yul\":19668:19672   */\n      0x00\n        /* \"#utility.yul\":19706:19708   */\n      0x20\n        /* \"#utility.yul\":19695:19704   */\n      dup3\n        /* \"#utility.yul\":19691:19709   */\n      add\n        /* \"#utility.yul\":19683:19709   */\n      swap1\n      pop\n        /* \"#utility.yul\":19755:19764   */\n      dup2\n        /* \"#utility.yul\":19749:19753   */\n      dup2\n        /* \"#utility.yul\":19745:19765   */\n      sub\n        /* \"#utility.yul\":19741:19742   */\n      0x00\n        /* \"#utility.yul\":19730:19739   */\n      dup4\n        /* \"#utility.yul\":19726:19743   */\n      add\n        /* \"#utility.yul\":19719:19766   */\n      mstore\n        /* \"#utility.yul\":19783:19914   */\n      tag_540\n        /* \"#utility.yul\":19909:19913   */\n      dup2\n        /* \"#utility.yul\":19783:19914   */\n      tag_316\n      jump\t// in\n    tag_540:\n        /* \"#utility.yul\":19775:19914   */\n      swap1\n      pop\n        /* \"#utility.yul\":19502:19921   */\n      swap2\n      swap1\n      pop\n      jump\t// out\n        /* \"#utility.yul\":19927:20088   */\n    tag_317:\n        /* \"#utility.yul\":20067:20080   */\n      0x42657420746f6f206c6f77000000000000000000000000000000000000000000\n        /* \"#utility.yul\":20063:20064   */\n      0x00\n        /* \"#utility.yul\":20055:20061   */\n      dup3\n        /* \"#utility.yul\":20051:20065   */\n      add\n        /* \"#utility.yul\":20044:20081   */\n      mstore\n        /* \"#utility.yul\":19927:20088   */\n      pop\n      jump\t// out\n        /* \"#utility.yul\":20094:20460   */\n    tag_318:\n        /* \"#utility.yul\":20236:20239   */\n      0x00\n        /* \"#utility.yul\":20257:20324   */\n      tag_543\n        /* \"#utility.yul\":20321:20323   */\n      0x0b\n        /* \"#utility.yul\":20316:20319   */\n      dup4\n        /* \"#utility.yul\":20257:20324   */\n      tag_270\n      jump\t// in\n    tag_543:\n        /* \"#utility.yul\":20250:20324   */\n      swap2\n      pop\n        /* \"#utility.yul\":20333:20426   */\n      tag_544\n        /* \"#utility.yul\":20422:20425   */\n      dup3\n        /* \"#utility.yul\":20333:20426   */\n      tag_317\n      jump\t// in\n    tag_544:\n        /* \"#utility.yul\":20451:20453   */\n      0x20\n        /* \"#utility.yul\":20446:20449   */\n      dup3\n        /* \"#utility.yul\":20442:20454   */\n      add\n        /* \"#utility.yul\":20435:20454   */\n      swap1\n      pop\n        /* \"#utility.yul\":20094:20460   */\n      swap2\n      swap1\n      pop\n      jump\t// out\n        /* \"#utility.yul\":20466:20885   */\n    tag_218:\n        /* \"#utility.yul\":20632:20636   */\n      0x00\n        /* \"#utility.yul\":20670:20672   */\n      0x20\n        /* \"#utility.yul\":20659:20668   */\n      dup3\n        /* \"#utility.yul\":20655:20673   */\n      add\n        /* \"#utility.yul\":20647:20673   */\n      swap1\n      pop\n        /* \"#utility.yul\":20719:20728   */\n      dup2\n        /* \"#utility.yul\":20713:20717   */\n      dup2\n        /* \"#utility.yul\":20709:20729   */\n      sub\n        /* \"#utility.yul\":20705:20706   */\n      0x00\n        /* \"#utility.yul\":20694:20703   */\n      dup4\n        /* \"#utility.yul\":20690:20707   */\n      add\n        /* \"#utility.yul\":20683:20730   */\n      mstore\n        /* \"#utility.yul\":20747:20878   */\n      tag_546\n        /* \"#utility.yul\":20873:20877   */\n      dup2\n        /* \"#utility.yul\":20747:20878   */\n      tag_318\n      jump\t// in\n    tag_546:\n        /* \"#utility.yul\":20739:20878   */\n      swap1\n      pop\n        /* \"#utility.yul\":20466:20885   */\n      swap2\n      swap1\n      pop\n      jump\t// out\n        /* \"#utility.yul\":20891:21058   */\n    tag_319:\n        /* \"#utility.yul\":21031:21050   */\n      0x436f6e747261637420697320656d707479000000000000000000000000000000\n        /* \"#utility.yul\":21027:21028   */\n      0x00\n        /* \"#utility.yul\":21019:21025   */\n      dup3\n        /* \"#utility.yul\":21015:21029   */\n      add\n        /* \"#utility.yul\":21008:21051   */\n      mstore\n        /* \"#utility.yul\":20891:21058   */\n      pop\n      jump\t// out\n        /* \"#utility.yul\":21064:21430   */\n    tag_320:\n        /* \"#utility.yul\":21206:21209   */\n      0x00\n        /* \"#utility.yul\":21227:21294   */\n      tag_549\n        /* \"#utility.yul\":21291:21293   */\n      0x11\n        /* \"#utility.yul\":21286:21289   */\n      dup4\n        /* \"#utility.yul\":21227:21294   */\n      tag_270\n      jump\t// in\n    tag_549:\n        /* \"#utility.yul\":21220:21294   */\n      swap2\n      pop\n        /* \"#utility.yul\":21303:21396   */\n      tag_550\n        /* \"#utility.yul\":21392:21395   */\n      dup3\n        /* \"#utility.yul\":21303:21396   */\n      tag_319\n      jump\t// in\n    tag_550:\n        /* \"#utility.yul\":21421:21423   */\n      0x20\n        /* \"#utility.yul\":21416:21419   */\n      dup3\n        /* \"#utility.yul\":21412:21424   */\n      add\n        /* \"#utility.yul\":21405:21424   */\n      swap1\n      pop\n        /* \"#utility.yul\":21064:21430   */\n      swap2\n      swap1\n      pop\n      jump\t// out\n        /* \"#utility.yul\":21436:21855   */\n    tag_222:\n        /* \"#utility.yul\":21602:21606   */\n      0x00\n        /* \"#utility.yul\":21640:21642   */\n      0x20\n        /* \"#utility.yul\":21629:21638   */\n      dup3\n        /* \"#utility.yul\":21625:21643   */\n      add\n        /* \"#utility.yul\":21617:21643   */\n      swap1\n      pop\n        /* \"#utility.yul\":21689:21698   */\n      dup2\n        /* \"#utility.yul\":21683:21687   */\n      dup2\n        /* \"#utility.yul\":21679:21699   */\n      sub\n        /* \"#utility.yul\":21675:21676   */\n      0x00\n        /* \"#utility.yul\":21664:21673   */\n      dup4\n        /* \"#utility.yul\":21660:21677   */\n      add\n        /* \"#utility.yul\":21653:21700   */\n      mstore\n        /* \"#utility.yul\":21717:21848   */\n      tag_552\n        /* \"#utility.yul\":21843:21847   */\n      dup2\n        /* \"#utility.yul\":21717:21848   */\n      tag_320\n      jump\t// in\n    tag_552:\n        /* \"#utility.yul\":21709:21848   */\n      swap1\n      pop\n        /* \"#utility.yul\":21436:21855   */\n      swap2\n      swap1\n      pop\n      jump\t// out\n        /* \"#utility.yul\":21861:21969   */\n    tag_321:\n        /* \"#utility.yul\":21938:21962   */\n      tag_554\n        /* \"#utility.yul\":21956:21961   */\n      dup2\n        /* \"#utility.yul\":21938:21962   */\n      tag_274\n      jump\t// in\n    tag_554:\n        /* \"#utility.yul\":21933:21936   */\n      dup3\n        /* \"#utility.yul\":21926:21963   */\n      mstore\n        /* \"#utility.yul\":21861:21969   */\n      pop\n      pop\n      jump\t// out\n        /* \"#utility.yul\":21975:22083   */\n    tag_322:\n        /* \"#utility.yul\":22052:22076   */\n      tag_556\n        /* \"#utility.yul\":22070:22075   */\n      dup2\n        /* \"#utility.yul\":22052:22076   */\n      tag_256\n      jump\t// in\n    tag_556:\n        /* \"#utility.yul\":22047:22050   */\n      dup3\n        /* \"#utility.yul\":22040:22077   */\n      mstore\n        /* \"#utility.yul\":21975:22083   */\n      pop\n      pop\n      jump\t// out\n        /* \"#utility.yul\":22089:22194   */\n    tag_323:\n        /* \"#utility.yul\":22164:22187   */\n      tag_558\n        /* \"#utility.yul\":22181:22186   */\n      dup2\n        /* \"#utility.yul\":22164:22187   */\n      tag_288\n      jump\t// in\n    tag_558:\n        /* \"#utility.yul\":22159:22162   */\n      dup3\n        /* \"#utility.yul\":22152:22188   */\n      mstore\n        /* \"#utility.yul\":22089:22194   */\n      pop\n      pop\n      jump\t// out\n        /* \"#utility.yul\":22200:22305   */\n    tag_324:\n        /* \"#utility.yul\":22275:22298   */\n      tag_560\n        /* \"#utility.yul\":22292:22297   */\n      dup2\n        /* \"#utility.yul\":22275:22298   */\n      tag_267\n      jump\t// in\n    tag_560:\n        /* \"#utility.yul\":22270:22273   */\n      dup3\n        /* \"#utility.yul\":22263:22299   */\n      mstore\n        /* \"#utility.yul\":22200:22305   */\n      pop\n      pop\n      jump\t// out\n        /* \"#utility.yul\":22311:22409   */\n    tag_325:\n        /* \"#utility.yul\":22362:22368   */\n      0x00\n        /* \"#utility.yul\":22396:22401   */\n      dup2\n        /* \"#utility.yul\":22390:22402   */\n      mload\n        /* \"#utility.yul\":22380:22402   */\n      swap1\n      pop\n        /* \"#utility.yul\":22311:22409   */\n      swap2\n      swap1\n      pop\n      jump\t// out\n        /* \"#utility.yul\":22415:22573   */\n    tag_326:\n        /* \"#utility.yul\":22488:22499   */\n      0x00\n        /* \"#utility.yul\":22522:22528   */\n      dup3\n        /* \"#utility.yul\":22517:22520   */\n      dup3\n        /* \"#utility.yul\":22510:22529   */\n      mstore\n        /* \"#utility.yul\":22562:22566   */\n      0x20\n        /* \"#utility.yul\":22557:22560   */\n      dup3\n        /* \"#utility.yul\":22553:22567   */\n      add\n        /* \"#utility.yul\":22538:22567   */\n      swap1\n      pop\n        /* \"#utility.yul\":22415:22573   */\n      swap3\n      swap2\n      pop\n      pop\n      jump\t// out\n        /* \"#utility.yul\":22579:22932   */\n    tag_327:\n        /* \"#utility.yul\":22655:22658   */\n      0x00\n        /* \"#utility.yul\":22683:22721   */\n      tag_564\n        /* \"#utility.yul\":22715:22720   */\n      dup3\n        /* \"#utility.yul\":22683:22721   */\n      tag_325\n      jump\t// in\n    tag_564:\n        /* \"#utility.yul\":22737:22797   */\n      tag_565\n        /* \"#utility.yul\":22790:22796   */\n      dup2\n        /* \"#utility.yul\":22785:22788   */\n      dup6\n        /* \"#utility.yul\":22737:22797   */\n      tag_326\n      jump\t// in\n    tag_565:\n        /* \"#utility.yul\":22730:22797   */\n      swap4\n      pop\n        /* \"#utility.yul\":22806:22871   */\n      tag_566\n        /* \"#utility.yul\":22864:22870   */\n      dup2\n        /* \"#utility.yul\":22859:22862   */\n      dup6\n        /* \"#utility.yul\":22852:22856   */\n      0x20\n        /* \"#utility.yul\":22845:22850   */\n      dup7\n        /* \"#utility.yul\":22841:22857   */\n      add\n        /* \"#utility.yul\":22806:22871   */\n      tag_271\n      jump\t// in\n    tag_566:\n        /* \"#utility.yul\":22896:22925   */\n      tag_567\n        /* \"#utility.yul\":22918:22924   */\n      dup2\n        /* \"#utility.yul\":22896:22925   */\n      tag_272\n      jump\t// in\n    tag_567:\n        /* \"#utility.yul\":22891:22894   */\n      dup5\n        /* \"#utility.yul\":22887:22926   */\n      add\n        /* \"#utility.yul\":22880:22926   */\n      swap2\n      pop\n        /* \"#utility.yul\":22659:22932   */\n      pop\n        /* \"#utility.yul\":22579:22932   */\n      swap3\n      swap2\n      pop\n      pop\n      jump\t// out\n        /* \"#utility.yul\":23032:24387   */\n    tag_328:\n        /* \"#utility.yul\":23171:23174   */\n      0x00\n        /* \"#utility.yul\":23207:23211   */\n      0xc0\n        /* \"#utility.yul\":23202:23205   */\n      dup4\n        /* \"#utility.yul\":23198:23212   */\n      add\n        /* \"#utility.yul\":23297:23301   */\n      0x00\n        /* \"#utility.yul\":23290:23295   */\n      dup4\n        /* \"#utility.yul\":23286:23302   */\n      add\n        /* \"#utility.yul\":23280:23303   */\n      mload\n        /* \"#utility.yul\":23316:23379   */\n      tag_569\n        /* \"#utility.yul\":23373:23377   */\n      0x00\n        /* \"#utility.yul\":23368:23371   */\n      dup7\n        /* \"#utility.yul\":23364:23378   */\n      add\n        /* \"#utility.yul\":23350:23362   */\n      dup3\n        /* \"#utility.yul\":23316:23379   */\n      tag_321\n      jump\t// in\n    tag_569:\n        /* \"#utility.yul\":23222:23389   */\n      pop\n        /* \"#utility.yul\":23472:23476   */\n      0x20\n        /* \"#utility.yul\":23465:23470   */\n      dup4\n        /* \"#utility.yul\":23461:23477   */\n      add\n        /* \"#utility.yul\":23455:23478   */\n      mload\n        /* \"#utility.yul\":23491:23554   */\n      tag_570\n        /* \"#utility.yul\":23548:23552   */\n      0x20\n        /* \"#utility.yul\":23543:23546   */\n      dup7\n        /* \"#utility.yul\":23539:23553   */\n      add\n        /* \"#utility.yul\":23525:23537   */\n      dup3\n        /* \"#utility.yul\":23491:23554   */\n      tag_322\n      jump\t// in\n    tag_570:\n        /* \"#utility.yul\":23399:23564   */\n      pop\n        /* \"#utility.yul\":23662:23666   */\n      0x40\n        /* \"#utility.yul\":23655:23660   */\n      dup4\n        /* \"#utility.yul\":23651:23667   */\n      add\n        /* \"#utility.yul\":23645:23668   */\n      mload\n        /* \"#utility.yul\":23681:23742   */\n      tag_571\n        /* \"#utility.yul\":23736:23740   */\n      0x40\n        /* \"#utility.yul\":23731:23734   */\n      dup7\n        /* \"#utility.yul\":23727:23741   */\n      add\n        /* \"#utility.yul\":23713:23725   */\n      dup3\n        /* \"#utility.yul\":23681:23742   */\n      tag_323\n      jump\t// in\n    tag_571:\n        /* \"#utility.yul\":23574:23752   */\n      pop\n        /* \"#utility.yul\":23846:23850   */\n      0x60\n        /* \"#utility.yul\":23839:23844   */\n      dup4\n        /* \"#utility.yul\":23835:23851   */\n      add\n        /* \"#utility.yul\":23829:23852   */\n      mload\n        /* \"#utility.yul\":23865:23926   */\n      tag_572\n        /* \"#utility.yul\":23920:23924   */\n      0x60\n        /* \"#utility.yul\":23915:23918   */\n      dup7\n        /* \"#utility.yul\":23911:23925   */\n      add\n        /* \"#utility.yul\":23897:23909   */\n      dup3\n        /* \"#utility.yul\":23865:23926   */\n      tag_324\n      jump\t// in\n    tag_572:\n        /* \"#utility.yul\":23762:23936   */\n      pop\n        /* \"#utility.yul\":24022:24026   */\n      0x80\n        /* \"#utility.yul\":24015:24020   */\n      dup4\n        /* \"#utility.yul\":24011:24027   */\n      add\n        /* \"#utility.yul\":24005:24028   */\n      mload\n        /* \"#utility.yul\":24041:24102   */\n      tag_573\n        /* \"#utility.yul\":24096:24100   */\n      0x80\n        /* \"#utility.yul\":24091:24094   */\n      dup7\n        /* \"#utility.yul\":24087:24101   */\n      add\n        /* \"#utility.yul\":24073:24085   */\n      dup3\n        /* \"#utility.yul\":24041:24102   */\n      tag_324\n      jump\t// in\n    tag_573:\n        /* \"#utility.yul\":23946:24112   */\n      pop\n        /* \"#utility.yul\":24199:24203   */\n      0xa0\n        /* \"#utility.yul\":24192:24197   */\n      dup4\n        /* \"#utility.yul\":24188:24204   */\n      add\n        /* \"#utility.yul\":24182:24205   */\n      mload\n        /* \"#utility.yul\":24252:24255   */\n      dup5\n        /* \"#utility.yul\":24246:24250   */\n      dup3\n        /* \"#utility.yul\":24242:24256   */\n      sub\n        /* \"#utility.yul\":24235:24239   */\n      0xa0\n        /* \"#utility.yul\":24230:24233   */\n      dup7\n        /* \"#utility.yul\":24226:24240   */\n      add\n        /* \"#utility.yul\":24219:24257   */\n      mstore\n        /* \"#utility.yul\":24278:24349   */\n      tag_574\n        /* \"#utility.yul\":24344:24348   */\n      dup3\n        /* \"#utility.yul\":24330:24342   */\n      dup3\n        /* \"#utility.yul\":24278:24349   */\n      tag_327\n      jump\t// in\n    tag_574:\n        /* \"#utility.yul\":24270:24349   */\n      swap2\n      pop\n        /* \"#utility.yul\":24122:24360   */\n      pop\n        /* \"#utility.yul\":24377:24381   */\n      dup1\n        /* \"#utility.yul\":24370:24381   */\n      swap2\n      pop\n        /* \"#utility.yul\":23176:24387   */\n      pop\n        /* \"#utility.yul\":23032:24387   */\n      swap3\n      swap2\n      pop\n      pop\n      jump\t// out\n        /* \"#utility.yul\":24393:24806   */\n    tag_226:\n        /* \"#utility.yul\":24556:24560   */\n      0x00\n        /* \"#utility.yul\":24594:24596   */\n      0x20\n        /* \"#utility.yul\":24583:24592   */\n      dup3\n        /* \"#utility.yul\":24579:24597   */\n      add\n        /* \"#utility.yul\":24571:24597   */\n      swap1\n      pop\n        /* \"#utility.yul\":24643:24652   */\n      dup2\n        /* \"#utility.yul\":24637:24641   */\n      dup2\n        /* \"#utility.yul\":24633:24653   */\n      sub\n        /* \"#utility.yul\":24629:24630   */\n      0x00\n        /* \"#utility.yul\":24618:24627   */\n      dup4\n        /* \"#utility.yul\":24614:24631   */\n      add\n        /* \"#utility.yul\":24607:24654   */\n      mstore\n        /* \"#utility.yul\":24671:24799   */\n      tag_576\n        /* \"#utility.yul\":24794:24798   */\n      dup2\n        /* \"#utility.yul\":24785:24791   */\n      dup5\n        /* \"#utility.yul\":24671:24799   */\n      tag_328\n      jump\t// in\n    tag_576:\n        /* \"#utility.yul\":24663:24799   */\n      swap1\n      pop\n        /* \"#utility.yul\":24393:24806   */\n      swap3\n      swap2\n      pop\n      pop\n      jump\t// out\n        /* \"#utility.yul\":24812:24955   */\n    tag_329:\n        /* \"#utility.yul\":24869:24874   */\n      0x00\n        /* \"#utility.yul\":24900:24906   */\n      dup2\n        /* \"#utility.yul\":24894:24907   */\n      mload\n        /* \"#utility.yul\":24885:24907   */\n      swap1\n      pop\n        /* \"#utility.yul\":24916:24949   */\n      tag_578\n        /* \"#utility.yul\":24943:24948   */\n      dup2\n        /* \"#utility.yul\":24916:24949   */\n      tag_261\n      jump\t// in\n    tag_578:\n        /* \"#utility.yul\":24812:24955   */\n      swap3\n      swap2\n      pop\n      pop\n      jump\t// out\n        /* \"#utility.yul\":24961:25312   */\n    tag_230:\n        /* \"#utility.yul\":25031:25037   */\n      0x00\n        /* \"#utility.yul\":25080:25082   */\n      0x20\n        /* \"#utility.yul\":25068:25077   */\n      dup3\n        /* \"#utility.yul\":25059:25066   */\n      dup5\n        /* \"#utility.yul\":25055:25078   */\n      sub\n        /* \"#utility.yul\":25051:25083   */\n      slt\n        /* \"#utility.yul\":25048:25167   */\n      iszero\n      tag_580\n      jumpi\n        /* \"#utility.yul\":25086:25165   */\n      tag_581\n      tag_259\n      jump\t// in\n    tag_581:\n        /* \"#utility.yul\":25048:25167   */\n    tag_580:\n        /* \"#utility.yul\":25206:25207   */\n      0x00\n        /* \"#utility.yul\":25231:25295   */\n      tag_582\n        /* \"#utility.yul\":25287:25294   */\n      dup5\n        /* \"#utility.yul\":25278:25284   */\n      dup3\n        /* \"#utility.yul\":25267:25276   */\n      dup6\n        /* \"#utility.yul\":25263:25285   */\n      add\n        /* \"#utility.yul\":25231:25295   */\n      tag_329\n      jump\t// in\n    tag_582:\n        /* \"#utility.yul\":25221:25295   */\n      swap2\n      pop\n        /* \"#utility.yul\":25177:25305   */\n      pop\n        /* \"#utility.yul\":24961:25312   */\n      swap3\n      swap2\n      pop\n      pop\n      jump\t// out\n        /* \"#utility.yul\":25318:25642   */\n    tag_232:\n        /* \"#utility.yul\":25435:25439   */\n      0x00\n        /* \"#utility.yul\":25473:25475   */\n      0x40\n        /* \"#utility.yul\":25462:25471   */\n      dup3\n        /* \"#utility.yul\":25458:25476   */\n      add\n        /* \"#utility.yul\":25450:25476   */\n      swap1\n      pop\n        /* \"#utility.yul\":25486:25553   */\n      tag_584\n        /* \"#utility.yul\":25550:25551   */\n      0x00\n        /* \"#utility.yul\":25539:25548   */\n      dup4\n        /* \"#utility.yul\":25535:25552   */\n      add\n        /* \"#utility.yul\":25526:25532   */\n      dup6\n        /* \"#utility.yul\":25486:25553   */\n      tag_280\n      jump\t// in\n    tag_584:\n        /* \"#utility.yul\":25563:25635   */\n      tag_585\n        /* \"#utility.yul\":25631:25633   */\n      0x20\n        /* \"#utility.yul\":25620:25629   */\n      dup4\n        /* \"#utility.yul\":25616:25634   */\n      add\n        /* \"#utility.yul\":25607:25613   */\n      dup5\n        /* \"#utility.yul\":25563:25635   */\n      tag_257\n      jump\t// in\n    tag_585:\n        /* \"#utility.yul\":25318:25642   */\n      swap4\n      swap3\n      pop\n      pop\n      pop\n      jump\t// out\n        /* \"#utility.yul\":25648:25820   */\n    tag_330:\n        /* \"#utility.yul\":25788:25812   */\n      0x4f6e6c792063616c6c61626c65206279206f776e657200000000000000000000\n        /* \"#utility.yul\":25784:25785   */\n      0x00\n        /* \"#utility.yul\":25776:25782   */\n      dup3\n        /* \"#utility.yul\":25772:25786   */\n      add\n        /* \"#utility.yul\":25765:25813   */\n      mstore\n        /* \"#utility.yul\":25648:25820   */\n      pop\n      jump\t// out\n        /* \"#utility.yul\":25826:26192   */\n    tag_331:\n        /* \"#utility.yul\":25968:25971   */\n      0x00\n        /* \"#utility.yul\":25989:26056   */\n      tag_588\n        /* \"#utility.yul\":26053:26055   */\n      0x16\n        /* \"#utility.yul\":26048:26051   */\n      dup4\n        /* \"#utility.yul\":25989:26056   */\n      tag_270\n      jump\t// in\n    tag_588:\n        /* \"#utility.yul\":25982:26056   */\n      swap2\n      pop\n        /* \"#utility.yul\":26065:26158   */\n      tag_589\n        /* \"#utility.yul\":26154:26157   */\n      dup3\n        /* \"#utility.yul\":26065:26158   */\n      tag_330\n      jump\t// in\n    tag_589:\n        /* \"#utility.yul\":26183:26185   */\n      0x20\n        /* \"#utility.yul\":26178:26181   */\n      dup3\n        /* \"#utility.yul\":26174:26186   */\n      add\n        /* \"#utility.yul\":26167:26186   */\n      swap1\n      pop\n        /* \"#utility.yul\":25826:26192   */\n      swap2\n      swap1\n      pop\n      jump\t// out\n        /* \"#utility.yul\":26198:26617   */\n    tag_239:\n        /* \"#utility.yul\":26364:26368   */\n      0x00\n        /* \"#utility.yul\":26402:26404   */\n      0x20\n        /* \"#utility.yul\":26391:26400   */\n      dup3\n        /* \"#utility.yul\":26387:26405   */\n      add\n        /* \"#utility.yul\":26379:26405   */\n      swap1\n      pop\n        /* \"#utility.yul\":26451:26460   */\n      dup2\n        /* \"#utility.yul\":26445:26449   */\n      dup2\n        /* \"#utility.yul\":26441:26461   */\n      sub\n        /* \"#utility.yul\":26437:26438   */\n      0x00\n        /* \"#utility.yul\":26426:26435   */\n      dup4\n        /* \"#utility.yul\":26422:26439   */\n      add\n        /* \"#utility.yul\":26415:26462   */\n      mstore\n        /* \"#utility.yul\":26479:26610   */\n      tag_591\n        /* \"#utility.yul\":26605:26609   */\n      dup2\n        /* \"#utility.yul\":26479:26610   */\n      tag_331\n      jump\t// in\n    tag_591:\n        /* \"#utility.yul\":26471:26610   */\n      swap1\n      pop\n        /* \"#utility.yul\":26198:26617   */\n      swap2\n      swap1\n      pop\n      jump\t// out\n        /* \"#utility.yul\":26623:26796   */\n    tag_332:\n        /* \"#utility.yul\":26763:26788   */\n      0x43616e6e6f74207472616e7366657220746f2073656c66000000000000000000\n        /* \"#utility.yul\":26759:26760   */\n      0x00\n        /* \"#utility.yul\":26751:26757   */\n      dup3\n        /* \"#utility.yul\":26747:26761   */\n      add\n        /* \"#utility.yul\":26740:26789   */\n      mstore\n        /* \"#utility.yul\":26623:26796   */\n      pop\n      jump\t// out\n        /* \"#utility.yul\":26802:27168   */\n    tag_333:\n        /* \"#utility.yul\":26944:26947   */\n      0x00\n        /* \"#utility.yul\":26965:27032   */\n      tag_594\n        /* \"#utility.yul\":27029:27031   */\n      0x17\n        /* \"#utility.yul\":27024:27027   */\n      dup4\n        /* \"#utility.yul\":26965:27032   */\n      tag_270\n      jump\t// in\n    tag_594:\n        /* \"#utility.yul\":26958:27032   */\n      swap2\n      pop\n        /* \"#utility.yul\":27041:27134   */\n      tag_595\n        /* \"#utility.yul\":27130:27133   */\n      dup3\n        /* \"#utility.yul\":27041:27134   */\n      tag_332\n      jump\t// in\n    tag_595:\n        /* \"#utility.yul\":27159:27161   */\n      0x20\n        /* \"#utility.yul\":27154:27157   */\n      dup3\n        /* \"#utility.yul\":27150:27162   */\n      add\n        /* \"#utility.yul\":27143:27162   */\n      swap1\n      pop\n        /* \"#utility.yul\":26802:27168   */\n      swap2\n      swap1\n      pop\n      jump\t// out\n        /* \"#utility.yul\":27174:27593   */\n    tag_243:\n        /* \"#utility.yul\":27340:27344   */\n      0x00\n        /* \"#utility.yul\":27378:27380   */\n      0x20\n        /* \"#utility.yul\":27367:27376   */\n      dup3\n        /* \"#utility.yul\":27363:27381   */\n      add\n        /* \"#utility.yul\":27355:27381   */\n      swap1\n      pop\n        /* \"#utility.yul\":27427:27436   */\n      dup2\n        /* \"#utility.yul\":27421:27425   */\n      dup2\n        /* \"#utility.yul\":27417:27437   */\n      sub\n        /* \"#utility.yul\":27413:27414   */\n      0x00\n        /* \"#utility.yul\":27402:27411   */\n      dup4\n        /* \"#utility.yul\":27398:27415   */\n      add\n        /* \"#utility.yul\":27391:27438   */\n      mstore\n        /* \"#utility.yul\":27455:27586   */\n      tag_597\n        /* \"#utility.yul\":27581:27585   */\n      dup2\n        /* \"#utility.yul\":27455:27586   */\n      tag_333\n      jump\t// in\n    tag_597:\n        /* \"#utility.yul\":27447:27586   */\n      swap1\n      pop\n        /* \"#utility.yul\":27174:27593   */\n      swap2\n      swap1\n      pop\n      jump\t// out\n        /* \"#utility.yul\":27599:27689   */\n    tag_334:\n        /* \"#utility.yul\":27633:27640   */\n      0x00\n        /* \"#utility.yul\":27676:27681   */\n      dup2\n        /* \"#utility.yul\":27669:27682   */\n      iszero\n        /* \"#utility.yul\":27662:27683   */\n      iszero\n        /* \"#utility.yul\":27651:27683   */\n      swap1\n      pop\n        /* \"#utility.yul\":27599:27689   */\n      swap2\n      swap1\n      pop\n      jump\t// out\n        /* \"#utility.yul\":27695:27794   */\n    tag_335:\n        /* \"#utility.yul\":27766:27787   */\n      tag_600\n        /* \"#utility.yul\":27781:27786   */\n      dup2\n        /* \"#utility.yul\":27766:27787   */\n      tag_334\n      jump\t// in\n    tag_600:\n        /* \"#utility.yul\":27761:27764   */\n      dup3\n        /* \"#utility.yul\":27754:27788   */\n      mstore\n        /* \"#utility.yul\":27695:27794   */\n      pop\n      pop\n      jump\t// out\n        /* \"#utility.yul\":27880:28222   */\n    tag_336:\n        /* \"#utility.yul\":28033:28037   */\n      0x20\n        /* \"#utility.yul\":28028:28031   */\n      dup3\n        /* \"#utility.yul\":28024:28038   */\n      add\n        /* \"#utility.yul\":28129:28133   */\n      0x00\n        /* \"#utility.yul\":28122:28127   */\n      dup3\n        /* \"#utility.yul\":28118:28134   */\n      add\n        /* \"#utility.yul\":28112:28135   */\n      mload\n        /* \"#utility.yul\":28148:28205   */\n      tag_602\n        /* \"#utility.yul\":28199:28203   */\n      0x00\n        /* \"#utility.yul\":28194:28197   */\n      dup6\n        /* \"#utility.yul\":28190:28204   */\n      add\n        /* \"#utility.yul\":28176:28188   */\n      dup3\n        /* \"#utility.yul\":28148:28205   */\n      tag_335\n      jump\t// in\n    tag_602:\n        /* \"#utility.yul\":28048:28215   */\n      pop\n        /* \"#utility.yul\":28002:28222   */\n      pop\n        /* \"#utility.yul\":27880:28222   */\n      pop\n      pop\n      jump\t// out\n        /* \"#utility.yul\":28228:28562   */\n    tag_252:\n        /* \"#utility.yul\":28377:28381   */\n      0x00\n        /* \"#utility.yul\":28415:28417   */\n      0x20\n        /* \"#utility.yul\":28404:28413   */\n      dup3\n        /* \"#utility.yul\":28400:28418   */\n      add\n        /* \"#utility.yul\":28392:28418   */\n      swap1\n      pop\n        /* \"#utility.yul\":28428:28555   */\n      tag_604\n        /* \"#utility.yul\":28552:28553   */\n      0x00\n        /* \"#utility.yul\":28541:28550   */\n      dup4\n        /* \"#utility.yul\":28537:28554   */\n      add\n        /* \"#utility.yul\":28528:28534   */\n      dup5\n        /* \"#utility.yul\":28428:28555   */\n      tag_336\n      jump\t// in\n    tag_604:\n        /* \"#utility.yul\":28228:28562   */\n      swap3\n      swap2\n      pop\n      pop\n      jump\t// out\n    stop\n    data_8aca7b3ace7bf64daecd7c2059337bd69dca9811cf7f1bb9ec9aef9b01c4e752 d09fd180d0b0d0b2d0b8d0bbd0b03a20302dd09ad0b0d0bcd0b5d0bdd18c2c20312dd09dd0bed0b6d0bdd0b8d186d18b2c20322dd091d183d0bcd0b0d0b3d0b02e20d092d18bd0b8d0b3d180d18bd1883a20783220d0bed18220d181d182d0b0d0b2d0bad0b82e20d09dd0b8d187d18cd18f3a20d0b2d0bed0b7d0b2d180d0b0d1822e20d0a0d0b0d0bdd0b4d0bed0bc20d187d0b5d180d0b5d0b720436861696e6c696e6b205652462076322e352e\n\n    auxdata: 0xa26469706673582212207ab66787f0ff1af8eb65d6afd5381756d436231e494c443b4d35bb07e0e6440d64736f6c634300081f0033\n}\n",
				"bytecode": {
					"linkReferences": {},
					"object": "608060405273da3b641d438362c440ac5458c57e00a712b6670060045f6101000a81548173ffffffffffffffffffffffffffffffffffffffff021916908373ffffffffffffffffffffffffffffffffffffffff1602179055507f8596b430971ac45bdf6088665b9ad8e8630c9d5049ab54b14dff711bee7c0e265f1b60055562030d4060065f6101000a81548163ffffffff021916908363ffffffff1602179055506003600660046101000a81548161ffff021916908361ffff16021790555060016006806101000a81548163ffffffff021916908363ffffffff16021790555060405161299e38038061299e83398181016040528101906101019190610484565b60045f9054906101000a900473ffffffffffffffffffffffffffffffffffffffff1633805f5f73ffffffffffffffffffffffffffffffffffffffff168273ffffffffffffffffffffffffffffffffffffffff1603610194576040517f08c379a000000000000000000000000000000000000000000000000000000000815260040161018b90610509565b60405180910390fd5b815f5f6101000a81548173ffffffffffffffffffffffffffffffffffffffff021916908373ffffffffffffffffffffffffffffffffffffffff1602179055505f73ffffffffffffffffffffffffffffffffffffffff168173ffffffffffffffffffffffffffffffffffffffff161461021657610215816102f060201b60201c565b5b5050505f73ffffffffffffffffffffffffffffffffffffffff168173ffffffffffffffffffffffffffffffffffffffff160361027e576040517fd92e233d00000000000000000000000000000000000000000000000000000000815260040160405180910390fd5b8060025f6101000a81548173ffffffffffffffffffffffffffffffffffffffff021916908373ffffffffffffffffffffffffffffffffffffffff1602179055505060016102dd6102d261041b60201b60201c565b61044460201b60201c565b5f0181905550806003819055505061058f565b3373ffffffffffffffffffffffffffffffffffffffff168173ffffffffffffffffffffffffffffffffffffffff160361035e576040517f08c379a000000000000000000000000000000000000000000000000000000000815260040161035590610571565b60405180910390fd5b8060015f6101000a81548173ffffffffffffffffffffffffffffffffffffffff021916908373ffffffffffffffffffffffffffffffffffffffff1602179055508073ffffffffffffffffffffffffffffffffffffffff165f5f9054906101000a900473ffffffffffffffffffffffffffffffffffffffff1673ffffffffffffffffffffffffffffffffffffffff167fed8889f560326eb138920d842192f0eb3dd22b4f139c87a2c57538e05bae127860405160405180910390a350565b5f7f9b779b17422d0df92223018b32b4d1fa46e071723d6817e2486d003becc55f005f1b905090565b5f819050919050565b5f5ffd5b5f819050919050565b61046381610451565b811461046d575f5ffd5b50565b5f8151905061047e8161045a565b92915050565b5f602082840312156104995761049861044d565b5b5f6104a684828501610470565b91505092915050565b5f82825260208201905092915050565b7f43616e6e6f7420736574206f776e657220746f207a65726f00000000000000005f82015250565b5f6104f36018836104af565b91506104fe826104bf565b602082019050919050565b5f6020820190508181035f830152610520816104e7565b9050919050565b7f43616e6e6f74207472616e7366657220746f2073656c660000000000000000005f82015250565b5f61055b6017836104af565b915061056682610527565b602082019050919050565b5f6020820190508181035f8301526105888161054f565b9050919050565b6124028061059c5f395ff3fe608060405260043610610129575f3560e01c806382bc07e6116100aa5780639eccacf61161006e5780639eccacf61461033b578063a3e56fa814610365578063b0fb162f1461038f578063d0e30db0146103b9578063e856bb18146103c3578063f2fde38b146103cd57610129565b806382bc07e61461027b578063853828b6146102a95780638ac00021146102bf5780638da5cb5b146102e95780638ea981171461031357610129565b806361728f39116100f157806361728f39146101dd5780636540742f146102075780636be2c84e1461023157806379ba50971461023b5780637ccfd7fc1461025157610129565b806312065fe01461012d5780631fe543e31461015757806324f746971461017f57806341a26083146101a957806345e2984a146101b3575b5f5ffd5b348015610138575f5ffd5b506101416103f5565b60405161014e91906115c5565b60405180910390f35b348015610162575f5ffd5b5061017d60048036038101906101789190611671565b6103fc565b005b34801561018a575f5ffd5b506101936104c0565b6040516101a091906116ec565b60405180910390f35b6101b16104d5565b005b3480156101be575f5ffd5b506101c76104f0565b6040516101d49190611775565b60405180910390f35b3480156101e8575f5ffd5b506101f1610510565b6040516101fe91906117ad565b60405180910390f35b348015610212575f5ffd5b5061021b610516565b60405161022891906115c5565b60405180910390f35b61023961051f565b005b348015610246575f5ffd5b5061024f61053b565b005b34801561025c575f5ffd5b506102656106ca565b60405161027291906116ec565b60405180910390f35b348015610286575f5ffd5b5061028f6106de565b6040516102a0959493929190611820565b60405180910390f35b3480156102b4575f5ffd5b506102bd6107be565b005b3480156102ca575f5ffd5b506102d3610886565b6040516102e091906115c5565b60405180910390f35b3480156102f4575f5ffd5b506102fd61088c565b60405161030a9190611878565b60405180910390f35b34801561031e575f5ffd5b50610339600480360381019061033491906118bb565b6108b3565b005b348015610346575f5ffd5b5061034f610a90565b60405161035c9190611941565b60405180910390f35b348015610370575f5ffd5b50610379610ab5565b6040516103869190611878565b60405180910390f35b34801561039a575f5ffd5b506103a3610ada565b6040516103b09190611976565b60405180910390f35b6103c1610aee565b005b6103cb610af0565b005b3480156103d8575f5ffd5b506103f360048036038101906103ee91906118bb565b610b0c565b005b5f47905090565b60025f9054906101000a900473ffffffffffffffffffffffffffffffffffffffff1673ffffffffffffffffffffffffffffffffffffffff163373ffffffffffffffffffffffffffffffffffffffff16146104b0573360025f9054906101000a900473ffffffffffffffffffffffffffffffffffffffff166040517f1cf993f40000000000000000000000000000000000000000000000000000000081526004016104a792919061198f565b60405180910390fd5b6104bb838383610b20565b505050565b60065f9054906101000a900463ffffffff1681565b6104dd610fc7565b6104e65f610fe9565b6104ee6112b1565b565b60606040518060e0016040528060af815260200161231e60af9139905090565b60055481565b64e8d4a5100081565b610527610fc7565b6105316001610fe9565b6105396112b1565b565b60015f9054906101000a900473ffffffffffffffffffffffffffffffffffffffff1673ffffffffffffffffffffffffffffffffffffffff163373ffffffffffffffffffffffffffffffffffffffff16146105ca576040517f08c379a00000000000000000000000000000000000000000000000000000000081526004016105c190611a00565b60405180910390fd5b5f5f5f9054906101000a900473ffffffffffffffffffffffffffffffffffffffff169050335f5f6101000a81548173ffffffffffffffffffffffffffffffffffffffff021916908373ffffffffffffffffffffffffffffffffffffffff1602179055505f60015f6101000a81548173ffffffffffffffffffffffffffffffffffffffff021916908373ffffffffffffffffffffffffffffffffffffffff1602179055503373ffffffffffffffffffffffffffffffffffffffff168173ffffffffffffffffffffffffffffffffffffffff167f8be0079c531659141344cd1fd0a4f28419497f9722a3daafe3b4186f6b6457e060405160405180910390a350565b60068054906101000a900463ffffffff1681565b6008805f015f9054906101000a900473ffffffffffffffffffffffffffffffffffffffff1690805f0160149054906101000a900460ff1690805f0160159054906101000a900460ff169080600101805461073790611a4b565b80601f016020809104026020016040519081016040528092919081815260200182805461076390611a4b565b80156107ae5780601f10610785576101008083540402835291602001916107ae565b820191905f5260205f20905b81548152906001019060200180831161079157829003601f168201915b5050505050908060020154905085565b6107c66112cb565b6107ce610fc7565b5f4790505f3373ffffffffffffffffffffffffffffffffffffffff16826040516107f790611aa8565b5f6040518083038185875af1925050503d805f8114610831576040519150601f19603f3d011682016040523d82523d5f602084013e610836565b606091505b505090508061087a576040517f08c379a000000000000000000000000000000000000000000000000000000000815260040161087190611b06565b60405180910390fd5b50506108846112b1565b565b60035481565b5f5f5f9054906101000a900473ffffffffffffffffffffffffffffffffffffffff16905090565b6108bb61088c565b73ffffffffffffffffffffffffffffffffffffffff163373ffffffffffffffffffffffffffffffffffffffff1614158015610943575060025f9054906101000a900473ffffffffffffffffffffffffffffffffffffffff1673ffffffffffffffffffffffffffffffffffffffff163373ffffffffffffffffffffffffffffffffffffffff1614155b156109b1573361095161088c565b60025f9054906101000a900473ffffffffffffffffffffffffffffffffffffffff166040517f061db9c10000000000000000000000000000000000000000000000000000000081526004016109a893929190611b24565b60405180910390fd5b5f73ffffffffffffffffffffffffffffffffffffffff168173ffffffffffffffffffffffffffffffffffffffff1603610a16576040517fd92e233d00000000000000000000000000000000000000000000000000000000815260040160405180910390fd5b8060025f6101000a81548173ffffffffffffffffffffffffffffffffffffffff021916908373ffffffffffffffffffffffffffffffffffffffff1602179055507fd1a6a14209a385a964d036e404cb5cfb71f4000cdb03c9366292430787261be681604051610a859190611878565b60405180910390a150565b60025f9054906101000a900473ffffffffffffffffffffffffffffffffffffffff1681565b60045f9054906101000a900473ffffffffffffffffffffffffffffffffffffffff1681565b600660049054906101000a900461ffff1681565b565b610af8610fc7565b610b026002610fe9565b610b0a6112b1565b565b610b146112cb565b610b1d8161135b565b50565b5f60075f8581526020019081526020015f206040518060600160405290815f82015f9054906101000a900473ffffffffffffffffffffffffffffffffffffffff1673ffffffffffffffffffffffffffffffffffffffff1673ffffffffffffffffffffffffffffffffffffffff16815260200160018201548152602001600282015f9054906101000a900460ff1660ff1660ff168152505090505f73ffffffffffffffffffffffffffffffffffffffff16815f015173ffffffffffffffffffffffffffffffffffffffff1603610bf55750610fc2565b5f600384845f818110610c0b57610c0a611b59565b5b90506020020135610c1c9190611bb3565b905060605f5f90508260ff16846040015160ff1603610c79576040518060400160405280600481526020017f4472617700000000000000000000000000000000000000000000000000000000815250915083602001519050610d62565b5f846040015160ff16148015610c92575060018360ff16145b80610cb357506001846040015160ff16148015610cb2575060028360ff16145b5b80610cd357506002846040015160ff16148015610cd257505f8360ff16145b5b15610d28576040518060400160405280600881526020017f596f752057696e21000000000000000000000000000000000000000000000000815250915060028460200151610d219190611c10565b9050610d61565b6040518060400160405280600481526020017f4c6f73650000000000000000000000000000000000000000000000000000000081525091505b5b6040518060a00160405280855f015173ffffffffffffffffffffffffffffffffffffffff168152602001856040015160ff1681526020018460ff168152602001838152602001856020015181525060085f820151815f015f6101000a81548173ffffffffffffffffffffffffffffffffffffffff021916908373ffffffffffffffffffffffffffffffffffffffff1602179055506020820151815f0160146101000a81548160ff021916908360ff1602179055506040820151815f0160156101000a81548160ff021916908360ff1602179055506060820151816001019081610e4b9190611e15565b5060808201518160020155905050835f015173ffffffffffffffffffffffffffffffffffffffff16877f7b4808590be30406d307fddac8afaff3af9dbc0dfb89d1a3bc6cde582c6f64a38660400151868686604051610ead9493929190611ee4565b60405180910390a35f811115610f6a575f845f015173ffffffffffffffffffffffffffffffffffffffff1682604051610ee590611aa8565b5f6040518083038185875af1925050503d805f8114610f1f576040519150601f19603f3d011682016040523d82523d5f602084013e610f24565b606091505b5050905080610f68576040517f08c379a0000000000000000000000000000000000000000000000000000000008152600401610f5f90611f78565b60405180910390fd5b505b60075f8881526020019081526020015f205f5f82015f6101000a81549073ffffffffffffffffffffffffffffffffffffffff0219169055600182015f9055600282015f6101000a81549060ff02191690555050505050505b505050565b610fcf611486565b6002610fe1610fdc6114c7565b6114f0565b5f0181905550565b64e8d4a51000341015611031576040517f08c379a000000000000000000000000000000000000000000000000000000000815260040161102890611fe0565b60405180910390fd5b60023461103e9190611c10565b471015611080576040517f08c379a000000000000000000000000000000000000000000000000000000000815260040161107790612048565b60405180910390fd5b5f60025f9054906101000a900473ffffffffffffffffffffffffffffffffffffffff1673ffffffffffffffffffffffffffffffffffffffff16639b1c385e6040518060c0016040528060055481526020016003548152602001600660049054906101000a900461ffff1661ffff16815260200160065f9054906101000a900463ffffffff1663ffffffff16815260200160068054906101000a900463ffffffff1663ffffffff16815260200161114560405180602001604052805f15158152506114f9565b8152506040518263ffffffff1660e01b8152600401611164919061217a565b6020604051808303815f875af1158015611180573d5f5f3e3d5ffd5b505050506040513d601f19601f820116820180604052508101906111a491906121ae565b905060405180606001604052803373ffffffffffffffffffffffffffffffffffffffff1681526020013481526020018360ff1681525060075f8381526020019081526020015f205f820151815f015f6101000a81548173ffffffffffffffffffffffffffffffffffffffff021916908373ffffffffffffffffffffffffffffffffffffffff160217905550602082015181600101556040820151816002015f6101000a81548160ff021916908360ff1602179055509050503373ffffffffffffffffffffffffffffffffffffffff16817fbb2ba4f5e2e4ccd8d92a9b7a2d3ee8a1d2a1ea3f6e004354f23dd2d084e2199784346040516112a59291906121d9565b60405180910390a35050565b60016112c36112be6114c7565b6114f0565b5f0181905550565b5f5f9054906101000a900473ffffffffffffffffffffffffffffffffffffffff1673ffffffffffffffffffffffffffffffffffffffff163373ffffffffffffffffffffffffffffffffffffffff1614611359576040517f08c379a00000000000000000000000000000000000000000000000000000000081526004016113509061224a565b60405180910390fd5b565b3373ffffffffffffffffffffffffffffffffffffffff168173ffffffffffffffffffffffffffffffffffffffff16036113c9576040517f08c379a00000000000000000000000000000000000000000000000000000000081526004016113c0906122b2565b60405180910390fd5b8060015f6101000a81548173ffffffffffffffffffffffffffffffffffffffff021916908373ffffffffffffffffffffffffffffffffffffffff1602179055508073ffffffffffffffffffffffffffffffffffffffff165f5f9054906101000a900473ffffffffffffffffffffffffffffffffffffffff1673ffffffffffffffffffffffffffffffffffffffff167fed8889f560326eb138920d842192f0eb3dd22b4f139c87a2c57538e05bae127860405160405180910390a350565b61148e611591565b156114c5576040517f3ee5aeb500000000000000000000000000000000000000000000000000000000815260040160405180910390fd5b565b5f7f9b779b17422d0df92223018b32b4d1fa46e071723d6817e2486d003becc55f005f1b905090565b5f819050919050565b60607f92fd13387c7fe7befbc38d303d6468778fb9731bc4583f17d92989c6fcfdeaaa8260405160240161152d9190612304565b604051602081830303815290604052907bffffffffffffffffffffffffffffffffffffffffffffffffffffffff19166020820180517bffffffffffffffffffffffffffffffffffffffffffffffffffffffff83818316178352505050509050919050565b5f60026115a461159f6114c7565b6114f0565b5f015414905090565b5f819050919050565b6115bf816115ad565b82525050565b5f6020820190506115d85f8301846115b6565b92915050565b5f5ffd5b5f5ffd5b6115ef816115ad565b81146115f9575f5ffd5b50565b5f8135905061160a816115e6565b92915050565b5f5ffd5b5f5ffd5b5f5ffd5b5f5f83601f84011261163157611630611610565b5b8235905067ffffffffffffffff81111561164e5761164d611614565b5b60208301915083602082028301111561166a57611669611618565b5b9250929050565b5f5f5f60408486031215611688576116876115de565b5b5f611695868287016115fc565b935050602084013567ffffffffffffffff8111156116b6576116b56115e2565b5b6116c28682870161161c565b92509250509250925092565b5f63ffffffff82169050919050565b6116e6816116ce565b82525050565b5f6020820190506116ff5f8301846116dd565b92915050565b5f81519050919050565b5f82825260208201905092915050565b8281835e5f83830152505050565b5f601f19601f8301169050919050565b5f61174782611705565b611751818561170f565b935061176181856020860161171f565b61176a8161172d565b840191505092915050565b5f6020820190508181035f83015261178d818461173d565b905092915050565b5f819050919050565b6117a781611795565b82525050565b5f6020820190506117c05f83018461179e565b92915050565b5f73ffffffffffffffffffffffffffffffffffffffff82169050919050565b5f6117ef826117c6565b9050919050565b6117ff816117e5565b82525050565b5f60ff82169050919050565b61181a81611805565b82525050565b5f60a0820190506118335f8301886117f6565b6118406020830187611811565b61184d6040830186611811565b818103606083015261185f818561173d565b905061186e60808301846115b6565b9695505050505050565b5f60208201905061188b5f8301846117f6565b92915050565b61189a816117e5565b81146118a4575f5ffd5b50565b5f813590506118b581611891565b92915050565b5f602082840312156118d0576118cf6115de565b5b5f6118dd848285016118a7565b91505092915050565b5f819050919050565b5f6119096119046118ff846117c6565b6118e6565b6117c6565b9050919050565b5f61191a826118ef565b9050919050565b5f61192b82611910565b9050919050565b61193b81611921565b82525050565b5f6020820190506119545f830184611932565b92915050565b5f61ffff82169050919050565b6119708161195a565b82525050565b5f6020820190506119895f830184611967565b92915050565b5f6040820190506119a25f8301856117f6565b6119af60208301846117f6565b9392505050565b7f4d7573742062652070726f706f736564206f776e6572000000000000000000005f82015250565b5f6119ea60168361170f565b91506119f5826119b6565b602082019050919050565b5f6020820190508181035f830152611a17816119de565b9050919050565b7f4e487b71000000000000000000000000000000000000000000000000000000005f52602260045260245ffd5b5f6002820490506001821680611a6257607f821691505b602082108103611a7557611a74611a1e565b5b50919050565b5f81905092915050565b50565b5f611a935f83611a7b565b9150611a9e82611a85565b5f82019050919050565b5f611ab282611a88565b9150819050919050565b7f5769746864726177616c206661696c65640000000000000000000000000000005f82015250565b5f611af060118361170f565b9150611afb82611abc565b602082019050919050565b5f6020820190508181035f830152611b1d81611ae4565b9050919050565b5f606082019050611b375f8301866117f6565b611b4460208301856117f6565b611b5160408301846117f6565b949350505050565b7f4e487b71000000000000000000000000000000000000000000000000000000005f52603260045260245ffd5b7f4e487b71000000000000000000000000000000000000000000000000000000005f52601260045260245ffd5b5f611bbd826115ad565b9150611bc8836115ad565b925082611bd857611bd7611b86565b5b828206905092915050565b7f4e487b71000000000000000000000000000000000000000000000000000000005f52601160045260245ffd5b5f611c1a826115ad565b9150611c25836115ad565b9250828202611c33816115ad565b91508282048414831517611c4a57611c49611be3565b5b5092915050565b7f4e487b71000000000000000000000000000000000000000000000000000000005f52604160045260245ffd5b5f819050815f5260205f209050919050565b5f6020601f8301049050919050565b5f82821b905092915050565b5f60088302611cda7fffffffffffffffffffffffffffffffffffffffffffffffffffffffffffffffff82611c9f565b611ce48683611c9f565b95508019841693508086168417925050509392505050565b5f611d16611d11611d0c846115ad565b6118e6565b6115ad565b9050919050565b5f819050919050565b611d2f83611cfc565b611d43611d3b82611d1d565b848454611cab565b825550505050565b5f5f905090565b611d5a611d4b565b611d65818484611d26565b505050565b5b81811015611d8857611d7d5f82611d52565b600181019050611d6b565b5050565b601f821115611dcd57611d9e81611c7e565b611da784611c90565b81016020851015611db6578190505b611dca611dc285611c90565b830182611d6a565b50505b505050565b5f82821c905092915050565b5f611ded5f1984600802611dd2565b1980831691505092915050565b5f611e058383611dde565b9150826002028217905092915050565b611e1e82611705565b67ffffffffffffffff811115611e3757611e36611c51565b5b611e418254611a4b565b611e4c828285611d8c565b5f60209050601f831160018114611e7d575f8415611e6b578287015190505b611e758582611dfa565b865550611edc565b601f198416611e8b86611c7e565b5f5b82811015611eb257848901518255600182019150602085019450602081019050611e8d565b86831015611ecf5784890151611ecb601f891682611dde565b8355505b6001600288020188555050505b505050505050565b5f608082019050611ef75f830187611811565b611f046020830186611811565b8181036040830152611f16818561173d565b9050611f2560608301846115b6565b95945050505050565b7f5472616e73666572206661696c656400000000000000000000000000000000005f82015250565b5f611f62600f8361170f565b9150611f6d82611f2e565b602082019050919050565b5f6020820190508181035f830152611f8f81611f56565b9050919050565b7f42657420746f6f206c6f770000000000000000000000000000000000000000005f82015250565b5f611fca600b8361170f565b9150611fd582611f96565b602082019050919050565b5f6020820190508181035f830152611ff781611fbe565b9050919050565b7f436f6e747261637420697320656d7074790000000000000000000000000000005f82015250565b5f61203260118361170f565b915061203d82611ffe565b602082019050919050565b5f6020820190508181035f83015261205f81612026565b9050919050565b61206f81611795565b82525050565b61207e816115ad565b82525050565b61208d8161195a565b82525050565b61209c816116ce565b82525050565b5f81519050919050565b5f82825260208201905092915050565b5f6120c6826120a2565b6120d081856120ac565b93506120e081856020860161171f565b6120e98161172d565b840191505092915050565b5f60c083015f8301516121095f860182612066565b50602083015161211c6020860182612075565b50604083015161212f6040860182612084565b5060608301516121426060860182612093565b5060808301516121556080860182612093565b5060a083015184820360a086015261216d82826120bc565b9150508091505092915050565b5f6020820190508181035f83015261219281846120f4565b905092915050565b5f815190506121a8816115e6565b92915050565b5f602082840312156121c3576121c26115de565b5b5f6121d08482850161219a565b91505092915050565b5f6040820190506121ec5f830185611811565b6121f960208301846115b6565b9392505050565b7f4f6e6c792063616c6c61626c65206279206f776e6572000000000000000000005f82015250565b5f61223460168361170f565b915061223f82612200565b602082019050919050565b5f6020820190508181035f83015261226181612228565b9050919050565b7f43616e6e6f74207472616e7366657220746f2073656c660000000000000000005f82015250565b5f61229c60178361170f565b91506122a782612268565b602082019050919050565b5f6020820190508181035f8301526122c981612290565b9050919050565b5f8115159050919050565b6122e4816122d0565b82525050565b602082015f8201516122fe5f8501826122db565b50505050565b5f6020820190506123175f8301846122ea565b9291505056fed09fd180d0b0d0b2d0b8d0bbd0b03a20302dd09ad0b0d0bcd0b5d0bdd18c2c20312dd09dd0bed0b6d0bdd0b8d186d18b2c20322dd091d183d0bcd0b0d0b3d0b02e20d092d18bd0b8d0b3d180d18bd1883a20783220d0bed18220d181d182d0b0d0b2d0bad0b82e20d09dd0b8d187d18cd18f3a20d0b2d0bed0b7d0b2d180d0b0d1822e20d0a0d0b0d0bdd0b4d0bed0bc20d187d0b5d180d0b5d0b720436861696e6c696e6b205652462076322e352ea26469706673582212207ab66787f0ff1af8eb65d6afd5381756d436231e494c443b4d35bb07e0e6440d64736f6c634300081f0033",
					"opcodes": "PUSH1 0x80 PUSH1 0x40 MSTORE PUSH20 0xDA3B641D438362C440AC5458C57E00A712B66700 PUSH1 0x4 PUSH0 PUSH2 0x100 EXP DUP2 SLOAD DUP2 PUSH20 0xFFFFFFFFFFFFFFFFFFFFFFFFFFFFFFFFFFFFFFFF MUL NOT AND SWAP1 DUP4 PUSH20 0xFFFFFFFFFFFFFFFFFFFFFFFFFFFFFFFFFFFFFFFF AND MUL OR SWAP1 SSTORE POP PUSH32 0x8596B430971AC45BDF6088665B9AD8E8630C9D5049AB54B14DFF711BEE7C0E26 PUSH0 SHL PUSH1 0x5 SSTORE PUSH3 0x30D40 PUSH1 0x6 PUSH0 PUSH2 0x100 EXP DUP2 SLOAD DUP2 PUSH4 0xFFFFFFFF MUL NOT AND SWAP1 DUP4 PUSH4 0xFFFFFFFF AND MUL OR SWAP1 SSTORE POP PUSH1 0x3 PUSH1 0x6 PUSH1 0x4 PUSH2 0x100 EXP DUP2 SLOAD DUP2 PUSH2 0xFFFF MUL NOT AND SWAP1 DUP4 PUSH2 0xFFFF AND MUL OR SWAP1 SSTORE POP PUSH1 0x1 PUSH1 0x6 DUP1 PUSH2 0x100 EXP DUP2 SLOAD DUP2 PUSH4 0xFFFFFFFF MUL NOT AND SWAP1 DUP4 PUSH4 0xFFFFFFFF AND MUL OR SWAP1 SSTORE POP PUSH1 0x40 MLOAD PUSH2 0x299E CODESIZE SUB DUP1 PUSH2 0x299E DUP4 CODECOPY DUP2 DUP2 ADD PUSH1 0x40 MSTORE DUP2 ADD SWAP1 PUSH2 0x101 SWAP2 SWAP1 PUSH2 0x484 JUMP JUMPDEST PUSH1 0x4 PUSH0 SWAP1 SLOAD SWAP1 PUSH2 0x100 EXP SWAP1 DIV PUSH20 0xFFFFFFFFFFFFFFFFFFFFFFFFFFFFFFFFFFFFFFFF AND CALLER DUP1 PUSH0 PUSH0 PUSH20 0xFFFFFFFFFFFFFFFFFFFFFFFFFFFFFFFFFFFFFFFF AND DUP3 PUSH20 0xFFFFFFFFFFFFFFFFFFFFFFFFFFFFFFFFFFFFFFFF AND SUB PUSH2 0x194 JUMPI PUSH1 0x40 MLOAD PUSH32 0x8C379A000000000000000000000000000000000000000000000000000000000 DUP2 MSTORE PUSH1 0x4 ADD PUSH2 0x18B SWAP1 PUSH2 0x509 JUMP JUMPDEST PUSH1 0x40 MLOAD DUP1 SWAP2 SUB SWAP1 REVERT JUMPDEST DUP2 PUSH0 PUSH0 PUSH2 0x100 EXP DUP2 SLOAD DUP2 PUSH20 0xFFFFFFFFFFFFFFFFFFFFFFFFFFFFFFFFFFFFFFFF MUL NOT AND SWAP1 DUP4 PUSH20 0xFFFFFFFFFFFFFFFFFFFFFFFFFFFFFFFFFFFFFFFF AND MUL OR SWAP1 SSTORE POP PUSH0 PUSH20 0xFFFFFFFFFFFFFFFFFFFFFFFFFFFFFFFFFFFFFFFF AND DUP2 PUSH20 0xFFFFFFFFFFFFFFFFFFFFFFFFFFFFFFFFFFFFFFFF AND EQ PUSH2 0x216 JUMPI PUSH2 0x215 DUP2 PUSH2 0x2F0 PUSH1 0x20 SHL PUSH1 0x20 SHR JUMP JUMPDEST JUMPDEST POP POP POP PUSH0 PUSH20 0xFFFFFFFFFFFFFFFFFFFFFFFFFFFFFFFFFFFFFFFF AND DUP2 PUSH20 0xFFFFFFFFFFFFFFFFFFFFFFFFFFFFFFFFFFFFFFFF AND SUB PUSH2 0x27E JUMPI PUSH1 0x40 MLOAD PUSH32 0xD92E233D00000000000000000000000000000000000000000000000000000000 DUP2 MSTORE PUSH1 0x4 ADD PUSH1 0x40 MLOAD DUP1 SWAP2 SUB SWAP1 REVERT JUMPDEST DUP1 PUSH1 0x2 PUSH0 PUSH2 0x100 EXP DUP2 SLOAD DUP2 PUSH20 0xFFFFFFFFFFFFFFFFFFFFFFFFFFFFFFFFFFFFFFFF MUL NOT AND SWAP1 DUP4 PUSH20 0xFFFFFFFFFFFFFFFFFFFFFFFFFFFFFFFFFFFFFFFF AND MUL OR SWAP1 SSTORE POP POP PUSH1 0x1 PUSH2 0x2DD PUSH2 0x2D2 PUSH2 0x41B PUSH1 0x20 SHL PUSH1 0x20 SHR JUMP JUMPDEST PUSH2 0x444 PUSH1 0x20 SHL PUSH1 0x20 SHR JUMP JUMPDEST PUSH0 ADD DUP2 SWAP1 SSTORE POP DUP1 PUSH1 0x3 DUP2 SWAP1 SSTORE POP POP PUSH2 0x58F JUMP JUMPDEST CALLER PUSH20 0xFFFFFFFFFFFFFFFFFFFFFFFFFFFFFFFFFFFFFFFF AND DUP2 PUSH20 0xFFFFFFFFFFFFFFFFFFFFFFFFFFFFFFFFFFFFFFFF AND SUB PUSH2 0x35E JUMPI PUSH1 0x40 MLOAD PUSH32 0x8C379A000000000000000000000000000000000000000000000000000000000 DUP2 MSTORE PUSH1 0x4 ADD PUSH2 0x355 SWAP1 PUSH2 0x571 JUMP JUMPDEST PUSH1 0x40 MLOAD DUP1 SWAP2 SUB SWAP1 REVERT JUMPDEST DUP1 PUSH1 0x1 PUSH0 PUSH2 0x100 EXP DUP2 SLOAD DUP2 PUSH20 0xFFFFFFFFFFFFFFFFFFFFFFFFFFFFFFFFFFFFFFFF MUL NOT AND SWAP1 DUP4 PUSH20 0xFFFFFFFFFFFFFFFFFFFFFFFFFFFFFFFFFFFFFFFF AND MUL OR SWAP1 SSTORE POP DUP1 PUSH20 0xFFFFFFFFFFFFFFFFFFFFFFFFFFFFFFFFFFFFFFFF AND PUSH0 PUSH0 SWAP1 SLOAD SWAP1 PUSH2 0x100 EXP SWAP1 DIV PUSH20 0xFFFFFFFFFFFFFFFFFFFFFFFFFFFFFFFFFFFFFFFF AND PUSH20 0xFFFFFFFFFFFFFFFFFFFFFFFFFFFFFFFFFFFFFFFF AND PUSH32 0xED8889F560326EB138920D842192F0EB3DD22B4F139C87A2C57538E05BAE1278 PUSH1 0x40 MLOAD PUSH1 0x40 MLOAD DUP1 SWAP2 SUB SWAP1 LOG3 POP JUMP JUMPDEST PUSH0 PUSH32 0x9B779B17422D0DF92223018B32B4D1FA46E071723D6817E2486D003BECC55F00 PUSH0 SHL SWAP1 POP SWAP1 JUMP JUMPDEST PUSH0 DUP2 SWAP1 POP SWAP2 SWAP1 POP JUMP JUMPDEST PUSH0 PUSH0 REVERT JUMPDEST PUSH0 DUP2 SWAP1 POP SWAP2 SWAP1 POP JUMP JUMPDEST PUSH2 0x463 DUP2 PUSH2 0x451 JUMP JUMPDEST DUP2 EQ PUSH2 0x46D JUMPI PUSH0 PUSH0 REVERT JUMPDEST POP JUMP JUMPDEST PUSH0 DUP2 MLOAD SWAP1 POP PUSH2 0x47E DUP2 PUSH2 0x45A JUMP JUMPDEST SWAP3 SWAP2 POP POP JUMP JUMPDEST PUSH0 PUSH1 0x20 DUP3 DUP5 SUB SLT ISZERO PUSH2 0x499 JUMPI PUSH2 0x498 PUSH2 0x44D JUMP JUMPDEST JUMPDEST PUSH0 PUSH2 0x4A6 DUP5 DUP3 DUP6 ADD PUSH2 0x470 JUMP JUMPDEST SWAP2 POP POP SWAP3 SWAP2 POP POP JUMP JUMPDEST PUSH0 DUP3 DUP3 MSTORE PUSH1 0x20 DUP3 ADD SWAP1 POP SWAP3 SWAP2 POP POP JUMP JUMPDEST PUSH32 0x43616E6E6F7420736574206F776E657220746F207A65726F0000000000000000 PUSH0 DUP3 ADD MSTORE POP JUMP JUMPDEST PUSH0 PUSH2 0x4F3 PUSH1 0x18 DUP4 PUSH2 0x4AF JUMP JUMPDEST SWAP2 POP PUSH2 0x4FE DUP3 PUSH2 0x4BF JUMP JUMPDEST PUSH1 0x20 DUP3 ADD SWAP1 POP SWAP2 SWAP1 POP JUMP JUMPDEST PUSH0 PUSH1 0x20 DUP3 ADD SWAP1 POP DUP2 DUP2 SUB PUSH0 DUP4 ADD MSTORE PUSH2 0x520 DUP2 PUSH2 0x4E7 JUMP JUMPDEST SWAP1 POP SWAP2 SWAP1 POP JUMP JUMPDEST PUSH32 0x43616E6E6F74207472616E7366657220746F2073656C66000000000000000000 PUSH0 DUP3 ADD MSTORE POP JUMP JUMPDEST PUSH0 PUSH2 0x55B PUSH1 0x17 DUP4 PUSH2 0x4AF JUMP JUMPDEST SWAP2 POP PUSH2 0x566 DUP3 PUSH2 0x527 JUMP JUMPDEST PUSH1 0x20 DUP3 ADD SWAP1 POP SWAP2 SWAP1 POP JUMP JUMPDEST PUSH0 PUSH1 0x20 DUP3 ADD SWAP1 POP DUP2 DUP2 SUB PUSH0 DUP4 ADD MSTORE PUSH2 0x588 DUP2 PUSH2 0x54F JUMP JUMPDEST SWAP1 POP SWAP2 SWAP1 POP JUMP JUMPDEST PUSH2 0x2402 DUP1 PUSH2 0x59C PUSH0 CODECOPY PUSH0 RETURN INVALID PUSH1 0x80 PUSH1 0x40 MSTORE PUSH1 0x4 CALLDATASIZE LT PUSH2 0x129 JUMPI PUSH0 CALLDATALOAD PUSH1 0xE0 SHR DUP1 PUSH4 0x82BC07E6 GT PUSH2 0xAA JUMPI DUP1 PUSH4 0x9ECCACF6 GT PUSH2 0x6E JUMPI DUP1 PUSH4 0x9ECCACF6 EQ PUSH2 0x33B JUMPI DUP1 PUSH4 0xA3E56FA8 EQ PUSH2 0x365 JUMPI DUP1 PUSH4 0xB0FB162F EQ PUSH2 0x38F JUMPI DUP1 PUSH4 0xD0E30DB0 EQ PUSH2 0x3B9 JUMPI DUP1 PUSH4 0xE856BB18 EQ PUSH2 0x3C3 JUMPI DUP1 PUSH4 0xF2FDE38B EQ PUSH2 0x3CD JUMPI PUSH2 0x129 JUMP JUMPDEST DUP1 PUSH4 0x82BC07E6 EQ PUSH2 0x27B JUMPI DUP1 PUSH4 0x853828B6 EQ PUSH2 0x2A9 JUMPI DUP1 PUSH4 0x8AC00021 EQ PUSH2 0x2BF JUMPI DUP1 PUSH4 0x8DA5CB5B EQ PUSH2 0x2E9 JUMPI DUP1 PUSH4 0x8EA98117 EQ PUSH2 0x313 JUMPI PUSH2 0x129 JUMP JUMPDEST DUP1 PUSH4 0x61728F39 GT PUSH2 0xF1 JUMPI DUP1 PUSH4 0x61728F39 EQ PUSH2 0x1DD JUMPI DUP1 PUSH4 0x6540742F EQ PUSH2 0x207 JUMPI DUP1 PUSH4 0x6BE2C84E EQ PUSH2 0x231 JUMPI DUP1 PUSH4 0x79BA5097 EQ PUSH2 0x23B JUMPI DUP1 PUSH4 0x7CCFD7FC EQ PUSH2 0x251 JUMPI PUSH2 0x129 JUMP JUMPDEST DUP1 PUSH4 0x12065FE0 EQ PUSH2 0x12D JUMPI DUP1 PUSH4 0x1FE543E3 EQ PUSH2 0x157 JUMPI DUP1 PUSH4 0x24F74697 EQ PUSH2 0x17F JUMPI DUP1 PUSH4 0x41A26083 EQ PUSH2 0x1A9 JUMPI DUP1 PUSH4 0x45E2984A EQ PUSH2 0x1B3 JUMPI JUMPDEST PUSH0 PUSH0 REVERT JUMPDEST CALLVALUE DUP1 ISZERO PUSH2 0x138 JUMPI PUSH0 PUSH0 REVERT JUMPDEST POP PUSH2 0x141 PUSH2 0x3F5 JUMP JUMPDEST PUSH1 0x40 MLOAD PUSH2 0x14E SWAP2 SWAP1 PUSH2 0x15C5 JUMP JUMPDEST PUSH1 0x40 MLOAD DUP1 SWAP2 SUB SWAP1 RETURN JUMPDEST CALLVALUE DUP1 ISZERO PUSH2 0x162 JUMPI PUSH0 PUSH0 REVERT JUMPDEST POP PUSH2 0x17D PUSH1 0x4 DUP1 CALLDATASIZE SUB DUP2 ADD SWAP1 PUSH2 0x178 SWAP2 SWAP1 PUSH2 0x1671 JUMP JUMPDEST PUSH2 0x3FC JUMP JUMPDEST STOP JUMPDEST CALLVALUE DUP1 ISZERO PUSH2 0x18A JUMPI PUSH0 PUSH0 REVERT JUMPDEST POP PUSH2 0x193 PUSH2 0x4C0 JUMP JUMPDEST PUSH1 0x40 MLOAD PUSH2 0x1A0 SWAP2 SWAP1 PUSH2 0x16EC JUMP JUMPDEST PUSH1 0x40 MLOAD DUP1 SWAP2 SUB SWAP1 RETURN JUMPDEST PUSH2 0x1B1 PUSH2 0x4D5 JUMP JUMPDEST STOP JUMPDEST CALLVALUE DUP1 ISZERO PUSH2 0x1BE JUMPI PUSH0 PUSH0 REVERT JUMPDEST POP PUSH2 0x1C7 PUSH2 0x4F0 JUMP JUMPDEST PUSH1 0x40 MLOAD PUSH2 0x1D4 SWAP2 SWAP1 PUSH2 0x1775 JUMP JUMPDEST PUSH1 0x40 MLOAD DUP1 SWAP2 SUB SWAP1 RETURN JUMPDEST CALLVALUE DUP1 ISZERO PUSH2 0x1E8 JUMPI PUSH0 PUSH0 REVERT JUMPDEST POP PUSH2 0x1F1 PUSH2 0x510 JUMP JUMPDEST PUSH1 0x40 MLOAD PUSH2 0x1FE SWAP2 SWAP1 PUSH2 0x17AD JUMP JUMPDEST PUSH1 0x40 MLOAD DUP1 SWAP2 SUB SWAP1 RETURN JUMPDEST CALLVALUE DUP1 ISZERO PUSH2 0x212 JUMPI PUSH0 PUSH0 REVERT JUMPDEST POP PUSH2 0x21B PUSH2 0x516 JUMP JUMPDEST PUSH1 0x40 MLOAD PUSH2 0x228 SWAP2 SWAP1 PUSH2 0x15C5 JUMP JUMPDEST PUSH1 0x40 MLOAD DUP1 SWAP2 SUB SWAP1 RETURN JUMPDEST PUSH2 0x239 PUSH2 0x51F JUMP JUMPDEST STOP JUMPDEST CALLVALUE DUP1 ISZERO PUSH2 0x246 JUMPI PUSH0 PUSH0 REVERT JUMPDEST POP PUSH2 0x24F PUSH2 0x53B JUMP JUMPDEST STOP JUMPDEST CALLVALUE DUP1 ISZERO PUSH2 0x25C JUMPI PUSH0 PUSH0 REVERT JUMPDEST POP PUSH2 0x265 PUSH2 0x6CA JUMP JUMPDEST PUSH1 0x40 MLOAD PUSH2 0x272 SWAP2 SWAP1 PUSH2 0x16EC JUMP JUMPDEST PUSH1 0x40 MLOAD DUP1 SWAP2 SUB SWAP1 RETURN JUMPDEST CALLVALUE DUP1 ISZERO PUSH2 0x286 JUMPI PUSH0 PUSH0 REVERT JUMPDEST POP PUSH2 0x28F PUSH2 0x6DE JUMP JUMPDEST PUSH1 0x40 MLOAD PUSH2 0x2A0 SWAP6 SWAP5 SWAP4 SWAP3 SWAP2 SWAP1 PUSH2 0x1820 JUMP JUMPDEST PUSH1 0x40 MLOAD DUP1 SWAP2 SUB SWAP1 RETURN JUMPDEST CALLVALUE DUP1 ISZERO PUSH2 0x2B4 JUMPI PUSH0 PUSH0 REVERT JUMPDEST POP PUSH2 0x2BD PUSH2 0x7BE JUMP JUMPDEST STOP JUMPDEST CALLVALUE DUP1 ISZERO PUSH2 0x2CA JUMPI PUSH0 PUSH0 REVERT JUMPDEST POP PUSH2 0x2D3 PUSH2 0x886 JUMP JUMPDEST PUSH1 0x40 MLOAD PUSH2 0x2E0 SWAP2 SWAP1 PUSH2 0x15C5 JUMP JUMPDEST PUSH1 0x40 MLOAD DUP1 SWAP2 SUB SWAP1 RETURN JUMPDEST CALLVALUE DUP1 ISZERO PUSH2 0x2F4 JUMPI PUSH0 PUSH0 REVERT JUMPDEST POP PUSH2 0x2FD PUSH2 0x88C JUMP JUMPDEST PUSH1 0x40 MLOAD PUSH2 0x30A SWAP2 SWAP1 PUSH2 0x1878 JUMP JUMPDEST PUSH1 0x40 MLOAD DUP1 SWAP2 SUB SWAP1 RETURN JUMPDEST CALLVALUE DUP1 ISZERO PUSH2 0x31E JUMPI PUSH0 PUSH0 REVERT JUMPDEST POP PUSH2 0x339 PUSH1 0x4 DUP1 CALLDATASIZE SUB DUP2 ADD SWAP1 PUSH2 0x334 SWAP2 SWAP1 PUSH2 0x18BB JUMP JUMPDEST PUSH2 0x8B3 JUMP JUMPDEST STOP JUMPDEST CALLVALUE DUP1 ISZERO PUSH2 0x346 JUMPI PUSH0 PUSH0 REVERT JUMPDEST POP PUSH2 0x34F PUSH2 0xA90 JUMP JUMPDEST PUSH1 0x40 MLOAD PUSH2 0x35C SWAP2 SWAP1 PUSH2 0x1941 JUMP JUMPDEST PUSH1 0x40 MLOAD DUP1 SWAP2 SUB SWAP1 RETURN JUMPDEST CALLVALUE DUP1 ISZERO PUSH2 0x370 JUMPI PUSH0 PUSH0 REVERT JUMPDEST POP PUSH2 0x379 PUSH2 0xAB5 JUMP JUMPDEST PUSH1 0x40 MLOAD PUSH2 0x386 SWAP2 SWAP1 PUSH2 0x1878 JUMP JUMPDEST PUSH1 0x40 MLOAD DUP1 SWAP2 SUB SWAP1 RETURN JUMPDEST CALLVALUE DUP1 ISZERO PUSH2 0x39A JUMPI PUSH0 PUSH0 REVERT JUMPDEST POP PUSH2 0x3A3 PUSH2 0xADA JUMP JUMPDEST PUSH1 0x40 MLOAD PUSH2 0x3B0 SWAP2 SWAP1 PUSH2 0x1976 JUMP JUMPDEST PUSH1 0x40 MLOAD DUP1 SWAP2 SUB SWAP1 RETURN JUMPDEST PUSH2 0x3C1 PUSH2 0xAEE JUMP JUMPDEST STOP JUMPDEST PUSH2 0x3CB PUSH2 0xAF0 JUMP JUMPDEST STOP JUMPDEST CALLVALUE DUP1 ISZERO PUSH2 0x3D8 JUMPI PUSH0 PUSH0 REVERT JUMPDEST POP PUSH2 0x3F3 PUSH1 0x4 DUP1 CALLDATASIZE SUB DUP2 ADD SWAP1 PUSH2 0x3EE SWAP2 SWAP1 PUSH2 0x18BB JUMP JUMPDEST PUSH2 0xB0C JUMP JUMPDEST STOP JUMPDEST PUSH0 SELFBALANCE SWAP1 POP SWAP1 JUMP JUMPDEST PUSH1 0x2 PUSH0 SWAP1 SLOAD SWAP1 PUSH2 0x100 EXP SWAP1 DIV PUSH20 0xFFFFFFFFFFFFFFFFFFFFFFFFFFFFFFFFFFFFFFFF AND PUSH20 0xFFFFFFFFFFFFFFFFFFFFFFFFFFFFFFFFFFFFFFFF AND CALLER PUSH20 0xFFFFFFFFFFFFFFFFFFFFFFFFFFFFFFFFFFFFFFFF AND EQ PUSH2 0x4B0 JUMPI CALLER PUSH1 0x2 PUSH0 SWAP1 SLOAD SWAP1 PUSH2 0x100 EXP SWAP1 DIV PUSH20 0xFFFFFFFFFFFFFFFFFFFFFFFFFFFFFFFFFFFFFFFF AND PUSH1 0x40 MLOAD PUSH32 0x1CF993F400000000000000000000000000000000000000000000000000000000 DUP2 MSTORE PUSH1 0x4 ADD PUSH2 0x4A7 SWAP3 SWAP2 SWAP1 PUSH2 0x198F JUMP JUMPDEST PUSH1 0x40 MLOAD DUP1 SWAP2 SUB SWAP1 REVERT JUMPDEST PUSH2 0x4BB DUP4 DUP4 DUP4 PUSH2 0xB20 JUMP JUMPDEST POP POP POP JUMP JUMPDEST PUSH1 0x6 PUSH0 SWAP1 SLOAD SWAP1 PUSH2 0x100 EXP SWAP1 DIV PUSH4 0xFFFFFFFF AND DUP2 JUMP JUMPDEST PUSH2 0x4DD PUSH2 0xFC7 JUMP JUMPDEST PUSH2 0x4E6 PUSH0 PUSH2 0xFE9 JUMP JUMPDEST PUSH2 0x4EE PUSH2 0x12B1 JUMP JUMPDEST JUMP JUMPDEST PUSH1 0x60 PUSH1 0x40 MLOAD DUP1 PUSH1 0xE0 ADD PUSH1 0x40 MSTORE DUP1 PUSH1 0xAF DUP2 MSTORE PUSH1 0x20 ADD PUSH2 0x231E PUSH1 0xAF SWAP2 CODECOPY SWAP1 POP SWAP1 JUMP JUMPDEST PUSH1 0x5 SLOAD DUP2 JUMP JUMPDEST PUSH5 0xE8D4A51000 DUP2 JUMP JUMPDEST PUSH2 0x527 PUSH2 0xFC7 JUMP JUMPDEST PUSH2 0x531 PUSH1 0x1 PUSH2 0xFE9 JUMP JUMPDEST PUSH2 0x539 PUSH2 0x12B1 JUMP JUMPDEST JUMP JUMPDEST PUSH1 0x1 PUSH0 SWAP1 SLOAD SWAP1 PUSH2 0x100 EXP SWAP1 DIV PUSH20 0xFFFFFFFFFFFFFFFFFFFFFFFFFFFFFFFFFFFFFFFF AND PUSH20 0xFFFFFFFFFFFFFFFFFFFFFFFFFFFFFFFFFFFFFFFF AND CALLER PUSH20 0xFFFFFFFFFFFFFFFFFFFFFFFFFFFFFFFFFFFFFFFF AND EQ PUSH2 0x5CA JUMPI PUSH1 0x40 MLOAD PUSH32 0x8C379A000000000000000000000000000000000000000000000000000000000 DUP2 MSTORE PUSH1 0x4 ADD PUSH2 0x5C1 SWAP1 PUSH2 0x1A00 JUMP JUMPDEST PUSH1 0x40 MLOAD DUP1 SWAP2 SUB SWAP1 REVERT JUMPDEST PUSH0 PUSH0 PUSH0 SWAP1 SLOAD SWAP1 PUSH2 0x100 EXP SWAP1 DIV PUSH20 0xFFFFFFFFFFFFFFFFFFFFFFFFFFFFFFFFFFFFFFFF AND SWAP1 POP CALLER PUSH0 PUSH0 PUSH2 0x100 EXP DUP2 SLOAD DUP2 PUSH20 0xFFFFFFFFFFFFFFFFFFFFFFFFFFFFFFFFFFFFFFFF MUL NOT AND SWAP1 DUP4 PUSH20 0xFFFFFFFFFFFFFFFFFFFFFFFFFFFFFFFFFFFFFFFF AND MUL OR SWAP1 SSTORE POP PUSH0 PUSH1 0x1 PUSH0 PUSH2 0x100 EXP DUP2 SLOAD DUP2 PUSH20 0xFFFFFFFFFFFFFFFFFFFFFFFFFFFFFFFFFFFFFFFF MUL NOT AND SWAP1 DUP4 PUSH20 0xFFFFFFFFFFFFFFFFFFFFFFFFFFFFFFFFFFFFFFFF AND MUL OR SWAP1 SSTORE POP CALLER PUSH20 0xFFFFFFFFFFFFFFFFFFFFFFFFFFFFFFFFFFFFFFFF AND DUP2 PUSH20 0xFFFFFFFFFFFFFFFFFFFFFFFFFFFFFFFFFFFFFFFF AND PUSH32 0x8BE0079C531659141344CD1FD0A4F28419497F9722A3DAAFE3B4186F6B6457E0 PUSH1 0x40 MLOAD PUSH1 0x40 MLOAD DUP1 SWAP2 SUB SWAP1 LOG3 POP JUMP JUMPDEST PUSH1 0x6 DUP1 SLOAD SWAP1 PUSH2 0x100 EXP SWAP1 DIV PUSH4 0xFFFFFFFF AND DUP2 JUMP JUMPDEST PUSH1 0x8 DUP1 PUSH0 ADD PUSH0 SWAP1 SLOAD SWAP1 PUSH2 0x100 EXP SWAP1 DIV PUSH20 0xFFFFFFFFFFFFFFFFFFFFFFFFFFFFFFFFFFFFFFFF AND SWAP1 DUP1 PUSH0 ADD PUSH1 0x14 SWAP1 SLOAD SWAP1 PUSH2 0x100 EXP SWAP1 DIV PUSH1 0xFF AND SWAP1 DUP1 PUSH0 ADD PUSH1 0x15 SWAP1 SLOAD SWAP1 PUSH2 0x100 EXP SWAP1 DIV PUSH1 0xFF AND SWAP1 DUP1 PUSH1 0x1 ADD DUP1 SLOAD PUSH2 0x737 SWAP1 PUSH2 0x1A4B JUMP JUMPDEST DUP1 PUSH1 0x1F ADD PUSH1 0x20 DUP1 SWAP2 DIV MUL PUSH1 0x20 ADD PUSH1 0x40 MLOAD SWAP1 DUP2 ADD PUSH1 0x40 MSTORE DUP1 SWAP3 SWAP2 SWAP1 DUP2 DUP2 MSTORE PUSH1 0x20 ADD DUP3 DUP1 SLOAD PUSH2 0x763 SWAP1 PUSH2 0x1A4B JUMP JUMPDEST DUP1 ISZERO PUSH2 0x7AE JUMPI DUP1 PUSH1 0x1F LT PUSH2 0x785 JUMPI PUSH2 0x100 DUP1 DUP4 SLOAD DIV MUL DUP4 MSTORE SWAP2 PUSH1 0x20 ADD SWAP2 PUSH2 0x7AE JUMP JUMPDEST DUP3 ADD SWAP2 SWAP1 PUSH0 MSTORE PUSH1 0x20 PUSH0 KECCAK256 SWAP1 JUMPDEST DUP2 SLOAD DUP2 MSTORE SWAP1 PUSH1 0x1 ADD SWAP1 PUSH1 0x20 ADD DUP1 DUP4 GT PUSH2 0x791 JUMPI DUP3 SWAP1 SUB PUSH1 0x1F AND DUP3 ADD SWAP2 JUMPDEST POP POP POP POP POP SWAP1 DUP1 PUSH1 0x2 ADD SLOAD SWAP1 POP DUP6 JUMP JUMPDEST PUSH2 0x7C6 PUSH2 0x12CB JUMP JUMPDEST PUSH2 0x7CE PUSH2 0xFC7 JUMP JUMPDEST PUSH0 SELFBALANCE SWAP1 POP PUSH0 CALLER PUSH20 0xFFFFFFFFFFFFFFFFFFFFFFFFFFFFFFFFFFFFFFFF AND DUP3 PUSH1 0x40 MLOAD PUSH2 0x7F7 SWAP1 PUSH2 0x1AA8 JUMP JUMPDEST PUSH0 PUSH1 0x40 MLOAD DUP1 DUP4 SUB DUP2 DUP6 DUP8 GAS CALL SWAP3 POP POP POP RETURNDATASIZE DUP1 PUSH0 DUP2 EQ PUSH2 0x831 JUMPI PUSH1 0x40 MLOAD SWAP2 POP PUSH1 0x1F NOT PUSH1 0x3F RETURNDATASIZE ADD AND DUP3 ADD PUSH1 0x40 MSTORE RETURNDATASIZE DUP3 MSTORE RETURNDATASIZE PUSH0 PUSH1 0x20 DUP5 ADD RETURNDATACOPY PUSH2 0x836 JUMP JUMPDEST PUSH1 0x60 SWAP2 POP JUMPDEST POP POP SWAP1 POP DUP1 PUSH2 0x87A JUMPI PUSH1 0x40 MLOAD PUSH32 0x8C379A000000000000000000000000000000000000000000000000000000000 DUP2 MSTORE PUSH1 0x4 ADD PUSH2 0x871 SWAP1 PUSH2 0x1B06 JUMP JUMPDEST PUSH1 0x40 MLOAD DUP1 SWAP2 SUB SWAP1 REVERT JUMPDEST POP POP PUSH2 0x884 PUSH2 0x12B1 JUMP JUMPDEST JUMP JUMPDEST PUSH1 0x3 SLOAD DUP2 JUMP JUMPDEST PUSH0 PUSH0 PUSH0 SWAP1 SLOAD SWAP1 PUSH2 0x100 EXP SWAP1 DIV PUSH20 0xFFFFFFFFFFFFFFFFFFFFFFFFFFFFFFFFFFFFFFFF AND SWAP1 POP SWAP1 JUMP JUMPDEST PUSH2 0x8BB PUSH2 0x88C JUMP JUMPDEST PUSH20 0xFFFFFFFFFFFFFFFFFFFFFFFFFFFFFFFFFFFFFFFF AND CALLER PUSH20 0xFFFFFFFFFFFFFFFFFFFFFFFFFFFFFFFFFFFFFFFF AND EQ ISZERO DUP1 ISZERO PUSH2 0x943 JUMPI POP PUSH1 0x2 PUSH0 SWAP1 SLOAD SWAP1 PUSH2 0x100 EXP SWAP1 DIV PUSH20 0xFFFFFFFFFFFFFFFFFFFFFFFFFFFFFFFFFFFFFFFF AND PUSH20 0xFFFFFFFFFFFFFFFFFFFFFFFFFFFFFFFFFFFFFFFF AND CALLER PUSH20 0xFFFFFFFFFFFFFFFFFFFFFFFFFFFFFFFFFFFFFFFF AND EQ ISZERO JUMPDEST ISZERO PUSH2 0x9B1 JUMPI CALLER PUSH2 0x951 PUSH2 0x88C JUMP JUMPDEST PUSH1 0x2 PUSH0 SWAP1 SLOAD SWAP1 PUSH2 0x100 EXP SWAP1 DIV PUSH20 0xFFFFFFFFFFFFFFFFFFFFFFFFFFFFFFFFFFFFFFFF AND PUSH1 0x40 MLOAD PUSH32 0x61DB9C100000000000000000000000000000000000000000000000000000000 DUP2 MSTORE PUSH1 0x4 ADD PUSH2 0x9A8 SWAP4 SWAP3 SWAP2 SWAP1 PUSH2 0x1B24 JUMP JUMPDEST PUSH1 0x40 MLOAD DUP1 SWAP2 SUB SWAP1 REVERT JUMPDEST PUSH0 PUSH20 0xFFFFFFFFFFFFFFFFFFFFFFFFFFFFFFFFFFFFFFFF AND DUP2 PUSH20 0xFFFFFFFFFFFFFFFFFFFFFFFFFFFFFFFFFFFFFFFF AND SUB PUSH2 0xA16 JUMPI PUSH1 0x40 MLOAD PUSH32 0xD92E233D00000000000000000000000000000000000000000000000000000000 DUP2 MSTORE PUSH1 0x4 ADD PUSH1 0x40 MLOAD DUP1 SWAP2 SUB SWAP1 REVERT JUMPDEST DUP1 PUSH1 0x2 PUSH0 PUSH2 0x100 EXP DUP2 SLOAD DUP2 PUSH20 0xFFFFFFFFFFFFFFFFFFFFFFFFFFFFFFFFFFFFFFFF MUL NOT AND SWAP1 DUP4 PUSH20 0xFFFFFFFFFFFFFFFFFFFFFFFFFFFFFFFFFFFFFFFF AND MUL OR SWAP1 SSTORE POP PUSH32 0xD1A6A14209A385A964D036E404CB5CFB71F4000CDB03C9366292430787261BE6 DUP2 PUSH1 0x40 MLOAD PUSH2 0xA85 SWAP2 SWAP1 PUSH2 0x1878 JUMP JUMPDEST PUSH1 0x40 MLOAD DUP1 SWAP2 SUB SWAP1 LOG1 POP JUMP JUMPDEST PUSH1 0x2 PUSH0 SWAP1 SLOAD SWAP1 PUSH2 0x100 EXP SWAP1 DIV PUSH20 0xFFFFFFFFFFFFFFFFFFFFFFFFFFFFFFFFFFFFFFFF AND DUP2 JUMP JUMPDEST PUSH1 0x4 PUSH0 SWAP1 SLOAD SWAP1 PUSH2 0x100 EXP SWAP1 DIV PUSH20 0xFFFFFFFFFFFFFFFFFFFFFFFFFFFFFFFFFFFFFFFF AND DUP2 JUMP JUMPDEST PUSH1 0x6 PUSH1 0x4 SWAP1 SLOAD SWAP1 PUSH2 0x100 EXP SWAP1 DIV PUSH2 0xFFFF AND DUP2 JUMP JUMPDEST JUMP JUMPDEST PUSH2 0xAF8 PUSH2 0xFC7 JUMP JUMPDEST PUSH2 0xB02 PUSH1 0x2 PUSH2 0xFE9 JUMP JUMPDEST PUSH2 0xB0A PUSH2 0x12B1 JUMP JUMPDEST JUMP JUMPDEST PUSH2 0xB14 PUSH2 0x12CB JUMP JUMPDEST PUSH2 0xB1D DUP2 PUSH2 0x135B JUMP JUMPDEST POP JUMP JUMPDEST PUSH0 PUSH1 0x7 PUSH0 DUP6 DUP2 MSTORE PUSH1 0x20 ADD SWAP1 DUP2 MSTORE PUSH1 0x20 ADD PUSH0 KECCAK256 PUSH1 0x40 MLOAD DUP1 PUSH1 0x60 ADD PUSH1 0x40 MSTORE SWAP1 DUP2 PUSH0 DUP3 ADD PUSH0 SWAP1 SLOAD SWAP1 PUSH2 0x100 EXP SWAP1 DIV PUSH20 0xFFFFFFFFFFFFFFFFFFFFFFFFFFFFFFFFFFFFFFFF AND PUSH20 0xFFFFFFFFFFFFFFFFFFFFFFFFFFFFFFFFFFFFFFFF AND PUSH20 0xFFFFFFFFFFFFFFFFFFFFFFFFFFFFFFFFFFFFFFFF AND DUP2 MSTORE PUSH1 0x20 ADD PUSH1 0x1 DUP3 ADD SLOAD DUP2 MSTORE PUSH1 0x20 ADD PUSH1 0x2 DUP3 ADD PUSH0 SWAP1 SLOAD SWAP1 PUSH2 0x100 EXP SWAP1 DIV PUSH1 0xFF AND PUSH1 0xFF AND PUSH1 0xFF AND DUP2 MSTORE POP POP SWAP1 POP PUSH0 PUSH20 0xFFFFFFFFFFFFFFFFFFFFFFFFFFFFFFFFFFFFFFFF AND DUP2 PUSH0 ADD MLOAD PUSH20 0xFFFFFFFFFFFFFFFFFFFFFFFFFFFFFFFFFFFFFFFF AND SUB PUSH2 0xBF5 JUMPI POP PUSH2 0xFC2 JUMP JUMPDEST PUSH0 PUSH1 0x3 DUP5 DUP5 PUSH0 DUP2 DUP2 LT PUSH2 0xC0B JUMPI PUSH2 0xC0A PUSH2 0x1B59 JUMP JUMPDEST JUMPDEST SWAP1 POP PUSH1 0x20 MUL ADD CALLDATALOAD PUSH2 0xC1C SWAP2 SWAP1 PUSH2 0x1BB3 JUMP JUMPDEST SWAP1 POP PUSH1 0x60 PUSH0 PUSH0 SWAP1 POP DUP3 PUSH1 0xFF AND DUP5 PUSH1 0x40 ADD MLOAD PUSH1 0xFF AND SUB PUSH2 0xC79 JUMPI PUSH1 0x40 MLOAD DUP1 PUSH1 0x40 ADD PUSH1 0x40 MSTORE DUP1 PUSH1 0x4 DUP2 MSTORE PUSH1 0x20 ADD PUSH32 0x4472617700000000000000000000000000000000000000000000000000000000 DUP2 MSTORE POP SWAP2 POP DUP4 PUSH1 0x20 ADD MLOAD SWAP1 POP PUSH2 0xD62 JUMP JUMPDEST PUSH0 DUP5 PUSH1 0x40 ADD MLOAD PUSH1 0xFF AND EQ DUP1 ISZERO PUSH2 0xC92 JUMPI POP PUSH1 0x1 DUP4 PUSH1 0xFF AND EQ JUMPDEST DUP1 PUSH2 0xCB3 JUMPI POP PUSH1 0x1 DUP5 PUSH1 0x40 ADD MLOAD PUSH1 0xFF AND EQ DUP1 ISZERO PUSH2 0xCB2 JUMPI POP PUSH1 0x2 DUP4 PUSH1 0xFF AND EQ JUMPDEST JUMPDEST DUP1 PUSH2 0xCD3 JUMPI POP PUSH1 0x2 DUP5 PUSH1 0x40 ADD MLOAD PUSH1 0xFF AND EQ DUP1 ISZERO PUSH2 0xCD2 JUMPI POP PUSH0 DUP4 PUSH1 0xFF AND EQ JUMPDEST JUMPDEST ISZERO PUSH2 0xD28 JUMPI PUSH1 0x40 MLOAD DUP1 PUSH1 0x40 ADD PUSH1 0x40 MSTORE DUP1 PUSH1 0x8 DUP2 MSTORE PUSH1 0x20 ADD PUSH32 0x596F752057696E21000000000000000000000000000000000000000000000000 DUP2 MSTORE POP SWAP2 POP PUSH1 0x2 DUP5 PUSH1 0x20 ADD MLOAD PUSH2 0xD21 SWAP2 SWAP1 PUSH2 0x1C10 JUMP JUMPDEST SWAP1 POP PUSH2 0xD61 JUMP JUMPDEST PUSH1 0x40 MLOAD DUP1 PUSH1 0x40 ADD PUSH1 0x40 MSTORE DUP1 PUSH1 0x4 DUP2 MSTORE PUSH1 0x20 ADD PUSH32 0x4C6F736500000000000000000000000000000000000000000000000000000000 DUP2 MSTORE POP SWAP2 POP JUMPDEST JUMPDEST PUSH1 0x40 MLOAD DUP1 PUSH1 0xA0 ADD PUSH1 0x40 MSTORE DUP1 DUP6 PUSH0 ADD MLOAD PUSH20 0xFFFFFFFFFFFFFFFFFFFFFFFFFFFFFFFFFFFFFFFF AND DUP2 MSTORE PUSH1 0x20 ADD DUP6 PUSH1 0x40 ADD MLOAD PUSH1 0xFF AND DUP2 MSTORE PUSH1 0x20 ADD DUP5 PUSH1 0xFF AND DUP2 MSTORE PUSH1 0x20 ADD DUP4 DUP2 MSTORE PUSH1 0x20 ADD DUP6 PUSH1 0x20 ADD MLOAD DUP2 MSTORE POP PUSH1 0x8 PUSH0 DUP3 ADD MLOAD DUP2 PUSH0 ADD PUSH0 PUSH2 0x100 EXP DUP2 SLOAD DUP2 PUSH20 0xFFFFFFFFFFFFFFFFFFFFFFFFFFFFFFFFFFFFFFFF MUL NOT AND SWAP1 DUP4 PUSH20 0xFFFFFFFFFFFFFFFFFFFFFFFFFFFFFFFFFFFFFFFF AND MUL OR SWAP1 SSTORE POP PUSH1 0x20 DUP3 ADD MLOAD DUP2 PUSH0 ADD PUSH1 0x14 PUSH2 0x100 EXP DUP2 SLOAD DUP2 PUSH1 0xFF MUL NOT AND SWAP1 DUP4 PUSH1 0xFF AND MUL OR SWAP1 SSTORE POP PUSH1 0x40 DUP3 ADD MLOAD DUP2 PUSH0 ADD PUSH1 0x15 PUSH2 0x100 EXP DUP2 SLOAD DUP2 PUSH1 0xFF MUL NOT AND SWAP1 DUP4 PUSH1 0xFF AND MUL OR SWAP1 SSTORE POP PUSH1 0x60 DUP3 ADD MLOAD DUP2 PUSH1 0x1 ADD SWAP1 DUP2 PUSH2 0xE4B SWAP2 SWAP1 PUSH2 0x1E15 JUMP JUMPDEST POP PUSH1 0x80 DUP3 ADD MLOAD DUP2 PUSH1 0x2 ADD SSTORE SWAP1 POP POP DUP4 PUSH0 ADD MLOAD PUSH20 0xFFFFFFFFFFFFFFFFFFFFFFFFFFFFFFFFFFFFFFFF AND DUP8 PUSH32 0x7B4808590BE30406D307FDDAC8AFAFF3AF9DBC0DFB89D1A3BC6CDE582C6F64A3 DUP7 PUSH1 0x40 ADD MLOAD DUP7 DUP7 DUP7 PUSH1 0x40 MLOAD PUSH2 0xEAD SWAP5 SWAP4 SWAP3 SWAP2 SWAP1 PUSH2 0x1EE4 JUMP JUMPDEST PUSH1 0x40 MLOAD DUP1 SWAP2 SUB SWAP1 LOG3 PUSH0 DUP2 GT ISZERO PUSH2 0xF6A JUMPI PUSH0 DUP5 PUSH0 ADD MLOAD PUSH20 0xFFFFFFFFFFFFFFFFFFFFFFFFFFFFFFFFFFFFFFFF AND DUP3 PUSH1 0x40 MLOAD PUSH2 0xEE5 SWAP1 PUSH2 0x1AA8 JUMP JUMPDEST PUSH0 PUSH1 0x40 MLOAD DUP1 DUP4 SUB DUP2 DUP6 DUP8 GAS CALL SWAP3 POP POP POP RETURNDATASIZE DUP1 PUSH0 DUP2 EQ PUSH2 0xF1F JUMPI PUSH1 0x40 MLOAD SWAP2 POP PUSH1 0x1F NOT PUSH1 0x3F RETURNDATASIZE ADD AND DUP3 ADD PUSH1 0x40 MSTORE RETURNDATASIZE DUP3 MSTORE RETURNDATASIZE PUSH0 PUSH1 0x20 DUP5 ADD RETURNDATACOPY PUSH2 0xF24 JUMP JUMPDEST PUSH1 0x60 SWAP2 POP JUMPDEST POP POP SWAP1 POP DUP1 PUSH2 0xF68 JUMPI PUSH1 0x40 MLOAD PUSH32 0x8C379A000000000000000000000000000000000000000000000000000000000 DUP2 MSTORE PUSH1 0x4 ADD PUSH2 0xF5F SWAP1 PUSH2 0x1F78 JUMP JUMPDEST PUSH1 0x40 MLOAD DUP1 SWAP2 SUB SWAP1 REVERT JUMPDEST POP JUMPDEST PUSH1 0x7 PUSH0 DUP9 DUP2 MSTORE PUSH1 0x20 ADD SWAP1 DUP2 MSTORE PUSH1 0x20 ADD PUSH0 KECCAK256 PUSH0 PUSH0 DUP3 ADD PUSH0 PUSH2 0x100 EXP DUP2 SLOAD SWAP1 PUSH20 0xFFFFFFFFFFFFFFFFFFFFFFFFFFFFFFFFFFFFFFFF MUL NOT AND SWAP1 SSTORE PUSH1 0x1 DUP3 ADD PUSH0 SWAP1 SSTORE PUSH1 0x2 DUP3 ADD PUSH0 PUSH2 0x100 EXP DUP2 SLOAD SWAP1 PUSH1 0xFF MUL NOT AND SWAP1 SSTORE POP POP POP POP POP POP JUMPDEST POP POP POP JUMP JUMPDEST PUSH2 0xFCF PUSH2 0x1486 JUMP JUMPDEST PUSH1 0x2 PUSH2 0xFE1 PUSH2 0xFDC PUSH2 0x14C7 JUMP JUMPDEST PUSH2 0x14F0 JUMP JUMPDEST PUSH0 ADD DUP2 SWAP1 SSTORE POP JUMP JUMPDEST PUSH5 0xE8D4A51000 CALLVALUE LT ISZERO PUSH2 0x1031 JUMPI PUSH1 0x40 MLOAD PUSH32 0x8C379A000000000000000000000000000000000000000000000000000000000 DUP2 MSTORE PUSH1 0x4 ADD PUSH2 0x1028 SWAP1 PUSH2 0x1FE0 JUMP JUMPDEST PUSH1 0x40 MLOAD DUP1 SWAP2 SUB SWAP1 REVERT JUMPDEST PUSH1 0x2 CALLVALUE PUSH2 0x103E SWAP2 SWAP1 PUSH2 0x1C10 JUMP JUMPDEST SELFBALANCE LT ISZERO PUSH2 0x1080 JUMPI PUSH1 0x40 MLOAD PUSH32 0x8C379A000000000000000000000000000000000000000000000000000000000 DUP2 MSTORE PUSH1 0x4 ADD PUSH2 0x1077 SWAP1 PUSH2 0x2048 JUMP JUMPDEST PUSH1 0x40 MLOAD DUP1 SWAP2 SUB SWAP1 REVERT JUMPDEST PUSH0 PUSH1 0x2 PUSH0 SWAP1 SLOAD SWAP1 PUSH2 0x100 EXP SWAP1 DIV PUSH20 0xFFFFFFFFFFFFFFFFFFFFFFFFFFFFFFFFFFFFFFFF AND PUSH20 0xFFFFFFFFFFFFFFFFFFFFFFFFFFFFFFFFFFFFFFFF AND PUSH4 0x9B1C385E PUSH1 0x40 MLOAD DUP1 PUSH1 0xC0 ADD PUSH1 0x40 MSTORE DUP1 PUSH1 0x5 SLOAD DUP2 MSTORE PUSH1 0x20 ADD PUSH1 0x3 SLOAD DUP2 MSTORE PUSH1 0x20 ADD PUSH1 0x6 PUSH1 0x4 SWAP1 SLOAD SWAP1 PUSH2 0x100 EXP SWAP1 DIV PUSH2 0xFFFF AND PUSH2 0xFFFF AND DUP2 MSTORE PUSH1 0x20 ADD PUSH1 0x6 PUSH0 SWAP1 SLOAD SWAP1 PUSH2 0x100 EXP SWAP1 DIV PUSH4 0xFFFFFFFF AND PUSH4 0xFFFFFFFF AND DUP2 MSTORE PUSH1 0x20 ADD PUSH1 0x6 DUP1 SLOAD SWAP1 PUSH2 0x100 EXP SWAP1 DIV PUSH4 0xFFFFFFFF AND PUSH4 0xFFFFFFFF AND DUP2 MSTORE PUSH1 0x20 ADD PUSH2 0x1145 PUSH1 0x40 MLOAD DUP1 PUSH1 0x20 ADD PUSH1 0x40 MSTORE DUP1 PUSH0 ISZERO ISZERO DUP2 MSTORE POP PUSH2 0x14F9 JUMP JUMPDEST DUP2 MSTORE POP PUSH1 0x40 MLOAD DUP3 PUSH4 0xFFFFFFFF AND PUSH1 0xE0 SHL DUP2 MSTORE PUSH1 0x4 ADD PUSH2 0x1164 SWAP2 SWAP1 PUSH2 0x217A JUMP JUMPDEST PUSH1 0x20 PUSH1 0x40 MLOAD DUP1 DUP4 SUB DUP2 PUSH0 DUP8 GAS CALL ISZERO DUP1 ISZERO PUSH2 0x1180 JUMPI RETURNDATASIZE PUSH0 PUSH0 RETURNDATACOPY RETURNDATASIZE PUSH0 REVERT JUMPDEST POP POP POP POP PUSH1 0x40 MLOAD RETURNDATASIZE PUSH1 0x1F NOT PUSH1 0x1F DUP3 ADD AND DUP3 ADD DUP1 PUSH1 0x40 MSTORE POP DUP2 ADD SWAP1 PUSH2 0x11A4 SWAP2 SWAP1 PUSH2 0x21AE JUMP JUMPDEST SWAP1 POP PUSH1 0x40 MLOAD DUP1 PUSH1 0x60 ADD PUSH1 0x40 MSTORE DUP1 CALLER PUSH20 0xFFFFFFFFFFFFFFFFFFFFFFFFFFFFFFFFFFFFFFFF AND DUP2 MSTORE PUSH1 0x20 ADD CALLVALUE DUP2 MSTORE PUSH1 0x20 ADD DUP4 PUSH1 0xFF AND DUP2 MSTORE POP PUSH1 0x7 PUSH0 DUP4 DUP2 MSTORE PUSH1 0x20 ADD SWAP1 DUP2 MSTORE PUSH1 0x20 ADD PUSH0 KECCAK256 PUSH0 DUP3 ADD MLOAD DUP2 PUSH0 ADD PUSH0 PUSH2 0x100 EXP DUP2 SLOAD DUP2 PUSH20 0xFFFFFFFFFFFFFFFFFFFFFFFFFFFFFFFFFFFFFFFF MUL NOT AND SWAP1 DUP4 PUSH20 0xFFFFFFFFFFFFFFFFFFFFFFFFFFFFFFFFFFFFFFFF AND MUL OR SWAP1 SSTORE POP PUSH1 0x20 DUP3 ADD MLOAD DUP2 PUSH1 0x1 ADD SSTORE PUSH1 0x40 DUP3 ADD MLOAD DUP2 PUSH1 0x2 ADD PUSH0 PUSH2 0x100 EXP DUP2 SLOAD DUP2 PUSH1 0xFF MUL NOT AND SWAP1 DUP4 PUSH1 0xFF AND MUL OR SWAP1 SSTORE POP SWAP1 POP POP CALLER PUSH20 0xFFFFFFFFFFFFFFFFFFFFFFFFFFFFFFFFFFFFFFFF AND DUP2 PUSH32 0xBB2BA4F5E2E4CCD8D92A9B7A2D3EE8A1D2A1EA3F6E004354F23DD2D084E21997 DUP5 CALLVALUE PUSH1 0x40 MLOAD PUSH2 0x12A5 SWAP3 SWAP2 SWAP1 PUSH2 0x21D9 JUMP JUMPDEST PUSH1 0x40 MLOAD DUP1 SWAP2 SUB SWAP1 LOG3 POP POP JUMP JUMPDEST PUSH1 0x1 PUSH2 0x12C3 PUSH2 0x12BE PUSH2 0x14C7 JUMP JUMPDEST PUSH2 0x14F0 JUMP JUMPDEST PUSH0 ADD DUP2 SWAP1 SSTORE POP JUMP JUMPDEST PUSH0 PUSH0 SWAP1 SLOAD SWAP1 PUSH2 0x100 EXP SWAP1 DIV PUSH20 0xFFFFFFFFFFFFFFFFFFFFFFFFFFFFFFFFFFFFFFFF AND PUSH20 0xFFFFFFFFFFFFFFFFFFFFFFFFFFFFFFFFFFFFFFFF AND CALLER PUSH20 0xFFFFFFFFFFFFFFFFFFFFFFFFFFFFFFFFFFFFFFFF AND EQ PUSH2 0x1359 JUMPI PUSH1 0x40 MLOAD PUSH32 0x8C379A000000000000000000000000000000000000000000000000000000000 DUP2 MSTORE PUSH1 0x4 ADD PUSH2 0x1350 SWAP1 PUSH2 0x224A JUMP JUMPDEST PUSH1 0x40 MLOAD DUP1 SWAP2 SUB SWAP1 REVERT JUMPDEST JUMP JUMPDEST CALLER PUSH20 0xFFFFFFFFFFFFFFFFFFFFFFFFFFFFFFFFFFFFFFFF AND DUP2 PUSH20 0xFFFFFFFFFFFFFFFFFFFFFFFFFFFFFFFFFFFFFFFF AND SUB PUSH2 0x13C9 JUMPI PUSH1 0x40 MLOAD PUSH32 0x8C379A000000000000000000000000000000000000000000000000000000000 DUP2 MSTORE PUSH1 0x4 ADD PUSH2 0x13C0 SWAP1 PUSH2 0x22B2 JUMP JUMPDEST PUSH1 0x40 MLOAD DUP1 SWAP2 SUB SWAP1 REVERT JUMPDEST DUP1 PUSH1 0x1 PUSH0 PUSH2 0x100 EXP DUP2 SLOAD DUP2 PUSH20 0xFFFFFFFFFFFFFFFFFFFFFFFFFFFFFFFFFFFFFFFF MUL NOT AND SWAP1 DUP4 PUSH20 0xFFFFFFFFFFFFFFFFFFFFFFFFFFFFFFFFFFFFFFFF AND MUL OR SWAP1 SSTORE POP DUP1 PUSH20 0xFFFFFFFFFFFFFFFFFFFFFFFFFFFFFFFFFFFFFFFF AND PUSH0 PUSH0 SWAP1 SLOAD SWAP1 PUSH2 0x100 EXP SWAP1 DIV PUSH20 0xFFFFFFFFFFFFFFFFFFFFFFFFFFFFFFFFFFFFFFFF AND PUSH20 0xFFFFFFFFFFFFFFFFFFFFFFFFFFFFFFFFFFFFFFFF AND PUSH32 0xED8889F560326EB138920D842192F0EB3DD22B4F139C87A2C57538E05BAE1278 PUSH1 0x40 MLOAD PUSH1 0x40 MLOAD DUP1 SWAP2 SUB SWAP1 LOG3 POP JUMP JUMPDEST PUSH2 0x148E PUSH2 0x1591 JUMP JUMPDEST ISZERO PUSH2 0x14C5 JUMPI PUSH1 0x40 MLOAD PUSH32 0x3EE5AEB500000000000000000000000000000000000000000000000000000000 DUP2 MSTORE PUSH1 0x4 ADD PUSH1 0x40 MLOAD DUP1 SWAP2 SUB SWAP1 REVERT JUMPDEST JUMP JUMPDEST PUSH0 PUSH32 0x9B779B17422D0DF92223018B32B4D1FA46E071723D6817E2486D003BECC55F00 PUSH0 SHL SWAP1 POP SWAP1 JUMP JUMPDEST PUSH0 DUP2 SWAP1 POP SWAP2 SWAP1 POP JUMP JUMPDEST PUSH1 0x60 PUSH32 0x92FD13387C7FE7BEFBC38D303D6468778FB9731BC4583F17D92989C6FCFDEAAA DUP3 PUSH1 0x40 MLOAD PUSH1 0x24 ADD PUSH2 0x152D SWAP2 SWAP1 PUSH2 0x2304 JUMP JUMPDEST PUSH1 0x40 MLOAD PUSH1 0x20 DUP2 DUP4 SUB SUB DUP2 MSTORE SWAP1 PUSH1 0x40 MSTORE SWAP1 PUSH28 0xFFFFFFFFFFFFFFFFFFFFFFFFFFFFFFFFFFFFFFFFFFFFFFFFFFFFFFFF NOT AND PUSH1 0x20 DUP3 ADD DUP1 MLOAD PUSH28 0xFFFFFFFFFFFFFFFFFFFFFFFFFFFFFFFFFFFFFFFFFFFFFFFFFFFFFFFF DUP4 DUP2 DUP4 AND OR DUP4 MSTORE POP POP POP POP SWAP1 POP SWAP2 SWAP1 POP JUMP JUMPDEST PUSH0 PUSH1 0x2 PUSH2 0x15A4 PUSH2 0x159F PUSH2 0x14C7 JUMP JUMPDEST PUSH2 0x14F0 JUMP JUMPDEST PUSH0 ADD SLOAD EQ SWAP1 POP SWAP1 JUMP JUMPDEST PUSH0 DUP2 SWAP1 POP SWAP2 SWAP1 POP JUMP JUMPDEST PUSH2 0x15BF DUP2 PUSH2 0x15AD JUMP JUMPDEST DUP3 MSTORE POP POP JUMP JUMPDEST PUSH0 PUSH1 0x20 DUP3 ADD SWAP1 POP PUSH2 0x15D8 PUSH0 DUP4 ADD DUP5 PUSH2 0x15B6 JUMP JUMPDEST SWAP3 SWAP2 POP POP JUMP JUMPDEST PUSH0 PUSH0 REVERT JUMPDEST PUSH0 PUSH0 REVERT JUMPDEST PUSH2 0x15EF DUP2 PUSH2 0x15AD JUMP JUMPDEST DUP2 EQ PUSH2 0x15F9 JUMPI PUSH0 PUSH0 REVERT JUMPDEST POP JUMP JUMPDEST PUSH0 DUP2 CALLDATALOAD SWAP1 POP PUSH2 0x160A DUP2 PUSH2 0x15E6 JUMP JUMPDEST SWAP3 SWAP2 POP POP JUMP JUMPDEST PUSH0 PUSH0 REVERT JUMPDEST PUSH0 PUSH0 REVERT JUMPDEST PUSH0 PUSH0 REVERT JUMPDEST PUSH0 PUSH0 DUP4 PUSH1 0x1F DUP5 ADD SLT PUSH2 0x1631 JUMPI PUSH2 0x1630 PUSH2 0x1610 JUMP JUMPDEST JUMPDEST DUP3 CALLDATALOAD SWAP1 POP PUSH8 0xFFFFFFFFFFFFFFFF DUP2 GT ISZERO PUSH2 0x164E JUMPI PUSH2 0x164D PUSH2 0x1614 JUMP JUMPDEST JUMPDEST PUSH1 0x20 DUP4 ADD SWAP2 POP DUP4 PUSH1 0x20 DUP3 MUL DUP4 ADD GT ISZERO PUSH2 0x166A JUMPI PUSH2 0x1669 PUSH2 0x1618 JUMP JUMPDEST JUMPDEST SWAP3 POP SWAP3 SWAP1 POP JUMP JUMPDEST PUSH0 PUSH0 PUSH0 PUSH1 0x40 DUP5 DUP7 SUB SLT ISZERO PUSH2 0x1688 JUMPI PUSH2 0x1687 PUSH2 0x15DE JUMP JUMPDEST JUMPDEST PUSH0 PUSH2 0x1695 DUP7 DUP3 DUP8 ADD PUSH2 0x15FC JUMP JUMPDEST SWAP4 POP POP PUSH1 0x20 DUP5 ADD CALLDATALOAD PUSH8 0xFFFFFFFFFFFFFFFF DUP2 GT ISZERO PUSH2 0x16B6 JUMPI PUSH2 0x16B5 PUSH2 0x15E2 JUMP JUMPDEST JUMPDEST PUSH2 0x16C2 DUP7 DUP3 DUP8 ADD PUSH2 0x161C JUMP JUMPDEST SWAP3 POP SWAP3 POP POP SWAP3 POP SWAP3 POP SWAP3 JUMP JUMPDEST PUSH0 PUSH4 0xFFFFFFFF DUP3 AND SWAP1 POP SWAP2 SWAP1 POP JUMP JUMPDEST PUSH2 0x16E6 DUP2 PUSH2 0x16CE JUMP JUMPDEST DUP3 MSTORE POP POP JUMP JUMPDEST PUSH0 PUSH1 0x20 DUP3 ADD SWAP1 POP PUSH2 0x16FF PUSH0 DUP4 ADD DUP5 PUSH2 0x16DD JUMP JUMPDEST SWAP3 SWAP2 POP POP JUMP JUMPDEST PUSH0 DUP2 MLOAD SWAP1 POP SWAP2 SWAP1 POP JUMP JUMPDEST PUSH0 DUP3 DUP3 MSTORE PUSH1 0x20 DUP3 ADD SWAP1 POP SWAP3 SWAP2 POP POP JUMP JUMPDEST DUP3 DUP2 DUP4 MCOPY PUSH0 DUP4 DUP4 ADD MSTORE POP POP POP JUMP JUMPDEST PUSH0 PUSH1 0x1F NOT PUSH1 0x1F DUP4 ADD AND SWAP1 POP SWAP2 SWAP1 POP JUMP JUMPDEST PUSH0 PUSH2 0x1747 DUP3 PUSH2 0x1705 JUMP JUMPDEST PUSH2 0x1751 DUP2 DUP6 PUSH2 0x170F JUMP JUMPDEST SWAP4 POP PUSH2 0x1761 DUP2 DUP6 PUSH1 0x20 DUP7 ADD PUSH2 0x171F JUMP JUMPDEST PUSH2 0x176A DUP2 PUSH2 0x172D JUMP JUMPDEST DUP5 ADD SWAP2 POP POP SWAP3 SWAP2 POP POP JUMP JUMPDEST PUSH0 PUSH1 0x20 DUP3 ADD SWAP1 POP DUP2 DUP2 SUB PUSH0 DUP4 ADD MSTORE PUSH2 0x178D DUP2 DUP5 PUSH2 0x173D JUMP JUMPDEST SWAP1 POP SWAP3 SWAP2 POP POP JUMP JUMPDEST PUSH0 DUP2 SWAP1 POP SWAP2 SWAP1 POP JUMP JUMPDEST PUSH2 0x17A7 DUP2 PUSH2 0x1795 JUMP JUMPDEST DUP3 MSTORE POP POP JUMP JUMPDEST PUSH0 PUSH1 0x20 DUP3 ADD SWAP1 POP PUSH2 0x17C0 PUSH0 DUP4 ADD DUP5 PUSH2 0x179E JUMP JUMPDEST SWAP3 SWAP2 POP POP JUMP JUMPDEST PUSH0 PUSH20 0xFFFFFFFFFFFFFFFFFFFFFFFFFFFFFFFFFFFFFFFF DUP3 AND SWAP1 POP SWAP2 SWAP1 POP JUMP JUMPDEST PUSH0 PUSH2 0x17EF DUP3 PUSH2 0x17C6 JUMP JUMPDEST SWAP1 POP SWAP2 SWAP1 POP JUMP JUMPDEST PUSH2 0x17FF DUP2 PUSH2 0x17E5 JUMP JUMPDEST DUP3 MSTORE POP POP JUMP JUMPDEST PUSH0 PUSH1 0xFF DUP3 AND SWAP1 POP SWAP2 SWAP1 POP JUMP JUMPDEST PUSH2 0x181A DUP2 PUSH2 0x1805 JUMP JUMPDEST DUP3 MSTORE POP POP JUMP JUMPDEST PUSH0 PUSH1 0xA0 DUP3 ADD SWAP1 POP PUSH2 0x1833 PUSH0 DUP4 ADD DUP9 PUSH2 0x17F6 JUMP JUMPDEST PUSH2 0x1840 PUSH1 0x20 DUP4 ADD DUP8 PUSH2 0x1811 JUMP JUMPDEST PUSH2 0x184D PUSH1 0x40 DUP4 ADD DUP7 PUSH2 0x1811 JUMP JUMPDEST DUP2 DUP2 SUB PUSH1 0x60 DUP4 ADD MSTORE PUSH2 0x185F DUP2 DUP6 PUSH2 0x173D JUMP JUMPDEST SWAP1 POP PUSH2 0x186E PUSH1 0x80 DUP4 ADD DUP5 PUSH2 0x15B6 JUMP JUMPDEST SWAP7 SWAP6 POP POP POP POP POP POP JUMP JUMPDEST PUSH0 PUSH1 0x20 DUP3 ADD SWAP1 POP PUSH2 0x188B PUSH0 DUP4 ADD DUP5 PUSH2 0x17F6 JUMP JUMPDEST SWAP3 SWAP2 POP POP JUMP JUMPDEST PUSH2 0x189A DUP2 PUSH2 0x17E5 JUMP JUMPDEST DUP2 EQ PUSH2 0x18A4 JUMPI PUSH0 PUSH0 REVERT JUMPDEST POP JUMP JUMPDEST PUSH0 DUP2 CALLDATALOAD SWAP1 POP PUSH2 0x18B5 DUP2 PUSH2 0x1891 JUMP JUMPDEST SWAP3 SWAP2 POP POP JUMP JUMPDEST PUSH0 PUSH1 0x20 DUP3 DUP5 SUB SLT ISZERO PUSH2 0x18D0 JUMPI PUSH2 0x18CF PUSH2 0x15DE JUMP JUMPDEST JUMPDEST PUSH0 PUSH2 0x18DD DUP5 DUP3 DUP6 ADD PUSH2 0x18A7 JUMP JUMPDEST SWAP2 POP POP SWAP3 SWAP2 POP POP JUMP JUMPDEST PUSH0 DUP2 SWAP1 POP SWAP2 SWAP1 POP JUMP JUMPDEST PUSH0 PUSH2 0x1909 PUSH2 0x1904 PUSH2 0x18FF DUP5 PUSH2 0x17C6 JUMP JUMPDEST PUSH2 0x18E6 JUMP JUMPDEST PUSH2 0x17C6 JUMP JUMPDEST SWAP1 POP SWAP2 SWAP1 POP JUMP JUMPDEST PUSH0 PUSH2 0x191A DUP3 PUSH2 0x18EF JUMP JUMPDEST SWAP1 POP SWAP2 SWAP1 POP JUMP JUMPDEST PUSH0 PUSH2 0x192B DUP3 PUSH2 0x1910 JUMP JUMPDEST SWAP1 POP SWAP2 SWAP1 POP JUMP JUMPDEST PUSH2 0x193B DUP2 PUSH2 0x1921 JUMP JUMPDEST DUP3 MSTORE POP POP JUMP JUMPDEST PUSH0 PUSH1 0x20 DUP3 ADD SWAP1 POP PUSH2 0x1954 PUSH0 DUP4 ADD DUP5 PUSH2 0x1932 JUMP JUMPDEST SWAP3 SWAP2 POP POP JUMP JUMPDEST PUSH0 PUSH2 0xFFFF DUP3 AND SWAP1 POP SWAP2 SWAP1 POP JUMP JUMPDEST PUSH2 0x1970 DUP2 PUSH2 0x195A JUMP JUMPDEST DUP3 MSTORE POP POP JUMP JUMPDEST PUSH0 PUSH1 0x20 DUP3 ADD SWAP1 POP PUSH2 0x1989 PUSH0 DUP4 ADD DUP5 PUSH2 0x1967 JUMP JUMPDEST SWAP3 SWAP2 POP POP JUMP JUMPDEST PUSH0 PUSH1 0x40 DUP3 ADD SWAP1 POP PUSH2 0x19A2 PUSH0 DUP4 ADD DUP6 PUSH2 0x17F6 JUMP JUMPDEST PUSH2 0x19AF PUSH1 0x20 DUP4 ADD DUP5 PUSH2 0x17F6 JUMP JUMPDEST SWAP4 SWAP3 POP POP POP JUMP JUMPDEST PUSH32 0x4D7573742062652070726F706F736564206F776E657200000000000000000000 PUSH0 DUP3 ADD MSTORE POP JUMP JUMPDEST PUSH0 PUSH2 0x19EA PUSH1 0x16 DUP4 PUSH2 0x170F JUMP JUMPDEST SWAP2 POP PUSH2 0x19F5 DUP3 PUSH2 0x19B6 JUMP JUMPDEST PUSH1 0x20 DUP3 ADD SWAP1 POP SWAP2 SWAP1 POP JUMP JUMPDEST PUSH0 PUSH1 0x20 DUP3 ADD SWAP1 POP DUP2 DUP2 SUB PUSH0 DUP4 ADD MSTORE PUSH2 0x1A17 DUP2 PUSH2 0x19DE JUMP JUMPDEST SWAP1 POP SWAP2 SWAP1 POP JUMP JUMPDEST PUSH32 0x4E487B7100000000000000000000000000000000000000000000000000000000 PUSH0 MSTORE PUSH1 0x22 PUSH1 0x4 MSTORE PUSH1 0x24 PUSH0 REVERT JUMPDEST PUSH0 PUSH1 0x2 DUP3 DIV SWAP1 POP PUSH1 0x1 DUP3 AND DUP1 PUSH2 0x1A62 JUMPI PUSH1 0x7F DUP3 AND SWAP2 POP JUMPDEST PUSH1 0x20 DUP3 LT DUP2 SUB PUSH2 0x1A75 JUMPI PUSH2 0x1A74 PUSH2 0x1A1E JUMP JUMPDEST JUMPDEST POP SWAP2 SWAP1 POP JUMP JUMPDEST PUSH0 DUP2 SWAP1 POP SWAP3 SWAP2 POP POP JUMP JUMPDEST POP JUMP JUMPDEST PUSH0 PUSH2 0x1A93 PUSH0 DUP4 PUSH2 0x1A7B JUMP JUMPDEST SWAP2 POP PUSH2 0x1A9E DUP3 PUSH2 0x1A85 JUMP JUMPDEST PUSH0 DUP3 ADD SWAP1 POP SWAP2 SWAP1 POP JUMP JUMPDEST PUSH0 PUSH2 0x1AB2 DUP3 PUSH2 0x1A88 JUMP JUMPDEST SWAP2 POP DUP2 SWAP1 POP SWAP2 SWAP1 POP JUMP JUMPDEST PUSH32 0x5769746864726177616C206661696C6564000000000000000000000000000000 PUSH0 DUP3 ADD MSTORE POP JUMP JUMPDEST PUSH0 PUSH2 0x1AF0 PUSH1 0x11 DUP4 PUSH2 0x170F JUMP JUMPDEST SWAP2 POP PUSH2 0x1AFB DUP3 PUSH2 0x1ABC JUMP JUMPDEST PUSH1 0x20 DUP3 ADD SWAP1 POP SWAP2 SWAP1 POP JUMP JUMPDEST PUSH0 PUSH1 0x20 DUP3 ADD SWAP1 POP DUP2 DUP2 SUB PUSH0 DUP4 ADD MSTORE PUSH2 0x1B1D DUP2 PUSH2 0x1AE4 JUMP JUMPDEST SWAP1 POP SWAP2 SWAP1 POP JUMP JUMPDEST PUSH0 PUSH1 0x60 DUP3 ADD SWAP1 POP PUSH2 0x1B37 PUSH0 DUP4 ADD DUP7 PUSH2 0x17F6 JUMP JUMPDEST PUSH2 0x1B44 PUSH1 0x20 DUP4 ADD DUP6 PUSH2 0x17F6 JUMP JUMPDEST PUSH2 0x1B51 PUSH1 0x40 DUP4 ADD DUP5 PUSH2 0x17F6 JUMP JUMPDEST SWAP5 SWAP4 POP POP POP POP JUMP JUMPDEST PUSH32 0x4E487B7100000000000000000000000000000000000000000000000000000000 PUSH0 MSTORE PUSH1 0x32 PUSH1 0x4 MSTORE PUSH1 0x24 PUSH0 REVERT JUMPDEST PUSH32 0x4E487B7100000000000000000000000000000000000000000000000000000000 PUSH0 MSTORE PUSH1 0x12 PUSH1 0x4 MSTORE PUSH1 0x24 PUSH0 REVERT JUMPDEST PUSH0 PUSH2 0x1BBD DUP3 PUSH2 0x15AD JUMP JUMPDEST SWAP2 POP PUSH2 0x1BC8 DUP4 PUSH2 0x15AD JUMP JUMPDEST SWAP3 POP DUP3 PUSH2 0x1BD8 JUMPI PUSH2 0x1BD7 PUSH2 0x1B86 JUMP JUMPDEST JUMPDEST DUP3 DUP3 MOD SWAP1 POP SWAP3 SWAP2 POP POP JUMP JUMPDEST PUSH32 0x4E487B7100000000000000000000000000000000000000000000000000000000 PUSH0 MSTORE PUSH1 0x11 PUSH1 0x4 MSTORE PUSH1 0x24 PUSH0 REVERT JUMPDEST PUSH0 PUSH2 0x1C1A DUP3 PUSH2 0x15AD JUMP JUMPDEST SWAP2 POP PUSH2 0x1C25 DUP4 PUSH2 0x15AD JUMP JUMPDEST SWAP3 POP DUP3 DUP3 MUL PUSH2 0x1C33 DUP2 PUSH2 0x15AD JUMP JUMPDEST SWAP2 POP DUP3 DUP3 DIV DUP5 EQ DUP4 ISZERO OR PUSH2 0x1C4A JUMPI PUSH2 0x1C49 PUSH2 0x1BE3 JUMP JUMPDEST JUMPDEST POP SWAP3 SWAP2 POP POP JUMP JUMPDEST PUSH32 0x4E487B7100000000000000000000000000000000000000000000000000000000 PUSH0 MSTORE PUSH1 0x41 PUSH1 0x4 MSTORE PUSH1 0x24 PUSH0 REVERT JUMPDEST PUSH0 DUP2 SWAP1 POP DUP2 PUSH0 MSTORE PUSH1 0x20 PUSH0 KECCAK256 SWAP1 POP SWAP2 SWAP1 POP JUMP JUMPDEST PUSH0 PUSH1 0x20 PUSH1 0x1F DUP4 ADD DIV SWAP1 POP SWAP2 SWAP1 POP JUMP JUMPDEST PUSH0 DUP3 DUP3 SHL SWAP1 POP SWAP3 SWAP2 POP POP JUMP JUMPDEST PUSH0 PUSH1 0x8 DUP4 MUL PUSH2 0x1CDA PUSH32 0xFFFFFFFFFFFFFFFFFFFFFFFFFFFFFFFFFFFFFFFFFFFFFFFFFFFFFFFFFFFFFFFF DUP3 PUSH2 0x1C9F JUMP JUMPDEST PUSH2 0x1CE4 DUP7 DUP4 PUSH2 0x1C9F JUMP JUMPDEST SWAP6 POP DUP1 NOT DUP5 AND SWAP4 POP DUP1 DUP7 AND DUP5 OR SWAP3 POP POP POP SWAP4 SWAP3 POP POP POP JUMP JUMPDEST PUSH0 PUSH2 0x1D16 PUSH2 0x1D11 PUSH2 0x1D0C DUP5 PUSH2 0x15AD JUMP JUMPDEST PUSH2 0x18E6 JUMP JUMPDEST PUSH2 0x15AD JUMP JUMPDEST SWAP1 POP SWAP2 SWAP1 POP JUMP JUMPDEST PUSH0 DUP2 SWAP1 POP SWAP2 SWAP1 POP JUMP JUMPDEST PUSH2 0x1D2F DUP4 PUSH2 0x1CFC JUMP JUMPDEST PUSH2 0x1D43 PUSH2 0x1D3B DUP3 PUSH2 0x1D1D JUMP JUMPDEST DUP5 DUP5 SLOAD PUSH2 0x1CAB JUMP JUMPDEST DUP3 SSTORE POP POP POP POP JUMP JUMPDEST PUSH0 PUSH0 SWAP1 POP SWAP1 JUMP JUMPDEST PUSH2 0x1D5A PUSH2 0x1D4B JUMP JUMPDEST PUSH2 0x1D65 DUP2 DUP5 DUP5 PUSH2 0x1D26 JUMP JUMPDEST POP POP POP JUMP JUMPDEST JUMPDEST DUP2 DUP2 LT ISZERO PUSH2 0x1D88 JUMPI PUSH2 0x1D7D PUSH0 DUP3 PUSH2 0x1D52 JUMP JUMPDEST PUSH1 0x1 DUP2 ADD SWAP1 POP PUSH2 0x1D6B JUMP JUMPDEST POP POP JUMP JUMPDEST PUSH1 0x1F DUP3 GT ISZERO PUSH2 0x1DCD JUMPI PUSH2 0x1D9E DUP2 PUSH2 0x1C7E JUMP JUMPDEST PUSH2 0x1DA7 DUP5 PUSH2 0x1C90 JUMP JUMPDEST DUP2 ADD PUSH1 0x20 DUP6 LT ISZERO PUSH2 0x1DB6 JUMPI DUP2 SWAP1 POP JUMPDEST PUSH2 0x1DCA PUSH2 0x1DC2 DUP6 PUSH2 0x1C90 JUMP JUMPDEST DUP4 ADD DUP3 PUSH2 0x1D6A JUMP JUMPDEST POP POP JUMPDEST POP POP POP JUMP JUMPDEST PUSH0 DUP3 DUP3 SHR SWAP1 POP SWAP3 SWAP2 POP POP JUMP JUMPDEST PUSH0 PUSH2 0x1DED PUSH0 NOT DUP5 PUSH1 0x8 MUL PUSH2 0x1DD2 JUMP JUMPDEST NOT DUP1 DUP4 AND SWAP2 POP POP SWAP3 SWAP2 POP POP JUMP JUMPDEST PUSH0 PUSH2 0x1E05 DUP4 DUP4 PUSH2 0x1DDE JUMP JUMPDEST SWAP2 POP DUP3 PUSH1 0x2 MUL DUP3 OR SWAP1 POP SWAP3 SWAP2 POP POP JUMP JUMPDEST PUSH2 0x1E1E DUP3 PUSH2 0x1705 JUMP JUMPDEST PUSH8 0xFFFFFFFFFFFFFFFF DUP2 GT ISZERO PUSH2 0x1E37 JUMPI PUSH2 0x1E36 PUSH2 0x1C51 JUMP JUMPDEST JUMPDEST PUSH2 0x1E41 DUP3 SLOAD PUSH2 0x1A4B JUMP JUMPDEST PUSH2 0x1E4C DUP3 DUP3 DUP6 PUSH2 0x1D8C JUMP JUMPDEST PUSH0 PUSH1 0x20 SWAP1 POP PUSH1 0x1F DUP4 GT PUSH1 0x1 DUP2 EQ PUSH2 0x1E7D JUMPI PUSH0 DUP5 ISZERO PUSH2 0x1E6B JUMPI DUP3 DUP8 ADD MLOAD SWAP1 POP JUMPDEST PUSH2 0x1E75 DUP6 DUP3 PUSH2 0x1DFA JUMP JUMPDEST DUP7 SSTORE POP PUSH2 0x1EDC JUMP JUMPDEST PUSH1 0x1F NOT DUP5 AND PUSH2 0x1E8B DUP7 PUSH2 0x1C7E JUMP JUMPDEST PUSH0 JUMPDEST DUP3 DUP2 LT ISZERO PUSH2 0x1EB2 JUMPI DUP5 DUP10 ADD MLOAD DUP3 SSTORE PUSH1 0x1 DUP3 ADD SWAP2 POP PUSH1 0x20 DUP6 ADD SWAP5 POP PUSH1 0x20 DUP2 ADD SWAP1 POP PUSH2 0x1E8D JUMP JUMPDEST DUP7 DUP4 LT ISZERO PUSH2 0x1ECF JUMPI DUP5 DUP10 ADD MLOAD PUSH2 0x1ECB PUSH1 0x1F DUP10 AND DUP3 PUSH2 0x1DDE JUMP JUMPDEST DUP4 SSTORE POP JUMPDEST PUSH1 0x1 PUSH1 0x2 DUP9 MUL ADD DUP9 SSTORE POP POP POP JUMPDEST POP POP POP POP POP POP JUMP JUMPDEST PUSH0 PUSH1 0x80 DUP3 ADD SWAP1 POP PUSH2 0x1EF7 PUSH0 DUP4 ADD DUP8 PUSH2 0x1811 JUMP JUMPDEST PUSH2 0x1F04 PUSH1 0x20 DUP4 ADD DUP7 PUSH2 0x1811 JUMP JUMPDEST DUP2 DUP2 SUB PUSH1 0x40 DUP4 ADD MSTORE PUSH2 0x1F16 DUP2 DUP6 PUSH2 0x173D JUMP JUMPDEST SWAP1 POP PUSH2 0x1F25 PUSH1 0x60 DUP4 ADD DUP5 PUSH2 0x15B6 JUMP JUMPDEST SWAP6 SWAP5 POP POP POP POP POP JUMP JUMPDEST PUSH32 0x5472616E73666572206661696C65640000000000000000000000000000000000 PUSH0 DUP3 ADD MSTORE POP JUMP JUMPDEST PUSH0 PUSH2 0x1F62 PUSH1 0xF DUP4 PUSH2 0x170F JUMP JUMPDEST SWAP2 POP PUSH2 0x1F6D DUP3 PUSH2 0x1F2E JUMP JUMPDEST PUSH1 0x20 DUP3 ADD SWAP1 POP SWAP2 SWAP1 POP JUMP JUMPDEST PUSH0 PUSH1 0x20 DUP3 ADD SWAP1 POP DUP2 DUP2 SUB PUSH0 DUP4 ADD MSTORE PUSH2 0x1F8F DUP2 PUSH2 0x1F56 JUMP JUMPDEST SWAP1 POP SWAP2 SWAP1 POP JUMP JUMPDEST PUSH32 0x42657420746F6F206C6F77000000000000000000000000000000000000000000 PUSH0 DUP3 ADD MSTORE POP JUMP JUMPDEST PUSH0 PUSH2 0x1FCA PUSH1 0xB DUP4 PUSH2 0x170F JUMP JUMPDEST SWAP2 POP PUSH2 0x1FD5 DUP3 PUSH2 0x1F96 JUMP JUMPDEST PUSH1 0x20 DUP3 ADD SWAP1 POP SWAP2 SWAP1 POP JUMP JUMPDEST PUSH0 PUSH1 0x20 DUP3 ADD SWAP1 POP DUP2 DUP2 SUB PUSH0 DUP4 ADD MSTORE PUSH2 0x1FF7 DUP2 PUSH2 0x1FBE JUMP JUMPDEST SWAP1 POP SWAP2 SWAP1 POP JUMP JUMPDEST PUSH32 0x436F6E747261637420697320656D707479000000000000000000000000000000 PUSH0 DUP3 ADD MSTORE POP JUMP JUMPDEST PUSH0 PUSH2 0x2032 PUSH1 0x11 DUP4 PUSH2 0x170F JUMP JUMPDEST SWAP2 POP PUSH2 0x203D DUP3 PUSH2 0x1FFE JUMP JUMPDEST PUSH1 0x20 DUP3 ADD SWAP1 POP SWAP2 SWAP1 POP JUMP JUMPDEST PUSH0 PUSH1 0x20 DUP3 ADD SWAP1 POP DUP2 DUP2 SUB PUSH0 DUP4 ADD MSTORE PUSH2 0x205F DUP2 PUSH2 0x2026 JUMP JUMPDEST SWAP1 POP SWAP2 SWAP1 POP JUMP JUMPDEST PUSH2 0x206F DUP2 PUSH2 0x1795 JUMP JUMPDEST DUP3 MSTORE POP POP JUMP JUMPDEST PUSH2 0x207E DUP2 PUSH2 0x15AD JUMP JUMPDEST DUP3 MSTORE POP POP JUMP JUMPDEST PUSH2 0x208D DUP2 PUSH2 0x195A JUMP JUMPDEST DUP3 MSTORE POP POP JUMP JUMPDEST PUSH2 0x209C DUP2 PUSH2 0x16CE JUMP JUMPDEST DUP3 MSTORE POP POP JUMP JUMPDEST PUSH0 DUP2 MLOAD SWAP1 POP SWAP2 SWAP1 POP JUMP JUMPDEST PUSH0 DUP3 DUP3 MSTORE PUSH1 0x20 DUP3 ADD SWAP1 POP SWAP3 SWAP2 POP POP JUMP JUMPDEST PUSH0 PUSH2 0x20C6 DUP3 PUSH2 0x20A2 JUMP JUMPDEST PUSH2 0x20D0 DUP2 DUP6 PUSH2 0x20AC JUMP JUMPDEST SWAP4 POP PUSH2 0x20E0 DUP2 DUP6 PUSH1 0x20 DUP7 ADD PUSH2 0x171F JUMP JUMPDEST PUSH2 0x20E9 DUP2 PUSH2 0x172D JUMP JUMPDEST DUP5 ADD SWAP2 POP POP SWAP3 SWAP2 POP POP JUMP JUMPDEST PUSH0 PUSH1 0xC0 DUP4 ADD PUSH0 DUP4 ADD MLOAD PUSH2 0x2109 PUSH0 DUP7 ADD DUP3 PUSH2 0x2066 JUMP JUMPDEST POP PUSH1 0x20 DUP4 ADD MLOAD PUSH2 0x211C PUSH1 0x20 DUP7 ADD DUP3 PUSH2 0x2075 JUMP JUMPDEST POP PUSH1 0x40 DUP4 ADD MLOAD PUSH2 0x212F PUSH1 0x40 DUP7 ADD DUP3 PUSH2 0x2084 JUMP JUMPDEST POP PUSH1 0x60 DUP4 ADD MLOAD PUSH2 0x2142 PUSH1 0x60 DUP7 ADD DUP3 PUSH2 0x2093 JUMP JUMPDEST POP PUSH1 0x80 DUP4 ADD MLOAD PUSH2 0x2155 PUSH1 0x80 DUP7 ADD DUP3 PUSH2 0x2093 JUMP JUMPDEST POP PUSH1 0xA0 DUP4 ADD MLOAD DUP5 DUP3 SUB PUSH1 0xA0 DUP7 ADD MSTORE PUSH2 0x216D DUP3 DUP3 PUSH2 0x20BC JUMP JUMPDEST SWAP2 POP POP DUP1 SWAP2 POP POP SWAP3 SWAP2 POP POP JUMP JUMPDEST PUSH0 PUSH1 0x20 DUP3 ADD SWAP1 POP DUP2 DUP2 SUB PUSH0 DUP4 ADD MSTORE PUSH2 0x2192 DUP2 DUP5 PUSH2 0x20F4 JUMP JUMPDEST SWAP1 POP SWAP3 SWAP2 POP POP JUMP JUMPDEST PUSH0 DUP2 MLOAD SWAP1 POP PUSH2 0x21A8 DUP2 PUSH2 0x15E6 JUMP JUMPDEST SWAP3 SWAP2 POP POP JUMP JUMPDEST PUSH0 PUSH1 0x20 DUP3 DUP5 SUB SLT ISZERO PUSH2 0x21C3 JUMPI PUSH2 0x21C2 PUSH2 0x15DE JUMP JUMPDEST JUMPDEST PUSH0 PUSH2 0x21D0 DUP5 DUP3 DUP6 ADD PUSH2 0x219A JUMP JUMPDEST SWAP2 POP POP SWAP3 SWAP2 POP POP JUMP JUMPDEST PUSH0 PUSH1 0x40 DUP3 ADD SWAP1 POP PUSH2 0x21EC PUSH0 DUP4 ADD DUP6 PUSH2 0x1811 JUMP JUMPDEST PUSH2 0x21F9 PUSH1 0x20 DUP4 ADD DUP5 PUSH2 0x15B6 JUMP JUMPDEST SWAP4 SWAP3 POP POP POP JUMP JUMPDEST PUSH32 0x4F6E6C792063616C6C61626C65206279206F776E657200000000000000000000 PUSH0 DUP3 ADD MSTORE POP JUMP JUMPDEST PUSH0 PUSH2 0x2234 PUSH1 0x16 DUP4 PUSH2 0x170F JUMP JUMPDEST SWAP2 POP PUSH2 0x223F DUP3 PUSH2 0x2200 JUMP JUMPDEST PUSH1 0x20 DUP3 ADD SWAP1 POP SWAP2 SWAP1 POP JUMP JUMPDEST PUSH0 PUSH1 0x20 DUP3 ADD SWAP1 POP DUP2 DUP2 SUB PUSH0 DUP4 ADD MSTORE PUSH2 0x2261 DUP2 PUSH2 0x2228 JUMP JUMPDEST SWAP1 POP SWAP2 SWAP1 POP JUMP JUMPDEST PUSH32 0x43616E6E6F74207472616E7366657220746F2073656C66000000000000000000 PUSH0 DUP3 ADD MSTORE POP JUMP JUMPDEST PUSH0 PUSH2 0x229C PUSH1 0x17 DUP4 PUSH2 0x170F JUMP JUMPDEST SWAP2 POP PUSH2 0x22A7 DUP3 PUSH2 0x2268 JUMP JUMPDEST PUSH1 0x20 DUP3 ADD SWAP1 POP SWAP2 SWAP1 POP JUMP JUMPDEST PUSH0 PUSH1 0x20 DUP3 ADD SWAP1 POP DUP2 DUP2 SUB PUSH0 DUP4 ADD MSTORE PUSH2 0x22C9 DUP2 PUSH2 0x2290 JUMP JUMPDEST SWAP1 POP SWAP2 SWAP1 POP JUMP JUMPDEST PUSH0 DUP2 ISZERO ISZERO SWAP1 POP SWAP2 SWAP1 POP JUMP JUMPDEST PUSH2 0x22E4 DUP2 PUSH2 0x22D0 JUMP JUMPDEST DUP3 MSTORE POP POP JUMP JUMPDEST PUSH1 0x20 DUP3 ADD PUSH0 DUP3 ADD MLOAD PUSH2 0x22FE PUSH0 DUP6 ADD DUP3 PUSH2 0x22DB JUMP JUMPDEST POP POP POP POP JUMP JUMPDEST PUSH0 PUSH1 0x20 DUP3 ADD SWAP1 POP PUSH2 0x2317 PUSH0 DUP4 ADD DUP5 PUSH2 0x22EA JUMP JUMPDEST SWAP3 SWAP2 POP POP JUMP INVALID 0xD0 SWAP16 DATALOADN 0x80D0 0xB0 0xD0 0xB2 0xD0 0xB8 0xD0 0xBB 0xD0 0xB0 GASPRICE KECCAK256 ADDRESS 0x2D 0xD0 SWAP11 0xD0 0xB0 0xD0 0xBC 0xD0 0xB5 0xD0 0xBD DATALOADN 0x8C2C KECCAK256 BALANCE 0x2D 0xD0 SWAP14 0xD0 0xBE 0xD0 0xB6 0xD0 0xBD 0xD0 0xB8 DATALOADN 0x86D1 DUP12 0x2C KECCAK256 ORIGIN 0x2D 0xD0 SWAP2 DATALOADN 0x83D0 0xBC 0xD0 0xB0 0xD0 0xB3 0xD0 0xB0 0x2E KECCAK256 0xD0 SWAP3 DATALOADN 0x8BD0 0xB8 0xD0 0xB3 DATALOADN 0x80D1 DUP12 DATALOADN 0x883A KECCAK256 PUSH25 0x3220D0BED18220D181D182D0B0D0B2D0BAD0B82E20D09DD0B8 DATALOADN 0x87D1 DUP13 DATALOADN 0x8F3A KECCAK256 0xD0 0xB2 0xD0 0xBE 0xD0 0xB7 0xD0 0xB2 DATALOADN 0x80D0 0xB0 DATALOADN 0x822E KECCAK256 0xD0 LOG0 0xD0 0xB0 0xD0 0xBD 0xD0 0xB4 0xD0 0xBE 0xD0 0xBC KECCAK256 DATALOADN 0x87D0 0xB5 DATALOADN 0x80D0 0xB5 0xD0 0xB7 KECCAK256 NUMBER PUSH9 0x61696E6C696E6B2056 MSTORE CHAINID KECCAK256 PUSH23 0x322E352EA26469706673582212207AB66787F0FF1AF8EB PUSH6 0xD6AFD5381756 0xD4 CALLDATASIZE 0x23 CLZ BLOBHASH 0x4C PREVRANDAO EXTCODESIZE 0x4D CALLDATALOAD 0xBB SMOD RJUMP 0xE644 0xD PUSH5 0x736F6C6343 STOP ADDMOD 0x1F STOP CALLER "
				},
				"gasEstimates": {
					"creation": {
						"codeDepositCost": "1843600",
						"executionCost": "infinite",
						"totalCost": "infinite"
					},
					"external": {
						"MIN_BET()": "370",
						"acceptOwnership()": "54620",
						"callbackGasLimit()": "2534",
						"deposit()": "207",
						"getBalance()": "358",
						"getRules()": "infinite",
						"keyHash()": "2448",
						"lastRound()": "infinite",
						"numWords()": "2625",
						"owner()": "2603",
						"playPaper()": "infinite",
						"playRock()": "infinite",
						"playScissors()": "infinite",
						"rawFulfillRandomWords(uint256,uint256[])": "infinite",
						"requestConfirmations()": "2583",
						"s_subscriptionId()": "2492",
						"s_vrfCoordinator()": "infinite",
						"setCoordinator(address)": "infinite",
						"transferOwnership(address)": "30781",
						"vrfCoordinator()": "2552",
						"withdrawAll()": "infinite"
					},
					"internal": {
						"_play(uint8)": "infinite",
						"fulfillRandomWords(uint256,uint256[] calldata)": "infinite"
					}
				},
				"methodIdentifiers": {
					"MIN_BET()": "6540742f",
					"acceptOwnership()": "79ba5097",
					"callbackGasLimit()": "24f74697",
					"deposit()": "d0e30db0",
					"getBalance()": "12065fe0",
					"getRules()": "45e2984a",
					"keyHash()": "61728f39",
					"lastRound()": "82bc07e6",
					"numWords()": "7ccfd7fc",
					"owner()": "8da5cb5b",
					"playPaper()": "e856bb18",
					"playRock()": "41a26083",
					"playScissors()": "6be2c84e",
					"rawFulfillRandomWords(uint256,uint256[])": "1fe543e3",
					"requestConfirmations()": "b0fb162f",
					"s_subscriptionId()": "8ac00021",
					"s_vrfCoordinator()": "9eccacf6",
					"setCoordinator(address)": "8ea98117",
					"transferOwnership(address)": "f2fde38b",
					"vrfCoordinator()": "a3e56fa8",
					"withdrawAll()": "853828b6"
				}
			},
			"storageLayout": {
				"storage": [
					{
						"astId": 29,
						"contract": "contracts/RockScissorPaper2.sol:RockScissorPaper",
						"label": "s_owner",
						"offset": 0,
						"slot": "0",
						"type": "t_address"
					},
					{
						"astId": 31,
						"contract": "contracts/RockScissorPaper2.sol:RockScissorPaper",
						"label": "s_pendingOwner",
						"offset": 0,
						"slot": "1",
						"type": "t_address"
					},
					{
						"astId": 231,
						"contract": "contracts/RockScissorPaper2.sol:RockScissorPaper",
						"label": "s_vrfCoordinator",
						"offset": 0,
						"slot": "2",
						"type": "t_contract(IVRFCoordinatorV2Plus)380"
					},
					{
						"astId": 781,
						"contract": "contracts/RockScissorPaper2.sol:RockScissorPaper",
						"label": "s_subscriptionId",
						"offset": 0,
						"slot": "3",
						"type": "t_uint256"
					},
					{
						"astId": 784,
						"contract": "contracts/RockScissorPaper2.sol:RockScissorPaper",
						"label": "vrfCoordinator",
						"offset": 0,
						"slot": "4",
						"type": "t_address"
					},
					{
						"astId": 787,
						"contract": "contracts/RockScissorPaper2.sol:RockScissorPaper",
						"label": "keyHash",
						"offset": 0,
						"slot": "5",
						"type": "t_bytes32"
					},
					{
						"astId": 790,
						"contract": "contracts/RockScissorPaper2.sol:RockScissorPaper",
						"label": "callbackGasLimit",
						"offset": 0,
						"slot": "6",
						"type": "t_uint32"
					},
					{
						"astId": 793,
						"contract": "contracts/RockScissorPaper2.sol:RockScissorPaper",
						"label": "requestConfirmations",
						"offset": 4,
						"slot": "6",
						"type": "t_uint16"
					},
					{
						"astId": 796,
						"contract": "contracts/RockScissorPaper2.sol:RockScissorPaper",
						"label": "numWords",
						"offset": 6,
						"slot": "6",
						"type": "t_uint32"
					},
					{
						"astId": 832,
						"contract": "contracts/RockScissorPaper2.sol:RockScissorPaper",
						"label": "s_requests",
						"offset": 0,
						"slot": "7",
						"type": "t_mapping(t_uint256,t_struct(PendingGame)827_storage)"
					},
					{
						"astId": 846,
						"contract": "contracts/RockScissorPaper2.sol:RockScissorPaper",
						"label": "lastRound",
						"offset": 0,
						"slot": "8",
						"type": "t_struct(LastGame)843_storage"
					}
				],
				"types": {
					"t_address": {
						"encoding": "inplace",
						"label": "address",
						"numberOfBytes": "20"
					},
					"t_bytes32": {
						"encoding": "inplace",
						"label": "bytes32",
						"numberOfBytes": "32"
					},
					"t_contract(IVRFCoordinatorV2Plus)380": {
						"encoding": "inplace",
						"label": "contract IVRFCoordinatorV2Plus",
						"numberOfBytes": "20"
					},
					"t_mapping(t_uint256,t_struct(PendingGame)827_storage)": {
						"encoding": "mapping",
						"key": "t_uint256",
						"label": "mapping(uint256 => struct RockScissorPaper.PendingGame)",
						"numberOfBytes": "32",
						"value": "t_struct(PendingGame)827_storage"
					},
					"t_string_storage": {
						"encoding": "bytes",
						"label": "string",
						"numberOfBytes": "32"
					},
					"t_struct(LastGame)843_storage": {
						"encoding": "inplace",
						"label": "struct RockScissorPaper.LastGame",
						"members": [
							{
								"astId": 834,
								"contract": "contracts/RockScissorPaper2.sol:RockScissorPaper",
								"label": "player",
								"offset": 0,
								"slot": "0",
								"type": "t_address"
							},
							{
								"astId": 836,
								"contract": "contracts/RockScissorPaper2.sol:RockScissorPaper",
								"label": "playerChoice",
								"offset": 20,
								"slot": "0",
								"type": "t_uint8"
							},
							{
								"astId": 838,
								"contract": "contracts/RockScissorPaper2.sol:RockScissorPaper",
								"label": "randomNumber",
								"offset": 21,
								"slot": "0",
								"type": "t_uint8"
							},
							{
								"astId": 840,
								"contract": "contracts/RockScissorPaper2.sol:RockScissorPaper",
								"label": "result",
								"offset": 0,
								"slot": "1",
								"type": "t_string_storage"
							},
							{
								"astId": 842,
								"contract": "contracts/RockScissorPaper2.sol:RockScissorPaper",
								"label": "bet",
								"offset": 0,
								"slot": "2",
								"type": "t_uint256"
							}
						],
						"numberOfBytes": "96"
					},
					"t_struct(PendingGame)827_storage": {
						"encoding": "inplace",
						"label": "struct RockScissorPaper.PendingGame",
						"members": [
							{
								"astId": 822,
								"contract": "contracts/RockScissorPaper2.sol:RockScissorPaper",
								"label": "player",
								"offset": 0,
								"slot": "0",
								"type": "t_address"
							},
							{
								"astId": 824,
								"contract": "contracts/RockScissorPaper2.sol:RockScissorPaper",
								"label": "bet",
								"offset": 0,
								"slot": "1",
								"type": "t_uint256"
							},
							{
								"astId": 826,
								"contract": "contracts/RockScissorPaper2.sol:RockScissorPaper",
								"label": "playerChoice",
								"offset": 0,
								"slot": "2",
								"type": "t_uint8"
							}
						],
						"numberOfBytes": "96"
					},
					"t_uint16": {
						"encoding": "inplace",
						"label": "uint16",
						"numberOfBytes": "2"
					},
					"t_uint256": {
						"encoding": "inplace",
						"label": "uint256",
						"numberOfBytes": "32"
					},
					"t_uint32": {
						"encoding": "inplace",
						"label": "uint32",
						"numberOfBytes": "4"
					},
					"t_uint8": {
						"encoding": "inplace",
						"label": "uint8",
						"numberOfBytes": "1"
					}
				}
			},
			"userdoc": {
				"kind": "user",
				"methods": {
					"acceptOwnership()": {
						"notice": "Allows an ownership transfer to be completed by the recipient."
					},
					"owner()": {
						"notice": "Get the current owner"
					},
					"setCoordinator(address)": {
						"notice": "Sets the VRF Coordinator addressThis method should only be callable by the coordinator or contract owner"
					},
					"transferOwnership(address)": {
						"notice": "Allows an owner to begin transferring ownership to a new address."
					}
				},
				"version": 1
			}
		}
	}
}