{
	"contracts/RockScissorPaper.sol": {
		"RockScissorPaper": {
			"abi": [
				{
					"inputs": [
						{
							"internalType": "uint256",
							"name": "subscriptionId",
							"type": "uint256"
						}
					],
					"stateMutability": "payable",
					"type": "constructor"
				},
				{
					"inputs": [
						{
							"internalType": "address",
							"name": "have",
							"type": "address"
						},
						{
							"internalType": "address",
							"name": "want",
							"type": "address"
						}
					],
					"name": "OnlyCoordinatorCanFulfill",
					"type": "error"
				},
				{
					"inputs": [
						{
							"internalType": "address",
							"name": "have",
							"type": "address"
						},
						{
							"internalType": "address",
							"name": "owner",
							"type": "address"
						},
						{
							"internalType": "address",
							"name": "coordinator",
							"type": "address"
						}
					],
					"name": "OnlyOwnerOrCoordinator",
					"type": "error"
				},
				{
					"inputs": [],
					"name": "ZeroAddress",
					"type": "error"
				},
				{
					"anonymous": false,
					"inputs": [
						{
							"indexed": false,
							"internalType": "address",
							"name": "vrfCoordinator",
							"type": "address"
						}
					],
					"name": "CoordinatorSet",
					"type": "event"
				},
				{
					"anonymous": false,
					"inputs": [
						{
							"indexed": true,
							"internalType": "address",
							"name": "from",
							"type": "address"
						},
						{
							"indexed": true,
							"internalType": "address",
							"name": "to",
							"type": "address"
						}
					],
					"name": "OwnershipTransferRequested",
					"type": "event"
				},
				{
					"anonymous": false,
					"inputs": [
						{
							"indexed": true,
							"internalType": "address",
							"name": "from",
							"type": "address"
						},
						{
							"indexed": true,
							"internalType": "address",
							"name": "to",
							"type": "address"
						}
					],
					"name": "OwnershipTransferred",
					"type": "event"
				},
				{
					"inputs": [],
					"name": "MIN_BET",
					"outputs": [
						{
							"internalType": "uint256",
							"name": "",
							"type": "uint256"
						}
					],
					"stateMutability": "view",
					"type": "function"
				},
				{
					"inputs": [],
					"name": "acceptOwnership",
					"outputs": [],
					"stateMutability": "nonpayable",
					"type": "function"
				},
				{
					"inputs": [],
					"name": "callbackGasLimit",
					"outputs": [
						{
							"internalType": "uint32",
							"name": "",
							"type": "uint32"
						}
					],
					"stateMutability": "view",
					"type": "function"
				},
				{
					"inputs": [],
					"name": "deposit",
					"outputs": [],
					"stateMutability": "payable",
					"type": "function"
				},
				{
					"inputs": [],
					"name": "getBalance",
					"outputs": [
						{
							"internalType": "uint256",
							"name": "",
							"type": "uint256"
						}
					],
					"stateMutability": "view",
					"type": "function"
				},
				{
					"inputs": [],
					"name": "getRules",
					"outputs": [
						{
							"internalType": "string",
							"name": "",
							"type": "string"
						}
					],
					"stateMutability": "pure",
					"type": "function"
				},
				{
					"inputs": [],
					"name": "keyHash",
					"outputs": [
						{
							"internalType": "bytes32",
							"name": "",
							"type": "bytes32"
						}
					],
					"stateMutability": "view",
					"type": "function"
				},
				{
					"inputs": [],
					"name": "lastRound",
					"outputs": [
						{
							"internalType": "address",
							"name": "player",
							"type": "address"
						},
						{
							"internalType": "uint8",
							"name": "playerChoice",
							"type": "uint8"
						},
						{
							"internalType": "uint8",
							"name": "randomNumber",
							"type": "uint8"
						},
						{
							"internalType": "string",
							"name": "result",
							"type": "string"
						},
						{
							"internalType": "uint256",
							"name": "bet",
							"type": "uint256"
						}
					],
					"stateMutability": "view",
					"type": "function"
				},
				{
					"inputs": [],
					"name": "numWords",
					"outputs": [
						{
							"internalType": "uint32",
							"name": "",
							"type": "uint32"
						}
					],
					"stateMutability": "view",
					"type": "function"
				},
				{
					"inputs": [],
					"name": "owner",
					"outputs": [
						{
							"internalType": "address",
							"name": "",
							"type": "address"
						}
					],
					"stateMutability": "view",
					"type": "function"
				},
				{
					"inputs": [],
					"name": "playPaper",
					"outputs": [],
					"stateMutability": "payable",
					"type": "function"
				},
				{
					"inputs": [],
					"name": "playRock",
					"outputs": [],
					"stateMutability": "payable",
					"type": "function"
				},
				{
					"inputs": [],
					"name": "playScissors",
					"outputs": [],
					"stateMutability": "payable",
					"type": "function"
				},
				{
					"inputs": [
						{
							"internalType": "uint256",
							"name": "requestId",
							"type": "uint256"
						},
						{
							"internalType": "uint256[]",
							"name": "randomWords",
							"type": "uint256[]"
						}
					],
					"name": "rawFulfillRandomWords",
					"outputs": [],
					"stateMutability": "nonpayable",
					"type": "function"
				},
				{
					"inputs": [],
					"name": "requestConfirmations",
					"outputs": [
						{
							"internalType": "uint16",
							"name": "",
							"type": "uint16"
						}
					],
					"stateMutability": "view",
					"type": "function"
				},
				{
					"inputs": [],
					"name": "s_subscriptionId",
					"outputs": [
						{
							"internalType": "uint256",
							"name": "",
							"type": "uint256"
						}
					],
					"stateMutability": "view",
					"type": "function"
				},
				{
					"inputs": [],
					"name": "s_vrfCoordinator",
					"outputs": [
						{
							"internalType": "contract IVRFCoordinatorV2Plus",
							"name": "",
							"type": "address"
						}
					],
					"stateMutability": "view",
					"type": "function"
				},
				{
					"inputs": [
						{
							"internalType": "address",
							"name": "_vrfCoordinator",
							"type": "address"
						}
					],
					"name": "setCoordinator",
					"outputs": [],
					"stateMutability": "nonpayable",
					"type": "function"
				},
				{
					"inputs": [
						{
							"internalType": "address",
							"name": "to",
							"type": "address"
						}
					],
					"name": "transferOwnership",
					"outputs": [],
					"stateMutability": "nonpayable",
					"type": "function"
				},
				{
					"inputs": [],
					"name": "vrfCoordinator",
					"outputs": [
						{
							"internalType": "address",
							"name": "",
							"type": "address"
						}
					],
					"stateMutability": "view",
					"type": "function"
				},
				{
					"inputs": [],
					"name": "withdrawAll",
					"outputs": [],
					"stateMutability": "nonpayable",
					"type": "function"
				}
			],
			"devdoc": {
				"kind": "dev",
				"methods": {},
				"version": 1
			},
			"evm": {
				"assembly": "    /* \"contracts/RockScissorPaper.sol\":421:5616  contract RockScissorPaper is VRFConsumerBaseV2Plus {... */\n  mstore(0x40, 0x80)\n    /* \"contracts/RockScissorPaper.sol\":738:780  0xDA3b641D438362C440Ac5458c57e00a712b66700 */\n  0xda3b641d438362c440ac5458c57e00a712b66700\n    /* \"contracts/RockScissorPaper.sol\":706:780  address public vrfCoordinator = 0xDA3b641D438362C440Ac5458c57e00a712b66700 */\n  0x04\n  exp(0x0100, 0x00)\n  dup2\n  sload\n  dup2\n  0xffffffffffffffffffffffffffffffffffffffff\n  mul\n  not\n  and\n  swap1\n  dup4\n  0xffffffffffffffffffffffffffffffffffffffff\n  and\n  mul\n  or\n  swap1\n  sstore\n  pop\n    /* \"contracts/RockScissorPaper.sol\":812:878  0x8596b430971ac45bdf6088665b9ad8e8630c9d5049ab54b14dff711bee7c0e26 */\n  0x8596b430971ac45bdf6088665b9ad8e8630c9d5049ab54b14dff711bee7c0e26\n    /* \"contracts/RockScissorPaper.sol\":787:878  bytes32 public keyHash = 0x8596b430971ac45bdf6088665b9ad8e8630c9d5049ab54b14dff711bee7c0e26 */\n  0x00\n  shl\n  0x05\n  sstore\n    /* \"contracts/RockScissorPaper.sol\":918:924  200000 */\n  0x030d40\n    /* \"contracts/RockScissorPaper.sol\":885:924  uint32 public callbackGasLimit = 200000 */\n  0x06\n  exp(0x0100, 0x00)\n  dup2\n  sload\n  dup2\n  0xffffffff\n  mul\n  not\n  and\n  swap1\n  dup4\n  0xffffffff\n  and\n  mul\n  or\n  swap1\n  sstore\n  pop\n    /* \"contracts/RockScissorPaper.sol\":967:968  3 */\n  0x03\n    /* \"contracts/RockScissorPaper.sol\":930:968  uint16 public requestConfirmations = 3 */\n  0x06\n  exp(0x0100, 0x04)\n  dup2\n  sload\n  dup2\n  0xffff\n  mul\n  not\n  and\n  swap1\n  dup4\n  0xffff\n  and\n  mul\n  or\n  swap1\n  sstore\n  pop\n    /* \"contracts/RockScissorPaper.sol\":999:1000  1 */\n  0x01\n    /* \"contracts/RockScissorPaper.sol\":974:1000  uint32 public numWords = 1 */\n  0x06\n  dup1\n  0x0100\n  exp\n  dup2\n  sload\n  dup2\n  0xffffffff\n  mul\n  not\n  and\n  swap1\n  dup4\n  0xffffffff\n  and\n  mul\n  or\n  swap1\n  sstore\n  pop\n    /* \"contracts/RockScissorPaper.sol\":1997:2253  constructor(uint256 subscriptionId) VRFConsumerBaseV2Plus(vrfCoordinator) payable {... */\n  mload(0x40)\n  sub(codesize, bytecodeSize)\n  dup1\n  bytecodeSize\n  dup4\n  codecopy\n  dup2\n  dup2\n  add\n  0x40\n  mstore\n  dup2\n  add\n  swap1\n  tag_1\n  swap2\n  swap1\n  tag_2\n  jump\t// in\ntag_1:\n    /* \"contracts/RockScissorPaper.sol\":2055:2069  vrfCoordinator */\n  0x04\n  0x00\n  swap1\n  sload\n  swap1\n  0x0100\n  exp\n  swap1\n  div\n  0xffffffffffffffffffffffffffffffffffffffff\n  and\n    /* \"@chainlink/contracts/src/v0.8/vrf/dev/VRFConsumerBaseV2Plus.sol\":6188:6198  msg.sender */\n  caller\n    /* \"@chainlink/contracts/src/v0.8/shared/access/ConfirmedOwner.sol\":363:371  newOwner */\n  dup1\n    /* \"@chainlink/contracts/src/v0.8/shared/access/ConfirmedOwner.sol\":381:382  0 */\n  0x00\n    /* \"@chainlink/contracts/src/v0.8/shared/access/ConfirmedOwnerWithProposal.sol\":618:619  0 */\n  0x00\n    /* \"@chainlink/contracts/src/v0.8/shared/access/ConfirmedOwnerWithProposal.sol\":598:620  newOwner != address(0) */\n  0xffffffffffffffffffffffffffffffffffffffff\n  and\n    /* \"@chainlink/contracts/src/v0.8/shared/access/ConfirmedOwnerWithProposal.sol\":598:606  newOwner */\n  dup3\n    /* \"@chainlink/contracts/src/v0.8/shared/access/ConfirmedOwnerWithProposal.sol\":598:620  newOwner != address(0) */\n  0xffffffffffffffffffffffffffffffffffffffff\n  and\n  sub\n    /* \"@chainlink/contracts/src/v0.8/shared/access/ConfirmedOwnerWithProposal.sol\":590:649  require(newOwner != address(0), \"Cannot set owner to zero\") */\n  tag_8\n  jumpi\n  mload(0x40)\n  0x08c379a000000000000000000000000000000000000000000000000000000000\n  dup2\n  mstore\n  0x04\n  add\n  tag_9\n  swap1\n  tag_10\n  jump\t// in\ntag_9:\n  mload(0x40)\n  dup1\n  swap2\n  sub\n  swap1\n  revert\ntag_8:\n    /* \"@chainlink/contracts/src/v0.8/shared/access/ConfirmedOwnerWithProposal.sol\":666:674  newOwner */\n  dup2\n    /* \"@chainlink/contracts/src/v0.8/shared/access/ConfirmedOwnerWithProposal.sol\":656:663  s_owner */\n  0x00\n  0x00\n    /* \"@chainlink/contracts/src/v0.8/shared/access/ConfirmedOwnerWithProposal.sol\":656:674  s_owner = newOwner */\n  0x0100\n  exp\n  dup2\n  sload\n  dup2\n  0xffffffffffffffffffffffffffffffffffffffff\n  mul\n  not\n  and\n  swap1\n  dup4\n  0xffffffffffffffffffffffffffffffffffffffff\n  and\n  mul\n  or\n  swap1\n  sstore\n  pop\n    /* \"@chainlink/contracts/src/v0.8/shared/access/ConfirmedOwnerWithProposal.sol\":708:709  0 */\n  0x00\n    /* \"@chainlink/contracts/src/v0.8/shared/access/ConfirmedOwnerWithProposal.sol\":684:710  pendingOwner != address(0) */\n  0xffffffffffffffffffffffffffffffffffffffff\n  and\n    /* \"@chainlink/contracts/src/v0.8/shared/access/ConfirmedOwnerWithProposal.sol\":684:696  pendingOwner */\n  dup2\n    /* \"@chainlink/contracts/src/v0.8/shared/access/ConfirmedOwnerWithProposal.sol\":684:710  pendingOwner != address(0) */\n  0xffffffffffffffffffffffffffffffffffffffff\n  and\n  eq\n    /* \"@chainlink/contracts/src/v0.8/shared/access/ConfirmedOwnerWithProposal.sol\":680:759  if (pendingOwner != address(0)) {... */\n  tag_11\n  jumpi\n    /* \"@chainlink/contracts/src/v0.8/shared/access/ConfirmedOwnerWithProposal.sol\":720:752  _transferOwnership(pendingOwner) */\n  tag_12\n    /* \"@chainlink/contracts/src/v0.8/shared/access/ConfirmedOwnerWithProposal.sol\":739:751  pendingOwner */\n  dup2\n    /* \"@chainlink/contracts/src/v0.8/shared/access/ConfirmedOwnerWithProposal.sol\":720:738  _transferOwnership */\n  shl(0x20, tag_13)\n    /* \"@chainlink/contracts/src/v0.8/shared/access/ConfirmedOwnerWithProposal.sol\":720:752  _transferOwnership(pendingOwner) */\n  0x20\n  shr\n  jump\t// in\ntag_12:\n    /* \"@chainlink/contracts/src/v0.8/shared/access/ConfirmedOwnerWithProposal.sol\":680:759  if (pendingOwner != address(0)) {... */\ntag_11:\n    /* \"@chainlink/contracts/src/v0.8/shared/access/ConfirmedOwnerWithProposal.sol\":481:763  constructor(address newOwner, address pendingOwner) {... */\n  pop\n  pop\n    /* \"@chainlink/contracts/src/v0.8/shared/access/ConfirmedOwner.sol\":298:387  constructor(... */\n  pop\n    /* \"@chainlink/contracts/src/v0.8/vrf/dev/VRFConsumerBaseV2Plus.sol\":6237:6238  0 */\n  0x00\n    /* \"@chainlink/contracts/src/v0.8/vrf/dev/VRFConsumerBaseV2Plus.sol\":6210:6239  _vrfCoordinator == address(0) */\n  0xffffffffffffffffffffffffffffffffffffffff\n  and\n    /* \"@chainlink/contracts/src/v0.8/vrf/dev/VRFConsumerBaseV2Plus.sol\":6210:6225  _vrfCoordinator */\n  dup2\n    /* \"@chainlink/contracts/src/v0.8/vrf/dev/VRFConsumerBaseV2Plus.sol\":6210:6239  _vrfCoordinator == address(0) */\n  0xffffffffffffffffffffffffffffffffffffffff\n  and\n  sub\n    /* \"@chainlink/contracts/src/v0.8/vrf/dev/VRFConsumerBaseV2Plus.sol\":6206:6276  if (_vrfCoordinator == address(0)) {... */\n  tag_16\n  jumpi\n    /* \"@chainlink/contracts/src/v0.8/vrf/dev/VRFConsumerBaseV2Plus.sol\":6256:6269  ZeroAddress() */\n  mload(0x40)\n  0xd92e233d00000000000000000000000000000000000000000000000000000000\n  dup2\n  mstore\n  0x04\n  add\n  mload(0x40)\n  dup1\n  swap2\n  sub\n  swap1\n  revert\n    /* \"@chainlink/contracts/src/v0.8/vrf/dev/VRFConsumerBaseV2Plus.sol\":6206:6276  if (_vrfCoordinator == address(0)) {... */\ntag_16:\n    /* \"@chainlink/contracts/src/v0.8/vrf/dev/VRFConsumerBaseV2Plus.sol\":6322:6337  _vrfCoordinator */\n  dup1\n    /* \"@chainlink/contracts/src/v0.8/vrf/dev/VRFConsumerBaseV2Plus.sol\":6281:6297  s_vrfCoordinator */\n  0x02\n  0x00\n    /* \"@chainlink/contracts/src/v0.8/vrf/dev/VRFConsumerBaseV2Plus.sol\":6281:6338  s_vrfCoordinator = IVRFCoordinatorV2Plus(_vrfCoordinator) */\n  0x0100\n  exp\n  dup2\n  sload\n  dup2\n  0xffffffffffffffffffffffffffffffffffffffff\n  mul\n  not\n  and\n  swap1\n  dup4\n  0xffffffffffffffffffffffffffffffffffffffff\n  and\n  mul\n  or\n  swap1\n  sstore\n  pop\n    /* \"@chainlink/contracts/src/v0.8/vrf/dev/VRFConsumerBaseV2Plus.sol\":6128:6343  constructor(... */\n  pop\n    /* \"contracts/RockScissorPaper.sol\":2232:2246  subscriptionId */\n  dup1\n    /* \"contracts/RockScissorPaper.sol\":2213:2229  s_subscriptionId */\n  0x03\n    /* \"contracts/RockScissorPaper.sol\":2213:2246  s_subscriptionId = subscriptionId */\n  dup2\n  swap1\n  sstore\n  pop\n    /* \"contracts/RockScissorPaper.sol\":1997:2253  constructor(uint256 subscriptionId) VRFConsumerBaseV2Plus(vrfCoordinator) payable {... */\n  pop\n    /* \"contracts/RockScissorPaper.sol\":421:5616  contract RockScissorPaper is VRFConsumerBaseV2Plus {... */\n  jump(tag_18)\n    /* \"@chainlink/contracts/src/v0.8/shared/access/ConfirmedOwnerWithProposal.sol\":1544:1791  function _transferOwnership(... */\ntag_13:\n    /* \"@chainlink/contracts/src/v0.8/shared/access/ConfirmedOwnerWithProposal.sol\":1671:1681  msg.sender */\n  caller\n    /* \"@chainlink/contracts/src/v0.8/shared/access/ConfirmedOwnerWithProposal.sol\":1665:1681  to != msg.sender */\n  0xffffffffffffffffffffffffffffffffffffffff\n  and\n    /* \"@chainlink/contracts/src/v0.8/shared/access/ConfirmedOwnerWithProposal.sol\":1665:1667  to */\n  dup2\n    /* \"@chainlink/contracts/src/v0.8/shared/access/ConfirmedOwnerWithProposal.sol\":1665:1681  to != msg.sender */\n  0xffffffffffffffffffffffffffffffffffffffff\n  and\n  sub\n    /* \"@chainlink/contracts/src/v0.8/shared/access/ConfirmedOwnerWithProposal.sol\":1657:1709  require(to != msg.sender, \"Cannot transfer to self\") */\n  tag_20\n  jumpi\n  mload(0x40)\n  0x08c379a000000000000000000000000000000000000000000000000000000000\n  dup2\n  mstore\n  0x04\n  add\n  tag_21\n  swap1\n  tag_22\n  jump\t// in\ntag_21:\n  mload(0x40)\n  dup1\n  swap2\n  sub\n  swap1\n  revert\ntag_20:\n    /* \"@chainlink/contracts/src/v0.8/shared/access/ConfirmedOwnerWithProposal.sol\":1733:1735  to */\n  dup1\n    /* \"@chainlink/contracts/src/v0.8/shared/access/ConfirmedOwnerWithProposal.sol\":1716:1730  s_pendingOwner */\n  0x01\n  0x00\n    /* \"@chainlink/contracts/src/v0.8/shared/access/ConfirmedOwnerWithProposal.sol\":1716:1735  s_pendingOwner = to */\n  0x0100\n  exp\n  dup2\n  sload\n  dup2\n  0xffffffffffffffffffffffffffffffffffffffff\n  mul\n  not\n  and\n  swap1\n  dup4\n  0xffffffffffffffffffffffffffffffffffffffff\n  and\n  mul\n  or\n  swap1\n  sstore\n  pop\n    /* \"@chainlink/contracts/src/v0.8/shared/access/ConfirmedOwnerWithProposal.sol\":1783:1785  to */\n  dup1\n    /* \"@chainlink/contracts/src/v0.8/shared/access/ConfirmedOwnerWithProposal.sol\":1747:1786  OwnershipTransferRequested(s_owner, to) */\n  0xffffffffffffffffffffffffffffffffffffffff\n  and\n    /* \"@chainlink/contracts/src/v0.8/shared/access/ConfirmedOwnerWithProposal.sol\":1774:1781  s_owner */\n  0x00\n  0x00\n  swap1\n  sload\n  swap1\n  0x0100\n  exp\n  swap1\n  div\n  0xffffffffffffffffffffffffffffffffffffffff\n  and\n    /* \"@chainlink/contracts/src/v0.8/shared/access/ConfirmedOwnerWithProposal.sol\":1747:1786  OwnershipTransferRequested(s_owner, to) */\n  0xffffffffffffffffffffffffffffffffffffffff\n  and\n  0xed8889f560326eb138920d842192f0eb3dd22b4f139c87a2c57538e05bae1278\n  mload(0x40)\n  mload(0x40)\n  dup1\n  swap2\n  sub\n  swap1\n  log3\n    /* \"@chainlink/contracts/src/v0.8/shared/access/ConfirmedOwnerWithProposal.sol\":1544:1791  function _transferOwnership(... */\n  pop\n  jump\t// out\n    /* \"#utility.yul\":88:205   */\ntag_24:\n    /* \"#utility.yul\":197:198   */\n  0x00\n    /* \"#utility.yul\":194:195   */\n  0x00\n    /* \"#utility.yul\":187:199   */\n  revert\n    /* \"#utility.yul\":334:411   */\ntag_26:\n    /* \"#utility.yul\":371:378   */\n  0x00\n    /* \"#utility.yul\":400:405   */\n  dup2\n    /* \"#utility.yul\":389:405   */\n  swap1\n  pop\n    /* \"#utility.yul\":334:411   */\n  swap2\n  swap1\n  pop\n  jump\t// out\n    /* \"#utility.yul\":417:539   */\ntag_27:\n    /* \"#utility.yul\":490:514   */\n  tag_40\n    /* \"#utility.yul\":508:513   */\n  dup2\n    /* \"#utility.yul\":490:514   */\n  tag_26\n  jump\t// in\ntag_40:\n    /* \"#utility.yul\":483:488   */\n  dup2\n    /* \"#utility.yul\":480:515   */\n  eq\n    /* \"#utility.yul\":470:533   */\n  tag_41\n  jumpi\n    /* \"#utility.yul\":529:530   */\n  0x00\n    /* \"#utility.yul\":526:527   */\n  0x00\n    /* \"#utility.yul\":519:531   */\n  revert\n    /* \"#utility.yul\":470:533   */\ntag_41:\n    /* \"#utility.yul\":417:539   */\n  pop\n  jump\t// out\n    /* \"#utility.yul\":545:688   */\ntag_28:\n    /* \"#utility.yul\":602:607   */\n  0x00\n    /* \"#utility.yul\":633:639   */\n  dup2\n    /* \"#utility.yul\":627:640   */\n  mload\n    /* \"#utility.yul\":618:640   */\n  swap1\n  pop\n    /* \"#utility.yul\":649:682   */\n  tag_43\n    /* \"#utility.yul\":676:681   */\n  dup2\n    /* \"#utility.yul\":649:682   */\n  tag_27\n  jump\t// in\ntag_43:\n    /* \"#utility.yul\":545:688   */\n  swap3\n  swap2\n  pop\n  pop\n  jump\t// out\n    /* \"#utility.yul\":694:1045   */\ntag_2:\n    /* \"#utility.yul\":764:770   */\n  0x00\n    /* \"#utility.yul\":813:815   */\n  0x20\n    /* \"#utility.yul\":801:810   */\n  dup3\n    /* \"#utility.yul\":792:799   */\n  dup5\n    /* \"#utility.yul\":788:811   */\n  sub\n    /* \"#utility.yul\":784:816   */\n  slt\n    /* \"#utility.yul\":781:900   */\n  iszero\n  tag_45\n  jumpi\n    /* \"#utility.yul\":819:898   */\n  tag_46\n  tag_24\n  jump\t// in\ntag_46:\n    /* \"#utility.yul\":781:900   */\ntag_45:\n    /* \"#utility.yul\":939:940   */\n  0x00\n    /* \"#utility.yul\":964:1028   */\n  tag_47\n    /* \"#utility.yul\":1020:1027   */\n  dup5\n    /* \"#utility.yul\":1011:1017   */\n  dup3\n    /* \"#utility.yul\":1000:1009   */\n  dup6\n    /* \"#utility.yul\":996:1018   */\n  add\n    /* \"#utility.yul\":964:1028   */\n  tag_28\n  jump\t// in\ntag_47:\n    /* \"#utility.yul\":954:1028   */\n  swap2\n  pop\n    /* \"#utility.yul\":910:1038   */\n  pop\n    /* \"#utility.yul\":694:1045   */\n  swap3\n  swap2\n  pop\n  pop\n  jump\t// out\n    /* \"#utility.yul\":1051:1220   */\ntag_29:\n    /* \"#utility.yul\":1135:1146   */\n  0x00\n    /* \"#utility.yul\":1169:1175   */\n  dup3\n    /* \"#utility.yul\":1164:1167   */\n  dup3\n    /* \"#utility.yul\":1157:1176   */\n  mstore\n    /* \"#utility.yul\":1209:1213   */\n  0x20\n    /* \"#utility.yul\":1204:1207   */\n  dup3\n    /* \"#utility.yul\":1200:1214   */\n  add\n    /* \"#utility.yul\":1185:1214   */\n  swap1\n  pop\n    /* \"#utility.yul\":1051:1220   */\n  swap3\n  swap2\n  pop\n  pop\n  jump\t// out\n    /* \"#utility.yul\":1226:1400   */\ntag_30:\n    /* \"#utility.yul\":1366:1392   */\n  0x43616e6e6f7420736574206f776e657220746f207a65726f0000000000000000\n    /* \"#utility.yul\":1362:1363   */\n  0x00\n    /* \"#utility.yul\":1354:1360   */\n  dup3\n    /* \"#utility.yul\":1350:1364   */\n  add\n    /* \"#utility.yul\":1343:1393   */\n  mstore\n    /* \"#utility.yul\":1226:1400   */\n  pop\n  jump\t// out\n    /* \"#utility.yul\":1406:1772   */\ntag_31:\n    /* \"#utility.yul\":1548:1551   */\n  0x00\n    /* \"#utility.yul\":1569:1636   */\n  tag_51\n    /* \"#utility.yul\":1633:1635   */\n  0x18\n    /* \"#utility.yul\":1628:1631   */\n  dup4\n    /* \"#utility.yul\":1569:1636   */\n  tag_29\n  jump\t// in\ntag_51:\n    /* \"#utility.yul\":1562:1636   */\n  swap2\n  pop\n    /* \"#utility.yul\":1645:1738   */\n  tag_52\n    /* \"#utility.yul\":1734:1737   */\n  dup3\n    /* \"#utility.yul\":1645:1738   */\n  tag_30\n  jump\t// in\ntag_52:\n    /* \"#utility.yul\":1763:1765   */\n  0x20\n    /* \"#utility.yul\":1758:1761   */\n  dup3\n    /* \"#utility.yul\":1754:1766   */\n  add\n    /* \"#utility.yul\":1747:1766   */\n  swap1\n  pop\n    /* \"#utility.yul\":1406:1772   */\n  swap2\n  swap1\n  pop\n  jump\t// out\n    /* \"#utility.yul\":1778:2197   */\ntag_10:\n    /* \"#utility.yul\":1944:1948   */\n  0x00\n    /* \"#utility.yul\":1982:1984   */\n  0x20\n    /* \"#utility.yul\":1971:1980   */\n  dup3\n    /* \"#utility.yul\":1967:1985   */\n  add\n    /* \"#utility.yul\":1959:1985   */\n  swap1\n  pop\n    /* \"#utility.yul\":2031:2040   */\n  dup2\n    /* \"#utility.yul\":2025:2029   */\n  dup2\n    /* \"#utility.yul\":2021:2041   */\n  sub\n    /* \"#utility.yul\":2017:2018   */\n  0x00\n    /* \"#utility.yul\":2006:2015   */\n  dup4\n    /* \"#utility.yul\":2002:2019   */\n  add\n    /* \"#utility.yul\":1995:2042   */\n  mstore\n    /* \"#utility.yul\":2059:2190   */\n  tag_54\n    /* \"#utility.yul\":2185:2189   */\n  dup2\n    /* \"#utility.yul\":2059:2190   */\n  tag_31\n  jump\t// in\ntag_54:\n    /* \"#utility.yul\":2051:2190   */\n  swap1\n  pop\n    /* \"#utility.yul\":1778:2197   */\n  swap2\n  swap1\n  pop\n  jump\t// out\n    /* \"#utility.yul\":2203:2376   */\ntag_32:\n    /* \"#utility.yul\":2343:2368   */\n  0x43616e6e6f74207472616e7366657220746f2073656c66000000000000000000\n    /* \"#utility.yul\":2339:2340   */\n  0x00\n    /* \"#utility.yul\":2331:2337   */\n  dup3\n    /* \"#utility.yul\":2327:2341   */\n  add\n    /* \"#utility.yul\":2320:2369   */\n  mstore\n    /* \"#utility.yul\":2203:2376   */\n  pop\n  jump\t// out\n    /* \"#utility.yul\":2382:2748   */\ntag_33:\n    /* \"#utility.yul\":2524:2527   */\n  0x00\n    /* \"#utility.yul\":2545:2612   */\n  tag_57\n    /* \"#utility.yul\":2609:2611   */\n  0x17\n    /* \"#utility.yul\":2604:2607   */\n  dup4\n    /* \"#utility.yul\":2545:2612   */\n  tag_29\n  jump\t// in\ntag_57:\n    /* \"#utility.yul\":2538:2612   */\n  swap2\n  pop\n    /* \"#utility.yul\":2621:2714   */\n  tag_58\n    /* \"#utility.yul\":2710:2713   */\n  dup3\n    /* \"#utility.yul\":2621:2714   */\n  tag_32\n  jump\t// in\ntag_58:\n    /* \"#utility.yul\":2739:2741   */\n  0x20\n    /* \"#utility.yul\":2734:2737   */\n  dup3\n    /* \"#utility.yul\":2730:2742   */\n  add\n    /* \"#utility.yul\":2723:2742   */\n  swap1\n  pop\n    /* \"#utility.yul\":2382:2748   */\n  swap2\n  swap1\n  pop\n  jump\t// out\n    /* \"#utility.yul\":2754:3173   */\ntag_22:\n    /* \"#utility.yul\":2920:2924   */\n  0x00\n    /* \"#utility.yul\":2958:2960   */\n  0x20\n    /* \"#utility.yul\":2947:2956   */\n  dup3\n    /* \"#utility.yul\":2943:2961   */\n  add\n    /* \"#utility.yul\":2935:2961   */\n  swap1\n  pop\n    /* \"#utility.yul\":3007:3016   */\n  dup2\n    /* \"#utility.yul\":3001:3005   */\n  dup2\n    /* \"#utility.yul\":2997:3017   */\n  sub\n    /* \"#utility.yul\":2993:2994   */\n  0x00\n    /* \"#utility.yul\":2982:2991   */\n  dup4\n    /* \"#utility.yul\":2978:2995   */\n  add\n    /* \"#utility.yul\":2971:3018   */\n  mstore\n    /* \"#utility.yul\":3035:3166   */\n  tag_60\n    /* \"#utility.yul\":3161:3165   */\n  dup2\n    /* \"#utility.yul\":3035:3166   */\n  tag_33\n  jump\t// in\ntag_60:\n    /* \"#utility.yul\":3027:3166   */\n  swap1\n  pop\n    /* \"#utility.yul\":2754:3173   */\n  swap2\n  swap1\n  pop\n  jump\t// out\n    /* \"contracts/RockScissorPaper.sol\":421:5616  contract RockScissorPaper is VRFConsumerBaseV2Plus {... */\ntag_18:\n  dataSize(sub_0)\n  dup1\n  dataOffset(sub_0)\n  0x00\n  codecopy\n  0x00\n  return\nstop\n\nsub_0: assembly {\n        /* \"contracts/RockScissorPaper.sol\":421:5616  contract RockScissorPaper is VRFConsumerBaseV2Plus {... */\n      mstore(0x40, 0x80)\n      jumpi(tag_1, lt(calldatasize, 0x04))\n      shr(0xe0, calldataload(0x00))\n      dup1\n      0x82bc07e6\n      gt\n      tag_23\n      jumpi\n      dup1\n      0x9eccacf6\n      gt\n      tag_24\n      jumpi\n      dup1\n      0x9eccacf6\n      eq\n      tag_17\n      jumpi\n      dup1\n      0xa3e56fa8\n      eq\n      tag_18\n      jumpi\n      dup1\n      0xb0fb162f\n      eq\n      tag_19\n      jumpi\n      dup1\n      0xd0e30db0\n      eq\n      tag_20\n      jumpi\n      dup1\n      0xe856bb18\n      eq\n      tag_21\n      jumpi\n      dup1\n      0xf2fde38b\n      eq\n      tag_22\n      jumpi\n      jump(tag_1)\n    tag_24:\n      dup1\n      0x82bc07e6\n      eq\n      tag_12\n      jumpi\n      dup1\n      0x853828b6\n      eq\n      tag_13\n      jumpi\n      dup1\n      0x8ac00021\n      eq\n      tag_14\n      jumpi\n      dup1\n      0x8da5cb5b\n      eq\n      tag_15\n      jumpi\n      dup1\n      0x8ea98117\n      eq\n      tag_16\n      jumpi\n      jump(tag_1)\n    tag_23:\n      dup1\n      0x61728f39\n      gt\n      tag_25\n      jumpi\n      dup1\n      0x61728f39\n      eq\n      tag_7\n      jumpi\n      dup1\n      0x6540742f\n      eq\n      tag_8\n      jumpi\n      dup1\n      0x6be2c84e\n      eq\n      tag_9\n      jumpi\n      dup1\n      0x79ba5097\n      eq\n      tag_10\n      jumpi\n      dup1\n      0x7ccfd7fc\n      eq\n      tag_11\n      jumpi\n      jump(tag_1)\n    tag_25:\n      dup1\n      0x12065fe0\n      eq\n      tag_2\n      jumpi\n      dup1\n      0x1fe543e3\n      eq\n      tag_3\n      jumpi\n      dup1\n      0x24f74697\n      eq\n      tag_4\n      jumpi\n      dup1\n      0x41a26083\n      eq\n      tag_5\n      jumpi\n      dup1\n      0x45e2984a\n      eq\n      tag_6\n      jumpi\n    tag_1:\n      revert(0x00, 0x00)\n        /* \"contracts/RockScissorPaper.sol\":5515:5614  function getBalance() external view returns (uint256) {... */\n    tag_2:\n      callvalue\n      dup1\n      iszero\n      tag_26\n      jumpi\n      revert(0x00, 0x00)\n    tag_26:\n      pop\n      tag_27\n      tag_28\n      jump\t// in\n    tag_27:\n      mload(0x40)\n      tag_29\n      swap2\n      swap1\n      tag_30\n      jump\t// in\n    tag_29:\n      mload(0x40)\n      dup1\n      swap2\n      sub\n      swap1\n      return\n        /* \"@chainlink/contracts/src/v0.8/vrf/dev/VRFConsumerBaseV2Plus.sol\":7423:7703  function rawFulfillRandomWords(uint256 requestId, uint256[] calldata randomWords) external {... */\n    tag_3:\n      callvalue\n      dup1\n      iszero\n      tag_31\n      jumpi\n      revert(0x00, 0x00)\n    tag_31:\n      pop\n      tag_32\n      0x04\n      dup1\n      calldatasize\n      sub\n      dup2\n      add\n      swap1\n      tag_33\n      swap2\n      swap1\n      tag_34\n      jump\t// in\n    tag_33:\n      tag_35\n      jump\t// in\n    tag_32:\n      stop\n        /* \"contracts/RockScissorPaper.sol\":885:924  uint32 public callbackGasLimit = 200000 */\n    tag_4:\n      callvalue\n      dup1\n      iszero\n      tag_36\n      jumpi\n      revert(0x00, 0x00)\n    tag_36:\n      pop\n      tag_37\n      tag_38\n      jump\t// in\n    tag_37:\n      mload(0x40)\n      tag_39\n      swap2\n      swap1\n      tag_40\n      jump\t// in\n    tag_39:\n      mload(0x40)\n      dup1\n      swap2\n      sub\n      swap1\n      return\n        /* \"contracts/RockScissorPaper.sol\":2864:2914  function playRock() external payable { _play(0); } */\n    tag_5:\n      tag_41\n      tag_42\n      jump\t// in\n    tag_41:\n      stop\n        /* \"contracts/RockScissorPaper.sol\":2542:2808  function getRules() external pure returns (string memory) {... */\n    tag_6:\n      callvalue\n      dup1\n      iszero\n      tag_43\n      jumpi\n      revert(0x00, 0x00)\n    tag_43:\n      pop\n      tag_44\n      tag_45\n      jump\t// in\n    tag_44:\n      mload(0x40)\n      tag_46\n      swap2\n      swap1\n      tag_47\n      jump\t// in\n    tag_46:\n      mload(0x40)\n      dup1\n      swap2\n      sub\n      swap1\n      return\n        /* \"contracts/RockScissorPaper.sol\":787:878  bytes32 public keyHash = 0x8596b430971ac45bdf6088665b9ad8e8630c9d5049ab54b14dff711bee7c0e26 */\n    tag_7:\n      callvalue\n      dup1\n      iszero\n      tag_48\n      jumpi\n      revert(0x00, 0x00)\n    tag_48:\n      pop\n      tag_49\n      tag_50\n      jump\t// in\n    tag_49:\n      mload(0x40)\n      tag_51\n      swap2\n      swap1\n      tag_52\n      jump\t// in\n    tag_51:\n      mload(0x40)\n      dup1\n      swap2\n      sub\n      swap1\n      return\n        /* \"contracts/RockScissorPaper.sol\":549:597  uint256 public constant MIN_BET = 0.000001 ether */\n    tag_8:\n      callvalue\n      dup1\n      iszero\n      tag_53\n      jumpi\n      revert(0x00, 0x00)\n    tag_53:\n      pop\n      tag_54\n      tag_55\n      jump\t// in\n    tag_54:\n      mload(0x40)\n      tag_56\n      swap2\n      swap1\n      tag_30\n      jump\t// in\n    tag_56:\n      mload(0x40)\n      dup1\n      swap2\n      sub\n      swap1\n      return\n        /* \"contracts/RockScissorPaper.sol\":2919:2973  function playScissors() external payable { _play(1); } */\n    tag_9:\n      tag_57\n      tag_58\n      jump\t// in\n    tag_57:\n      stop\n        /* \"@chainlink/contracts/src/v0.8/shared/access/ConfirmedOwnerWithProposal.sol\":1034:1350  function acceptOwnership() external override {... */\n    tag_10:\n      callvalue\n      dup1\n      iszero\n      tag_59\n      jumpi\n      revert(0x00, 0x00)\n    tag_59:\n      pop\n      tag_60\n      tag_61\n      jump\t// in\n    tag_60:\n      stop\n        /* \"contracts/RockScissorPaper.sol\":974:1000  uint32 public numWords = 1 */\n    tag_11:\n      callvalue\n      dup1\n      iszero\n      tag_62\n      jumpi\n      revert(0x00, 0x00)\n    tag_62:\n      pop\n      tag_63\n      tag_64\n      jump\t// in\n    tag_63:\n      mload(0x40)\n      tag_65\n      swap2\n      swap1\n      tag_40\n      jump\t// in\n    tag_65:\n      mload(0x40)\n      dup1\n      swap2\n      sub\n      swap1\n      return\n        /* \"contracts/RockScissorPaper.sol\":1819:1844  LastGame public lastRound */\n    tag_12:\n      callvalue\n      dup1\n      iszero\n      tag_66\n      jumpi\n      revert(0x00, 0x00)\n    tag_66:\n      pop\n      tag_67\n      tag_68\n      jump\t// in\n    tag_67:\n      mload(0x40)\n      tag_69\n      swap6\n      swap5\n      swap4\n      swap3\n      swap2\n      swap1\n      tag_70\n      jump\t// in\n    tag_69:\n      mload(0x40)\n      dup1\n      swap2\n      sub\n      swap1\n      return\n        /* \"contracts/RockScissorPaper.sol\":5341:5451  function withdrawAll() external onlyOwner {... */\n    tag_13:\n      callvalue\n      dup1\n      iszero\n      tag_71\n      jumpi\n      revert(0x00, 0x00)\n    tag_71:\n      pop\n      tag_72\n      tag_73\n      jump\t// in\n    tag_72:\n      stop\n        /* \"contracts/RockScissorPaper.sol\":669:700  uint256 public s_subscriptionId */\n    tag_14:\n      callvalue\n      dup1\n      iszero\n      tag_74\n      jumpi\n      revert(0x00, 0x00)\n    tag_74:\n      pop\n      tag_75\n      tag_76\n      jump\t// in\n    tag_75:\n      mload(0x40)\n      tag_77\n      swap2\n      swap1\n      tag_30\n      jump\t// in\n    tag_77:\n      mload(0x40)\n      dup1\n      swap2\n      sub\n      swap1\n      return\n        /* \"@chainlink/contracts/src/v0.8/shared/access/ConfirmedOwnerWithProposal.sol\":1390:1471  function owner() public view override returns (address) {... */\n    tag_15:\n      callvalue\n      dup1\n      iszero\n      tag_78\n      jumpi\n      revert(0x00, 0x00)\n    tag_78:\n      pop\n      tag_79\n      tag_80\n      jump\t// in\n    tag_79:\n      mload(0x40)\n      tag_81\n      swap2\n      swap1\n      tag_82\n      jump\t// in\n    tag_81:\n      mload(0x40)\n      dup1\n      swap2\n      sub\n      swap1\n      return\n        /* \"@chainlink/contracts/src/v0.8/vrf/dev/VRFConsumerBaseV2Plus.sol\":7765:8049  function setCoordinator(... */\n    tag_16:\n      callvalue\n      dup1\n      iszero\n      tag_83\n      jumpi\n      revert(0x00, 0x00)\n    tag_83:\n      pop\n      tag_84\n      0x04\n      dup1\n      calldatasize\n      sub\n      dup2\n      add\n      swap1\n      tag_85\n      swap2\n      swap1\n      tag_86\n      jump\t// in\n    tag_85:\n      tag_87\n      jump\t// in\n    tag_84:\n      stop\n        /* \"@chainlink/contracts/src/v0.8/vrf/dev/VRFConsumerBaseV2Plus.sol\":6003:6048  IVRFCoordinatorV2Plus public s_vrfCoordinator */\n    tag_17:\n      callvalue\n      dup1\n      iszero\n      tag_88\n      jumpi\n      revert(0x00, 0x00)\n    tag_88:\n      pop\n      tag_89\n      tag_90\n      jump\t// in\n    tag_89:\n      mload(0x40)\n      tag_91\n      swap2\n      swap1\n      tag_92\n      jump\t// in\n    tag_91:\n      mload(0x40)\n      dup1\n      swap2\n      sub\n      swap1\n      return\n        /* \"contracts/RockScissorPaper.sol\":706:780  address public vrfCoordinator = 0xDA3b641D438362C440Ac5458c57e00a712b66700 */\n    tag_18:\n      callvalue\n      dup1\n      iszero\n      tag_93\n      jumpi\n      revert(0x00, 0x00)\n    tag_93:\n      pop\n      tag_94\n      tag_95\n      jump\t// in\n    tag_94:\n      mload(0x40)\n      tag_96\n      swap2\n      swap1\n      tag_82\n      jump\t// in\n    tag_96:\n      mload(0x40)\n      dup1\n      swap2\n      sub\n      swap1\n      return\n        /* \"contracts/RockScissorPaper.sol\":930:968  uint16 public requestConfirmations = 3 */\n    tag_19:\n      callvalue\n      dup1\n      iszero\n      tag_97\n      jumpi\n      revert(0x00, 0x00)\n    tag_97:\n      pop\n      tag_98\n      tag_99\n      jump\t// in\n    tag_98:\n      mload(0x40)\n      tag_100\n      swap2\n      swap1\n      tag_101\n      jump\t// in\n    tag_100:\n      mload(0x40)\n      dup1\n      swap2\n      sub\n      swap1\n      return\n        /* \"contracts/RockScissorPaper.sol\":5161:5199  function deposit() external payable {} */\n    tag_20:\n      tag_102\n      tag_103\n      jump\t// in\n    tag_102:\n      stop\n        /* \"contracts/RockScissorPaper.sol\":2978:3029  function playPaper() external payable { _play(2); } */\n    tag_21:\n      tag_104\n      tag_105\n      jump\t// in\n    tag_104:\n      stop\n        /* \"@chainlink/contracts/src/v0.8/shared/access/ConfirmedOwnerWithProposal.sol\":847:953  function transferOwnership(... */\n    tag_22:\n      callvalue\n      dup1\n      iszero\n      tag_106\n      jumpi\n      revert(0x00, 0x00)\n    tag_106:\n      pop\n      tag_107\n      0x04\n      dup1\n      calldatasize\n      sub\n      dup2\n      add\n      swap1\n      tag_108\n      swap2\n      swap1\n      tag_86\n      jump\t// in\n    tag_108:\n      tag_109\n      jump\t// in\n    tag_107:\n      stop\n        /* \"contracts/RockScissorPaper.sol\":5515:5614  function getBalance() external view returns (uint256) {... */\n    tag_28:\n        /* \"contracts/RockScissorPaper.sol\":5560:5567  uint256 */\n      0x00\n        /* \"contracts/RockScissorPaper.sol\":5586:5607  address(this).balance */\n      selfbalance\n        /* \"contracts/RockScissorPaper.sol\":5579:5607  return address(this).balance */\n      swap1\n      pop\n        /* \"contracts/RockScissorPaper.sol\":5515:5614  function getBalance() external view returns (uint256) {... */\n      swap1\n      jump\t// out\n        /* \"@chainlink/contracts/src/v0.8/vrf/dev/VRFConsumerBaseV2Plus.sol\":7423:7703  function rawFulfillRandomWords(uint256 requestId, uint256[] calldata randomWords) external {... */\n    tag_35:\n        /* \"@chainlink/contracts/src/v0.8/vrf/dev/VRFConsumerBaseV2Plus.sol\":7546:7562  s_vrfCoordinator */\n      0x02\n      0x00\n      swap1\n      sload\n      swap1\n      0x0100\n      exp\n      swap1\n      div\n      0xffffffffffffffffffffffffffffffffffffffff\n      and\n        /* \"@chainlink/contracts/src/v0.8/vrf/dev/VRFConsumerBaseV2Plus.sol\":7524:7563  msg.sender != address(s_vrfCoordinator) */\n      0xffffffffffffffffffffffffffffffffffffffff\n      and\n        /* \"@chainlink/contracts/src/v0.8/vrf/dev/VRFConsumerBaseV2Plus.sol\":7524:7534  msg.sender */\n      caller\n        /* \"@chainlink/contracts/src/v0.8/vrf/dev/VRFConsumerBaseV2Plus.sol\":7524:7563  msg.sender != address(s_vrfCoordinator) */\n      0xffffffffffffffffffffffffffffffffffffffff\n      and\n      eq\n        /* \"@chainlink/contracts/src/v0.8/vrf/dev/VRFConsumerBaseV2Plus.sol\":7520:7651  if (msg.sender != address(s_vrfCoordinator)) {... */\n      tag_112\n      jumpi\n        /* \"@chainlink/contracts/src/v0.8/vrf/dev/VRFConsumerBaseV2Plus.sol\":7606:7616  msg.sender */\n      caller\n        /* \"@chainlink/contracts/src/v0.8/vrf/dev/VRFConsumerBaseV2Plus.sol\":7626:7642  s_vrfCoordinator */\n      0x02\n      0x00\n      swap1\n      sload\n      swap1\n      0x0100\n      exp\n      swap1\n      div\n      0xffffffffffffffffffffffffffffffffffffffff\n      and\n        /* \"@chainlink/contracts/src/v0.8/vrf/dev/VRFConsumerBaseV2Plus.sol\":7580:7644  OnlyCoordinatorCanFulfill(msg.sender, address(s_vrfCoordinator)) */\n      mload(0x40)\n      0x1cf993f400000000000000000000000000000000000000000000000000000000\n      dup2\n      mstore\n      0x04\n      add\n      tag_113\n      swap3\n      swap2\n      swap1\n      tag_114\n      jump\t// in\n    tag_113:\n      mload(0x40)\n      dup1\n      swap2\n      sub\n      swap1\n      revert\n        /* \"@chainlink/contracts/src/v0.8/vrf/dev/VRFConsumerBaseV2Plus.sol\":7520:7651  if (msg.sender != address(s_vrfCoordinator)) {... */\n    tag_112:\n        /* \"@chainlink/contracts/src/v0.8/vrf/dev/VRFConsumerBaseV2Plus.sol\":7656:7698  fulfillRandomWords(requestId, randomWords) */\n      tag_115\n        /* \"@chainlink/contracts/src/v0.8/vrf/dev/VRFConsumerBaseV2Plus.sol\":7675:7684  requestId */\n      dup4\n        /* \"@chainlink/contracts/src/v0.8/vrf/dev/VRFConsumerBaseV2Plus.sol\":7686:7697  randomWords */\n      dup4\n      dup4\n        /* \"@chainlink/contracts/src/v0.8/vrf/dev/VRFConsumerBaseV2Plus.sol\":7656:7674  fulfillRandomWords */\n      tag_116\n        /* \"@chainlink/contracts/src/v0.8/vrf/dev/VRFConsumerBaseV2Plus.sol\":7656:7698  fulfillRandomWords(requestId, randomWords) */\n      jump\t// in\n    tag_115:\n        /* \"@chainlink/contracts/src/v0.8/vrf/dev/VRFConsumerBaseV2Plus.sol\":7423:7703  function rawFulfillRandomWords(uint256 requestId, uint256[] calldata randomWords) external {... */\n      pop\n      pop\n      pop\n      jump\t// out\n        /* \"contracts/RockScissorPaper.sol\":885:924  uint32 public callbackGasLimit = 200000 */\n    tag_38:\n      0x06\n      0x00\n      swap1\n      sload\n      swap1\n      0x0100\n      exp\n      swap1\n      div\n      0xffffffff\n      and\n      dup2\n      jump\t// out\n        /* \"contracts/RockScissorPaper.sol\":2864:2914  function playRock() external payable { _play(0); } */\n    tag_42:\n        /* \"contracts/RockScissorPaper.sol\":2903:2911  _play(0) */\n      tag_118\n        /* \"contracts/RockScissorPaper.sol\":2909:2910  0 */\n      0x00\n        /* \"contracts/RockScissorPaper.sol\":2903:2908  _play */\n      tag_119\n        /* \"contracts/RockScissorPaper.sol\":2903:2911  _play(0) */\n      jump\t// in\n    tag_118:\n        /* \"contracts/RockScissorPaper.sol\":2864:2914  function playRock() external payable { _play(0); } */\n      jump\t// out\n        /* \"contracts/RockScissorPaper.sol\":2542:2808  function getRules() external pure returns (string memory) {... */\n    tag_45:\n        /* \"contracts/RockScissorPaper.sol\":2585:2598  string memory */\n      0x60\n        /* \"contracts/RockScissorPaper.sol\":2610:2801  return unicode\"Правила: 0-Камень, 1-Ножницы, 2-Бумага. Выигрыш: x2 от ставки. Ничья: возврат. Рандом через Chainlink VRF v2.5.\" */\n      mload(0x40)\n      dup1\n      0xe0\n      add\n      0x40\n      mstore\n      dup1\n      0xaf\n      dup2\n      mstore\n      0x20\n      add\n      data_8aca7b3ace7bf64daecd7c2059337bd69dca9811cf7f1bb9ec9aef9b01c4e752\n      0xaf\n      swap2\n      codecopy\n      swap1\n      pop\n        /* \"contracts/RockScissorPaper.sol\":2542:2808  function getRules() external pure returns (string memory) {... */\n      swap1\n      jump\t// out\n        /* \"contracts/RockScissorPaper.sol\":787:878  bytes32 public keyHash = 0x8596b430971ac45bdf6088665b9ad8e8630c9d5049ab54b14dff711bee7c0e26 */\n    tag_50:\n      sload(0x05)\n      dup2\n      jump\t// out\n        /* \"contracts/RockScissorPaper.sol\":549:597  uint256 public constant MIN_BET = 0.000001 ether */\n    tag_55:\n        /* \"contracts/RockScissorPaper.sol\":583:597  0.000001 ether */\n      0xe8d4a51000\n        /* \"contracts/RockScissorPaper.sol\":549:597  uint256 public constant MIN_BET = 0.000001 ether */\n      dup2\n      jump\t// out\n        /* \"contracts/RockScissorPaper.sol\":2919:2973  function playScissors() external payable { _play(1); } */\n    tag_58:\n        /* \"contracts/RockScissorPaper.sol\":2962:2970  _play(1) */\n      tag_122\n        /* \"contracts/RockScissorPaper.sol\":2968:2969  1 */\n      0x01\n        /* \"contracts/RockScissorPaper.sol\":2962:2967  _play */\n      tag_119\n        /* \"contracts/RockScissorPaper.sol\":2962:2970  _play(1) */\n      jump\t// in\n    tag_122:\n        /* \"contracts/RockScissorPaper.sol\":2919:2973  function playScissors() external payable { _play(1); } */\n      jump\t// out\n        /* \"@chainlink/contracts/src/v0.8/shared/access/ConfirmedOwnerWithProposal.sol\":1034:1350  function acceptOwnership() external override {... */\n    tag_61:\n        /* \"@chainlink/contracts/src/v0.8/shared/access/ConfirmedOwnerWithProposal.sol\":1158:1172  s_pendingOwner */\n      0x01\n      0x00\n      swap1\n      sload\n      swap1\n      0x0100\n      exp\n      swap1\n      div\n      0xffffffffffffffffffffffffffffffffffffffff\n      and\n        /* \"@chainlink/contracts/src/v0.8/shared/access/ConfirmedOwnerWithProposal.sol\":1144:1172  msg.sender == s_pendingOwner */\n      0xffffffffffffffffffffffffffffffffffffffff\n      and\n        /* \"@chainlink/contracts/src/v0.8/shared/access/ConfirmedOwnerWithProposal.sol\":1144:1154  msg.sender */\n      caller\n        /* \"@chainlink/contracts/src/v0.8/shared/access/ConfirmedOwnerWithProposal.sol\":1144:1172  msg.sender == s_pendingOwner */\n      0xffffffffffffffffffffffffffffffffffffffff\n      and\n      eq\n        /* \"@chainlink/contracts/src/v0.8/shared/access/ConfirmedOwnerWithProposal.sol\":1136:1199  require(msg.sender == s_pendingOwner, \"Must be proposed owner\") */\n      tag_124\n      jumpi\n      mload(0x40)\n      0x08c379a000000000000000000000000000000000000000000000000000000000\n      dup2\n      mstore\n      0x04\n      add\n      tag_125\n      swap1\n      tag_126\n      jump\t// in\n    tag_125:\n      mload(0x40)\n      dup1\n      swap2\n      sub\n      swap1\n      revert\n    tag_124:\n        /* \"@chainlink/contracts/src/v0.8/shared/access/ConfirmedOwnerWithProposal.sol\":1206:1222  address oldOwner */\n      0x00\n        /* \"@chainlink/contracts/src/v0.8/shared/access/ConfirmedOwnerWithProposal.sol\":1225:1232  s_owner */\n      0x00\n      0x00\n      swap1\n      sload\n      swap1\n      0x0100\n      exp\n      swap1\n      div\n      0xffffffffffffffffffffffffffffffffffffffff\n      and\n        /* \"@chainlink/contracts/src/v0.8/shared/access/ConfirmedOwnerWithProposal.sol\":1206:1232  address oldOwner = s_owner */\n      swap1\n      pop\n        /* \"@chainlink/contracts/src/v0.8/shared/access/ConfirmedOwnerWithProposal.sol\":1248:1258  msg.sender */\n      caller\n        /* \"@chainlink/contracts/src/v0.8/shared/access/ConfirmedOwnerWithProposal.sol\":1238:1245  s_owner */\n      0x00\n      0x00\n        /* \"@chainlink/contracts/src/v0.8/shared/access/ConfirmedOwnerWithProposal.sol\":1238:1258  s_owner = msg.sender */\n      0x0100\n      exp\n      dup2\n      sload\n      dup2\n      0xffffffffffffffffffffffffffffffffffffffff\n      mul\n      not\n      and\n      swap1\n      dup4\n      0xffffffffffffffffffffffffffffffffffffffff\n      and\n      mul\n      or\n      swap1\n      sstore\n      pop\n        /* \"@chainlink/contracts/src/v0.8/shared/access/ConfirmedOwnerWithProposal.sol\":1289:1290  0 */\n      0x00\n        /* \"@chainlink/contracts/src/v0.8/shared/access/ConfirmedOwnerWithProposal.sol\":1264:1278  s_pendingOwner */\n      0x01\n      0x00\n        /* \"@chainlink/contracts/src/v0.8/shared/access/ConfirmedOwnerWithProposal.sol\":1264:1291  s_pendingOwner = address(0) */\n      0x0100\n      exp\n      dup2\n      sload\n      dup2\n      0xffffffffffffffffffffffffffffffffffffffff\n      mul\n      not\n      and\n      swap1\n      dup4\n      0xffffffffffffffffffffffffffffffffffffffff\n      and\n      mul\n      or\n      swap1\n      sstore\n      pop\n        /* \"@chainlink/contracts/src/v0.8/shared/access/ConfirmedOwnerWithProposal.sol\":1334:1344  msg.sender */\n      caller\n        /* \"@chainlink/contracts/src/v0.8/shared/access/ConfirmedOwnerWithProposal.sol\":1303:1345  OwnershipTransferred(oldOwner, msg.sender) */\n      0xffffffffffffffffffffffffffffffffffffffff\n      and\n        /* \"@chainlink/contracts/src/v0.8/shared/access/ConfirmedOwnerWithProposal.sol\":1324:1332  oldOwner */\n      dup2\n        /* \"@chainlink/contracts/src/v0.8/shared/access/ConfirmedOwnerWithProposal.sol\":1303:1345  OwnershipTransferred(oldOwner, msg.sender) */\n      0xffffffffffffffffffffffffffffffffffffffff\n      and\n      0x8be0079c531659141344cd1fd0a4f28419497f9722a3daafe3b4186f6b6457e0\n      mload(0x40)\n      mload(0x40)\n      dup1\n      swap2\n      sub\n      swap1\n      log3\n        /* \"@chainlink/contracts/src/v0.8/shared/access/ConfirmedOwnerWithProposal.sol\":1079:1350  {... */\n      pop\n        /* \"@chainlink/contracts/src/v0.8/shared/access/ConfirmedOwnerWithProposal.sol\":1034:1350  function acceptOwnership() external override {... */\n      jump\t// out\n        /* \"contracts/RockScissorPaper.sol\":974:1000  uint32 public numWords = 1 */\n    tag_64:\n      0x06\n      dup1\n      sload\n      swap1\n      0x0100\n      exp\n      swap1\n      div\n      0xffffffff\n      and\n      dup2\n      jump\t// out\n        /* \"contracts/RockScissorPaper.sol\":1819:1844  LastGame public lastRound */\n    tag_68:\n      0x08\n      dup1\n      0x00\n      add\n      0x00\n      swap1\n      sload\n      swap1\n      0x0100\n      exp\n      swap1\n      div\n      0xffffffffffffffffffffffffffffffffffffffff\n      and\n      swap1\n      dup1\n      0x00\n      add\n      0x14\n      swap1\n      sload\n      swap1\n      0x0100\n      exp\n      swap1\n      div\n      0xff\n      and\n      swap1\n      dup1\n      0x00\n      add\n      0x15\n      swap1\n      sload\n      swap1\n      0x0100\n      exp\n      swap1\n      div\n      0xff\n      and\n      swap1\n      dup1\n      0x01\n      add\n      dup1\n      sload\n      tag_127\n      swap1\n      tag_128\n      jump\t// in\n    tag_127:\n      dup1\n      0x1f\n      add\n      0x20\n      dup1\n      swap2\n      div\n      mul\n      0x20\n      add\n      mload(0x40)\n      swap1\n      dup2\n      add\n      0x40\n      mstore\n      dup1\n      swap3\n      swap2\n      swap1\n      dup2\n      dup2\n      mstore\n      0x20\n      add\n      dup3\n      dup1\n      sload\n      tag_129\n      swap1\n      tag_128\n      jump\t// in\n    tag_129:\n      dup1\n      iszero\n      tag_130\n      jumpi\n      dup1\n      0x1f\n      lt\n      tag_131\n      jumpi\n      0x0100\n      dup1\n      dup4\n      sload\n      div\n      mul\n      dup4\n      mstore\n      swap2\n      0x20\n      add\n      swap2\n      jump(tag_130)\n    tag_131:\n      dup3\n      add\n      swap2\n      swap1\n      0x00\n      mstore\n      keccak256(0x00, 0x20)\n      swap1\n    tag_132:\n      dup2\n      sload\n      dup2\n      mstore\n      swap1\n      0x01\n      add\n      swap1\n      0x20\n      add\n      dup1\n      dup4\n      gt\n      tag_132\n      jumpi\n      dup3\n      swap1\n      sub\n      0x1f\n      and\n      dup3\n      add\n      swap2\n    tag_130:\n      pop\n      pop\n      pop\n      pop\n      pop\n      swap1\n      dup1\n      0x02\n      add\n      sload\n      swap1\n      pop\n      dup6\n      jump\t// out\n        /* \"contracts/RockScissorPaper.sol\":5341:5451  function withdrawAll() external onlyOwner {... */\n    tag_73:\n        /* \"@chainlink/contracts/src/v0.8/shared/access/ConfirmedOwnerWithProposal.sol\":2091:2111  _validateOwnership() */\n      tag_134\n        /* \"@chainlink/contracts/src/v0.8/shared/access/ConfirmedOwnerWithProposal.sol\":2091:2109  _validateOwnership */\n      tag_135\n        /* \"@chainlink/contracts/src/v0.8/shared/access/ConfirmedOwnerWithProposal.sol\":2091:2111  _validateOwnership() */\n      jump\t// in\n    tag_134:\n        /* \"contracts/RockScissorPaper.sol\":5401:5411  msg.sender */\n      caller\n        /* \"contracts/RockScissorPaper.sol\":5393:5421  payable(msg.sender).transfer */\n      0xffffffffffffffffffffffffffffffffffffffff\n      and\n        /* \"contracts/RockScissorPaper.sol\":5393:5444  payable(msg.sender).transfer(address(this).balance) */\n      0x08fc\n        /* \"contracts/RockScissorPaper.sol\":5422:5443  address(this).balance */\n      selfbalance\n        /* \"contracts/RockScissorPaper.sol\":5393:5444  payable(msg.sender).transfer(address(this).balance) */\n      swap1\n      dup2\n      iszero\n      mul\n      swap1\n      mload(0x40)\n      0x00\n      mload(0x40)\n      dup1\n      dup4\n      sub\n      dup2\n      dup6\n      dup9\n      dup9\n      call\n      swap4\n      pop\n      pop\n      pop\n      pop\n      iszero\n      dup1\n      iszero\n      tag_138\n      jumpi\n      returndatacopy(0x00, 0x00, returndatasize)\n      revert(0x00, returndatasize)\n    tag_138:\n      pop\n        /* \"contracts/RockScissorPaper.sol\":5341:5451  function withdrawAll() external onlyOwner {... */\n      jump\t// out\n        /* \"contracts/RockScissorPaper.sol\":669:700  uint256 public s_subscriptionId */\n    tag_76:\n      sload(0x03)\n      dup2\n      jump\t// out\n        /* \"@chainlink/contracts/src/v0.8/shared/access/ConfirmedOwnerWithProposal.sol\":1390:1471  function owner() public view override returns (address) {... */\n    tag_80:\n        /* \"@chainlink/contracts/src/v0.8/shared/access/ConfirmedOwnerWithProposal.sol\":1437:1444  address */\n      0x00\n        /* \"@chainlink/contracts/src/v0.8/shared/access/ConfirmedOwnerWithProposal.sol\":1459:1466  s_owner */\n      0x00\n      0x00\n      swap1\n      sload\n      swap1\n      0x0100\n      exp\n      swap1\n      div\n      0xffffffffffffffffffffffffffffffffffffffff\n      and\n        /* \"@chainlink/contracts/src/v0.8/shared/access/ConfirmedOwnerWithProposal.sol\":1452:1466  return s_owner */\n      swap1\n      pop\n        /* \"@chainlink/contracts/src/v0.8/shared/access/ConfirmedOwnerWithProposal.sol\":1390:1471  function owner() public view override returns (address) {... */\n      swap1\n      jump\t// out\n        /* \"@chainlink/contracts/src/v0.8/vrf/dev/VRFConsumerBaseV2Plus.sol\":7765:8049  function setCoordinator(... */\n    tag_87:\n        /* \"@chainlink/contracts/src/v0.8/vrf/dev/VRFConsumerBaseV2Plus.sol\":8111:8118  owner() */\n      tag_141\n        /* \"@chainlink/contracts/src/v0.8/vrf/dev/VRFConsumerBaseV2Plus.sol\":8111:8116  owner */\n      tag_80\n        /* \"@chainlink/contracts/src/v0.8/vrf/dev/VRFConsumerBaseV2Plus.sol\":8111:8118  owner() */\n      jump\t// in\n    tag_141:\n        /* \"@chainlink/contracts/src/v0.8/vrf/dev/VRFConsumerBaseV2Plus.sol\":8097:8118  msg.sender != owner() */\n      0xffffffffffffffffffffffffffffffffffffffff\n      and\n        /* \"@chainlink/contracts/src/v0.8/vrf/dev/VRFConsumerBaseV2Plus.sol\":8097:8107  msg.sender */\n      caller\n        /* \"@chainlink/contracts/src/v0.8/vrf/dev/VRFConsumerBaseV2Plus.sol\":8097:8118  msg.sender != owner() */\n      0xffffffffffffffffffffffffffffffffffffffff\n      and\n      eq\n      iszero\n        /* \"@chainlink/contracts/src/v0.8/vrf/dev/VRFConsumerBaseV2Plus.sol\":8097:8161  msg.sender != owner() && msg.sender != address(s_vrfCoordinator) */\n      dup1\n      iszero\n      tag_142\n      jumpi\n      pop\n        /* \"@chainlink/contracts/src/v0.8/vrf/dev/VRFConsumerBaseV2Plus.sol\":8144:8160  s_vrfCoordinator */\n      0x02\n      0x00\n      swap1\n      sload\n      swap1\n      0x0100\n      exp\n      swap1\n      div\n      0xffffffffffffffffffffffffffffffffffffffff\n      and\n        /* \"@chainlink/contracts/src/v0.8/vrf/dev/VRFConsumerBaseV2Plus.sol\":8122:8161  msg.sender != address(s_vrfCoordinator) */\n      0xffffffffffffffffffffffffffffffffffffffff\n      and\n        /* \"@chainlink/contracts/src/v0.8/vrf/dev/VRFConsumerBaseV2Plus.sol\":8122:8132  msg.sender */\n      caller\n        /* \"@chainlink/contracts/src/v0.8/vrf/dev/VRFConsumerBaseV2Plus.sol\":8122:8161  msg.sender != address(s_vrfCoordinator) */\n      0xffffffffffffffffffffffffffffffffffffffff\n      and\n      eq\n      iszero\n        /* \"@chainlink/contracts/src/v0.8/vrf/dev/VRFConsumerBaseV2Plus.sol\":8097:8161  msg.sender != owner() && msg.sender != address(s_vrfCoordinator) */\n    tag_142:\n        /* \"@chainlink/contracts/src/v0.8/vrf/dev/VRFConsumerBaseV2Plus.sol\":8093:8255  if (msg.sender != owner() && msg.sender != address(s_vrfCoordinator)) {... */\n      iszero\n      tag_143\n      jumpi\n        /* \"@chainlink/contracts/src/v0.8/vrf/dev/VRFConsumerBaseV2Plus.sol\":8201:8211  msg.sender */\n      caller\n        /* \"@chainlink/contracts/src/v0.8/vrf/dev/VRFConsumerBaseV2Plus.sol\":8213:8220  owner() */\n      tag_144\n        /* \"@chainlink/contracts/src/v0.8/vrf/dev/VRFConsumerBaseV2Plus.sol\":8213:8218  owner */\n      tag_80\n        /* \"@chainlink/contracts/src/v0.8/vrf/dev/VRFConsumerBaseV2Plus.sol\":8213:8220  owner() */\n      jump\t// in\n    tag_144:\n        /* \"@chainlink/contracts/src/v0.8/vrf/dev/VRFConsumerBaseV2Plus.sol\":8230:8246  s_vrfCoordinator */\n      0x02\n      0x00\n      swap1\n      sload\n      swap1\n      0x0100\n      exp\n      swap1\n      div\n      0xffffffffffffffffffffffffffffffffffffffff\n      and\n        /* \"@chainlink/contracts/src/v0.8/vrf/dev/VRFConsumerBaseV2Plus.sol\":8178:8248  OnlyOwnerOrCoordinator(msg.sender, owner(), address(s_vrfCoordinator)) */\n      mload(0x40)\n      0x061db9c100000000000000000000000000000000000000000000000000000000\n      dup2\n      mstore\n      0x04\n      add\n      tag_145\n      swap4\n      swap3\n      swap2\n      swap1\n      tag_146\n      jump\t// in\n    tag_145:\n      mload(0x40)\n      dup1\n      swap2\n      sub\n      swap1\n      revert\n        /* \"@chainlink/contracts/src/v0.8/vrf/dev/VRFConsumerBaseV2Plus.sol\":8093:8255  if (msg.sender != owner() && msg.sender != address(s_vrfCoordinator)) {... */\n    tag_143:\n        /* \"@chainlink/contracts/src/v0.8/vrf/dev/VRFConsumerBaseV2Plus.sol\":7900:7901  0 */\n      0x00\n        /* \"@chainlink/contracts/src/v0.8/vrf/dev/VRFConsumerBaseV2Plus.sol\":7873:7902  _vrfCoordinator == address(0) */\n      0xffffffffffffffffffffffffffffffffffffffff\n      and\n        /* \"@chainlink/contracts/src/v0.8/vrf/dev/VRFConsumerBaseV2Plus.sol\":7873:7888  _vrfCoordinator */\n      dup2\n        /* \"@chainlink/contracts/src/v0.8/vrf/dev/VRFConsumerBaseV2Plus.sol\":7873:7902  _vrfCoordinator == address(0) */\n      0xffffffffffffffffffffffffffffffffffffffff\n      and\n      sub\n        /* \"@chainlink/contracts/src/v0.8/vrf/dev/VRFConsumerBaseV2Plus.sol\":7869:7939  if (_vrfCoordinator == address(0)) {... */\n      tag_148\n      jumpi\n        /* \"@chainlink/contracts/src/v0.8/vrf/dev/VRFConsumerBaseV2Plus.sol\":7919:7932  ZeroAddress() */\n      mload(0x40)\n      0xd92e233d00000000000000000000000000000000000000000000000000000000\n      dup2\n      mstore\n      0x04\n      add\n      mload(0x40)\n      dup1\n      swap2\n      sub\n      swap1\n      revert\n        /* \"@chainlink/contracts/src/v0.8/vrf/dev/VRFConsumerBaseV2Plus.sol\":7869:7939  if (_vrfCoordinator == address(0)) {... */\n    tag_148:\n        /* \"@chainlink/contracts/src/v0.8/vrf/dev/VRFConsumerBaseV2Plus.sol\":7985:8000  _vrfCoordinator */\n      dup1\n        /* \"@chainlink/contracts/src/v0.8/vrf/dev/VRFConsumerBaseV2Plus.sol\":7944:7960  s_vrfCoordinator */\n      0x02\n      0x00\n        /* \"@chainlink/contracts/src/v0.8/vrf/dev/VRFConsumerBaseV2Plus.sol\":7944:8001  s_vrfCoordinator = IVRFCoordinatorV2Plus(_vrfCoordinator) */\n      0x0100\n      exp\n      dup2\n      sload\n      dup2\n      0xffffffffffffffffffffffffffffffffffffffff\n      mul\n      not\n      and\n      swap1\n      dup4\n      0xffffffffffffffffffffffffffffffffffffffff\n      and\n      mul\n      or\n      swap1\n      sstore\n      pop\n        /* \"@chainlink/contracts/src/v0.8/vrf/dev/VRFConsumerBaseV2Plus.sol\":8013:8044  CoordinatorSet(_vrfCoordinator) */\n      0xd1a6a14209a385a964d036e404cb5cfb71f4000cdb03c9366292430787261be6\n        /* \"@chainlink/contracts/src/v0.8/vrf/dev/VRFConsumerBaseV2Plus.sol\":8028:8043  _vrfCoordinator */\n      dup2\n        /* \"@chainlink/contracts/src/v0.8/vrf/dev/VRFConsumerBaseV2Plus.sol\":8013:8044  CoordinatorSet(_vrfCoordinator) */\n      mload(0x40)\n      tag_149\n      swap2\n      swap1\n      tag_82\n      jump\t// in\n    tag_149:\n      mload(0x40)\n      dup1\n      swap2\n      sub\n      swap1\n      log1\n        /* \"@chainlink/contracts/src/v0.8/vrf/dev/VRFConsumerBaseV2Plus.sol\":7765:8049  function setCoordinator(... */\n      pop\n      jump\t// out\n        /* \"@chainlink/contracts/src/v0.8/vrf/dev/VRFConsumerBaseV2Plus.sol\":6003:6048  IVRFCoordinatorV2Plus public s_vrfCoordinator */\n    tag_90:\n      0x02\n      0x00\n      swap1\n      sload\n      swap1\n      0x0100\n      exp\n      swap1\n      div\n      0xffffffffffffffffffffffffffffffffffffffff\n      and\n      dup2\n      jump\t// out\n        /* \"contracts/RockScissorPaper.sol\":706:780  address public vrfCoordinator = 0xDA3b641D438362C440Ac5458c57e00a712b66700 */\n    tag_95:\n      0x04\n      0x00\n      swap1\n      sload\n      swap1\n      0x0100\n      exp\n      swap1\n      div\n      0xffffffffffffffffffffffffffffffffffffffff\n      and\n      dup2\n      jump\t// out\n        /* \"contracts/RockScissorPaper.sol\":930:968  uint16 public requestConfirmations = 3 */\n    tag_99:\n      0x06\n      0x04\n      swap1\n      sload\n      swap1\n      0x0100\n      exp\n      swap1\n      div\n      0xffff\n      and\n      dup2\n      jump\t// out\n        /* \"contracts/RockScissorPaper.sol\":5161:5199  function deposit() external payable {} */\n    tag_103:\n      jump\t// out\n        /* \"contracts/RockScissorPaper.sol\":2978:3029  function playPaper() external payable { _play(2); } */\n    tag_105:\n        /* \"contracts/RockScissorPaper.sol\":3018:3026  _play(2) */\n      tag_152\n        /* \"contracts/RockScissorPaper.sol\":3024:3025  2 */\n      0x02\n        /* \"contracts/RockScissorPaper.sol\":3018:3023  _play */\n      tag_119\n        /* \"contracts/RockScissorPaper.sol\":3018:3026  _play(2) */\n      jump\t// in\n    tag_152:\n        /* \"contracts/RockScissorPaper.sol\":2978:3029  function playPaper() external payable { _play(2); } */\n      jump\t// out\n        /* \"@chainlink/contracts/src/v0.8/shared/access/ConfirmedOwnerWithProposal.sol\":847:953  function transferOwnership(... */\n    tag_109:\n        /* \"@chainlink/contracts/src/v0.8/shared/access/ConfirmedOwnerWithProposal.sol\":2091:2111  _validateOwnership() */\n      tag_154\n        /* \"@chainlink/contracts/src/v0.8/shared/access/ConfirmedOwnerWithProposal.sol\":2091:2109  _validateOwnership */\n      tag_135\n        /* \"@chainlink/contracts/src/v0.8/shared/access/ConfirmedOwnerWithProposal.sol\":2091:2111  _validateOwnership() */\n      jump\t// in\n    tag_154:\n        /* \"@chainlink/contracts/src/v0.8/shared/access/ConfirmedOwnerWithProposal.sol\":926:948  _transferOwnership(to) */\n      tag_156\n        /* \"@chainlink/contracts/src/v0.8/shared/access/ConfirmedOwnerWithProposal.sol\":945:947  to */\n      dup2\n        /* \"@chainlink/contracts/src/v0.8/shared/access/ConfirmedOwnerWithProposal.sol\":926:944  _transferOwnership */\n      tag_157\n        /* \"@chainlink/contracts/src/v0.8/shared/access/ConfirmedOwnerWithProposal.sol\":926:948  _transferOwnership(to) */\n      jump\t// in\n    tag_156:\n        /* \"@chainlink/contracts/src/v0.8/shared/access/ConfirmedOwnerWithProposal.sol\":847:953  function transferOwnership(... */\n      pop\n      jump\t// out\n        /* \"contracts/RockScissorPaper.sol\":3981:5108  function fulfillRandomWords(uint256 requestId, uint256[] calldata randomWords) internal override {... */\n    tag_116:\n        /* \"contracts/RockScissorPaper.sol\":4088:4111  PendingGame memory game */\n      0x00\n        /* \"contracts/RockScissorPaper.sol\":4114:4124  s_requests */\n      0x07\n        /* \"contracts/RockScissorPaper.sol\":4114:4135  s_requests[requestId] */\n      0x00\n        /* \"contracts/RockScissorPaper.sol\":4125:4134  requestId */\n      dup6\n        /* \"contracts/RockScissorPaper.sol\":4114:4135  s_requests[requestId] */\n      dup2\n      mstore\n      0x20\n      add\n      swap1\n      dup2\n      mstore\n      0x20\n      add\n      0x00\n      keccak256\n        /* \"contracts/RockScissorPaper.sol\":4088:4135  PendingGame memory game = s_requests[requestId] */\n      mload(0x40)\n      dup1\n      0x60\n      add\n      0x40\n      mstore\n      swap1\n      dup2\n      0x00\n      dup3\n      add\n      0x00\n      swap1\n      sload\n      swap1\n      0x0100\n      exp\n      swap1\n      div\n      0xffffffffffffffffffffffffffffffffffffffff\n      and\n      0xffffffffffffffffffffffffffffffffffffffff\n      and\n      0xffffffffffffffffffffffffffffffffffffffff\n      and\n      dup2\n      mstore\n      0x20\n      add\n      0x01\n      dup3\n      add\n      sload\n      dup2\n      mstore\n      0x20\n      add\n      0x02\n      dup3\n      add\n      0x00\n      swap1\n      sload\n      swap1\n      0x0100\n      exp\n      swap1\n      div\n      0xff\n      and\n      0xff\n      and\n      0xff\n      and\n      dup2\n      mstore\n      pop\n      pop\n      swap1\n      pop\n        /* \"contracts/RockScissorPaper.sol\":4154:4172  uint8 randomNumber */\n      0x00\n        /* \"contracts/RockScissorPaper.sol\":4198:4199  3 */\n      0x03\n        /* \"contracts/RockScissorPaper.sol\":4181:4192  randomWords */\n      dup5\n      dup5\n        /* \"contracts/RockScissorPaper.sol\":4193:4194  0 */\n      0x00\n        /* \"contracts/RockScissorPaper.sol\":4181:4195  randomWords[0] */\n      dup2\n      dup2\n      lt\n      tag_159\n      jumpi\n      tag_160\n      tag_161\n      jump\t// in\n    tag_160:\n    tag_159:\n      swap1\n      pop\n      0x20\n      mul\n      add\n      calldataload\n        /* \"contracts/RockScissorPaper.sol\":4181:4199  randomWords[0] % 3 */\n      tag_162\n      swap2\n      swap1\n      tag_163\n      jump\t// in\n    tag_162:\n        /* \"contracts/RockScissorPaper.sol\":4154:4200  uint8 randomNumber = uint8(randomWords[0] % 3) */\n      swap1\n      pop\n        /* \"contracts/RockScissorPaper.sol\":4210:4234  string memory gameResult */\n      0x60\n        /* \"contracts/RockScissorPaper.sol\":4244:4258  uint256 payout */\n      0x00\n        /* \"contracts/RockScissorPaper.sol\":4261:4262  0 */\n      0x00\n        /* \"contracts/RockScissorPaper.sol\":4244:4262  uint256 payout = 0 */\n      swap1\n      pop\n        /* \"contracts/RockScissorPaper.sol\":4298:4310  randomNumber */\n      dup3\n        /* \"contracts/RockScissorPaper.sol\":4277:4310  game.playerChoice == randomNumber */\n      0xff\n      and\n        /* \"contracts/RockScissorPaper.sol\":4277:4281  game */\n      dup5\n        /* \"contracts/RockScissorPaper.sol\":4277:4294  game.playerChoice */\n      0x40\n      add\n      mload\n        /* \"contracts/RockScissorPaper.sol\":4277:4310  game.playerChoice == randomNumber */\n      0xff\n      and\n      sub\n        /* \"contracts/RockScissorPaper.sol\":4273:4843  if (game.playerChoice == randomNumber) {... */\n      tag_164\n      jumpi\n        /* \"contracts/RockScissorPaper.sol\":4326:4345  gameResult = \"Draw\" */\n      mload(0x40)\n      dup1\n      0x40\n      add\n      0x40\n      mstore\n      dup1\n      0x04\n      dup2\n      mstore\n      0x20\n      add\n      0x4472617700000000000000000000000000000000000000000000000000000000\n      dup2\n      mstore\n      pop\n      swap2\n      pop\n        /* \"contracts/RockScissorPaper.sol\":4368:4372  game */\n      dup4\n        /* \"contracts/RockScissorPaper.sol\":4368:4376  game.bet */\n      0x20\n      add\n      mload\n        /* \"contracts/RockScissorPaper.sol\":4359:4376  payout = game.bet */\n      swap1\n      pop\n        /* \"contracts/RockScissorPaper.sol\":4398:4402  game */\n      dup4\n        /* \"contracts/RockScissorPaper.sol\":4398:4409  game.player */\n      0x00\n      add\n      mload\n        /* \"contracts/RockScissorPaper.sol\":4390:4419  payable(game.player).transfer */\n      0xffffffffffffffffffffffffffffffffffffffff\n      and\n        /* \"contracts/RockScissorPaper.sol\":4390:4427  payable(game.player).transfer(payout) */\n      0x08fc\n        /* \"contracts/RockScissorPaper.sol\":4420:4426  payout */\n      dup3\n        /* \"contracts/RockScissorPaper.sol\":4390:4427  payable(game.player).transfer(payout) */\n      swap1\n      dup2\n      iszero\n      mul\n      swap1\n      mload(0x40)\n      0x00\n      mload(0x40)\n      dup1\n      dup4\n      sub\n      dup2\n      dup6\n      dup9\n      dup9\n      call\n      swap4\n      pop\n      pop\n      pop\n      pop\n      iszero\n      dup1\n      iszero\n      tag_166\n      jumpi\n      returndatacopy(0x00, 0x00, returndatasize)\n      revert(0x00, returndatasize)\n    tag_166:\n      pop\n        /* \"contracts/RockScissorPaper.sol\":4273:4843  if (game.playerChoice == randomNumber) {... */\n      jump(tag_167)\n    tag_164:\n        /* \"contracts/RockScissorPaper.sol\":4492:4493  0 */\n      0x00\n        /* \"contracts/RockScissorPaper.sol\":4471:4475  game */\n      dup5\n        /* \"contracts/RockScissorPaper.sol\":4471:4488  game.playerChoice */\n      0x40\n      add\n      mload\n        /* \"contracts/RockScissorPaper.sol\":4471:4493  game.playerChoice == 0 */\n      0xff\n      and\n      eq\n        /* \"contracts/RockScissorPaper.sol\":4471:4514  game.playerChoice == 0 && randomNumber == 1 */\n      dup1\n      iszero\n      tag_168\n      jumpi\n      pop\n        /* \"contracts/RockScissorPaper.sol\":4513:4514  1 */\n      0x01\n        /* \"contracts/RockScissorPaper.sol\":4497:4509  randomNumber */\n      dup4\n        /* \"contracts/RockScissorPaper.sol\":4497:4514  randomNumber == 1 */\n      0xff\n      and\n      eq\n        /* \"contracts/RockScissorPaper.sol\":4471:4514  game.playerChoice == 0 && randomNumber == 1 */\n    tag_168:\n        /* \"contracts/RockScissorPaper.sol\":4470:4577  (game.playerChoice == 0 && randomNumber == 1) || ... */\n      dup1\n      tag_169\n      jumpi\n      pop\n        /* \"contracts/RockScissorPaper.sol\":4554:4555  1 */\n      0x01\n        /* \"contracts/RockScissorPaper.sol\":4533:4537  game */\n      dup5\n        /* \"contracts/RockScissorPaper.sol\":4533:4550  game.playerChoice */\n      0x40\n      add\n      mload\n        /* \"contracts/RockScissorPaper.sol\":4533:4555  game.playerChoice == 1 */\n      0xff\n      and\n      eq\n        /* \"contracts/RockScissorPaper.sol\":4533:4576  game.playerChoice == 1 && randomNumber == 2 */\n      dup1\n      iszero\n      tag_170\n      jumpi\n      pop\n        /* \"contracts/RockScissorPaper.sol\":4575:4576  2 */\n      0x02\n        /* \"contracts/RockScissorPaper.sol\":4559:4571  randomNumber */\n      dup4\n        /* \"contracts/RockScissorPaper.sol\":4559:4576  randomNumber == 2 */\n      0xff\n      and\n      eq\n        /* \"contracts/RockScissorPaper.sol\":4533:4576  game.playerChoice == 1 && randomNumber == 2 */\n    tag_170:\n        /* \"contracts/RockScissorPaper.sol\":4470:4577  (game.playerChoice == 0 && randomNumber == 1) || ... */\n    tag_169:\n        /* \"contracts/RockScissorPaper.sol\":4470:4639  (game.playerChoice == 0 && randomNumber == 1) || ... */\n      dup1\n      tag_171\n      jumpi\n      pop\n        /* \"contracts/RockScissorPaper.sol\":4616:4617  2 */\n      0x02\n        /* \"contracts/RockScissorPaper.sol\":4595:4599  game */\n      dup5\n        /* \"contracts/RockScissorPaper.sol\":4595:4612  game.playerChoice */\n      0x40\n      add\n      mload\n        /* \"contracts/RockScissorPaper.sol\":4595:4617  game.playerChoice == 2 */\n      0xff\n      and\n      eq\n        /* \"contracts/RockScissorPaper.sol\":4595:4638  game.playerChoice == 2 && randomNumber == 0 */\n      dup1\n      iszero\n      tag_172\n      jumpi\n      pop\n        /* \"contracts/RockScissorPaper.sol\":4637:4638  0 */\n      0x00\n        /* \"contracts/RockScissorPaper.sol\":4621:4633  randomNumber */\n      dup4\n        /* \"contracts/RockScissorPaper.sol\":4621:4638  randomNumber == 0 */\n      0xff\n      and\n      eq\n        /* \"contracts/RockScissorPaper.sol\":4595:4638  game.playerChoice == 2 && randomNumber == 0 */\n    tag_172:\n        /* \"contracts/RockScissorPaper.sol\":4470:4639  (game.playerChoice == 0 && randomNumber == 1) || ... */\n    tag_171:\n        /* \"contracts/RockScissorPaper.sol\":4453:4843  if (... */\n      iszero\n      tag_173\n      jumpi\n        /* \"contracts/RockScissorPaper.sol\":4664:4687  gameResult = \"You Win!\" */\n      mload(0x40)\n      dup1\n      0x40\n      add\n      0x40\n      mstore\n      dup1\n      0x08\n      dup2\n      mstore\n      0x20\n      add\n      0x596f752057696e21000000000000000000000000000000000000000000000000\n      dup2\n      mstore\n      pop\n      swap2\n      pop\n        /* \"contracts/RockScissorPaper.sol\":4721:4722  2 */\n      0x02\n        /* \"contracts/RockScissorPaper.sol\":4710:4714  game */\n      dup5\n        /* \"contracts/RockScissorPaper.sol\":4710:4718  game.bet */\n      0x20\n      add\n      mload\n        /* \"contracts/RockScissorPaper.sol\":4710:4722  game.bet * 2 */\n      tag_174\n      swap2\n      swap1\n      tag_175\n      jump\t// in\n    tag_174:\n        /* \"contracts/RockScissorPaper.sol\":4701:4722  payout = game.bet * 2 */\n      swap1\n      pop\n        /* \"contracts/RockScissorPaper.sol\":4744:4748  game */\n      dup4\n        /* \"contracts/RockScissorPaper.sol\":4744:4755  game.player */\n      0x00\n      add\n      mload\n        /* \"contracts/RockScissorPaper.sol\":4736:4765  payable(game.player).transfer */\n      0xffffffffffffffffffffffffffffffffffffffff\n      and\n        /* \"contracts/RockScissorPaper.sol\":4736:4773  payable(game.player).transfer(payout) */\n      0x08fc\n        /* \"contracts/RockScissorPaper.sol\":4766:4772  payout */\n      dup3\n        /* \"contracts/RockScissorPaper.sol\":4736:4773  payable(game.player).transfer(payout) */\n      swap1\n      dup2\n      iszero\n      mul\n      swap1\n      mload(0x40)\n      0x00\n      mload(0x40)\n      dup1\n      dup4\n      sub\n      dup2\n      dup6\n      dup9\n      dup9\n      call\n      swap4\n      pop\n      pop\n      pop\n      pop\n      iszero\n      dup1\n      iszero\n      tag_177\n      jumpi\n      returndatacopy(0x00, 0x00, returndatasize)\n      revert(0x00, returndatasize)\n    tag_177:\n      pop\n        /* \"contracts/RockScissorPaper.sol\":4453:4843  if (... */\n      jump(tag_178)\n    tag_173:\n        /* \"contracts/RockScissorPaper.sol\":4813:4832  gameResult = \"Lose\" */\n      mload(0x40)\n      dup1\n      0x40\n      add\n      0x40\n      mstore\n      dup1\n      0x04\n      dup2\n      mstore\n      0x20\n      add\n      0x4c6f736500000000000000000000000000000000000000000000000000000000\n      dup2\n      mstore\n      pop\n      swap2\n      pop\n        /* \"contracts/RockScissorPaper.sol\":4453:4843  if (... */\n    tag_178:\n        /* \"contracts/RockScissorPaper.sol\":4273:4843  if (game.playerChoice == randomNumber) {... */\n    tag_167:\n        /* \"contracts/RockScissorPaper.sol\":4865:5062  LastGame({... */\n      mload(0x40)\n      dup1\n      0xa0\n      add\n      0x40\n      mstore\n      dup1\n        /* \"contracts/RockScissorPaper.sol\":4896:4900  game */\n      dup6\n        /* \"contracts/RockScissorPaper.sol\":4896:4907  game.player */\n      0x00\n      add\n      mload\n        /* \"contracts/RockScissorPaper.sol\":4865:5062  LastGame({... */\n      0xffffffffffffffffffffffffffffffffffffffff\n      and\n      dup2\n      mstore\n      0x20\n      add\n        /* \"contracts/RockScissorPaper.sol\":4935:4939  game */\n      dup6\n        /* \"contracts/RockScissorPaper.sol\":4935:4952  game.playerChoice */\n      0x40\n      add\n      mload\n        /* \"contracts/RockScissorPaper.sol\":4865:5062  LastGame({... */\n      0xff\n      and\n      dup2\n      mstore\n      0x20\n      add\n        /* \"contracts/RockScissorPaper.sol\":4980:4992  randomNumber */\n      dup5\n        /* \"contracts/RockScissorPaper.sol\":4865:5062  LastGame({... */\n      0xff\n      and\n      dup2\n      mstore\n      0x20\n      add\n        /* \"contracts/RockScissorPaper.sol\":5014:5024  gameResult */\n      dup4\n        /* \"contracts/RockScissorPaper.sol\":4865:5062  LastGame({... */\n      dup2\n      mstore\n      0x20\n      add\n        /* \"contracts/RockScissorPaper.sol\":5043:5047  game */\n      dup6\n        /* \"contracts/RockScissorPaper.sol\":5043:5051  game.bet */\n      0x20\n      add\n      mload\n        /* \"contracts/RockScissorPaper.sol\":4865:5062  LastGame({... */\n      dup2\n      mstore\n      pop\n        /* \"contracts/RockScissorPaper.sol\":4853:4862  lastRound */\n      0x08\n        /* \"contracts/RockScissorPaper.sol\":4853:5062  lastRound = LastGame({... */\n      0x00\n      dup3\n      add\n      mload\n      dup2\n      0x00\n      add\n      exp(0x0100, 0x00)\n      dup2\n      sload\n      dup2\n      0xffffffffffffffffffffffffffffffffffffffff\n      mul\n      not\n      and\n      swap1\n      dup4\n      0xffffffffffffffffffffffffffffffffffffffff\n      and\n      mul\n      or\n      swap1\n      sstore\n      pop\n      0x20\n      dup3\n      add\n      mload\n      dup2\n      0x00\n      add\n      exp(0x0100, 0x14)\n      dup2\n      sload\n      dup2\n      0xff\n      mul\n      not\n      and\n      swap1\n      dup4\n      0xff\n      and\n      mul\n      or\n      swap1\n      sstore\n      pop\n      0x40\n      dup3\n      add\n      mload\n      dup2\n      0x00\n      add\n      exp(0x0100, 0x15)\n      dup2\n      sload\n      dup2\n      0xff\n      mul\n      not\n      and\n      swap1\n      dup4\n      0xff\n      and\n      mul\n      or\n      swap1\n      sstore\n      pop\n      0x60\n      dup3\n      add\n      mload\n      dup2\n      0x01\n      add\n      swap1\n      dup2\n      tag_179\n      swap2\n      swap1\n      tag_180\n      jump\t// in\n    tag_179:\n      pop\n      0x80\n      dup3\n      add\n      mload\n      dup2\n      0x02\n      add\n      sstore\n      swap1\n      pop\n      pop\n        /* \"contracts/RockScissorPaper.sol\":5080:5090  s_requests */\n      0x07\n        /* \"contracts/RockScissorPaper.sol\":5080:5101  s_requests[requestId] */\n      0x00\n        /* \"contracts/RockScissorPaper.sol\":5091:5100  requestId */\n      dup9\n        /* \"contracts/RockScissorPaper.sol\":5080:5101  s_requests[requestId] */\n      dup2\n      mstore\n      0x20\n      add\n      swap1\n      dup2\n      mstore\n      0x20\n      add\n      0x00\n      keccak256\n      0x00\n        /* \"contracts/RockScissorPaper.sol\":5073:5101  delete s_requests[requestId] */\n      0x00\n      dup3\n      add\n      exp(0x0100, 0x00)\n      dup2\n      sload\n      swap1\n      0xffffffffffffffffffffffffffffffffffffffff\n      mul\n      not\n      and\n      swap1\n      sstore\n      0x01\n      dup3\n      add\n      0x00\n      swap1\n      sstore\n      0x02\n      dup3\n      add\n      exp(0x0100, 0x00)\n      dup2\n      sload\n      swap1\n      0xff\n      mul\n      not\n      and\n      swap1\n      sstore\n      pop\n      pop\n        /* \"contracts/RockScissorPaper.sol\":4078:5108  {... */\n      pop\n      pop\n      pop\n      pop\n        /* \"contracts/RockScissorPaper.sol\":3981:5108  function fulfillRandomWords(uint256 requestId, uint256[] calldata randomWords) internal override {... */\n      pop\n      pop\n      pop\n      jump\t// out\n        /* \"contracts/RockScissorPaper.sol\":3085:3940  function _play(uint8 _playerChoice) internal {... */\n    tag_119:\n        /* \"contracts/RockScissorPaper.sol\":583:597  0.000001 ether */\n      0xe8d4a51000\n        /* \"contracts/RockScissorPaper.sol\":3148:3157  msg.value */\n      callvalue\n        /* \"contracts/RockScissorPaper.sol\":3148:3168  msg.value >= MIN_BET */\n      lt\n      iszero\n        /* \"contracts/RockScissorPaper.sol\":3140:3184  require(msg.value >= MIN_BET, \"Bet too low\") */\n      tag_182\n      jumpi\n      mload(0x40)\n      0x08c379a000000000000000000000000000000000000000000000000000000000\n      dup2\n      mstore\n      0x04\n      add\n      tag_183\n      swap1\n      tag_184\n      jump\t// in\n    tag_183:\n      mload(0x40)\n      dup1\n      swap2\n      sub\n      swap1\n      revert\n    tag_182:\n        /* \"contracts/RockScissorPaper.sol\":3239:3240  2 */\n      0x02\n        /* \"contracts/RockScissorPaper.sol\":3227:3236  msg.value */\n      callvalue\n        /* \"contracts/RockScissorPaper.sol\":3227:3240  msg.value * 2 */\n      tag_185\n      swap2\n      swap1\n      tag_175\n      jump\t// in\n    tag_185:\n        /* \"contracts/RockScissorPaper.sol\":3202:3223  address(this).balance */\n      selfbalance\n        /* \"contracts/RockScissorPaper.sol\":3202:3240  address(this).balance >= msg.value * 2 */\n      lt\n      iszero\n        /* \"contracts/RockScissorPaper.sol\":3194:3262  require(address(this).balance >= msg.value * 2, \"Contract is empty\") */\n      tag_186\n      jumpi\n      mload(0x40)\n      0x08c379a000000000000000000000000000000000000000000000000000000000\n      dup2\n      mstore\n      0x04\n      add\n      tag_187\n      swap1\n      tag_188\n      jump\t// in\n    tag_187:\n      mload(0x40)\n      dup1\n      swap2\n      sub\n      swap1\n      revert\n    tag_186:\n        /* \"contracts/RockScissorPaper.sol\":3273:3290  uint256 requestId */\n      0x00\n        /* \"contracts/RockScissorPaper.sol\":3293:3309  s_vrfCoordinator */\n      0x02\n      0x00\n      swap1\n      sload\n      swap1\n      0x0100\n      exp\n      swap1\n      div\n      0xffffffffffffffffffffffffffffffffffffffff\n      and\n        /* \"contracts/RockScissorPaper.sol\":3293:3328  s_vrfCoordinator.requestRandomWords */\n      0xffffffffffffffffffffffffffffffffffffffff\n      and\n      0x9b1c385e\n        /* \"contracts/RockScissorPaper.sol\":3342:3764  VRFV2PlusClient.RandomWordsRequest({... */\n      mload(0x40)\n      dup1\n      0xc0\n      add\n      0x40\n      mstore\n      dup1\n        /* \"contracts/RockScissorPaper.sol\":3404:3411  keyHash */\n      sload(0x05)\n        /* \"contracts/RockScissorPaper.sol\":3342:3764  VRFV2PlusClient.RandomWordsRequest({... */\n      dup2\n      mstore\n      0x20\n      add\n        /* \"contracts/RockScissorPaper.sol\":3436:3452  s_subscriptionId */\n      sload(0x03)\n        /* \"contracts/RockScissorPaper.sol\":3342:3764  VRFV2PlusClient.RandomWordsRequest({... */\n      dup2\n      mstore\n      0x20\n      add\n        /* \"contracts/RockScissorPaper.sol\":3492:3512  requestConfirmations */\n      0x06\n      0x04\n      swap1\n      sload\n      swap1\n      0x0100\n      exp\n      swap1\n      div\n      0xffff\n      and\n        /* \"contracts/RockScissorPaper.sol\":3342:3764  VRFV2PlusClient.RandomWordsRequest({... */\n      0xffff\n      and\n      dup2\n      mstore\n      0x20\n      add\n        /* \"contracts/RockScissorPaper.sol\":3548:3564  callbackGasLimit */\n      0x06\n      0x00\n      swap1\n      sload\n      swap1\n      0x0100\n      exp\n      swap1\n      div\n      0xffffffff\n      and\n        /* \"contracts/RockScissorPaper.sol\":3342:3764  VRFV2PlusClient.RandomWordsRequest({... */\n      0xffffffff\n      and\n      dup2\n      mstore\n      0x20\n      add\n        /* \"contracts/RockScissorPaper.sol\":3592:3600  numWords */\n      0x06\n      dup1\n      sload\n      swap1\n      0x0100\n      exp\n      swap1\n      div\n      0xffffffff\n      and\n        /* \"contracts/RockScissorPaper.sol\":3342:3764  VRFV2PlusClient.RandomWordsRequest({... */\n      0xffffffff\n      and\n      dup2\n      mstore\n      0x20\n      add\n        /* \"contracts/RockScissorPaper.sol\":3629:3749  VRFV2PlusClient._argsToBytes(... */\n      tag_189\n        /* \"contracts/RockScissorPaper.sol\":3679:3730  VRFV2PlusClient.ExtraArgsV1({nativePayment: false}) */\n      mload(0x40)\n      dup1\n      0x20\n      add\n      0x40\n      mstore\n      dup1\n        /* \"contracts/RockScissorPaper.sol\":3723:3728  false */\n      0x00\n        /* \"contracts/RockScissorPaper.sol\":3679:3730  VRFV2PlusClient.ExtraArgsV1({nativePayment: false}) */\n      iszero\n      iszero\n      dup2\n      mstore\n      pop\n        /* \"contracts/RockScissorPaper.sol\":3629:3657  VRFV2PlusClient._argsToBytes */\n      tag_190\n        /* \"contracts/RockScissorPaper.sol\":3629:3749  VRFV2PlusClient._argsToBytes(... */\n      jump\t// in\n    tag_189:\n        /* \"contracts/RockScissorPaper.sol\":3342:3764  VRFV2PlusClient.RandomWordsRequest({... */\n      dup2\n      mstore\n      pop\n        /* \"contracts/RockScissorPaper.sol\":3293:3774  s_vrfCoordinator.requestRandomWords(... */\n      mload(0x40)\n      dup3\n      0xffffffff\n      and\n      0xe0\n      shl\n      dup2\n      mstore\n      0x04\n      add\n      tag_191\n      swap2\n      swap1\n      tag_192\n      jump\t// in\n    tag_191:\n      0x20\n      mload(0x40)\n      dup1\n      dup4\n      sub\n      dup2\n      0x00\n      dup8\n      gas\n      call\n      iszero\n      dup1\n      iszero\n      tag_194\n      jumpi\n      returndatacopy(0x00, 0x00, returndatasize)\n      revert(0x00, returndatasize)\n    tag_194:\n      pop\n      pop\n      pop\n      pop\n      mload(0x40)\n      returndatasize\n      not(0x1f)\n      0x1f\n      dup3\n      add\n      and\n      dup3\n      add\n      dup1\n      0x40\n      mstore\n      pop\n      dup2\n      add\n      swap1\n      tag_195\n      swap2\n      swap1\n      tag_196\n      jump\t// in\n    tag_195:\n        /* \"contracts/RockScissorPaper.sol\":3273:3774  uint256 requestId = s_vrfCoordinator.requestRandomWords(... */\n      swap1\n      pop\n        /* \"contracts/RockScissorPaper.sol\":3809:3933  PendingGame({... */\n      mload(0x40)\n      dup1\n      0x60\n      add\n      0x40\n      mstore\n      dup1\n        /* \"contracts/RockScissorPaper.sol\":3843:3853  msg.sender */\n      caller\n        /* \"contracts/RockScissorPaper.sol\":3809:3933  PendingGame({... */\n      0xffffffffffffffffffffffffffffffffffffffff\n      and\n      dup2\n      mstore\n      0x20\n      add\n        /* \"contracts/RockScissorPaper.sol\":3872:3881  msg.value */\n      callvalue\n        /* \"contracts/RockScissorPaper.sol\":3809:3933  PendingGame({... */\n      dup2\n      mstore\n      0x20\n      add\n        /* \"contracts/RockScissorPaper.sol\":3909:3922  _playerChoice */\n      dup4\n        /* \"contracts/RockScissorPaper.sol\":3809:3933  PendingGame({... */\n      0xff\n      and\n      dup2\n      mstore\n      pop\n        /* \"contracts/RockScissorPaper.sol\":3785:3795  s_requests */\n      0x07\n        /* \"contracts/RockScissorPaper.sol\":3785:3806  s_requests[requestId] */\n      0x00\n        /* \"contracts/RockScissorPaper.sol\":3796:3805  requestId */\n      dup4\n        /* \"contracts/RockScissorPaper.sol\":3785:3806  s_requests[requestId] */\n      dup2\n      mstore\n      0x20\n      add\n      swap1\n      dup2\n      mstore\n      0x20\n      add\n      0x00\n      keccak256\n        /* \"contracts/RockScissorPaper.sol\":3785:3933  s_requests[requestId] = PendingGame({... */\n      0x00\n      dup3\n      add\n      mload\n      dup2\n      0x00\n      add\n      exp(0x0100, 0x00)\n      dup2\n      sload\n      dup2\n      0xffffffffffffffffffffffffffffffffffffffff\n      mul\n      not\n      and\n      swap1\n      dup4\n      0xffffffffffffffffffffffffffffffffffffffff\n      and\n      mul\n      or\n      swap1\n      sstore\n      pop\n      0x20\n      dup3\n      add\n      mload\n      dup2\n      0x01\n      add\n      sstore\n      0x40\n      dup3\n      add\n      mload\n      dup2\n      0x02\n      add\n      exp(0x0100, 0x00)\n      dup2\n      sload\n      dup2\n      0xff\n      mul\n      not\n      and\n      swap1\n      dup4\n      0xff\n      and\n      mul\n      or\n      swap1\n      sstore\n      pop\n      swap1\n      pop\n      pop\n        /* \"contracts/RockScissorPaper.sol\":3130:3940  {... */\n      pop\n        /* \"contracts/RockScissorPaper.sol\":3085:3940  function _play(uint8 _playerChoice) internal {... */\n      pop\n      jump\t// out\n        /* \"@chainlink/contracts/src/v0.8/shared/access/ConfirmedOwnerWithProposal.sol\":1825:1987  function _validateOwnership() internal view {... */\n    tag_135:\n        /* \"@chainlink/contracts/src/v0.8/shared/access/ConfirmedOwnerWithProposal.sol\":1948:1955  s_owner */\n      0x00\n      0x00\n      swap1\n      sload\n      swap1\n      0x0100\n      exp\n      swap1\n      div\n      0xffffffffffffffffffffffffffffffffffffffff\n      and\n        /* \"@chainlink/contracts/src/v0.8/shared/access/ConfirmedOwnerWithProposal.sol\":1934:1955  msg.sender == s_owner */\n      0xffffffffffffffffffffffffffffffffffffffff\n      and\n        /* \"@chainlink/contracts/src/v0.8/shared/access/ConfirmedOwnerWithProposal.sol\":1934:1944  msg.sender */\n      caller\n        /* \"@chainlink/contracts/src/v0.8/shared/access/ConfirmedOwnerWithProposal.sol\":1934:1955  msg.sender == s_owner */\n      0xffffffffffffffffffffffffffffffffffffffff\n      and\n      eq\n        /* \"@chainlink/contracts/src/v0.8/shared/access/ConfirmedOwnerWithProposal.sol\":1926:1982  require(msg.sender == s_owner, \"Only callable by owner\") */\n      tag_198\n      jumpi\n      mload(0x40)\n      0x08c379a000000000000000000000000000000000000000000000000000000000\n      dup2\n      mstore\n      0x04\n      add\n      tag_199\n      swap1\n      tag_200\n      jump\t// in\n    tag_199:\n      mload(0x40)\n      dup1\n      swap2\n      sub\n      swap1\n      revert\n    tag_198:\n        /* \"@chainlink/contracts/src/v0.8/shared/access/ConfirmedOwnerWithProposal.sol\":1825:1987  function _validateOwnership() internal view {... */\n      jump\t// out\n        /* \"@chainlink/contracts/src/v0.8/shared/access/ConfirmedOwnerWithProposal.sol\":1544:1791  function _transferOwnership(... */\n    tag_157:\n        /* \"@chainlink/contracts/src/v0.8/shared/access/ConfirmedOwnerWithProposal.sol\":1671:1681  msg.sender */\n      caller\n        /* \"@chainlink/contracts/src/v0.8/shared/access/ConfirmedOwnerWithProposal.sol\":1665:1681  to != msg.sender */\n      0xffffffffffffffffffffffffffffffffffffffff\n      and\n        /* \"@chainlink/contracts/src/v0.8/shared/access/ConfirmedOwnerWithProposal.sol\":1665:1667  to */\n      dup2\n        /* \"@chainlink/contracts/src/v0.8/shared/access/ConfirmedOwnerWithProposal.sol\":1665:1681  to != msg.sender */\n      0xffffffffffffffffffffffffffffffffffffffff\n      and\n      sub\n        /* \"@chainlink/contracts/src/v0.8/shared/access/ConfirmedOwnerWithProposal.sol\":1657:1709  require(to != msg.sender, \"Cannot transfer to self\") */\n      tag_202\n      jumpi\n      mload(0x40)\n      0x08c379a000000000000000000000000000000000000000000000000000000000\n      dup2\n      mstore\n      0x04\n      add\n      tag_203\n      swap1\n      tag_204\n      jump\t// in\n    tag_203:\n      mload(0x40)\n      dup1\n      swap2\n      sub\n      swap1\n      revert\n    tag_202:\n        /* \"@chainlink/contracts/src/v0.8/shared/access/ConfirmedOwnerWithProposal.sol\":1733:1735  to */\n      dup1\n        /* \"@chainlink/contracts/src/v0.8/shared/access/ConfirmedOwnerWithProposal.sol\":1716:1730  s_pendingOwner */\n      0x01\n      0x00\n        /* \"@chainlink/contracts/src/v0.8/shared/access/ConfirmedOwnerWithProposal.sol\":1716:1735  s_pendingOwner = to */\n      0x0100\n      exp\n      dup2\n      sload\n      dup2\n      0xffffffffffffffffffffffffffffffffffffffff\n      mul\n      not\n      and\n      swap1\n      dup4\n      0xffffffffffffffffffffffffffffffffffffffff\n      and\n      mul\n      or\n      swap1\n      sstore\n      pop\n        /* \"@chainlink/contracts/src/v0.8/shared/access/ConfirmedOwnerWithProposal.sol\":1783:1785  to */\n      dup1\n        /* \"@chainlink/contracts/src/v0.8/shared/access/ConfirmedOwnerWithProposal.sol\":1747:1786  OwnershipTransferRequested(s_owner, to) */\n      0xffffffffffffffffffffffffffffffffffffffff\n      and\n        /* \"@chainlink/contracts/src/v0.8/shared/access/ConfirmedOwnerWithProposal.sol\":1774:1781  s_owner */\n      0x00\n      0x00\n      swap1\n      sload\n      swap1\n      0x0100\n      exp\n      swap1\n      div\n      0xffffffffffffffffffffffffffffffffffffffff\n      and\n        /* \"@chainlink/contracts/src/v0.8/shared/access/ConfirmedOwnerWithProposal.sol\":1747:1786  OwnershipTransferRequested(s_owner, to) */\n      0xffffffffffffffffffffffffffffffffffffffff\n      and\n      0xed8889f560326eb138920d842192f0eb3dd22b4f139c87a2c57538e05bae1278\n      mload(0x40)\n      mload(0x40)\n      dup1\n      swap2\n      sub\n      swap1\n      log3\n        /* \"@chainlink/contracts/src/v0.8/shared/access/ConfirmedOwnerWithProposal.sol\":1544:1791  function _transferOwnership(... */\n      pop\n      jump\t// out\n        /* \"@chainlink/contracts/src/v0.8/vrf/dev/libraries/VRFV2PlusClient.sol\":476:647  function _argsToBytes(... */\n    tag_190:\n        /* \"@chainlink/contracts/src/v0.8/vrf/dev/libraries/VRFV2PlusClient.sol\":559:575  bytes memory bts */\n      0x60\n        /* \"@chainlink/contracts/src/v0.8/vrf/dev/libraries/VRFV2PlusClient.sol\":211:239  keccak256(\"VRF ExtraArgsV1\") */\n      0x92fd13387c7fe7befbc38d303d6468778fb9731bc4583f17d92989c6fcfdeaaa\n        /* \"@chainlink/contracts/src/v0.8/vrf/dev/libraries/VRFV2PlusClient.sol\":632:641  extraArgs */\n      dup3\n        /* \"@chainlink/contracts/src/v0.8/vrf/dev/libraries/VRFV2PlusClient.sol\":590:642  abi.encodeWithSelector(EXTRA_ARGS_V1_TAG, extraArgs) */\n      add(0x24, mload(0x40))\n      tag_206\n      swap2\n      swap1\n      tag_207\n      jump\t// in\n    tag_206:\n      mload(0x40)\n      0x20\n      dup2\n      dup4\n      sub\n      sub\n      dup2\n      mstore\n      swap1\n      0x40\n      mstore\n      swap1\n      not(0xffffffffffffffffffffffffffffffffffffffffffffffffffffffff)\n      and\n      0x20\n      dup3\n      add\n      dup1\n      mload\n      0xffffffffffffffffffffffffffffffffffffffffffffffffffffffff\n      dup4\n      dup2\n      dup4\n      and\n      or\n      dup4\n      mstore\n      pop\n      pop\n      pop\n      pop\n        /* \"@chainlink/contracts/src/v0.8/vrf/dev/libraries/VRFV2PlusClient.sol\":583:642  return abi.encodeWithSelector(EXTRA_ARGS_V1_TAG, extraArgs) */\n      swap1\n      pop\n        /* \"@chainlink/contracts/src/v0.8/vrf/dev/libraries/VRFV2PlusClient.sol\":476:647  function _argsToBytes(... */\n      swap2\n      swap1\n      pop\n      jump\t// out\n        /* \"#utility.yul\":7:84   */\n    tag_208:\n        /* \"#utility.yul\":44:51   */\n      0x00\n        /* \"#utility.yul\":73:78   */\n      dup2\n        /* \"#utility.yul\":62:78   */\n      swap1\n      pop\n        /* \"#utility.yul\":7:84   */\n      swap2\n      swap1\n      pop\n      jump\t// out\n        /* \"#utility.yul\":90:208   */\n    tag_209:\n        /* \"#utility.yul\":177:201   */\n      tag_285\n        /* \"#utility.yul\":195:200   */\n      dup2\n        /* \"#utility.yul\":177:201   */\n      tag_208\n      jump\t// in\n    tag_285:\n        /* \"#utility.yul\":172:175   */\n      dup3\n        /* \"#utility.yul\":165:202   */\n      mstore\n        /* \"#utility.yul\":90:208   */\n      pop\n      pop\n      jump\t// out\n        /* \"#utility.yul\":214:436   */\n    tag_30:\n        /* \"#utility.yul\":307:311   */\n      0x00\n        /* \"#utility.yul\":345:347   */\n      0x20\n        /* \"#utility.yul\":334:343   */\n      dup3\n        /* \"#utility.yul\":330:348   */\n      add\n        /* \"#utility.yul\":322:348   */\n      swap1\n      pop\n        /* \"#utility.yul\":358:429   */\n      tag_287\n        /* \"#utility.yul\":426:427   */\n      0x00\n        /* \"#utility.yul\":415:424   */\n      dup4\n        /* \"#utility.yul\":411:428   */\n      add\n        /* \"#utility.yul\":402:408   */\n      dup5\n        /* \"#utility.yul\":358:429   */\n      tag_209\n      jump\t// in\n    tag_287:\n        /* \"#utility.yul\":214:436   */\n      swap3\n      swap2\n      pop\n      pop\n      jump\t// out\n        /* \"#utility.yul\":523:640   */\n    tag_211:\n        /* \"#utility.yul\":632:633   */\n      0x00\n        /* \"#utility.yul\":629:630   */\n      0x00\n        /* \"#utility.yul\":622:634   */\n      revert\n        /* \"#utility.yul\":646:763   */\n    tag_212:\n        /* \"#utility.yul\":755:756   */\n      0x00\n        /* \"#utility.yul\":752:753   */\n      0x00\n        /* \"#utility.yul\":745:757   */\n      revert\n        /* \"#utility.yul\":769:891   */\n    tag_213:\n        /* \"#utility.yul\":842:866   */\n      tag_292\n        /* \"#utility.yul\":860:865   */\n      dup2\n        /* \"#utility.yul\":842:866   */\n      tag_208\n      jump\t// in\n    tag_292:\n        /* \"#utility.yul\":835:840   */\n      dup2\n        /* \"#utility.yul\":832:867   */\n      eq\n        /* \"#utility.yul\":822:885   */\n      tag_293\n      jumpi\n        /* \"#utility.yul\":881:882   */\n      0x00\n        /* \"#utility.yul\":878:879   */\n      0x00\n        /* \"#utility.yul\":871:883   */\n      revert\n        /* \"#utility.yul\":822:885   */\n    tag_293:\n        /* \"#utility.yul\":769:891   */\n      pop\n      jump\t// out\n        /* \"#utility.yul\":897:1036   */\n    tag_214:\n        /* \"#utility.yul\":943:948   */\n      0x00\n        /* \"#utility.yul\":981:987   */\n      dup2\n        /* \"#utility.yul\":968:988   */\n      calldataload\n        /* \"#utility.yul\":959:988   */\n      swap1\n      pop\n        /* \"#utility.yul\":997:1030   */\n      tag_295\n        /* \"#utility.yul\":1024:1029   */\n      dup2\n        /* \"#utility.yul\":997:1030   */\n      tag_213\n      jump\t// in\n    tag_295:\n        /* \"#utility.yul\":897:1036   */\n      swap3\n      swap2\n      pop\n      pop\n      jump\t// out\n        /* \"#utility.yul\":1042:1159   */\n    tag_215:\n        /* \"#utility.yul\":1151:1152   */\n      0x00\n        /* \"#utility.yul\":1148:1149   */\n      0x00\n        /* \"#utility.yul\":1141:1153   */\n      revert\n        /* \"#utility.yul\":1165:1282   */\n    tag_216:\n        /* \"#utility.yul\":1274:1275   */\n      0x00\n        /* \"#utility.yul\":1271:1272   */\n      0x00\n        /* \"#utility.yul\":1264:1276   */\n      revert\n        /* \"#utility.yul\":1288:1405   */\n    tag_217:\n        /* \"#utility.yul\":1397:1398   */\n      0x00\n        /* \"#utility.yul\":1394:1395   */\n      0x00\n        /* \"#utility.yul\":1387:1399   */\n      revert\n        /* \"#utility.yul\":1428:1996   */\n    tag_218:\n        /* \"#utility.yul\":1501:1509   */\n      0x00\n        /* \"#utility.yul\":1511:1517   */\n      0x00\n        /* \"#utility.yul\":1561:1564   */\n      dup4\n        /* \"#utility.yul\":1554:1558   */\n      0x1f\n        /* \"#utility.yul\":1546:1552   */\n      dup5\n        /* \"#utility.yul\":1542:1559   */\n      add\n        /* \"#utility.yul\":1538:1565   */\n      slt\n        /* \"#utility.yul\":1528:1650   */\n      tag_300\n      jumpi\n        /* \"#utility.yul\":1569:1648   */\n      tag_301\n      tag_215\n      jump\t// in\n    tag_301:\n        /* \"#utility.yul\":1528:1650   */\n    tag_300:\n        /* \"#utility.yul\":1682:1688   */\n      dup3\n        /* \"#utility.yul\":1669:1689   */\n      calldataload\n        /* \"#utility.yul\":1659:1689   */\n      swap1\n      pop\n        /* \"#utility.yul\":1712:1730   */\n      0xffffffffffffffff\n        /* \"#utility.yul\":1704:1710   */\n      dup2\n        /* \"#utility.yul\":1701:1731   */\n      gt\n        /* \"#utility.yul\":1698:1815   */\n      iszero\n      tag_302\n      jumpi\n        /* \"#utility.yul\":1734:1813   */\n      tag_303\n      tag_216\n      jump\t// in\n    tag_303:\n        /* \"#utility.yul\":1698:1815   */\n    tag_302:\n        /* \"#utility.yul\":1848:1852   */\n      0x20\n        /* \"#utility.yul\":1840:1846   */\n      dup4\n        /* \"#utility.yul\":1836:1853   */\n      add\n        /* \"#utility.yul\":1824:1853   */\n      swap2\n      pop\n        /* \"#utility.yul\":1902:1905   */\n      dup4\n        /* \"#utility.yul\":1894:1898   */\n      0x20\n        /* \"#utility.yul\":1886:1892   */\n      dup3\n        /* \"#utility.yul\":1882:1899   */\n      mul\n        /* \"#utility.yul\":1872:1880   */\n      dup4\n        /* \"#utility.yul\":1868:1900   */\n      add\n        /* \"#utility.yul\":1865:1906   */\n      gt\n        /* \"#utility.yul\":1862:1990   */\n      iszero\n      tag_304\n      jumpi\n        /* \"#utility.yul\":1909:1988   */\n      tag_305\n      tag_217\n      jump\t// in\n    tag_305:\n        /* \"#utility.yul\":1862:1990   */\n    tag_304:\n        /* \"#utility.yul\":1428:1996   */\n      swap3\n      pop\n      swap3\n      swap1\n      pop\n      jump\t// out\n        /* \"#utility.yul\":2002:2706   */\n    tag_34:\n        /* \"#utility.yul\":2097:2103   */\n      0x00\n        /* \"#utility.yul\":2105:2111   */\n      0x00\n        /* \"#utility.yul\":2113:2119   */\n      0x00\n        /* \"#utility.yul\":2162:2164   */\n      0x40\n        /* \"#utility.yul\":2150:2159   */\n      dup5\n        /* \"#utility.yul\":2141:2148   */\n      dup7\n        /* \"#utility.yul\":2137:2160   */\n      sub\n        /* \"#utility.yul\":2133:2165   */\n      slt\n        /* \"#utility.yul\":2130:2249   */\n      iszero\n      tag_307\n      jumpi\n        /* \"#utility.yul\":2168:2247   */\n      tag_308\n      tag_211\n      jump\t// in\n    tag_308:\n        /* \"#utility.yul\":2130:2249   */\n    tag_307:\n        /* \"#utility.yul\":2288:2289   */\n      0x00\n        /* \"#utility.yul\":2313:2366   */\n      tag_309\n        /* \"#utility.yul\":2358:2365   */\n      dup7\n        /* \"#utility.yul\":2349:2355   */\n      dup3\n        /* \"#utility.yul\":2338:2347   */\n      dup8\n        /* \"#utility.yul\":2334:2356   */\n      add\n        /* \"#utility.yul\":2313:2366   */\n      tag_214\n      jump\t// in\n    tag_309:\n        /* \"#utility.yul\":2303:2366   */\n      swap4\n      pop\n        /* \"#utility.yul\":2259:2376   */\n      pop\n        /* \"#utility.yul\":2443:2445   */\n      0x20\n        /* \"#utility.yul\":2432:2441   */\n      dup5\n        /* \"#utility.yul\":2428:2446   */\n      add\n        /* \"#utility.yul\":2415:2447   */\n      calldataload\n        /* \"#utility.yul\":2474:2492   */\n      0xffffffffffffffff\n        /* \"#utility.yul\":2466:2472   */\n      dup2\n        /* \"#utility.yul\":2463:2493   */\n      gt\n        /* \"#utility.yul\":2460:2577   */\n      iszero\n      tag_310\n      jumpi\n        /* \"#utility.yul\":2496:2575   */\n      tag_311\n      tag_212\n      jump\t// in\n    tag_311:\n        /* \"#utility.yul\":2460:2577   */\n    tag_310:\n        /* \"#utility.yul\":2609:2689   */\n      tag_312\n        /* \"#utility.yul\":2681:2688   */\n      dup7\n        /* \"#utility.yul\":2672:2678   */\n      dup3\n        /* \"#utility.yul\":2661:2670   */\n      dup8\n        /* \"#utility.yul\":2657:2679   */\n      add\n        /* \"#utility.yul\":2609:2689   */\n      tag_218\n      jump\t// in\n    tag_312:\n        /* \"#utility.yul\":2591:2689   */\n      swap3\n      pop\n      swap3\n      pop\n        /* \"#utility.yul\":2386:2699   */\n      pop\n        /* \"#utility.yul\":2002:2706   */\n      swap3\n      pop\n      swap3\n      pop\n      swap3\n      jump\t// out\n        /* \"#utility.yul\":2712:2805   */\n    tag_219:\n        /* \"#utility.yul\":2748:2755   */\n      0x00\n        /* \"#utility.yul\":2788:2798   */\n      0xffffffff\n        /* \"#utility.yul\":2781:2786   */\n      dup3\n        /* \"#utility.yul\":2777:2799   */\n      and\n        /* \"#utility.yul\":2766:2799   */\n      swap1\n      pop\n        /* \"#utility.yul\":2712:2805   */\n      swap2\n      swap1\n      pop\n      jump\t// out\n        /* \"#utility.yul\":2811:2926   */\n    tag_220:\n        /* \"#utility.yul\":2896:2919   */\n      tag_315\n        /* \"#utility.yul\":2913:2918   */\n      dup2\n        /* \"#utility.yul\":2896:2919   */\n      tag_219\n      jump\t// in\n    tag_315:\n        /* \"#utility.yul\":2891:2894   */\n      dup3\n        /* \"#utility.yul\":2884:2920   */\n      mstore\n        /* \"#utility.yul\":2811:2926   */\n      pop\n      pop\n      jump\t// out\n        /* \"#utility.yul\":2932:3150   */\n    tag_40:\n        /* \"#utility.yul\":3023:3027   */\n      0x00\n        /* \"#utility.yul\":3061:3063   */\n      0x20\n        /* \"#utility.yul\":3050:3059   */\n      dup3\n        /* \"#utility.yul\":3046:3064   */\n      add\n        /* \"#utility.yul\":3038:3064   */\n      swap1\n      pop\n        /* \"#utility.yul\":3074:3143   */\n      tag_317\n        /* \"#utility.yul\":3140:3141   */\n      0x00\n        /* \"#utility.yul\":3129:3138   */\n      dup4\n        /* \"#utility.yul\":3125:3142   */\n      add\n        /* \"#utility.yul\":3116:3122   */\n      dup5\n        /* \"#utility.yul\":3074:3143   */\n      tag_220\n      jump\t// in\n    tag_317:\n        /* \"#utility.yul\":2932:3150   */\n      swap3\n      swap2\n      pop\n      pop\n      jump\t// out\n        /* \"#utility.yul\":3156:3255   */\n    tag_221:\n        /* \"#utility.yul\":3208:3214   */\n      0x00\n        /* \"#utility.yul\":3242:3247   */\n      dup2\n        /* \"#utility.yul\":3236:3248   */\n      mload\n        /* \"#utility.yul\":3226:3248   */\n      swap1\n      pop\n        /* \"#utility.yul\":3156:3255   */\n      swap2\n      swap1\n      pop\n      jump\t// out\n        /* \"#utility.yul\":3261:3430   */\n    tag_222:\n        /* \"#utility.yul\":3345:3356   */\n      0x00\n        /* \"#utility.yul\":3379:3385   */\n      dup3\n        /* \"#utility.yul\":3374:3377   */\n      dup3\n        /* \"#utility.yul\":3367:3386   */\n      mstore\n        /* \"#utility.yul\":3419:3423   */\n      0x20\n        /* \"#utility.yul\":3414:3417   */\n      dup3\n        /* \"#utility.yul\":3410:3424   */\n      add\n        /* \"#utility.yul\":3395:3424   */\n      swap1\n      pop\n        /* \"#utility.yul\":3261:3430   */\n      swap3\n      swap2\n      pop\n      pop\n      jump\t// out\n        /* \"#utility.yul\":3436:3575   */\n    tag_223:\n        /* \"#utility.yul\":3525:3531   */\n      dup3\n        /* \"#utility.yul\":3520:3523   */\n      dup2\n        /* \"#utility.yul\":3515:3518   */\n      dup4\n        /* \"#utility.yul\":3509:3532   */\n      mcopy\n        /* \"#utility.yul\":3566:3567   */\n      0x00\n        /* \"#utility.yul\":3557:3563   */\n      dup4\n        /* \"#utility.yul\":3552:3555   */\n      dup4\n        /* \"#utility.yul\":3548:3564   */\n      add\n        /* \"#utility.yul\":3541:3568   */\n      mstore\n        /* \"#utility.yul\":3436:3575   */\n      pop\n      pop\n      pop\n      jump\t// out\n        /* \"#utility.yul\":3581:3683   */\n    tag_224:\n        /* \"#utility.yul\":3622:3628   */\n      0x00\n        /* \"#utility.yul\":3673:3675   */\n      0x1f\n        /* \"#utility.yul\":3669:3676   */\n      not\n        /* \"#utility.yul\":3664:3666   */\n      0x1f\n        /* \"#utility.yul\":3657:3662   */\n      dup4\n        /* \"#utility.yul\":3653:3667   */\n      add\n        /* \"#utility.yul\":3649:3677   */\n      and\n        /* \"#utility.yul\":3639:3677   */\n      swap1\n      pop\n        /* \"#utility.yul\":3581:3683   */\n      swap2\n      swap1\n      pop\n      jump\t// out\n        /* \"#utility.yul\":3689:4066   */\n    tag_225:\n        /* \"#utility.yul\":3777:3780   */\n      0x00\n        /* \"#utility.yul\":3805:3844   */\n      tag_323\n        /* \"#utility.yul\":3838:3843   */\n      dup3\n        /* \"#utility.yul\":3805:3844   */\n      tag_221\n      jump\t// in\n    tag_323:\n        /* \"#utility.yul\":3860:3931   */\n      tag_324\n        /* \"#utility.yul\":3924:3930   */\n      dup2\n        /* \"#utility.yul\":3919:3922   */\n      dup6\n        /* \"#utility.yul\":3860:3931   */\n      tag_222\n      jump\t// in\n    tag_324:\n        /* \"#utility.yul\":3853:3931   */\n      swap4\n      pop\n        /* \"#utility.yul\":3940:4005   */\n      tag_325\n        /* \"#utility.yul\":3998:4004   */\n      dup2\n        /* \"#utility.yul\":3993:3996   */\n      dup6\n        /* \"#utility.yul\":3986:3990   */\n      0x20\n        /* \"#utility.yul\":3979:3984   */\n      dup7\n        /* \"#utility.yul\":3975:3991   */\n      add\n        /* \"#utility.yul\":3940:4005   */\n      tag_223\n      jump\t// in\n    tag_325:\n        /* \"#utility.yul\":4030:4059   */\n      tag_326\n        /* \"#utility.yul\":4052:4058   */\n      dup2\n        /* \"#utility.yul\":4030:4059   */\n      tag_224\n      jump\t// in\n    tag_326:\n        /* \"#utility.yul\":4025:4028   */\n      dup5\n        /* \"#utility.yul\":4021:4060   */\n      add\n        /* \"#utility.yul\":4014:4060   */\n      swap2\n      pop\n        /* \"#utility.yul\":3781:4066   */\n      pop\n        /* \"#utility.yul\":3689:4066   */\n      swap3\n      swap2\n      pop\n      pop\n      jump\t// out\n        /* \"#utility.yul\":4072:4385   */\n    tag_47:\n        /* \"#utility.yul\":4185:4189   */\n      0x00\n        /* \"#utility.yul\":4223:4225   */\n      0x20\n        /* \"#utility.yul\":4212:4221   */\n      dup3\n        /* \"#utility.yul\":4208:4226   */\n      add\n        /* \"#utility.yul\":4200:4226   */\n      swap1\n      pop\n        /* \"#utility.yul\":4272:4281   */\n      dup2\n        /* \"#utility.yul\":4266:4270   */\n      dup2\n        /* \"#utility.yul\":4262:4282   */\n      sub\n        /* \"#utility.yul\":4258:4259   */\n      0x00\n        /* \"#utility.yul\":4247:4256   */\n      dup4\n        /* \"#utility.yul\":4243:4260   */\n      add\n        /* \"#utility.yul\":4236:4283   */\n      mstore\n        /* \"#utility.yul\":4300:4378   */\n      tag_328\n        /* \"#utility.yul\":4373:4377   */\n      dup2\n        /* \"#utility.yul\":4364:4370   */\n      dup5\n        /* \"#utility.yul\":4300:4378   */\n      tag_225\n      jump\t// in\n    tag_328:\n        /* \"#utility.yul\":4292:4378   */\n      swap1\n      pop\n        /* \"#utility.yul\":4072:4385   */\n      swap3\n      swap2\n      pop\n      pop\n      jump\t// out\n        /* \"#utility.yul\":4391:4468   */\n    tag_226:\n        /* \"#utility.yul\":4428:4435   */\n      0x00\n        /* \"#utility.yul\":4457:4462   */\n      dup2\n        /* \"#utility.yul\":4446:4462   */\n      swap1\n      pop\n        /* \"#utility.yul\":4391:4468   */\n      swap2\n      swap1\n      pop\n      jump\t// out\n        /* \"#utility.yul\":4474:4592   */\n    tag_227:\n        /* \"#utility.yul\":4561:4585   */\n      tag_331\n        /* \"#utility.yul\":4579:4584   */\n      dup2\n        /* \"#utility.yul\":4561:4585   */\n      tag_226\n      jump\t// in\n    tag_331:\n        /* \"#utility.yul\":4556:4559   */\n      dup3\n        /* \"#utility.yul\":4549:4586   */\n      mstore\n        /* \"#utility.yul\":4474:4592   */\n      pop\n      pop\n      jump\t// out\n        /* \"#utility.yul\":4598:4820   */\n    tag_52:\n        /* \"#utility.yul\":4691:4695   */\n      0x00\n        /* \"#utility.yul\":4729:4731   */\n      0x20\n        /* \"#utility.yul\":4718:4727   */\n      dup3\n        /* \"#utility.yul\":4714:4732   */\n      add\n        /* \"#utility.yul\":4706:4732   */\n      swap1\n      pop\n        /* \"#utility.yul\":4742:4813   */\n      tag_333\n        /* \"#utility.yul\":4810:4811   */\n      0x00\n        /* \"#utility.yul\":4799:4808   */\n      dup4\n        /* \"#utility.yul\":4795:4812   */\n      add\n        /* \"#utility.yul\":4786:4792   */\n      dup5\n        /* \"#utility.yul\":4742:4813   */\n      tag_227\n      jump\t// in\n    tag_333:\n        /* \"#utility.yul\":4598:4820   */\n      swap3\n      swap2\n      pop\n      pop\n      jump\t// out\n        /* \"#utility.yul\":4826:4952   */\n    tag_228:\n        /* \"#utility.yul\":4863:4870   */\n      0x00\n        /* \"#utility.yul\":4903:4945   */\n      0xffffffffffffffffffffffffffffffffffffffff\n        /* \"#utility.yul\":4896:4901   */\n      dup3\n        /* \"#utility.yul\":4892:4946   */\n      and\n        /* \"#utility.yul\":4881:4946   */\n      swap1\n      pop\n        /* \"#utility.yul\":4826:4952   */\n      swap2\n      swap1\n      pop\n      jump\t// out\n        /* \"#utility.yul\":4958:5054   */\n    tag_229:\n        /* \"#utility.yul\":4995:5002   */\n      0x00\n        /* \"#utility.yul\":5024:5048   */\n      tag_336\n        /* \"#utility.yul\":5042:5047   */\n      dup3\n        /* \"#utility.yul\":5024:5048   */\n      tag_228\n      jump\t// in\n    tag_336:\n        /* \"#utility.yul\":5013:5048   */\n      swap1\n      pop\n        /* \"#utility.yul\":4958:5054   */\n      swap2\n      swap1\n      pop\n      jump\t// out\n        /* \"#utility.yul\":5060:5178   */\n    tag_230:\n        /* \"#utility.yul\":5147:5171   */\n      tag_338\n        /* \"#utility.yul\":5165:5170   */\n      dup2\n        /* \"#utility.yul\":5147:5171   */\n      tag_229\n      jump\t// in\n    tag_338:\n        /* \"#utility.yul\":5142:5145   */\n      dup3\n        /* \"#utility.yul\":5135:5172   */\n      mstore\n        /* \"#utility.yul\":5060:5178   */\n      pop\n      pop\n      jump\t// out\n        /* \"#utility.yul\":5184:5270   */\n    tag_231:\n        /* \"#utility.yul\":5219:5226   */\n      0x00\n        /* \"#utility.yul\":5259:5263   */\n      0xff\n        /* \"#utility.yul\":5252:5257   */\n      dup3\n        /* \"#utility.yul\":5248:5264   */\n      and\n        /* \"#utility.yul\":5237:5264   */\n      swap1\n      pop\n        /* \"#utility.yul\":5184:5270   */\n      swap2\n      swap1\n      pop\n      jump\t// out\n        /* \"#utility.yul\":5276:5388   */\n    tag_232:\n        /* \"#utility.yul\":5359:5381   */\n      tag_341\n        /* \"#utility.yul\":5375:5380   */\n      dup2\n        /* \"#utility.yul\":5359:5381   */\n      tag_231\n      jump\t// in\n    tag_341:\n        /* \"#utility.yul\":5354:5357   */\n      dup3\n        /* \"#utility.yul\":5347:5382   */\n      mstore\n        /* \"#utility.yul\":5276:5388   */\n      pop\n      pop\n      jump\t// out\n        /* \"#utility.yul\":5394:6133   */\n    tag_70:\n        /* \"#utility.yul\":5611:5615   */\n      0x00\n        /* \"#utility.yul\":5649:5652   */\n      0xa0\n        /* \"#utility.yul\":5638:5647   */\n      dup3\n        /* \"#utility.yul\":5634:5653   */\n      add\n        /* \"#utility.yul\":5626:5653   */\n      swap1\n      pop\n        /* \"#utility.yul\":5663:5734   */\n      tag_343\n        /* \"#utility.yul\":5731:5732   */\n      0x00\n        /* \"#utility.yul\":5720:5729   */\n      dup4\n        /* \"#utility.yul\":5716:5733   */\n      add\n        /* \"#utility.yul\":5707:5713   */\n      dup9\n        /* \"#utility.yul\":5663:5734   */\n      tag_230\n      jump\t// in\n    tag_343:\n        /* \"#utility.yul\":5744:5812   */\n      tag_344\n        /* \"#utility.yul\":5808:5810   */\n      0x20\n        /* \"#utility.yul\":5797:5806   */\n      dup4\n        /* \"#utility.yul\":5793:5811   */\n      add\n        /* \"#utility.yul\":5784:5790   */\n      dup8\n        /* \"#utility.yul\":5744:5812   */\n      tag_232\n      jump\t// in\n    tag_344:\n        /* \"#utility.yul\":5822:5890   */\n      tag_345\n        /* \"#utility.yul\":5886:5888   */\n      0x40\n        /* \"#utility.yul\":5875:5884   */\n      dup4\n        /* \"#utility.yul\":5871:5889   */\n      add\n        /* \"#utility.yul\":5862:5868   */\n      dup7\n        /* \"#utility.yul\":5822:5890   */\n      tag_232\n      jump\t// in\n    tag_345:\n        /* \"#utility.yul\":5937:5946   */\n      dup2\n        /* \"#utility.yul\":5931:5935   */\n      dup2\n        /* \"#utility.yul\":5927:5947   */\n      sub\n        /* \"#utility.yul\":5922:5924   */\n      0x60\n        /* \"#utility.yul\":5911:5920   */\n      dup4\n        /* \"#utility.yul\":5907:5925   */\n      add\n        /* \"#utility.yul\":5900:5948   */\n      mstore\n        /* \"#utility.yul\":5965:6043   */\n      tag_346\n        /* \"#utility.yul\":6038:6042   */\n      dup2\n        /* \"#utility.yul\":6029:6035   */\n      dup6\n        /* \"#utility.yul\":5965:6043   */\n      tag_225\n      jump\t// in\n    tag_346:\n        /* \"#utility.yul\":5957:6043   */\n      swap1\n      pop\n        /* \"#utility.yul\":6053:6126   */\n      tag_347\n        /* \"#utility.yul\":6121:6124   */\n      0x80\n        /* \"#utility.yul\":6110:6119   */\n      dup4\n        /* \"#utility.yul\":6106:6125   */\n      add\n        /* \"#utility.yul\":6097:6103   */\n      dup5\n        /* \"#utility.yul\":6053:6126   */\n      tag_209\n      jump\t// in\n    tag_347:\n        /* \"#utility.yul\":5394:6133   */\n      swap7\n      swap6\n      pop\n      pop\n      pop\n      pop\n      pop\n      pop\n      jump\t// out\n        /* \"#utility.yul\":6139:6361   */\n    tag_82:\n        /* \"#utility.yul\":6232:6236   */\n      0x00\n        /* \"#utility.yul\":6270:6272   */\n      0x20\n        /* \"#utility.yul\":6259:6268   */\n      dup3\n        /* \"#utility.yul\":6255:6273   */\n      add\n        /* \"#utility.yul\":6247:6273   */\n      swap1\n      pop\n        /* \"#utility.yul\":6283:6354   */\n      tag_349\n        /* \"#utility.yul\":6351:6352   */\n      0x00\n        /* \"#utility.yul\":6340:6349   */\n      dup4\n        /* \"#utility.yul\":6336:6353   */\n      add\n        /* \"#utility.yul\":6327:6333   */\n      dup5\n        /* \"#utility.yul\":6283:6354   */\n      tag_230\n      jump\t// in\n    tag_349:\n        /* \"#utility.yul\":6139:6361   */\n      swap3\n      swap2\n      pop\n      pop\n      jump\t// out\n        /* \"#utility.yul\":6367:6489   */\n    tag_233:\n        /* \"#utility.yul\":6440:6464   */\n      tag_351\n        /* \"#utility.yul\":6458:6463   */\n      dup2\n        /* \"#utility.yul\":6440:6464   */\n      tag_229\n      jump\t// in\n    tag_351:\n        /* \"#utility.yul\":6433:6438   */\n      dup2\n        /* \"#utility.yul\":6430:6465   */\n      eq\n        /* \"#utility.yul\":6420:6483   */\n      tag_352\n      jumpi\n        /* \"#utility.yul\":6479:6480   */\n      0x00\n        /* \"#utility.yul\":6476:6477   */\n      0x00\n        /* \"#utility.yul\":6469:6481   */\n      revert\n        /* \"#utility.yul\":6420:6483   */\n    tag_352:\n        /* \"#utility.yul\":6367:6489   */\n      pop\n      jump\t// out\n        /* \"#utility.yul\":6495:6634   */\n    tag_234:\n        /* \"#utility.yul\":6541:6546   */\n      0x00\n        /* \"#utility.yul\":6579:6585   */\n      dup2\n        /* \"#utility.yul\":6566:6586   */\n      calldataload\n        /* \"#utility.yul\":6557:6586   */\n      swap1\n      pop\n        /* \"#utility.yul\":6595:6628   */\n      tag_354\n        /* \"#utility.yul\":6622:6627   */\n      dup2\n        /* \"#utility.yul\":6595:6628   */\n      tag_233\n      jump\t// in\n    tag_354:\n        /* \"#utility.yul\":6495:6634   */\n      swap3\n      swap2\n      pop\n      pop\n      jump\t// out\n        /* \"#utility.yul\":6640:6969   */\n    tag_86:\n        /* \"#utility.yul\":6699:6705   */\n      0x00\n        /* \"#utility.yul\":6748:6750   */\n      0x20\n        /* \"#utility.yul\":6736:6745   */\n      dup3\n        /* \"#utility.yul\":6727:6734   */\n      dup5\n        /* \"#utility.yul\":6723:6746   */\n      sub\n        /* \"#utility.yul\":6719:6751   */\n      slt\n        /* \"#utility.yul\":6716:6835   */\n      iszero\n      tag_356\n      jumpi\n        /* \"#utility.yul\":6754:6833   */\n      tag_357\n      tag_211\n      jump\t// in\n    tag_357:\n        /* \"#utility.yul\":6716:6835   */\n    tag_356:\n        /* \"#utility.yul\":6874:6875   */\n      0x00\n        /* \"#utility.yul\":6899:6952   */\n      tag_358\n        /* \"#utility.yul\":6944:6951   */\n      dup5\n        /* \"#utility.yul\":6935:6941   */\n      dup3\n        /* \"#utility.yul\":6924:6933   */\n      dup6\n        /* \"#utility.yul\":6920:6942   */\n      add\n        /* \"#utility.yul\":6899:6952   */\n      tag_234\n      jump\t// in\n    tag_358:\n        /* \"#utility.yul\":6889:6952   */\n      swap2\n      pop\n        /* \"#utility.yul\":6845:6962   */\n      pop\n        /* \"#utility.yul\":6640:6969   */\n      swap3\n      swap2\n      pop\n      pop\n      jump\t// out\n        /* \"#utility.yul\":6975:7035   */\n    tag_235:\n        /* \"#utility.yul\":7003:7006   */\n      0x00\n        /* \"#utility.yul\":7024:7029   */\n      dup2\n        /* \"#utility.yul\":7017:7029   */\n      swap1\n      pop\n        /* \"#utility.yul\":6975:7035   */\n      swap2\n      swap1\n      pop\n      jump\t// out\n        /* \"#utility.yul\":7041:7183   */\n    tag_236:\n        /* \"#utility.yul\":7091:7100   */\n      0x00\n        /* \"#utility.yul\":7124:7177   */\n      tag_361\n        /* \"#utility.yul\":7142:7176   */\n      tag_362\n        /* \"#utility.yul\":7151:7175   */\n      tag_363\n        /* \"#utility.yul\":7169:7174   */\n      dup5\n        /* \"#utility.yul\":7151:7175   */\n      tag_228\n      jump\t// in\n    tag_363:\n        /* \"#utility.yul\":7142:7176   */\n      tag_235\n      jump\t// in\n    tag_362:\n        /* \"#utility.yul\":7124:7177   */\n      tag_228\n      jump\t// in\n    tag_361:\n        /* \"#utility.yul\":7111:7177   */\n      swap1\n      pop\n        /* \"#utility.yul\":7041:7183   */\n      swap2\n      swap1\n      pop\n      jump\t// out\n        /* \"#utility.yul\":7189:7315   */\n    tag_237:\n        /* \"#utility.yul\":7239:7248   */\n      0x00\n        /* \"#utility.yul\":7272:7309   */\n      tag_365\n        /* \"#utility.yul\":7303:7308   */\n      dup3\n        /* \"#utility.yul\":7272:7309   */\n      tag_236\n      jump\t// in\n    tag_365:\n        /* \"#utility.yul\":7259:7309   */\n      swap1\n      pop\n        /* \"#utility.yul\":7189:7315   */\n      swap2\n      swap1\n      pop\n      jump\t// out\n        /* \"#utility.yul\":7321:7476   */\n    tag_238:\n        /* \"#utility.yul\":7400:7409   */\n      0x00\n        /* \"#utility.yul\":7433:7470   */\n      tag_367\n        /* \"#utility.yul\":7464:7469   */\n      dup3\n        /* \"#utility.yul\":7433:7470   */\n      tag_237\n      jump\t// in\n    tag_367:\n        /* \"#utility.yul\":7420:7470   */\n      swap1\n      pop\n        /* \"#utility.yul\":7321:7476   */\n      swap2\n      swap1\n      pop\n      jump\t// out\n        /* \"#utility.yul\":7482:7671   */\n    tag_239:\n        /* \"#utility.yul\":7598:7664   */\n      tag_369\n        /* \"#utility.yul\":7658:7663   */\n      dup2\n        /* \"#utility.yul\":7598:7664   */\n      tag_238\n      jump\t// in\n    tag_369:\n        /* \"#utility.yul\":7593:7596   */\n      dup3\n        /* \"#utility.yul\":7586:7665   */\n      mstore\n        /* \"#utility.yul\":7482:7671   */\n      pop\n      pop\n      jump\t// out\n        /* \"#utility.yul\":7677:7957   */\n    tag_92:\n        /* \"#utility.yul\":7799:7803   */\n      0x00\n        /* \"#utility.yul\":7837:7839   */\n      0x20\n        /* \"#utility.yul\":7826:7835   */\n      dup3\n        /* \"#utility.yul\":7822:7840   */\n      add\n        /* \"#utility.yul\":7814:7840   */\n      swap1\n      pop\n        /* \"#utility.yul\":7850:7950   */\n      tag_371\n        /* \"#utility.yul\":7947:7948   */\n      0x00\n        /* \"#utility.yul\":7936:7945   */\n      dup4\n        /* \"#utility.yul\":7932:7949   */\n      add\n        /* \"#utility.yul\":7923:7929   */\n      dup5\n        /* \"#utility.yul\":7850:7950   */\n      tag_239\n      jump\t// in\n    tag_371:\n        /* \"#utility.yul\":7677:7957   */\n      swap3\n      swap2\n      pop\n      pop\n      jump\t// out\n        /* \"#utility.yul\":7963:8052   */\n    tag_240:\n        /* \"#utility.yul\":7999:8006   */\n      0x00\n        /* \"#utility.yul\":8039:8045   */\n      0xffff\n        /* \"#utility.yul\":8032:8037   */\n      dup3\n        /* \"#utility.yul\":8028:8046   */\n      and\n        /* \"#utility.yul\":8017:8046   */\n      swap1\n      pop\n        /* \"#utility.yul\":7963:8052   */\n      swap2\n      swap1\n      pop\n      jump\t// out\n        /* \"#utility.yul\":8058:8173   */\n    tag_241:\n        /* \"#utility.yul\":8143:8166   */\n      tag_374\n        /* \"#utility.yul\":8160:8165   */\n      dup2\n        /* \"#utility.yul\":8143:8166   */\n      tag_240\n      jump\t// in\n    tag_374:\n        /* \"#utility.yul\":8138:8141   */\n      dup3\n        /* \"#utility.yul\":8131:8167   */\n      mstore\n        /* \"#utility.yul\":8058:8173   */\n      pop\n      pop\n      jump\t// out\n        /* \"#utility.yul\":8179:8397   */\n    tag_101:\n        /* \"#utility.yul\":8270:8274   */\n      0x00\n        /* \"#utility.yul\":8308:8310   */\n      0x20\n        /* \"#utility.yul\":8297:8306   */\n      dup3\n        /* \"#utility.yul\":8293:8311   */\n      add\n        /* \"#utility.yul\":8285:8311   */\n      swap1\n      pop\n        /* \"#utility.yul\":8321:8390   */\n      tag_376\n        /* \"#utility.yul\":8387:8388   */\n      0x00\n        /* \"#utility.yul\":8376:8385   */\n      dup4\n        /* \"#utility.yul\":8372:8389   */\n      add\n        /* \"#utility.yul\":8363:8369   */\n      dup5\n        /* \"#utility.yul\":8321:8390   */\n      tag_241\n      jump\t// in\n    tag_376:\n        /* \"#utility.yul\":8179:8397   */\n      swap3\n      swap2\n      pop\n      pop\n      jump\t// out\n        /* \"#utility.yul\":8403:8735   */\n    tag_114:\n        /* \"#utility.yul\":8524:8528   */\n      0x00\n        /* \"#utility.yul\":8562:8564   */\n      0x40\n        /* \"#utility.yul\":8551:8560   */\n      dup3\n        /* \"#utility.yul\":8547:8565   */\n      add\n        /* \"#utility.yul\":8539:8565   */\n      swap1\n      pop\n        /* \"#utility.yul\":8575:8646   */\n      tag_378\n        /* \"#utility.yul\":8643:8644   */\n      0x00\n        /* \"#utility.yul\":8632:8641   */\n      dup4\n        /* \"#utility.yul\":8628:8645   */\n      add\n        /* \"#utility.yul\":8619:8625   */\n      dup6\n        /* \"#utility.yul\":8575:8646   */\n      tag_230\n      jump\t// in\n    tag_378:\n        /* \"#utility.yul\":8656:8728   */\n      tag_379\n        /* \"#utility.yul\":8724:8726   */\n      0x20\n        /* \"#utility.yul\":8713:8722   */\n      dup4\n        /* \"#utility.yul\":8709:8727   */\n      add\n        /* \"#utility.yul\":8700:8706   */\n      dup5\n        /* \"#utility.yul\":8656:8728   */\n      tag_230\n      jump\t// in\n    tag_379:\n        /* \"#utility.yul\":8403:8735   */\n      swap4\n      swap3\n      pop\n      pop\n      pop\n      jump\t// out\n        /* \"#utility.yul\":8741:8913   */\n    tag_242:\n        /* \"#utility.yul\":8881:8905   */\n      0x4d7573742062652070726f706f736564206f776e657200000000000000000000\n        /* \"#utility.yul\":8877:8878   */\n      0x00\n        /* \"#utility.yul\":8869:8875   */\n      dup3\n        /* \"#utility.yul\":8865:8879   */\n      add\n        /* \"#utility.yul\":8858:8906   */\n      mstore\n        /* \"#utility.yul\":8741:8913   */\n      pop\n      jump\t// out\n        /* \"#utility.yul\":8919:9285   */\n    tag_243:\n        /* \"#utility.yul\":9061:9064   */\n      0x00\n        /* \"#utility.yul\":9082:9149   */\n      tag_382\n        /* \"#utility.yul\":9146:9148   */\n      0x16\n        /* \"#utility.yul\":9141:9144   */\n      dup4\n        /* \"#utility.yul\":9082:9149   */\n      tag_222\n      jump\t// in\n    tag_382:\n        /* \"#utility.yul\":9075:9149   */\n      swap2\n      pop\n        /* \"#utility.yul\":9158:9251   */\n      tag_383\n        /* \"#utility.yul\":9247:9250   */\n      dup3\n        /* \"#utility.yul\":9158:9251   */\n      tag_242\n      jump\t// in\n    tag_383:\n        /* \"#utility.yul\":9276:9278   */\n      0x20\n        /* \"#utility.yul\":9271:9274   */\n      dup3\n        /* \"#utility.yul\":9267:9279   */\n      add\n        /* \"#utility.yul\":9260:9279   */\n      swap1\n      pop\n        /* \"#utility.yul\":8919:9285   */\n      swap2\n      swap1\n      pop\n      jump\t// out\n        /* \"#utility.yul\":9291:9710   */\n    tag_126:\n        /* \"#utility.yul\":9457:9461   */\n      0x00\n        /* \"#utility.yul\":9495:9497   */\n      0x20\n        /* \"#utility.yul\":9484:9493   */\n      dup3\n        /* \"#utility.yul\":9480:9498   */\n      add\n        /* \"#utility.yul\":9472:9498   */\n      swap1\n      pop\n        /* \"#utility.yul\":9544:9553   */\n      dup2\n        /* \"#utility.yul\":9538:9542   */\n      dup2\n        /* \"#utility.yul\":9534:9554   */\n      sub\n        /* \"#utility.yul\":9530:9531   */\n      0x00\n        /* \"#utility.yul\":9519:9528   */\n      dup4\n        /* \"#utility.yul\":9515:9532   */\n      add\n        /* \"#utility.yul\":9508:9555   */\n      mstore\n        /* \"#utility.yul\":9572:9703   */\n      tag_385\n        /* \"#utility.yul\":9698:9702   */\n      dup2\n        /* \"#utility.yul\":9572:9703   */\n      tag_243\n      jump\t// in\n    tag_385:\n        /* \"#utility.yul\":9564:9703   */\n      swap1\n      pop\n        /* \"#utility.yul\":9291:9710   */\n      swap2\n      swap1\n      pop\n      jump\t// out\n        /* \"#utility.yul\":9716:9896   */\n    tag_244:\n        /* \"#utility.yul\":9764:9841   */\n      0x4e487b7100000000000000000000000000000000000000000000000000000000\n        /* \"#utility.yul\":9761:9762   */\n      0x00\n        /* \"#utility.yul\":9754:9842   */\n      mstore\n        /* \"#utility.yul\":9861:9865   */\n      0x22\n        /* \"#utility.yul\":9858:9859   */\n      0x04\n        /* \"#utility.yul\":9851:9866   */\n      mstore\n        /* \"#utility.yul\":9885:9889   */\n      0x24\n        /* \"#utility.yul\":9882:9883   */\n      0x00\n        /* \"#utility.yul\":9875:9890   */\n      revert\n        /* \"#utility.yul\":9902:10222   */\n    tag_128:\n        /* \"#utility.yul\":9946:9952   */\n      0x00\n        /* \"#utility.yul\":9983:9984   */\n      0x02\n        /* \"#utility.yul\":9977:9981   */\n      dup3\n        /* \"#utility.yul\":9973:9985   */\n      div\n        /* \"#utility.yul\":9963:9985   */\n      swap1\n      pop\n        /* \"#utility.yul\":10030:10031   */\n      0x01\n        /* \"#utility.yul\":10024:10028   */\n      dup3\n        /* \"#utility.yul\":10020:10032   */\n      and\n        /* \"#utility.yul\":10051:10069   */\n      dup1\n        /* \"#utility.yul\":10041:10122   */\n      tag_388\n      jumpi\n        /* \"#utility.yul\":10107:10111   */\n      0x7f\n        /* \"#utility.yul\":10099:10105   */\n      dup3\n        /* \"#utility.yul\":10095:10112   */\n      and\n        /* \"#utility.yul\":10085:10112   */\n      swap2\n      pop\n        /* \"#utility.yul\":10041:10122   */\n    tag_388:\n        /* \"#utility.yul\":10169:10171   */\n      0x20\n        /* \"#utility.yul\":10161:10167   */\n      dup3\n        /* \"#utility.yul\":10158:10172   */\n      lt\n        /* \"#utility.yul\":10138:10156   */\n      dup2\n        /* \"#utility.yul\":10135:10173   */\n      sub\n        /* \"#utility.yul\":10132:10216   */\n      tag_389\n      jumpi\n        /* \"#utility.yul\":10188:10206   */\n      tag_390\n      tag_244\n      jump\t// in\n    tag_390:\n        /* \"#utility.yul\":10132:10216   */\n    tag_389:\n        /* \"#utility.yul\":9953:10222   */\n      pop\n        /* \"#utility.yul\":9902:10222   */\n      swap2\n      swap1\n      pop\n      jump\t// out\n        /* \"#utility.yul\":10228:10670   */\n    tag_146:\n        /* \"#utility.yul\":10377:10381   */\n      0x00\n        /* \"#utility.yul\":10415:10417   */\n      0x60\n        /* \"#utility.yul\":10404:10413   */\n      dup3\n        /* \"#utility.yul\":10400:10418   */\n      add\n        /* \"#utility.yul\":10392:10418   */\n      swap1\n      pop\n        /* \"#utility.yul\":10428:10499   */\n      tag_392\n        /* \"#utility.yul\":10496:10497   */\n      0x00\n        /* \"#utility.yul\":10485:10494   */\n      dup4\n        /* \"#utility.yul\":10481:10498   */\n      add\n        /* \"#utility.yul\":10472:10478   */\n      dup7\n        /* \"#utility.yul\":10428:10499   */\n      tag_230\n      jump\t// in\n    tag_392:\n        /* \"#utility.yul\":10509:10581   */\n      tag_393\n        /* \"#utility.yul\":10577:10579   */\n      0x20\n        /* \"#utility.yul\":10566:10575   */\n      dup4\n        /* \"#utility.yul\":10562:10580   */\n      add\n        /* \"#utility.yul\":10553:10559   */\n      dup6\n        /* \"#utility.yul\":10509:10581   */\n      tag_230\n      jump\t// in\n    tag_393:\n        /* \"#utility.yul\":10591:10663   */\n      tag_394\n        /* \"#utility.yul\":10659:10661   */\n      0x40\n        /* \"#utility.yul\":10648:10657   */\n      dup4\n        /* \"#utility.yul\":10644:10662   */\n      add\n        /* \"#utility.yul\":10635:10641   */\n      dup5\n        /* \"#utility.yul\":10591:10663   */\n      tag_230\n      jump\t// in\n    tag_394:\n        /* \"#utility.yul\":10228:10670   */\n      swap5\n      swap4\n      pop\n      pop\n      pop\n      pop\n      jump\t// out\n        /* \"#utility.yul\":10676:10856   */\n    tag_161:\n        /* \"#utility.yul\":10724:10801   */\n      0x4e487b7100000000000000000000000000000000000000000000000000000000\n        /* \"#utility.yul\":10721:10722   */\n      0x00\n        /* \"#utility.yul\":10714:10802   */\n      mstore\n        /* \"#utility.yul\":10821:10825   */\n      0x32\n        /* \"#utility.yul\":10818:10819   */\n      0x04\n        /* \"#utility.yul\":10811:10826   */\n      mstore\n        /* \"#utility.yul\":10845:10849   */\n      0x24\n        /* \"#utility.yul\":10842:10843   */\n      0x00\n        /* \"#utility.yul\":10835:10850   */\n      revert\n        /* \"#utility.yul\":10862:11042   */\n    tag_245:\n        /* \"#utility.yul\":10910:10987   */\n      0x4e487b7100000000000000000000000000000000000000000000000000000000\n        /* \"#utility.yul\":10907:10908   */\n      0x00\n        /* \"#utility.yul\":10900:10988   */\n      mstore\n        /* \"#utility.yul\":11007:11011   */\n      0x12\n        /* \"#utility.yul\":11004:11005   */\n      0x04\n        /* \"#utility.yul\":10997:11012   */\n      mstore\n        /* \"#utility.yul\":11031:11035   */\n      0x24\n        /* \"#utility.yul\":11028:11029   */\n      0x00\n        /* \"#utility.yul\":11021:11036   */\n      revert\n        /* \"#utility.yul\":11048:11224   */\n    tag_163:\n        /* \"#utility.yul\":11080:11081   */\n      0x00\n        /* \"#utility.yul\":11097:11117   */\n      tag_398\n        /* \"#utility.yul\":11115:11116   */\n      dup3\n        /* \"#utility.yul\":11097:11117   */\n      tag_208\n      jump\t// in\n    tag_398:\n        /* \"#utility.yul\":11092:11117   */\n      swap2\n      pop\n        /* \"#utility.yul\":11131:11151   */\n      tag_399\n        /* \"#utility.yul\":11149:11150   */\n      dup4\n        /* \"#utility.yul\":11131:11151   */\n      tag_208\n      jump\t// in\n    tag_399:\n        /* \"#utility.yul\":11126:11151   */\n      swap3\n      pop\n        /* \"#utility.yul\":11170:11171   */\n      dup3\n        /* \"#utility.yul\":11160:11195   */\n      tag_400\n      jumpi\n        /* \"#utility.yul\":11175:11193   */\n      tag_401\n      tag_245\n      jump\t// in\n    tag_401:\n        /* \"#utility.yul\":11160:11195   */\n    tag_400:\n        /* \"#utility.yul\":11216:11217   */\n      dup3\n        /* \"#utility.yul\":11213:11214   */\n      dup3\n        /* \"#utility.yul\":11209:11218   */\n      mod\n        /* \"#utility.yul\":11204:11218   */\n      swap1\n      pop\n        /* \"#utility.yul\":11048:11224   */\n      swap3\n      swap2\n      pop\n      pop\n      jump\t// out\n        /* \"#utility.yul\":11230:11410   */\n    tag_246:\n        /* \"#utility.yul\":11278:11355   */\n      0x4e487b7100000000000000000000000000000000000000000000000000000000\n        /* \"#utility.yul\":11275:11276   */\n      0x00\n        /* \"#utility.yul\":11268:11356   */\n      mstore\n        /* \"#utility.yul\":11375:11379   */\n      0x11\n        /* \"#utility.yul\":11372:11373   */\n      0x04\n        /* \"#utility.yul\":11365:11380   */\n      mstore\n        /* \"#utility.yul\":11399:11403   */\n      0x24\n        /* \"#utility.yul\":11396:11397   */\n      0x00\n        /* \"#utility.yul\":11389:11404   */\n      revert\n        /* \"#utility.yul\":11416:11826   */\n    tag_175:\n        /* \"#utility.yul\":11456:11463   */\n      0x00\n        /* \"#utility.yul\":11479:11499   */\n      tag_404\n        /* \"#utility.yul\":11497:11498   */\n      dup3\n        /* \"#utility.yul\":11479:11499   */\n      tag_208\n      jump\t// in\n    tag_404:\n        /* \"#utility.yul\":11474:11499   */\n      swap2\n      pop\n        /* \"#utility.yul\":11513:11533   */\n      tag_405\n        /* \"#utility.yul\":11531:11532   */\n      dup4\n        /* \"#utility.yul\":11513:11533   */\n      tag_208\n      jump\t// in\n    tag_405:\n        /* \"#utility.yul\":11508:11533   */\n      swap3\n      pop\n        /* \"#utility.yul\":11568:11569   */\n      dup3\n        /* \"#utility.yul\":11565:11566   */\n      dup3\n        /* \"#utility.yul\":11561:11570   */\n      mul\n        /* \"#utility.yul\":11590:11620   */\n      tag_406\n        /* \"#utility.yul\":11608:11619   */\n      dup2\n        /* \"#utility.yul\":11590:11620   */\n      tag_208\n      jump\t// in\n    tag_406:\n        /* \"#utility.yul\":11579:11620   */\n      swap2\n      pop\n        /* \"#utility.yul\":11769:11770   */\n      dup3\n        /* \"#utility.yul\":11760:11767   */\n      dup3\n        /* \"#utility.yul\":11756:11771   */\n      div\n        /* \"#utility.yul\":11753:11754   */\n      dup5\n        /* \"#utility.yul\":11750:11772   */\n      eq\n        /* \"#utility.yul\":11730:11731   */\n      dup4\n        /* \"#utility.yul\":11723:11732   */\n      iszero\n        /* \"#utility.yul\":11703:11786   */\n      or\n        /* \"#utility.yul\":11680:11819   */\n      tag_407\n      jumpi\n        /* \"#utility.yul\":11799:11817   */\n      tag_408\n      tag_246\n      jump\t// in\n    tag_408:\n        /* \"#utility.yul\":11680:11819   */\n    tag_407:\n        /* \"#utility.yul\":11464:11826   */\n      pop\n        /* \"#utility.yul\":11416:11826   */\n      swap3\n      swap2\n      pop\n      pop\n      jump\t// out\n        /* \"#utility.yul\":11832:12012   */\n    tag_247:\n        /* \"#utility.yul\":11880:11957   */\n      0x4e487b7100000000000000000000000000000000000000000000000000000000\n        /* \"#utility.yul\":11877:11878   */\n      0x00\n        /* \"#utility.yul\":11870:11958   */\n      mstore\n        /* \"#utility.yul\":11977:11981   */\n      0x41\n        /* \"#utility.yul\":11974:11975   */\n      0x04\n        /* \"#utility.yul\":11967:11982   */\n      mstore\n        /* \"#utility.yul\":12001:12005   */\n      0x24\n        /* \"#utility.yul\":11998:11999   */\n      0x00\n        /* \"#utility.yul\":11991:12006   */\n      revert\n        /* \"#utility.yul\":12018:12159   */\n    tag_248:\n        /* \"#utility.yul\":12067:12071   */\n      0x00\n        /* \"#utility.yul\":12090:12093   */\n      dup2\n        /* \"#utility.yul\":12082:12093   */\n      swap1\n      pop\n        /* \"#utility.yul\":12113:12116   */\n      dup2\n        /* \"#utility.yul\":12110:12111   */\n      0x00\n        /* \"#utility.yul\":12103:12117   */\n      mstore\n        /* \"#utility.yul\":12147:12151   */\n      0x20\n        /* \"#utility.yul\":12144:12145   */\n      0x00\n        /* \"#utility.yul\":12134:12152   */\n      keccak256\n        /* \"#utility.yul\":12126:12152   */\n      swap1\n      pop\n        /* \"#utility.yul\":12018:12159   */\n      swap2\n      swap1\n      pop\n      jump\t// out\n        /* \"#utility.yul\":12165:12258   */\n    tag_249:\n        /* \"#utility.yul\":12202:12208   */\n      0x00\n        /* \"#utility.yul\":12249:12251   */\n      0x20\n        /* \"#utility.yul\":12244:12246   */\n      0x1f\n        /* \"#utility.yul\":12237:12242   */\n      dup4\n        /* \"#utility.yul\":12233:12247   */\n      add\n        /* \"#utility.yul\":12229:12252   */\n      div\n        /* \"#utility.yul\":12219:12252   */\n      swap1\n      pop\n        /* \"#utility.yul\":12165:12258   */\n      swap2\n      swap1\n      pop\n      jump\t// out\n        /* \"#utility.yul\":12264:12371   */\n    tag_250:\n        /* \"#utility.yul\":12308:12316   */\n      0x00\n        /* \"#utility.yul\":12358:12363   */\n      dup3\n        /* \"#utility.yul\":12352:12356   */\n      dup3\n        /* \"#utility.yul\":12348:12364   */\n      shl\n        /* \"#utility.yul\":12327:12364   */\n      swap1\n      pop\n        /* \"#utility.yul\":12264:12371   */\n      swap3\n      swap2\n      pop\n      pop\n      jump\t// out\n        /* \"#utility.yul\":12377:12770   */\n    tag_251:\n        /* \"#utility.yul\":12446:12452   */\n      0x00\n        /* \"#utility.yul\":12496:12497   */\n      0x08\n        /* \"#utility.yul\":12484:12494   */\n      dup4\n        /* \"#utility.yul\":12480:12498   */\n      mul\n        /* \"#utility.yul\":12519:12616   */\n      tag_414\n        /* \"#utility.yul\":12549:12615   */\n      0xffffffffffffffffffffffffffffffffffffffffffffffffffffffffffffffff\n        /* \"#utility.yul\":12538:12547   */\n      dup3\n        /* \"#utility.yul\":12519:12616   */\n      tag_250\n      jump\t// in\n    tag_414:\n        /* \"#utility.yul\":12637:12676   */\n      tag_415\n        /* \"#utility.yul\":12667:12675   */\n      dup7\n        /* \"#utility.yul\":12656:12665   */\n      dup4\n        /* \"#utility.yul\":12637:12676   */\n      tag_250\n      jump\t// in\n    tag_415:\n        /* \"#utility.yul\":12625:12676   */\n      swap6\n      pop\n        /* \"#utility.yul\":12709:12713   */\n      dup1\n        /* \"#utility.yul\":12705:12714   */\n      not\n        /* \"#utility.yul\":12698:12703   */\n      dup5\n        /* \"#utility.yul\":12694:12715   */\n      and\n        /* \"#utility.yul\":12685:12715   */\n      swap4\n      pop\n        /* \"#utility.yul\":12758:12762   */\n      dup1\n        /* \"#utility.yul\":12748:12756   */\n      dup7\n        /* \"#utility.yul\":12744:12763   */\n      and\n        /* \"#utility.yul\":12737:12742   */\n      dup5\n        /* \"#utility.yul\":12734:12764   */\n      or\n        /* \"#utility.yul\":12724:12764   */\n      swap3\n      pop\n        /* \"#utility.yul\":12453:12770   */\n      pop\n      pop\n        /* \"#utility.yul\":12377:12770   */\n      swap4\n      swap3\n      pop\n      pop\n      pop\n      jump\t// out\n        /* \"#utility.yul\":12776:12918   */\n    tag_252:\n        /* \"#utility.yul\":12826:12835   */\n      0x00\n        /* \"#utility.yul\":12859:12912   */\n      tag_417\n        /* \"#utility.yul\":12877:12911   */\n      tag_418\n        /* \"#utility.yul\":12886:12910   */\n      tag_419\n        /* \"#utility.yul\":12904:12909   */\n      dup5\n        /* \"#utility.yul\":12886:12910   */\n      tag_208\n      jump\t// in\n    tag_419:\n        /* \"#utility.yul\":12877:12911   */\n      tag_235\n      jump\t// in\n    tag_418:\n        /* \"#utility.yul\":12859:12912   */\n      tag_208\n      jump\t// in\n    tag_417:\n        /* \"#utility.yul\":12846:12912   */\n      swap1\n      pop\n        /* \"#utility.yul\":12776:12918   */\n      swap2\n      swap1\n      pop\n      jump\t// out\n        /* \"#utility.yul\":12924:12999   */\n    tag_253:\n        /* \"#utility.yul\":12967:12970   */\n      0x00\n        /* \"#utility.yul\":12988:12993   */\n      dup2\n        /* \"#utility.yul\":12981:12993   */\n      swap1\n      pop\n        /* \"#utility.yul\":12924:12999   */\n      swap2\n      swap1\n      pop\n      jump\t// out\n        /* \"#utility.yul\":13005:13274   */\n    tag_254:\n        /* \"#utility.yul\":13115:13154   */\n      tag_422\n        /* \"#utility.yul\":13146:13153   */\n      dup4\n        /* \"#utility.yul\":13115:13154   */\n      tag_252\n      jump\t// in\n    tag_422:\n        /* \"#utility.yul\":13176:13267   */\n      tag_423\n        /* \"#utility.yul\":13225:13266   */\n      tag_424\n        /* \"#utility.yul\":13249:13265   */\n      dup3\n        /* \"#utility.yul\":13225:13266   */\n      tag_253\n      jump\t// in\n    tag_424:\n        /* \"#utility.yul\":13217:13223   */\n      dup5\n        /* \"#utility.yul\":13210:13214   */\n      dup5\n        /* \"#utility.yul\":13204:13215   */\n      sload\n        /* \"#utility.yul\":13176:13267   */\n      tag_251\n      jump\t// in\n    tag_423:\n        /* \"#utility.yul\":13170:13174   */\n      dup3\n        /* \"#utility.yul\":13163:13268   */\n      sstore\n        /* \"#utility.yul\":13081:13274   */\n      pop\n        /* \"#utility.yul\":13005:13274   */\n      pop\n      pop\n      pop\n      jump\t// out\n        /* \"#utility.yul\":13280:13353   */\n    tag_255:\n        /* \"#utility.yul\":13325:13328   */\n      0x00\n        /* \"#utility.yul\":13346:13347   */\n      0x00\n        /* \"#utility.yul\":13339:13347   */\n      swap1\n      pop\n        /* \"#utility.yul\":13280:13353   */\n      swap1\n      jump\t// out\n        /* \"#utility.yul\":13359:13548   */\n    tag_256:\n        /* \"#utility.yul\":13436:13468   */\n      tag_427\n      tag_255\n      jump\t// in\n    tag_427:\n        /* \"#utility.yul\":13477:13542   */\n      tag_428\n        /* \"#utility.yul\":13535:13541   */\n      dup2\n        /* \"#utility.yul\":13527:13533   */\n      dup5\n        /* \"#utility.yul\":13521:13525   */\n      dup5\n        /* \"#utility.yul\":13477:13542   */\n      tag_254\n      jump\t// in\n    tag_428:\n        /* \"#utility.yul\":13412:13548   */\n      pop\n        /* \"#utility.yul\":13359:13548   */\n      pop\n      pop\n      jump\t// out\n        /* \"#utility.yul\":13554:13740   */\n    tag_257:\n        /* \"#utility.yul\":13614:13734   */\n    tag_430:\n        /* \"#utility.yul\":13631:13634   */\n      dup2\n        /* \"#utility.yul\":13624:13629   */\n      dup2\n        /* \"#utility.yul\":13621:13635   */\n      lt\n        /* \"#utility.yul\":13614:13734   */\n      iszero\n      tag_432\n      jumpi\n        /* \"#utility.yul\":13685:13724   */\n      tag_433\n        /* \"#utility.yul\":13722:13723   */\n      0x00\n        /* \"#utility.yul\":13715:13720   */\n      dup3\n        /* \"#utility.yul\":13685:13724   */\n      tag_256\n      jump\t// in\n    tag_433:\n        /* \"#utility.yul\":13658:13659   */\n      0x01\n        /* \"#utility.yul\":13651:13656   */\n      dup2\n        /* \"#utility.yul\":13647:13660   */\n      add\n        /* \"#utility.yul\":13638:13660   */\n      swap1\n      pop\n        /* \"#utility.yul\":13614:13734   */\n      jump(tag_430)\n    tag_432:\n        /* \"#utility.yul\":13554:13740   */\n      pop\n      pop\n      jump\t// out\n        /* \"#utility.yul\":13746:14289   */\n    tag_258:\n        /* \"#utility.yul\":13847:13849   */\n      0x1f\n        /* \"#utility.yul\":13842:13845   */\n      dup3\n        /* \"#utility.yul\":13839:13850   */\n      gt\n        /* \"#utility.yul\":13836:14282   */\n      iszero\n      tag_435\n      jumpi\n        /* \"#utility.yul\":13881:13919   */\n      tag_436\n        /* \"#utility.yul\":13913:13918   */\n      dup2\n        /* \"#utility.yul\":13881:13919   */\n      tag_248\n      jump\t// in\n    tag_436:\n        /* \"#utility.yul\":13965:13994   */\n      tag_437\n        /* \"#utility.yul\":13983:13993   */\n      dup5\n        /* \"#utility.yul\":13965:13994   */\n      tag_249\n      jump\t// in\n    tag_437:\n        /* \"#utility.yul\":13955:13963   */\n      dup2\n        /* \"#utility.yul\":13951:13995   */\n      add\n        /* \"#utility.yul\":14148:14150   */\n      0x20\n        /* \"#utility.yul\":14136:14146   */\n      dup6\n        /* \"#utility.yul\":14133:14151   */\n      lt\n        /* \"#utility.yul\":14130:14179   */\n      iszero\n      tag_438\n      jumpi\n        /* \"#utility.yul\":14169:14177   */\n      dup2\n        /* \"#utility.yul\":14154:14177   */\n      swap1\n      pop\n        /* \"#utility.yul\":14130:14179   */\n    tag_438:\n        /* \"#utility.yul\":14192:14272   */\n      tag_439\n        /* \"#utility.yul\":14248:14270   */\n      tag_440\n        /* \"#utility.yul\":14266:14269   */\n      dup6\n        /* \"#utility.yul\":14248:14270   */\n      tag_249\n      jump\t// in\n    tag_440:\n        /* \"#utility.yul\":14238:14246   */\n      dup4\n        /* \"#utility.yul\":14234:14271   */\n      add\n        /* \"#utility.yul\":14221:14232   */\n      dup3\n        /* \"#utility.yul\":14192:14272   */\n      tag_257\n      jump\t// in\n    tag_439:\n        /* \"#utility.yul\":13851:14282   */\n      pop\n      pop\n        /* \"#utility.yul\":13836:14282   */\n    tag_435:\n        /* \"#utility.yul\":13746:14289   */\n      pop\n      pop\n      pop\n      jump\t// out\n        /* \"#utility.yul\":14295:14412   */\n    tag_259:\n        /* \"#utility.yul\":14349:14357   */\n      0x00\n        /* \"#utility.yul\":14399:14404   */\n      dup3\n        /* \"#utility.yul\":14393:14397   */\n      dup3\n        /* \"#utility.yul\":14389:14405   */\n      shr\n        /* \"#utility.yul\":14368:14405   */\n      swap1\n      pop\n        /* \"#utility.yul\":14295:14412   */\n      swap3\n      swap2\n      pop\n      pop\n      jump\t// out\n        /* \"#utility.yul\":14418:14587   */\n    tag_260:\n        /* \"#utility.yul\":14462:14468   */\n      0x00\n        /* \"#utility.yul\":14495:14546   */\n      tag_443\n        /* \"#utility.yul\":14543:14544   */\n      0x00\n        /* \"#utility.yul\":14539:14545   */\n      not\n        /* \"#utility.yul\":14531:14536   */\n      dup5\n        /* \"#utility.yul\":14528:14529   */\n      0x08\n        /* \"#utility.yul\":14524:14537   */\n      mul\n        /* \"#utility.yul\":14495:14546   */\n      tag_259\n      jump\t// in\n    tag_443:\n        /* \"#utility.yul\":14491:14547   */\n      not\n        /* \"#utility.yul\":14576:14580   */\n      dup1\n        /* \"#utility.yul\":14570:14574   */\n      dup4\n        /* \"#utility.yul\":14566:14581   */\n      and\n        /* \"#utility.yul\":14556:14581   */\n      swap2\n      pop\n        /* \"#utility.yul\":14469:14587   */\n      pop\n        /* \"#utility.yul\":14418:14587   */\n      swap3\n      swap2\n      pop\n      pop\n      jump\t// out\n        /* \"#utility.yul\":14592:14887   */\n    tag_261:\n        /* \"#utility.yul\":14668:14672   */\n      0x00\n        /* \"#utility.yul\":14814:14843   */\n      tag_445\n        /* \"#utility.yul\":14839:14842   */\n      dup4\n        /* \"#utility.yul\":14833:14837   */\n      dup4\n        /* \"#utility.yul\":14814:14843   */\n      tag_260\n      jump\t// in\n    tag_445:\n        /* \"#utility.yul\":14806:14843   */\n      swap2\n      pop\n        /* \"#utility.yul\":14876:14879   */\n      dup3\n        /* \"#utility.yul\":14873:14874   */\n      0x02\n        /* \"#utility.yul\":14869:14880   */\n      mul\n        /* \"#utility.yul\":14863:14867   */\n      dup3\n        /* \"#utility.yul\":14860:14881   */\n      or\n        /* \"#utility.yul\":14852:14881   */\n      swap1\n      pop\n        /* \"#utility.yul\":14592:14887   */\n      swap3\n      swap2\n      pop\n      pop\n      jump\t// out\n        /* \"#utility.yul\":14892:16287   */\n    tag_180:\n        /* \"#utility.yul\":15009:15046   */\n      tag_447\n        /* \"#utility.yul\":15042:15045   */\n      dup3\n        /* \"#utility.yul\":15009:15046   */\n      tag_221\n      jump\t// in\n    tag_447:\n        /* \"#utility.yul\":15111:15129   */\n      0xffffffffffffffff\n        /* \"#utility.yul\":15103:15109   */\n      dup2\n        /* \"#utility.yul\":15100:15130   */\n      gt\n        /* \"#utility.yul\":15097:15153   */\n      iszero\n      tag_448\n      jumpi\n        /* \"#utility.yul\":15133:15151   */\n      tag_449\n      tag_247\n      jump\t// in\n    tag_449:\n        /* \"#utility.yul\":15097:15153   */\n    tag_448:\n        /* \"#utility.yul\":15177:15215   */\n      tag_450\n        /* \"#utility.yul\":15209:15213   */\n      dup3\n        /* \"#utility.yul\":15203:15214   */\n      sload\n        /* \"#utility.yul\":15177:15215   */\n      tag_128\n      jump\t// in\n    tag_450:\n        /* \"#utility.yul\":15262:15329   */\n      tag_451\n        /* \"#utility.yul\":15322:15328   */\n      dup3\n        /* \"#utility.yul\":15314:15320   */\n      dup3\n        /* \"#utility.yul\":15308:15312   */\n      dup6\n        /* \"#utility.yul\":15262:15329   */\n      tag_258\n      jump\t// in\n    tag_451:\n        /* \"#utility.yul\":15356:15357   */\n      0x00\n        /* \"#utility.yul\":15380:15384   */\n      0x20\n        /* \"#utility.yul\":15367:15384   */\n      swap1\n      pop\n        /* \"#utility.yul\":15412:15414   */\n      0x1f\n        /* \"#utility.yul\":15404:15410   */\n      dup4\n        /* \"#utility.yul\":15401:15415   */\n      gt\n        /* \"#utility.yul\":15429:15430   */\n      0x01\n        /* \"#utility.yul\":15424:16042   */\n      dup2\n      eq\n      tag_453\n      jumpi\n        /* \"#utility.yul\":16086:16087   */\n      0x00\n        /* \"#utility.yul\":16103:16109   */\n      dup5\n        /* \"#utility.yul\":16100:16177   */\n      iszero\n      tag_454\n      jumpi\n        /* \"#utility.yul\":16152:16161   */\n      dup3\n        /* \"#utility.yul\":16147:16150   */\n      dup8\n        /* \"#utility.yul\":16143:16162   */\n      add\n        /* \"#utility.yul\":16137:16163   */\n      mload\n        /* \"#utility.yul\":16128:16163   */\n      swap1\n      pop\n        /* \"#utility.yul\":16100:16177   */\n    tag_454:\n        /* \"#utility.yul\":16203:16270   */\n      tag_455\n        /* \"#utility.yul\":16263:16269   */\n      dup6\n        /* \"#utility.yul\":16256:16261   */\n      dup3\n        /* \"#utility.yul\":16203:16270   */\n      tag_261\n      jump\t// in\n    tag_455:\n        /* \"#utility.yul\":16197:16201   */\n      dup7\n        /* \"#utility.yul\":16190:16271   */\n      sstore\n        /* \"#utility.yul\":16059:16281   */\n      pop\n        /* \"#utility.yul\":15394:16281   */\n      jump(tag_452)\n        /* \"#utility.yul\":15424:16042   */\n    tag_453:\n        /* \"#utility.yul\":15476:15480   */\n      0x1f\n        /* \"#utility.yul\":15472:15481   */\n      not\n        /* \"#utility.yul\":15464:15470   */\n      dup5\n        /* \"#utility.yul\":15460:15482   */\n      and\n        /* \"#utility.yul\":15510:15547   */\n      tag_456\n        /* \"#utility.yul\":15542:15546   */\n      dup7\n        /* \"#utility.yul\":15510:15547   */\n      tag_248\n      jump\t// in\n    tag_456:\n        /* \"#utility.yul\":15569:15570   */\n      0x00\n        /* \"#utility.yul\":15583:15791   */\n    tag_457:\n        /* \"#utility.yul\":15597:15604   */\n      dup3\n        /* \"#utility.yul\":15594:15595   */\n      dup2\n        /* \"#utility.yul\":15591:15605   */\n      lt\n        /* \"#utility.yul\":15583:15791   */\n      iszero\n      tag_459\n      jumpi\n        /* \"#utility.yul\":15676:15685   */\n      dup5\n        /* \"#utility.yul\":15671:15674   */\n      dup10\n        /* \"#utility.yul\":15667:15686   */\n      add\n        /* \"#utility.yul\":15661:15687   */\n      mload\n        /* \"#utility.yul\":15653:15659   */\n      dup3\n        /* \"#utility.yul\":15646:15688   */\n      sstore\n        /* \"#utility.yul\":15727:15728   */\n      0x01\n        /* \"#utility.yul\":15719:15725   */\n      dup3\n        /* \"#utility.yul\":15715:15729   */\n      add\n        /* \"#utility.yul\":15705:15729   */\n      swap2\n      pop\n        /* \"#utility.yul\":15774:15776   */\n      0x20\n        /* \"#utility.yul\":15763:15772   */\n      dup6\n        /* \"#utility.yul\":15759:15777   */\n      add\n        /* \"#utility.yul\":15746:15777   */\n      swap5\n      pop\n        /* \"#utility.yul\":15620:15624   */\n      0x20\n        /* \"#utility.yul\":15617:15618   */\n      dup2\n        /* \"#utility.yul\":15613:15625   */\n      add\n        /* \"#utility.yul\":15608:15625   */\n      swap1\n      pop\n        /* \"#utility.yul\":15583:15791   */\n      jump(tag_457)\n    tag_459:\n        /* \"#utility.yul\":15819:15825   */\n      dup7\n        /* \"#utility.yul\":15810:15817   */\n      dup4\n        /* \"#utility.yul\":15807:15826   */\n      lt\n        /* \"#utility.yul\":15804:15983   */\n      iszero\n      tag_460\n      jumpi\n        /* \"#utility.yul\":15877:15886   */\n      dup5\n        /* \"#utility.yul\":15872:15875   */\n      dup10\n        /* \"#utility.yul\":15868:15887   */\n      add\n        /* \"#utility.yul\":15862:15888   */\n      mload\n        /* \"#utility.yul\":15920:15968   */\n      tag_461\n        /* \"#utility.yul\":15962:15966   */\n      0x1f\n        /* \"#utility.yul\":15954:15960   */\n      dup10\n        /* \"#utility.yul\":15950:15967   */\n      and\n        /* \"#utility.yul\":15939:15948   */\n      dup3\n        /* \"#utility.yul\":15920:15968   */\n      tag_260\n      jump\t// in\n    tag_461:\n        /* \"#utility.yul\":15912:15918   */\n      dup4\n        /* \"#utility.yul\":15905:15969   */\n      sstore\n        /* \"#utility.yul\":15827:15983   */\n      pop\n        /* \"#utility.yul\":15804:15983   */\n    tag_460:\n        /* \"#utility.yul\":16029:16030   */\n      0x01\n        /* \"#utility.yul\":16025:16026   */\n      0x02\n        /* \"#utility.yul\":16017:16023   */\n      dup9\n        /* \"#utility.yul\":16013:16027   */\n      mul\n        /* \"#utility.yul\":16009:16031   */\n      add\n        /* \"#utility.yul\":16003:16007   */\n      dup9\n        /* \"#utility.yul\":15996:16032   */\n      sstore\n        /* \"#utility.yul\":15431:16042   */\n      pop\n      pop\n      pop\n        /* \"#utility.yul\":15394:16281   */\n    tag_452:\n      pop\n        /* \"#utility.yul\":14984:16287   */\n      pop\n      pop\n      pop\n        /* \"#utility.yul\":14892:16287   */\n      pop\n      pop\n      jump\t// out\n        /* \"#utility.yul\":16293:16454   */\n    tag_262:\n        /* \"#utility.yul\":16433:16446   */\n      0x42657420746f6f206c6f77000000000000000000000000000000000000000000\n        /* \"#utility.yul\":16429:16430   */\n      0x00\n        /* \"#utility.yul\":16421:16427   */\n      dup3\n        /* \"#utility.yul\":16417:16431   */\n      add\n        /* \"#utility.yul\":16410:16447   */\n      mstore\n        /* \"#utility.yul\":16293:16454   */\n      pop\n      jump\t// out\n        /* \"#utility.yul\":16460:16826   */\n    tag_263:\n        /* \"#utility.yul\":16602:16605   */\n      0x00\n        /* \"#utility.yul\":16623:16690   */\n      tag_464\n        /* \"#utility.yul\":16687:16689   */\n      0x0b\n        /* \"#utility.yul\":16682:16685   */\n      dup4\n        /* \"#utility.yul\":16623:16690   */\n      tag_222\n      jump\t// in\n    tag_464:\n        /* \"#utility.yul\":16616:16690   */\n      swap2\n      pop\n        /* \"#utility.yul\":16699:16792   */\n      tag_465\n        /* \"#utility.yul\":16788:16791   */\n      dup3\n        /* \"#utility.yul\":16699:16792   */\n      tag_262\n      jump\t// in\n    tag_465:\n        /* \"#utility.yul\":16817:16819   */\n      0x20\n        /* \"#utility.yul\":16812:16815   */\n      dup3\n        /* \"#utility.yul\":16808:16820   */\n      add\n        /* \"#utility.yul\":16801:16820   */\n      swap1\n      pop\n        /* \"#utility.yul\":16460:16826   */\n      swap2\n      swap1\n      pop\n      jump\t// out\n        /* \"#utility.yul\":16832:17251   */\n    tag_184:\n        /* \"#utility.yul\":16998:17002   */\n      0x00\n        /* \"#utility.yul\":17036:17038   */\n      0x20\n        /* \"#utility.yul\":17025:17034   */\n      dup3\n        /* \"#utility.yul\":17021:17039   */\n      add\n        /* \"#utility.yul\":17013:17039   */\n      swap1\n      pop\n        /* \"#utility.yul\":17085:17094   */\n      dup2\n        /* \"#utility.yul\":17079:17083   */\n      dup2\n        /* \"#utility.yul\":17075:17095   */\n      sub\n        /* \"#utility.yul\":17071:17072   */\n      0x00\n        /* \"#utility.yul\":17060:17069   */\n      dup4\n        /* \"#utility.yul\":17056:17073   */\n      add\n        /* \"#utility.yul\":17049:17096   */\n      mstore\n        /* \"#utility.yul\":17113:17244   */\n      tag_467\n        /* \"#utility.yul\":17239:17243   */\n      dup2\n        /* \"#utility.yul\":17113:17244   */\n      tag_263\n      jump\t// in\n    tag_467:\n        /* \"#utility.yul\":17105:17244   */\n      swap1\n      pop\n        /* \"#utility.yul\":16832:17251   */\n      swap2\n      swap1\n      pop\n      jump\t// out\n        /* \"#utility.yul\":17257:17424   */\n    tag_264:\n        /* \"#utility.yul\":17397:17416   */\n      0x436f6e747261637420697320656d707479000000000000000000000000000000\n        /* \"#utility.yul\":17393:17394   */\n      0x00\n        /* \"#utility.yul\":17385:17391   */\n      dup3\n        /* \"#utility.yul\":17381:17395   */\n      add\n        /* \"#utility.yul\":17374:17417   */\n      mstore\n        /* \"#utility.yul\":17257:17424   */\n      pop\n      jump\t// out\n        /* \"#utility.yul\":17430:17796   */\n    tag_265:\n        /* \"#utility.yul\":17572:17575   */\n      0x00\n        /* \"#utility.yul\":17593:17660   */\n      tag_470\n        /* \"#utility.yul\":17657:17659   */\n      0x11\n        /* \"#utility.yul\":17652:17655   */\n      dup4\n        /* \"#utility.yul\":17593:17660   */\n      tag_222\n      jump\t// in\n    tag_470:\n        /* \"#utility.yul\":17586:17660   */\n      swap2\n      pop\n        /* \"#utility.yul\":17669:17762   */\n      tag_471\n        /* \"#utility.yul\":17758:17761   */\n      dup3\n        /* \"#utility.yul\":17669:17762   */\n      tag_264\n      jump\t// in\n    tag_471:\n        /* \"#utility.yul\":17787:17789   */\n      0x20\n        /* \"#utility.yul\":17782:17785   */\n      dup3\n        /* \"#utility.yul\":17778:17790   */\n      add\n        /* \"#utility.yul\":17771:17790   */\n      swap1\n      pop\n        /* \"#utility.yul\":17430:17796   */\n      swap2\n      swap1\n      pop\n      jump\t// out\n        /* \"#utility.yul\":17802:18221   */\n    tag_188:\n        /* \"#utility.yul\":17968:17972   */\n      0x00\n        /* \"#utility.yul\":18006:18008   */\n      0x20\n        /* \"#utility.yul\":17995:18004   */\n      dup3\n        /* \"#utility.yul\":17991:18009   */\n      add\n        /* \"#utility.yul\":17983:18009   */\n      swap1\n      pop\n        /* \"#utility.yul\":18055:18064   */\n      dup2\n        /* \"#utility.yul\":18049:18053   */\n      dup2\n        /* \"#utility.yul\":18045:18065   */\n      sub\n        /* \"#utility.yul\":18041:18042   */\n      0x00\n        /* \"#utility.yul\":18030:18039   */\n      dup4\n        /* \"#utility.yul\":18026:18043   */\n      add\n        /* \"#utility.yul\":18019:18066   */\n      mstore\n        /* \"#utility.yul\":18083:18214   */\n      tag_473\n        /* \"#utility.yul\":18209:18213   */\n      dup2\n        /* \"#utility.yul\":18083:18214   */\n      tag_265\n      jump\t// in\n    tag_473:\n        /* \"#utility.yul\":18075:18214   */\n      swap1\n      pop\n        /* \"#utility.yul\":17802:18221   */\n      swap2\n      swap1\n      pop\n      jump\t// out\n        /* \"#utility.yul\":18227:18335   */\n    tag_266:\n        /* \"#utility.yul\":18304:18328   */\n      tag_475\n        /* \"#utility.yul\":18322:18327   */\n      dup2\n        /* \"#utility.yul\":18304:18328   */\n      tag_226\n      jump\t// in\n    tag_475:\n        /* \"#utility.yul\":18299:18302   */\n      dup3\n        /* \"#utility.yul\":18292:18329   */\n      mstore\n        /* \"#utility.yul\":18227:18335   */\n      pop\n      pop\n      jump\t// out\n        /* \"#utility.yul\":18341:18449   */\n    tag_267:\n        /* \"#utility.yul\":18418:18442   */\n      tag_477\n        /* \"#utility.yul\":18436:18441   */\n      dup2\n        /* \"#utility.yul\":18418:18442   */\n      tag_208\n      jump\t// in\n    tag_477:\n        /* \"#utility.yul\":18413:18416   */\n      dup3\n        /* \"#utility.yul\":18406:18443   */\n      mstore\n        /* \"#utility.yul\":18341:18449   */\n      pop\n      pop\n      jump\t// out\n        /* \"#utility.yul\":18455:18560   */\n    tag_268:\n        /* \"#utility.yul\":18530:18553   */\n      tag_479\n        /* \"#utility.yul\":18547:18552   */\n      dup2\n        /* \"#utility.yul\":18530:18553   */\n      tag_240\n      jump\t// in\n    tag_479:\n        /* \"#utility.yul\":18525:18528   */\n      dup3\n        /* \"#utility.yul\":18518:18554   */\n      mstore\n        /* \"#utility.yul\":18455:18560   */\n      pop\n      pop\n      jump\t// out\n        /* \"#utility.yul\":18566:18671   */\n    tag_269:\n        /* \"#utility.yul\":18641:18664   */\n      tag_481\n        /* \"#utility.yul\":18658:18663   */\n      dup2\n        /* \"#utility.yul\":18641:18664   */\n      tag_219\n      jump\t// in\n    tag_481:\n        /* \"#utility.yul\":18636:18639   */\n      dup3\n        /* \"#utility.yul\":18629:18665   */\n      mstore\n        /* \"#utility.yul\":18566:18671   */\n      pop\n      pop\n      jump\t// out\n        /* \"#utility.yul\":18677:18775   */\n    tag_270:\n        /* \"#utility.yul\":18728:18734   */\n      0x00\n        /* \"#utility.yul\":18762:18767   */\n      dup2\n        /* \"#utility.yul\":18756:18768   */\n      mload\n        /* \"#utility.yul\":18746:18768   */\n      swap1\n      pop\n        /* \"#utility.yul\":18677:18775   */\n      swap2\n      swap1\n      pop\n      jump\t// out\n        /* \"#utility.yul\":18781:18939   */\n    tag_271:\n        /* \"#utility.yul\":18854:18865   */\n      0x00\n        /* \"#utility.yul\":18888:18894   */\n      dup3\n        /* \"#utility.yul\":18883:18886   */\n      dup3\n        /* \"#utility.yul\":18876:18895   */\n      mstore\n        /* \"#utility.yul\":18928:18932   */\n      0x20\n        /* \"#utility.yul\":18923:18926   */\n      dup3\n        /* \"#utility.yul\":18919:18933   */\n      add\n        /* \"#utility.yul\":18904:18933   */\n      swap1\n      pop\n        /* \"#utility.yul\":18781:18939   */\n      swap3\n      swap2\n      pop\n      pop\n      jump\t// out\n        /* \"#utility.yul\":18945:19298   */\n    tag_272:\n        /* \"#utility.yul\":19021:19024   */\n      0x00\n        /* \"#utility.yul\":19049:19087   */\n      tag_485\n        /* \"#utility.yul\":19081:19086   */\n      dup3\n        /* \"#utility.yul\":19049:19087   */\n      tag_270\n      jump\t// in\n    tag_485:\n        /* \"#utility.yul\":19103:19163   */\n      tag_486\n        /* \"#utility.yul\":19156:19162   */\n      dup2\n        /* \"#utility.yul\":19151:19154   */\n      dup6\n        /* \"#utility.yul\":19103:19163   */\n      tag_271\n      jump\t// in\n    tag_486:\n        /* \"#utility.yul\":19096:19163   */\n      swap4\n      pop\n        /* \"#utility.yul\":19172:19237   */\n      tag_487\n        /* \"#utility.yul\":19230:19236   */\n      dup2\n        /* \"#utility.yul\":19225:19228   */\n      dup6\n        /* \"#utility.yul\":19218:19222   */\n      0x20\n        /* \"#utility.yul\":19211:19216   */\n      dup7\n        /* \"#utility.yul\":19207:19223   */\n      add\n        /* \"#utility.yul\":19172:19237   */\n      tag_223\n      jump\t// in\n    tag_487:\n        /* \"#utility.yul\":19262:19291   */\n      tag_488\n        /* \"#utility.yul\":19284:19290   */\n      dup2\n        /* \"#utility.yul\":19262:19291   */\n      tag_224\n      jump\t// in\n    tag_488:\n        /* \"#utility.yul\":19257:19260   */\n      dup5\n        /* \"#utility.yul\":19253:19292   */\n      add\n        /* \"#utility.yul\":19246:19292   */\n      swap2\n      pop\n        /* \"#utility.yul\":19025:19298   */\n      pop\n        /* \"#utility.yul\":18945:19298   */\n      swap3\n      swap2\n      pop\n      pop\n      jump\t// out\n        /* \"#utility.yul\":19398:20753   */\n    tag_273:\n        /* \"#utility.yul\":19537:19540   */\n      0x00\n        /* \"#utility.yul\":19573:19577   */\n      0xc0\n        /* \"#utility.yul\":19568:19571   */\n      dup4\n        /* \"#utility.yul\":19564:19578   */\n      add\n        /* \"#utility.yul\":19663:19667   */\n      0x00\n        /* \"#utility.yul\":19656:19661   */\n      dup4\n        /* \"#utility.yul\":19652:19668   */\n      add\n        /* \"#utility.yul\":19646:19669   */\n      mload\n        /* \"#utility.yul\":19682:19745   */\n      tag_490\n        /* \"#utility.yul\":19739:19743   */\n      0x00\n        /* \"#utility.yul\":19734:19737   */\n      dup7\n        /* \"#utility.yul\":19730:19744   */\n      add\n        /* \"#utility.yul\":19716:19728   */\n      dup3\n        /* \"#utility.yul\":19682:19745   */\n      tag_266\n      jump\t// in\n    tag_490:\n        /* \"#utility.yul\":19588:19755   */\n      pop\n        /* \"#utility.yul\":19838:19842   */\n      0x20\n        /* \"#utility.yul\":19831:19836   */\n      dup4\n        /* \"#utility.yul\":19827:19843   */\n      add\n        /* \"#utility.yul\":19821:19844   */\n      mload\n        /* \"#utility.yul\":19857:19920   */\n      tag_491\n        /* \"#utility.yul\":19914:19918   */\n      0x20\n        /* \"#utility.yul\":19909:19912   */\n      dup7\n        /* \"#utility.yul\":19905:19919   */\n      add\n        /* \"#utility.yul\":19891:19903   */\n      dup3\n        /* \"#utility.yul\":19857:19920   */\n      tag_267\n      jump\t// in\n    tag_491:\n        /* \"#utility.yul\":19765:19930   */\n      pop\n        /* \"#utility.yul\":20028:20032   */\n      0x40\n        /* \"#utility.yul\":20021:20026   */\n      dup4\n        /* \"#utility.yul\":20017:20033   */\n      add\n        /* \"#utility.yul\":20011:20034   */\n      mload\n        /* \"#utility.yul\":20047:20108   */\n      tag_492\n        /* \"#utility.yul\":20102:20106   */\n      0x40\n        /* \"#utility.yul\":20097:20100   */\n      dup7\n        /* \"#utility.yul\":20093:20107   */\n      add\n        /* \"#utility.yul\":20079:20091   */\n      dup3\n        /* \"#utility.yul\":20047:20108   */\n      tag_268\n      jump\t// in\n    tag_492:\n        /* \"#utility.yul\":19940:20118   */\n      pop\n        /* \"#utility.yul\":20212:20216   */\n      0x60\n        /* \"#utility.yul\":20205:20210   */\n      dup4\n        /* \"#utility.yul\":20201:20217   */\n      add\n        /* \"#utility.yul\":20195:20218   */\n      mload\n        /* \"#utility.yul\":20231:20292   */\n      tag_493\n        /* \"#utility.yul\":20286:20290   */\n      0x60\n        /* \"#utility.yul\":20281:20284   */\n      dup7\n        /* \"#utility.yul\":20277:20291   */\n      add\n        /* \"#utility.yul\":20263:20275   */\n      dup3\n        /* \"#utility.yul\":20231:20292   */\n      tag_269\n      jump\t// in\n    tag_493:\n        /* \"#utility.yul\":20128:20302   */\n      pop\n        /* \"#utility.yul\":20388:20392   */\n      0x80\n        /* \"#utility.yul\":20381:20386   */\n      dup4\n        /* \"#utility.yul\":20377:20393   */\n      add\n        /* \"#utility.yul\":20371:20394   */\n      mload\n        /* \"#utility.yul\":20407:20468   */\n      tag_494\n        /* \"#utility.yul\":20462:20466   */\n      0x80\n        /* \"#utility.yul\":20457:20460   */\n      dup7\n        /* \"#utility.yul\":20453:20467   */\n      add\n        /* \"#utility.yul\":20439:20451   */\n      dup3\n        /* \"#utility.yul\":20407:20468   */\n      tag_269\n      jump\t// in\n    tag_494:\n        /* \"#utility.yul\":20312:20478   */\n      pop\n        /* \"#utility.yul\":20565:20569   */\n      0xa0\n        /* \"#utility.yul\":20558:20563   */\n      dup4\n        /* \"#utility.yul\":20554:20570   */\n      add\n        /* \"#utility.yul\":20548:20571   */\n      mload\n        /* \"#utility.yul\":20618:20621   */\n      dup5\n        /* \"#utility.yul\":20612:20616   */\n      dup3\n        /* \"#utility.yul\":20608:20622   */\n      sub\n        /* \"#utility.yul\":20601:20605   */\n      0xa0\n        /* \"#utility.yul\":20596:20599   */\n      dup7\n        /* \"#utility.yul\":20592:20606   */\n      add\n        /* \"#utility.yul\":20585:20623   */\n      mstore\n        /* \"#utility.yul\":20644:20715   */\n      tag_495\n        /* \"#utility.yul\":20710:20714   */\n      dup3\n        /* \"#utility.yul\":20696:20708   */\n      dup3\n        /* \"#utility.yul\":20644:20715   */\n      tag_272\n      jump\t// in\n    tag_495:\n        /* \"#utility.yul\":20636:20715   */\n      swap2\n      pop\n        /* \"#utility.yul\":20488:20726   */\n      pop\n        /* \"#utility.yul\":20743:20747   */\n      dup1\n        /* \"#utility.yul\":20736:20747   */\n      swap2\n      pop\n        /* \"#utility.yul\":19542:20753   */\n      pop\n        /* \"#utility.yul\":19398:20753   */\n      swap3\n      swap2\n      pop\n      pop\n      jump\t// out\n        /* \"#utility.yul\":20759:21172   */\n    tag_192:\n        /* \"#utility.yul\":20922:20926   */\n      0x00\n        /* \"#utility.yul\":20960:20962   */\n      0x20\n        /* \"#utility.yul\":20949:20958   */\n      dup3\n        /* \"#utility.yul\":20945:20963   */\n      add\n        /* \"#utility.yul\":20937:20963   */\n      swap1\n      pop\n        /* \"#utility.yul\":21009:21018   */\n      dup2\n        /* \"#utility.yul\":21003:21007   */\n      dup2\n        /* \"#utility.yul\":20999:21019   */\n      sub\n        /* \"#utility.yul\":20995:20996   */\n      0x00\n        /* \"#utility.yul\":20984:20993   */\n      dup4\n        /* \"#utility.yul\":20980:20997   */\n      add\n        /* \"#utility.yul\":20973:21020   */\n      mstore\n        /* \"#utility.yul\":21037:21165   */\n      tag_497\n        /* \"#utility.yul\":21160:21164   */\n      dup2\n        /* \"#utility.yul\":21151:21157   */\n      dup5\n        /* \"#utility.yul\":21037:21165   */\n      tag_273\n      jump\t// in\n    tag_497:\n        /* \"#utility.yul\":21029:21165   */\n      swap1\n      pop\n        /* \"#utility.yul\":20759:21172   */\n      swap3\n      swap2\n      pop\n      pop\n      jump\t// out\n        /* \"#utility.yul\":21178:21321   */\n    tag_274:\n        /* \"#utility.yul\":21235:21240   */\n      0x00\n        /* \"#utility.yul\":21266:21272   */\n      dup2\n        /* \"#utility.yul\":21260:21273   */\n      mload\n        /* \"#utility.yul\":21251:21273   */\n      swap1\n      pop\n        /* \"#utility.yul\":21282:21315   */\n      tag_499\n        /* \"#utility.yul\":21309:21314   */\n      dup2\n        /* \"#utility.yul\":21282:21315   */\n      tag_213\n      jump\t// in\n    tag_499:\n        /* \"#utility.yul\":21178:21321   */\n      swap3\n      swap2\n      pop\n      pop\n      jump\t// out\n        /* \"#utility.yul\":21327:21678   */\n    tag_196:\n        /* \"#utility.yul\":21397:21403   */\n      0x00\n        /* \"#utility.yul\":21446:21448   */\n      0x20\n        /* \"#utility.yul\":21434:21443   */\n      dup3\n        /* \"#utility.yul\":21425:21432   */\n      dup5\n        /* \"#utility.yul\":21421:21444   */\n      sub\n        /* \"#utility.yul\":21417:21449   */\n      slt\n        /* \"#utility.yul\":21414:21533   */\n      iszero\n      tag_501\n      jumpi\n        /* \"#utility.yul\":21452:21531   */\n      tag_502\n      tag_211\n      jump\t// in\n    tag_502:\n        /* \"#utility.yul\":21414:21533   */\n    tag_501:\n        /* \"#utility.yul\":21572:21573   */\n      0x00\n        /* \"#utility.yul\":21597:21661   */\n      tag_503\n        /* \"#utility.yul\":21653:21660   */\n      dup5\n        /* \"#utility.yul\":21644:21650   */\n      dup3\n        /* \"#utility.yul\":21633:21642   */\n      dup6\n        /* \"#utility.yul\":21629:21651   */\n      add\n        /* \"#utility.yul\":21597:21661   */\n      tag_274\n      jump\t// in\n    tag_503:\n        /* \"#utility.yul\":21587:21661   */\n      swap2\n      pop\n        /* \"#utility.yul\":21543:21671   */\n      pop\n        /* \"#utility.yul\":21327:21678   */\n      swap3\n      swap2\n      pop\n      pop\n      jump\t// out\n        /* \"#utility.yul\":21684:21856   */\n    tag_275:\n        /* \"#utility.yul\":21824:21848   */\n      0x4f6e6c792063616c6c61626c65206279206f776e657200000000000000000000\n        /* \"#utility.yul\":21820:21821   */\n      0x00\n        /* \"#utility.yul\":21812:21818   */\n      dup3\n        /* \"#utility.yul\":21808:21822   */\n      add\n        /* \"#utility.yul\":21801:21849   */\n      mstore\n        /* \"#utility.yul\":21684:21856   */\n      pop\n      jump\t// out\n        /* \"#utility.yul\":21862:22228   */\n    tag_276:\n        /* \"#utility.yul\":22004:22007   */\n      0x00\n        /* \"#utility.yul\":22025:22092   */\n      tag_506\n        /* \"#utility.yul\":22089:22091   */\n      0x16\n        /* \"#utility.yul\":22084:22087   */\n      dup4\n        /* \"#utility.yul\":22025:22092   */\n      tag_222\n      jump\t// in\n    tag_506:\n        /* \"#utility.yul\":22018:22092   */\n      swap2\n      pop\n        /* \"#utility.yul\":22101:22194   */\n      tag_507\n        /* \"#utility.yul\":22190:22193   */\n      dup3\n        /* \"#utility.yul\":22101:22194   */\n      tag_275\n      jump\t// in\n    tag_507:\n        /* \"#utility.yul\":22219:22221   */\n      0x20\n        /* \"#utility.yul\":22214:22217   */\n      dup3\n        /* \"#utility.yul\":22210:22222   */\n      add\n        /* \"#utility.yul\":22203:22222   */\n      swap1\n      pop\n        /* \"#utility.yul\":21862:22228   */\n      swap2\n      swap1\n      pop\n      jump\t// out\n        /* \"#utility.yul\":22234:22653   */\n    tag_200:\n        /* \"#utility.yul\":22400:22404   */\n      0x00\n        /* \"#utility.yul\":22438:22440   */\n      0x20\n        /* \"#utility.yul\":22427:22436   */\n      dup3\n        /* \"#utility.yul\":22423:22441   */\n      add\n        /* \"#utility.yul\":22415:22441   */\n      swap1\n      pop\n        /* \"#utility.yul\":22487:22496   */\n      dup2\n        /* \"#utility.yul\":22481:22485   */\n      dup2\n        /* \"#utility.yul\":22477:22497   */\n      sub\n        /* \"#utility.yul\":22473:22474   */\n      0x00\n        /* \"#utility.yul\":22462:22471   */\n      dup4\n        /* \"#utility.yul\":22458:22475   */\n      add\n        /* \"#utility.yul\":22451:22498   */\n      mstore\n        /* \"#utility.yul\":22515:22646   */\n      tag_509\n        /* \"#utility.yul\":22641:22645   */\n      dup2\n        /* \"#utility.yul\":22515:22646   */\n      tag_276\n      jump\t// in\n    tag_509:\n        /* \"#utility.yul\":22507:22646   */\n      swap1\n      pop\n        /* \"#utility.yul\":22234:22653   */\n      swap2\n      swap1\n      pop\n      jump\t// out\n        /* \"#utility.yul\":22659:22832   */\n    tag_277:\n        /* \"#utility.yul\":22799:22824   */\n      0x43616e6e6f74207472616e7366657220746f2073656c66000000000000000000\n        /* \"#utility.yul\":22795:22796   */\n      0x00\n        /* \"#utility.yul\":22787:22793   */\n      dup3\n        /* \"#utility.yul\":22783:22797   */\n      add\n        /* \"#utility.yul\":22776:22825   */\n      mstore\n        /* \"#utility.yul\":22659:22832   */\n      pop\n      jump\t// out\n        /* \"#utility.yul\":22838:23204   */\n    tag_278:\n        /* \"#utility.yul\":22980:22983   */\n      0x00\n        /* \"#utility.yul\":23001:23068   */\n      tag_512\n        /* \"#utility.yul\":23065:23067   */\n      0x17\n        /* \"#utility.yul\":23060:23063   */\n      dup4\n        /* \"#utility.yul\":23001:23068   */\n      tag_222\n      jump\t// in\n    tag_512:\n        /* \"#utility.yul\":22994:23068   */\n      swap2\n      pop\n        /* \"#utility.yul\":23077:23170   */\n      tag_513\n        /* \"#utility.yul\":23166:23169   */\n      dup3\n        /* \"#utility.yul\":23077:23170   */\n      tag_277\n      jump\t// in\n    tag_513:\n        /* \"#utility.yul\":23195:23197   */\n      0x20\n        /* \"#utility.yul\":23190:23193   */\n      dup3\n        /* \"#utility.yul\":23186:23198   */\n      add\n        /* \"#utility.yul\":23179:23198   */\n      swap1\n      pop\n        /* \"#utility.yul\":22838:23204   */\n      swap2\n      swap1\n      pop\n      jump\t// out\n        /* \"#utility.yul\":23210:23629   */\n    tag_204:\n        /* \"#utility.yul\":23376:23380   */\n      0x00\n        /* \"#utility.yul\":23414:23416   */\n      0x20\n        /* \"#utility.yul\":23403:23412   */\n      dup3\n        /* \"#utility.yul\":23399:23417   */\n      add\n        /* \"#utility.yul\":23391:23417   */\n      swap1\n      pop\n        /* \"#utility.yul\":23463:23472   */\n      dup2\n        /* \"#utility.yul\":23457:23461   */\n      dup2\n        /* \"#utility.yul\":23453:23473   */\n      sub\n        /* \"#utility.yul\":23449:23450   */\n      0x00\n        /* \"#utility.yul\":23438:23447   */\n      dup4\n        /* \"#utility.yul\":23434:23451   */\n      add\n        /* \"#utility.yul\":23427:23474   */\n      mstore\n        /* \"#utility.yul\":23491:23622   */\n      tag_515\n        /* \"#utility.yul\":23617:23621   */\n      dup2\n        /* \"#utility.yul\":23491:23622   */\n      tag_278\n      jump\t// in\n    tag_515:\n        /* \"#utility.yul\":23483:23622   */\n      swap1\n      pop\n        /* \"#utility.yul\":23210:23629   */\n      swap2\n      swap1\n      pop\n      jump\t// out\n        /* \"#utility.yul\":23635:23725   */\n    tag_279:\n        /* \"#utility.yul\":23669:23676   */\n      0x00\n        /* \"#utility.yul\":23712:23717   */\n      dup2\n        /* \"#utility.yul\":23705:23718   */\n      iszero\n        /* \"#utility.yul\":23698:23719   */\n      iszero\n        /* \"#utility.yul\":23687:23719   */\n      swap1\n      pop\n        /* \"#utility.yul\":23635:23725   */\n      swap2\n      swap1\n      pop\n      jump\t// out\n        /* \"#utility.yul\":23731:23830   */\n    tag_280:\n        /* \"#utility.yul\":23802:23823   */\n      tag_518\n        /* \"#utility.yul\":23817:23822   */\n      dup2\n        /* \"#utility.yul\":23802:23823   */\n      tag_279\n      jump\t// in\n    tag_518:\n        /* \"#utility.yul\":23797:23800   */\n      dup3\n        /* \"#utility.yul\":23790:23824   */\n      mstore\n        /* \"#utility.yul\":23731:23830   */\n      pop\n      pop\n      jump\t// out\n        /* \"#utility.yul\":23916:24258   */\n    tag_281:\n        /* \"#utility.yul\":24069:24073   */\n      0x20\n        /* \"#utility.yul\":24064:24067   */\n      dup3\n        /* \"#utility.yul\":24060:24074   */\n      add\n        /* \"#utility.yul\":24165:24169   */\n      0x00\n        /* \"#utility.yul\":24158:24163   */\n      dup3\n        /* \"#utility.yul\":24154:24170   */\n      add\n        /* \"#utility.yul\":24148:24171   */\n      mload\n        /* \"#utility.yul\":24184:24241   */\n      tag_520\n        /* \"#utility.yul\":24235:24239   */\n      0x00\n        /* \"#utility.yul\":24230:24233   */\n      dup6\n        /* \"#utility.yul\":24226:24240   */\n      add\n        /* \"#utility.yul\":24212:24224   */\n      dup3\n        /* \"#utility.yul\":24184:24241   */\n      tag_280\n      jump\t// in\n    tag_520:\n        /* \"#utility.yul\":24084:24251   */\n      pop\n        /* \"#utility.yul\":24038:24258   */\n      pop\n        /* \"#utility.yul\":23916:24258   */\n      pop\n      pop\n      jump\t// out\n        /* \"#utility.yul\":24264:24598   */\n    tag_207:\n        /* \"#utility.yul\":24413:24417   */\n      0x00\n        /* \"#utility.yul\":24451:24453   */\n      0x20\n        /* \"#utility.yul\":24440:24449   */\n      dup3\n        /* \"#utility.yul\":24436:24454   */\n      add\n        /* \"#utility.yul\":24428:24454   */\n      swap1\n      pop\n        /* \"#utility.yul\":24464:24591   */\n      tag_522\n        /* \"#utility.yul\":24588:24589   */\n      0x00\n        /* \"#utility.yul\":24577:24586   */\n      dup4\n        /* \"#utility.yul\":24573:24590   */\n      add\n        /* \"#utility.yul\":24564:24570   */\n      dup5\n        /* \"#utility.yul\":24464:24591   */\n      tag_281\n      jump\t// in\n    tag_522:\n        /* \"#utility.yul\":24264:24598   */\n      swap3\n      swap2\n      pop\n      pop\n      jump\t// out\n    stop\n    data_8aca7b3ace7bf64daecd7c2059337bd69dca9811cf7f1bb9ec9aef9b01c4e752 d09fd180d0b0d0b2d0b8d0bbd0b03a20302dd09ad0b0d0bcd0b5d0bdd18c2c20312dd09dd0bed0b6d0bdd0b8d186d18b2c20322dd091d183d0bcd0b0d0b3d0b02e20d092d18bd0b8d0b3d180d18bd1883a20783220d0bed18220d181d182d0b0d0b2d0bad0b82e20d09dd0b8d187d18cd18f3a20d0b2d0bed0b7d0b2d180d0b0d1822e20d0a0d0b0d0bdd0b4d0bed0bc20d187d0b5d180d0b5d0b720436861696e6c696e6b205652462076322e352e\n\n    auxdata: 0xa264697066735822122001754e96e1ddab40f8f587721fbc2fe5847bdc9bfb0ea6a57b6ab3bfbf58a50564736f6c634300081f0033\n}\n",
				"bytecode": {
					"linkReferences": {},
					"object": "608060405273da3b641d438362c440ac5458c57e00a712b6670060045f6101000a81548173ffffffffffffffffffffffffffffffffffffffff021916908373ffffffffffffffffffffffffffffffffffffffff1602179055507f8596b430971ac45bdf6088665b9ad8e8630c9d5049ab54b14dff711bee7c0e265f1b60055562030d4060065f6101000a81548163ffffffff021916908363ffffffff1602179055506003600660046101000a81548161ffff021916908361ffff16021790555060016006806101000a81548163ffffffff021916908363ffffffff1602179055506040516125403803806125408339818101604052810190610101919061042e565b60045f9054906101000a900473ffffffffffffffffffffffffffffffffffffffff1633805f5f73ffffffffffffffffffffffffffffffffffffffff168273ffffffffffffffffffffffffffffffffffffffff1603610194576040517f08c379a000000000000000000000000000000000000000000000000000000000815260040161018b906104b3565b60405180910390fd5b815f5f6101000a81548173ffffffffffffffffffffffffffffffffffffffff021916908373ffffffffffffffffffffffffffffffffffffffff1602179055505f73ffffffffffffffffffffffffffffffffffffffff168173ffffffffffffffffffffffffffffffffffffffff161461021657610215816102cc60201b60201c565b5b5050505f73ffffffffffffffffffffffffffffffffffffffff168173ffffffffffffffffffffffffffffffffffffffff160361027e576040517fd92e233d00000000000000000000000000000000000000000000000000000000815260040160405180910390fd5b8060025f6101000a81548173ffffffffffffffffffffffffffffffffffffffff021916908373ffffffffffffffffffffffffffffffffffffffff160217905550508060038190555050610539565b3373ffffffffffffffffffffffffffffffffffffffff168173ffffffffffffffffffffffffffffffffffffffff160361033a576040517f08c379a00000000000000000000000000000000000000000000000000000000081526004016103319061051b565b60405180910390fd5b8060015f6101000a81548173ffffffffffffffffffffffffffffffffffffffff021916908373ffffffffffffffffffffffffffffffffffffffff1602179055508073ffffffffffffffffffffffffffffffffffffffff165f5f9054906101000a900473ffffffffffffffffffffffffffffffffffffffff1673ffffffffffffffffffffffffffffffffffffffff167fed8889f560326eb138920d842192f0eb3dd22b4f139c87a2c57538e05bae127860405160405180910390a350565b5f5ffd5b5f819050919050565b61040d816103fb565b8114610417575f5ffd5b50565b5f8151905061042881610404565b92915050565b5f60208284031215610443576104426103f7565b5b5f6104508482850161041a565b91505092915050565b5f82825260208201905092915050565b7f43616e6e6f7420736574206f776e657220746f207a65726f00000000000000005f82015250565b5f61049d601883610459565b91506104a882610469565b602082019050919050565b5f6020820190508181035f8301526104ca81610491565b9050919050565b7f43616e6e6f74207472616e7366657220746f2073656c660000000000000000005f82015250565b5f610505601783610459565b9150610510826104d1565b602082019050919050565b5f6020820190508181035f830152610532816104f9565b9050919050565b611ffa806105465f395ff3fe608060405260043610610129575f3560e01c806382bc07e6116100aa5780639eccacf61161006e5780639eccacf61461033b578063a3e56fa814610365578063b0fb162f1461038f578063d0e30db0146103b9578063e856bb18146103c3578063f2fde38b146103cd57610129565b806382bc07e61461027b578063853828b6146102a95780638ac00021146102bf5780638da5cb5b146102e95780638ea981171461031357610129565b806361728f39116100f157806361728f39146101dd5780636540742f146102075780636be2c84e1461023157806379ba50971461023b5780637ccfd7fc1461025157610129565b806312065fe01461012d5780631fe543e31461015757806324f746971461017f57806341a26083146101a957806345e2984a146101b3575b5f5ffd5b348015610138575f5ffd5b506101416103f5565b60405161014e919061133f565b60405180910390f35b348015610162575f5ffd5b5061017d600480360381019061017891906113eb565b6103fc565b005b34801561018a575f5ffd5b506101936104c0565b6040516101a09190611466565b60405180910390f35b6101b16104d5565b005b3480156101be575f5ffd5b506101c76104e0565b6040516101d491906114ef565b60405180910390f35b3480156101e8575f5ffd5b506101f1610500565b6040516101fe9190611527565b60405180910390f35b348015610212575f5ffd5b5061021b610506565b604051610228919061133f565b60405180910390f35b61023961050f565b005b348015610246575f5ffd5b5061024f61051b565b005b34801561025c575f5ffd5b506102656106aa565b6040516102729190611466565b60405180910390f35b348015610286575f5ffd5b5061028f6106be565b6040516102a095949392919061159a565b60405180910390f35b3480156102b4575f5ffd5b506102bd61079e565b005b3480156102ca575f5ffd5b506102d36107ec565b6040516102e0919061133f565b60405180910390f35b3480156102f4575f5ffd5b506102fd6107f2565b60405161030a91906115f2565b60405180910390f35b34801561031e575f5ffd5b5061033960048036038101906103349190611635565b610819565b005b348015610346575f5ffd5b5061034f6109f6565b60405161035c91906116bb565b60405180910390f35b348015610370575f5ffd5b50610379610a1b565b60405161038691906115f2565b60405180910390f35b34801561039a575f5ffd5b506103a3610a40565b6040516103b091906116f0565b60405180910390f35b6103c1610a54565b005b6103cb610a56565b005b3480156103d8575f5ffd5b506103f360048036038101906103ee9190611635565b610a62565b005b5f47905090565b60025f9054906101000a900473ffffffffffffffffffffffffffffffffffffffff1673ffffffffffffffffffffffffffffffffffffffff163373ffffffffffffffffffffffffffffffffffffffff16146104b0573360025f9054906101000a900473ffffffffffffffffffffffffffffffffffffffff166040517f1cf993f40000000000000000000000000000000000000000000000000000000081526004016104a7929190611709565b60405180910390fd5b6104bb838383610a76565b505050565b60065f9054906101000a900463ffffffff1681565b6104de5f610e5d565b565b60606040518060e0016040528060af8152602001611f1660af9139905090565b60055481565b64e8d4a5100081565b6105196001610e5d565b565b60015f9054906101000a900473ffffffffffffffffffffffffffffffffffffffff1673ffffffffffffffffffffffffffffffffffffffff163373ffffffffffffffffffffffffffffffffffffffff16146105aa576040517f08c379a00000000000000000000000000000000000000000000000000000000081526004016105a19061177a565b60405180910390fd5b5f5f5f9054906101000a900473ffffffffffffffffffffffffffffffffffffffff169050335f5f6101000a81548173ffffffffffffffffffffffffffffffffffffffff021916908373ffffffffffffffffffffffffffffffffffffffff1602179055505f60015f6101000a81548173ffffffffffffffffffffffffffffffffffffffff021916908373ffffffffffffffffffffffffffffffffffffffff1602179055503373ffffffffffffffffffffffffffffffffffffffff168173ffffffffffffffffffffffffffffffffffffffff167f8be0079c531659141344cd1fd0a4f28419497f9722a3daafe3b4186f6b6457e060405160405180910390a350565b60068054906101000a900463ffffffff1681565b6008805f015f9054906101000a900473ffffffffffffffffffffffffffffffffffffffff1690805f0160149054906101000a900460ff1690805f0160159054906101000a900460ff1690806001018054610717906117c5565b80601f0160208091040260200160405190810160405280929190818152602001828054610743906117c5565b801561078e5780601f106107655761010080835404028352916020019161078e565b820191905f5260205f20905b81548152906001019060200180831161077157829003601f168201915b5050505050908060020154905085565b6107a66110d4565b3373ffffffffffffffffffffffffffffffffffffffff166108fc4790811502906040515f60405180830381858888f193505050501580156107e9573d5f5f3e3d5ffd5b50565b60035481565b5f5f5f9054906101000a900473ffffffffffffffffffffffffffffffffffffffff16905090565b6108216107f2565b73ffffffffffffffffffffffffffffffffffffffff163373ffffffffffffffffffffffffffffffffffffffff16141580156108a9575060025f9054906101000a900473ffffffffffffffffffffffffffffffffffffffff1673ffffffffffffffffffffffffffffffffffffffff163373ffffffffffffffffffffffffffffffffffffffff1614155b1561091757336108b76107f2565b60025f9054906101000a900473ffffffffffffffffffffffffffffffffffffffff166040517f061db9c100000000000000000000000000000000000000000000000000000000815260040161090e939291906117f5565b60405180910390fd5b5f73ffffffffffffffffffffffffffffffffffffffff168173ffffffffffffffffffffffffffffffffffffffff160361097c576040517fd92e233d00000000000000000000000000000000000000000000000000000000815260040160405180910390fd5b8060025f6101000a81548173ffffffffffffffffffffffffffffffffffffffff021916908373ffffffffffffffffffffffffffffffffffffffff1602179055507fd1a6a14209a385a964d036e404cb5cfb71f4000cdb03c9366292430787261be6816040516109eb91906115f2565b60405180910390a150565b60025f9054906101000a900473ffffffffffffffffffffffffffffffffffffffff1681565b60045f9054906101000a900473ffffffffffffffffffffffffffffffffffffffff1681565b600660049054906101000a900461ffff1681565b565b610a606002610e5d565b565b610a6a6110d4565b610a7381611164565b50565b5f60075f8581526020019081526020015f206040518060600160405290815f82015f9054906101000a900473ffffffffffffffffffffffffffffffffffffffff1673ffffffffffffffffffffffffffffffffffffffff1673ffffffffffffffffffffffffffffffffffffffff16815260200160018201548152602001600282015f9054906101000a900460ff1660ff1660ff168152505090505f600384845f818110610b2557610b2461182a565b5b90506020020135610b369190611884565b905060605f5f90508260ff16846040015160ff1603610bda576040518060400160405280600481526020017f4472617700000000000000000000000000000000000000000000000000000000815250915083602001519050835f015173ffffffffffffffffffffffffffffffffffffffff166108fc8290811502906040515f60405180830381858888f19350505050158015610bd4573d5f5f3e3d5ffd5b50610d0a565b5f846040015160ff16148015610bf3575060018360ff16145b80610c1457506001846040015160ff16148015610c13575060028360ff16145b5b80610c3457506002846040015160ff16148015610c3357505f8360ff16145b5b15610cd0576040518060400160405280600881526020017f596f752057696e21000000000000000000000000000000000000000000000000815250915060028460200151610c8291906118e1565b9050835f015173ffffffffffffffffffffffffffffffffffffffff166108fc8290811502906040515f60405180830381858888f19350505050158015610cca573d5f5f3e3d5ffd5b50610d09565b6040518060400160405280600481526020017f4c6f73650000000000000000000000000000000000000000000000000000000081525091505b5b6040518060a00160405280855f015173ffffffffffffffffffffffffffffffffffffffff168152602001856040015160ff1681526020018460ff168152602001838152602001856020015181525060085f820151815f015f6101000a81548173ffffffffffffffffffffffffffffffffffffffff021916908373ffffffffffffffffffffffffffffffffffffffff1602179055506020820151815f0160146101000a81548160ff021916908360ff1602179055506040820151815f0160156101000a81548160ff021916908360ff1602179055506060820151816001019081610df39190611ae6565b506080820151816002015590505060075f8881526020019081526020015f205f5f82015f6101000a81549073ffffffffffffffffffffffffffffffffffffffff0219169055600182015f9055600282015f6101000a81549060ff0219169055505050505050505050565b64e8d4a51000341015610ea5576040517f08c379a0000000000000000000000000000000000000000000000000000000008152600401610e9c90611bff565b60405180910390fd5b600234610eb291906118e1565b471015610ef4576040517f08c379a0000000000000000000000000000000000000000000000000000000008152600401610eeb90611c67565b60405180910390fd5b5f60025f9054906101000a900473ffffffffffffffffffffffffffffffffffffffff1673ffffffffffffffffffffffffffffffffffffffff16639b1c385e6040518060c0016040528060055481526020016003548152602001600660049054906101000a900461ffff1661ffff16815260200160065f9054906101000a900463ffffffff1663ffffffff16815260200160068054906101000a900463ffffffff1663ffffffff168152602001610fb960405180602001604052805f151581525061128f565b8152506040518263ffffffff1660e01b8152600401610fd89190611d99565b6020604051808303815f875af1158015610ff4573d5f5f3e3d5ffd5b505050506040513d601f19601f820116820180604052508101906110189190611dcd565b905060405180606001604052803373ffffffffffffffffffffffffffffffffffffffff1681526020013481526020018360ff1681525060075f8381526020019081526020015f205f820151815f015f6101000a81548173ffffffffffffffffffffffffffffffffffffffff021916908373ffffffffffffffffffffffffffffffffffffffff160217905550602082015181600101556040820151816002015f6101000a81548160ff021916908360ff1602179055509050505050565b5f5f9054906101000a900473ffffffffffffffffffffffffffffffffffffffff1673ffffffffffffffffffffffffffffffffffffffff163373ffffffffffffffffffffffffffffffffffffffff1614611162576040517f08c379a000000000000000000000000000000000000000000000000000000000815260040161115990611e42565b60405180910390fd5b565b3373ffffffffffffffffffffffffffffffffffffffff168173ffffffffffffffffffffffffffffffffffffffff16036111d2576040517f08c379a00000000000000000000000000000000000000000000000000000000081526004016111c990611eaa565b60405180910390fd5b8060015f6101000a81548173ffffffffffffffffffffffffffffffffffffffff021916908373ffffffffffffffffffffffffffffffffffffffff1602179055508073ffffffffffffffffffffffffffffffffffffffff165f5f9054906101000a900473ffffffffffffffffffffffffffffffffffffffff1673ffffffffffffffffffffffffffffffffffffffff167fed8889f560326eb138920d842192f0eb3dd22b4f139c87a2c57538e05bae127860405160405180910390a350565b60607f92fd13387c7fe7befbc38d303d6468778fb9731bc4583f17d92989c6fcfdeaaa826040516024016112c39190611efc565b604051602081830303815290604052907bffffffffffffffffffffffffffffffffffffffffffffffffffffffff19166020820180517bffffffffffffffffffffffffffffffffffffffffffffffffffffffff83818316178352505050509050919050565b5f819050919050565b61133981611327565b82525050565b5f6020820190506113525f830184611330565b92915050565b5f5ffd5b5f5ffd5b61136981611327565b8114611373575f5ffd5b50565b5f8135905061138481611360565b92915050565b5f5ffd5b5f5ffd5b5f5ffd5b5f5f83601f8401126113ab576113aa61138a565b5b8235905067ffffffffffffffff8111156113c8576113c761138e565b5b6020830191508360208202830111156113e4576113e3611392565b5b9250929050565b5f5f5f6040848603121561140257611401611358565b5b5f61140f86828701611376565b935050602084013567ffffffffffffffff8111156114305761142f61135c565b5b61143c86828701611396565b92509250509250925092565b5f63ffffffff82169050919050565b61146081611448565b82525050565b5f6020820190506114795f830184611457565b92915050565b5f81519050919050565b5f82825260208201905092915050565b8281835e5f83830152505050565b5f601f19601f8301169050919050565b5f6114c18261147f565b6114cb8185611489565b93506114db818560208601611499565b6114e4816114a7565b840191505092915050565b5f6020820190508181035f83015261150781846114b7565b905092915050565b5f819050919050565b6115218161150f565b82525050565b5f60208201905061153a5f830184611518565b92915050565b5f73ffffffffffffffffffffffffffffffffffffffff82169050919050565b5f61156982611540565b9050919050565b6115798161155f565b82525050565b5f60ff82169050919050565b6115948161157f565b82525050565b5f60a0820190506115ad5f830188611570565b6115ba602083018761158b565b6115c7604083018661158b565b81810360608301526115d981856114b7565b90506115e86080830184611330565b9695505050505050565b5f6020820190506116055f830184611570565b92915050565b6116148161155f565b811461161e575f5ffd5b50565b5f8135905061162f8161160b565b92915050565b5f6020828403121561164a57611649611358565b5b5f61165784828501611621565b91505092915050565b5f819050919050565b5f61168361167e61167984611540565b611660565b611540565b9050919050565b5f61169482611669565b9050919050565b5f6116a58261168a565b9050919050565b6116b58161169b565b82525050565b5f6020820190506116ce5f8301846116ac565b92915050565b5f61ffff82169050919050565b6116ea816116d4565b82525050565b5f6020820190506117035f8301846116e1565b92915050565b5f60408201905061171c5f830185611570565b6117296020830184611570565b9392505050565b7f4d7573742062652070726f706f736564206f776e6572000000000000000000005f82015250565b5f611764601683611489565b915061176f82611730565b602082019050919050565b5f6020820190508181035f83015261179181611758565b9050919050565b7f4e487b71000000000000000000000000000000000000000000000000000000005f52602260045260245ffd5b5f60028204905060018216806117dc57607f821691505b6020821081036117ef576117ee611798565b5b50919050565b5f6060820190506118085f830186611570565b6118156020830185611570565b6118226040830184611570565b949350505050565b7f4e487b71000000000000000000000000000000000000000000000000000000005f52603260045260245ffd5b7f4e487b71000000000000000000000000000000000000000000000000000000005f52601260045260245ffd5b5f61188e82611327565b915061189983611327565b9250826118a9576118a8611857565b5b828206905092915050565b7f4e487b71000000000000000000000000000000000000000000000000000000005f52601160045260245ffd5b5f6118eb82611327565b91506118f683611327565b925082820261190481611327565b9150828204841483151761191b5761191a6118b4565b5b5092915050565b7f4e487b71000000000000000000000000000000000000000000000000000000005f52604160045260245ffd5b5f819050815f5260205f209050919050565b5f6020601f8301049050919050565b5f82821b905092915050565b5f600883026119ab7fffffffffffffffffffffffffffffffffffffffffffffffffffffffffffffffff82611970565b6119b58683611970565b95508019841693508086168417925050509392505050565b5f6119e76119e26119dd84611327565b611660565b611327565b9050919050565b5f819050919050565b611a00836119cd565b611a14611a0c826119ee565b84845461197c565b825550505050565b5f5f905090565b611a2b611a1c565b611a368184846119f7565b505050565b5b81811015611a5957611a4e5f82611a23565b600181019050611a3c565b5050565b601f821115611a9e57611a6f8161194f565b611a7884611961565b81016020851015611a87578190505b611a9b611a9385611961565b830182611a3b565b50505b505050565b5f82821c905092915050565b5f611abe5f1984600802611aa3565b1980831691505092915050565b5f611ad68383611aaf565b9150826002028217905092915050565b611aef8261147f565b67ffffffffffffffff811115611b0857611b07611922565b5b611b1282546117c5565b611b1d828285611a5d565b5f60209050601f831160018114611b4e575f8415611b3c578287015190505b611b468582611acb565b865550611bad565b601f198416611b5c8661194f565b5f5b82811015611b8357848901518255600182019150602085019450602081019050611b5e565b86831015611ba05784890151611b9c601f891682611aaf565b8355505b6001600288020188555050505b505050505050565b7f42657420746f6f206c6f770000000000000000000000000000000000000000005f82015250565b5f611be9600b83611489565b9150611bf482611bb5565b602082019050919050565b5f6020820190508181035f830152611c1681611bdd565b9050919050565b7f436f6e747261637420697320656d7074790000000000000000000000000000005f82015250565b5f611c51601183611489565b9150611c5c82611c1d565b602082019050919050565b5f6020820190508181035f830152611c7e81611c45565b9050919050565b611c8e8161150f565b82525050565b611c9d81611327565b82525050565b611cac816116d4565b82525050565b611cbb81611448565b82525050565b5f81519050919050565b5f82825260208201905092915050565b5f611ce582611cc1565b611cef8185611ccb565b9350611cff818560208601611499565b611d08816114a7565b840191505092915050565b5f60c083015f830151611d285f860182611c85565b506020830151611d3b6020860182611c94565b506040830151611d4e6040860182611ca3565b506060830151611d616060860182611cb2565b506080830151611d746080860182611cb2565b5060a083015184820360a0860152611d8c8282611cdb565b9150508091505092915050565b5f6020820190508181035f830152611db18184611d13565b905092915050565b5f81519050611dc781611360565b92915050565b5f60208284031215611de257611de1611358565b5b5f611def84828501611db9565b91505092915050565b7f4f6e6c792063616c6c61626c65206279206f776e6572000000000000000000005f82015250565b5f611e2c601683611489565b9150611e3782611df8565b602082019050919050565b5f6020820190508181035f830152611e5981611e20565b9050919050565b7f43616e6e6f74207472616e7366657220746f2073656c660000000000000000005f82015250565b5f611e94601783611489565b9150611e9f82611e60565b602082019050919050565b5f6020820190508181035f830152611ec181611e88565b9050919050565b5f8115159050919050565b611edc81611ec8565b82525050565b602082015f820151611ef65f850182611ed3565b50505050565b5f602082019050611f0f5f830184611ee2565b9291505056fed09fd180d0b0d0b2d0b8d0bbd0b03a20302dd09ad0b0d0bcd0b5d0bdd18c2c20312dd09dd0bed0b6d0bdd0b8d186d18b2c20322dd091d183d0bcd0b0d0b3d0b02e20d092d18bd0b8d0b3d180d18bd1883a20783220d0bed18220d181d182d0b0d0b2d0bad0b82e20d09dd0b8d187d18cd18f3a20d0b2d0bed0b7d0b2d180d0b0d1822e20d0a0d0b0d0bdd0b4d0bed0bc20d187d0b5d180d0b5d0b720436861696e6c696e6b205652462076322e352ea264697066735822122001754e96e1ddab40f8f587721fbc2fe5847bdc9bfb0ea6a57b6ab3bfbf58a50564736f6c634300081f0033",
					"opcodes": "PUSH1 0x80 PUSH1 0x40 MSTORE PUSH20 0xDA3B641D438362C440AC5458C57E00A712B66700 PUSH1 0x4 PUSH0 PUSH2 0x100 EXP DUP2 SLOAD DUP2 PUSH20 0xFFFFFFFFFFFFFFFFFFFFFFFFFFFFFFFFFFFFFFFF MUL NOT AND SWAP1 DUP4 PUSH20 0xFFFFFFFFFFFFFFFFFFFFFFFFFFFFFFFFFFFFFFFF AND MUL OR SWAP1 SSTORE POP PUSH32 0x8596B430971AC45BDF6088665B9AD8E8630C9D5049AB54B14DFF711BEE7C0E26 PUSH0 SHL PUSH1 0x5 SSTORE PUSH3 0x30D40 PUSH1 0x6 PUSH0 PUSH2 0x100 EXP DUP2 SLOAD DUP2 PUSH4 0xFFFFFFFF MUL NOT AND SWAP1 DUP4 PUSH4 0xFFFFFFFF AND MUL OR SWAP1 SSTORE POP PUSH1 0x3 PUSH1 0x6 PUSH1 0x4 PUSH2 0x100 EXP DUP2 SLOAD DUP2 PUSH2 0xFFFF MUL NOT AND SWAP1 DUP4 PUSH2 0xFFFF AND MUL OR SWAP1 SSTORE POP PUSH1 0x1 PUSH1 0x6 DUP1 PUSH2 0x100 EXP DUP2 SLOAD DUP2 PUSH4 0xFFFFFFFF MUL NOT AND SWAP1 DUP4 PUSH4 0xFFFFFFFF AND MUL OR SWAP1 SSTORE POP PUSH1 0x40 MLOAD PUSH2 0x2540 CODESIZE SUB DUP1 PUSH2 0x2540 DUP4 CODECOPY DUP2 DUP2 ADD PUSH1 0x40 MSTORE DUP2 ADD SWAP1 PUSH2 0x101 SWAP2 SWAP1 PUSH2 0x42E JUMP JUMPDEST PUSH1 0x4 PUSH0 SWAP1 SLOAD SWAP1 PUSH2 0x100 EXP SWAP1 DIV PUSH20 0xFFFFFFFFFFFFFFFFFFFFFFFFFFFFFFFFFFFFFFFF AND CALLER DUP1 PUSH0 PUSH0 PUSH20 0xFFFFFFFFFFFFFFFFFFFFFFFFFFFFFFFFFFFFFFFF AND DUP3 PUSH20 0xFFFFFFFFFFFFFFFFFFFFFFFFFFFFFFFFFFFFFFFF AND SUB PUSH2 0x194 JUMPI PUSH1 0x40 MLOAD PUSH32 0x8C379A000000000000000000000000000000000000000000000000000000000 DUP2 MSTORE PUSH1 0x4 ADD PUSH2 0x18B SWAP1 PUSH2 0x4B3 JUMP JUMPDEST PUSH1 0x40 MLOAD DUP1 SWAP2 SUB SWAP1 REVERT JUMPDEST DUP2 PUSH0 PUSH0 PUSH2 0x100 EXP DUP2 SLOAD DUP2 PUSH20 0xFFFFFFFFFFFFFFFFFFFFFFFFFFFFFFFFFFFFFFFF MUL NOT AND SWAP1 DUP4 PUSH20 0xFFFFFFFFFFFFFFFFFFFFFFFFFFFFFFFFFFFFFFFF AND MUL OR SWAP1 SSTORE POP PUSH0 PUSH20 0xFFFFFFFFFFFFFFFFFFFFFFFFFFFFFFFFFFFFFFFF AND DUP2 PUSH20 0xFFFFFFFFFFFFFFFFFFFFFFFFFFFFFFFFFFFFFFFF AND EQ PUSH2 0x216 JUMPI PUSH2 0x215 DUP2 PUSH2 0x2CC PUSH1 0x20 SHL PUSH1 0x20 SHR JUMP JUMPDEST JUMPDEST POP POP POP PUSH0 PUSH20 0xFFFFFFFFFFFFFFFFFFFFFFFFFFFFFFFFFFFFFFFF AND DUP2 PUSH20 0xFFFFFFFFFFFFFFFFFFFFFFFFFFFFFFFFFFFFFFFF AND SUB PUSH2 0x27E JUMPI PUSH1 0x40 MLOAD PUSH32 0xD92E233D00000000000000000000000000000000000000000000000000000000 DUP2 MSTORE PUSH1 0x4 ADD PUSH1 0x40 MLOAD DUP1 SWAP2 SUB SWAP1 REVERT JUMPDEST DUP1 PUSH1 0x2 PUSH0 PUSH2 0x100 EXP DUP2 SLOAD DUP2 PUSH20 0xFFFFFFFFFFFFFFFFFFFFFFFFFFFFFFFFFFFFFFFF MUL NOT AND SWAP1 DUP4 PUSH20 0xFFFFFFFFFFFFFFFFFFFFFFFFFFFFFFFFFFFFFFFF AND MUL OR SWAP1 SSTORE POP POP DUP1 PUSH1 0x3 DUP2 SWAP1 SSTORE POP POP PUSH2 0x539 JUMP JUMPDEST CALLER PUSH20 0xFFFFFFFFFFFFFFFFFFFFFFFFFFFFFFFFFFFFFFFF AND DUP2 PUSH20 0xFFFFFFFFFFFFFFFFFFFFFFFFFFFFFFFFFFFFFFFF AND SUB PUSH2 0x33A JUMPI PUSH1 0x40 MLOAD PUSH32 0x8C379A000000000000000000000000000000000000000000000000000000000 DUP2 MSTORE PUSH1 0x4 ADD PUSH2 0x331 SWAP1 PUSH2 0x51B JUMP JUMPDEST PUSH1 0x40 MLOAD DUP1 SWAP2 SUB SWAP1 REVERT JUMPDEST DUP1 PUSH1 0x1 PUSH0 PUSH2 0x100 EXP DUP2 SLOAD DUP2 PUSH20 0xFFFFFFFFFFFFFFFFFFFFFFFFFFFFFFFFFFFFFFFF MUL NOT AND SWAP1 DUP4 PUSH20 0xFFFFFFFFFFFFFFFFFFFFFFFFFFFFFFFFFFFFFFFF AND MUL OR SWAP1 SSTORE POP DUP1 PUSH20 0xFFFFFFFFFFFFFFFFFFFFFFFFFFFFFFFFFFFFFFFF AND PUSH0 PUSH0 SWAP1 SLOAD SWAP1 PUSH2 0x100 EXP SWAP1 DIV PUSH20 0xFFFFFFFFFFFFFFFFFFFFFFFFFFFFFFFFFFFFFFFF AND PUSH20 0xFFFFFFFFFFFFFFFFFFFFFFFFFFFFFFFFFFFFFFFF AND PUSH32 0xED8889F560326EB138920D842192F0EB3DD22B4F139C87A2C57538E05BAE1278 PUSH1 0x40 MLOAD PUSH1 0x40 MLOAD DUP1 SWAP2 SUB SWAP1 LOG3 POP JUMP JUMPDEST PUSH0 PUSH0 REVERT JUMPDEST PUSH0 DUP2 SWAP1 POP SWAP2 SWAP1 POP JUMP JUMPDEST PUSH2 0x40D DUP2 PUSH2 0x3FB JUMP JUMPDEST DUP2 EQ PUSH2 0x417 JUMPI PUSH0 PUSH0 REVERT JUMPDEST POP JUMP JUMPDEST PUSH0 DUP2 MLOAD SWAP1 POP PUSH2 0x428 DUP2 PUSH2 0x404 JUMP JUMPDEST SWAP3 SWAP2 POP POP JUMP JUMPDEST PUSH0 PUSH1 0x20 DUP3 DUP5 SUB SLT ISZERO PUSH2 0x443 JUMPI PUSH2 0x442 PUSH2 0x3F7 JUMP JUMPDEST JUMPDEST PUSH0 PUSH2 0x450 DUP5 DUP3 DUP6 ADD PUSH2 0x41A JUMP JUMPDEST SWAP2 POP POP SWAP3 SWAP2 POP POP JUMP JUMPDEST PUSH0 DUP3 DUP3 MSTORE PUSH1 0x20 DUP3 ADD SWAP1 POP SWAP3 SWAP2 POP POP JUMP JUMPDEST PUSH32 0x43616E6E6F7420736574206F776E657220746F207A65726F0000000000000000 PUSH0 DUP3 ADD MSTORE POP JUMP JUMPDEST PUSH0 PUSH2 0x49D PUSH1 0x18 DUP4 PUSH2 0x459 JUMP JUMPDEST SWAP2 POP PUSH2 0x4A8 DUP3 PUSH2 0x469 JUMP JUMPDEST PUSH1 0x20 DUP3 ADD SWAP1 POP SWAP2 SWAP1 POP JUMP JUMPDEST PUSH0 PUSH1 0x20 DUP3 ADD SWAP1 POP DUP2 DUP2 SUB PUSH0 DUP4 ADD MSTORE PUSH2 0x4CA DUP2 PUSH2 0x491 JUMP JUMPDEST SWAP1 POP SWAP2 SWAP1 POP JUMP JUMPDEST PUSH32 0x43616E6E6F74207472616E7366657220746F2073656C66000000000000000000 PUSH0 DUP3 ADD MSTORE POP JUMP JUMPDEST PUSH0 PUSH2 0x505 PUSH1 0x17 DUP4 PUSH2 0x459 JUMP JUMPDEST SWAP2 POP PUSH2 0x510 DUP3 PUSH2 0x4D1 JUMP JUMPDEST PUSH1 0x20 DUP3 ADD SWAP1 POP SWAP2 SWAP1 POP JUMP JUMPDEST PUSH0 PUSH1 0x20 DUP3 ADD SWAP1 POP DUP2 DUP2 SUB PUSH0 DUP4 ADD MSTORE PUSH2 0x532 DUP2 PUSH2 0x4F9 JUMP JUMPDEST SWAP1 POP SWAP2 SWAP1 POP JUMP JUMPDEST PUSH2 0x1FFA DUP1 PUSH2 0x546 PUSH0 CODECOPY PUSH0 RETURN INVALID PUSH1 0x80 PUSH1 0x40 MSTORE PUSH1 0x4 CALLDATASIZE LT PUSH2 0x129 JUMPI PUSH0 CALLDATALOAD PUSH1 0xE0 SHR DUP1 PUSH4 0x82BC07E6 GT PUSH2 0xAA JUMPI DUP1 PUSH4 0x9ECCACF6 GT PUSH2 0x6E JUMPI DUP1 PUSH4 0x9ECCACF6 EQ PUSH2 0x33B JUMPI DUP1 PUSH4 0xA3E56FA8 EQ PUSH2 0x365 JUMPI DUP1 PUSH4 0xB0FB162F EQ PUSH2 0x38F JUMPI DUP1 PUSH4 0xD0E30DB0 EQ PUSH2 0x3B9 JUMPI DUP1 PUSH4 0xE856BB18 EQ PUSH2 0x3C3 JUMPI DUP1 PUSH4 0xF2FDE38B EQ PUSH2 0x3CD JUMPI PUSH2 0x129 JUMP JUMPDEST DUP1 PUSH4 0x82BC07E6 EQ PUSH2 0x27B JUMPI DUP1 PUSH4 0x853828B6 EQ PUSH2 0x2A9 JUMPI DUP1 PUSH4 0x8AC00021 EQ PUSH2 0x2BF JUMPI DUP1 PUSH4 0x8DA5CB5B EQ PUSH2 0x2E9 JUMPI DUP1 PUSH4 0x8EA98117 EQ PUSH2 0x313 JUMPI PUSH2 0x129 JUMP JUMPDEST DUP1 PUSH4 0x61728F39 GT PUSH2 0xF1 JUMPI DUP1 PUSH4 0x61728F39 EQ PUSH2 0x1DD JUMPI DUP1 PUSH4 0x6540742F EQ PUSH2 0x207 JUMPI DUP1 PUSH4 0x6BE2C84E EQ PUSH2 0x231 JUMPI DUP1 PUSH4 0x79BA5097 EQ PUSH2 0x23B JUMPI DUP1 PUSH4 0x7CCFD7FC EQ PUSH2 0x251 JUMPI PUSH2 0x129 JUMP JUMPDEST DUP1 PUSH4 0x12065FE0 EQ PUSH2 0x12D JUMPI DUP1 PUSH4 0x1FE543E3 EQ PUSH2 0x157 JUMPI DUP1 PUSH4 0x24F74697 EQ PUSH2 0x17F JUMPI DUP1 PUSH4 0x41A26083 EQ PUSH2 0x1A9 JUMPI DUP1 PUSH4 0x45E2984A EQ PUSH2 0x1B3 JUMPI JUMPDEST PUSH0 PUSH0 REVERT JUMPDEST CALLVALUE DUP1 ISZERO PUSH2 0x138 JUMPI PUSH0 PUSH0 REVERT JUMPDEST POP PUSH2 0x141 PUSH2 0x3F5 JUMP JUMPDEST PUSH1 0x40 MLOAD PUSH2 0x14E SWAP2 SWAP1 PUSH2 0x133F JUMP JUMPDEST PUSH1 0x40 MLOAD DUP1 SWAP2 SUB SWAP1 RETURN JUMPDEST CALLVALUE DUP1 ISZERO PUSH2 0x162 JUMPI PUSH0 PUSH0 REVERT JUMPDEST POP PUSH2 0x17D PUSH1 0x4 DUP1 CALLDATASIZE SUB DUP2 ADD SWAP1 PUSH2 0x178 SWAP2 SWAP1 PUSH2 0x13EB JUMP JUMPDEST PUSH2 0x3FC JUMP JUMPDEST STOP JUMPDEST CALLVALUE DUP1 ISZERO PUSH2 0x18A JUMPI PUSH0 PUSH0 REVERT JUMPDEST POP PUSH2 0x193 PUSH2 0x4C0 JUMP JUMPDEST PUSH1 0x40 MLOAD PUSH2 0x1A0 SWAP2 SWAP1 PUSH2 0x1466 JUMP JUMPDEST PUSH1 0x40 MLOAD DUP1 SWAP2 SUB SWAP1 RETURN JUMPDEST PUSH2 0x1B1 PUSH2 0x4D5 JUMP JUMPDEST STOP JUMPDEST CALLVALUE DUP1 ISZERO PUSH2 0x1BE JUMPI PUSH0 PUSH0 REVERT JUMPDEST POP PUSH2 0x1C7 PUSH2 0x4E0 JUMP JUMPDEST PUSH1 0x40 MLOAD PUSH2 0x1D4 SWAP2 SWAP1 PUSH2 0x14EF JUMP JUMPDEST PUSH1 0x40 MLOAD DUP1 SWAP2 SUB SWAP1 RETURN JUMPDEST CALLVALUE DUP1 ISZERO PUSH2 0x1E8 JUMPI PUSH0 PUSH0 REVERT JUMPDEST POP PUSH2 0x1F1 PUSH2 0x500 JUMP JUMPDEST PUSH1 0x40 MLOAD PUSH2 0x1FE SWAP2 SWAP1 PUSH2 0x1527 JUMP JUMPDEST PUSH1 0x40 MLOAD DUP1 SWAP2 SUB SWAP1 RETURN JUMPDEST CALLVALUE DUP1 ISZERO PUSH2 0x212 JUMPI PUSH0 PUSH0 REVERT JUMPDEST POP PUSH2 0x21B PUSH2 0x506 JUMP JUMPDEST PUSH1 0x40 MLOAD PUSH2 0x228 SWAP2 SWAP1 PUSH2 0x133F JUMP JUMPDEST PUSH1 0x40 MLOAD DUP1 SWAP2 SUB SWAP1 RETURN JUMPDEST PUSH2 0x239 PUSH2 0x50F JUMP JUMPDEST STOP JUMPDEST CALLVALUE DUP1 ISZERO PUSH2 0x246 JUMPI PUSH0 PUSH0 REVERT JUMPDEST POP PUSH2 0x24F PUSH2 0x51B JUMP JUMPDEST STOP JUMPDEST CALLVALUE DUP1 ISZERO PUSH2 0x25C JUMPI PUSH0 PUSH0 REVERT JUMPDEST POP PUSH2 0x265 PUSH2 0x6AA JUMP JUMPDEST PUSH1 0x40 MLOAD PUSH2 0x272 SWAP2 SWAP1 PUSH2 0x1466 JUMP JUMPDEST PUSH1 0x40 MLOAD DUP1 SWAP2 SUB SWAP1 RETURN JUMPDEST CALLVALUE DUP1 ISZERO PUSH2 0x286 JUMPI PUSH0 PUSH0 REVERT JUMPDEST POP PUSH2 0x28F PUSH2 0x6BE JUMP JUMPDEST PUSH1 0x40 MLOAD PUSH2 0x2A0 SWAP6 SWAP5 SWAP4 SWAP3 SWAP2 SWAP1 PUSH2 0x159A JUMP JUMPDEST PUSH1 0x40 MLOAD DUP1 SWAP2 SUB SWAP1 RETURN JUMPDEST CALLVALUE DUP1 ISZERO PUSH2 0x2B4 JUMPI PUSH0 PUSH0 REVERT JUMPDEST POP PUSH2 0x2BD PUSH2 0x79E JUMP JUMPDEST STOP JUMPDEST CALLVALUE DUP1 ISZERO PUSH2 0x2CA JUMPI PUSH0 PUSH0 REVERT JUMPDEST POP PUSH2 0x2D3 PUSH2 0x7EC JUMP JUMPDEST PUSH1 0x40 MLOAD PUSH2 0x2E0 SWAP2 SWAP1 PUSH2 0x133F JUMP JUMPDEST PUSH1 0x40 MLOAD DUP1 SWAP2 SUB SWAP1 RETURN JUMPDEST CALLVALUE DUP1 ISZERO PUSH2 0x2F4 JUMPI PUSH0 PUSH0 REVERT JUMPDEST POP PUSH2 0x2FD PUSH2 0x7F2 JUMP JUMPDEST PUSH1 0x40 MLOAD PUSH2 0x30A SWAP2 SWAP1 PUSH2 0x15F2 JUMP JUMPDEST PUSH1 0x40 MLOAD DUP1 SWAP2 SUB SWAP1 RETURN JUMPDEST CALLVALUE DUP1 ISZERO PUSH2 0x31E JUMPI PUSH0 PUSH0 REVERT JUMPDEST POP PUSH2 0x339 PUSH1 0x4 DUP1 CALLDATASIZE SUB DUP2 ADD SWAP1 PUSH2 0x334 SWAP2 SWAP1 PUSH2 0x1635 JUMP JUMPDEST PUSH2 0x819 JUMP JUMPDEST STOP JUMPDEST CALLVALUE DUP1 ISZERO PUSH2 0x346 JUMPI PUSH0 PUSH0 REVERT JUMPDEST POP PUSH2 0x34F PUSH2 0x9F6 JUMP JUMPDEST PUSH1 0x40 MLOAD PUSH2 0x35C SWAP2 SWAP1 PUSH2 0x16BB JUMP JUMPDEST PUSH1 0x40 MLOAD DUP1 SWAP2 SUB SWAP1 RETURN JUMPDEST CALLVALUE DUP1 ISZERO PUSH2 0x370 JUMPI PUSH0 PUSH0 REVERT JUMPDEST POP PUSH2 0x379 PUSH2 0xA1B JUMP JUMPDEST PUSH1 0x40 MLOAD PUSH2 0x386 SWAP2 SWAP1 PUSH2 0x15F2 JUMP JUMPDEST PUSH1 0x40 MLOAD DUP1 SWAP2 SUB SWAP1 RETURN JUMPDEST CALLVALUE DUP1 ISZERO PUSH2 0x39A JUMPI PUSH0 PUSH0 REVERT JUMPDEST POP PUSH2 0x3A3 PUSH2 0xA40 JUMP JUMPDEST PUSH1 0x40 MLOAD PUSH2 0x3B0 SWAP2 SWAP1 PUSH2 0x16F0 JUMP JUMPDEST PUSH1 0x40 MLOAD DUP1 SWAP2 SUB SWAP1 RETURN JUMPDEST PUSH2 0x3C1 PUSH2 0xA54 JUMP JUMPDEST STOP JUMPDEST PUSH2 0x3CB PUSH2 0xA56 JUMP JUMPDEST STOP JUMPDEST CALLVALUE DUP1 ISZERO PUSH2 0x3D8 JUMPI PUSH0 PUSH0 REVERT JUMPDEST POP PUSH2 0x3F3 PUSH1 0x4 DUP1 CALLDATASIZE SUB DUP2 ADD SWAP1 PUSH2 0x3EE SWAP2 SWAP1 PUSH2 0x1635 JUMP JUMPDEST PUSH2 0xA62 JUMP JUMPDEST STOP JUMPDEST PUSH0 SELFBALANCE SWAP1 POP SWAP1 JUMP JUMPDEST PUSH1 0x2 PUSH0 SWAP1 SLOAD SWAP1 PUSH2 0x100 EXP SWAP1 DIV PUSH20 0xFFFFFFFFFFFFFFFFFFFFFFFFFFFFFFFFFFFFFFFF AND PUSH20 0xFFFFFFFFFFFFFFFFFFFFFFFFFFFFFFFFFFFFFFFF AND CALLER PUSH20 0xFFFFFFFFFFFFFFFFFFFFFFFFFFFFFFFFFFFFFFFF AND EQ PUSH2 0x4B0 JUMPI CALLER PUSH1 0x2 PUSH0 SWAP1 SLOAD SWAP1 PUSH2 0x100 EXP SWAP1 DIV PUSH20 0xFFFFFFFFFFFFFFFFFFFFFFFFFFFFFFFFFFFFFFFF AND PUSH1 0x40 MLOAD PUSH32 0x1CF993F400000000000000000000000000000000000000000000000000000000 DUP2 MSTORE PUSH1 0x4 ADD PUSH2 0x4A7 SWAP3 SWAP2 SWAP1 PUSH2 0x1709 JUMP JUMPDEST PUSH1 0x40 MLOAD DUP1 SWAP2 SUB SWAP1 REVERT JUMPDEST PUSH2 0x4BB DUP4 DUP4 DUP4 PUSH2 0xA76 JUMP JUMPDEST POP POP POP JUMP JUMPDEST PUSH1 0x6 PUSH0 SWAP1 SLOAD SWAP1 PUSH2 0x100 EXP SWAP1 DIV PUSH4 0xFFFFFFFF AND DUP2 JUMP JUMPDEST PUSH2 0x4DE PUSH0 PUSH2 0xE5D JUMP JUMPDEST JUMP JUMPDEST PUSH1 0x60 PUSH1 0x40 MLOAD DUP1 PUSH1 0xE0 ADD PUSH1 0x40 MSTORE DUP1 PUSH1 0xAF DUP2 MSTORE PUSH1 0x20 ADD PUSH2 0x1F16 PUSH1 0xAF SWAP2 CODECOPY SWAP1 POP SWAP1 JUMP JUMPDEST PUSH1 0x5 SLOAD DUP2 JUMP JUMPDEST PUSH5 0xE8D4A51000 DUP2 JUMP JUMPDEST PUSH2 0x519 PUSH1 0x1 PUSH2 0xE5D JUMP JUMPDEST JUMP JUMPDEST PUSH1 0x1 PUSH0 SWAP1 SLOAD SWAP1 PUSH2 0x100 EXP SWAP1 DIV PUSH20 0xFFFFFFFFFFFFFFFFFFFFFFFFFFFFFFFFFFFFFFFF AND PUSH20 0xFFFFFFFFFFFFFFFFFFFFFFFFFFFFFFFFFFFFFFFF AND CALLER PUSH20 0xFFFFFFFFFFFFFFFFFFFFFFFFFFFFFFFFFFFFFFFF AND EQ PUSH2 0x5AA JUMPI PUSH1 0x40 MLOAD PUSH32 0x8C379A000000000000000000000000000000000000000000000000000000000 DUP2 MSTORE PUSH1 0x4 ADD PUSH2 0x5A1 SWAP1 PUSH2 0x177A JUMP JUMPDEST PUSH1 0x40 MLOAD DUP1 SWAP2 SUB SWAP1 REVERT JUMPDEST PUSH0 PUSH0 PUSH0 SWAP1 SLOAD SWAP1 PUSH2 0x100 EXP SWAP1 DIV PUSH20 0xFFFFFFFFFFFFFFFFFFFFFFFFFFFFFFFFFFFFFFFF AND SWAP1 POP CALLER PUSH0 PUSH0 PUSH2 0x100 EXP DUP2 SLOAD DUP2 PUSH20 0xFFFFFFFFFFFFFFFFFFFFFFFFFFFFFFFFFFFFFFFF MUL NOT AND SWAP1 DUP4 PUSH20 0xFFFFFFFFFFFFFFFFFFFFFFFFFFFFFFFFFFFFFFFF AND MUL OR SWAP1 SSTORE POP PUSH0 PUSH1 0x1 PUSH0 PUSH2 0x100 EXP DUP2 SLOAD DUP2 PUSH20 0xFFFFFFFFFFFFFFFFFFFFFFFFFFFFFFFFFFFFFFFF MUL NOT AND SWAP1 DUP4 PUSH20 0xFFFFFFFFFFFFFFFFFFFFFFFFFFFFFFFFFFFFFFFF AND MUL OR SWAP1 SSTORE POP CALLER PUSH20 0xFFFFFFFFFFFFFFFFFFFFFFFFFFFFFFFFFFFFFFFF AND DUP2 PUSH20 0xFFFFFFFFFFFFFFFFFFFFFFFFFFFFFFFFFFFFFFFF AND PUSH32 0x8BE0079C531659141344CD1FD0A4F28419497F9722A3DAAFE3B4186F6B6457E0 PUSH1 0x40 MLOAD PUSH1 0x40 MLOAD DUP1 SWAP2 SUB SWAP1 LOG3 POP JUMP JUMPDEST PUSH1 0x6 DUP1 SLOAD SWAP1 PUSH2 0x100 EXP SWAP1 DIV PUSH4 0xFFFFFFFF AND DUP2 JUMP JUMPDEST PUSH1 0x8 DUP1 PUSH0 ADD PUSH0 SWAP1 SLOAD SWAP1 PUSH2 0x100 EXP SWAP1 DIV PUSH20 0xFFFFFFFFFFFFFFFFFFFFFFFFFFFFFFFFFFFFFFFF AND SWAP1 DUP1 PUSH0 ADD PUSH1 0x14 SWAP1 SLOAD SWAP1 PUSH2 0x100 EXP SWAP1 DIV PUSH1 0xFF AND SWAP1 DUP1 PUSH0 ADD PUSH1 0x15 SWAP1 SLOAD SWAP1 PUSH2 0x100 EXP SWAP1 DIV PUSH1 0xFF AND SWAP1 DUP1 PUSH1 0x1 ADD DUP1 SLOAD PUSH2 0x717 SWAP1 PUSH2 0x17C5 JUMP JUMPDEST DUP1 PUSH1 0x1F ADD PUSH1 0x20 DUP1 SWAP2 DIV MUL PUSH1 0x20 ADD PUSH1 0x40 MLOAD SWAP1 DUP2 ADD PUSH1 0x40 MSTORE DUP1 SWAP3 SWAP2 SWAP1 DUP2 DUP2 MSTORE PUSH1 0x20 ADD DUP3 DUP1 SLOAD PUSH2 0x743 SWAP1 PUSH2 0x17C5 JUMP JUMPDEST DUP1 ISZERO PUSH2 0x78E JUMPI DUP1 PUSH1 0x1F LT PUSH2 0x765 JUMPI PUSH2 0x100 DUP1 DUP4 SLOAD DIV MUL DUP4 MSTORE SWAP2 PUSH1 0x20 ADD SWAP2 PUSH2 0x78E JUMP JUMPDEST DUP3 ADD SWAP2 SWAP1 PUSH0 MSTORE PUSH1 0x20 PUSH0 KECCAK256 SWAP1 JUMPDEST DUP2 SLOAD DUP2 MSTORE SWAP1 PUSH1 0x1 ADD SWAP1 PUSH1 0x20 ADD DUP1 DUP4 GT PUSH2 0x771 JUMPI DUP3 SWAP1 SUB PUSH1 0x1F AND DUP3 ADD SWAP2 JUMPDEST POP POP POP POP POP SWAP1 DUP1 PUSH1 0x2 ADD SLOAD SWAP1 POP DUP6 JUMP JUMPDEST PUSH2 0x7A6 PUSH2 0x10D4 JUMP JUMPDEST CALLER PUSH20 0xFFFFFFFFFFFFFFFFFFFFFFFFFFFFFFFFFFFFFFFF AND PUSH2 0x8FC SELFBALANCE SWAP1 DUP2 ISZERO MUL SWAP1 PUSH1 0x40 MLOAD PUSH0 PUSH1 0x40 MLOAD DUP1 DUP4 SUB DUP2 DUP6 DUP9 DUP9 CALL SWAP4 POP POP POP POP ISZERO DUP1 ISZERO PUSH2 0x7E9 JUMPI RETURNDATASIZE PUSH0 PUSH0 RETURNDATACOPY RETURNDATASIZE PUSH0 REVERT JUMPDEST POP JUMP JUMPDEST PUSH1 0x3 SLOAD DUP2 JUMP JUMPDEST PUSH0 PUSH0 PUSH0 SWAP1 SLOAD SWAP1 PUSH2 0x100 EXP SWAP1 DIV PUSH20 0xFFFFFFFFFFFFFFFFFFFFFFFFFFFFFFFFFFFFFFFF AND SWAP1 POP SWAP1 JUMP JUMPDEST PUSH2 0x821 PUSH2 0x7F2 JUMP JUMPDEST PUSH20 0xFFFFFFFFFFFFFFFFFFFFFFFFFFFFFFFFFFFFFFFF AND CALLER PUSH20 0xFFFFFFFFFFFFFFFFFFFFFFFFFFFFFFFFFFFFFFFF AND EQ ISZERO DUP1 ISZERO PUSH2 0x8A9 JUMPI POP PUSH1 0x2 PUSH0 SWAP1 SLOAD SWAP1 PUSH2 0x100 EXP SWAP1 DIV PUSH20 0xFFFFFFFFFFFFFFFFFFFFFFFFFFFFFFFFFFFFFFFF AND PUSH20 0xFFFFFFFFFFFFFFFFFFFFFFFFFFFFFFFFFFFFFFFF AND CALLER PUSH20 0xFFFFFFFFFFFFFFFFFFFFFFFFFFFFFFFFFFFFFFFF AND EQ ISZERO JUMPDEST ISZERO PUSH2 0x917 JUMPI CALLER PUSH2 0x8B7 PUSH2 0x7F2 JUMP JUMPDEST PUSH1 0x2 PUSH0 SWAP1 SLOAD SWAP1 PUSH2 0x100 EXP SWAP1 DIV PUSH20 0xFFFFFFFFFFFFFFFFFFFFFFFFFFFFFFFFFFFFFFFF AND PUSH1 0x40 MLOAD PUSH32 0x61DB9C100000000000000000000000000000000000000000000000000000000 DUP2 MSTORE PUSH1 0x4 ADD PUSH2 0x90E SWAP4 SWAP3 SWAP2 SWAP1 PUSH2 0x17F5 JUMP JUMPDEST PUSH1 0x40 MLOAD DUP1 SWAP2 SUB SWAP1 REVERT JUMPDEST PUSH0 PUSH20 0xFFFFFFFFFFFFFFFFFFFFFFFFFFFFFFFFFFFFFFFF AND DUP2 PUSH20 0xFFFFFFFFFFFFFFFFFFFFFFFFFFFFFFFFFFFFFFFF AND SUB PUSH2 0x97C JUMPI PUSH1 0x40 MLOAD PUSH32 0xD92E233D00000000000000000000000000000000000000000000000000000000 DUP2 MSTORE PUSH1 0x4 ADD PUSH1 0x40 MLOAD DUP1 SWAP2 SUB SWAP1 REVERT JUMPDEST DUP1 PUSH1 0x2 PUSH0 PUSH2 0x100 EXP DUP2 SLOAD DUP2 PUSH20 0xFFFFFFFFFFFFFFFFFFFFFFFFFFFFFFFFFFFFFFFF MUL NOT AND SWAP1 DUP4 PUSH20 0xFFFFFFFFFFFFFFFFFFFFFFFFFFFFFFFFFFFFFFFF AND MUL OR SWAP1 SSTORE POP PUSH32 0xD1A6A14209A385A964D036E404CB5CFB71F4000CDB03C9366292430787261BE6 DUP2 PUSH1 0x40 MLOAD PUSH2 0x9EB SWAP2 SWAP1 PUSH2 0x15F2 JUMP JUMPDEST PUSH1 0x40 MLOAD DUP1 SWAP2 SUB SWAP1 LOG1 POP JUMP JUMPDEST PUSH1 0x2 PUSH0 SWAP1 SLOAD SWAP1 PUSH2 0x100 EXP SWAP1 DIV PUSH20 0xFFFFFFFFFFFFFFFFFFFFFFFFFFFFFFFFFFFFFFFF AND DUP2 JUMP JUMPDEST PUSH1 0x4 PUSH0 SWAP1 SLOAD SWAP1 PUSH2 0x100 EXP SWAP1 DIV PUSH20 0xFFFFFFFFFFFFFFFFFFFFFFFFFFFFFFFFFFFFFFFF AND DUP2 JUMP JUMPDEST PUSH1 0x6 PUSH1 0x4 SWAP1 SLOAD SWAP1 PUSH2 0x100 EXP SWAP1 DIV PUSH2 0xFFFF AND DUP2 JUMP JUMPDEST JUMP JUMPDEST PUSH2 0xA60 PUSH1 0x2 PUSH2 0xE5D JUMP JUMPDEST JUMP JUMPDEST PUSH2 0xA6A PUSH2 0x10D4 JUMP JUMPDEST PUSH2 0xA73 DUP2 PUSH2 0x1164 JUMP JUMPDEST POP JUMP JUMPDEST PUSH0 PUSH1 0x7 PUSH0 DUP6 DUP2 MSTORE PUSH1 0x20 ADD SWAP1 DUP2 MSTORE PUSH1 0x20 ADD PUSH0 KECCAK256 PUSH1 0x40 MLOAD DUP1 PUSH1 0x60 ADD PUSH1 0x40 MSTORE SWAP1 DUP2 PUSH0 DUP3 ADD PUSH0 SWAP1 SLOAD SWAP1 PUSH2 0x100 EXP SWAP1 DIV PUSH20 0xFFFFFFFFFFFFFFFFFFFFFFFFFFFFFFFFFFFFFFFF AND PUSH20 0xFFFFFFFFFFFFFFFFFFFFFFFFFFFFFFFFFFFFFFFF AND PUSH20 0xFFFFFFFFFFFFFFFFFFFFFFFFFFFFFFFFFFFFFFFF AND DUP2 MSTORE PUSH1 0x20 ADD PUSH1 0x1 DUP3 ADD SLOAD DUP2 MSTORE PUSH1 0x20 ADD PUSH1 0x2 DUP3 ADD PUSH0 SWAP1 SLOAD SWAP1 PUSH2 0x100 EXP SWAP1 DIV PUSH1 0xFF AND PUSH1 0xFF AND PUSH1 0xFF AND DUP2 MSTORE POP POP SWAP1 POP PUSH0 PUSH1 0x3 DUP5 DUP5 PUSH0 DUP2 DUP2 LT PUSH2 0xB25 JUMPI PUSH2 0xB24 PUSH2 0x182A JUMP JUMPDEST JUMPDEST SWAP1 POP PUSH1 0x20 MUL ADD CALLDATALOAD PUSH2 0xB36 SWAP2 SWAP1 PUSH2 0x1884 JUMP JUMPDEST SWAP1 POP PUSH1 0x60 PUSH0 PUSH0 SWAP1 POP DUP3 PUSH1 0xFF AND DUP5 PUSH1 0x40 ADD MLOAD PUSH1 0xFF AND SUB PUSH2 0xBDA JUMPI PUSH1 0x40 MLOAD DUP1 PUSH1 0x40 ADD PUSH1 0x40 MSTORE DUP1 PUSH1 0x4 DUP2 MSTORE PUSH1 0x20 ADD PUSH32 0x4472617700000000000000000000000000000000000000000000000000000000 DUP2 MSTORE POP SWAP2 POP DUP4 PUSH1 0x20 ADD MLOAD SWAP1 POP DUP4 PUSH0 ADD MLOAD PUSH20 0xFFFFFFFFFFFFFFFFFFFFFFFFFFFFFFFFFFFFFFFF AND PUSH2 0x8FC DUP3 SWAP1 DUP2 ISZERO MUL SWAP1 PUSH1 0x40 MLOAD PUSH0 PUSH1 0x40 MLOAD DUP1 DUP4 SUB DUP2 DUP6 DUP9 DUP9 CALL SWAP4 POP POP POP POP ISZERO DUP1 ISZERO PUSH2 0xBD4 JUMPI RETURNDATASIZE PUSH0 PUSH0 RETURNDATACOPY RETURNDATASIZE PUSH0 REVERT JUMPDEST POP PUSH2 0xD0A JUMP JUMPDEST PUSH0 DUP5 PUSH1 0x40 ADD MLOAD PUSH1 0xFF AND EQ DUP1 ISZERO PUSH2 0xBF3 JUMPI POP PUSH1 0x1 DUP4 PUSH1 0xFF AND EQ JUMPDEST DUP1 PUSH2 0xC14 JUMPI POP PUSH1 0x1 DUP5 PUSH1 0x40 ADD MLOAD PUSH1 0xFF AND EQ DUP1 ISZERO PUSH2 0xC13 JUMPI POP PUSH1 0x2 DUP4 PUSH1 0xFF AND EQ JUMPDEST JUMPDEST DUP1 PUSH2 0xC34 JUMPI POP PUSH1 0x2 DUP5 PUSH1 0x40 ADD MLOAD PUSH1 0xFF AND EQ DUP1 ISZERO PUSH2 0xC33 JUMPI POP PUSH0 DUP4 PUSH1 0xFF AND EQ JUMPDEST JUMPDEST ISZERO PUSH2 0xCD0 JUMPI PUSH1 0x40 MLOAD DUP1 PUSH1 0x40 ADD PUSH1 0x40 MSTORE DUP1 PUSH1 0x8 DUP2 MSTORE PUSH1 0x20 ADD PUSH32 0x596F752057696E21000000000000000000000000000000000000000000000000 DUP2 MSTORE POP SWAP2 POP PUSH1 0x2 DUP5 PUSH1 0x20 ADD MLOAD PUSH2 0xC82 SWAP2 SWAP1 PUSH2 0x18E1 JUMP JUMPDEST SWAP1 POP DUP4 PUSH0 ADD MLOAD PUSH20 0xFFFFFFFFFFFFFFFFFFFFFFFFFFFFFFFFFFFFFFFF AND PUSH2 0x8FC DUP3 SWAP1 DUP2 ISZERO MUL SWAP1 PUSH1 0x40 MLOAD PUSH0 PUSH1 0x40 MLOAD DUP1 DUP4 SUB DUP2 DUP6 DUP9 DUP9 CALL SWAP4 POP POP POP POP ISZERO DUP1 ISZERO PUSH2 0xCCA JUMPI RETURNDATASIZE PUSH0 PUSH0 RETURNDATACOPY RETURNDATASIZE PUSH0 REVERT JUMPDEST POP PUSH2 0xD09 JUMP JUMPDEST PUSH1 0x40 MLOAD DUP1 PUSH1 0x40 ADD PUSH1 0x40 MSTORE DUP1 PUSH1 0x4 DUP2 MSTORE PUSH1 0x20 ADD PUSH32 0x4C6F736500000000000000000000000000000000000000000000000000000000 DUP2 MSTORE POP SWAP2 POP JUMPDEST JUMPDEST PUSH1 0x40 MLOAD DUP1 PUSH1 0xA0 ADD PUSH1 0x40 MSTORE DUP1 DUP6 PUSH0 ADD MLOAD PUSH20 0xFFFFFFFFFFFFFFFFFFFFFFFFFFFFFFFFFFFFFFFF AND DUP2 MSTORE PUSH1 0x20 ADD DUP6 PUSH1 0x40 ADD MLOAD PUSH1 0xFF AND DUP2 MSTORE PUSH1 0x20 ADD DUP5 PUSH1 0xFF AND DUP2 MSTORE PUSH1 0x20 ADD DUP4 DUP2 MSTORE PUSH1 0x20 ADD DUP6 PUSH1 0x20 ADD MLOAD DUP2 MSTORE POP PUSH1 0x8 PUSH0 DUP3 ADD MLOAD DUP2 PUSH0 ADD PUSH0 PUSH2 0x100 EXP DUP2 SLOAD DUP2 PUSH20 0xFFFFFFFFFFFFFFFFFFFFFFFFFFFFFFFFFFFFFFFF MUL NOT AND SWAP1 DUP4 PUSH20 0xFFFFFFFFFFFFFFFFFFFFFFFFFFFFFFFFFFFFFFFF AND MUL OR SWAP1 SSTORE POP PUSH1 0x20 DUP3 ADD MLOAD DUP2 PUSH0 ADD PUSH1 0x14 PUSH2 0x100 EXP DUP2 SLOAD DUP2 PUSH1 0xFF MUL NOT AND SWAP1 DUP4 PUSH1 0xFF AND MUL OR SWAP1 SSTORE POP PUSH1 0x40 DUP3 ADD MLOAD DUP2 PUSH0 ADD PUSH1 0x15 PUSH2 0x100 EXP DUP2 SLOAD DUP2 PUSH1 0xFF MUL NOT AND SWAP1 DUP4 PUSH1 0xFF AND MUL OR SWAP1 SSTORE POP PUSH1 0x60 DUP3 ADD MLOAD DUP2 PUSH1 0x1 ADD SWAP1 DUP2 PUSH2 0xDF3 SWAP2 SWAP1 PUSH2 0x1AE6 JUMP JUMPDEST POP PUSH1 0x80 DUP3 ADD MLOAD DUP2 PUSH1 0x2 ADD SSTORE SWAP1 POP POP PUSH1 0x7 PUSH0 DUP9 DUP2 MSTORE PUSH1 0x20 ADD SWAP1 DUP2 MSTORE PUSH1 0x20 ADD PUSH0 KECCAK256 PUSH0 PUSH0 DUP3 ADD PUSH0 PUSH2 0x100 EXP DUP2 SLOAD SWAP1 PUSH20 0xFFFFFFFFFFFFFFFFFFFFFFFFFFFFFFFFFFFFFFFF MUL NOT AND SWAP1 SSTORE PUSH1 0x1 DUP3 ADD PUSH0 SWAP1 SSTORE PUSH1 0x2 DUP3 ADD PUSH0 PUSH2 0x100 EXP DUP2 SLOAD SWAP1 PUSH1 0xFF MUL NOT AND SWAP1 SSTORE POP POP POP POP POP POP POP POP POP JUMP JUMPDEST PUSH5 0xE8D4A51000 CALLVALUE LT ISZERO PUSH2 0xEA5 JUMPI PUSH1 0x40 MLOAD PUSH32 0x8C379A000000000000000000000000000000000000000000000000000000000 DUP2 MSTORE PUSH1 0x4 ADD PUSH2 0xE9C SWAP1 PUSH2 0x1BFF JUMP JUMPDEST PUSH1 0x40 MLOAD DUP1 SWAP2 SUB SWAP1 REVERT JUMPDEST PUSH1 0x2 CALLVALUE PUSH2 0xEB2 SWAP2 SWAP1 PUSH2 0x18E1 JUMP JUMPDEST SELFBALANCE LT ISZERO PUSH2 0xEF4 JUMPI PUSH1 0x40 MLOAD PUSH32 0x8C379A000000000000000000000000000000000000000000000000000000000 DUP2 MSTORE PUSH1 0x4 ADD PUSH2 0xEEB SWAP1 PUSH2 0x1C67 JUMP JUMPDEST PUSH1 0x40 MLOAD DUP1 SWAP2 SUB SWAP1 REVERT JUMPDEST PUSH0 PUSH1 0x2 PUSH0 SWAP1 SLOAD SWAP1 PUSH2 0x100 EXP SWAP1 DIV PUSH20 0xFFFFFFFFFFFFFFFFFFFFFFFFFFFFFFFFFFFFFFFF AND PUSH20 0xFFFFFFFFFFFFFFFFFFFFFFFFFFFFFFFFFFFFFFFF AND PUSH4 0x9B1C385E PUSH1 0x40 MLOAD DUP1 PUSH1 0xC0 ADD PUSH1 0x40 MSTORE DUP1 PUSH1 0x5 SLOAD DUP2 MSTORE PUSH1 0x20 ADD PUSH1 0x3 SLOAD DUP2 MSTORE PUSH1 0x20 ADD PUSH1 0x6 PUSH1 0x4 SWAP1 SLOAD SWAP1 PUSH2 0x100 EXP SWAP1 DIV PUSH2 0xFFFF AND PUSH2 0xFFFF AND DUP2 MSTORE PUSH1 0x20 ADD PUSH1 0x6 PUSH0 SWAP1 SLOAD SWAP1 PUSH2 0x100 EXP SWAP1 DIV PUSH4 0xFFFFFFFF AND PUSH4 0xFFFFFFFF AND DUP2 MSTORE PUSH1 0x20 ADD PUSH1 0x6 DUP1 SLOAD SWAP1 PUSH2 0x100 EXP SWAP1 DIV PUSH4 0xFFFFFFFF AND PUSH4 0xFFFFFFFF AND DUP2 MSTORE PUSH1 0x20 ADD PUSH2 0xFB9 PUSH1 0x40 MLOAD DUP1 PUSH1 0x20 ADD PUSH1 0x40 MSTORE DUP1 PUSH0 ISZERO ISZERO DUP2 MSTORE POP PUSH2 0x128F JUMP JUMPDEST DUP2 MSTORE POP PUSH1 0x40 MLOAD DUP3 PUSH4 0xFFFFFFFF AND PUSH1 0xE0 SHL DUP2 MSTORE PUSH1 0x4 ADD PUSH2 0xFD8 SWAP2 SWAP1 PUSH2 0x1D99 JUMP JUMPDEST PUSH1 0x20 PUSH1 0x40 MLOAD DUP1 DUP4 SUB DUP2 PUSH0 DUP8 GAS CALL ISZERO DUP1 ISZERO PUSH2 0xFF4 JUMPI RETURNDATASIZE PUSH0 PUSH0 RETURNDATACOPY RETURNDATASIZE PUSH0 REVERT JUMPDEST POP POP POP POP PUSH1 0x40 MLOAD RETURNDATASIZE PUSH1 0x1F NOT PUSH1 0x1F DUP3 ADD AND DUP3 ADD DUP1 PUSH1 0x40 MSTORE POP DUP2 ADD SWAP1 PUSH2 0x1018 SWAP2 SWAP1 PUSH2 0x1DCD JUMP JUMPDEST SWAP1 POP PUSH1 0x40 MLOAD DUP1 PUSH1 0x60 ADD PUSH1 0x40 MSTORE DUP1 CALLER PUSH20 0xFFFFFFFFFFFFFFFFFFFFFFFFFFFFFFFFFFFFFFFF AND DUP2 MSTORE PUSH1 0x20 ADD CALLVALUE DUP2 MSTORE PUSH1 0x20 ADD DUP4 PUSH1 0xFF AND DUP2 MSTORE POP PUSH1 0x7 PUSH0 DUP4 DUP2 MSTORE PUSH1 0x20 ADD SWAP1 DUP2 MSTORE PUSH1 0x20 ADD PUSH0 KECCAK256 PUSH0 DUP3 ADD MLOAD DUP2 PUSH0 ADD PUSH0 PUSH2 0x100 EXP DUP2 SLOAD DUP2 PUSH20 0xFFFFFFFFFFFFFFFFFFFFFFFFFFFFFFFFFFFFFFFF MUL NOT AND SWAP1 DUP4 PUSH20 0xFFFFFFFFFFFFFFFFFFFFFFFFFFFFFFFFFFFFFFFF AND MUL OR SWAP1 SSTORE POP PUSH1 0x20 DUP3 ADD MLOAD DUP2 PUSH1 0x1 ADD SSTORE PUSH1 0x40 DUP3 ADD MLOAD DUP2 PUSH1 0x2 ADD PUSH0 PUSH2 0x100 EXP DUP2 SLOAD DUP2 PUSH1 0xFF MUL NOT AND SWAP1 DUP4 PUSH1 0xFF AND MUL OR SWAP1 SSTORE POP SWAP1 POP POP POP POP JUMP JUMPDEST PUSH0 PUSH0 SWAP1 SLOAD SWAP1 PUSH2 0x100 EXP SWAP1 DIV PUSH20 0xFFFFFFFFFFFFFFFFFFFFFFFFFFFFFFFFFFFFFFFF AND PUSH20 0xFFFFFFFFFFFFFFFFFFFFFFFFFFFFFFFFFFFFFFFF AND CALLER PUSH20 0xFFFFFFFFFFFFFFFFFFFFFFFFFFFFFFFFFFFFFFFF AND EQ PUSH2 0x1162 JUMPI PUSH1 0x40 MLOAD PUSH32 0x8C379A000000000000000000000000000000000000000000000000000000000 DUP2 MSTORE PUSH1 0x4 ADD PUSH2 0x1159 SWAP1 PUSH2 0x1E42 JUMP JUMPDEST PUSH1 0x40 MLOAD DUP1 SWAP2 SUB SWAP1 REVERT JUMPDEST JUMP JUMPDEST CALLER PUSH20 0xFFFFFFFFFFFFFFFFFFFFFFFFFFFFFFFFFFFFFFFF AND DUP2 PUSH20 0xFFFFFFFFFFFFFFFFFFFFFFFFFFFFFFFFFFFFFFFF AND SUB PUSH2 0x11D2 JUMPI PUSH1 0x40 MLOAD PUSH32 0x8C379A000000000000000000000000000000000000000000000000000000000 DUP2 MSTORE PUSH1 0x4 ADD PUSH2 0x11C9 SWAP1 PUSH2 0x1EAA JUMP JUMPDEST PUSH1 0x40 MLOAD DUP1 SWAP2 SUB SWAP1 REVERT JUMPDEST DUP1 PUSH1 0x1 PUSH0 PUSH2 0x100 EXP DUP2 SLOAD DUP2 PUSH20 0xFFFFFFFFFFFFFFFFFFFFFFFFFFFFFFFFFFFFFFFF MUL NOT AND SWAP1 DUP4 PUSH20 0xFFFFFFFFFFFFFFFFFFFFFFFFFFFFFFFFFFFFFFFF AND MUL OR SWAP1 SSTORE POP DUP1 PUSH20 0xFFFFFFFFFFFFFFFFFFFFFFFFFFFFFFFFFFFFFFFF AND PUSH0 PUSH0 SWAP1 SLOAD SWAP1 PUSH2 0x100 EXP SWAP1 DIV PUSH20 0xFFFFFFFFFFFFFFFFFFFFFFFFFFFFFFFFFFFFFFFF AND PUSH20 0xFFFFFFFFFFFFFFFFFFFFFFFFFFFFFFFFFFFFFFFF AND PUSH32 0xED8889F560326EB138920D842192F0EB3DD22B4F139C87A2C57538E05BAE1278 PUSH1 0x40 MLOAD PUSH1 0x40 MLOAD DUP1 SWAP2 SUB SWAP1 LOG3 POP JUMP JUMPDEST PUSH1 0x60 PUSH32 0x92FD13387C7FE7BEFBC38D303D6468778FB9731BC4583F17D92989C6FCFDEAAA DUP3 PUSH1 0x40 MLOAD PUSH1 0x24 ADD PUSH2 0x12C3 SWAP2 SWAP1 PUSH2 0x1EFC JUMP JUMPDEST PUSH1 0x40 MLOAD PUSH1 0x20 DUP2 DUP4 SUB SUB DUP2 MSTORE SWAP1 PUSH1 0x40 MSTORE SWAP1 PUSH28 0xFFFFFFFFFFFFFFFFFFFFFFFFFFFFFFFFFFFFFFFFFFFFFFFFFFFFFFFF NOT AND PUSH1 0x20 DUP3 ADD DUP1 MLOAD PUSH28 0xFFFFFFFFFFFFFFFFFFFFFFFFFFFFFFFFFFFFFFFFFFFFFFFFFFFFFFFF DUP4 DUP2 DUP4 AND OR DUP4 MSTORE POP POP POP POP SWAP1 POP SWAP2 SWAP1 POP JUMP JUMPDEST PUSH0 DUP2 SWAP1 POP SWAP2 SWAP1 POP JUMP JUMPDEST PUSH2 0x1339 DUP2 PUSH2 0x1327 JUMP JUMPDEST DUP3 MSTORE POP POP JUMP JUMPDEST PUSH0 PUSH1 0x20 DUP3 ADD SWAP1 POP PUSH2 0x1352 PUSH0 DUP4 ADD DUP5 PUSH2 0x1330 JUMP JUMPDEST SWAP3 SWAP2 POP POP JUMP JUMPDEST PUSH0 PUSH0 REVERT JUMPDEST PUSH0 PUSH0 REVERT JUMPDEST PUSH2 0x1369 DUP2 PUSH2 0x1327 JUMP JUMPDEST DUP2 EQ PUSH2 0x1373 JUMPI PUSH0 PUSH0 REVERT JUMPDEST POP JUMP JUMPDEST PUSH0 DUP2 CALLDATALOAD SWAP1 POP PUSH2 0x1384 DUP2 PUSH2 0x1360 JUMP JUMPDEST SWAP3 SWAP2 POP POP JUMP JUMPDEST PUSH0 PUSH0 REVERT JUMPDEST PUSH0 PUSH0 REVERT JUMPDEST PUSH0 PUSH0 REVERT JUMPDEST PUSH0 PUSH0 DUP4 PUSH1 0x1F DUP5 ADD SLT PUSH2 0x13AB JUMPI PUSH2 0x13AA PUSH2 0x138A JUMP JUMPDEST JUMPDEST DUP3 CALLDATALOAD SWAP1 POP PUSH8 0xFFFFFFFFFFFFFFFF DUP2 GT ISZERO PUSH2 0x13C8 JUMPI PUSH2 0x13C7 PUSH2 0x138E JUMP JUMPDEST JUMPDEST PUSH1 0x20 DUP4 ADD SWAP2 POP DUP4 PUSH1 0x20 DUP3 MUL DUP4 ADD GT ISZERO PUSH2 0x13E4 JUMPI PUSH2 0x13E3 PUSH2 0x1392 JUMP JUMPDEST JUMPDEST SWAP3 POP SWAP3 SWAP1 POP JUMP JUMPDEST PUSH0 PUSH0 PUSH0 PUSH1 0x40 DUP5 DUP7 SUB SLT ISZERO PUSH2 0x1402 JUMPI PUSH2 0x1401 PUSH2 0x1358 JUMP JUMPDEST JUMPDEST PUSH0 PUSH2 0x140F DUP7 DUP3 DUP8 ADD PUSH2 0x1376 JUMP JUMPDEST SWAP4 POP POP PUSH1 0x20 DUP5 ADD CALLDATALOAD PUSH8 0xFFFFFFFFFFFFFFFF DUP2 GT ISZERO PUSH2 0x1430 JUMPI PUSH2 0x142F PUSH2 0x135C JUMP JUMPDEST JUMPDEST PUSH2 0x143C DUP7 DUP3 DUP8 ADD PUSH2 0x1396 JUMP JUMPDEST SWAP3 POP SWAP3 POP POP SWAP3 POP SWAP3 POP SWAP3 JUMP JUMPDEST PUSH0 PUSH4 0xFFFFFFFF DUP3 AND SWAP1 POP SWAP2 SWAP1 POP JUMP JUMPDEST PUSH2 0x1460 DUP2 PUSH2 0x1448 JUMP JUMPDEST DUP3 MSTORE POP POP JUMP JUMPDEST PUSH0 PUSH1 0x20 DUP3 ADD SWAP1 POP PUSH2 0x1479 PUSH0 DUP4 ADD DUP5 PUSH2 0x1457 JUMP JUMPDEST SWAP3 SWAP2 POP POP JUMP JUMPDEST PUSH0 DUP2 MLOAD SWAP1 POP SWAP2 SWAP1 POP JUMP JUMPDEST PUSH0 DUP3 DUP3 MSTORE PUSH1 0x20 DUP3 ADD SWAP1 POP SWAP3 SWAP2 POP POP JUMP JUMPDEST DUP3 DUP2 DUP4 MCOPY PUSH0 DUP4 DUP4 ADD MSTORE POP POP POP JUMP JUMPDEST PUSH0 PUSH1 0x1F NOT PUSH1 0x1F DUP4 ADD AND SWAP1 POP SWAP2 SWAP1 POP JUMP JUMPDEST PUSH0 PUSH2 0x14C1 DUP3 PUSH2 0x147F JUMP JUMPDEST PUSH2 0x14CB DUP2 DUP6 PUSH2 0x1489 JUMP JUMPDEST SWAP4 POP PUSH2 0x14DB DUP2 DUP6 PUSH1 0x20 DUP7 ADD PUSH2 0x1499 JUMP JUMPDEST PUSH2 0x14E4 DUP2 PUSH2 0x14A7 JUMP JUMPDEST DUP5 ADD SWAP2 POP POP SWAP3 SWAP2 POP POP JUMP JUMPDEST PUSH0 PUSH1 0x20 DUP3 ADD SWAP1 POP DUP2 DUP2 SUB PUSH0 DUP4 ADD MSTORE PUSH2 0x1507 DUP2 DUP5 PUSH2 0x14B7 JUMP JUMPDEST SWAP1 POP SWAP3 SWAP2 POP POP JUMP JUMPDEST PUSH0 DUP2 SWAP1 POP SWAP2 SWAP1 POP JUMP JUMPDEST PUSH2 0x1521 DUP2 PUSH2 0x150F JUMP JUMPDEST DUP3 MSTORE POP POP JUMP JUMPDEST PUSH0 PUSH1 0x20 DUP3 ADD SWAP1 POP PUSH2 0x153A PUSH0 DUP4 ADD DUP5 PUSH2 0x1518 JUMP JUMPDEST SWAP3 SWAP2 POP POP JUMP JUMPDEST PUSH0 PUSH20 0xFFFFFFFFFFFFFFFFFFFFFFFFFFFFFFFFFFFFFFFF DUP3 AND SWAP1 POP SWAP2 SWAP1 POP JUMP JUMPDEST PUSH0 PUSH2 0x1569 DUP3 PUSH2 0x1540 JUMP JUMPDEST SWAP1 POP SWAP2 SWAP1 POP JUMP JUMPDEST PUSH2 0x1579 DUP2 PUSH2 0x155F JUMP JUMPDEST DUP3 MSTORE POP POP JUMP JUMPDEST PUSH0 PUSH1 0xFF DUP3 AND SWAP1 POP SWAP2 SWAP1 POP JUMP JUMPDEST PUSH2 0x1594 DUP2 PUSH2 0x157F JUMP JUMPDEST DUP3 MSTORE POP POP JUMP JUMPDEST PUSH0 PUSH1 0xA0 DUP3 ADD SWAP1 POP PUSH2 0x15AD PUSH0 DUP4 ADD DUP9 PUSH2 0x1570 JUMP JUMPDEST PUSH2 0x15BA PUSH1 0x20 DUP4 ADD DUP8 PUSH2 0x158B JUMP JUMPDEST PUSH2 0x15C7 PUSH1 0x40 DUP4 ADD DUP7 PUSH2 0x158B JUMP JUMPDEST DUP2 DUP2 SUB PUSH1 0x60 DUP4 ADD MSTORE PUSH2 0x15D9 DUP2 DUP6 PUSH2 0x14B7 JUMP JUMPDEST SWAP1 POP PUSH2 0x15E8 PUSH1 0x80 DUP4 ADD DUP5 PUSH2 0x1330 JUMP JUMPDEST SWAP7 SWAP6 POP POP POP POP POP POP JUMP JUMPDEST PUSH0 PUSH1 0x20 DUP3 ADD SWAP1 POP PUSH2 0x1605 PUSH0 DUP4 ADD DUP5 PUSH2 0x1570 JUMP JUMPDEST SWAP3 SWAP2 POP POP JUMP JUMPDEST PUSH2 0x1614 DUP2 PUSH2 0x155F JUMP JUMPDEST DUP2 EQ PUSH2 0x161E JUMPI PUSH0 PUSH0 REVERT JUMPDEST POP JUMP JUMPDEST PUSH0 DUP2 CALLDATALOAD SWAP1 POP PUSH2 0x162F DUP2 PUSH2 0x160B JUMP JUMPDEST SWAP3 SWAP2 POP POP JUMP JUMPDEST PUSH0 PUSH1 0x20 DUP3 DUP5 SUB SLT ISZERO PUSH2 0x164A JUMPI PUSH2 0x1649 PUSH2 0x1358 JUMP JUMPDEST JUMPDEST PUSH0 PUSH2 0x1657 DUP5 DUP3 DUP6 ADD PUSH2 0x1621 JUMP JUMPDEST SWAP2 POP POP SWAP3 SWAP2 POP POP JUMP JUMPDEST PUSH0 DUP2 SWAP1 POP SWAP2 SWAP1 POP JUMP JUMPDEST PUSH0 PUSH2 0x1683 PUSH2 0x167E PUSH2 0x1679 DUP5 PUSH2 0x1540 JUMP JUMPDEST PUSH2 0x1660 JUMP JUMPDEST PUSH2 0x1540 JUMP JUMPDEST SWAP1 POP SWAP2 SWAP1 POP JUMP JUMPDEST PUSH0 PUSH2 0x1694 DUP3 PUSH2 0x1669 JUMP JUMPDEST SWAP1 POP SWAP2 SWAP1 POP JUMP JUMPDEST PUSH0 PUSH2 0x16A5 DUP3 PUSH2 0x168A JUMP JUMPDEST SWAP1 POP SWAP2 SWAP1 POP JUMP JUMPDEST PUSH2 0x16B5 DUP2 PUSH2 0x169B JUMP JUMPDEST DUP3 MSTORE POP POP JUMP JUMPDEST PUSH0 PUSH1 0x20 DUP3 ADD SWAP1 POP PUSH2 0x16CE PUSH0 DUP4 ADD DUP5 PUSH2 0x16AC JUMP JUMPDEST SWAP3 SWAP2 POP POP JUMP JUMPDEST PUSH0 PUSH2 0xFFFF DUP3 AND SWAP1 POP SWAP2 SWAP1 POP JUMP JUMPDEST PUSH2 0x16EA DUP2 PUSH2 0x16D4 JUMP JUMPDEST DUP3 MSTORE POP POP JUMP JUMPDEST PUSH0 PUSH1 0x20 DUP3 ADD SWAP1 POP PUSH2 0x1703 PUSH0 DUP4 ADD DUP5 PUSH2 0x16E1 JUMP JUMPDEST SWAP3 SWAP2 POP POP JUMP JUMPDEST PUSH0 PUSH1 0x40 DUP3 ADD SWAP1 POP PUSH2 0x171C PUSH0 DUP4 ADD DUP6 PUSH2 0x1570 JUMP JUMPDEST PUSH2 0x1729 PUSH1 0x20 DUP4 ADD DUP5 PUSH2 0x1570 JUMP JUMPDEST SWAP4 SWAP3 POP POP POP JUMP JUMPDEST PUSH32 0x4D7573742062652070726F706F736564206F776E657200000000000000000000 PUSH0 DUP3 ADD MSTORE POP JUMP JUMPDEST PUSH0 PUSH2 0x1764 PUSH1 0x16 DUP4 PUSH2 0x1489 JUMP JUMPDEST SWAP2 POP PUSH2 0x176F DUP3 PUSH2 0x1730 JUMP JUMPDEST PUSH1 0x20 DUP3 ADD SWAP1 POP SWAP2 SWAP1 POP JUMP JUMPDEST PUSH0 PUSH1 0x20 DUP3 ADD SWAP1 POP DUP2 DUP2 SUB PUSH0 DUP4 ADD MSTORE PUSH2 0x1791 DUP2 PUSH2 0x1758 JUMP JUMPDEST SWAP1 POP SWAP2 SWAP1 POP JUMP JUMPDEST PUSH32 0x4E487B7100000000000000000000000000000000000000000000000000000000 PUSH0 MSTORE PUSH1 0x22 PUSH1 0x4 MSTORE PUSH1 0x24 PUSH0 REVERT JUMPDEST PUSH0 PUSH1 0x2 DUP3 DIV SWAP1 POP PUSH1 0x1 DUP3 AND DUP1 PUSH2 0x17DC JUMPI PUSH1 0x7F DUP3 AND SWAP2 POP JUMPDEST PUSH1 0x20 DUP3 LT DUP2 SUB PUSH2 0x17EF JUMPI PUSH2 0x17EE PUSH2 0x1798 JUMP JUMPDEST JUMPDEST POP SWAP2 SWAP1 POP JUMP JUMPDEST PUSH0 PUSH1 0x60 DUP3 ADD SWAP1 POP PUSH2 0x1808 PUSH0 DUP4 ADD DUP7 PUSH2 0x1570 JUMP JUMPDEST PUSH2 0x1815 PUSH1 0x20 DUP4 ADD DUP6 PUSH2 0x1570 JUMP JUMPDEST PUSH2 0x1822 PUSH1 0x40 DUP4 ADD DUP5 PUSH2 0x1570 JUMP JUMPDEST SWAP5 SWAP4 POP POP POP POP JUMP JUMPDEST PUSH32 0x4E487B7100000000000000000000000000000000000000000000000000000000 PUSH0 MSTORE PUSH1 0x32 PUSH1 0x4 MSTORE PUSH1 0x24 PUSH0 REVERT JUMPDEST PUSH32 0x4E487B7100000000000000000000000000000000000000000000000000000000 PUSH0 MSTORE PUSH1 0x12 PUSH1 0x4 MSTORE PUSH1 0x24 PUSH0 REVERT JUMPDEST PUSH0 PUSH2 0x188E DUP3 PUSH2 0x1327 JUMP JUMPDEST SWAP2 POP PUSH2 0x1899 DUP4 PUSH2 0x1327 JUMP JUMPDEST SWAP3 POP DUP3 PUSH2 0x18A9 JUMPI PUSH2 0x18A8 PUSH2 0x1857 JUMP JUMPDEST JUMPDEST DUP3 DUP3 MOD SWAP1 POP SWAP3 SWAP2 POP POP JUMP JUMPDEST PUSH32 0x4E487B7100000000000000000000000000000000000000000000000000000000 PUSH0 MSTORE PUSH1 0x11 PUSH1 0x4 MSTORE PUSH1 0x24 PUSH0 REVERT JUMPDEST PUSH0 PUSH2 0x18EB DUP3 PUSH2 0x1327 JUMP JUMPDEST SWAP2 POP PUSH2 0x18F6 DUP4 PUSH2 0x1327 JUMP JUMPDEST SWAP3 POP DUP3 DUP3 MUL PUSH2 0x1904 DUP2 PUSH2 0x1327 JUMP JUMPDEST SWAP2 POP DUP3 DUP3 DIV DUP5 EQ DUP4 ISZERO OR PUSH2 0x191B JUMPI PUSH2 0x191A PUSH2 0x18B4 JUMP JUMPDEST JUMPDEST POP SWAP3 SWAP2 POP POP JUMP JUMPDEST PUSH32 0x4E487B7100000000000000000000000000000000000000000000000000000000 PUSH0 MSTORE PUSH1 0x41 PUSH1 0x4 MSTORE PUSH1 0x24 PUSH0 REVERT JUMPDEST PUSH0 DUP2 SWAP1 POP DUP2 PUSH0 MSTORE PUSH1 0x20 PUSH0 KECCAK256 SWAP1 POP SWAP2 SWAP1 POP JUMP JUMPDEST PUSH0 PUSH1 0x20 PUSH1 0x1F DUP4 ADD DIV SWAP1 POP SWAP2 SWAP1 POP JUMP JUMPDEST PUSH0 DUP3 DUP3 SHL SWAP1 POP SWAP3 SWAP2 POP POP JUMP JUMPDEST PUSH0 PUSH1 0x8 DUP4 MUL PUSH2 0x19AB PUSH32 0xFFFFFFFFFFFFFFFFFFFFFFFFFFFFFFFFFFFFFFFFFFFFFFFFFFFFFFFFFFFFFFFF DUP3 PUSH2 0x1970 JUMP JUMPDEST PUSH2 0x19B5 DUP7 DUP4 PUSH2 0x1970 JUMP JUMPDEST SWAP6 POP DUP1 NOT DUP5 AND SWAP4 POP DUP1 DUP7 AND DUP5 OR SWAP3 POP POP POP SWAP4 SWAP3 POP POP POP JUMP JUMPDEST PUSH0 PUSH2 0x19E7 PUSH2 0x19E2 PUSH2 0x19DD DUP5 PUSH2 0x1327 JUMP JUMPDEST PUSH2 0x1660 JUMP JUMPDEST PUSH2 0x1327 JUMP JUMPDEST SWAP1 POP SWAP2 SWAP1 POP JUMP JUMPDEST PUSH0 DUP2 SWAP1 POP SWAP2 SWAP1 POP JUMP JUMPDEST PUSH2 0x1A00 DUP4 PUSH2 0x19CD JUMP JUMPDEST PUSH2 0x1A14 PUSH2 0x1A0C DUP3 PUSH2 0x19EE JUMP JUMPDEST DUP5 DUP5 SLOAD PUSH2 0x197C JUMP JUMPDEST DUP3 SSTORE POP POP POP POP JUMP JUMPDEST PUSH0 PUSH0 SWAP1 POP SWAP1 JUMP JUMPDEST PUSH2 0x1A2B PUSH2 0x1A1C JUMP JUMPDEST PUSH2 0x1A36 DUP2 DUP5 DUP5 PUSH2 0x19F7 JUMP JUMPDEST POP POP POP JUMP JUMPDEST JUMPDEST DUP2 DUP2 LT ISZERO PUSH2 0x1A59 JUMPI PUSH2 0x1A4E PUSH0 DUP3 PUSH2 0x1A23 JUMP JUMPDEST PUSH1 0x1 DUP2 ADD SWAP1 POP PUSH2 0x1A3C JUMP JUMPDEST POP POP JUMP JUMPDEST PUSH1 0x1F DUP3 GT ISZERO PUSH2 0x1A9E JUMPI PUSH2 0x1A6F DUP2 PUSH2 0x194F JUMP JUMPDEST PUSH2 0x1A78 DUP5 PUSH2 0x1961 JUMP JUMPDEST DUP2 ADD PUSH1 0x20 DUP6 LT ISZERO PUSH2 0x1A87 JUMPI DUP2 SWAP1 POP JUMPDEST PUSH2 0x1A9B PUSH2 0x1A93 DUP6 PUSH2 0x1961 JUMP JUMPDEST DUP4 ADD DUP3 PUSH2 0x1A3B JUMP JUMPDEST POP POP JUMPDEST POP POP POP JUMP JUMPDEST PUSH0 DUP3 DUP3 SHR SWAP1 POP SWAP3 SWAP2 POP POP JUMP JUMPDEST PUSH0 PUSH2 0x1ABE PUSH0 NOT DUP5 PUSH1 0x8 MUL PUSH2 0x1AA3 JUMP JUMPDEST NOT DUP1 DUP4 AND SWAP2 POP POP SWAP3 SWAP2 POP POP JUMP JUMPDEST PUSH0 PUSH2 0x1AD6 DUP4 DUP4 PUSH2 0x1AAF JUMP JUMPDEST SWAP2 POP DUP3 PUSH1 0x2 MUL DUP3 OR SWAP1 POP SWAP3 SWAP2 POP POP JUMP JUMPDEST PUSH2 0x1AEF DUP3 PUSH2 0x147F JUMP JUMPDEST PUSH8 0xFFFFFFFFFFFFFFFF DUP2 GT ISZERO PUSH2 0x1B08 JUMPI PUSH2 0x1B07 PUSH2 0x1922 JUMP JUMPDEST JUMPDEST PUSH2 0x1B12 DUP3 SLOAD PUSH2 0x17C5 JUMP JUMPDEST PUSH2 0x1B1D DUP3 DUP3 DUP6 PUSH2 0x1A5D JUMP JUMPDEST PUSH0 PUSH1 0x20 SWAP1 POP PUSH1 0x1F DUP4 GT PUSH1 0x1 DUP2 EQ PUSH2 0x1B4E JUMPI PUSH0 DUP5 ISZERO PUSH2 0x1B3C JUMPI DUP3 DUP8 ADD MLOAD SWAP1 POP JUMPDEST PUSH2 0x1B46 DUP6 DUP3 PUSH2 0x1ACB JUMP JUMPDEST DUP7 SSTORE POP PUSH2 0x1BAD JUMP JUMPDEST PUSH1 0x1F NOT DUP5 AND PUSH2 0x1B5C DUP7 PUSH2 0x194F JUMP JUMPDEST PUSH0 JUMPDEST DUP3 DUP2 LT ISZERO PUSH2 0x1B83 JUMPI DUP5 DUP10 ADD MLOAD DUP3 SSTORE PUSH1 0x1 DUP3 ADD SWAP2 POP PUSH1 0x20 DUP6 ADD SWAP5 POP PUSH1 0x20 DUP2 ADD SWAP1 POP PUSH2 0x1B5E JUMP JUMPDEST DUP7 DUP4 LT ISZERO PUSH2 0x1BA0 JUMPI DUP5 DUP10 ADD MLOAD PUSH2 0x1B9C PUSH1 0x1F DUP10 AND DUP3 PUSH2 0x1AAF JUMP JUMPDEST DUP4 SSTORE POP JUMPDEST PUSH1 0x1 PUSH1 0x2 DUP9 MUL ADD DUP9 SSTORE POP POP POP JUMPDEST POP POP POP POP POP POP JUMP JUMPDEST PUSH32 0x42657420746F6F206C6F77000000000000000000000000000000000000000000 PUSH0 DUP3 ADD MSTORE POP JUMP JUMPDEST PUSH0 PUSH2 0x1BE9 PUSH1 0xB DUP4 PUSH2 0x1489 JUMP JUMPDEST SWAP2 POP PUSH2 0x1BF4 DUP3 PUSH2 0x1BB5 JUMP JUMPDEST PUSH1 0x20 DUP3 ADD SWAP1 POP SWAP2 SWAP1 POP JUMP JUMPDEST PUSH0 PUSH1 0x20 DUP3 ADD SWAP1 POP DUP2 DUP2 SUB PUSH0 DUP4 ADD MSTORE PUSH2 0x1C16 DUP2 PUSH2 0x1BDD JUMP JUMPDEST SWAP1 POP SWAP2 SWAP1 POP JUMP JUMPDEST PUSH32 0x436F6E747261637420697320656D707479000000000000000000000000000000 PUSH0 DUP3 ADD MSTORE POP JUMP JUMPDEST PUSH0 PUSH2 0x1C51 PUSH1 0x11 DUP4 PUSH2 0x1489 JUMP JUMPDEST SWAP2 POP PUSH2 0x1C5C DUP3 PUSH2 0x1C1D JUMP JUMPDEST PUSH1 0x20 DUP3 ADD SWAP1 POP SWAP2 SWAP1 POP JUMP JUMPDEST PUSH0 PUSH1 0x20 DUP3 ADD SWAP1 POP DUP2 DUP2 SUB PUSH0 DUP4 ADD MSTORE PUSH2 0x1C7E DUP2 PUSH2 0x1C45 JUMP JUMPDEST SWAP1 POP SWAP2 SWAP1 POP JUMP JUMPDEST PUSH2 0x1C8E DUP2 PUSH2 0x150F JUMP JUMPDEST DUP3 MSTORE POP POP JUMP JUMPDEST PUSH2 0x1C9D DUP2 PUSH2 0x1327 JUMP JUMPDEST DUP3 MSTORE POP POP JUMP JUMPDEST PUSH2 0x1CAC DUP2 PUSH2 0x16D4 JUMP JUMPDEST DUP3 MSTORE POP POP JUMP JUMPDEST PUSH2 0x1CBB DUP2 PUSH2 0x1448 JUMP JUMPDEST DUP3 MSTORE POP POP JUMP JUMPDEST PUSH0 DUP2 MLOAD SWAP1 POP SWAP2 SWAP1 POP JUMP JUMPDEST PUSH0 DUP3 DUP3 MSTORE PUSH1 0x20 DUP3 ADD SWAP1 POP SWAP3 SWAP2 POP POP JUMP JUMPDEST PUSH0 PUSH2 0x1CE5 DUP3 PUSH2 0x1CC1 JUMP JUMPDEST PUSH2 0x1CEF DUP2 DUP6 PUSH2 0x1CCB JUMP JUMPDEST SWAP4 POP PUSH2 0x1CFF DUP2 DUP6 PUSH1 0x20 DUP7 ADD PUSH2 0x1499 JUMP JUMPDEST PUSH2 0x1D08 DUP2 PUSH2 0x14A7 JUMP JUMPDEST DUP5 ADD SWAP2 POP POP SWAP3 SWAP2 POP POP JUMP JUMPDEST PUSH0 PUSH1 0xC0 DUP4 ADD PUSH0 DUP4 ADD MLOAD PUSH2 0x1D28 PUSH0 DUP7 ADD DUP3 PUSH2 0x1C85 JUMP JUMPDEST POP PUSH1 0x20 DUP4 ADD MLOAD PUSH2 0x1D3B PUSH1 0x20 DUP7 ADD DUP3 PUSH2 0x1C94 JUMP JUMPDEST POP PUSH1 0x40 DUP4 ADD MLOAD PUSH2 0x1D4E PUSH1 0x40 DUP7 ADD DUP3 PUSH2 0x1CA3 JUMP JUMPDEST POP PUSH1 0x60 DUP4 ADD MLOAD PUSH2 0x1D61 PUSH1 0x60 DUP7 ADD DUP3 PUSH2 0x1CB2 JUMP JUMPDEST POP PUSH1 0x80 DUP4 ADD MLOAD PUSH2 0x1D74 PUSH1 0x80 DUP7 ADD DUP3 PUSH2 0x1CB2 JUMP JUMPDEST POP PUSH1 0xA0 DUP4 ADD MLOAD DUP5 DUP3 SUB PUSH1 0xA0 DUP7 ADD MSTORE PUSH2 0x1D8C DUP3 DUP3 PUSH2 0x1CDB JUMP JUMPDEST SWAP2 POP POP DUP1 SWAP2 POP POP SWAP3 SWAP2 POP POP JUMP JUMPDEST PUSH0 PUSH1 0x20 DUP3 ADD SWAP1 POP DUP2 DUP2 SUB PUSH0 DUP4 ADD MSTORE PUSH2 0x1DB1 DUP2 DUP5 PUSH2 0x1D13 JUMP JUMPDEST SWAP1 POP SWAP3 SWAP2 POP POP JUMP JUMPDEST PUSH0 DUP2 MLOAD SWAP1 POP PUSH2 0x1DC7 DUP2 PUSH2 0x1360 JUMP JUMPDEST SWAP3 SWAP2 POP POP JUMP JUMPDEST PUSH0 PUSH1 0x20 DUP3 DUP5 SUB SLT ISZERO PUSH2 0x1DE2 JUMPI PUSH2 0x1DE1 PUSH2 0x1358 JUMP JUMPDEST JUMPDEST PUSH0 PUSH2 0x1DEF DUP5 DUP3 DUP6 ADD PUSH2 0x1DB9 JUMP JUMPDEST SWAP2 POP POP SWAP3 SWAP2 POP POP JUMP JUMPDEST PUSH32 0x4F6E6C792063616C6C61626C65206279206F776E657200000000000000000000 PUSH0 DUP3 ADD MSTORE POP JUMP JUMPDEST PUSH0 PUSH2 0x1E2C PUSH1 0x16 DUP4 PUSH2 0x1489 JUMP JUMPDEST SWAP2 POP PUSH2 0x1E37 DUP3 PUSH2 0x1DF8 JUMP JUMPDEST PUSH1 0x20 DUP3 ADD SWAP1 POP SWAP2 SWAP1 POP JUMP JUMPDEST PUSH0 PUSH1 0x20 DUP3 ADD SWAP1 POP DUP2 DUP2 SUB PUSH0 DUP4 ADD MSTORE PUSH2 0x1E59 DUP2 PUSH2 0x1E20 JUMP JUMPDEST SWAP1 POP SWAP2 SWAP1 POP JUMP JUMPDEST PUSH32 0x43616E6E6F74207472616E7366657220746F2073656C66000000000000000000 PUSH0 DUP3 ADD MSTORE POP JUMP JUMPDEST PUSH0 PUSH2 0x1E94 PUSH1 0x17 DUP4 PUSH2 0x1489 JUMP JUMPDEST SWAP2 POP PUSH2 0x1E9F DUP3 PUSH2 0x1E60 JUMP JUMPDEST PUSH1 0x20 DUP3 ADD SWAP1 POP SWAP2 SWAP1 POP JUMP JUMPDEST PUSH0 PUSH1 0x20 DUP3 ADD SWAP1 POP DUP2 DUP2 SUB PUSH0 DUP4 ADD MSTORE PUSH2 0x1EC1 DUP2 PUSH2 0x1E88 JUMP JUMPDEST SWAP1 POP SWAP2 SWAP1 POP JUMP JUMPDEST PUSH0 DUP2 ISZERO ISZERO SWAP1 POP SWAP2 SWAP1 POP JUMP JUMPDEST PUSH2 0x1EDC DUP2 PUSH2 0x1EC8 JUMP JUMPDEST DUP3 MSTORE POP POP JUMP JUMPDEST PUSH1 0x20 DUP3 ADD PUSH0 DUP3 ADD MLOAD PUSH2 0x1EF6 PUSH0 DUP6 ADD DUP3 PUSH2 0x1ED3 JUMP JUMPDEST POP POP POP POP JUMP JUMPDEST PUSH0 PUSH1 0x20 DUP3 ADD SWAP1 POP PUSH2 0x1F0F PUSH0 DUP4 ADD DUP5 PUSH2 0x1EE2 JUMP JUMPDEST SWAP3 SWAP2 POP POP JUMP INVALID 0xD0 SWAP16 DATALOADN 0x80D0 0xB0 0xD0 0xB2 0xD0 0xB8 0xD0 0xBB 0xD0 0xB0 GASPRICE KECCAK256 ADDRESS 0x2D 0xD0 SWAP11 0xD0 0xB0 0xD0 0xBC 0xD0 0xB5 0xD0 0xBD DATALOADN 0x8C2C KECCAK256 BALANCE 0x2D 0xD0 SWAP14 0xD0 0xBE 0xD0 0xB6 0xD0 0xBD 0xD0 0xB8 DATALOADN 0x86D1 DUP12 0x2C KECCAK256 ORIGIN 0x2D 0xD0 SWAP2 DATALOADN 0x83D0 0xBC 0xD0 0xB0 0xD0 0xB3 0xD0 0xB0 0x2E KECCAK256 0xD0 SWAP3 DATALOADN 0x8BD0 0xB8 0xD0 0xB3 DATALOADN 0x80D1 DUP12 DATALOADN 0x883A KECCAK256 PUSH25 0x3220D0BED18220D181D182D0B0D0B2D0BAD0B82E20D09DD0B8 DATALOADN 0x87D1 DUP13 DATALOADN 0x8F3A KECCAK256 0xD0 0xB2 0xD0 0xBE 0xD0 0xB7 0xD0 0xB2 DATALOADN 0x80D0 0xB0 DATALOADN 0x822E KECCAK256 0xD0 LOG0 0xD0 0xB0 0xD0 0xBD 0xD0 0xB4 0xD0 0xBE 0xD0 0xBC KECCAK256 DATALOADN 0x87D0 0xB5 DATALOADN 0x80D0 0xB5 0xD0 0xB7 KECCAK256 NUMBER PUSH9 0x61696E6C696E6B2056 MSTORE CHAINID KECCAK256 PUSH23 0x322E352EA264697066735822122001754E96E1DDAB40F8 CREATE2 DUP8 PUSH19 0x1FBC2FE5847BDC9BFB0EA6A57B6AB3BFBF58A5 SDIV PUSH5 0x736F6C6343 STOP ADDMOD 0x1F STOP CALLER "
				},
				"gasEstimates": {
					"creation": {
						"codeDepositCost": "1637200",
						"executionCost": "infinite",
						"totalCost": "infinite"
					},
					"external": {
						"MIN_BET()": "370",
						"acceptOwnership()": "54620",
						"callbackGasLimit()": "2534",
						"deposit()": "207",
						"getBalance()": "358",
						"getRules()": "infinite",
						"keyHash()": "2448",
						"lastRound()": "infinite",
						"numWords()": "2625",
						"owner()": "2603",
						"playPaper()": "infinite",
						"playRock()": "infinite",
						"playScissors()": "infinite",
						"rawFulfillRandomWords(uint256,uint256[])": "infinite",
						"requestConfirmations()": "2583",
						"s_subscriptionId()": "2492",
						"s_vrfCoordinator()": "infinite",
						"setCoordinator(address)": "infinite",
						"transferOwnership(address)": "30781",
						"vrfCoordinator()": "2552",
						"withdrawAll()": "infinite"
					},
					"internal": {
						"_play(uint8)": "infinite",
						"fulfillRandomWords(uint256,uint256[] calldata)": "infinite"
					}
				},
				"methodIdentifiers": {
					"MIN_BET()": "6540742f",
					"acceptOwnership()": "79ba5097",
					"callbackGasLimit()": "24f74697",
					"deposit()": "d0e30db0",
					"getBalance()": "12065fe0",
					"getRules()": "45e2984a",
					"keyHash()": "61728f39",
					"lastRound()": "82bc07e6",
					"numWords()": "7ccfd7fc",
					"owner()": "8da5cb5b",
					"playPaper()": "e856bb18",
					"playRock()": "41a26083",
					"playScissors()": "6be2c84e",
					"rawFulfillRandomWords(uint256,uint256[])": "1fe543e3",
					"requestConfirmations()": "b0fb162f",
					"s_subscriptionId()": "8ac00021",
					"s_vrfCoordinator()": "9eccacf6",
					"setCoordinator(address)": "8ea98117",
					"transferOwnership(address)": "f2fde38b",
					"vrfCoordinator()": "a3e56fa8",
					"withdrawAll()": "853828b6"
				}
			},
			"storageLayout": {
				"storage": [
					{
						"astId": 29,
						"contract": "contracts/RockScissorPaper.sol:RockScissorPaper",
						"label": "s_owner",
						"offset": 0,
						"slot": "0",
						"type": "t_address"
					},
					{
						"astId": 31,
						"contract": "contracts/RockScissorPaper.sol:RockScissorPaper",
						"label": "s_pendingOwner",
						"offset": 0,
						"slot": "1",
						"type": "t_address"
					},
					{
						"astId": 231,
						"contract": "contracts/RockScissorPaper.sol:RockScissorPaper",
						"label": "s_vrfCoordinator",
						"offset": 0,
						"slot": "2",
						"type": "t_contract(IVRFCoordinatorV2Plus)380"
					},
					{
						"astId": 540,
						"contract": "contracts/RockScissorPaper.sol:RockScissorPaper",
						"label": "s_subscriptionId",
						"offset": 0,
						"slot": "3",
						"type": "t_uint256"
					},
					{
						"astId": 543,
						"contract": "contracts/RockScissorPaper.sol:RockScissorPaper",
						"label": "vrfCoordinator",
						"offset": 0,
						"slot": "4",
						"type": "t_address"
					},
					{
						"astId": 546,
						"contract": "contracts/RockScissorPaper.sol:RockScissorPaper",
						"label": "keyHash",
						"offset": 0,
						"slot": "5",
						"type": "t_bytes32"
					},
					{
						"astId": 549,
						"contract": "contracts/RockScissorPaper.sol:RockScissorPaper",
						"label": "callbackGasLimit",
						"offset": 0,
						"slot": "6",
						"type": "t_uint32"
					},
					{
						"astId": 552,
						"contract": "contracts/RockScissorPaper.sol:RockScissorPaper",
						"label": "requestConfirmations",
						"offset": 4,
						"slot": "6",
						"type": "t_uint16"
					},
					{
						"astId": 555,
						"contract": "contracts/RockScissorPaper.sol:RockScissorPaper",
						"label": "numWords",
						"offset": 6,
						"slot": "6",
						"type": "t_uint32"
					},
					{
						"astId": 567,
						"contract": "contracts/RockScissorPaper.sol:RockScissorPaper",
						"label": "s_requests",
						"offset": 0,
						"slot": "7",
						"type": "t_mapping(t_uint256,t_struct(PendingGame)562_storage)"
					},
					{
						"astId": 581,
						"contract": "contracts/RockScissorPaper.sol:RockScissorPaper",
						"label": "lastRound",
						"offset": 0,
						"slot": "8",
						"type": "t_struct(LastGame)578_storage"
					}
				],
				"types": {
					"t_address": {
						"encoding": "inplace",
						"label": "address",
						"numberOfBytes": "20"
					},
					"t_bytes32": {
						"encoding": "inplace",
						"label": "bytes32",
						"numberOfBytes": "32"
					},
					"t_contract(IVRFCoordinatorV2Plus)380": {
						"encoding": "inplace",
						"label": "contract IVRFCoordinatorV2Plus",
						"numberOfBytes": "20"
					},
					"t_mapping(t_uint256,t_struct(PendingGame)562_storage)": {
						"encoding": "mapping",
						"key": "t_uint256",
						"label": "mapping(uint256 => struct RockScissorPaper.PendingGame)",
						"numberOfBytes": "32",
						"value": "t_struct(PendingGame)562_storage"
					},
					"t_string_storage": {
						"encoding": "bytes",
						"label": "string",
						"numberOfBytes": "32"
					},
					"t_struct(LastGame)578_storage": {
						"encoding": "inplace",
						"label": "struct RockScissorPaper.LastGame",
						"members": [
							{
								"astId": 569,
								"contract": "contracts/RockScissorPaper.sol:RockScissorPaper",
								"label": "player",
								"offset": 0,
								"slot": "0",
								"type": "t_address"
							},
							{
								"astId": 571,
								"contract": "contracts/RockScissorPaper.sol:RockScissorPaper",
								"label": "playerChoice",
								"offset": 20,
								"slot": "0",
								"type": "t_uint8"
							},
							{
								"astId": 573,
								"contract": "contracts/RockScissorPaper.sol:RockScissorPaper",
								"label": "randomNumber",
								"offset": 21,
								"slot": "0",
								"type": "t_uint8"
							},
							{
								"astId": 575,
								"contract": "contracts/RockScissorPaper.sol:RockScissorPaper",
								"label": "result",
								"offset": 0,
								"slot": "1",
								"type": "t_string_storage"
							},
							{
								"astId": 577,
								"contract": "contracts/RockScissorPaper.sol:RockScissorPaper",
								"label": "bet",
								"offset": 0,
								"slot": "2",
								"type": "t_uint256"
							}
						],
						"numberOfBytes": "96"
					},
					"t_struct(PendingGame)562_storage": {
						"encoding": "inplace",
						"label": "struct RockScissorPaper.PendingGame",
						"members": [
							{
								"astId": 557,
								"contract": "contracts/RockScissorPaper.sol:RockScissorPaper",
								"label": "player",
								"offset": 0,
								"slot": "0",
								"type": "t_address"
							},
							{
								"astId": 559,
								"contract": "contracts/RockScissorPaper.sol:RockScissorPaper",
								"label": "bet",
								"offset": 0,
								"slot": "1",
								"type": "t_uint256"
							},
							{
								"astId": 561,
								"contract": "contracts/RockScissorPaper.sol:RockScissorPaper",
								"label": "playerChoice",
								"offset": 0,
								"slot": "2",
								"type": "t_uint8"
							}
						],
						"numberOfBytes": "96"
					},
					"t_uint16": {
						"encoding": "inplace",
						"label": "uint16",
						"numberOfBytes": "2"
					},
					"t_uint256": {
						"encoding": "inplace",
						"label": "uint256",
						"numberOfBytes": "32"
					},
					"t_uint32": {
						"encoding": "inplace",
						"label": "uint32",
						"numberOfBytes": "4"
					},
					"t_uint8": {
						"encoding": "inplace",
						"label": "uint8",
						"numberOfBytes": "1"
					}
				}
			},
			"userdoc": {
				"kind": "user",
				"methods": {
					"acceptOwnership()": {
						"notice": "Allows an ownership transfer to be completed by the recipient."
					},
					"owner()": {
						"notice": "Get the current owner"
					},
					"setCoordinator(address)": {
						"notice": "Sets the VRF Coordinator addressThis method should only be callable by the coordinator or contract owner"
					},
					"transferOwnership(address)": {
						"notice": "Allows an owner to begin transferring ownership to a new address."
					}
				},
				"version": 1
			}
		}
	}
}