{
	"contracts/rockScissorPaper.sol": {
		"rockScissorPaper": {
			"abi": [
				{
					"inputs": [],
					"stateMutability": "payable",
					"type": "constructor"
				},
				{
					"anonymous": false,
					"inputs": [
						{
							"indexed": true,
							"internalType": "address",
							"name": "admin",
							"type": "address"
						},
						{
							"indexed": false,
							"internalType": "uint256",
							"name": "amount",
							"type": "uint256"
						}
					],
					"name": "Deposited",
					"type": "event"
				},
				{
					"anonymous": false,
					"inputs": [
						{
							"indexed": true,
							"internalType": "address",
							"name": "player",
							"type": "address"
						},
						{
							"indexed": false,
							"internalType": "string",
							"name": "result",
							"type": "string"
						},
						{
							"indexed": false,
							"internalType": "uint256",
							"name": "winAmount",
							"type": "uint256"
						}
					],
					"name": "GamePlayed",
					"type": "event"
				},
				{
					"inputs": [],
					"name": "MIN_BET",
					"outputs": [
						{
							"internalType": "uint256",
							"name": "",
							"type": "uint256"
						}
					],
					"stateMutability": "view",
					"type": "function"
				},
				{
					"inputs": [],
					"name": "deposit",
					"outputs": [],
					"stateMutability": "payable",
					"type": "function"
				},
				{
					"inputs": [],
					"name": "getBalance",
					"outputs": [
						{
							"internalType": "uint256",
							"name": "",
							"type": "uint256"
						}
					],
					"stateMutability": "view",
					"type": "function"
				},
				{
					"inputs": [],
					"name": "getRules",
					"outputs": [
						{
							"internalType": "string",
							"name": "",
							"type": "string"
						}
					],
					"stateMutability": "pure",
					"type": "function"
				},
				{
					"inputs": [],
					"name": "lastRound",
					"outputs": [
						{
							"internalType": "address",
							"name": "player",
							"type": "address"
						},
						{
							"internalType": "uint8",
							"name": "playerChoice",
							"type": "uint8"
						},
						{
							"internalType": "uint8",
							"name": "cpuChoice",
							"type": "uint8"
						},
						{
							"internalType": "string",
							"name": "result",
							"type": "string"
						},
						{
							"internalType": "uint256",
							"name": "bet",
							"type": "uint256"
						}
					],
					"stateMutability": "view",
					"type": "function"
				},
				{
					"inputs": [],
					"name": "owner",
					"outputs": [
						{
							"internalType": "address",
							"name": "",
							"type": "address"
						}
					],
					"stateMutability": "view",
					"type": "function"
				},
				{
					"inputs": [],
					"name": "playPaper",
					"outputs": [],
					"stateMutability": "payable",
					"type": "function"
				},
				{
					"inputs": [],
					"name": "playRock",
					"outputs": [],
					"stateMutability": "payable",
					"type": "function"
				},
				{
					"inputs": [],
					"name": "playScissors",
					"outputs": [],
					"stateMutability": "payable",
					"type": "function"
				},
				{
					"inputs": [],
					"name": "withdrawAll",
					"outputs": [],
					"stateMutability": "nonpayable",
					"type": "function"
				}
			],
			"devdoc": {
				"kind": "dev",
				"methods": {},
				"version": 1
			},
			"evm": {
				"assembly": "    /* \"contracts/rockScissorPaper.sol\":58:2841  contract rockScissorPaper {... */\n  mstore(0x40, 0x80)\n    /* \"contracts/rockScissorPaper.sol\":598:608  msg.sender */\n  caller\n    /* \"contracts/rockScissorPaper.sol\":590:595  owner */\n  0x00\n  0x00\n    /* \"contracts/rockScissorPaper.sol\":590:608  owner = msg.sender */\n  0x0100\n  exp\n  dup2\n  sload\n  dup2\n  0xffffffffffffffffffffffffffffffffffffffff\n  mul\n  not\n  and\n  swap1\n  dup4\n  0xffffffffffffffffffffffffffffffffffffffff\n  and\n  mul\n  or\n  swap1\n  sstore\n  pop\n    /* \"contracts/rockScissorPaper.sol\":58:2841  contract rockScissorPaper {... */\n  dataSize(sub_0)\n  dup1\n  dataOffset(sub_0)\n  0x00\n  codecopy\n  0x00\n  return\nstop\n\nsub_0: assembly {\n        /* \"contracts/rockScissorPaper.sol\":58:2841  contract rockScissorPaper {... */\n      mstore(0x40, 0x80)\n      jumpi(tag_1, lt(calldatasize, 0x04))\n      shr(0xe0, calldataload(0x00))\n      dup1\n      0x82bc07e6\n      gt\n      tag_12\n      jumpi\n      dup1\n      0x82bc07e6\n      eq\n      tag_7\n      jumpi\n      dup1\n      0x853828b6\n      eq\n      tag_8\n      jumpi\n      dup1\n      0x8da5cb5b\n      eq\n      tag_9\n      jumpi\n      dup1\n      0xd0e30db0\n      eq\n      tag_10\n      jumpi\n      dup1\n      0xe856bb18\n      eq\n      tag_11\n      jumpi\n      jump(tag_1)\n    tag_12:\n      dup1\n      0x12065fe0\n      eq\n      tag_2\n      jumpi\n      dup1\n      0x41a26083\n      eq\n      tag_3\n      jumpi\n      dup1\n      0x45e2984a\n      eq\n      tag_4\n      jumpi\n      dup1\n      0x6540742f\n      eq\n      tag_5\n      jumpi\n      dup1\n      0x6be2c84e\n      eq\n      tag_6\n      jumpi\n    tag_1:\n      revert(0x00, 0x00)\n        /* \"contracts/rockScissorPaper.sol\":2740:2839  function getBalance() external view returns (uint256) {... */\n    tag_2:\n      callvalue\n      dup1\n      iszero\n      tag_13\n      jumpi\n      revert(0x00, 0x00)\n    tag_13:\n      pop\n      tag_14\n      tag_15\n      jump\t// in\n    tag_14:\n      mload(0x40)\n      tag_16\n      swap2\n      swap1\n      tag_17\n      jump\t// in\n    tag_16:\n      mload(0x40)\n      dup1\n      swap2\n      sub\n      swap1\n      return\n        /* \"contracts/rockScissorPaper.sol\":1262:1312  function playRock() external payable { _play(0); } */\n    tag_3:\n      tag_18\n      tag_19\n      jump\t// in\n    tag_18:\n      stop\n        /* \"contracts/rockScissorPaper.sol\":773:1029  function getRules() external pure returns (string memory) {... */\n    tag_4:\n      callvalue\n      dup1\n      iszero\n      tag_20\n      jumpi\n      revert(0x00, 0x00)\n    tag_20:\n      pop\n      tag_21\n      tag_22\n      jump\t// in\n    tag_21:\n      mload(0x40)\n      tag_23\n      swap2\n      swap1\n      tag_24\n      jump\t// in\n    tag_23:\n      mload(0x40)\n      dup1\n      swap2\n      sub\n      swap1\n      return\n        /* \"contracts/rockScissorPaper.sol\":116:162  uint256 public constant MIN_BET = 0.0001 ether */\n    tag_5:\n      callvalue\n      dup1\n      iszero\n      tag_25\n      jumpi\n      revert(0x00, 0x00)\n    tag_25:\n      pop\n      tag_26\n      tag_27\n      jump\t// in\n    tag_26:\n      mload(0x40)\n      tag_28\n      swap2\n      swap1\n      tag_17\n      jump\t// in\n    tag_28:\n      mload(0x40)\n      dup1\n      swap2\n      sub\n      swap1\n      return\n        /* \"contracts/rockScissorPaper.sol\":1317:1371  function playScissors() external payable { _play(1); } */\n    tag_6:\n      tag_29\n      tag_30\n      jump\t// in\n    tag_29:\n      stop\n        /* \"contracts/rockScissorPaper.sol\":320:345  LastGame public lastRound */\n    tag_7:\n      callvalue\n      dup1\n      iszero\n      tag_31\n      jumpi\n      revert(0x00, 0x00)\n    tag_31:\n      pop\n      tag_32\n      tag_33\n      jump\t// in\n    tag_32:\n      mload(0x40)\n      tag_34\n      swap6\n      swap5\n      swap4\n      swap3\n      swap2\n      swap1\n      tag_35\n      jump\t// in\n    tag_34:\n      mload(0x40)\n      dup1\n      swap2\n      sub\n      swap1\n      return\n        /* \"contracts/rockScissorPaper.sol\":2629:2734  function withdrawAll() external onlyOwner {... */\n    tag_8:\n      callvalue\n      dup1\n      iszero\n      tag_36\n      jumpi\n      revert(0x00, 0x00)\n    tag_36:\n      pop\n      tag_37\n      tag_38\n      jump\t// in\n    tag_37:\n      stop\n        /* \"contracts/rockScissorPaper.sol\":90:110  address public owner */\n    tag_9:\n      callvalue\n      dup1\n      iszero\n      tag_39\n      jumpi\n      revert(0x00, 0x00)\n    tag_39:\n      pop\n      tag_40\n      tag_41\n      jump\t// in\n    tag_40:\n      mload(0x40)\n      tag_42\n      swap2\n      swap1\n      tag_43\n      jump\t// in\n    tag_42:\n      mload(0x40)\n      dup1\n      swap2\n      sub\n      swap1\n      return\n        /* \"contracts/rockScissorPaper.sol\":2533:2623  function deposit() external payable {... */\n    tag_10:\n      tag_44\n      tag_45\n      jump\t// in\n    tag_44:\n      stop\n        /* \"contracts/rockScissorPaper.sol\":1376:1427  function playPaper() external payable { _play(2); } */\n    tag_11:\n      tag_46\n      tag_47\n      jump\t// in\n    tag_46:\n      stop\n        /* \"contracts/rockScissorPaper.sol\":2740:2839  function getBalance() external view returns (uint256) {... */\n    tag_15:\n        /* \"contracts/rockScissorPaper.sol\":2785:2792  uint256 */\n      0x00\n        /* \"contracts/rockScissorPaper.sol\":2811:2832  address(this).balance */\n      selfbalance\n        /* \"contracts/rockScissorPaper.sol\":2804:2832  return address(this).balance */\n      swap1\n      pop\n        /* \"contracts/rockScissorPaper.sol\":2740:2839  function getBalance() external view returns (uint256) {... */\n      swap1\n      jump\t// out\n        /* \"contracts/rockScissorPaper.sol\":1262:1312  function playRock() external payable { _play(0); } */\n    tag_19:\n        /* \"contracts/rockScissorPaper.sol\":1301:1309  _play(0) */\n      tag_50\n        /* \"contracts/rockScissorPaper.sol\":1307:1308  0 */\n      0x00\n        /* \"contracts/rockScissorPaper.sol\":1301:1306  _play */\n      tag_51\n        /* \"contracts/rockScissorPaper.sol\":1301:1309  _play(0) */\n      jump\t// in\n    tag_50:\n        /* \"contracts/rockScissorPaper.sol\":1262:1312  function playRock() external payable { _play(0); } */\n      jump\t// out\n        /* \"contracts/rockScissorPaper.sol\":773:1029  function getRules() external pure returns (string memory) {... */\n    tag_22:\n        /* \"contracts/rockScissorPaper.sol\":816:829  string memory */\n      0x60\n        /* \"contracts/rockScissorPaper.sol\":841:1022  return unicode\"Правила: 0-Камень, 1-Ножницы, 2-Бумага. Выигрыш: x2 от ставки. Ничья: возврат. Мин. ставка: 0.0001 ETH.\" */\n      mload(0x40)\n      dup1\n      0xe0\n      add\n      0x40\n      mstore\n      dup1\n      0xa5\n      dup2\n      mstore\n      0x20\n      add\n      data_4cb5a8029bebb45ed20d67a2af7ca0abedcd96d61a9d5390c76d6cdf23cfbc39\n      0xa5\n      swap2\n      codecopy\n      swap1\n      pop\n        /* \"contracts/rockScissorPaper.sol\":773:1029  function getRules() external pure returns (string memory) {... */\n      swap1\n      jump\t// out\n        /* \"contracts/rockScissorPaper.sol\":116:162  uint256 public constant MIN_BET = 0.0001 ether */\n    tag_27:\n        /* \"contracts/rockScissorPaper.sol\":150:162  0.0001 ether */\n      0x5af3107a4000\n        /* \"contracts/rockScissorPaper.sol\":116:162  uint256 public constant MIN_BET = 0.0001 ether */\n      dup2\n      jump\t// out\n        /* \"contracts/rockScissorPaper.sol\":1317:1371  function playScissors() external payable { _play(1); } */\n    tag_30:\n        /* \"contracts/rockScissorPaper.sol\":1360:1368  _play(1) */\n      tag_54\n        /* \"contracts/rockScissorPaper.sol\":1366:1367  1 */\n      0x01\n        /* \"contracts/rockScissorPaper.sol\":1360:1365  _play */\n      tag_51\n        /* \"contracts/rockScissorPaper.sol\":1360:1368  _play(1) */\n      jump\t// in\n    tag_54:\n        /* \"contracts/rockScissorPaper.sol\":1317:1371  function playScissors() external payable { _play(1); } */\n      jump\t// out\n        /* \"contracts/rockScissorPaper.sol\":320:345  LastGame public lastRound */\n    tag_33:\n      0x01\n      dup1\n      0x00\n      add\n      0x00\n      swap1\n      sload\n      swap1\n      0x0100\n      exp\n      swap1\n      div\n      0xffffffffffffffffffffffffffffffffffffffff\n      and\n      swap1\n      dup1\n      0x00\n      add\n      0x14\n      swap1\n      sload\n      swap1\n      0x0100\n      exp\n      swap1\n      div\n      0xff\n      and\n      swap1\n      dup1\n      0x00\n      add\n      0x15\n      swap1\n      sload\n      swap1\n      0x0100\n      exp\n      swap1\n      div\n      0xff\n      and\n      swap1\n      dup1\n      0x01\n      add\n      dup1\n      sload\n      tag_55\n      swap1\n      tag_56\n      jump\t// in\n    tag_55:\n      dup1\n      0x1f\n      add\n      0x20\n      dup1\n      swap2\n      div\n      mul\n      0x20\n      add\n      mload(0x40)\n      swap1\n      dup2\n      add\n      0x40\n      mstore\n      dup1\n      swap3\n      swap2\n      swap1\n      dup2\n      dup2\n      mstore\n      0x20\n      add\n      dup3\n      dup1\n      sload\n      tag_57\n      swap1\n      tag_56\n      jump\t// in\n    tag_57:\n      dup1\n      iszero\n      tag_58\n      jumpi\n      dup1\n      0x1f\n      lt\n      tag_59\n      jumpi\n      0x0100\n      dup1\n      dup4\n      sload\n      div\n      mul\n      dup4\n      mstore\n      swap2\n      0x20\n      add\n      swap2\n      jump(tag_58)\n    tag_59:\n      dup3\n      add\n      swap2\n      swap1\n      0x00\n      mstore\n      keccak256(0x00, 0x20)\n      swap1\n    tag_60:\n      dup2\n      sload\n      dup2\n      mstore\n      swap1\n      0x01\n      add\n      swap1\n      0x20\n      add\n      dup1\n      dup4\n      gt\n      tag_60\n      jumpi\n      dup3\n      swap1\n      sub\n      0x1f\n      and\n      dup3\n      add\n      swap2\n    tag_58:\n      pop\n      pop\n      pop\n      pop\n      pop\n      swap1\n      dup1\n      0x02\n      add\n      sload\n      swap1\n      pop\n      dup6\n      jump\t// out\n        /* \"contracts/rockScissorPaper.sol\":2629:2734  function withdrawAll() external onlyOwner {... */\n    tag_38:\n        /* \"contracts/rockScissorPaper.sol\":674:679  owner */\n      0x00\n      0x00\n      swap1\n      sload\n      swap1\n      0x0100\n      exp\n      swap1\n      div\n      0xffffffffffffffffffffffffffffffffffffffff\n      and\n        /* \"contracts/rockScissorPaper.sol\":660:679  msg.sender == owner */\n      0xffffffffffffffffffffffffffffffffffffffff\n      and\n        /* \"contracts/rockScissorPaper.sol\":660:670  msg.sender */\n      caller\n        /* \"contracts/rockScissorPaper.sol\":660:679  msg.sender == owner */\n      0xffffffffffffffffffffffffffffffffffffffff\n      and\n      eq\n        /* \"contracts/rockScissorPaper.sol\":652:696  require(msg.sender == owner, \"Not an owner\") */\n      tag_62\n      jumpi\n      mload(0x40)\n      0x08c379a000000000000000000000000000000000000000000000000000000000\n      dup2\n      mstore\n      0x04\n      add\n      tag_63\n      swap1\n      tag_64\n      jump\t// in\n    tag_63:\n      mload(0x40)\n      dup1\n      swap2\n      sub\n      swap1\n      revert\n    tag_62:\n        /* \"contracts/rockScissorPaper.sol\":2689:2694  owner */\n      0x00\n      0x00\n      swap1\n      sload\n      swap1\n      0x0100\n      exp\n      swap1\n      div\n      0xffffffffffffffffffffffffffffffffffffffff\n      and\n        /* \"contracts/rockScissorPaper.sol\":2681:2704  payable(owner).transfer */\n      0xffffffffffffffffffffffffffffffffffffffff\n      and\n        /* \"contracts/rockScissorPaper.sol\":2681:2727  payable(owner).transfer(address(this).balance) */\n      0x08fc\n        /* \"contracts/rockScissorPaper.sol\":2705:2726  address(this).balance */\n      selfbalance\n        /* \"contracts/rockScissorPaper.sol\":2681:2727  payable(owner).transfer(address(this).balance) */\n      swap1\n      dup2\n      iszero\n      mul\n      swap1\n      mload(0x40)\n      0x00\n      mload(0x40)\n      dup1\n      dup4\n      sub\n      dup2\n      dup6\n      dup9\n      dup9\n      call\n      swap4\n      pop\n      pop\n      pop\n      pop\n      iszero\n      dup1\n      iszero\n      tag_67\n      jumpi\n      returndatacopy(0x00, 0x00, returndatasize)\n      revert(0x00, returndatasize)\n    tag_67:\n      pop\n        /* \"contracts/rockScissorPaper.sol\":2629:2734  function withdrawAll() external onlyOwner {... */\n      jump\t// out\n        /* \"contracts/rockScissorPaper.sol\":90:110  address public owner */\n    tag_41:\n      0x00\n      0x00\n      swap1\n      sload\n      swap1\n      0x0100\n      exp\n      swap1\n      div\n      0xffffffffffffffffffffffffffffffffffffffff\n      and\n      dup2\n      jump\t// out\n        /* \"contracts/rockScissorPaper.sol\":2533:2623  function deposit() external payable {... */\n    tag_45:\n        /* \"contracts/rockScissorPaper.sol\":2594:2604  msg.sender */\n      caller\n        /* \"contracts/rockScissorPaper.sol\":2584:2616  Deposited(msg.sender, msg.value) */\n      0xffffffffffffffffffffffffffffffffffffffff\n      and\n      0x2da466a7b24304f47e87fa2e1e5a81b9831ce54fec19055ce277ca2f39ba42c4\n        /* \"contracts/rockScissorPaper.sol\":2606:2615  msg.value */\n      callvalue\n        /* \"contracts/rockScissorPaper.sol\":2584:2616  Deposited(msg.sender, msg.value) */\n      mload(0x40)\n      tag_69\n      swap2\n      swap1\n      tag_17\n      jump\t// in\n    tag_69:\n      mload(0x40)\n      dup1\n      swap2\n      sub\n      swap1\n      log2\n        /* \"contracts/rockScissorPaper.sol\":2533:2623  function deposit() external payable {... */\n      jump\t// out\n        /* \"contracts/rockScissorPaper.sol\":1376:1427  function playPaper() external payable { _play(2); } */\n    tag_47:\n        /* \"contracts/rockScissorPaper.sol\":1416:1424  _play(2) */\n      tag_71\n        /* \"contracts/rockScissorPaper.sol\":1422:1423  2 */\n      0x02\n        /* \"contracts/rockScissorPaper.sol\":1416:1421  _play */\n      tag_51\n        /* \"contracts/rockScissorPaper.sol\":1416:1424  _play(2) */\n      jump\t// in\n    tag_71:\n        /* \"contracts/rockScissorPaper.sol\":1376:1427  function playPaper() external payable { _play(2); } */\n      jump\t// out\n        /* \"contracts/rockScissorPaper.sol\":1433:2527  function _play(uint8 _playerChoice) internal {... */\n    tag_51:\n        /* \"contracts/rockScissorPaper.sol\":150:162  0.0001 ether */\n      0x5af3107a4000\n        /* \"contracts/rockScissorPaper.sol\":1496:1505  msg.value */\n      callvalue\n        /* \"contracts/rockScissorPaper.sol\":1496:1516  msg.value >= MIN_BET */\n      lt\n      iszero\n        /* \"contracts/rockScissorPaper.sol\":1488:1532  require(msg.value >= MIN_BET, \"Bet too low\") */\n      tag_73\n      jumpi\n      mload(0x40)\n      0x08c379a000000000000000000000000000000000000000000000000000000000\n      dup2\n      mstore\n      0x04\n      add\n      tag_74\n      swap1\n      tag_75\n      jump\t// in\n    tag_74:\n      mload(0x40)\n      dup1\n      swap2\n      sub\n      swap1\n      revert\n    tag_73:\n        /* \"contracts/rockScissorPaper.sol\":1587:1588  2 */\n      0x02\n        /* \"contracts/rockScissorPaper.sol\":1575:1584  msg.value */\n      callvalue\n        /* \"contracts/rockScissorPaper.sol\":1575:1588  msg.value * 2 */\n      tag_76\n      swap2\n      swap1\n      tag_77\n      jump\t// in\n    tag_76:\n        /* \"contracts/rockScissorPaper.sol\":1550:1571  address(this).balance */\n      selfbalance\n        /* \"contracts/rockScissorPaper.sol\":1550:1588  address(this).balance >= msg.value * 2 */\n      lt\n      iszero\n        /* \"contracts/rockScissorPaper.sol\":1542:1610  require(address(this).balance >= msg.value * 2, \"Contract is empty\") */\n      tag_78\n      jumpi\n      mload(0x40)\n      0x08c379a000000000000000000000000000000000000000000000000000000000\n      dup2\n      mstore\n      0x04\n      add\n      tag_79\n      swap1\n      tag_80\n      jump\t// in\n    tag_79:\n      mload(0x40)\n      dup1\n      swap2\n      sub\n      swap1\n      revert\n    tag_78:\n        /* \"contracts/rockScissorPaper.sol\":1621:1636  uint8 cpuChoice */\n      0x00\n        /* \"contracts/rockScissorPaper.sol\":1639:1656  _generateRandom() */\n      tag_81\n        /* \"contracts/rockScissorPaper.sol\":1639:1654  _generateRandom */\n      tag_82\n        /* \"contracts/rockScissorPaper.sol\":1639:1656  _generateRandom() */\n      jump\t// in\n    tag_81:\n        /* \"contracts/rockScissorPaper.sol\":1621:1656  uint8 cpuChoice = _generateRandom() */\n      swap1\n      pop\n        /* \"contracts/rockScissorPaper.sol\":1666:1690  string memory gameResult */\n      0x60\n        /* \"contracts/rockScissorPaper.sol\":1700:1714  uint256 payout */\n      0x00\n        /* \"contracts/rockScissorPaper.sol\":1717:1718  0 */\n      0x00\n        /* \"contracts/rockScissorPaper.sol\":1700:1718  uint256 payout = 0 */\n      swap1\n      pop\n        /* \"contracts/rockScissorPaper.sol\":1750:1759  cpuChoice */\n      dup3\n        /* \"contracts/rockScissorPaper.sol\":1733:1759  _playerChoice == cpuChoice */\n      0xff\n      and\n        /* \"contracts/rockScissorPaper.sol\":1733:1746  _playerChoice */\n      dup5\n        /* \"contracts/rockScissorPaper.sol\":1733:1759  _playerChoice == cpuChoice */\n      0xff\n      and\n      sub\n        /* \"contracts/rockScissorPaper.sol\":1729:2253  if (_playerChoice == cpuChoice) {... */\n      tag_83\n      jumpi\n        /* \"contracts/rockScissorPaper.sol\":1775:1794  gameResult = \"Draw\" */\n      mload(0x40)\n      dup1\n      0x40\n      add\n      0x40\n      mstore\n      dup1\n      0x04\n      dup2\n      mstore\n      0x20\n      add\n      0x4472617700000000000000000000000000000000000000000000000000000000\n      dup2\n      mstore\n      pop\n      swap2\n      pop\n        /* \"contracts/rockScissorPaper.sol\":1817:1826  msg.value */\n      callvalue\n        /* \"contracts/rockScissorPaper.sol\":1808:1826  payout = msg.value */\n      swap1\n      pop\n        /* \"contracts/rockScissorPaper.sol\":1848:1858  msg.sender */\n      caller\n        /* \"contracts/rockScissorPaper.sol\":1840:1868  payable(msg.sender).transfer */\n      0xffffffffffffffffffffffffffffffffffffffff\n      and\n        /* \"contracts/rockScissorPaper.sol\":1840:1876  payable(msg.sender).transfer(payout) */\n      0x08fc\n        /* \"contracts/rockScissorPaper.sol\":1869:1875  payout */\n      dup3\n        /* \"contracts/rockScissorPaper.sol\":1840:1876  payable(msg.sender).transfer(payout) */\n      swap1\n      dup2\n      iszero\n      mul\n      swap1\n      mload(0x40)\n      0x00\n      mload(0x40)\n      dup1\n      dup4\n      sub\n      dup2\n      dup6\n      dup9\n      dup9\n      call\n      swap4\n      pop\n      pop\n      pop\n      pop\n      iszero\n      dup1\n      iszero\n      tag_85\n      jumpi\n      returndatacopy(0x00, 0x00, returndatasize)\n      revert(0x00, returndatasize)\n    tag_85:\n      pop\n        /* \"contracts/rockScissorPaper.sol\":1729:2253  if (_playerChoice == cpuChoice) {... */\n      jump(tag_86)\n    tag_83:\n        /* \"contracts/rockScissorPaper.sol\":1928:1929  0 */\n      0x00\n        /* \"contracts/rockScissorPaper.sol\":1911:1924  _playerChoice */\n      dup5\n        /* \"contracts/rockScissorPaper.sol\":1911:1929  _playerChoice == 0 */\n      0xff\n      and\n      eq\n        /* \"contracts/rockScissorPaper.sol\":1911:1947  _playerChoice == 0 && cpuChoice == 1 */\n      dup1\n      iszero\n      tag_87\n      jumpi\n      pop\n        /* \"contracts/rockScissorPaper.sol\":1946:1947  1 */\n      0x01\n        /* \"contracts/rockScissorPaper.sol\":1933:1942  cpuChoice */\n      dup4\n        /* \"contracts/rockScissorPaper.sol\":1933:1947  cpuChoice == 1 */\n      0xff\n      and\n      eq\n        /* \"contracts/rockScissorPaper.sol\":1911:1947  _playerChoice == 0 && cpuChoice == 1 */\n    tag_87:\n        /* \"contracts/rockScissorPaper.sol\":1910:2003  (_playerChoice == 0 && cpuChoice == 1) || ... */\n      dup1\n      tag_88\n      jumpi\n      pop\n        /* \"contracts/rockScissorPaper.sol\":1983:1984  1 */\n      0x01\n        /* \"contracts/rockScissorPaper.sol\":1966:1979  _playerChoice */\n      dup5\n        /* \"contracts/rockScissorPaper.sol\":1966:1984  _playerChoice == 1 */\n      0xff\n      and\n      eq\n        /* \"contracts/rockScissorPaper.sol\":1966:2002  _playerChoice == 1 && cpuChoice == 2 */\n      dup1\n      iszero\n      tag_89\n      jumpi\n      pop\n        /* \"contracts/rockScissorPaper.sol\":2001:2002  2 */\n      0x02\n        /* \"contracts/rockScissorPaper.sol\":1988:1997  cpuChoice */\n      dup4\n        /* \"contracts/rockScissorPaper.sol\":1988:2002  cpuChoice == 2 */\n      0xff\n      and\n      eq\n        /* \"contracts/rockScissorPaper.sol\":1966:2002  _playerChoice == 1 && cpuChoice == 2 */\n    tag_89:\n        /* \"contracts/rockScissorPaper.sol\":1910:2003  (_playerChoice == 0 && cpuChoice == 1) || ... */\n    tag_88:\n        /* \"contracts/rockScissorPaper.sol\":1910:2058  (_playerChoice == 0 && cpuChoice == 1) || ... */\n      dup1\n      tag_90\n      jumpi\n      pop\n        /* \"contracts/rockScissorPaper.sol\":2038:2039  2 */\n      0x02\n        /* \"contracts/rockScissorPaper.sol\":2021:2034  _playerChoice */\n      dup5\n        /* \"contracts/rockScissorPaper.sol\":2021:2039  _playerChoice == 2 */\n      0xff\n      and\n      eq\n        /* \"contracts/rockScissorPaper.sol\":2021:2057  _playerChoice == 2 && cpuChoice == 0 */\n      dup1\n      iszero\n      tag_91\n      jumpi\n      pop\n        /* \"contracts/rockScissorPaper.sol\":2056:2057  0 */\n      0x00\n        /* \"contracts/rockScissorPaper.sol\":2043:2052  cpuChoice */\n      dup4\n        /* \"contracts/rockScissorPaper.sol\":2043:2057  cpuChoice == 0 */\n      0xff\n      and\n      eq\n        /* \"contracts/rockScissorPaper.sol\":2021:2057  _playerChoice == 2 && cpuChoice == 0 */\n    tag_91:\n        /* \"contracts/rockScissorPaper.sol\":1910:2058  (_playerChoice == 0 && cpuChoice == 1) || ... */\n    tag_90:\n        /* \"contracts/rockScissorPaper.sol\":1893:2253  if (... */\n      iszero\n      tag_92\n      jumpi\n        /* \"contracts/rockScissorPaper.sol\":2083:2106  gameResult = \"You Win!\" */\n      mload(0x40)\n      dup1\n      0x40\n      add\n      0x40\n      mstore\n      dup1\n      0x08\n      dup2\n      mstore\n      0x20\n      add\n      0x596f752057696e21000000000000000000000000000000000000000000000000\n      dup2\n      mstore\n      pop\n      swap2\n      pop\n        /* \"contracts/rockScissorPaper.sol\":2141:2142  2 */\n      0x02\n        /* \"contracts/rockScissorPaper.sol\":2129:2138  msg.value */\n      callvalue\n        /* \"contracts/rockScissorPaper.sol\":2129:2142  msg.value * 2 */\n      tag_93\n      swap2\n      swap1\n      tag_77\n      jump\t// in\n    tag_93:\n        /* \"contracts/rockScissorPaper.sol\":2120:2142  payout = msg.value * 2 */\n      swap1\n      pop\n        /* \"contracts/rockScissorPaper.sol\":2164:2174  msg.sender */\n      caller\n        /* \"contracts/rockScissorPaper.sol\":2156:2184  payable(msg.sender).transfer */\n      0xffffffffffffffffffffffffffffffffffffffff\n      and\n        /* \"contracts/rockScissorPaper.sol\":2156:2192  payable(msg.sender).transfer(payout) */\n      0x08fc\n        /* \"contracts/rockScissorPaper.sol\":2185:2191  payout */\n      dup3\n        /* \"contracts/rockScissorPaper.sol\":2156:2192  payable(msg.sender).transfer(payout) */\n      swap1\n      dup2\n      iszero\n      mul\n      swap1\n      mload(0x40)\n      0x00\n      mload(0x40)\n      dup1\n      dup4\n      sub\n      dup2\n      dup6\n      dup9\n      dup9\n      call\n      swap4\n      pop\n      pop\n      pop\n      pop\n      iszero\n      dup1\n      iszero\n      tag_95\n      jumpi\n      returndatacopy(0x00, 0x00, returndatasize)\n      revert(0x00, returndatasize)\n    tag_95:\n      pop\n        /* \"contracts/rockScissorPaper.sol\":1893:2253  if (... */\n      jump(tag_96)\n    tag_92:\n        /* \"contracts/rockScissorPaper.sol\":2223:2242  gameResult = \"Lose\" */\n      mload(0x40)\n      dup1\n      0x40\n      add\n      0x40\n      mstore\n      dup1\n      0x04\n      dup2\n      mstore\n      0x20\n      add\n      0x4c6f736500000000000000000000000000000000000000000000000000000000\n      dup2\n      mstore\n      pop\n      swap2\n      pop\n        /* \"contracts/rockScissorPaper.sol\":1893:2253  if (... */\n    tag_96:\n        /* \"contracts/rockScissorPaper.sol\":1729:2253  if (_playerChoice == cpuChoice) {... */\n    tag_86:\n        /* \"contracts/rockScissorPaper.sol\":2275:2462  LastGame({... */\n      mload(0x40)\n      dup1\n      0xa0\n      add\n      0x40\n      mstore\n      dup1\n        /* \"contracts/rockScissorPaper.sol\":2306:2316  msg.sender */\n      caller\n        /* \"contracts/rockScissorPaper.sol\":2275:2462  LastGame({... */\n      0xffffffffffffffffffffffffffffffffffffffff\n      and\n      dup2\n      mstore\n      0x20\n      add\n        /* \"contracts/rockScissorPaper.sol\":2344:2357  _playerChoice */\n      dup6\n        /* \"contracts/rockScissorPaper.sol\":2275:2462  LastGame({... */\n      0xff\n      and\n      dup2\n      mstore\n      0x20\n      add\n        /* \"contracts/rockScissorPaper.sol\":2382:2391  cpuChoice */\n      dup5\n        /* \"contracts/rockScissorPaper.sol\":2275:2462  LastGame({... */\n      0xff\n      and\n      dup2\n      mstore\n      0x20\n      add\n        /* \"contracts/rockScissorPaper.sol\":2413:2423  gameResult */\n      dup4\n        /* \"contracts/rockScissorPaper.sol\":2275:2462  LastGame({... */\n      dup2\n      mstore\n      0x20\n      add\n        /* \"contracts/rockScissorPaper.sol\":2442:2451  msg.value */\n      callvalue\n        /* \"contracts/rockScissorPaper.sol\":2275:2462  LastGame({... */\n      dup2\n      mstore\n      pop\n        /* \"contracts/rockScissorPaper.sol\":2263:2272  lastRound */\n      0x01\n        /* \"contracts/rockScissorPaper.sol\":2263:2462  lastRound = LastGame({... */\n      0x00\n      dup3\n      add\n      mload\n      dup2\n      0x00\n      add\n      exp(0x0100, 0x00)\n      dup2\n      sload\n      dup2\n      0xffffffffffffffffffffffffffffffffffffffff\n      mul\n      not\n      and\n      swap1\n      dup4\n      0xffffffffffffffffffffffffffffffffffffffff\n      and\n      mul\n      or\n      swap1\n      sstore\n      pop\n      0x20\n      dup3\n      add\n      mload\n      dup2\n      0x00\n      add\n      exp(0x0100, 0x14)\n      dup2\n      sload\n      dup2\n      0xff\n      mul\n      not\n      and\n      swap1\n      dup4\n      0xff\n      and\n      mul\n      or\n      swap1\n      sstore\n      pop\n      0x40\n      dup3\n      add\n      mload\n      dup2\n      0x00\n      add\n      exp(0x0100, 0x15)\n      dup2\n      sload\n      dup2\n      0xff\n      mul\n      not\n      and\n      swap1\n      dup4\n      0xff\n      and\n      mul\n      or\n      swap1\n      sstore\n      pop\n      0x60\n      dup3\n      add\n      mload\n      dup2\n      0x01\n      add\n      swap1\n      dup2\n      tag_97\n      swap2\n      swap1\n      tag_98\n      jump\t// in\n    tag_97:\n      pop\n      0x80\n      dup3\n      add\n      mload\n      dup2\n      0x02\n      add\n      sstore\n      swap1\n      pop\n      pop\n        /* \"contracts/rockScissorPaper.sol\":2489:2499  msg.sender */\n      caller\n        /* \"contracts/rockScissorPaper.sol\":2478:2520  GamePlayed(msg.sender, gameResult, payout) */\n      0xffffffffffffffffffffffffffffffffffffffff\n      and\n      0x08210b57d870ebebf82fb3263f9d6d53341fae0d16306ecd5b82d841c5227e36\n        /* \"contracts/rockScissorPaper.sol\":2501:2511  gameResult */\n      dup4\n        /* \"contracts/rockScissorPaper.sol\":2513:2519  payout */\n      dup4\n        /* \"contracts/rockScissorPaper.sol\":2478:2520  GamePlayed(msg.sender, gameResult, payout) */\n      mload(0x40)\n      tag_99\n      swap3\n      swap2\n      swap1\n      tag_100\n      jump\t// in\n    tag_99:\n      mload(0x40)\n      dup1\n      swap2\n      sub\n      swap1\n      log2\n        /* \"contracts/rockScissorPaper.sol\":1478:2527  {... */\n      pop\n      pop\n      pop\n        /* \"contracts/rockScissorPaper.sol\":1433:2527  function _play(uint8 _playerChoice) internal {... */\n      pop\n      jump\t// out\n        /* \"contracts/rockScissorPaper.sol\":1035:1256  function _generateRandom() private view returns (uint8) {... */\n    tag_82:\n        /* \"contracts/rockScissorPaper.sol\":1084:1089  uint8 */\n      0x00\n        /* \"contracts/rockScissorPaper.sol\":1247:1248  3 */\n      0x03\n        /* \"contracts/rockScissorPaper.sol\":1162:1178  block.prevrandao */\n      prevrandao\n        /* \"contracts/rockScissorPaper.sol\":1193:1208  block.timestamp */\n      timestamp\n        /* \"contracts/rockScissorPaper.sol\":1222:1232  msg.sender */\n      caller\n        /* \"contracts/rockScissorPaper.sol\":1132:1242  abi.encodePacked(... */\n      add(0x20, mload(0x40))\n      tag_102\n      swap4\n      swap3\n      swap2\n      swap1\n      tag_103\n      jump\t// in\n    tag_102:\n      mload(0x40)\n      0x20\n      dup2\n      dup4\n      sub\n      sub\n      dup2\n      mstore\n      swap1\n      0x40\n      mstore\n        /* \"contracts/rockScissorPaper.sol\":1122:1243  keccak256(abi.encodePacked(... */\n      dup1\n      mload\n      swap1\n      0x20\n      add\n      keccak256\n        /* \"contracts/rockScissorPaper.sol\":1114:1244  uint256(keccak256(abi.encodePacked(... */\n      0x00\n      shr\n        /* \"contracts/rockScissorPaper.sol\":1114:1248  uint256(keccak256(abi.encodePacked(... */\n      tag_104\n      swap2\n      swap1\n      tag_105\n      jump\t// in\n    tag_104:\n        /* \"contracts/rockScissorPaper.sol\":1101:1249  return uint8(uint256(keccak256(abi.encodePacked(... */\n      swap1\n      pop\n        /* \"contracts/rockScissorPaper.sol\":1035:1256  function _generateRandom() private view returns (uint8) {... */\n      swap1\n      jump\t// out\n        /* \"#utility.yul\":7:84   */\n    tag_106:\n        /* \"#utility.yul\":44:51   */\n      0x00\n        /* \"#utility.yul\":73:78   */\n      dup2\n        /* \"#utility.yul\":62:78   */\n      swap1\n      pop\n        /* \"#utility.yul\":7:84   */\n      swap2\n      swap1\n      pop\n      jump\t// out\n        /* \"#utility.yul\":90:208   */\n    tag_107:\n        /* \"#utility.yul\":177:201   */\n      tag_152\n        /* \"#utility.yul\":195:200   */\n      dup2\n        /* \"#utility.yul\":177:201   */\n      tag_106\n      jump\t// in\n    tag_152:\n        /* \"#utility.yul\":172:175   */\n      dup3\n        /* \"#utility.yul\":165:202   */\n      mstore\n        /* \"#utility.yul\":90:208   */\n      pop\n      pop\n      jump\t// out\n        /* \"#utility.yul\":214:436   */\n    tag_17:\n        /* \"#utility.yul\":307:311   */\n      0x00\n        /* \"#utility.yul\":345:347   */\n      0x20\n        /* \"#utility.yul\":334:343   */\n      dup3\n        /* \"#utility.yul\":330:348   */\n      add\n        /* \"#utility.yul\":322:348   */\n      swap1\n      pop\n        /* \"#utility.yul\":358:429   */\n      tag_154\n        /* \"#utility.yul\":426:427   */\n      0x00\n        /* \"#utility.yul\":415:424   */\n      dup4\n        /* \"#utility.yul\":411:428   */\n      add\n        /* \"#utility.yul\":402:408   */\n      dup5\n        /* \"#utility.yul\":358:429   */\n      tag_107\n      jump\t// in\n    tag_154:\n        /* \"#utility.yul\":214:436   */\n      swap3\n      swap2\n      pop\n      pop\n      jump\t// out\n        /* \"#utility.yul\":442:541   */\n    tag_108:\n        /* \"#utility.yul\":494:500   */\n      0x00\n        /* \"#utility.yul\":528:533   */\n      dup2\n        /* \"#utility.yul\":522:534   */\n      mload\n        /* \"#utility.yul\":512:534   */\n      swap1\n      pop\n        /* \"#utility.yul\":442:541   */\n      swap2\n      swap1\n      pop\n      jump\t// out\n        /* \"#utility.yul\":547:716   */\n    tag_109:\n        /* \"#utility.yul\":631:642   */\n      0x00\n        /* \"#utility.yul\":665:671   */\n      dup3\n        /* \"#utility.yul\":660:663   */\n      dup3\n        /* \"#utility.yul\":653:672   */\n      mstore\n        /* \"#utility.yul\":705:709   */\n      0x20\n        /* \"#utility.yul\":700:703   */\n      dup3\n        /* \"#utility.yul\":696:710   */\n      add\n        /* \"#utility.yul\":681:710   */\n      swap1\n      pop\n        /* \"#utility.yul\":547:716   */\n      swap3\n      swap2\n      pop\n      pop\n      jump\t// out\n        /* \"#utility.yul\":722:861   */\n    tag_110:\n        /* \"#utility.yul\":811:817   */\n      dup3\n        /* \"#utility.yul\":806:809   */\n      dup2\n        /* \"#utility.yul\":801:804   */\n      dup4\n        /* \"#utility.yul\":795:818   */\n      mcopy\n        /* \"#utility.yul\":852:853   */\n      0x00\n        /* \"#utility.yul\":843:849   */\n      dup4\n        /* \"#utility.yul\":838:841   */\n      dup4\n        /* \"#utility.yul\":834:850   */\n      add\n        /* \"#utility.yul\":827:854   */\n      mstore\n        /* \"#utility.yul\":722:861   */\n      pop\n      pop\n      pop\n      jump\t// out\n        /* \"#utility.yul\":867:969   */\n    tag_111:\n        /* \"#utility.yul\":908:914   */\n      0x00\n        /* \"#utility.yul\":959:961   */\n      0x1f\n        /* \"#utility.yul\":955:962   */\n      not\n        /* \"#utility.yul\":950:952   */\n      0x1f\n        /* \"#utility.yul\":943:948   */\n      dup4\n        /* \"#utility.yul\":939:953   */\n      add\n        /* \"#utility.yul\":935:963   */\n      and\n        /* \"#utility.yul\":925:963   */\n      swap1\n      pop\n        /* \"#utility.yul\":867:969   */\n      swap2\n      swap1\n      pop\n      jump\t// out\n        /* \"#utility.yul\":975:1352   */\n    tag_112:\n        /* \"#utility.yul\":1063:1066   */\n      0x00\n        /* \"#utility.yul\":1091:1130   */\n      tag_160\n        /* \"#utility.yul\":1124:1129   */\n      dup3\n        /* \"#utility.yul\":1091:1130   */\n      tag_108\n      jump\t// in\n    tag_160:\n        /* \"#utility.yul\":1146:1217   */\n      tag_161\n        /* \"#utility.yul\":1210:1216   */\n      dup2\n        /* \"#utility.yul\":1205:1208   */\n      dup6\n        /* \"#utility.yul\":1146:1217   */\n      tag_109\n      jump\t// in\n    tag_161:\n        /* \"#utility.yul\":1139:1217   */\n      swap4\n      pop\n        /* \"#utility.yul\":1226:1291   */\n      tag_162\n        /* \"#utility.yul\":1284:1290   */\n      dup2\n        /* \"#utility.yul\":1279:1282   */\n      dup6\n        /* \"#utility.yul\":1272:1276   */\n      0x20\n        /* \"#utility.yul\":1265:1270   */\n      dup7\n        /* \"#utility.yul\":1261:1277   */\n      add\n        /* \"#utility.yul\":1226:1291   */\n      tag_110\n      jump\t// in\n    tag_162:\n        /* \"#utility.yul\":1316:1345   */\n      tag_163\n        /* \"#utility.yul\":1338:1344   */\n      dup2\n        /* \"#utility.yul\":1316:1345   */\n      tag_111\n      jump\t// in\n    tag_163:\n        /* \"#utility.yul\":1311:1314   */\n      dup5\n        /* \"#utility.yul\":1307:1346   */\n      add\n        /* \"#utility.yul\":1300:1346   */\n      swap2\n      pop\n        /* \"#utility.yul\":1067:1352   */\n      pop\n        /* \"#utility.yul\":975:1352   */\n      swap3\n      swap2\n      pop\n      pop\n      jump\t// out\n        /* \"#utility.yul\":1358:1671   */\n    tag_24:\n        /* \"#utility.yul\":1471:1475   */\n      0x00\n        /* \"#utility.yul\":1509:1511   */\n      0x20\n        /* \"#utility.yul\":1498:1507   */\n      dup3\n        /* \"#utility.yul\":1494:1512   */\n      add\n        /* \"#utility.yul\":1486:1512   */\n      swap1\n      pop\n        /* \"#utility.yul\":1558:1567   */\n      dup2\n        /* \"#utility.yul\":1552:1556   */\n      dup2\n        /* \"#utility.yul\":1548:1568   */\n      sub\n        /* \"#utility.yul\":1544:1545   */\n      0x00\n        /* \"#utility.yul\":1533:1542   */\n      dup4\n        /* \"#utility.yul\":1529:1546   */\n      add\n        /* \"#utility.yul\":1522:1569   */\n      mstore\n        /* \"#utility.yul\":1586:1664   */\n      tag_165\n        /* \"#utility.yul\":1659:1663   */\n      dup2\n        /* \"#utility.yul\":1650:1656   */\n      dup5\n        /* \"#utility.yul\":1586:1664   */\n      tag_112\n      jump\t// in\n    tag_165:\n        /* \"#utility.yul\":1578:1664   */\n      swap1\n      pop\n        /* \"#utility.yul\":1358:1671   */\n      swap3\n      swap2\n      pop\n      pop\n      jump\t// out\n        /* \"#utility.yul\":1677:1803   */\n    tag_113:\n        /* \"#utility.yul\":1714:1721   */\n      0x00\n        /* \"#utility.yul\":1754:1796   */\n      0xffffffffffffffffffffffffffffffffffffffff\n        /* \"#utility.yul\":1747:1752   */\n      dup3\n        /* \"#utility.yul\":1743:1797   */\n      and\n        /* \"#utility.yul\":1732:1797   */\n      swap1\n      pop\n        /* \"#utility.yul\":1677:1803   */\n      swap2\n      swap1\n      pop\n      jump\t// out\n        /* \"#utility.yul\":1809:1905   */\n    tag_114:\n        /* \"#utility.yul\":1846:1853   */\n      0x00\n        /* \"#utility.yul\":1875:1899   */\n      tag_168\n        /* \"#utility.yul\":1893:1898   */\n      dup3\n        /* \"#utility.yul\":1875:1899   */\n      tag_113\n      jump\t// in\n    tag_168:\n        /* \"#utility.yul\":1864:1899   */\n      swap1\n      pop\n        /* \"#utility.yul\":1809:1905   */\n      swap2\n      swap1\n      pop\n      jump\t// out\n        /* \"#utility.yul\":1911:2029   */\n    tag_115:\n        /* \"#utility.yul\":1998:2022   */\n      tag_170\n        /* \"#utility.yul\":2016:2021   */\n      dup2\n        /* \"#utility.yul\":1998:2022   */\n      tag_114\n      jump\t// in\n    tag_170:\n        /* \"#utility.yul\":1993:1996   */\n      dup3\n        /* \"#utility.yul\":1986:2023   */\n      mstore\n        /* \"#utility.yul\":1911:2029   */\n      pop\n      pop\n      jump\t// out\n        /* \"#utility.yul\":2035:2121   */\n    tag_116:\n        /* \"#utility.yul\":2070:2077   */\n      0x00\n        /* \"#utility.yul\":2110:2114   */\n      0xff\n        /* \"#utility.yul\":2103:2108   */\n      dup3\n        /* \"#utility.yul\":2099:2115   */\n      and\n        /* \"#utility.yul\":2088:2115   */\n      swap1\n      pop\n        /* \"#utility.yul\":2035:2121   */\n      swap2\n      swap1\n      pop\n      jump\t// out\n        /* \"#utility.yul\":2127:2239   */\n    tag_117:\n        /* \"#utility.yul\":2210:2232   */\n      tag_173\n        /* \"#utility.yul\":2226:2231   */\n      dup2\n        /* \"#utility.yul\":2210:2232   */\n      tag_116\n      jump\t// in\n    tag_173:\n        /* \"#utility.yul\":2205:2208   */\n      dup3\n        /* \"#utility.yul\":2198:2233   */\n      mstore\n        /* \"#utility.yul\":2127:2239   */\n      pop\n      pop\n      jump\t// out\n        /* \"#utility.yul\":2245:2984   */\n    tag_35:\n        /* \"#utility.yul\":2462:2466   */\n      0x00\n        /* \"#utility.yul\":2500:2503   */\n      0xa0\n        /* \"#utility.yul\":2489:2498   */\n      dup3\n        /* \"#utility.yul\":2485:2504   */\n      add\n        /* \"#utility.yul\":2477:2504   */\n      swap1\n      pop\n        /* \"#utility.yul\":2514:2585   */\n      tag_175\n        /* \"#utility.yul\":2582:2583   */\n      0x00\n        /* \"#utility.yul\":2571:2580   */\n      dup4\n        /* \"#utility.yul\":2567:2584   */\n      add\n        /* \"#utility.yul\":2558:2564   */\n      dup9\n        /* \"#utility.yul\":2514:2585   */\n      tag_115\n      jump\t// in\n    tag_175:\n        /* \"#utility.yul\":2595:2663   */\n      tag_176\n        /* \"#utility.yul\":2659:2661   */\n      0x20\n        /* \"#utility.yul\":2648:2657   */\n      dup4\n        /* \"#utility.yul\":2644:2662   */\n      add\n        /* \"#utility.yul\":2635:2641   */\n      dup8\n        /* \"#utility.yul\":2595:2663   */\n      tag_117\n      jump\t// in\n    tag_176:\n        /* \"#utility.yul\":2673:2741   */\n      tag_177\n        /* \"#utility.yul\":2737:2739   */\n      0x40\n        /* \"#utility.yul\":2726:2735   */\n      dup4\n        /* \"#utility.yul\":2722:2740   */\n      add\n        /* \"#utility.yul\":2713:2719   */\n      dup7\n        /* \"#utility.yul\":2673:2741   */\n      tag_117\n      jump\t// in\n    tag_177:\n        /* \"#utility.yul\":2788:2797   */\n      dup2\n        /* \"#utility.yul\":2782:2786   */\n      dup2\n        /* \"#utility.yul\":2778:2798   */\n      sub\n        /* \"#utility.yul\":2773:2775   */\n      0x60\n        /* \"#utility.yul\":2762:2771   */\n      dup4\n        /* \"#utility.yul\":2758:2776   */\n      add\n        /* \"#utility.yul\":2751:2799   */\n      mstore\n        /* \"#utility.yul\":2816:2894   */\n      tag_178\n        /* \"#utility.yul\":2889:2893   */\n      dup2\n        /* \"#utility.yul\":2880:2886   */\n      dup6\n        /* \"#utility.yul\":2816:2894   */\n      tag_112\n      jump\t// in\n    tag_178:\n        /* \"#utility.yul\":2808:2894   */\n      swap1\n      pop\n        /* \"#utility.yul\":2904:2977   */\n      tag_179\n        /* \"#utility.yul\":2972:2975   */\n      0x80\n        /* \"#utility.yul\":2961:2970   */\n      dup4\n        /* \"#utility.yul\":2957:2976   */\n      add\n        /* \"#utility.yul\":2948:2954   */\n      dup5\n        /* \"#utility.yul\":2904:2977   */\n      tag_107\n      jump\t// in\n    tag_179:\n        /* \"#utility.yul\":2245:2984   */\n      swap7\n      swap6\n      pop\n      pop\n      pop\n      pop\n      pop\n      pop\n      jump\t// out\n        /* \"#utility.yul\":2990:3212   */\n    tag_43:\n        /* \"#utility.yul\":3083:3087   */\n      0x00\n        /* \"#utility.yul\":3121:3123   */\n      0x20\n        /* \"#utility.yul\":3110:3119   */\n      dup3\n        /* \"#utility.yul\":3106:3124   */\n      add\n        /* \"#utility.yul\":3098:3124   */\n      swap1\n      pop\n        /* \"#utility.yul\":3134:3205   */\n      tag_181\n        /* \"#utility.yul\":3202:3203   */\n      0x00\n        /* \"#utility.yul\":3191:3200   */\n      dup4\n        /* \"#utility.yul\":3187:3204   */\n      add\n        /* \"#utility.yul\":3178:3184   */\n      dup5\n        /* \"#utility.yul\":3134:3205   */\n      tag_115\n      jump\t// in\n    tag_181:\n        /* \"#utility.yul\":2990:3212   */\n      swap3\n      swap2\n      pop\n      pop\n      jump\t// out\n        /* \"#utility.yul\":3218:3398   */\n    tag_118:\n        /* \"#utility.yul\":3266:3343   */\n      0x4e487b7100000000000000000000000000000000000000000000000000000000\n        /* \"#utility.yul\":3263:3264   */\n      0x00\n        /* \"#utility.yul\":3256:3344   */\n      mstore\n        /* \"#utility.yul\":3363:3367   */\n      0x22\n        /* \"#utility.yul\":3360:3361   */\n      0x04\n        /* \"#utility.yul\":3353:3368   */\n      mstore\n        /* \"#utility.yul\":3387:3391   */\n      0x24\n        /* \"#utility.yul\":3384:3385   */\n      0x00\n        /* \"#utility.yul\":3377:3392   */\n      revert\n        /* \"#utility.yul\":3404:3724   */\n    tag_56:\n        /* \"#utility.yul\":3448:3454   */\n      0x00\n        /* \"#utility.yul\":3485:3486   */\n      0x02\n        /* \"#utility.yul\":3479:3483   */\n      dup3\n        /* \"#utility.yul\":3475:3487   */\n      div\n        /* \"#utility.yul\":3465:3487   */\n      swap1\n      pop\n        /* \"#utility.yul\":3532:3533   */\n      0x01\n        /* \"#utility.yul\":3526:3530   */\n      dup3\n        /* \"#utility.yul\":3522:3534   */\n      and\n        /* \"#utility.yul\":3553:3571   */\n      dup1\n        /* \"#utility.yul\":3543:3624   */\n      tag_184\n      jumpi\n        /* \"#utility.yul\":3609:3613   */\n      0x7f\n        /* \"#utility.yul\":3601:3607   */\n      dup3\n        /* \"#utility.yul\":3597:3614   */\n      and\n        /* \"#utility.yul\":3587:3614   */\n      swap2\n      pop\n        /* \"#utility.yul\":3543:3624   */\n    tag_184:\n        /* \"#utility.yul\":3671:3673   */\n      0x20\n        /* \"#utility.yul\":3663:3669   */\n      dup3\n        /* \"#utility.yul\":3660:3674   */\n      lt\n        /* \"#utility.yul\":3640:3658   */\n      dup2\n        /* \"#utility.yul\":3637:3675   */\n      sub\n        /* \"#utility.yul\":3634:3718   */\n      tag_185\n      jumpi\n        /* \"#utility.yul\":3690:3708   */\n      tag_186\n      tag_118\n      jump\t// in\n    tag_186:\n        /* \"#utility.yul\":3634:3718   */\n    tag_185:\n        /* \"#utility.yul\":3455:3724   */\n      pop\n        /* \"#utility.yul\":3404:3724   */\n      swap2\n      swap1\n      pop\n      jump\t// out\n        /* \"#utility.yul\":3730:3892   */\n    tag_119:\n        /* \"#utility.yul\":3870:3884   */\n      0x4e6f7420616e206f776e65720000000000000000000000000000000000000000\n        /* \"#utility.yul\":3866:3867   */\n      0x00\n        /* \"#utility.yul\":3858:3864   */\n      dup3\n        /* \"#utility.yul\":3854:3868   */\n      add\n        /* \"#utility.yul\":3847:3885   */\n      mstore\n        /* \"#utility.yul\":3730:3892   */\n      pop\n      jump\t// out\n        /* \"#utility.yul\":3898:4264   */\n    tag_120:\n        /* \"#utility.yul\":4040:4043   */\n      0x00\n        /* \"#utility.yul\":4061:4128   */\n      tag_189\n        /* \"#utility.yul\":4125:4127   */\n      0x0c\n        /* \"#utility.yul\":4120:4123   */\n      dup4\n        /* \"#utility.yul\":4061:4128   */\n      tag_109\n      jump\t// in\n    tag_189:\n        /* \"#utility.yul\":4054:4128   */\n      swap2\n      pop\n        /* \"#utility.yul\":4137:4230   */\n      tag_190\n        /* \"#utility.yul\":4226:4229   */\n      dup3\n        /* \"#utility.yul\":4137:4230   */\n      tag_119\n      jump\t// in\n    tag_190:\n        /* \"#utility.yul\":4255:4257   */\n      0x20\n        /* \"#utility.yul\":4250:4253   */\n      dup3\n        /* \"#utility.yul\":4246:4258   */\n      add\n        /* \"#utility.yul\":4239:4258   */\n      swap1\n      pop\n        /* \"#utility.yul\":3898:4264   */\n      swap2\n      swap1\n      pop\n      jump\t// out\n        /* \"#utility.yul\":4270:4689   */\n    tag_64:\n        /* \"#utility.yul\":4436:4440   */\n      0x00\n        /* \"#utility.yul\":4474:4476   */\n      0x20\n        /* \"#utility.yul\":4463:4472   */\n      dup3\n        /* \"#utility.yul\":4459:4477   */\n      add\n        /* \"#utility.yul\":4451:4477   */\n      swap1\n      pop\n        /* \"#utility.yul\":4523:4532   */\n      dup2\n        /* \"#utility.yul\":4517:4521   */\n      dup2\n        /* \"#utility.yul\":4513:4533   */\n      sub\n        /* \"#utility.yul\":4509:4510   */\n      0x00\n        /* \"#utility.yul\":4498:4507   */\n      dup4\n        /* \"#utility.yul\":4494:4511   */\n      add\n        /* \"#utility.yul\":4487:4534   */\n      mstore\n        /* \"#utility.yul\":4551:4682   */\n      tag_192\n        /* \"#utility.yul\":4677:4681   */\n      dup2\n        /* \"#utility.yul\":4551:4682   */\n      tag_120\n      jump\t// in\n    tag_192:\n        /* \"#utility.yul\":4543:4682   */\n      swap1\n      pop\n        /* \"#utility.yul\":4270:4689   */\n      swap2\n      swap1\n      pop\n      jump\t// out\n        /* \"#utility.yul\":4695:4856   */\n    tag_121:\n        /* \"#utility.yul\":4835:4848   */\n      0x42657420746f6f206c6f77000000000000000000000000000000000000000000\n        /* \"#utility.yul\":4831:4832   */\n      0x00\n        /* \"#utility.yul\":4823:4829   */\n      dup3\n        /* \"#utility.yul\":4819:4833   */\n      add\n        /* \"#utility.yul\":4812:4849   */\n      mstore\n        /* \"#utility.yul\":4695:4856   */\n      pop\n      jump\t// out\n        /* \"#utility.yul\":4862:5228   */\n    tag_122:\n        /* \"#utility.yul\":5004:5007   */\n      0x00\n        /* \"#utility.yul\":5025:5092   */\n      tag_195\n        /* \"#utility.yul\":5089:5091   */\n      0x0b\n        /* \"#utility.yul\":5084:5087   */\n      dup4\n        /* \"#utility.yul\":5025:5092   */\n      tag_109\n      jump\t// in\n    tag_195:\n        /* \"#utility.yul\":5018:5092   */\n      swap2\n      pop\n        /* \"#utility.yul\":5101:5194   */\n      tag_196\n        /* \"#utility.yul\":5190:5193   */\n      dup3\n        /* \"#utility.yul\":5101:5194   */\n      tag_121\n      jump\t// in\n    tag_196:\n        /* \"#utility.yul\":5219:5221   */\n      0x20\n        /* \"#utility.yul\":5214:5217   */\n      dup3\n        /* \"#utility.yul\":5210:5222   */\n      add\n        /* \"#utility.yul\":5203:5222   */\n      swap1\n      pop\n        /* \"#utility.yul\":4862:5228   */\n      swap2\n      swap1\n      pop\n      jump\t// out\n        /* \"#utility.yul\":5234:5653   */\n    tag_75:\n        /* \"#utility.yul\":5400:5404   */\n      0x00\n        /* \"#utility.yul\":5438:5440   */\n      0x20\n        /* \"#utility.yul\":5427:5436   */\n      dup3\n        /* \"#utility.yul\":5423:5441   */\n      add\n        /* \"#utility.yul\":5415:5441   */\n      swap1\n      pop\n        /* \"#utility.yul\":5487:5496   */\n      dup2\n        /* \"#utility.yul\":5481:5485   */\n      dup2\n        /* \"#utility.yul\":5477:5497   */\n      sub\n        /* \"#utility.yul\":5473:5474   */\n      0x00\n        /* \"#utility.yul\":5462:5471   */\n      dup4\n        /* \"#utility.yul\":5458:5475   */\n      add\n        /* \"#utility.yul\":5451:5498   */\n      mstore\n        /* \"#utility.yul\":5515:5646   */\n      tag_198\n        /* \"#utility.yul\":5641:5645   */\n      dup2\n        /* \"#utility.yul\":5515:5646   */\n      tag_122\n      jump\t// in\n    tag_198:\n        /* \"#utility.yul\":5507:5646   */\n      swap1\n      pop\n        /* \"#utility.yul\":5234:5653   */\n      swap2\n      swap1\n      pop\n      jump\t// out\n        /* \"#utility.yul\":5659:5839   */\n    tag_123:\n        /* \"#utility.yul\":5707:5784   */\n      0x4e487b7100000000000000000000000000000000000000000000000000000000\n        /* \"#utility.yul\":5704:5705   */\n      0x00\n        /* \"#utility.yul\":5697:5785   */\n      mstore\n        /* \"#utility.yul\":5804:5808   */\n      0x11\n        /* \"#utility.yul\":5801:5802   */\n      0x04\n        /* \"#utility.yul\":5794:5809   */\n      mstore\n        /* \"#utility.yul\":5828:5832   */\n      0x24\n        /* \"#utility.yul\":5825:5826   */\n      0x00\n        /* \"#utility.yul\":5818:5833   */\n      revert\n        /* \"#utility.yul\":5845:6255   */\n    tag_77:\n        /* \"#utility.yul\":5885:5892   */\n      0x00\n        /* \"#utility.yul\":5908:5928   */\n      tag_201\n        /* \"#utility.yul\":5926:5927   */\n      dup3\n        /* \"#utility.yul\":5908:5928   */\n      tag_106\n      jump\t// in\n    tag_201:\n        /* \"#utility.yul\":5903:5928   */\n      swap2\n      pop\n        /* \"#utility.yul\":5942:5962   */\n      tag_202\n        /* \"#utility.yul\":5960:5961   */\n      dup4\n        /* \"#utility.yul\":5942:5962   */\n      tag_106\n      jump\t// in\n    tag_202:\n        /* \"#utility.yul\":5937:5962   */\n      swap3\n      pop\n        /* \"#utility.yul\":5997:5998   */\n      dup3\n        /* \"#utility.yul\":5994:5995   */\n      dup3\n        /* \"#utility.yul\":5990:5999   */\n      mul\n        /* \"#utility.yul\":6019:6049   */\n      tag_203\n        /* \"#utility.yul\":6037:6048   */\n      dup2\n        /* \"#utility.yul\":6019:6049   */\n      tag_106\n      jump\t// in\n    tag_203:\n        /* \"#utility.yul\":6008:6049   */\n      swap2\n      pop\n        /* \"#utility.yul\":6198:6199   */\n      dup3\n        /* \"#utility.yul\":6189:6196   */\n      dup3\n        /* \"#utility.yul\":6185:6200   */\n      div\n        /* \"#utility.yul\":6182:6183   */\n      dup5\n        /* \"#utility.yul\":6179:6201   */\n      eq\n        /* \"#utility.yul\":6159:6160   */\n      dup4\n        /* \"#utility.yul\":6152:6161   */\n      iszero\n        /* \"#utility.yul\":6132:6215   */\n      or\n        /* \"#utility.yul\":6109:6248   */\n      tag_204\n      jumpi\n        /* \"#utility.yul\":6228:6246   */\n      tag_205\n      tag_123\n      jump\t// in\n    tag_205:\n        /* \"#utility.yul\":6109:6248   */\n    tag_204:\n        /* \"#utility.yul\":5893:6255   */\n      pop\n        /* \"#utility.yul\":5845:6255   */\n      swap3\n      swap2\n      pop\n      pop\n      jump\t// out\n        /* \"#utility.yul\":6261:6428   */\n    tag_124:\n        /* \"#utility.yul\":6401:6420   */\n      0x436f6e747261637420697320656d707479000000000000000000000000000000\n        /* \"#utility.yul\":6397:6398   */\n      0x00\n        /* \"#utility.yul\":6389:6395   */\n      dup3\n        /* \"#utility.yul\":6385:6399   */\n      add\n        /* \"#utility.yul\":6378:6421   */\n      mstore\n        /* \"#utility.yul\":6261:6428   */\n      pop\n      jump\t// out\n        /* \"#utility.yul\":6434:6800   */\n    tag_125:\n        /* \"#utility.yul\":6576:6579   */\n      0x00\n        /* \"#utility.yul\":6597:6664   */\n      tag_208\n        /* \"#utility.yul\":6661:6663   */\n      0x11\n        /* \"#utility.yul\":6656:6659   */\n      dup4\n        /* \"#utility.yul\":6597:6664   */\n      tag_109\n      jump\t// in\n    tag_208:\n        /* \"#utility.yul\":6590:6664   */\n      swap2\n      pop\n        /* \"#utility.yul\":6673:6766   */\n      tag_209\n        /* \"#utility.yul\":6762:6765   */\n      dup3\n        /* \"#utility.yul\":6673:6766   */\n      tag_124\n      jump\t// in\n    tag_209:\n        /* \"#utility.yul\":6791:6793   */\n      0x20\n        /* \"#utility.yul\":6786:6789   */\n      dup3\n        /* \"#utility.yul\":6782:6794   */\n      add\n        /* \"#utility.yul\":6775:6794   */\n      swap1\n      pop\n        /* \"#utility.yul\":6434:6800   */\n      swap2\n      swap1\n      pop\n      jump\t// out\n        /* \"#utility.yul\":6806:7225   */\n    tag_80:\n        /* \"#utility.yul\":6972:6976   */\n      0x00\n        /* \"#utility.yul\":7010:7012   */\n      0x20\n        /* \"#utility.yul\":6999:7008   */\n      dup3\n        /* \"#utility.yul\":6995:7013   */\n      add\n        /* \"#utility.yul\":6987:7013   */\n      swap1\n      pop\n        /* \"#utility.yul\":7059:7068   */\n      dup2\n        /* \"#utility.yul\":7053:7057   */\n      dup2\n        /* \"#utility.yul\":7049:7069   */\n      sub\n        /* \"#utility.yul\":7045:7046   */\n      0x00\n        /* \"#utility.yul\":7034:7043   */\n      dup4\n        /* \"#utility.yul\":7030:7047   */\n      add\n        /* \"#utility.yul\":7023:7070   */\n      mstore\n        /* \"#utility.yul\":7087:7218   */\n      tag_211\n        /* \"#utility.yul\":7213:7217   */\n      dup2\n        /* \"#utility.yul\":7087:7218   */\n      tag_125\n      jump\t// in\n    tag_211:\n        /* \"#utility.yul\":7079:7218   */\n      swap1\n      pop\n        /* \"#utility.yul\":6806:7225   */\n      swap2\n      swap1\n      pop\n      jump\t// out\n        /* \"#utility.yul\":7231:7411   */\n    tag_126:\n        /* \"#utility.yul\":7279:7356   */\n      0x4e487b7100000000000000000000000000000000000000000000000000000000\n        /* \"#utility.yul\":7276:7277   */\n      0x00\n        /* \"#utility.yul\":7269:7357   */\n      mstore\n        /* \"#utility.yul\":7376:7380   */\n      0x41\n        /* \"#utility.yul\":7373:7374   */\n      0x04\n        /* \"#utility.yul\":7366:7381   */\n      mstore\n        /* \"#utility.yul\":7400:7404   */\n      0x24\n        /* \"#utility.yul\":7397:7398   */\n      0x00\n        /* \"#utility.yul\":7390:7405   */\n      revert\n        /* \"#utility.yul\":7417:7558   */\n    tag_127:\n        /* \"#utility.yul\":7466:7470   */\n      0x00\n        /* \"#utility.yul\":7489:7492   */\n      dup2\n        /* \"#utility.yul\":7481:7492   */\n      swap1\n      pop\n        /* \"#utility.yul\":7512:7515   */\n      dup2\n        /* \"#utility.yul\":7509:7510   */\n      0x00\n        /* \"#utility.yul\":7502:7516   */\n      mstore\n        /* \"#utility.yul\":7546:7550   */\n      0x20\n        /* \"#utility.yul\":7543:7544   */\n      0x00\n        /* \"#utility.yul\":7533:7551   */\n      keccak256\n        /* \"#utility.yul\":7525:7551   */\n      swap1\n      pop\n        /* \"#utility.yul\":7417:7558   */\n      swap2\n      swap1\n      pop\n      jump\t// out\n        /* \"#utility.yul\":7564:7657   */\n    tag_128:\n        /* \"#utility.yul\":7601:7607   */\n      0x00\n        /* \"#utility.yul\":7648:7650   */\n      0x20\n        /* \"#utility.yul\":7643:7645   */\n      0x1f\n        /* \"#utility.yul\":7636:7641   */\n      dup4\n        /* \"#utility.yul\":7632:7646   */\n      add\n        /* \"#utility.yul\":7628:7651   */\n      div\n        /* \"#utility.yul\":7618:7651   */\n      swap1\n      pop\n        /* \"#utility.yul\":7564:7657   */\n      swap2\n      swap1\n      pop\n      jump\t// out\n        /* \"#utility.yul\":7663:7770   */\n    tag_129:\n        /* \"#utility.yul\":7707:7715   */\n      0x00\n        /* \"#utility.yul\":7757:7762   */\n      dup3\n        /* \"#utility.yul\":7751:7755   */\n      dup3\n        /* \"#utility.yul\":7747:7763   */\n      shl\n        /* \"#utility.yul\":7726:7763   */\n      swap1\n      pop\n        /* \"#utility.yul\":7663:7770   */\n      swap3\n      swap2\n      pop\n      pop\n      jump\t// out\n        /* \"#utility.yul\":7776:8169   */\n    tag_130:\n        /* \"#utility.yul\":7845:7851   */\n      0x00\n        /* \"#utility.yul\":7895:7896   */\n      0x08\n        /* \"#utility.yul\":7883:7893   */\n      dup4\n        /* \"#utility.yul\":7879:7897   */\n      mul\n        /* \"#utility.yul\":7918:8015   */\n      tag_217\n        /* \"#utility.yul\":7948:8014   */\n      0xffffffffffffffffffffffffffffffffffffffffffffffffffffffffffffffff\n        /* \"#utility.yul\":7937:7946   */\n      dup3\n        /* \"#utility.yul\":7918:8015   */\n      tag_129\n      jump\t// in\n    tag_217:\n        /* \"#utility.yul\":8036:8075   */\n      tag_218\n        /* \"#utility.yul\":8066:8074   */\n      dup7\n        /* \"#utility.yul\":8055:8064   */\n      dup4\n        /* \"#utility.yul\":8036:8075   */\n      tag_129\n      jump\t// in\n    tag_218:\n        /* \"#utility.yul\":8024:8075   */\n      swap6\n      pop\n        /* \"#utility.yul\":8108:8112   */\n      dup1\n        /* \"#utility.yul\":8104:8113   */\n      not\n        /* \"#utility.yul\":8097:8102   */\n      dup5\n        /* \"#utility.yul\":8093:8114   */\n      and\n        /* \"#utility.yul\":8084:8114   */\n      swap4\n      pop\n        /* \"#utility.yul\":8157:8161   */\n      dup1\n        /* \"#utility.yul\":8147:8155   */\n      dup7\n        /* \"#utility.yul\":8143:8162   */\n      and\n        /* \"#utility.yul\":8136:8141   */\n      dup5\n        /* \"#utility.yul\":8133:8163   */\n      or\n        /* \"#utility.yul\":8123:8163   */\n      swap3\n      pop\n        /* \"#utility.yul\":7852:8169   */\n      pop\n      pop\n        /* \"#utility.yul\":7776:8169   */\n      swap4\n      swap3\n      pop\n      pop\n      pop\n      jump\t// out\n        /* \"#utility.yul\":8175:8235   */\n    tag_131:\n        /* \"#utility.yul\":8203:8206   */\n      0x00\n        /* \"#utility.yul\":8224:8229   */\n      dup2\n        /* \"#utility.yul\":8217:8229   */\n      swap1\n      pop\n        /* \"#utility.yul\":8175:8235   */\n      swap2\n      swap1\n      pop\n      jump\t// out\n        /* \"#utility.yul\":8241:8383   */\n    tag_132:\n        /* \"#utility.yul\":8291:8300   */\n      0x00\n        /* \"#utility.yul\":8324:8377   */\n      tag_221\n        /* \"#utility.yul\":8342:8376   */\n      tag_222\n        /* \"#utility.yul\":8351:8375   */\n      tag_223\n        /* \"#utility.yul\":8369:8374   */\n      dup5\n        /* \"#utility.yul\":8351:8375   */\n      tag_106\n      jump\t// in\n    tag_223:\n        /* \"#utility.yul\":8342:8376   */\n      tag_131\n      jump\t// in\n    tag_222:\n        /* \"#utility.yul\":8324:8377   */\n      tag_106\n      jump\t// in\n    tag_221:\n        /* \"#utility.yul\":8311:8377   */\n      swap1\n      pop\n        /* \"#utility.yul\":8241:8383   */\n      swap2\n      swap1\n      pop\n      jump\t// out\n        /* \"#utility.yul\":8389:8464   */\n    tag_133:\n        /* \"#utility.yul\":8432:8435   */\n      0x00\n        /* \"#utility.yul\":8453:8458   */\n      dup2\n        /* \"#utility.yul\":8446:8458   */\n      swap1\n      pop\n        /* \"#utility.yul\":8389:8464   */\n      swap2\n      swap1\n      pop\n      jump\t// out\n        /* \"#utility.yul\":8470:8739   */\n    tag_134:\n        /* \"#utility.yul\":8580:8619   */\n      tag_226\n        /* \"#utility.yul\":8611:8618   */\n      dup4\n        /* \"#utility.yul\":8580:8619   */\n      tag_132\n      jump\t// in\n    tag_226:\n        /* \"#utility.yul\":8641:8732   */\n      tag_227\n        /* \"#utility.yul\":8690:8731   */\n      tag_228\n        /* \"#utility.yul\":8714:8730   */\n      dup3\n        /* \"#utility.yul\":8690:8731   */\n      tag_133\n      jump\t// in\n    tag_228:\n        /* \"#utility.yul\":8682:8688   */\n      dup5\n        /* \"#utility.yul\":8675:8679   */\n      dup5\n        /* \"#utility.yul\":8669:8680   */\n      sload\n        /* \"#utility.yul\":8641:8732   */\n      tag_130\n      jump\t// in\n    tag_227:\n        /* \"#utility.yul\":8635:8639   */\n      dup3\n        /* \"#utility.yul\":8628:8733   */\n      sstore\n        /* \"#utility.yul\":8546:8739   */\n      pop\n        /* \"#utility.yul\":8470:8739   */\n      pop\n      pop\n      pop\n      jump\t// out\n        /* \"#utility.yul\":8745:8818   */\n    tag_135:\n        /* \"#utility.yul\":8790:8793   */\n      0x00\n        /* \"#utility.yul\":8811:8812   */\n      0x00\n        /* \"#utility.yul\":8804:8812   */\n      swap1\n      pop\n        /* \"#utility.yul\":8745:8818   */\n      swap1\n      jump\t// out\n        /* \"#utility.yul\":8824:9013   */\n    tag_136:\n        /* \"#utility.yul\":8901:8933   */\n      tag_231\n      tag_135\n      jump\t// in\n    tag_231:\n        /* \"#utility.yul\":8942:9007   */\n      tag_232\n        /* \"#utility.yul\":9000:9006   */\n      dup2\n        /* \"#utility.yul\":8992:8998   */\n      dup5\n        /* \"#utility.yul\":8986:8990   */\n      dup5\n        /* \"#utility.yul\":8942:9007   */\n      tag_134\n      jump\t// in\n    tag_232:\n        /* \"#utility.yul\":8877:9013   */\n      pop\n        /* \"#utility.yul\":8824:9013   */\n      pop\n      pop\n      jump\t// out\n        /* \"#utility.yul\":9019:9205   */\n    tag_137:\n        /* \"#utility.yul\":9079:9199   */\n    tag_234:\n        /* \"#utility.yul\":9096:9099   */\n      dup2\n        /* \"#utility.yul\":9089:9094   */\n      dup2\n        /* \"#utility.yul\":9086:9100   */\n      lt\n        /* \"#utility.yul\":9079:9199   */\n      iszero\n      tag_236\n      jumpi\n        /* \"#utility.yul\":9150:9189   */\n      tag_237\n        /* \"#utility.yul\":9187:9188   */\n      0x00\n        /* \"#utility.yul\":9180:9185   */\n      dup3\n        /* \"#utility.yul\":9150:9189   */\n      tag_136\n      jump\t// in\n    tag_237:\n        /* \"#utility.yul\":9123:9124   */\n      0x01\n        /* \"#utility.yul\":9116:9121   */\n      dup2\n        /* \"#utility.yul\":9112:9125   */\n      add\n        /* \"#utility.yul\":9103:9125   */\n      swap1\n      pop\n        /* \"#utility.yul\":9079:9199   */\n      jump(tag_234)\n    tag_236:\n        /* \"#utility.yul\":9019:9205   */\n      pop\n      pop\n      jump\t// out\n        /* \"#utility.yul\":9211:9754   */\n    tag_138:\n        /* \"#utility.yul\":9312:9314   */\n      0x1f\n        /* \"#utility.yul\":9307:9310   */\n      dup3\n        /* \"#utility.yul\":9304:9315   */\n      gt\n        /* \"#utility.yul\":9301:9747   */\n      iszero\n      tag_239\n      jumpi\n        /* \"#utility.yul\":9346:9384   */\n      tag_240\n        /* \"#utility.yul\":9378:9383   */\n      dup2\n        /* \"#utility.yul\":9346:9384   */\n      tag_127\n      jump\t// in\n    tag_240:\n        /* \"#utility.yul\":9430:9459   */\n      tag_241\n        /* \"#utility.yul\":9448:9458   */\n      dup5\n        /* \"#utility.yul\":9430:9459   */\n      tag_128\n      jump\t// in\n    tag_241:\n        /* \"#utility.yul\":9420:9428   */\n      dup2\n        /* \"#utility.yul\":9416:9460   */\n      add\n        /* \"#utility.yul\":9613:9615   */\n      0x20\n        /* \"#utility.yul\":9601:9611   */\n      dup6\n        /* \"#utility.yul\":9598:9616   */\n      lt\n        /* \"#utility.yul\":9595:9644   */\n      iszero\n      tag_242\n      jumpi\n        /* \"#utility.yul\":9634:9642   */\n      dup2\n        /* \"#utility.yul\":9619:9642   */\n      swap1\n      pop\n        /* \"#utility.yul\":9595:9644   */\n    tag_242:\n        /* \"#utility.yul\":9657:9737   */\n      tag_243\n        /* \"#utility.yul\":9713:9735   */\n      tag_244\n        /* \"#utility.yul\":9731:9734   */\n      dup6\n        /* \"#utility.yul\":9713:9735   */\n      tag_128\n      jump\t// in\n    tag_244:\n        /* \"#utility.yul\":9703:9711   */\n      dup4\n        /* \"#utility.yul\":9699:9736   */\n      add\n        /* \"#utility.yul\":9686:9697   */\n      dup3\n        /* \"#utility.yul\":9657:9737   */\n      tag_137\n      jump\t// in\n    tag_243:\n        /* \"#utility.yul\":9316:9747   */\n      pop\n      pop\n        /* \"#utility.yul\":9301:9747   */\n    tag_239:\n        /* \"#utility.yul\":9211:9754   */\n      pop\n      pop\n      pop\n      jump\t// out\n        /* \"#utility.yul\":9760:9877   */\n    tag_139:\n        /* \"#utility.yul\":9814:9822   */\n      0x00\n        /* \"#utility.yul\":9864:9869   */\n      dup3\n        /* \"#utility.yul\":9858:9862   */\n      dup3\n        /* \"#utility.yul\":9854:9870   */\n      shr\n        /* \"#utility.yul\":9833:9870   */\n      swap1\n      pop\n        /* \"#utility.yul\":9760:9877   */\n      swap3\n      swap2\n      pop\n      pop\n      jump\t// out\n        /* \"#utility.yul\":9883:10052   */\n    tag_140:\n        /* \"#utility.yul\":9927:9933   */\n      0x00\n        /* \"#utility.yul\":9960:10011   */\n      tag_247\n        /* \"#utility.yul\":10008:10009   */\n      0x00\n        /* \"#utility.yul\":10004:10010   */\n      not\n        /* \"#utility.yul\":9996:10001   */\n      dup5\n        /* \"#utility.yul\":9993:9994   */\n      0x08\n        /* \"#utility.yul\":9989:10002   */\n      mul\n        /* \"#utility.yul\":9960:10011   */\n      tag_139\n      jump\t// in\n    tag_247:\n        /* \"#utility.yul\":9956:10012   */\n      not\n        /* \"#utility.yul\":10041:10045   */\n      dup1\n        /* \"#utility.yul\":10035:10039   */\n      dup4\n        /* \"#utility.yul\":10031:10046   */\n      and\n        /* \"#utility.yul\":10021:10046   */\n      swap2\n      pop\n        /* \"#utility.yul\":9934:10052   */\n      pop\n        /* \"#utility.yul\":9883:10052   */\n      swap3\n      swap2\n      pop\n      pop\n      jump\t// out\n        /* \"#utility.yul\":10057:10352   */\n    tag_141:\n        /* \"#utility.yul\":10133:10137   */\n      0x00\n        /* \"#utility.yul\":10279:10308   */\n      tag_249\n        /* \"#utility.yul\":10304:10307   */\n      dup4\n        /* \"#utility.yul\":10298:10302   */\n      dup4\n        /* \"#utility.yul\":10279:10308   */\n      tag_140\n      jump\t// in\n    tag_249:\n        /* \"#utility.yul\":10271:10308   */\n      swap2\n      pop\n        /* \"#utility.yul\":10341:10344   */\n      dup3\n        /* \"#utility.yul\":10338:10339   */\n      0x02\n        /* \"#utility.yul\":10334:10345   */\n      mul\n        /* \"#utility.yul\":10328:10332   */\n      dup3\n        /* \"#utility.yul\":10325:10346   */\n      or\n        /* \"#utility.yul\":10317:10346   */\n      swap1\n      pop\n        /* \"#utility.yul\":10057:10352   */\n      swap3\n      swap2\n      pop\n      pop\n      jump\t// out\n        /* \"#utility.yul\":10357:11752   */\n    tag_98:\n        /* \"#utility.yul\":10474:10511   */\n      tag_251\n        /* \"#utility.yul\":10507:10510   */\n      dup3\n        /* \"#utility.yul\":10474:10511   */\n      tag_108\n      jump\t// in\n    tag_251:\n        /* \"#utility.yul\":10576:10594   */\n      0xffffffffffffffff\n        /* \"#utility.yul\":10568:10574   */\n      dup2\n        /* \"#utility.yul\":10565:10595   */\n      gt\n        /* \"#utility.yul\":10562:10618   */\n      iszero\n      tag_252\n      jumpi\n        /* \"#utility.yul\":10598:10616   */\n      tag_253\n      tag_126\n      jump\t// in\n    tag_253:\n        /* \"#utility.yul\":10562:10618   */\n    tag_252:\n        /* \"#utility.yul\":10642:10680   */\n      tag_254\n        /* \"#utility.yul\":10674:10678   */\n      dup3\n        /* \"#utility.yul\":10668:10679   */\n      sload\n        /* \"#utility.yul\":10642:10680   */\n      tag_56\n      jump\t// in\n    tag_254:\n        /* \"#utility.yul\":10727:10794   */\n      tag_255\n        /* \"#utility.yul\":10787:10793   */\n      dup3\n        /* \"#utility.yul\":10779:10785   */\n      dup3\n        /* \"#utility.yul\":10773:10777   */\n      dup6\n        /* \"#utility.yul\":10727:10794   */\n      tag_138\n      jump\t// in\n    tag_255:\n        /* \"#utility.yul\":10821:10822   */\n      0x00\n        /* \"#utility.yul\":10845:10849   */\n      0x20\n        /* \"#utility.yul\":10832:10849   */\n      swap1\n      pop\n        /* \"#utility.yul\":10877:10879   */\n      0x1f\n        /* \"#utility.yul\":10869:10875   */\n      dup4\n        /* \"#utility.yul\":10866:10880   */\n      gt\n        /* \"#utility.yul\":10894:10895   */\n      0x01\n        /* \"#utility.yul\":10889:11507   */\n      dup2\n      eq\n      tag_257\n      jumpi\n        /* \"#utility.yul\":11551:11552   */\n      0x00\n        /* \"#utility.yul\":11568:11574   */\n      dup5\n        /* \"#utility.yul\":11565:11642   */\n      iszero\n      tag_258\n      jumpi\n        /* \"#utility.yul\":11617:11626   */\n      dup3\n        /* \"#utility.yul\":11612:11615   */\n      dup8\n        /* \"#utility.yul\":11608:11627   */\n      add\n        /* \"#utility.yul\":11602:11628   */\n      mload\n        /* \"#utility.yul\":11593:11628   */\n      swap1\n      pop\n        /* \"#utility.yul\":11565:11642   */\n    tag_258:\n        /* \"#utility.yul\":11668:11735   */\n      tag_259\n        /* \"#utility.yul\":11728:11734   */\n      dup6\n        /* \"#utility.yul\":11721:11726   */\n      dup3\n        /* \"#utility.yul\":11668:11735   */\n      tag_141\n      jump\t// in\n    tag_259:\n        /* \"#utility.yul\":11662:11666   */\n      dup7\n        /* \"#utility.yul\":11655:11736   */\n      sstore\n        /* \"#utility.yul\":11524:11746   */\n      pop\n        /* \"#utility.yul\":10859:11746   */\n      jump(tag_256)\n        /* \"#utility.yul\":10889:11507   */\n    tag_257:\n        /* \"#utility.yul\":10941:10945   */\n      0x1f\n        /* \"#utility.yul\":10937:10946   */\n      not\n        /* \"#utility.yul\":10929:10935   */\n      dup5\n        /* \"#utility.yul\":10925:10947   */\n      and\n        /* \"#utility.yul\":10975:11012   */\n      tag_260\n        /* \"#utility.yul\":11007:11011   */\n      dup7\n        /* \"#utility.yul\":10975:11012   */\n      tag_127\n      jump\t// in\n    tag_260:\n        /* \"#utility.yul\":11034:11035   */\n      0x00\n        /* \"#utility.yul\":11048:11256   */\n    tag_261:\n        /* \"#utility.yul\":11062:11069   */\n      dup3\n        /* \"#utility.yul\":11059:11060   */\n      dup2\n        /* \"#utility.yul\":11056:11070   */\n      lt\n        /* \"#utility.yul\":11048:11256   */\n      iszero\n      tag_263\n      jumpi\n        /* \"#utility.yul\":11141:11150   */\n      dup5\n        /* \"#utility.yul\":11136:11139   */\n      dup10\n        /* \"#utility.yul\":11132:11151   */\n      add\n        /* \"#utility.yul\":11126:11152   */\n      mload\n        /* \"#utility.yul\":11118:11124   */\n      dup3\n        /* \"#utility.yul\":11111:11153   */\n      sstore\n        /* \"#utility.yul\":11192:11193   */\n      0x01\n        /* \"#utility.yul\":11184:11190   */\n      dup3\n        /* \"#utility.yul\":11180:11194   */\n      add\n        /* \"#utility.yul\":11170:11194   */\n      swap2\n      pop\n        /* \"#utility.yul\":11239:11241   */\n      0x20\n        /* \"#utility.yul\":11228:11237   */\n      dup6\n        /* \"#utility.yul\":11224:11242   */\n      add\n        /* \"#utility.yul\":11211:11242   */\n      swap5\n      pop\n        /* \"#utility.yul\":11085:11089   */\n      0x20\n        /* \"#utility.yul\":11082:11083   */\n      dup2\n        /* \"#utility.yul\":11078:11090   */\n      add\n        /* \"#utility.yul\":11073:11090   */\n      swap1\n      pop\n        /* \"#utility.yul\":11048:11256   */\n      jump(tag_261)\n    tag_263:\n        /* \"#utility.yul\":11284:11290   */\n      dup7\n        /* \"#utility.yul\":11275:11282   */\n      dup4\n        /* \"#utility.yul\":11272:11291   */\n      lt\n        /* \"#utility.yul\":11269:11448   */\n      iszero\n      tag_264\n      jumpi\n        /* \"#utility.yul\":11342:11351   */\n      dup5\n        /* \"#utility.yul\":11337:11340   */\n      dup10\n        /* \"#utility.yul\":11333:11352   */\n      add\n        /* \"#utility.yul\":11327:11353   */\n      mload\n        /* \"#utility.yul\":11385:11433   */\n      tag_265\n        /* \"#utility.yul\":11427:11431   */\n      0x1f\n        /* \"#utility.yul\":11419:11425   */\n      dup10\n        /* \"#utility.yul\":11415:11432   */\n      and\n        /* \"#utility.yul\":11404:11413   */\n      dup3\n        /* \"#utility.yul\":11385:11433   */\n      tag_140\n      jump\t// in\n    tag_265:\n        /* \"#utility.yul\":11377:11383   */\n      dup4\n        /* \"#utility.yul\":11370:11434   */\n      sstore\n        /* \"#utility.yul\":11292:11448   */\n      pop\n        /* \"#utility.yul\":11269:11448   */\n    tag_264:\n        /* \"#utility.yul\":11494:11495   */\n      0x01\n        /* \"#utility.yul\":11490:11491   */\n      0x02\n        /* \"#utility.yul\":11482:11488   */\n      dup9\n        /* \"#utility.yul\":11478:11492   */\n      mul\n        /* \"#utility.yul\":11474:11496   */\n      add\n        /* \"#utility.yul\":11468:11472   */\n      dup9\n        /* \"#utility.yul\":11461:11497   */\n      sstore\n        /* \"#utility.yul\":10896:11507   */\n      pop\n      pop\n      pop\n        /* \"#utility.yul\":10859:11746   */\n    tag_256:\n      pop\n        /* \"#utility.yul\":10449:11752   */\n      pop\n      pop\n      pop\n        /* \"#utility.yul\":10357:11752   */\n      pop\n      pop\n      jump\t// out\n        /* \"#utility.yul\":11758:12181   */\n    tag_100:\n        /* \"#utility.yul\":11899:11903   */\n      0x00\n        /* \"#utility.yul\":11937:11939   */\n      0x40\n        /* \"#utility.yul\":11926:11935   */\n      dup3\n        /* \"#utility.yul\":11922:11940   */\n      add\n        /* \"#utility.yul\":11914:11940   */\n      swap1\n      pop\n        /* \"#utility.yul\":11986:11995   */\n      dup2\n        /* \"#utility.yul\":11980:11984   */\n      dup2\n        /* \"#utility.yul\":11976:11996   */\n      sub\n        /* \"#utility.yul\":11972:11973   */\n      0x00\n        /* \"#utility.yul\":11961:11970   */\n      dup4\n        /* \"#utility.yul\":11957:11974   */\n      add\n        /* \"#utility.yul\":11950:11997   */\n      mstore\n        /* \"#utility.yul\":12014:12092   */\n      tag_267\n        /* \"#utility.yul\":12087:12091   */\n      dup2\n        /* \"#utility.yul\":12078:12084   */\n      dup6\n        /* \"#utility.yul\":12014:12092   */\n      tag_112\n      jump\t// in\n    tag_267:\n        /* \"#utility.yul\":12006:12092   */\n      swap1\n      pop\n        /* \"#utility.yul\":12102:12174   */\n      tag_268\n        /* \"#utility.yul\":12170:12172   */\n      0x20\n        /* \"#utility.yul\":12159:12168   */\n      dup4\n        /* \"#utility.yul\":12155:12173   */\n      add\n        /* \"#utility.yul\":12146:12152   */\n      dup5\n        /* \"#utility.yul\":12102:12174   */\n      tag_107\n      jump\t// in\n    tag_268:\n        /* \"#utility.yul\":11758:12181   */\n      swap4\n      swap3\n      pop\n      pop\n      pop\n      jump\t// out\n        /* \"#utility.yul\":12187:12266   */\n    tag_142:\n        /* \"#utility.yul\":12226:12233   */\n      0x00\n        /* \"#utility.yul\":12255:12260   */\n      dup2\n        /* \"#utility.yul\":12244:12260   */\n      swap1\n      pop\n        /* \"#utility.yul\":12187:12266   */\n      swap2\n      swap1\n      pop\n      jump\t// out\n        /* \"#utility.yul\":12272:12429   */\n    tag_143:\n        /* \"#utility.yul\":12377:12422   */\n      tag_271\n        /* \"#utility.yul\":12397:12421   */\n      tag_272\n        /* \"#utility.yul\":12415:12420   */\n      dup3\n        /* \"#utility.yul\":12397:12421   */\n      tag_106\n      jump\t// in\n    tag_272:\n        /* \"#utility.yul\":12377:12422   */\n      tag_142\n      jump\t// in\n    tag_271:\n        /* \"#utility.yul\":12372:12375   */\n      dup3\n        /* \"#utility.yul\":12365:12423   */\n      mstore\n        /* \"#utility.yul\":12272:12429   */\n      pop\n      pop\n      jump\t// out\n        /* \"#utility.yul\":12435:12529   */\n    tag_144:\n        /* \"#utility.yul\":12468:12476   */\n      0x00\n        /* \"#utility.yul\":12516:12521   */\n      dup2\n        /* \"#utility.yul\":12512:12514   */\n      0x60\n        /* \"#utility.yul\":12508:12522   */\n      shl\n        /* \"#utility.yul\":12487:12522   */\n      swap1\n      pop\n        /* \"#utility.yul\":12435:12529   */\n      swap2\n      swap1\n      pop\n      jump\t// out\n        /* \"#utility.yul\":12535:12629   */\n    tag_145:\n        /* \"#utility.yul\":12574:12581   */\n      0x00\n        /* \"#utility.yul\":12603:12623   */\n      tag_275\n        /* \"#utility.yul\":12617:12622   */\n      dup3\n        /* \"#utility.yul\":12603:12623   */\n      tag_144\n      jump\t// in\n    tag_275:\n        /* \"#utility.yul\":12592:12623   */\n      swap1\n      pop\n        /* \"#utility.yul\":12535:12629   */\n      swap2\n      swap1\n      pop\n      jump\t// out\n        /* \"#utility.yul\":12635:12735   */\n    tag_146:\n        /* \"#utility.yul\":12674:12681   */\n      0x00\n        /* \"#utility.yul\":12703:12729   */\n      tag_277\n        /* \"#utility.yul\":12723:12728   */\n      dup3\n        /* \"#utility.yul\":12703:12729   */\n      tag_145\n      jump\t// in\n    tag_277:\n        /* \"#utility.yul\":12692:12729   */\n      swap1\n      pop\n        /* \"#utility.yul\":12635:12735   */\n      swap2\n      swap1\n      pop\n      jump\t// out\n        /* \"#utility.yul\":12741:12898   */\n    tag_147:\n        /* \"#utility.yul\":12846:12891   */\n      tag_279\n        /* \"#utility.yul\":12866:12890   */\n      tag_280\n        /* \"#utility.yul\":12884:12889   */\n      dup3\n        /* \"#utility.yul\":12866:12890   */\n      tag_114\n      jump\t// in\n    tag_280:\n        /* \"#utility.yul\":12846:12891   */\n      tag_146\n      jump\t// in\n    tag_279:\n        /* \"#utility.yul\":12841:12844   */\n      dup3\n        /* \"#utility.yul\":12834:12892   */\n      mstore\n        /* \"#utility.yul\":12741:12898   */\n      pop\n      pop\n      jump\t// out\n        /* \"#utility.yul\":12904:13442   */\n    tag_103:\n        /* \"#utility.yul\":13072:13075   */\n      0x00\n        /* \"#utility.yul\":13087:13162   */\n      tag_282\n        /* \"#utility.yul\":13158:13161   */\n      dup3\n        /* \"#utility.yul\":13149:13155   */\n      dup7\n        /* \"#utility.yul\":13087:13162   */\n      tag_143\n      jump\t// in\n    tag_282:\n        /* \"#utility.yul\":13187:13189   */\n      0x20\n        /* \"#utility.yul\":13182:13185   */\n      dup3\n        /* \"#utility.yul\":13178:13190   */\n      add\n        /* \"#utility.yul\":13171:13190   */\n      swap2\n      pop\n        /* \"#utility.yul\":13200:13275   */\n      tag_283\n        /* \"#utility.yul\":13271:13274   */\n      dup3\n        /* \"#utility.yul\":13262:13268   */\n      dup6\n        /* \"#utility.yul\":13200:13275   */\n      tag_143\n      jump\t// in\n    tag_283:\n        /* \"#utility.yul\":13300:13302   */\n      0x20\n        /* \"#utility.yul\":13295:13298   */\n      dup3\n        /* \"#utility.yul\":13291:13303   */\n      add\n        /* \"#utility.yul\":13284:13303   */\n      swap2\n      pop\n        /* \"#utility.yul\":13313:13388   */\n      tag_284\n        /* \"#utility.yul\":13384:13387   */\n      dup3\n        /* \"#utility.yul\":13375:13381   */\n      dup5\n        /* \"#utility.yul\":13313:13388   */\n      tag_147\n      jump\t// in\n    tag_284:\n        /* \"#utility.yul\":13413:13415   */\n      0x14\n        /* \"#utility.yul\":13408:13411   */\n      dup3\n        /* \"#utility.yul\":13404:13416   */\n      add\n        /* \"#utility.yul\":13397:13416   */\n      swap2\n      pop\n        /* \"#utility.yul\":13433:13436   */\n      dup2\n        /* \"#utility.yul\":13426:13436   */\n      swap1\n      pop\n        /* \"#utility.yul\":12904:13442   */\n      swap5\n      swap4\n      pop\n      pop\n      pop\n      pop\n      jump\t// out\n        /* \"#utility.yul\":13448:13628   */\n    tag_148:\n        /* \"#utility.yul\":13496:13573   */\n      0x4e487b7100000000000000000000000000000000000000000000000000000000\n        /* \"#utility.yul\":13493:13494   */\n      0x00\n        /* \"#utility.yul\":13486:13574   */\n      mstore\n        /* \"#utility.yul\":13593:13597   */\n      0x12\n        /* \"#utility.yul\":13590:13591   */\n      0x04\n        /* \"#utility.yul\":13583:13598   */\n      mstore\n        /* \"#utility.yul\":13617:13621   */\n      0x24\n        /* \"#utility.yul\":13614:13615   */\n      0x00\n        /* \"#utility.yul\":13607:13622   */\n      revert\n        /* \"#utility.yul\":13634:13810   */\n    tag_105:\n        /* \"#utility.yul\":13666:13667   */\n      0x00\n        /* \"#utility.yul\":13683:13703   */\n      tag_287\n        /* \"#utility.yul\":13701:13702   */\n      dup3\n        /* \"#utility.yul\":13683:13703   */\n      tag_106\n      jump\t// in\n    tag_287:\n        /* \"#utility.yul\":13678:13703   */\n      swap2\n      pop\n        /* \"#utility.yul\":13717:13737   */\n      tag_288\n        /* \"#utility.yul\":13735:13736   */\n      dup4\n        /* \"#utility.yul\":13717:13737   */\n      tag_106\n      jump\t// in\n    tag_288:\n        /* \"#utility.yul\":13712:13737   */\n      swap3\n      pop\n        /* \"#utility.yul\":13756:13757   */\n      dup3\n        /* \"#utility.yul\":13746:13781   */\n      tag_289\n      jumpi\n        /* \"#utility.yul\":13761:13779   */\n      tag_290\n      tag_148\n      jump\t// in\n    tag_290:\n        /* \"#utility.yul\":13746:13781   */\n    tag_289:\n        /* \"#utility.yul\":13802:13803   */\n      dup3\n        /* \"#utility.yul\":13799:13800   */\n      dup3\n        /* \"#utility.yul\":13795:13804   */\n      mod\n        /* \"#utility.yul\":13790:13804   */\n      swap1\n      pop\n        /* \"#utility.yul\":13634:13810   */\n      swap3\n      swap2\n      pop\n      pop\n      jump\t// out\n    stop\n    data_4cb5a8029bebb45ed20d67a2af7ca0abedcd96d61a9d5390c76d6cdf23cfbc39 d09fd180d0b0d0b2d0b8d0bbd0b03a20302dd09ad0b0d0bcd0b5d0bdd18c2c20312dd09dd0bed0b6d0bdd0b8d186d18b2c20322dd091d183d0bcd0b0d0b3d0b02e20d092d18bd0b8d0b3d180d18bd1883a20783220d0bed18220d181d182d0b0d0b2d0bad0b82e20d09dd0b8d187d18cd18f3a20d0b2d0bed0b7d0b2d180d0b0d1822e20d09cd0b8d0bd2e20d181d182d0b0d0b2d0bad0b03a20302e30303031204554482e\n\n    auxdata: 0xa2646970667358221220879112600a8bf2f8888195155d61324e3e6f87bb6ca7e34afa03a5588e46927664736f6c634300081f0033\n}\n",
				"bytecode": {
					"linkReferences": {},
					"object": "6080604052335f5f6101000a81548173ffffffffffffffffffffffffffffffffffffffff021916908373ffffffffffffffffffffffffffffffffffffffff16021790555061104e806100505f395ff3fe608060405260043610610090575f3560e01c806382bc07e61161005857806382bc07e614610126578063853828b6146101545780638da5cb5b1461016a578063d0e30db014610194578063e856bb181461019e57610090565b806312065fe01461009457806341a26083146100be57806345e2984a146100c85780636540742f146100f25780636be2c84e1461011c575b5f5ffd5b34801561009f575f5ffd5b506100a86101a8565b6040516100b59190610834565b60405180910390f35b6100c66101af565b005b3480156100d3575f5ffd5b506100dc6101ba565b6040516100e991906108bd565b60405180910390f35b3480156100fd575f5ffd5b506101066101da565b6040516101139190610834565b60405180910390f35b6101246101e4565b005b348015610131575f5ffd5b5061013a6101f0565b60405161014b959493929190610937565b60405180910390f35b34801561015f575f5ffd5b506101686102d0565b005b348015610175575f5ffd5b5061017e6103c4565b60405161018b919061098f565b60405180910390f35b61019c6103e8565b005b6101a6610438565b005b5f47905090565b6101b85f610444565b565b60606040518060e0016040528060a58152602001610f7460a59139905090565b655af3107a400081565b6101ee6001610444565b565b6001805f015f9054906101000a900473ffffffffffffffffffffffffffffffffffffffff1690805f0160149054906101000a900460ff1690805f0160159054906101000a900460ff1690806001018054610249906109d5565b80601f0160208091040260200160405190810160405280929190818152602001828054610275906109d5565b80156102c05780601f10610297576101008083540402835291602001916102c0565b820191905f5260205f20905b8154815290600101906020018083116102a357829003601f168201915b5050505050908060020154905085565b5f5f9054906101000a900473ffffffffffffffffffffffffffffffffffffffff1673ffffffffffffffffffffffffffffffffffffffff163373ffffffffffffffffffffffffffffffffffffffff161461035e576040517f08c379a000000000000000000000000000000000000000000000000000000000815260040161035590610a4f565b60405180910390fd5b5f5f9054906101000a900473ffffffffffffffffffffffffffffffffffffffff1673ffffffffffffffffffffffffffffffffffffffff166108fc4790811502906040515f60405180830381858888f193505050501580156103c1573d5f5f3e3d5ffd5b50565b5f5f9054906101000a900473ffffffffffffffffffffffffffffffffffffffff1681565b3373ffffffffffffffffffffffffffffffffffffffff167f2da466a7b24304f47e87fa2e1e5a81b9831ce54fec19055ce277ca2f39ba42c43460405161042e9190610834565b60405180910390a2565b6104426002610444565b565b655af3107a400034101561048d576040517f08c379a000000000000000000000000000000000000000000000000000000000815260040161048490610ab7565b60405180910390fd5b60023461049a9190610b02565b4710156104dc576040517f08c379a00000000000000000000000000000000000000000000000000000000081526004016104d390610b8d565b60405180910390fd5b5f6104e56107dd565b905060605f5f90508260ff168460ff160361057e576040518060400160405280600481526020017f447261770000000000000000000000000000000000000000000000000000000081525091503490503373ffffffffffffffffffffffffffffffffffffffff166108fc8290811502906040515f60405180830381858888f19350505050158015610578573d5f5f3e3d5ffd5b5061069b565b5f8460ff16148015610593575060018360ff16145b806105b0575060018460ff161480156105af575060028360ff16145b5b806105cc575060028460ff161480156105cb57505f8360ff16145b5b15610661576040518060400160405280600881526020017f596f752057696e2100000000000000000000000000000000000000000000000081525091506002346106169190610b02565b90503373ffffffffffffffffffffffffffffffffffffffff166108fc8290811502906040515f60405180830381858888f1935050505015801561065b573d5f5f3e3d5ffd5b5061069a565b6040518060400160405280600481526020017f4c6f73650000000000000000000000000000000000000000000000000000000081525091505b5b6040518060a001604052803373ffffffffffffffffffffffffffffffffffffffff1681526020018560ff1681526020018460ff1681526020018381526020013481525060015f820151815f015f6101000a81548173ffffffffffffffffffffffffffffffffffffffff021916908373ffffffffffffffffffffffffffffffffffffffff1602179055506020820151815f0160146101000a81548160ff021916908360ff1602179055506040820151815f0160156101000a81548160ff021916908360ff16021790555060608201518160010190816107799190610d78565b50608082015181600201559050503373ffffffffffffffffffffffffffffffffffffffff167f08210b57d870ebebf82fb3263f9d6d53341fae0d16306ecd5b82d841c5227e3683836040516107cf929190610e47565b60405180910390a250505050565b5f60034442336040516020016107f593929190610eda565b604051602081830303815290604052805190602001205f1c6108179190610f43565b905090565b5f819050919050565b61082e8161081c565b82525050565b5f6020820190506108475f830184610825565b92915050565b5f81519050919050565b5f82825260208201905092915050565b8281835e5f83830152505050565b5f601f19601f8301169050919050565b5f61088f8261084d565b6108998185610857565b93506108a9818560208601610867565b6108b281610875565b840191505092915050565b5f6020820190508181035f8301526108d58184610885565b905092915050565b5f73ffffffffffffffffffffffffffffffffffffffff82169050919050565b5f610906826108dd565b9050919050565b610916816108fc565b82525050565b5f60ff82169050919050565b6109318161091c565b82525050565b5f60a08201905061094a5f83018861090d565b6109576020830187610928565b6109646040830186610928565b81810360608301526109768185610885565b90506109856080830184610825565b9695505050505050565b5f6020820190506109a25f83018461090d565b92915050565b7f4e487b71000000000000000000000000000000000000000000000000000000005f52602260045260245ffd5b5f60028204905060018216806109ec57607f821691505b6020821081036109ff576109fe6109a8565b5b50919050565b7f4e6f7420616e206f776e657200000000000000000000000000000000000000005f82015250565b5f610a39600c83610857565b9150610a4482610a05565b602082019050919050565b5f6020820190508181035f830152610a6681610a2d565b9050919050565b7f42657420746f6f206c6f770000000000000000000000000000000000000000005f82015250565b5f610aa1600b83610857565b9150610aac82610a6d565b602082019050919050565b5f6020820190508181035f830152610ace81610a95565b9050919050565b7f4e487b71000000000000000000000000000000000000000000000000000000005f52601160045260245ffd5b5f610b0c8261081c565b9150610b178361081c565b9250828202610b258161081c565b91508282048414831517610b3c57610b3b610ad5565b5b5092915050565b7f436f6e747261637420697320656d7074790000000000000000000000000000005f82015250565b5f610b77601183610857565b9150610b8282610b43565b602082019050919050565b5f6020820190508181035f830152610ba481610b6b565b9050919050565b7f4e487b71000000000000000000000000000000000000000000000000000000005f52604160045260245ffd5b5f819050815f5260205f209050919050565b5f6020601f8301049050919050565b5f82821b905092915050565b5f60088302610c347fffffffffffffffffffffffffffffffffffffffffffffffffffffffffffffffff82610bf9565b610c3e8683610bf9565b95508019841693508086168417925050509392505050565b5f819050919050565b5f610c79610c74610c6f8461081c565b610c56565b61081c565b9050919050565b5f819050919050565b610c9283610c5f565b610ca6610c9e82610c80565b848454610c05565b825550505050565b5f5f905090565b610cbd610cae565b610cc8818484610c89565b505050565b5b81811015610ceb57610ce05f82610cb5565b600181019050610cce565b5050565b601f821115610d3057610d0181610bd8565b610d0a84610bea565b81016020851015610d19578190505b610d2d610d2585610bea565b830182610ccd565b50505b505050565b5f82821c905092915050565b5f610d505f1984600802610d35565b1980831691505092915050565b5f610d688383610d41565b9150826002028217905092915050565b610d818261084d565b67ffffffffffffffff811115610d9a57610d99610bab565b5b610da482546109d5565b610daf828285610cef565b5f60209050601f831160018114610de0575f8415610dce578287015190505b610dd88582610d5d565b865550610e3f565b601f198416610dee86610bd8565b5f5b82811015610e1557848901518255600182019150602085019450602081019050610df0565b86831015610e325784890151610e2e601f891682610d41565b8355505b6001600288020188555050505b505050505050565b5f6040820190508181035f830152610e5f8185610885565b9050610e6e6020830184610825565b9392505050565b5f819050919050565b610e8f610e8a8261081c565b610e75565b82525050565b5f8160601b9050919050565b5f610eab82610e95565b9050919050565b5f610ebc82610ea1565b9050919050565b610ed4610ecf826108fc565b610eb2565b82525050565b5f610ee58286610e7e565b602082019150610ef58285610e7e565b602082019150610f058284610ec3565b601482019150819050949350505050565b7f4e487b71000000000000000000000000000000000000000000000000000000005f52601260045260245ffd5b5f610f4d8261081c565b9150610f588361081c565b925082610f6857610f67610f16565b5b82820690509291505056fed09fd180d0b0d0b2d0b8d0bbd0b03a20302dd09ad0b0d0bcd0b5d0bdd18c2c20312dd09dd0bed0b6d0bdd0b8d186d18b2c20322dd091d183d0bcd0b0d0b3d0b02e20d092d18bd0b8d0b3d180d18bd1883a20783220d0bed18220d181d182d0b0d0b2d0bad0b82e20d09dd0b8d187d18cd18f3a20d0b2d0bed0b7d0b2d180d0b0d1822e20d09cd0b8d0bd2e20d181d182d0b0d0b2d0bad0b03a20302e30303031204554482ea2646970667358221220879112600a8bf2f8888195155d61324e3e6f87bb6ca7e34afa03a5588e46927664736f6c634300081f0033",
					"opcodes": "PUSH1 0x80 PUSH1 0x40 MSTORE CALLER PUSH0 PUSH0 PUSH2 0x100 EXP DUP2 SLOAD DUP2 PUSH20 0xFFFFFFFFFFFFFFFFFFFFFFFFFFFFFFFFFFFFFFFF MUL NOT AND SWAP1 DUP4 PUSH20 0xFFFFFFFFFFFFFFFFFFFFFFFFFFFFFFFFFFFFFFFF AND MUL OR SWAP1 SSTORE POP PUSH2 0x104E DUP1 PUSH2 0x50 PUSH0 CODECOPY PUSH0 RETURN INVALID PUSH1 0x80 PUSH1 0x40 MSTORE PUSH1 0x4 CALLDATASIZE LT PUSH2 0x90 JUMPI PUSH0 CALLDATALOAD PUSH1 0xE0 SHR DUP1 PUSH4 0x82BC07E6 GT PUSH2 0x58 JUMPI DUP1 PUSH4 0x82BC07E6 EQ PUSH2 0x126 JUMPI DUP1 PUSH4 0x853828B6 EQ PUSH2 0x154 JUMPI DUP1 PUSH4 0x8DA5CB5B EQ PUSH2 0x16A JUMPI DUP1 PUSH4 0xD0E30DB0 EQ PUSH2 0x194 JUMPI DUP1 PUSH4 0xE856BB18 EQ PUSH2 0x19E JUMPI PUSH2 0x90 JUMP JUMPDEST DUP1 PUSH4 0x12065FE0 EQ PUSH2 0x94 JUMPI DUP1 PUSH4 0x41A26083 EQ PUSH2 0xBE JUMPI DUP1 PUSH4 0x45E2984A EQ PUSH2 0xC8 JUMPI DUP1 PUSH4 0x6540742F EQ PUSH2 0xF2 JUMPI DUP1 PUSH4 0x6BE2C84E EQ PUSH2 0x11C JUMPI JUMPDEST PUSH0 PUSH0 REVERT JUMPDEST CALLVALUE DUP1 ISZERO PUSH2 0x9F JUMPI PUSH0 PUSH0 REVERT JUMPDEST POP PUSH2 0xA8 PUSH2 0x1A8 JUMP JUMPDEST PUSH1 0x40 MLOAD PUSH2 0xB5 SWAP2 SWAP1 PUSH2 0x834 JUMP JUMPDEST PUSH1 0x40 MLOAD DUP1 SWAP2 SUB SWAP1 RETURN JUMPDEST PUSH2 0xC6 PUSH2 0x1AF JUMP JUMPDEST STOP JUMPDEST CALLVALUE DUP1 ISZERO PUSH2 0xD3 JUMPI PUSH0 PUSH0 REVERT JUMPDEST POP PUSH2 0xDC PUSH2 0x1BA JUMP JUMPDEST PUSH1 0x40 MLOAD PUSH2 0xE9 SWAP2 SWAP1 PUSH2 0x8BD JUMP JUMPDEST PUSH1 0x40 MLOAD DUP1 SWAP2 SUB SWAP1 RETURN JUMPDEST CALLVALUE DUP1 ISZERO PUSH2 0xFD JUMPI PUSH0 PUSH0 REVERT JUMPDEST POP PUSH2 0x106 PUSH2 0x1DA JUMP JUMPDEST PUSH1 0x40 MLOAD PUSH2 0x113 SWAP2 SWAP1 PUSH2 0x834 JUMP JUMPDEST PUSH1 0x40 MLOAD DUP1 SWAP2 SUB SWAP1 RETURN JUMPDEST PUSH2 0x124 PUSH2 0x1E4 JUMP JUMPDEST STOP JUMPDEST CALLVALUE DUP1 ISZERO PUSH2 0x131 JUMPI PUSH0 PUSH0 REVERT JUMPDEST POP PUSH2 0x13A PUSH2 0x1F0 JUMP JUMPDEST PUSH1 0x40 MLOAD PUSH2 0x14B SWAP6 SWAP5 SWAP4 SWAP3 SWAP2 SWAP1 PUSH2 0x937 JUMP JUMPDEST PUSH1 0x40 MLOAD DUP1 SWAP2 SUB SWAP1 RETURN JUMPDEST CALLVALUE DUP1 ISZERO PUSH2 0x15F JUMPI PUSH0 PUSH0 REVERT JUMPDEST POP PUSH2 0x168 PUSH2 0x2D0 JUMP JUMPDEST STOP JUMPDEST CALLVALUE DUP1 ISZERO PUSH2 0x175 JUMPI PUSH0 PUSH0 REVERT JUMPDEST POP PUSH2 0x17E PUSH2 0x3C4 JUMP JUMPDEST PUSH1 0x40 MLOAD PUSH2 0x18B SWAP2 SWAP1 PUSH2 0x98F JUMP JUMPDEST PUSH1 0x40 MLOAD DUP1 SWAP2 SUB SWAP1 RETURN JUMPDEST PUSH2 0x19C PUSH2 0x3E8 JUMP JUMPDEST STOP JUMPDEST PUSH2 0x1A6 PUSH2 0x438 JUMP JUMPDEST STOP JUMPDEST PUSH0 SELFBALANCE SWAP1 POP SWAP1 JUMP JUMPDEST PUSH2 0x1B8 PUSH0 PUSH2 0x444 JUMP JUMPDEST JUMP JUMPDEST PUSH1 0x60 PUSH1 0x40 MLOAD DUP1 PUSH1 0xE0 ADD PUSH1 0x40 MSTORE DUP1 PUSH1 0xA5 DUP2 MSTORE PUSH1 0x20 ADD PUSH2 0xF74 PUSH1 0xA5 SWAP2 CODECOPY SWAP1 POP SWAP1 JUMP JUMPDEST PUSH6 0x5AF3107A4000 DUP2 JUMP JUMPDEST PUSH2 0x1EE PUSH1 0x1 PUSH2 0x444 JUMP JUMPDEST JUMP JUMPDEST PUSH1 0x1 DUP1 PUSH0 ADD PUSH0 SWAP1 SLOAD SWAP1 PUSH2 0x100 EXP SWAP1 DIV PUSH20 0xFFFFFFFFFFFFFFFFFFFFFFFFFFFFFFFFFFFFFFFF AND SWAP1 DUP1 PUSH0 ADD PUSH1 0x14 SWAP1 SLOAD SWAP1 PUSH2 0x100 EXP SWAP1 DIV PUSH1 0xFF AND SWAP1 DUP1 PUSH0 ADD PUSH1 0x15 SWAP1 SLOAD SWAP1 PUSH2 0x100 EXP SWAP1 DIV PUSH1 0xFF AND SWAP1 DUP1 PUSH1 0x1 ADD DUP1 SLOAD PUSH2 0x249 SWAP1 PUSH2 0x9D5 JUMP JUMPDEST DUP1 PUSH1 0x1F ADD PUSH1 0x20 DUP1 SWAP2 DIV MUL PUSH1 0x20 ADD PUSH1 0x40 MLOAD SWAP1 DUP2 ADD PUSH1 0x40 MSTORE DUP1 SWAP3 SWAP2 SWAP1 DUP2 DUP2 MSTORE PUSH1 0x20 ADD DUP3 DUP1 SLOAD PUSH2 0x275 SWAP1 PUSH2 0x9D5 JUMP JUMPDEST DUP1 ISZERO PUSH2 0x2C0 JUMPI DUP1 PUSH1 0x1F LT PUSH2 0x297 JUMPI PUSH2 0x100 DUP1 DUP4 SLOAD DIV MUL DUP4 MSTORE SWAP2 PUSH1 0x20 ADD SWAP2 PUSH2 0x2C0 JUMP JUMPDEST DUP3 ADD SWAP2 SWAP1 PUSH0 MSTORE PUSH1 0x20 PUSH0 KECCAK256 SWAP1 JUMPDEST DUP2 SLOAD DUP2 MSTORE SWAP1 PUSH1 0x1 ADD SWAP1 PUSH1 0x20 ADD DUP1 DUP4 GT PUSH2 0x2A3 JUMPI DUP3 SWAP1 SUB PUSH1 0x1F AND DUP3 ADD SWAP2 JUMPDEST POP POP POP POP POP SWAP1 DUP1 PUSH1 0x2 ADD SLOAD SWAP1 POP DUP6 JUMP JUMPDEST PUSH0 PUSH0 SWAP1 SLOAD SWAP1 PUSH2 0x100 EXP SWAP1 DIV PUSH20 0xFFFFFFFFFFFFFFFFFFFFFFFFFFFFFFFFFFFFFFFF AND PUSH20 0xFFFFFFFFFFFFFFFFFFFFFFFFFFFFFFFFFFFFFFFF AND CALLER PUSH20 0xFFFFFFFFFFFFFFFFFFFFFFFFFFFFFFFFFFFFFFFF AND EQ PUSH2 0x35E JUMPI PUSH1 0x40 MLOAD PUSH32 0x8C379A000000000000000000000000000000000000000000000000000000000 DUP2 MSTORE PUSH1 0x4 ADD PUSH2 0x355 SWAP1 PUSH2 0xA4F JUMP JUMPDEST PUSH1 0x40 MLOAD DUP1 SWAP2 SUB SWAP1 REVERT JUMPDEST PUSH0 PUSH0 SWAP1 SLOAD SWAP1 PUSH2 0x100 EXP SWAP1 DIV PUSH20 0xFFFFFFFFFFFFFFFFFFFFFFFFFFFFFFFFFFFFFFFF AND PUSH20 0xFFFFFFFFFFFFFFFFFFFFFFFFFFFFFFFFFFFFFFFF AND PUSH2 0x8FC SELFBALANCE SWAP1 DUP2 ISZERO MUL SWAP1 PUSH1 0x40 MLOAD PUSH0 PUSH1 0x40 MLOAD DUP1 DUP4 SUB DUP2 DUP6 DUP9 DUP9 CALL SWAP4 POP POP POP POP ISZERO DUP1 ISZERO PUSH2 0x3C1 JUMPI RETURNDATASIZE PUSH0 PUSH0 RETURNDATACOPY RETURNDATASIZE PUSH0 REVERT JUMPDEST POP JUMP JUMPDEST PUSH0 PUSH0 SWAP1 SLOAD SWAP1 PUSH2 0x100 EXP SWAP1 DIV PUSH20 0xFFFFFFFFFFFFFFFFFFFFFFFFFFFFFFFFFFFFFFFF AND DUP2 JUMP JUMPDEST CALLER PUSH20 0xFFFFFFFFFFFFFFFFFFFFFFFFFFFFFFFFFFFFFFFF AND PUSH32 0x2DA466A7B24304F47E87FA2E1E5A81B9831CE54FEC19055CE277CA2F39BA42C4 CALLVALUE PUSH1 0x40 MLOAD PUSH2 0x42E SWAP2 SWAP1 PUSH2 0x834 JUMP JUMPDEST PUSH1 0x40 MLOAD DUP1 SWAP2 SUB SWAP1 LOG2 JUMP JUMPDEST PUSH2 0x442 PUSH1 0x2 PUSH2 0x444 JUMP JUMPDEST JUMP JUMPDEST PUSH6 0x5AF3107A4000 CALLVALUE LT ISZERO PUSH2 0x48D JUMPI PUSH1 0x40 MLOAD PUSH32 0x8C379A000000000000000000000000000000000000000000000000000000000 DUP2 MSTORE PUSH1 0x4 ADD PUSH2 0x484 SWAP1 PUSH2 0xAB7 JUMP JUMPDEST PUSH1 0x40 MLOAD DUP1 SWAP2 SUB SWAP1 REVERT JUMPDEST PUSH1 0x2 CALLVALUE PUSH2 0x49A SWAP2 SWAP1 PUSH2 0xB02 JUMP JUMPDEST SELFBALANCE LT ISZERO PUSH2 0x4DC JUMPI PUSH1 0x40 MLOAD PUSH32 0x8C379A000000000000000000000000000000000000000000000000000000000 DUP2 MSTORE PUSH1 0x4 ADD PUSH2 0x4D3 SWAP1 PUSH2 0xB8D JUMP JUMPDEST PUSH1 0x40 MLOAD DUP1 SWAP2 SUB SWAP1 REVERT JUMPDEST PUSH0 PUSH2 0x4E5 PUSH2 0x7DD JUMP JUMPDEST SWAP1 POP PUSH1 0x60 PUSH0 PUSH0 SWAP1 POP DUP3 PUSH1 0xFF AND DUP5 PUSH1 0xFF AND SUB PUSH2 0x57E JUMPI PUSH1 0x40 MLOAD DUP1 PUSH1 0x40 ADD PUSH1 0x40 MSTORE DUP1 PUSH1 0x4 DUP2 MSTORE PUSH1 0x20 ADD PUSH32 0x4472617700000000000000000000000000000000000000000000000000000000 DUP2 MSTORE POP SWAP2 POP CALLVALUE SWAP1 POP CALLER PUSH20 0xFFFFFFFFFFFFFFFFFFFFFFFFFFFFFFFFFFFFFFFF AND PUSH2 0x8FC DUP3 SWAP1 DUP2 ISZERO MUL SWAP1 PUSH1 0x40 MLOAD PUSH0 PUSH1 0x40 MLOAD DUP1 DUP4 SUB DUP2 DUP6 DUP9 DUP9 CALL SWAP4 POP POP POP POP ISZERO DUP1 ISZERO PUSH2 0x578 JUMPI RETURNDATASIZE PUSH0 PUSH0 RETURNDATACOPY RETURNDATASIZE PUSH0 REVERT JUMPDEST POP PUSH2 0x69B JUMP JUMPDEST PUSH0 DUP5 PUSH1 0xFF AND EQ DUP1 ISZERO PUSH2 0x593 JUMPI POP PUSH1 0x1 DUP4 PUSH1 0xFF AND EQ JUMPDEST DUP1 PUSH2 0x5B0 JUMPI POP PUSH1 0x1 DUP5 PUSH1 0xFF AND EQ DUP1 ISZERO PUSH2 0x5AF JUMPI POP PUSH1 0x2 DUP4 PUSH1 0xFF AND EQ JUMPDEST JUMPDEST DUP1 PUSH2 0x5CC JUMPI POP PUSH1 0x2 DUP5 PUSH1 0xFF AND EQ DUP1 ISZERO PUSH2 0x5CB JUMPI POP PUSH0 DUP4 PUSH1 0xFF AND EQ JUMPDEST JUMPDEST ISZERO PUSH2 0x661 JUMPI PUSH1 0x40 MLOAD DUP1 PUSH1 0x40 ADD PUSH1 0x40 MSTORE DUP1 PUSH1 0x8 DUP2 MSTORE PUSH1 0x20 ADD PUSH32 0x596F752057696E21000000000000000000000000000000000000000000000000 DUP2 MSTORE POP SWAP2 POP PUSH1 0x2 CALLVALUE PUSH2 0x616 SWAP2 SWAP1 PUSH2 0xB02 JUMP JUMPDEST SWAP1 POP CALLER PUSH20 0xFFFFFFFFFFFFFFFFFFFFFFFFFFFFFFFFFFFFFFFF AND PUSH2 0x8FC DUP3 SWAP1 DUP2 ISZERO MUL SWAP1 PUSH1 0x40 MLOAD PUSH0 PUSH1 0x40 MLOAD DUP1 DUP4 SUB DUP2 DUP6 DUP9 DUP9 CALL SWAP4 POP POP POP POP ISZERO DUP1 ISZERO PUSH2 0x65B JUMPI RETURNDATASIZE PUSH0 PUSH0 RETURNDATACOPY RETURNDATASIZE PUSH0 REVERT JUMPDEST POP PUSH2 0x69A JUMP JUMPDEST PUSH1 0x40 MLOAD DUP1 PUSH1 0x40 ADD PUSH1 0x40 MSTORE DUP1 PUSH1 0x4 DUP2 MSTORE PUSH1 0x20 ADD PUSH32 0x4C6F736500000000000000000000000000000000000000000000000000000000 DUP2 MSTORE POP SWAP2 POP JUMPDEST JUMPDEST PUSH1 0x40 MLOAD DUP1 PUSH1 0xA0 ADD PUSH1 0x40 MSTORE DUP1 CALLER PUSH20 0xFFFFFFFFFFFFFFFFFFFFFFFFFFFFFFFFFFFFFFFF AND DUP2 MSTORE PUSH1 0x20 ADD DUP6 PUSH1 0xFF AND DUP2 MSTORE PUSH1 0x20 ADD DUP5 PUSH1 0xFF AND DUP2 MSTORE PUSH1 0x20 ADD DUP4 DUP2 MSTORE PUSH1 0x20 ADD CALLVALUE DUP2 MSTORE POP PUSH1 0x1 PUSH0 DUP3 ADD MLOAD DUP2 PUSH0 ADD PUSH0 PUSH2 0x100 EXP DUP2 SLOAD DUP2 PUSH20 0xFFFFFFFFFFFFFFFFFFFFFFFFFFFFFFFFFFFFFFFF MUL NOT AND SWAP1 DUP4 PUSH20 0xFFFFFFFFFFFFFFFFFFFFFFFFFFFFFFFFFFFFFFFF AND MUL OR SWAP1 SSTORE POP PUSH1 0x20 DUP3 ADD MLOAD DUP2 PUSH0 ADD PUSH1 0x14 PUSH2 0x100 EXP DUP2 SLOAD DUP2 PUSH1 0xFF MUL NOT AND SWAP1 DUP4 PUSH1 0xFF AND MUL OR SWAP1 SSTORE POP PUSH1 0x40 DUP3 ADD MLOAD DUP2 PUSH0 ADD PUSH1 0x15 PUSH2 0x100 EXP DUP2 SLOAD DUP2 PUSH1 0xFF MUL NOT AND SWAP1 DUP4 PUSH1 0xFF AND MUL OR SWAP1 SSTORE POP PUSH1 0x60 DUP3 ADD MLOAD DUP2 PUSH1 0x1 ADD SWAP1 DUP2 PUSH2 0x779 SWAP2 SWAP1 PUSH2 0xD78 JUMP JUMPDEST POP PUSH1 0x80 DUP3 ADD MLOAD DUP2 PUSH1 0x2 ADD SSTORE SWAP1 POP POP CALLER PUSH20 0xFFFFFFFFFFFFFFFFFFFFFFFFFFFFFFFFFFFFFFFF AND PUSH32 0x8210B57D870EBEBF82FB3263F9D6D53341FAE0D16306ECD5B82D841C5227E36 DUP4 DUP4 PUSH1 0x40 MLOAD PUSH2 0x7CF SWAP3 SWAP2 SWAP1 PUSH2 0xE47 JUMP JUMPDEST PUSH1 0x40 MLOAD DUP1 SWAP2 SUB SWAP1 LOG2 POP POP POP POP JUMP JUMPDEST PUSH0 PUSH1 0x3 PREVRANDAO TIMESTAMP CALLER PUSH1 0x40 MLOAD PUSH1 0x20 ADD PUSH2 0x7F5 SWAP4 SWAP3 SWAP2 SWAP1 PUSH2 0xEDA JUMP JUMPDEST PUSH1 0x40 MLOAD PUSH1 0x20 DUP2 DUP4 SUB SUB DUP2 MSTORE SWAP1 PUSH1 0x40 MSTORE DUP1 MLOAD SWAP1 PUSH1 0x20 ADD KECCAK256 PUSH0 SHR PUSH2 0x817 SWAP2 SWAP1 PUSH2 0xF43 JUMP JUMPDEST SWAP1 POP SWAP1 JUMP JUMPDEST PUSH0 DUP2 SWAP1 POP SWAP2 SWAP1 POP JUMP JUMPDEST PUSH2 0x82E DUP2 PUSH2 0x81C JUMP JUMPDEST DUP3 MSTORE POP POP JUMP JUMPDEST PUSH0 PUSH1 0x20 DUP3 ADD SWAP1 POP PUSH2 0x847 PUSH0 DUP4 ADD DUP5 PUSH2 0x825 JUMP JUMPDEST SWAP3 SWAP2 POP POP JUMP JUMPDEST PUSH0 DUP2 MLOAD SWAP1 POP SWAP2 SWAP1 POP JUMP JUMPDEST PUSH0 DUP3 DUP3 MSTORE PUSH1 0x20 DUP3 ADD SWAP1 POP SWAP3 SWAP2 POP POP JUMP JUMPDEST DUP3 DUP2 DUP4 MCOPY PUSH0 DUP4 DUP4 ADD MSTORE POP POP POP JUMP JUMPDEST PUSH0 PUSH1 0x1F NOT PUSH1 0x1F DUP4 ADD AND SWAP1 POP SWAP2 SWAP1 POP JUMP JUMPDEST PUSH0 PUSH2 0x88F DUP3 PUSH2 0x84D JUMP JUMPDEST PUSH2 0x899 DUP2 DUP6 PUSH2 0x857 JUMP JUMPDEST SWAP4 POP PUSH2 0x8A9 DUP2 DUP6 PUSH1 0x20 DUP7 ADD PUSH2 0x867 JUMP JUMPDEST PUSH2 0x8B2 DUP2 PUSH2 0x875 JUMP JUMPDEST DUP5 ADD SWAP2 POP POP SWAP3 SWAP2 POP POP JUMP JUMPDEST PUSH0 PUSH1 0x20 DUP3 ADD SWAP1 POP DUP2 DUP2 SUB PUSH0 DUP4 ADD MSTORE PUSH2 0x8D5 DUP2 DUP5 PUSH2 0x885 JUMP JUMPDEST SWAP1 POP SWAP3 SWAP2 POP POP JUMP JUMPDEST PUSH0 PUSH20 0xFFFFFFFFFFFFFFFFFFFFFFFFFFFFFFFFFFFFFFFF DUP3 AND SWAP1 POP SWAP2 SWAP1 POP JUMP JUMPDEST PUSH0 PUSH2 0x906 DUP3 PUSH2 0x8DD JUMP JUMPDEST SWAP1 POP SWAP2 SWAP1 POP JUMP JUMPDEST PUSH2 0x916 DUP2 PUSH2 0x8FC JUMP JUMPDEST DUP3 MSTORE POP POP JUMP JUMPDEST PUSH0 PUSH1 0xFF DUP3 AND SWAP1 POP SWAP2 SWAP1 POP JUMP JUMPDEST PUSH2 0x931 DUP2 PUSH2 0x91C JUMP JUMPDEST DUP3 MSTORE POP POP JUMP JUMPDEST PUSH0 PUSH1 0xA0 DUP3 ADD SWAP1 POP PUSH2 0x94A PUSH0 DUP4 ADD DUP9 PUSH2 0x90D JUMP JUMPDEST PUSH2 0x957 PUSH1 0x20 DUP4 ADD DUP8 PUSH2 0x928 JUMP JUMPDEST PUSH2 0x964 PUSH1 0x40 DUP4 ADD DUP7 PUSH2 0x928 JUMP JUMPDEST DUP2 DUP2 SUB PUSH1 0x60 DUP4 ADD MSTORE PUSH2 0x976 DUP2 DUP6 PUSH2 0x885 JUMP JUMPDEST SWAP1 POP PUSH2 0x985 PUSH1 0x80 DUP4 ADD DUP5 PUSH2 0x825 JUMP JUMPDEST SWAP7 SWAP6 POP POP POP POP POP POP JUMP JUMPDEST PUSH0 PUSH1 0x20 DUP3 ADD SWAP1 POP PUSH2 0x9A2 PUSH0 DUP4 ADD DUP5 PUSH2 0x90D JUMP JUMPDEST SWAP3 SWAP2 POP POP JUMP JUMPDEST PUSH32 0x4E487B7100000000000000000000000000000000000000000000000000000000 PUSH0 MSTORE PUSH1 0x22 PUSH1 0x4 MSTORE PUSH1 0x24 PUSH0 REVERT JUMPDEST PUSH0 PUSH1 0x2 DUP3 DIV SWAP1 POP PUSH1 0x1 DUP3 AND DUP1 PUSH2 0x9EC JUMPI PUSH1 0x7F DUP3 AND SWAP2 POP JUMPDEST PUSH1 0x20 DUP3 LT DUP2 SUB PUSH2 0x9FF JUMPI PUSH2 0x9FE PUSH2 0x9A8 JUMP JUMPDEST JUMPDEST POP SWAP2 SWAP1 POP JUMP JUMPDEST PUSH32 0x4E6F7420616E206F776E65720000000000000000000000000000000000000000 PUSH0 DUP3 ADD MSTORE POP JUMP JUMPDEST PUSH0 PUSH2 0xA39 PUSH1 0xC DUP4 PUSH2 0x857 JUMP JUMPDEST SWAP2 POP PUSH2 0xA44 DUP3 PUSH2 0xA05 JUMP JUMPDEST PUSH1 0x20 DUP3 ADD SWAP1 POP SWAP2 SWAP1 POP JUMP JUMPDEST PUSH0 PUSH1 0x20 DUP3 ADD SWAP1 POP DUP2 DUP2 SUB PUSH0 DUP4 ADD MSTORE PUSH2 0xA66 DUP2 PUSH2 0xA2D JUMP JUMPDEST SWAP1 POP SWAP2 SWAP1 POP JUMP JUMPDEST PUSH32 0x42657420746F6F206C6F77000000000000000000000000000000000000000000 PUSH0 DUP3 ADD MSTORE POP JUMP JUMPDEST PUSH0 PUSH2 0xAA1 PUSH1 0xB DUP4 PUSH2 0x857 JUMP JUMPDEST SWAP2 POP PUSH2 0xAAC DUP3 PUSH2 0xA6D JUMP JUMPDEST PUSH1 0x20 DUP3 ADD SWAP1 POP SWAP2 SWAP1 POP JUMP JUMPDEST PUSH0 PUSH1 0x20 DUP3 ADD SWAP1 POP DUP2 DUP2 SUB PUSH0 DUP4 ADD MSTORE PUSH2 0xACE DUP2 PUSH2 0xA95 JUMP JUMPDEST SWAP1 POP SWAP2 SWAP1 POP JUMP JUMPDEST PUSH32 0x4E487B7100000000000000000000000000000000000000000000000000000000 PUSH0 MSTORE PUSH1 0x11 PUSH1 0x4 MSTORE PUSH1 0x24 PUSH0 REVERT JUMPDEST PUSH0 PUSH2 0xB0C DUP3 PUSH2 0x81C JUMP JUMPDEST SWAP2 POP PUSH2 0xB17 DUP4 PUSH2 0x81C JUMP JUMPDEST SWAP3 POP DUP3 DUP3 MUL PUSH2 0xB25 DUP2 PUSH2 0x81C JUMP JUMPDEST SWAP2 POP DUP3 DUP3 DIV DUP5 EQ DUP4 ISZERO OR PUSH2 0xB3C JUMPI PUSH2 0xB3B PUSH2 0xAD5 JUMP JUMPDEST JUMPDEST POP SWAP3 SWAP2 POP POP JUMP JUMPDEST PUSH32 0x436F6E747261637420697320656D707479000000000000000000000000000000 PUSH0 DUP3 ADD MSTORE POP JUMP JUMPDEST PUSH0 PUSH2 0xB77 PUSH1 0x11 DUP4 PUSH2 0x857 JUMP JUMPDEST SWAP2 POP PUSH2 0xB82 DUP3 PUSH2 0xB43 JUMP JUMPDEST PUSH1 0x20 DUP3 ADD SWAP1 POP SWAP2 SWAP1 POP JUMP JUMPDEST PUSH0 PUSH1 0x20 DUP3 ADD SWAP1 POP DUP2 DUP2 SUB PUSH0 DUP4 ADD MSTORE PUSH2 0xBA4 DUP2 PUSH2 0xB6B JUMP JUMPDEST SWAP1 POP SWAP2 SWAP1 POP JUMP JUMPDEST PUSH32 0x4E487B7100000000000000000000000000000000000000000000000000000000 PUSH0 MSTORE PUSH1 0x41 PUSH1 0x4 MSTORE PUSH1 0x24 PUSH0 REVERT JUMPDEST PUSH0 DUP2 SWAP1 POP DUP2 PUSH0 MSTORE PUSH1 0x20 PUSH0 KECCAK256 SWAP1 POP SWAP2 SWAP1 POP JUMP JUMPDEST PUSH0 PUSH1 0x20 PUSH1 0x1F DUP4 ADD DIV SWAP1 POP SWAP2 SWAP1 POP JUMP JUMPDEST PUSH0 DUP3 DUP3 SHL SWAP1 POP SWAP3 SWAP2 POP POP JUMP JUMPDEST PUSH0 PUSH1 0x8 DUP4 MUL PUSH2 0xC34 PUSH32 0xFFFFFFFFFFFFFFFFFFFFFFFFFFFFFFFFFFFFFFFFFFFFFFFFFFFFFFFFFFFFFFFF DUP3 PUSH2 0xBF9 JUMP JUMPDEST PUSH2 0xC3E DUP7 DUP4 PUSH2 0xBF9 JUMP JUMPDEST SWAP6 POP DUP1 NOT DUP5 AND SWAP4 POP DUP1 DUP7 AND DUP5 OR SWAP3 POP POP POP SWAP4 SWAP3 POP POP POP JUMP JUMPDEST PUSH0 DUP2 SWAP1 POP SWAP2 SWAP1 POP JUMP JUMPDEST PUSH0 PUSH2 0xC79 PUSH2 0xC74 PUSH2 0xC6F DUP5 PUSH2 0x81C JUMP JUMPDEST PUSH2 0xC56 JUMP JUMPDEST PUSH2 0x81C JUMP JUMPDEST SWAP1 POP SWAP2 SWAP1 POP JUMP JUMPDEST PUSH0 DUP2 SWAP1 POP SWAP2 SWAP1 POP JUMP JUMPDEST PUSH2 0xC92 DUP4 PUSH2 0xC5F JUMP JUMPDEST PUSH2 0xCA6 PUSH2 0xC9E DUP3 PUSH2 0xC80 JUMP JUMPDEST DUP5 DUP5 SLOAD PUSH2 0xC05 JUMP JUMPDEST DUP3 SSTORE POP POP POP POP JUMP JUMPDEST PUSH0 PUSH0 SWAP1 POP SWAP1 JUMP JUMPDEST PUSH2 0xCBD PUSH2 0xCAE JUMP JUMPDEST PUSH2 0xCC8 DUP2 DUP5 DUP5 PUSH2 0xC89 JUMP JUMPDEST POP POP POP JUMP JUMPDEST JUMPDEST DUP2 DUP2 LT ISZERO PUSH2 0xCEB JUMPI PUSH2 0xCE0 PUSH0 DUP3 PUSH2 0xCB5 JUMP JUMPDEST PUSH1 0x1 DUP2 ADD SWAP1 POP PUSH2 0xCCE JUMP JUMPDEST POP POP JUMP JUMPDEST PUSH1 0x1F DUP3 GT ISZERO PUSH2 0xD30 JUMPI PUSH2 0xD01 DUP2 PUSH2 0xBD8 JUMP JUMPDEST PUSH2 0xD0A DUP5 PUSH2 0xBEA JUMP JUMPDEST DUP2 ADD PUSH1 0x20 DUP6 LT ISZERO PUSH2 0xD19 JUMPI DUP2 SWAP1 POP JUMPDEST PUSH2 0xD2D PUSH2 0xD25 DUP6 PUSH2 0xBEA JUMP JUMPDEST DUP4 ADD DUP3 PUSH2 0xCCD JUMP JUMPDEST POP POP JUMPDEST POP POP POP JUMP JUMPDEST PUSH0 DUP3 DUP3 SHR SWAP1 POP SWAP3 SWAP2 POP POP JUMP JUMPDEST PUSH0 PUSH2 0xD50 PUSH0 NOT DUP5 PUSH1 0x8 MUL PUSH2 0xD35 JUMP JUMPDEST NOT DUP1 DUP4 AND SWAP2 POP POP SWAP3 SWAP2 POP POP JUMP JUMPDEST PUSH0 PUSH2 0xD68 DUP4 DUP4 PUSH2 0xD41 JUMP JUMPDEST SWAP2 POP DUP3 PUSH1 0x2 MUL DUP3 OR SWAP1 POP SWAP3 SWAP2 POP POP JUMP JUMPDEST PUSH2 0xD81 DUP3 PUSH2 0x84D JUMP JUMPDEST PUSH8 0xFFFFFFFFFFFFFFFF DUP2 GT ISZERO PUSH2 0xD9A JUMPI PUSH2 0xD99 PUSH2 0xBAB JUMP JUMPDEST JUMPDEST PUSH2 0xDA4 DUP3 SLOAD PUSH2 0x9D5 JUMP JUMPDEST PUSH2 0xDAF DUP3 DUP3 DUP6 PUSH2 0xCEF JUMP JUMPDEST PUSH0 PUSH1 0x20 SWAP1 POP PUSH1 0x1F DUP4 GT PUSH1 0x1 DUP2 EQ PUSH2 0xDE0 JUMPI PUSH0 DUP5 ISZERO PUSH2 0xDCE JUMPI DUP3 DUP8 ADD MLOAD SWAP1 POP JUMPDEST PUSH2 0xDD8 DUP6 DUP3 PUSH2 0xD5D JUMP JUMPDEST DUP7 SSTORE POP PUSH2 0xE3F JUMP JUMPDEST PUSH1 0x1F NOT DUP5 AND PUSH2 0xDEE DUP7 PUSH2 0xBD8 JUMP JUMPDEST PUSH0 JUMPDEST DUP3 DUP2 LT ISZERO PUSH2 0xE15 JUMPI DUP5 DUP10 ADD MLOAD DUP3 SSTORE PUSH1 0x1 DUP3 ADD SWAP2 POP PUSH1 0x20 DUP6 ADD SWAP5 POP PUSH1 0x20 DUP2 ADD SWAP1 POP PUSH2 0xDF0 JUMP JUMPDEST DUP7 DUP4 LT ISZERO PUSH2 0xE32 JUMPI DUP5 DUP10 ADD MLOAD PUSH2 0xE2E PUSH1 0x1F DUP10 AND DUP3 PUSH2 0xD41 JUMP JUMPDEST DUP4 SSTORE POP JUMPDEST PUSH1 0x1 PUSH1 0x2 DUP9 MUL ADD DUP9 SSTORE POP POP POP JUMPDEST POP POP POP POP POP POP JUMP JUMPDEST PUSH0 PUSH1 0x40 DUP3 ADD SWAP1 POP DUP2 DUP2 SUB PUSH0 DUP4 ADD MSTORE PUSH2 0xE5F DUP2 DUP6 PUSH2 0x885 JUMP JUMPDEST SWAP1 POP PUSH2 0xE6E PUSH1 0x20 DUP4 ADD DUP5 PUSH2 0x825 JUMP JUMPDEST SWAP4 SWAP3 POP POP POP JUMP JUMPDEST PUSH0 DUP2 SWAP1 POP SWAP2 SWAP1 POP JUMP JUMPDEST PUSH2 0xE8F PUSH2 0xE8A DUP3 PUSH2 0x81C JUMP JUMPDEST PUSH2 0xE75 JUMP JUMPDEST DUP3 MSTORE POP POP JUMP JUMPDEST PUSH0 DUP2 PUSH1 0x60 SHL SWAP1 POP SWAP2 SWAP1 POP JUMP JUMPDEST PUSH0 PUSH2 0xEAB DUP3 PUSH2 0xE95 JUMP JUMPDEST SWAP1 POP SWAP2 SWAP1 POP JUMP JUMPDEST PUSH0 PUSH2 0xEBC DUP3 PUSH2 0xEA1 JUMP JUMPDEST SWAP1 POP SWAP2 SWAP1 POP JUMP JUMPDEST PUSH2 0xED4 PUSH2 0xECF DUP3 PUSH2 0x8FC JUMP JUMPDEST PUSH2 0xEB2 JUMP JUMPDEST DUP3 MSTORE POP POP JUMP JUMPDEST PUSH0 PUSH2 0xEE5 DUP3 DUP7 PUSH2 0xE7E JUMP JUMPDEST PUSH1 0x20 DUP3 ADD SWAP2 POP PUSH2 0xEF5 DUP3 DUP6 PUSH2 0xE7E JUMP JUMPDEST PUSH1 0x20 DUP3 ADD SWAP2 POP PUSH2 0xF05 DUP3 DUP5 PUSH2 0xEC3 JUMP JUMPDEST PUSH1 0x14 DUP3 ADD SWAP2 POP DUP2 SWAP1 POP SWAP5 SWAP4 POP POP POP POP JUMP JUMPDEST PUSH32 0x4E487B7100000000000000000000000000000000000000000000000000000000 PUSH0 MSTORE PUSH1 0x12 PUSH1 0x4 MSTORE PUSH1 0x24 PUSH0 REVERT JUMPDEST PUSH0 PUSH2 0xF4D DUP3 PUSH2 0x81C JUMP JUMPDEST SWAP2 POP PUSH2 0xF58 DUP4 PUSH2 0x81C JUMP JUMPDEST SWAP3 POP DUP3 PUSH2 0xF68 JUMPI PUSH2 0xF67 PUSH2 0xF16 JUMP JUMPDEST JUMPDEST DUP3 DUP3 MOD SWAP1 POP SWAP3 SWAP2 POP POP JUMP INVALID 0xD0 SWAP16 DATALOADN 0x80D0 0xB0 0xD0 0xB2 0xD0 0xB8 0xD0 0xBB 0xD0 0xB0 GASPRICE KECCAK256 ADDRESS 0x2D 0xD0 SWAP11 0xD0 0xB0 0xD0 0xBC 0xD0 0xB5 0xD0 0xBD DATALOADN 0x8C2C KECCAK256 BALANCE 0x2D 0xD0 SWAP14 0xD0 0xBE 0xD0 0xB6 0xD0 0xBD 0xD0 0xB8 DATALOADN 0x86D1 DUP12 0x2C KECCAK256 ORIGIN 0x2D 0xD0 SWAP2 DATALOADN 0x83D0 0xBC 0xD0 0xB0 0xD0 0xB3 0xD0 0xB0 0x2E KECCAK256 0xD0 SWAP3 DATALOADN 0x8BD0 0xB8 0xD0 0xB3 DATALOADN 0x80D1 DUP12 DATALOADN 0x883A KECCAK256 PUSH25 0x3220D0BED18220D181D182D0B0D0B2D0BAD0B82E20D09DD0B8 DATALOADN 0x87D1 DUP13 DATALOADN 0x8F3A KECCAK256 0xD0 0xB2 0xD0 0xBE 0xD0 0xB7 0xD0 0xB2 DATALOADN 0x80D0 0xB0 DATALOADN 0x822E KECCAK256 0xD0 SWAP13 0xD0 0xB8 0xD0 0xBD 0x2E KECCAK256 DATALOADN 0x81D1 DUP3 0xD0 0xB0 0xD0 0xB2 0xD0 0xBA 0xD0 0xB0 GASPRICE KECCAK256 ADDRESS 0x2E ADDRESS ADDRESS ADDRESS BALANCE KECCAK256 GASLIMIT SLOAD BASEFEE 0x2E LOG2 PUSH5 0x6970667358 0x22 SLT KECCAK256 DUP8 SWAP2 SLT PUSH1 0xA DUP12 CALLCODE EXTCALL DUP9 DUP2 SWAP6 ISZERO TSTORE PUSH2 0x324E RETURNDATACOPY PUSH16 0x87BB6CA7E34AFA03A5588E4692766473 PUSH16 0x6C634300081F00330000000000000000 "
				},
				"gasEstimates": {
					"creation": {
						"codeDepositCost": "834800",
						"executionCost": "25108",
						"totalCost": "859908"
					},
					"external": {
						"MIN_BET()": "392",
						"deposit()": "1755",
						"getBalance()": "335",
						"getRules()": "infinite",
						"lastRound()": "infinite",
						"owner()": "2551",
						"playPaper()": "infinite",
						"playRock()": "infinite",
						"playScissors()": "infinite",
						"withdrawAll()": "infinite"
					},
					"internal": {
						"_generateRandom()": "infinite",
						"_play(uint8)": "infinite"
					}
				},
				"methodIdentifiers": {
					"MIN_BET()": "6540742f",
					"deposit()": "d0e30db0",
					"getBalance()": "12065fe0",
					"getRules()": "45e2984a",
					"lastRound()": "82bc07e6",
					"owner()": "8da5cb5b",
					"playPaper()": "e856bb18",
					"playRock()": "41a26083",
					"playScissors()": "6be2c84e",
					"withdrawAll()": "853828b6"
				}
			},
			"storageLayout": {
				"storage": [
					{
						"astId": 3,
						"contract": "contracts/rockScissorPaper.sol:rockScissorPaper",
						"label": "owner",
						"offset": 0,
						"slot": "0",
						"type": "t_address"
					},
					{
						"astId": 20,
						"contract": "contracts/rockScissorPaper.sol:rockScissorPaper",
						"label": "lastRound",
						"offset": 0,
						"slot": "1",
						"type": "t_struct(LastGame)17_storage"
					}
				],
				"types": {
					"t_address": {
						"encoding": "inplace",
						"label": "address",
						"numberOfBytes": "20"
					},
					"t_string_storage": {
						"encoding": "bytes",
						"label": "string",
						"numberOfBytes": "32"
					},
					"t_struct(LastGame)17_storage": {
						"encoding": "inplace",
						"label": "struct rockScissorPaper.LastGame",
						"members": [
							{
								"astId": 8,
								"contract": "contracts/rockScissorPaper.sol:rockScissorPaper",
								"label": "player",
								"offset": 0,
								"slot": "0",
								"type": "t_address"
							},
							{
								"astId": 10,
								"contract": "contracts/rockScissorPaper.sol:rockScissorPaper",
								"label": "playerChoice",
								"offset": 20,
								"slot": "0",
								"type": "t_uint8"
							},
							{
								"astId": 12,
								"contract": "contracts/rockScissorPaper.sol:rockScissorPaper",
								"label": "cpuChoice",
								"offset": 21,
								"slot": "0",
								"type": "t_uint8"
							},
							{
								"astId": 14,
								"contract": "contracts/rockScissorPaper.sol:rockScissorPaper",
								"label": "result",
								"offset": 0,
								"slot": "1",
								"type": "t_string_storage"
							},
							{
								"astId": 16,
								"contract": "contracts/rockScissorPaper.sol:rockScissorPaper",
								"label": "bet",
								"offset": 0,
								"slot": "2",
								"type": "t_uint256"
							}
						],
						"numberOfBytes": "96"
					},
					"t_uint256": {
						"encoding": "inplace",
						"label": "uint256",
						"numberOfBytes": "32"
					},
					"t_uint8": {
						"encoding": "inplace",
						"label": "uint8",
						"numberOfBytes": "1"
					}
				}
			},
			"userdoc": {
				"kind": "user",
				"methods": {},
				"version": 1
			}
		}
	}
}